{"abi":[{"type":"constructor","inputs":[{"name":"pendleRouterV4_","type":"address","internalType":"address"}],"stateMutability":"nonpayable"},{"type":"function","name":"PENDLE_ROUTER_V4","inputs":[],"outputs":[{"name":"","type":"address","internalType":"contract IPendleRouterV4"}],"stateMutability":"view"},{"type":"function","name":"SUB_TYPE","inputs":[],"outputs":[{"name":"","type":"bytes32","internalType":"bytes32"}],"stateMutability":"view"},{"type":"function","name":"asset","inputs":[],"outputs":[{"name":"","type":"address","internalType":"address"}],"stateMutability":"view"},{"type":"function","name":"build","inputs":[{"name":"prevHook","type":"address","internalType":"address"},{"name":"account","type":"address","internalType":"address"},{"name":"hookData","type":"bytes","internalType":"bytes"}],"outputs":[{"name":"executions","type":"tuple[]","internalType":"struct Execution[]","components":[{"name":"target","type":"address","internalType":"address"},{"name":"value","type":"uint256","internalType":"uint256"},{"name":"callData","type":"bytes","internalType":"bytes"}]}],"stateMutability":"view"},{"type":"function","name":"decodeUsePrevHookAmount","inputs":[{"name":"data","type":"bytes","internalType":"bytes"}],"outputs":[{"name":"","type":"bool","internalType":"bool"}],"stateMutability":"pure"},{"type":"function","name":"executionNonce","inputs":[],"outputs":[{"name":"","type":"uint256","internalType":"uint256"}],"stateMutability":"view"},{"type":"function","name":"getOutAmount","inputs":[{"name":"caller","type":"address","internalType":"address"}],"outputs":[{"name":"","type":"uint256","internalType":"uint256"}],"stateMutability":"view"},{"type":"function","name":"hookType","inputs":[],"outputs":[{"name":"","type":"uint8","internalType":"enum ISuperHook.HookType"}],"stateMutability":"view"},{"type":"function","name":"inspect","inputs":[{"name":"data","type":"bytes","internalType":"bytes"}],"outputs":[{"name":"","type":"bytes","internalType":"bytes"}],"stateMutability":"view"},{"type":"function","name":"lastCaller","inputs":[],"outputs":[{"name":"","type":"address","internalType":"address"}],"stateMutability":"view"},{"type":"function","name":"postExecute","inputs":[{"name":"prevHook","type":"address","internalType":"address"},{"name":"account","type":"address","internalType":"address"},{"name":"data","type":"bytes","internalType":"bytes"}],"outputs":[],"stateMutability":"nonpayable"},{"type":"function","name":"preExecute","inputs":[{"name":"prevHook","type":"address","internalType":"address"},{"name":"account","type":"address","internalType":"address"},{"name":"data","type":"bytes","internalType":"bytes"}],"outputs":[],"stateMutability":"nonpayable"},{"type":"function","name":"resetExecutionState","inputs":[{"name":"caller","type":"address","internalType":"address"}],"outputs":[],"stateMutability":"nonpayable"},{"type":"function","name":"setExecutionContext","inputs":[{"name":"caller","type":"address","internalType":"address"}],"outputs":[],"stateMutability":"nonpayable"},{"type":"function","name":"setOutAmount","inputs":[{"name":"_outAmount","type":"uint256","internalType":"uint256"},{"name":"caller","type":"address","internalType":"address"}],"outputs":[],"stateMutability":"nonpayable"},{"type":"function","name":"spToken","inputs":[],"outputs":[{"name":"","type":"address","internalType":"address"}],"stateMutability":"view"},{"type":"function","name":"subtype","inputs":[],"outputs":[{"name":"","type":"bytes32","internalType":"bytes32"}],"stateMutability":"view"},{"type":"function","name":"usedShares","inputs":[],"outputs":[{"name":"","type":"uint256","internalType":"uint256"}],"stateMutability":"view"},{"type":"error","name":"ADDRESS_NOT_VALID","inputs":[]},{"type":"error","name":"AMOUNT_NOT_VALID","inputs":[]},{"type":"error","name":"CANNOT_SET_OUT_AMOUNT","inputs":[]},{"type":"error","name":"INCOMPLETE_HOOK_EXECUTION","inputs":[]},{"type":"error","name":"INVALID_DATA_LENGTH","inputs":[]},{"type":"error","name":"MIN_TOKEN_OUT_NOT_VALID","inputs":[]},{"type":"error","name":"NOT_AUTHORIZED","inputs":[]},{"type":"error","name":"POST_EXECUTE_ALREADY_CALLED","inputs":[]},{"type":"error","name":"PRE_EXECUTE_ALREADY_CALLED","inputs":[]},{"type":"error","name":"RECEIVER_NOT_VALID","inputs":[]},{"type":"error","name":"SY_NOT_VALID","inputs":[]},{"type":"error","name":"TOKEN_OUT_NOT_LISTED","inputs":[]},{"type":"error","name":"TOKEN_OUT_NOT_VALID","inputs":[]},{"type":"error","name":"UNAUTHORIZED_CALLER","inputs":[]},{"type":"error","name":"YT_NOT_VALID","inputs":[]}],"bytecode":{"object":"0x60c060405234801561000f575f5ffd5b50604051611b2c380380611b2c83398101604081905261002e916100af565b6040805180820190915260048152631415165560e21b6020909101525f805460ff191690557fb86a7e98c9c656516a060ac5bc14d0453b037386adfb5f9f2ae12ee7a543e1b46080526001600160a01b03811661009e57604051630f58648f60e01b815260040160405180910390fd5b6001600160a01b031660a0526100dc565b5f602082840312156100bf575f5ffd5b81516001600160a01b03811681146100d5575f5ffd5b9392505050565b60805160a051611a136101195f395f818161019b01528181610937015281816109eb0152610a8901525f8181610204015261027a0152611a135ff3fe608060405234801561000f575f5ffd5b5060043610610111575f3560e01c80635492e6771161009e5780638e1487761161006e5780638e14877614610263578063984d6e7a14610275578063d06a1e891461029c578063e445e7dd146102af578063e7745517146102c8575f5ffd5b80635492e67714610202578063685a943c1461022857806381cbe691146102305780638c4313c114610243575f5ffd5b80632113522a116100e45780632113522a1461016c57806321bd8052146101965780632ae2fe3d146101bd57806338d52e0f146101d05780633b5896bc146101e2575f5ffd5b806301bd43ef1461011557806305b4fe911461013157806314cb37cf146101465780631f26461914610159575b5f5ffd5b61011e60035c81565b6040519081526020015b60405180910390f35b61014461013f3660046113d0565b6102eb565b005b610144610154366004611431565b610365565b61014461016736600461144c565b610386565b61017e6001600160a01b0360045c1681565b6040516001600160a01b039091168152602001610128565b61017e7f000000000000000000000000000000000000000000000000000000000000000081565b6101446101cb3660046113d0565b6103df565b61017e6001600160a01b0360025c1681565b6101f56101f03660046113d0565b610452565b60405161012891906114a8565b7f000000000000000000000000000000000000000000000000000000000000000061011e565b61011e5f5c81565b61011e61023e366004611431565b61066b565b610256610251366004611535565b610683565b6040516101289190611574565b61017e6001600160a01b0360015c1681565b61011e7f000000000000000000000000000000000000000000000000000000000000000081565b6101446102aa366004611431565b6106ed565b5f546102bb9060ff1681565b604051610128919061159a565b6102db6102d636600461169f565b61076a565b6040519015158152602001610128565b336001600160a01b038416146103145760405163e15e56c960e01b815260040160405180910390fd5b5f61031e84610799565b9050610329816107ac565b156103475760405163945b63f560e01b815260040160405180910390fd5b6103528160016107b9565b61035e858585856107cf565b5050505050565b61036e816107fc565b50336004805c6001600160a01b0319168217905d5050565b5f61039082610799565b905061039b8161082e565b806103aa57506103aa816107ac565b156103c85760405163441e4c7360e11b815260040160405180910390fd5b5f6103d4826001610837565b905083815d50505050565b336001600160a01b038416146104085760405163e15e56c960e01b815260040160405180910390fd5b5f61041284610799565b905061041d8161082e565b1561043b57604051630bbb04d960e11b815260040160405180910390fd5b61044681600161088c565b61035e85858585610898565b60605f610461868686866108a6565b90508051600261047191906116e5565b67ffffffffffffffff811115610489576104896115b4565b6040519080825280602002602001820160405280156104d557816020015b60408051606080820183525f8083526020830152918101919091528152602001906001900390816104a75790505b5091506040518060600160405280306001600160a01b031681526020015f8152602001306001600160a01b0316632ae2fe3d8989898960405160240161051e94939291906116f8565b604051602081830303815290604052915060e01b6020820180516001600160e01b038381831617835250505050815250825f8151811061056057610560611740565b60209081029190910101525f5b81518110156105c15781818151811061058857610588611740565b60200260200101518382600161059e91906116e5565b815181106105ae576105ae611740565b602090810291909101015260010161056d565b506040518060600160405280306001600160a01b031681526020015f8152602001306001600160a01b03166305b4fe918989898960405160240161060894939291906116f8565b604051602081830303815290604052915060e01b6020820180516001600160e01b03838183161783525050505081525082600184516106479190611754565b8151811061065757610657611740565b602002602001018190525050949350505050565b5f61067d61067883610799565b610b31565b92915050565b60605f6106908484610b3e565b60208082015160408084015160608086015192516bffffffffffffffffffffffff1994821b85169581019590955290811b831660348501521b166048820152909150605c0160405160208183030381529060405291505092915050565b336001600160a01b0360045c16146107185760405163e15e56c960e01b815260040160405180910390fd5b5f61072282610799565b905061072d8161082e565b158061073f575061073d816107ac565b155b1561075d57604051634bd439b560e11b815260040160405180910390fd5b61076681610f70565b5050565b5f607d8251101561078e576040516358f385d760e01b815260040160405180910390fd5b61067d82607c610f87565b5f5f6107a483610fb3565b5c9392505050565b5f5f6107a4836003610837565b5f6107c5836003610837565b905081815d505050565b6107f66107db8461066b565b6107e684848761101f565b6107f09190611754565b8461111c565b50505050565b5f6003805c908261080c83611767565b9190505d505f61081b83610fb3565b905060035c80825d505060035c92915050565b5f5f6107a48360025b604080517fc41a07c57a776f6217c6d4278dfe7a5d114742afe55627ce458c2802aa4d703460208083019190915281830194909452606080820193909352815180820390930183526080019052805191012090565b5f6107c5836002610837565b6107f66107f083838661101f565b60605f6108b38484610b3e565b90505f6108c9825f01518360a001518989611134565b60408051600380825260808201909252919250816020015b60408051606080820183525f8083526020830152918101919091528152602001906001900390816108e1579050509250604051806060016040528083604001516001600160a01b031681526020015f81526020017f00000000000000000000000000000000000000000000000000000000000000008360405160240161097c9291906001600160a01b03929092168252602082015260400190565b60408051601f198184030181529190526020810180516001600160e01b031663095ea7b360e01b1790529052835184905f906109ba576109ba611740565b6020026020010181905250604051806060016040528083602001516001600160a01b031681526020015f81526020017f000000000000000000000000000000000000000000000000000000000000000083604051602401610a309291906001600160a01b03929092168252602082015260400190565b60408051601f198184030181529190526020810180516001600160e01b031663095ea7b360e01b1790529052835184906001908110610a7157610a71611740565b602002602001018190525060405180606001604052807f00000000000000000000000000000000000000000000000000000000000000006001600160a01b031681526020015f8152602001878460200151848660c00151604051602401610adb949392919061177f565b60408051601f198184030181529190526020810180516001600160e01b03166323f8ef1160e11b1790529052835184906002908110610b1c57610b1c611740565b60200260200101819052505050949350505050565b5f5f6107a4836001610837565b610b466112bb565b607d821015610b68576040516358f385d760e01b815260040160405180910390fd5b610ba683838080601f0160208091040260200160405190810160405280939291908181526020018383808284375f92018290525092506111f5915050565b8152604080516020601f8501819004810282018101909252838152610be79185908590819084018382808284375f9201919091525060209250611257915050565b6001600160a01b031660208083019190915260408051601f8501839004830281018301909152838152610c369185908590819084018382808284375f9201919091525060349250611257915050565b6001600160a01b031660408083019190915280516020601f8501819004810282018101909252838152610c859185908590819084018382808284375f9201919091525060489250611257915050565b6001600160a01b03166060820152604080516020601f8501819004810282018101909252838152610cd29185908590819084018382808284375f92019190915250605c92506111f5915050565b6080820152604080516020601f8501819004810282018101909252838152610d169185908590819084018382808284375f92019190915250607c9250610f87915050565b151560a082015260208101516001600160a01b0316610d48576040516326d9999560e11b815260040160405180910390fd5b60608101516001600160a01b0316610d73576040516389efedaf60e01b815260040160405180910390fd5b80608001515f03610d975760405163617d18e360e01b815260040160405180910390fd5b610da482607d8186611849565b810190610db1919061187d565b60c08201819052606082015190516001600160a01b03908116911614610dea576040516389efedaf60e01b815260040160405180910390fd5b80608001518160c001516020015114610e165760405163617d18e360e01b815260040160405180910390fd5b602080820151604080516004815260248101825292830180516001600160e01b031663afd27bf560e01b179052515f9283926001600160a01b031691610e5c91906119a3565b5f60405180830381855afa9150503d805f8114610e94576040519150601f19603f3d011682016040523d82523d5f602084013e610e99565b606091505b5091509150811580610eac575060208151105b15610eca5760405163f58c530960e01b815260040160405180910390fd5b80806020019051810190610ede91906119b9565b6060840151604051633c21b3eb60e11b81526001600160a01b03918216600482015291169063784367d690602401602060405180830381865afa158015610f27573d5f5f3e3d5ffd5b505050506040513d601f19601f82011682018060405250810190610f4b91906119d4565b610f68576040516387430d2560e01b815260040160405180910390fd5b505092915050565b610f7a815f61088c565b610f84815f6107b9565b50565b5f828281518110610f9a57610f9a611740565b01602001516001600160f81b0319161515905092915050565b5f7f8ce092d4869bdfa1a1ce579ddddb2b776c39ace5d7b5d7e70e97ece2a78f4f9b8260405160200161100292919091825260601b6bffffffffffffffffffffffff1916602082015260340190565b604051602081830303815290604052805190602001209050919050565b5f605c80841015611043576040516358f385d760e01b815260040160405180910390fd5b5f61108586868080601f0160208091040260200160405190810160405280939291908181526020018383808284375f9201919091525060489250611257915050565b90506001600160a01b0381166110a8575050506001600160a01b03811631611115565b6040516370a0823160e01b81526001600160a01b0385811660048301528216906370a0823190602401602060405180830381865afa1580156110ec573d5f5f3e3d5ffd5b505050506040513d601f19601f8201168201806040525081019061111091906119ef565b925050505b9392505050565b5f61112682610799565b90505f6103d4826001610837565b5f83156111ca576040516381cbe69160e01b81526001600160a01b0383811660048301528416906381cbe69190602401602060405180830381865afa15801561117f573d5f5f3e3d5ffd5b505050506040513d601f19601f820116820180604052508101906111a391906119ef565b9050805f036111c5576040516305112ab160e41b815260040160405180910390fd5b6111ed565b845f036111ea576040516305112ab160e41b815260040160405180910390fd5b50835b949350505050565b5f6112018260206116e5565b8351101561124e5760405162461bcd60e51b8152602060048201526015602482015274746f55696e743235365f6f75744f66426f756e647360581b60448201526064015b60405180910390fd5b50016020015190565b5f6112638260146116e5565b835110156112ab5760405162461bcd60e51b8152602060048201526015602482015274746f416464726573735f6f75744f66426f756e647360581b6044820152606401611245565b500160200151600160601b900490565b6040518060e001604052805f81526020015f6001600160a01b031681526020015f6001600160a01b031681526020015f6001600160a01b031681526020015f81526020015f151581526020016113726040518060a001604052805f6001600160a01b031681526020015f81526020015f6001600160a01b031681526020015f6001600160a01b031681526020016113726040805160808101909152805f81525f602082018190526060604083018190529091015290565b905290565b6001600160a01b0381168114610f84575f5ffd5b5f5f83601f84011261139b575f5ffd5b50813567ffffffffffffffff8111156113b2575f5ffd5b6020830191508360208285010111156113c9575f5ffd5b9250929050565b5f5f5f5f606085870312156113e3575f5ffd5b84356113ee81611377565b935060208501356113fe81611377565b9250604085013567ffffffffffffffff811115611419575f5ffd5b6114258782880161138b565b95989497509550505050565b5f60208284031215611441575f5ffd5b813561111581611377565b5f5f6040838503121561145d575f5ffd5b82359150602083013561146f81611377565b809150509250929050565b5f81518084528060208401602086015e5f602082860101526020601f19601f83011685010191505092915050565b5f602082016020835280845180835260408501915060408160051b8601019250602086015f5b8281101561152957868503603f19018452815180516001600160a01b03168652602080820151908701526040908101516060918701829052906115139087018261147a565b95505060209384019391909101906001016114ce565b50929695505050505050565b5f5f60208385031215611546575f5ffd5b823567ffffffffffffffff81111561155c575f5ffd5b6115688582860161138b565b90969095509350505050565b602081525f611115602083018461147a565b634e487b7160e01b5f52602160045260245ffd5b60208101600383106115ae576115ae611586565b91905290565b634e487b7160e01b5f52604160045260245ffd5b60405160a0810167ffffffffffffffff811182821017156115eb576115eb6115b4565b60405290565b6040516080810167ffffffffffffffff811182821017156115eb576115eb6115b4565b5f82601f830112611623575f5ffd5b813567ffffffffffffffff81111561163d5761163d6115b4565b604051601f8201601f19908116603f0116810167ffffffffffffffff8111828210171561166c5761166c6115b4565b604052818152838201602001851015611683575f5ffd5b816020850160208301375f918101602001919091529392505050565b5f602082840312156116af575f5ffd5b813567ffffffffffffffff8111156116c5575f5ffd5b6111ed84828501611614565b634e487b7160e01b5f52601160045260245ffd5b8082018082111561067d5761067d6116d1565b6001600160a01b038581168252841660208201526060604082018190528101829052818360808301375f818301608090810191909152601f909201601f191601019392505050565b634e487b7160e01b5f52603260045260245ffd5b8181038181111561067d5761067d6116d1565b5f60018201611778576117786116d1565b5060010190565b6001600160a01b03858116825284811660208084019190915260408084018690526080606080860182905286518516828701529286015160a08681019190915291860151841660c08601529185015190921660e084015283015161010083019190915280515f9190600b81106117f7576117f7611586565b61012084015260208101516001600160a01b03166101408401526040810151608061016085015261182c6101a085018261147a565b905060608201511515610180850152809250505095945050505050565b5f5f85851115611857575f5ffd5b83861115611863575f5ffd5b5050820193919092039150565b8015158114610f84575f5ffd5b5f6020828403121561188d575f5ffd5b813567ffffffffffffffff8111156118a3575f5ffd5b820160a081850312156118b4575f5ffd5b6118bc6115c8565b81356118c781611377565b81526020828101359082015260408201356118e181611377565b604082015260608201356118f481611377565b6060820152608082013567ffffffffffffffff811115611912575f5ffd5b919091019060808286031215611926575f5ffd5b61192e6115f1565b8235600b811061193c575f5ffd5b8152602083013561194c81611377565b6020820152604083013567ffffffffffffffff81111561196a575f5ffd5b61197687828601611614565b6040830152506060830135925061198c83611870565b606081019290925260808101919091529392505050565b5f82518060208501845e5f920191825250919050565b5f602082840312156119c9575f5ffd5b815161111581611377565b5f602082840312156119e4575f5ffd5b815161111581611870565b5f602082840312156119ff575f5ffd5b505191905056fea164736f6c634300081e000a","linkReferences":{}},"methodIdentifiers":{"PENDLE_ROUTER_V4()":"21bd8052","SUB_TYPE()":"984d6e7a","asset()":"38d52e0f","build(address,address,bytes)":"3b5896bc","decodeUsePrevHookAmount(bytes)":"e7745517","executionNonce()":"01bd43ef","getOutAmount(address)":"81cbe691","hookType()":"e445e7dd","inspect(bytes)":"8c4313c1","lastCaller()":"2113522a","postExecute(address,address,bytes)":"05b4fe91","preExecute(address,address,bytes)":"2ae2fe3d","resetExecutionState(address)":"d06a1e89","setExecutionContext(address)":"14cb37cf","setOutAmount(uint256,address)":"1f264619","spToken()":"8e148776","subtype()":"5492e677","usedShares()":"685a943c"},"id":479}