{"abi":[{"type":"constructor","inputs":[],"stateMutability":"nonpayable"},{"type":"function","name":"SUB_TYPE","inputs":[],"outputs":[{"name":"","type":"bytes32","internalType":"bytes32"}],"stateMutability":"view"},{"type":"function","name":"asset","inputs":[],"outputs":[{"name":"","type":"address","internalType":"address"}],"stateMutability":"view"},{"type":"function","name":"build","inputs":[{"name":"prevHook","type":"address","internalType":"address"},{"name":"account","type":"address","internalType":"address"},{"name":"hookData","type":"bytes","internalType":"bytes"}],"outputs":[{"name":"executions","type":"tuple[]","internalType":"struct Execution[]","components":[{"name":"target","type":"address","internalType":"address"},{"name":"value","type":"uint256","internalType":"uint256"},{"name":"callData","type":"bytes","internalType":"bytes"}]}],"stateMutability":"view"},{"type":"function","name":"executionNonce","inputs":[],"outputs":[{"name":"","type":"uint256","internalType":"uint256"}],"stateMutability":"view"},{"type":"function","name":"getOutAmount","inputs":[{"name":"caller","type":"address","internalType":"address"}],"outputs":[{"name":"","type":"uint256","internalType":"uint256"}],"stateMutability":"view"},{"type":"function","name":"hookType","inputs":[],"outputs":[{"name":"","type":"uint8","internalType":"enum ISuperHook.HookType"}],"stateMutability":"view"},{"type":"function","name":"inspect","inputs":[{"name":"data","type":"bytes","internalType":"bytes"}],"outputs":[{"name":"","type":"bytes","internalType":"bytes"}],"stateMutability":"pure"},{"type":"function","name":"lastCaller","inputs":[],"outputs":[{"name":"","type":"address","internalType":"address"}],"stateMutability":"view"},{"type":"function","name":"postExecute","inputs":[{"name":"prevHook","type":"address","internalType":"address"},{"name":"account","type":"address","internalType":"address"},{"name":"data","type":"bytes","internalType":"bytes"}],"outputs":[],"stateMutability":"nonpayable"},{"type":"function","name":"preExecute","inputs":[{"name":"prevHook","type":"address","internalType":"address"},{"name":"account","type":"address","internalType":"address"},{"name":"data","type":"bytes","internalType":"bytes"}],"outputs":[],"stateMutability":"nonpayable"},{"type":"function","name":"resetExecutionState","inputs":[{"name":"caller","type":"address","internalType":"address"}],"outputs":[],"stateMutability":"nonpayable"},{"type":"function","name":"setExecutionContext","inputs":[{"name":"caller","type":"address","internalType":"address"}],"outputs":[],"stateMutability":"nonpayable"},{"type":"function","name":"setOutAmount","inputs":[{"name":"_outAmount","type":"uint256","internalType":"uint256"},{"name":"caller","type":"address","internalType":"address"}],"outputs":[],"stateMutability":"nonpayable"},{"type":"function","name":"spToken","inputs":[],"outputs":[{"name":"","type":"address","internalType":"address"}],"stateMutability":"view"},{"type":"function","name":"subtype","inputs":[],"outputs":[{"name":"","type":"bytes32","internalType":"bytes32"}],"stateMutability":"view"},{"type":"function","name":"usedShares","inputs":[],"outputs":[{"name":"","type":"uint256","internalType":"uint256"}],"stateMutability":"view"},{"type":"error","name":"ADDRESS_NOT_VALID","inputs":[]},{"type":"error","name":"AMOUNT_NOT_VALID","inputs":[]},{"type":"error","name":"CANNOT_SET_OUT_AMOUNT","inputs":[]},{"type":"error","name":"INCOMPLETE_HOOK_EXECUTION","inputs":[]},{"type":"error","name":"NOT_AUTHORIZED","inputs":[]},{"type":"error","name":"POST_EXECUTE_ALREADY_CALLED","inputs":[]},{"type":"error","name":"PRE_EXECUTE_ALREADY_CALLED","inputs":[]},{"type":"error","name":"UNAUTHORIZED_CALLER","inputs":[]}],"bytecode":{"object":"0x60a0604052348015600e575f5ffd5b506040805180820190915260078152660455243373534360cc1b6020909101525f805460ff191690557fc518a1d423df5aa415a8180f6384c181bd18f2bc1b734ba3dd52cd98b9b5fb77608052608051610df561007a5f395f81816101c7015261023d0152610df55ff3fe608060405234801561000f575f5ffd5b50600436106100fb575f3560e01c80635492e677116100935780638e148776116100635780638e14877614610226578063984d6e7a14610238578063d06a1e891461025f578063e445e7dd14610272575f5ffd5b80635492e677146101c5578063685a943c146101eb57806381cbe691146101f35780638c4313c114610206575f5ffd5b80632113522a116100ce5780632113522a146101565780632ae2fe3d1461018057806338d52e0f146101935780633b5896bc146101a5575f5ffd5b806301bd43ef146100ff57806305b4fe911461011b57806314cb37cf146101305780631f26461914610143575b5f5ffd5b61010860035c81565b6040519081526020015b60405180910390f35b61012e610129366004610b4d565b61028b565b005b61012e61013e366004610baa565b6102f9565b61012e610151366004610bca565b61031a565b6101686001600160a01b0360045c1681565b6040516001600160a01b039091168152602001610112565b61012e61018e366004610b4d565b610373565b6101686001600160a01b0360025c1681565b6101b86101b3366004610b4d565b6103da565b6040516101129190610c22565b7f0000000000000000000000000000000000000000000000000000000000000000610108565b6101085f5c81565b610108610201366004610baa565b6105f3565b610219610214366004610caf565b61060b565b6040516101129190610cee565b6101686001600160a01b0360015c1681565b6101087f000000000000000000000000000000000000000000000000000000000000000081565b61012e61026d366004610baa565b61068d565b5f5461027e9060ff1681565b6040516101129190610d00565b336001600160a01b038416146102b45760405163e15e56c960e01b815260040160405180910390fd5b5f6102be8461070a565b90506102c98161071d565b156102e75760405163945b63f560e01b815260040160405180910390fd5b6102f281600161072a565b5050505050565b61030281610740565b50336004805c6001600160a01b0319168217905d5050565b5f6103248261070a565b905061032f81610772565b8061033e575061033e8161071d565b1561035c5760405163441e4c7360e11b815260040160405180910390fd5b5f61036882600161077b565b905083815d50505050565b336001600160a01b0384161461039c5760405163e15e56c960e01b815260040160405180910390fd5b5f6103a68461070a565b90506103b181610772565b156103cf57604051630bbb04d960e11b815260040160405180910390fd5b6102f28160016107d0565b60605f6103e9868686866107dc565b9050805160026103f99190610d3a565b67ffffffffffffffff81111561041157610411610d4d565b60405190808252806020026020018201604052801561045d57816020015b60408051606080820183525f80835260208301529181019190915281526020019060019003908161042f5790505b5091506040518060600160405280306001600160a01b031681526020015f8152602001306001600160a01b0316632ae2fe3d898989896040516024016104a69493929190610d61565b604051602081830303815290604052915060e01b6020820180516001600160e01b038381831617835250505050815250825f815181106104e8576104e8610da9565b60209081029190910101525f5b81518110156105495781818151811061051057610510610da9565b6020026020010151838260016105269190610d3a565b8151811061053657610536610da9565b60209081029190910101526001016104f5565b506040518060600160405280306001600160a01b031681526020015f8152602001306001600160a01b03166305b4fe91898989896040516024016105909493929190610d61565b604051602081830303815290604052915060e01b6020820180516001600160e01b03838183161783525050505081525082600184516105cf9190610dbd565b815181106105df576105df610da9565b602002602001018190525050949350505050565b5f6106056106008361070a565b6109c9565b92915050565b606061064e83838080601f0160208091040260200160405190810160405280939291908181526020018383808284375f92019190915250602092506109d6915050565b604051602001610676919060609190911b6bffffffffffffffffffffffff1916815260140190565b604051602081830303815290604052905092915050565b336001600160a01b0360045c16146106b85760405163e15e56c960e01b815260040160405180910390fd5b5f6106c28261070a565b90506106cd81610772565b15806106df57506106dd8161071d565b155b156106fd57604051634bd439b560e11b815260040160405180910390fd5b61070681610a3e565b5050565b5f5f61071583610a55565b5c9392505050565b5f5f61071583600361077b565b5f61073683600361077b565b905081815d505050565b5f6003805c908261075083610dd0565b9190505d505f61075f83610a55565b905060035c80825d505060035c92915050565b5f5f6107158360025b604080517fc41a07c57a776f6217c6d4278dfe7a5d114742afe55627ce458c2802aa4d703460208083019190915281830194909452606080820193909352815180820390930183526080019052805191012090565b5f61073683600261077b565b60605f61082084848080601f0160208091040260200160405190810160405280939291908181526020018383808284375f92019190915250602092506109d6915050565b90505f61086485858080601f0160208091040260200160405190810160405280939291908181526020018383808284375f92019190915250603492506109d6915050565b90505f6108a886868080601f0160208091040260200160405190810160405280939291908181526020018383808284375f9201919091525060489250610ac1915050565b90506001600160a01b0383166108d157604051630f58648f60e01b815260040160405180910390fd5b6001600160a01b0382166108f857604051630f58648f60e01b815260040160405180910390fd5b60408051600180825281830190925290816020015b60408051606080820183525f80835260208301529181019190915281526020019060019003908161090d57905050604080516060810182526001600160a01b0380871682525f6020830152825190861660248201528415156044820152929650919082019060640160408051601f198184030181529190526020810180516001600160e01b031663558a729760e01b1790529052845185905f906109b3576109b3610da9565b6020026020010181905250505050949350505050565b5f5f61071583600161077b565b5f6109e2826014610d3a565b83511015610a2e5760405162461bcd60e51b8152602060048201526015602482015274746f416464726573735f6f75744f66426f756e647360581b604482015260640160405180910390fd5b500160200151600160601b900490565b610a48815f6107d0565b610a52815f61072a565b50565b5f7f8ce092d4869bdfa1a1ce579ddddb2b776c39ace5d7b5d7e70e97ece2a78f4f9b82604051602001610aa492919091825260601b6bffffffffffffffffffffffff1916602082015260340190565b604051602081830303815290604052805190602001209050919050565b5f828281518110610ad457610ad4610da9565b01602001516001600160f81b0319161515905092915050565b80356001600160a01b0381168114610b03575f5ffd5b919050565b5f5f83601f840112610b18575f5ffd5b50813567ffffffffffffffff811115610b2f575f5ffd5b602083019150836020828501011115610b46575f5ffd5b9250929050565b5f5f5f5f60608587031215610b60575f5ffd5b610b6985610aed565b9350610b7760208601610aed565b9250604085013567ffffffffffffffff811115610b92575f5ffd5b610b9e87828801610b08565b95989497509550505050565b5f60208284031215610bba575f5ffd5b610bc382610aed565b9392505050565b5f5f60408385031215610bdb575f5ffd5b82359150610beb60208401610aed565b90509250929050565b5f81518084528060208401602086015e5f602082860101526020601f19601f83011685010191505092915050565b5f602082016020835280845180835260408501915060408160051b8601019250602086015f5b82811015610ca357868503603f19018452815180516001600160a01b0316865260208082015190870152604090810151606091870182905290610c8d90870182610bf4565b9550506020938401939190910190600101610c48565b50929695505050505050565b5f5f60208385031215610cc0575f5ffd5b823567ffffffffffffffff811115610cd6575f5ffd5b610ce285828601610b08565b90969095509350505050565b602081525f610bc36020830184610bf4565b6020810160038310610d2057634e487b7160e01b5f52602160045260245ffd5b91905290565b634e487b7160e01b5f52601160045260245ffd5b8082018082111561060557610605610d26565b634e487b7160e01b5f52604160045260245ffd5b6001600160a01b038581168252841660208201526060604082018190528101829052818360808301375f818301608090810191909152601f909201601f191601019392505050565b634e487b7160e01b5f52603260045260245ffd5b8181038181111561060557610605610d26565b5f60018201610de157610de1610d26565b506001019056fea164736f6c634300081e000a","linkReferences":{}},"methodIdentifiers":{"SUB_TYPE()":"984d6e7a","asset()":"38d52e0f","build(address,address,bytes)":"3b5896bc","executionNonce()":"01bd43ef","getOutAmount(address)":"81cbe691","hookType()":"e445e7dd","inspect(bytes)":"8c4313c1","lastCaller()":"2113522a","postExecute(address,address,bytes)":"05b4fe91","preExecute(address,address,bytes)":"2ae2fe3d","resetExecutionState(address)":"d06a1e89","setExecutionContext(address)":"14cb37cf","setOutAmount(uint256,address)":"1f264619","spToken()":"8e148776","subtype()":"5492e677","usedShares()":"685a943c"},"id":508}