{"abi":[{"type":"constructor","inputs":[{"name":"_nativeToken","type":"address","internalType":"address"}],"stateMutability":"nonpayable"},{"type":"function","name":"NATIVE_TOKEN","inputs":[],"outputs":[{"name":"","type":"address","internalType":"address"}],"stateMutability":"view"},{"type":"function","name":"SUB_TYPE","inputs":[],"outputs":[{"name":"","type":"bytes32","internalType":"bytes32"}],"stateMutability":"view"},{"type":"function","name":"asset","inputs":[],"outputs":[{"name":"","type":"address","internalType":"address"}],"stateMutability":"view"},{"type":"function","name":"build","inputs":[{"name":"prevHook","type":"address","internalType":"address"},{"name":"account","type":"address","internalType":"address"},{"name":"hookData","type":"bytes","internalType":"bytes"}],"outputs":[{"name":"executions","type":"tuple[]","internalType":"struct Execution[]","components":[{"name":"target","type":"address","internalType":"address"},{"name":"value","type":"uint256","internalType":"uint256"},{"name":"callData","type":"bytes","internalType":"bytes"}]}],"stateMutability":"view"},{"type":"function","name":"decodeUsePrevHookAmount","inputs":[{"name":"data","type":"bytes","internalType":"bytes"}],"outputs":[{"name":"","type":"bool","internalType":"bool"}],"stateMutability":"pure"},{"type":"function","name":"executionNonce","inputs":[],"outputs":[{"name":"","type":"uint256","internalType":"uint256"}],"stateMutability":"view"},{"type":"function","name":"getOutAmount","inputs":[{"name":"caller","type":"address","internalType":"address"}],"outputs":[{"name":"","type":"uint256","internalType":"uint256"}],"stateMutability":"view"},{"type":"function","name":"hookType","inputs":[],"outputs":[{"name":"","type":"uint8","internalType":"enum ISuperHook.HookType"}],"stateMutability":"view"},{"type":"function","name":"inspect","inputs":[{"name":"data","type":"bytes","internalType":"bytes"}],"outputs":[{"name":"","type":"bytes","internalType":"bytes"}],"stateMutability":"pure"},{"type":"function","name":"lastCaller","inputs":[],"outputs":[{"name":"","type":"address","internalType":"address"}],"stateMutability":"view"},{"type":"function","name":"postExecute","inputs":[{"name":"prevHook","type":"address","internalType":"address"},{"name":"account","type":"address","internalType":"address"},{"name":"data","type":"bytes","internalType":"bytes"}],"outputs":[],"stateMutability":"nonpayable"},{"type":"function","name":"preExecute","inputs":[{"name":"prevHook","type":"address","internalType":"address"},{"name":"account","type":"address","internalType":"address"},{"name":"data","type":"bytes","internalType":"bytes"}],"outputs":[],"stateMutability":"nonpayable"},{"type":"function","name":"resetExecutionState","inputs":[{"name":"caller","type":"address","internalType":"address"}],"outputs":[],"stateMutability":"nonpayable"},{"type":"function","name":"setExecutionContext","inputs":[{"name":"caller","type":"address","internalType":"address"}],"outputs":[],"stateMutability":"nonpayable"},{"type":"function","name":"setOutAmount","inputs":[{"name":"_outAmount","type":"uint256","internalType":"uint256"},{"name":"caller","type":"address","internalType":"address"}],"outputs":[],"stateMutability":"nonpayable"},{"type":"function","name":"spToken","inputs":[],"outputs":[{"name":"","type":"address","internalType":"address"}],"stateMutability":"view"},{"type":"function","name":"subtype","inputs":[],"outputs":[{"name":"","type":"bytes32","internalType":"bytes32"}],"stateMutability":"view"},{"type":"function","name":"usedShares","inputs":[],"outputs":[{"name":"","type":"uint256","internalType":"uint256"}],"stateMutability":"view"},{"type":"error","name":"ADDRESS_NOT_VALID","inputs":[]},{"type":"error","name":"AMOUNT_NOT_VALID","inputs":[]},{"type":"error","name":"CANNOT_SET_OUT_AMOUNT","inputs":[]},{"type":"error","name":"INCOMPLETE_HOOK_EXECUTION","inputs":[]},{"type":"error","name":"NOT_AUTHORIZED","inputs":[]},{"type":"error","name":"POST_EXECUTE_ALREADY_CALLED","inputs":[]},{"type":"error","name":"PRE_EXECUTE_ALREADY_CALLED","inputs":[]},{"type":"error","name":"UNAUTHORIZED_CALLER","inputs":[]}],"bytecode":{"object":"0x60c060405234801561000f575f5ffd5b5060405161139438038061139483398101604081905261002e91610089565b6040805180820190915260058152642a37b5b2b760d91b6020909101525f805460ff191690557f1317f51c845ce3bfb7c268e5337a825f12f3d0af9584c2bbfbf4e64e314eaf736080526001600160a01b031660a0526100b6565b5f60208284031215610099575f5ffd5b81516001600160a01b03811681146100af575f5ffd5b9392505050565b60805160a0516112a86100ec5f395f81816101ae01528181610b4f0152610da901525f8181610204015261027a01526112a85ff3fe608060405234801561000f575f5ffd5b5060043610610111575f3560e01c80635492e6771161009e5780638e1487761161006e5780638e14877614610263578063984d6e7a14610275578063d06a1e891461029c578063e445e7dd146102af578063e7745517146102c8575f5ffd5b80635492e67714610202578063685a943c1461022857806381cbe691146102305780638c4313c114610243575f5ffd5b80632113522a116100e45780632113522a1461016c5780632ae2fe3d1461019657806331f7d964146101a957806338d52e0f146101d05780633b5896bc146101e2575f5ffd5b806301bd43ef1461011557806305b4fe911461013157806314cb37cf146101465780631f26461914610159575b5f5ffd5b61011e60035c81565b6040519081526020015b60405180910390f35b61014461013f366004610f36565b6102eb565b005b610144610154366004610f93565b610365565b610144610167366004610fb3565b610386565b61017e6001600160a01b0360045c1681565b6040516001600160a01b039091168152602001610128565b6101446101a4366004610f36565b6103df565b61017e7f000000000000000000000000000000000000000000000000000000000000000081565b61017e6001600160a01b0360025c1681565b6101f56101f0366004610f36565b610452565b604051610128919061100b565b7f000000000000000000000000000000000000000000000000000000000000000061011e565b61011e5f5c81565b61011e61023e366004610f93565b61066b565b610256610251366004611098565b610683565b60405161012891906110d7565b61017e6001600160a01b0360015c1681565b61011e7f000000000000000000000000000000000000000000000000000000000000000081565b6101446102aa366004610f93565b610745565b5f546102bb9060ff1681565b60405161012891906110e9565b6102db6102d6366004611123565b6107c2565b6040519015158152602001610128565b336001600160a01b038416146103145760405163e15e56c960e01b815260040160405180910390fd5b5f61031e846107ce565b9050610329816107e1565b156103475760405163945b63f560e01b815260040160405180910390fd5b6103528160016107ee565b61035e85858585610804565b5050505050565b61036e81610864565b50336004805c6001600160a01b0319168217905d5050565b5f610390826107ce565b905061039b81610896565b806103aa57506103aa816107e1565b156103c85760405163441e4c7360e11b815260040160405180910390fd5b5f6103d482600161089f565b905083815d50505050565b336001600160a01b038416146104085760405163e15e56c960e01b815260040160405180910390fd5b5f610412846107ce565b905061041d81610896565b1561043b57604051630bbb04d960e11b815260040160405180910390fd5b6104468160016108f4565b61035e85858585610900565b60605f61046186868686610941565b90508051600261047191906111ea565b67ffffffffffffffff8111156104895761048961110f565b6040519080825280602002602001820160405280156104d557816020015b60408051606080820183525f8083526020830152918101919091528152602001906001900390816104a75790505b5091506040518060600160405280306001600160a01b031681526020015f8152602001306001600160a01b0316632ae2fe3d8989898960405160240161051e94939291906111fd565b604051602081830303815290604052915060e01b6020820180516001600160e01b038381831617835250505050815250825f8151811061056057610560611245565b60209081029190910101525f5b81518110156105c15781818151811061058857610588611245565b60200260200101518382600161059e91906111ea565b815181106105ae576105ae611245565b602090810291909101015260010161056d565b506040518060600160405280306001600160a01b031681526020015f8152602001306001600160a01b03166305b4fe918989898960405160240161060894939291906111fd565b604051602081830303815290604052915060e01b6020820180516001600160e01b03838183161783525050505081525082600184516106479190611259565b8151811061065757610657611245565b602002602001018190525050949350505050565b5f61067d610678836107ce565b610c66565b92915050565b60606106c383838080601f0160208091040260200160405190810160405280939291908181526020018383808284375f9201829052509250610c73915050565b61070484848080601f0160208091040260200160405190810160405280939291908181526020018383808284375f9201919091525060149250610c73915050565b6040516bffffffffffffffffffffffff19606093841b811660208301529190921b166034820152604801604051602081830303815290604052905092915050565b336001600160a01b0360045c16146107705760405163e15e56c960e01b815260040160405180910390fd5b5f61077a826107ce565b905061078581610896565b15806107975750610795816107e1565b155b156107b557604051634bd439b560e11b815260040160405180910390fd5b6107be81610cdc565b5050565b5f61067d826048610cf3565b5f5f6107d983610d1f565b5c9392505050565b5f5f6107d983600361089f565b5f6107fa83600361089f565b905081815d505050565b61085e6108108461066b565b61084e84848080601f0160208091040260200160405190810160405280939291908181526020018383808284375f92019190915250610d8b92505050565b6108589190611259565b84610e61565b50505050565b5f6003805c90826108748361126c565b9190505d505f61088383610d1f565b905060035c80825d505060035c92915050565b5f5f6107d98360025b604080517fc41a07c57a776f6217c6d4278dfe7a5d114742afe55627ce458c2802aa4d703460208083019190915281830194909452606080820193909352815180820390930183526080019052805191012090565b5f6107fa83600261089f565b61085e61085883838080601f0160208091040260200160405190810160405280939291908181526020018383808284375f92019190915250610d8b92505050565b60605f61098284848080601f0160208091040260200160405190810160405280939291908181526020018383808284375f9201829052509250610c73915050565b90505f6109c685858080601f0160208091040260200160405190810160405280939291908181526020018383808284375f9201919091525060149250610c73915050565b90505f610a0a86868080601f0160208091040260200160405190810160405280939291908181526020018383808284375f9201919091525060289250610e79915050565b90505f610a4e87878080601f0160208091040260200160405190810160405280939291908181526020018383808284375f9201919091525060489250610cf3915050565b90508015610ac1576040516381cbe69160e01b81526001600160a01b0389811660048301528a16906381cbe69190602401602060405180830381865afa158015610a9a573d5f5f3e3d5ffd5b505050506040513d601f19601f82011682018060405250810190610abe9190611284565b91505b815f03610ae1576040516305112ab160e41b815260040160405180910390fd5b6001600160a01b038416610b0857604051630f58648f60e01b815260040160405180910390fd5b60408051600180825281830190925290816020015b60408051606080820183525f808352602083015291810191909152815260200190600190039081610b1d5790505094507f00000000000000000000000000000000000000000000000000000000000000006001600160a01b0316846001600160a01b031603610bda576040518060600160405280846001600160a01b0316815260200183815260200160405180602001604052805f815250815250855f81518110610bca57610bca611245565b6020026020010181905250610c5a565b604080516060810182526001600160a01b0380871682525f60208301528251908616602482015260448101859052909182019060640160408051601f198184030181529190526020810180516001600160e01b031663a9059cbb60e01b1790529052855186905f90610c4e57610c4e611245565b60200260200101819052505b50505050949350505050565b5f5f6107d983600161089f565b5f610c7f8260146111ea565b83511015610ccc5760405162461bcd60e51b8152602060048201526015602482015274746f416464726573735f6f75744f66426f756e647360581b60448201526064015b60405180910390fd5b500160200151600160601b900490565b610ce6815f6108f4565b610cf0815f6107ee565b50565b5f828281518110610d0657610d06611245565b01602001516001600160f81b0319161515905092915050565b5f7f8ce092d4869bdfa1a1ce579ddddb2b776c39ace5d7b5d7e70e97ece2a78f4f9b82604051602001610d6e92919091825260601b6bffffffffffffffffffffffff1916602082015260340190565b604051602081830303815290604052805190602001209050919050565b5f5f610d97835f610c73565b90505f610da5846014610c73565b90507f00000000000000000000000000000000000000000000000000000000000000006001600160a01b0316826001600160a01b031603610df1576001600160a01b0316319392505050565b6040516370a0823160e01b81526001600160a01b0382811660048301528316906370a0823190602401602060405180830381865afa158015610e35573d5f5f3e3d5ffd5b505050506040513d601f19601f82011682018060405250810190610e599190611284565b949350505050565b5f610e6b826107ce565b90505f6103d482600161089f565b5f610e858260206111ea565b83511015610ecd5760405162461bcd60e51b8152602060048201526015602482015274746f55696e743235365f6f75744f66426f756e647360581b6044820152606401610cc3565b50016020015190565b80356001600160a01b0381168114610eec575f5ffd5b919050565b5f5f83601f840112610f01575f5ffd5b50813567ffffffffffffffff811115610f18575f5ffd5b602083019150836020828501011115610f2f575f5ffd5b9250929050565b5f5f5f5f60608587031215610f49575f5ffd5b610f5285610ed6565b9350610f6060208601610ed6565b9250604085013567ffffffffffffffff811115610f7b575f5ffd5b610f8787828801610ef1565b95989497509550505050565b5f60208284031215610fa3575f5ffd5b610fac82610ed6565b9392505050565b5f5f60408385031215610fc4575f5ffd5b82359150610fd460208401610ed6565b90509250929050565b5f81518084528060208401602086015e5f602082860101526020601f19601f83011685010191505092915050565b5f602082016020835280845180835260408501915060408160051b8601019250602086015f5b8281101561108c57868503603f19018452815180516001600160a01b031686526020808201519087015260409081015160609187018290529061107690870182610fdd565b9550506020938401939190910190600101611031565b50929695505050505050565b5f5f602083850312156110a9575f5ffd5b823567ffffffffffffffff8111156110bf575f5ffd5b6110cb85828601610ef1565b90969095509350505050565b602081525f610fac6020830184610fdd565b602081016003831061110957634e487b7160e01b5f52602160045260245ffd5b91905290565b634e487b7160e01b5f52604160045260245ffd5b5f60208284031215611133575f5ffd5b813567ffffffffffffffff811115611149575f5ffd5b8201601f81018413611159575f5ffd5b803567ffffffffffffffff8111156111735761117361110f565b604051601f8201601f19908116603f0116810167ffffffffffffffff811182821017156111a2576111a261110f565b6040528181528282016020018610156111b9575f5ffd5b816020840160208301375f91810160200191909152949350505050565b634e487b7160e01b5f52601160045260245ffd5b8082018082111561067d5761067d6111d6565b6001600160a01b038581168252841660208201526060604082018190528101829052818360808301375f818301608090810191909152601f909201601f191601019392505050565b634e487b7160e01b5f52603260045260245ffd5b8181038181111561067d5761067d6111d6565b5f6001820161127d5761127d6111d6565b5060010190565b5f60208284031215611294575f5ffd5b505191905056fea164736f6c634300081e000a","linkReferences":{}},"methodIdentifiers":{"NATIVE_TOKEN()":"31f7d964","SUB_TYPE()":"984d6e7a","asset()":"38d52e0f","build(address,address,bytes)":"3b5896bc","decodeUsePrevHookAmount(bytes)":"e7745517","executionNonce()":"01bd43ef","getOutAmount(address)":"81cbe691","hookType()":"e445e7dd","inspect(bytes)":"8c4313c1","lastCaller()":"2113522a","postExecute(address,address,bytes)":"05b4fe91","preExecute(address,address,bytes)":"2ae2fe3d","resetExecutionState(address)":"d06a1e89","setExecutionContext(address)":"14cb37cf","setOutAmount(uint256,address)":"1f264619","spToken()":"8e148776","subtype()":"5492e677","usedShares()":"685a943c"},"id":487}