{"abi":[{"type":"constructor","inputs":[{"name":"spokePoolV3_","type":"address","internalType":"address"},{"name":"validator_","type":"address","internalType":"address"}],"stateMutability":"nonpayable"},{"type":"function","name":"SPOKE_POOL_V3","inputs":[],"outputs":[{"name":"","type":"address","internalType":"address"}],"stateMutability":"view"},{"type":"function","name":"SUB_TYPE","inputs":[],"outputs":[{"name":"","type":"bytes32","internalType":"bytes32"}],"stateMutability":"view"},{"type":"function","name":"asset","inputs":[],"outputs":[{"name":"","type":"address","internalType":"address"}],"stateMutability":"view"},{"type":"function","name":"build","inputs":[{"name":"prevHook","type":"address","internalType":"address"},{"name":"account","type":"address","internalType":"address"},{"name":"hookData","type":"bytes","internalType":"bytes"}],"outputs":[{"name":"executions","type":"tuple[]","internalType":"struct Execution[]","components":[{"name":"target","type":"address","internalType":"address"},{"name":"value","type":"uint256","internalType":"uint256"},{"name":"callData","type":"bytes","internalType":"bytes"}]}],"stateMutability":"view"},{"type":"function","name":"decodeUsePrevHookAmount","inputs":[{"name":"data","type":"bytes","internalType":"bytes"}],"outputs":[{"name":"","type":"bool","internalType":"bool"}],"stateMutability":"pure"},{"type":"function","name":"executionNonce","inputs":[],"outputs":[{"name":"","type":"uint256","internalType":"uint256"}],"stateMutability":"view"},{"type":"function","name":"getOutAmount","inputs":[{"name":"caller","type":"address","internalType":"address"}],"outputs":[{"name":"","type":"uint256","internalType":"uint256"}],"stateMutability":"view"},{"type":"function","name":"hookType","inputs":[],"outputs":[{"name":"","type":"uint8","internalType":"enum ISuperHook.HookType"}],"stateMutability":"view"},{"type":"function","name":"inspect","inputs":[{"name":"data","type":"bytes","internalType":"bytes"}],"outputs":[{"name":"","type":"bytes","internalType":"bytes"}],"stateMutability":"pure"},{"type":"function","name":"lastCaller","inputs":[],"outputs":[{"name":"","type":"address","internalType":"address"}],"stateMutability":"view"},{"type":"function","name":"postExecute","inputs":[{"name":"prevHook","type":"address","internalType":"address"},{"name":"account","type":"address","internalType":"address"},{"name":"data","type":"bytes","internalType":"bytes"}],"outputs":[],"stateMutability":"nonpayable"},{"type":"function","name":"preExecute","inputs":[{"name":"prevHook","type":"address","internalType":"address"},{"name":"account","type":"address","internalType":"address"},{"name":"data","type":"bytes","internalType":"bytes"}],"outputs":[],"stateMutability":"nonpayable"},{"type":"function","name":"resetExecutionState","inputs":[{"name":"caller","type":"address","internalType":"address"}],"outputs":[],"stateMutability":"nonpayable"},{"type":"function","name":"setExecutionContext","inputs":[{"name":"caller","type":"address","internalType":"address"}],"outputs":[],"stateMutability":"nonpayable"},{"type":"function","name":"setOutAmount","inputs":[{"name":"_outAmount","type":"uint256","internalType":"uint256"},{"name":"caller","type":"address","internalType":"address"}],"outputs":[],"stateMutability":"nonpayable"},{"type":"function","name":"spToken","inputs":[],"outputs":[{"name":"","type":"address","internalType":"address"}],"stateMutability":"view"},{"type":"function","name":"subtype","inputs":[],"outputs":[{"name":"","type":"bytes32","internalType":"bytes32"}],"stateMutability":"view"},{"type":"function","name":"usedShares","inputs":[],"outputs":[{"name":"","type":"uint256","internalType":"uint256"}],"stateMutability":"view"},{"type":"error","name":"ADDRESS_NOT_VALID","inputs":[]},{"type":"error","name":"AMOUNT_NOT_VALID","inputs":[]},{"type":"error","name":"CANNOT_SET_OUT_AMOUNT","inputs":[]},{"type":"error","name":"DATA_NOT_VALID","inputs":[]},{"type":"error","name":"INCOMPLETE_HOOK_EXECUTION","inputs":[]},{"type":"error","name":"NOT_AUTHORIZED","inputs":[]},{"type":"error","name":"POST_EXECUTE_ALREADY_CALLED","inputs":[]},{"type":"error","name":"PRE_EXECUTE_ALREADY_CALLED","inputs":[]},{"type":"error","name":"UNAUTHORIZED_CALLER","inputs":[]}],"bytecode":{"object":"0x60e060405234801561000f575f5ffd5b50604051611dab380380611dab83398101604081905261002e916100e6565b60408051808201909152600681526542726964676560d01b6020909101525f805460ff191690557f7aa5ae620294318af92bf4e2b2a729646c932a80312a5fa630da993a2ef5cc106080526001600160a01b038216158061009657506001600160a01b038116155b156100b457604051630f58648f60e01b815260040160405180910390fd5b6001600160a01b0391821660a0521660c052610117565b80516001600160a01b03811681146100e1575f5ffd5b919050565b5f5f604083850312156100f7575f5ffd5b610100836100cb565b915061010e602084016100cb565b90509250929050565b60805160a05160c051611c556101565f395f610ef701525f81816101ae01528181610dce015261101801525f8181610204015261027a0152611c555ff3fe608060405234801561000f575f5ffd5b5060043610610111575f3560e01c80635492e6771161009e5780638e1487761161006e5780638e14877614610263578063984d6e7a14610275578063d06a1e891461029c578063e445e7dd146102af578063e7745517146102c8575f5ffd5b80635492e67714610202578063685a943c1461022857806381cbe691146102305780638c4313c114610243575f5ffd5b80632113522a116100e45780632113522a1461016c5780632ae2fe3d14610196578063352521b1146101a957806338d52e0f146101d05780633b5896bc146101e2575f5ffd5b806301bd43ef1461011557806305b4fe911461013157806314cb37cf146101465780631f26461914610159575b5f5ffd5b61011e60035c81565b6040519081526020015b60405180910390f35b61014461013f3660046114f6565b6102eb565b005b610144610154366004611556565b610359565b610144610167366004611571565b61037a565b61017e6001600160a01b0360045c1681565b6040516001600160a01b039091168152602001610128565b6101446101a43660046114f6565b6103d3565b61017e7f000000000000000000000000000000000000000000000000000000000000000081565b61017e6001600160a01b0360025c1681565b6101f56101f03660046114f6565b61043a565b60405161012891906115cd565b7f000000000000000000000000000000000000000000000000000000000000000061011e565b61011e5f5c81565b61011e61023e366004611556565b610652565b61025661025136600461165a565b61066a565b6040516101289190611698565b61017e6001600160a01b0360015c1681565b61011e7f000000000000000000000000000000000000000000000000000000000000000081565b6101446102aa366004611556565b6107c4565b5f546102bb9060ff1681565b60405161012891906116aa565b6102db6102d636600461173a565b610841565b6040519015158152602001610128565b336001600160a01b038416146103145760405163e15e56c960e01b815260040160405180910390fd5b5f61031e8461084d565b905061032981610860565b156103475760405163945b63f560e01b815260040160405180910390fd5b61035281600161086d565b5050505050565b61036281610883565b50336004805c6001600160a01b0319168217905d5050565b5f6103848261084d565b905061038f816108b5565b8061039e575061039e81610860565b156103bc5760405163441e4c7360e11b815260040160405180910390fd5b5f6103c88260016108be565b905083815d50505050565b336001600160a01b038416146103fc5760405163e15e56c960e01b815260040160405180910390fd5b5f6104068461084d565b9050610411816108b5565b1561042f57604051630bbb04d960e11b815260040160405180910390fd5b610352816001610913565b60605f6104498686868661091f565b90508051600261045991906117c7565b6001600160401b03811115610470576104706116d0565b6040519080825280602002602001820160405280156104bc57816020015b60408051606080820183525f80835260208301529181019190915281526020019060019003908161048e5790505b5091506040518060600160405280306001600160a01b031681526020015f8152602001306001600160a01b0316632ae2fe3d8989898960405160240161050594939291906117da565b604051602081830303815290604052915060e01b6020820180516001600160e01b038381831617835250505050815250825f8151811061054757610547611822565b60209081029190910101525f5b81518110156105a85781818151811061056f5761056f611822565b60200260200101518382600161058591906117c7565b8151811061059557610595611822565b6020908102919091010152600101610554565b506040518060600160405280306001600160a01b031681526020015f8152602001306001600160a01b03166305b4fe91898989896040516024016105ef94939291906117da565b604051602081830303815290604052915060e01b6020820180516001600160e01b038381831617835250505050815250826001845161062e9190611836565b8151811061063e5761063e611822565b602002602001018190525050949350505050565b5f61066461065f8361084d565b6110dc565b92915050565b60606106ad83838080601f0160208091040260200160405190810160405280939291908181526020018383808284375f92019190915250602092506110e9915050565b6106ee84848080601f0160208091040260200160405190810160405280939291908181526020018383808284375f92019190915250603492506110e9915050565b61072f85858080601f0160208091040260200160405190810160405280939291908181526020018383808284375f92019190915250604892506110e9915050565b61077086868080601f0160208091040260200160405190810160405280939291908181526020018383808284375f9201919091525060bc92506110e9915050565b6040516bffffffffffffffffffffffff19606095861b8116602083015293851b8416603482015291841b8316604883015290921b16605c820152607001604051602081830303815290604052905092915050565b336001600160a01b0360045c16146107ef5760405163e15e56c960e01b815260040160405180910390fd5b5f6107f98261084d565b9050610804816108b5565b1580610816575061081481610860565b155b1561083457604051634bd439b560e11b815260040160405180910390fd5b61083d81611152565b5050565b5f6106648260d8611169565b5f5f61085883611195565b5c9392505050565b5f5f6108588360036108be565b5f6108798360036108be565b905081815d505050565b5f6003805c908261089383611849565b9190505d505f6108a283611195565b905060035c80825d505060035c92915050565b5f5f6108588360025b604080517fc41a07c57a776f6217c6d4278dfe7a5d114742afe55627ce458c2802aa4d703460208083019190915281830194909452606080820193909352815180820390930183526080019052805191012090565b5f6108798360026108be565b606060d9821015610943576040516308aec44b60e31b815260040160405180910390fd5b60408051610180810182525f8082526020820181905291810182905260608082018390526080820183905260a0820183905260c0820183905260e08201839052610100820183905261012082018390526101408201929092526101608101919091526109e384848080601f0160208091040260200160405190810160405280939291908181526020018383808284375f9201829052509250611201915050565b8152604080516020601f8601819004810282018101909252848152610a249186908690819084018382808284375f92019190915250602092506110e9915050565b6001600160a01b031660208083019190915260408051601f8601839004830281018301909152848152610a739186908690819084018382808284375f92019190915250603492506110e9915050565b6001600160a01b031660408083019190915280516020601f8601819004810282018101909252848152610ac29186908690819084018382808284375f92019190915250604892506110e9915050565b6001600160a01b03166060820152604080516020601f8601819004810282018101909252848152610b0f9186908690819084018382808284375f92019190915250605c9250611201915050565b6080820152604080516020601f8601819004810282018101909252848152610b539186908690819084018382808284375f92019190915250607c9250611201915050565b60a0820152604080516020601f8601819004810282018101909252848152610b979186908690819084018382808284375f92019190915250609c9250611201915050565b60c0820152604080516020601f8601819004810282018101909252848152610bdb9186908690819084018382808284375f9201919091525060bc92506110e9915050565b6001600160a01b031660e0820152604080516020601f8601819004810282018101909252848152610c289186908690819084018382808284375f9201919091525060d0925061125e915050565b63ffffffff16610100820152604080516020601f8601819004810282018101909252848152610c739186908690819084018382808284375f9201919091525060d4925061125e915050565b63ffffffff16610120820152604080516020601f8601819004810282018101909252848152610cbe9186908690819084018382808284375f9201919091525060d89250611169915050565b1515610140820152604080516020601f8601819004810282018101909252848152610d109186908690819084018382808284375f9201919091525060d99250610d0b915082905087611836565b6112ba565b61016082015261014081015115610e7b576040516381cbe69160e01b81526001600160a01b0386811660048301525f91908816906381cbe69190602401602060405180830381865afa158015610d68573d5f5f3e3d5ffd5b505050506040513d601f19601f82011682018060405250810190610d8c9190611861565b90505f8260800151118015610da457505f8260a00151115b15610dc257610dbc8260a001518284608001516113c1565b60a08301525b808260800181815250507f00000000000000000000000000000000000000000000000000000000000000006001600160a01b03166317fcb39b6040518163ffffffff1660e01b8152600401602060405180830381865afa158015610e28573d5f5f3e3d5ffd5b505050506040513d601f19601f82011682018060405250810190610e4c9190611878565b6001600160a01b031682604001516001600160a01b0316148015610e705750815115155b15610e79578082525b505b80608001515f03610e9f576040516305112ab160e41b815260040160405180910390fd5b60208101516001600160a01b0316610eca57604051630f58648f60e01b815260040160405180910390fd5b6101608101515115610fc657604051630f65bac560e01b81526001600160a01b0386811660048301525f917f000000000000000000000000000000000000000000000000000000000000000090911690630f65bac5906024015f60405180830381865afa158015610f3d573d5f5f3e3d5ffd5b505050506040513d5f823e601f3d908101601f19168201604052610f6491908101906118e0565b90505f5f5f5f5f866101600151806020019051810190610f849190611a04565b9450945094509450945084848484848a604051602001610fa996959493929190611b06565b60408051601f198184030181529190526101608801525050505050505b60408051600180825281830190925290816020015b60408051606080820183525f808352602083015291810191909152815260200190600190039081610fdb57905050915060405180606001604052807f00000000000000000000000000000000000000000000000000000000000000006001600160a01b03168152602001825f015181526020018683602001518460400151856060015186608001518760a001518860c001518960e001518a61010001518b61012001518c610160015160405160240161109e9b9a99989796959493929190611bb0565b60408051601f198184030181529190526020810180516001600160e01b0316631ebbd90b60e21b1790529052825183905f9061063e5761063e611822565b5f5f6108588360016108be565b5f6110f58260146117c7565b835110156111425760405162461bcd60e51b8152602060048201526015602482015274746f416464726573735f6f75744f66426f756e647360581b60448201526064015b60405180910390fd5b500160200151600160601b900490565b61115c815f610913565b611166815f61086d565b50565b5f82828151811061117c5761117c611822565b01602001516001600160f81b0319161515905092915050565b5f7f8ce092d4869bdfa1a1ce579ddddb2b776c39ace5d7b5d7e70e97ece2a78f4f9b826040516020016111e492919091825260601b6bffffffffffffffffffffffff1916602082015260340190565b604051602081830303815290604052805190602001209050919050565b5f61120d8260206117c7565b835110156112555760405162461bcd60e51b8152602060048201526015602482015274746f55696e743235365f6f75744f66426f756e647360581b6044820152606401611139565b50016020015190565b5f61126a8260046117c7565b835110156112b15760405162461bcd60e51b8152602060048201526014602482015273746f55696e7433325f6f75744f66426f756e647360601b6044820152606401611139565b50016004015190565b60608182601f0110156113005760405162461bcd60e51b815260206004820152600e60248201526d736c6963655f6f766572666c6f7760901b6044820152606401611139565b61130a82846117c7565b8451101561134e5760405162461bcd60e51b8152602060048201526011602482015270736c6963655f6f75744f66426f756e647360781b6044820152606401611139565b60608215801561136c5760405191505f8252602082016040526113b6565b6040519150601f8416801560200281840101858101878315602002848b0101015b818310156113a557805183526020928301920161138d565b5050858452601f01601f1916604052505b5090505b9392505050565b5f5f5f6113ce8686611471565b91509150815f036113f2578381816113e8576113e8611c34565b04925050506113ba565b81841161140957611409600385150260111861148d565b5f848688095f868103871696879004966002600389028118808a02820302808a02820302808a02820302808a02820302808a02820302808a02909103029181900381900460010185841190960395909502919093039390930492909217029150509392505050565b5f805f1983850993909202808410938190039390930393915050565b634e487b715f52806020526024601cfd5b6001600160a01b0381168114611166575f5ffd5b5f5f83601f8401126114c2575f5ffd5b5081356001600160401b038111156114d8575f5ffd5b6020830191508360208285010111156114ef575f5ffd5b9250929050565b5f5f5f5f60608587031215611509575f5ffd5b84356115148161149e565b935060208501356115248161149e565b925060408501356001600160401b0381111561153e575f5ffd5b61154a878288016114b2565b95989497509550505050565b5f60208284031215611566575f5ffd5b81356113ba8161149e565b5f5f60408385031215611582575f5ffd5b8235915060208301356115948161149e565b809150509250929050565b5f81518084528060208401602086015e5f602082860101526020601f19601f83011685010191505092915050565b5f602082016020835280845180835260408501915060408160051b8601019250602086015f5b8281101561164e57868503603f19018452815180516001600160a01b03168652602080820151908701526040908101516060918701829052906116389087018261159f565b95505060209384019391909101906001016115f3565b50929695505050505050565b5f5f6020838503121561166b575f5ffd5b82356001600160401b03811115611680575f5ffd5b61168c858286016114b2565b90969095509350505050565b602081525f6113ba602083018461159f565b60208101600383106116ca57634e487b7160e01b5f52602160045260245ffd5b91905290565b634e487b7160e01b5f52604160045260245ffd5b604051601f8201601f191681016001600160401b038111828210171561170c5761170c6116d0565b604052919050565b5f6001600160401b0382111561172c5761172c6116d0565b50601f01601f191660200190565b5f6020828403121561174a575f5ffd5b81356001600160401b0381111561175f575f5ffd5b8201601f8101841361176f575f5ffd5b803561178261177d82611714565b6116e4565b818152856020838501011115611796575f5ffd5b816020840160208301375f91810160200191909152949350505050565b634e487b7160e01b5f52601160045260245ffd5b80820180821115610664576106646117b3565b6001600160a01b038581168252841660208201526060604082018190528101829052818360808301375f818301608090810191909152601f909201601f191601019392505050565b634e487b7160e01b5f52603260045260245ffd5b81810381811115610664576106646117b3565b5f6001820161185a5761185a6117b3565b5060010190565b5f60208284031215611871575f5ffd5b5051919050565b5f60208284031215611888575f5ffd5b81516113ba8161149e565b5f82601f8301126118a2575f5ffd5b81516118b061177d82611714565b8181528460208386010111156118c4575f5ffd5b8160208501602083015e5f918101602001919091529392505050565b5f602082840312156118f0575f5ffd5b81516001600160401b03811115611905575f5ffd5b61191184828501611893565b949350505050565b5f6001600160401b03821115611931576119316116d0565b5060051b60200190565b5f82601f83011261194a575f5ffd5b815161195861177d82611919565b8082825260208201915060208360051b860101925085831115611979575f5ffd5b602085015b8381101561199f5780516119918161149e565b83526020928301920161197e565b5095945050505050565b5f82601f8301126119b8575f5ffd5b81516119c661177d82611919565b8082825260208201915060208360051b8601019250858311156119e7575f5ffd5b602085015b8381101561199f5780518352602092830192016119ec565b5f5f5f5f5f60a08688031215611a18575f5ffd5b85516001600160401b03811115611a2d575f5ffd5b611a3988828901611893565b95505060208601516001600160401b03811115611a54575f5ffd5b611a6088828901611893565b9450506040860151611a718161149e565b60608701519093506001600160401b03811115611a8c575f5ffd5b611a988882890161193b565b92505060808601516001600160401b03811115611ab3575f5ffd5b611abf888289016119a9565b9150509295509295909350565b5f8151808452602084019350602083015f5b82811015611afc578151865260209586019590910190600101611ade565b5093949350505050565b60c081525f611b1860c083018961159f565b8281036020840152611b2a818961159f565b6001600160a01b03881660408501528381036060850152865180825260208089019350909101905f5b81811015611b7a5783516001600160a01b0316835260209384019390920191600101611b53565b50508381036080850152611b8e8187611acc565b91505082810360a0840152611ba3818561159f565b9998505050505050505050565b6001600160a01b038c811682528b811660208301528a8116604083015289811660608301526080820189905260a0820188905260c08201879052851660e082015263ffffffff841661010082015263ffffffff83166101208201526101606101408201525f611c2361016083018461159f565b9d9c50505050505050505050505050565b634e487b7160e01b5f52601260045260245ffdfea164736f6c634300081e000a","linkReferences":{}},"methodIdentifiers":{"SPOKE_POOL_V3()":"352521b1","SUB_TYPE()":"984d6e7a","asset()":"38d52e0f","build(address,address,bytes)":"3b5896bc","decodeUsePrevHookAmount(bytes)":"e7745517","executionNonce()":"01bd43ef","getOutAmount(address)":"81cbe691","hookType()":"e445e7dd","inspect(bytes)":"8c4313c1","lastCaller()":"2113522a","postExecute(address,address,bytes)":"05b4fe91","preExecute(address,address,bytes)":"2ae2fe3d","resetExecutionState(address)":"d06a1e89","setExecutionContext(address)":"14cb37cf","setOutAmount(uint256,address)":"1f264619","spToken()":"8e148776","subtype()":"5492e677","usedShares()":"685a943c"},"id":466}