{"abi":[{"type":"constructor","inputs":[],"stateMutability":"nonpayable"},{"type":"function","name":"SUB_TYPE","inputs":[],"outputs":[{"name":"","type":"bytes32","internalType":"bytes32"}],"stateMutability":"view"},{"type":"function","name":"asset","inputs":[],"outputs":[{"name":"","type":"address","internalType":"address"}],"stateMutability":"view"},{"type":"function","name":"build","inputs":[{"name":"prevHook","type":"address","internalType":"address"},{"name":"account","type":"address","internalType":"address"},{"name":"hookData","type":"bytes","internalType":"bytes"}],"outputs":[{"name":"executions","type":"tuple[]","internalType":"struct Execution[]","components":[{"name":"target","type":"address","internalType":"address"},{"name":"value","type":"uint256","internalType":"uint256"},{"name":"callData","type":"bytes","internalType":"bytes"}]}],"stateMutability":"view"},{"type":"function","name":"decodeAmount","inputs":[{"name":"data","type":"bytes","internalType":"bytes"}],"outputs":[{"name":"","type":"uint256","internalType":"uint256"}],"stateMutability":"pure"},{"type":"function","name":"decodeUsePrevHookAmount","inputs":[{"name":"data","type":"bytes","internalType":"bytes"}],"outputs":[{"name":"","type":"bool","internalType":"bool"}],"stateMutability":"pure"},{"type":"function","name":"executionNonce","inputs":[],"outputs":[{"name":"","type":"uint256","internalType":"uint256"}],"stateMutability":"view"},{"type":"function","name":"getOutAmount","inputs":[{"name":"caller","type":"address","internalType":"address"}],"outputs":[{"name":"","type":"uint256","internalType":"uint256"}],"stateMutability":"view"},{"type":"function","name":"hookType","inputs":[],"outputs":[{"name":"","type":"uint8","internalType":"enum ISuperHook.HookType"}],"stateMutability":"view"},{"type":"function","name":"inspect","inputs":[{"name":"data","type":"bytes","internalType":"bytes"}],"outputs":[{"name":"","type":"bytes","internalType":"bytes"}],"stateMutability":"pure"},{"type":"function","name":"lastCaller","inputs":[],"outputs":[{"name":"","type":"address","internalType":"address"}],"stateMutability":"view"},{"type":"function","name":"postExecute","inputs":[{"name":"prevHook","type":"address","internalType":"address"},{"name":"account","type":"address","internalType":"address"},{"name":"data","type":"bytes","internalType":"bytes"}],"outputs":[],"stateMutability":"nonpayable"},{"type":"function","name":"preExecute","inputs":[{"name":"prevHook","type":"address","internalType":"address"},{"name":"account","type":"address","internalType":"address"},{"name":"data","type":"bytes","internalType":"bytes"}],"outputs":[],"stateMutability":"nonpayable"},{"type":"function","name":"replaceCalldataAmount","inputs":[{"name":"data","type":"bytes","internalType":"bytes"},{"name":"amount","type":"uint256","internalType":"uint256"}],"outputs":[{"name":"","type":"bytes","internalType":"bytes"}],"stateMutability":"pure"},{"type":"function","name":"resetExecutionState","inputs":[{"name":"caller","type":"address","internalType":"address"}],"outputs":[],"stateMutability":"nonpayable"},{"type":"function","name":"setExecutionContext","inputs":[{"name":"caller","type":"address","internalType":"address"}],"outputs":[],"stateMutability":"nonpayable"},{"type":"function","name":"setOutAmount","inputs":[{"name":"_outAmount","type":"uint256","internalType":"uint256"},{"name":"caller","type":"address","internalType":"address"}],"outputs":[],"stateMutability":"nonpayable"},{"type":"function","name":"spToken","inputs":[],"outputs":[{"name":"","type":"address","internalType":"address"}],"stateMutability":"view"},{"type":"function","name":"subtype","inputs":[],"outputs":[{"name":"","type":"bytes32","internalType":"bytes32"}],"stateMutability":"view"},{"type":"function","name":"usedShares","inputs":[],"outputs":[{"name":"","type":"uint256","internalType":"uint256"}],"stateMutability":"view"},{"type":"error","name":"ADDRESS_NOT_VALID","inputs":[]},{"type":"error","name":"AMOUNT_NOT_VALID","inputs":[]},{"type":"error","name":"CANNOT_SET_OUT_AMOUNT","inputs":[]},{"type":"error","name":"INCOMPLETE_HOOK_EXECUTION","inputs":[]},{"type":"error","name":"NOT_AUTHORIZED","inputs":[]},{"type":"error","name":"POST_EXECUTE_ALREADY_CALLED","inputs":[]},{"type":"error","name":"PRE_EXECUTE_ALREADY_CALLED","inputs":[]},{"type":"error","name":"UNAUTHORIZED_CALLER","inputs":[]}],"bytecode":{"object":"0x60a0604052348015600e575f5ffd5b506040805180820190915260078152660455243373534360cc1b6020909101525f805460ff191660021790557fc518a1d423df5aa415a8180f6384c181bd18f2bc1b734ba3dd52cd98b9b5fb7760805260805161173c61007d5f395f81816102080152610271015261173c5ff3fe608060405234801561000f575f5ffd5b506004361061011c575f3560e01c80635492e677116100a9578063984d6e7a1161006e578063984d6e7a1461026c578063ac440f7214610293578063d06a1e89146102a6578063e445e7dd146102b9578063e7745517146102d2575f5ffd5b80635492e67714610206578063685a943c1461022c57806381cbe691146102345780638c4313c1146102475780638e1487761461025a575f5ffd5b80632113522a116100ef5780632113522a146101775780632ae2fe3d146101a157806338d52e0f146101b45780633a28b0ab146101c65780633b5896bc146101e6575f5ffd5b806301bd43ef1461012057806305b4fe911461013c57806314cb37cf146101515780631f26461914610164575b5f5ffd5b61012960035c81565b6040519081526020015b60405180910390f35b61014f61014a366004611359565b6102f5565b005b61014f61015f3660046113ba565b61036f565b61014f6101723660046113dc565b610390565b6101896001600160a01b0360045c1681565b6040516001600160a01b039091168152602001610133565b61014f6101af366004611359565b6103e9565b6101896001600160a01b0360025c1681565b6101d96101d43660046114a9565b61045c565b6040516101339190611519565b6101f96101f4366004611359565b610473565b604051610133919061152b565b7f0000000000000000000000000000000000000000000000000000000000000000610129565b6101295f5c81565b6101296102423660046113ba565b61068c565b6101d96102553660046115b8565b61069e565b6101896001600160a01b0360015c1681565b6101297f000000000000000000000000000000000000000000000000000000000000000081565b6101296102a13660046115f7565b610760565b61014f6102b43660046113ba565b61076a565b5f546102c59060ff1681565b6040516101339190611629565b6102e56102e03660046115f7565b6107e7565b6040519015158152602001610133565b336001600160a01b0384161461031e5760405163e15e56c960e01b815260040160405180910390fd5b5f610328846107f3565b905061033381610806565b156103515760405163945b63f560e01b815260040160405180910390fd5b61035c816001610813565b61036885858585610829565b5050505050565b610378816108d8565b50336004805c6001600160a01b0319168217905d5050565b5f61039a826107f3565b90506103a58161090a565b806103b457506103b481610806565b156103d25760405163441e4c7360e11b815260040160405180910390fd5b5f6103de826001610913565b905083815d50505050565b336001600160a01b038416146104125760405163e15e56c960e01b815260040160405180910390fd5b5f61041c846107f3565b90506104278161090a565b1561044557604051630bbb04d960e11b815260040160405180910390fd5b610450816001610968565b61036885858585610974565b606061046a83836034610b3f565b90505b92915050565b60605f61048286868686610bd5565b9050805160026104929190611663565b67ffffffffffffffff8111156104aa576104aa61140a565b6040519080825280602002602001820160405280156104f657816020015b60408051606080820183525f8083526020830152918101919091528152602001906001900390816104c85790505b5091506040518060600160405280306001600160a01b031681526020015f8152602001306001600160a01b0316632ae2fe3d8989898960405160240161053f9493929190611676565b604051602081830303815290604052915060e01b6020820180516001600160e01b038381831617835250505050815250825f81518110610581576105816116be565b60209081029190910101525f5b81518110156105e2578181815181106105a9576105a96116be565b6020026020010151838260016105bf9190611663565b815181106105cf576105cf6116be565b602090810291909101015260010161058e565b506040518060600160405280306001600160a01b031681526020015f8152602001306001600160a01b03166305b4fe91898989896040516024016106299493929190611676565b604051602081830303815290604052915060e01b6020820180516001600160e01b038381831617835250505050815250826001845161066891906116d2565b81518110610678576106786116be565b602002602001018190525050949350505050565b5f61046d610699836107f3565b61105f565b60606106de83838080601f0160208091040260200160405190810160405280939291908181526020018383808284375f9201919091525061106c92505050565b61071f84848080601f0160208091040260200160405190810160405280939291908181526020018383808284375f9201919091525060349250611074915050565b6040516bffffffffffffffffffffffff19606093841b811660208301529190921b166034820152604801604051602081830303815290604052905092915050565b5f61046d826110dd565b336001600160a01b0360045c16146107955760405163e15e56c960e01b815260040160405180910390fd5b5f61079f826107f3565b90506107aa8161090a565b15806107bc57506107ba81610806565b155b156107da57604051634bd439b560e11b815260040160405180910390fd5b6107e3816110e9565b5050565b5f61046d826054611100565b5f5f6107fe8361112c565b5c9392505050565b5f5f6107fe836003610913565b5f61081f836003610913565b905081815d505050565b61088461086b8484848080601f0160208091040260200160405190810160405280939291908181526020018383808284375f9201919091525061119892505050565b6108748561068c565b61087e91906116d2565b84611206565b6108c38383838080601f0160208091040260200160405190810160405280939291908181526020018383808284375f9201919091525061121e92505050565b6108ce905f5c6116d2565b805f5d5050505050565b5f6003805c90826108e8836116e5565b9190505d505f6108f78361112c565b905060035c80825d505060035c92915050565b5f5f6107fe8360025b604080517fc41a07c57a776f6217c6d4278dfe7a5d114742afe55627ce458c2802aa4d703460208083019190915281830194909452606080820193909352815180820390930183526080019052805191012090565b5f61081f836002610913565b5f6109b383838080601f0160208091040260200160405190810160405280939291908181526020018383808284375f9201919091525061106c92505050565b9050806001600160a01b03166338d52e0f6040518163ffffffff1660e01b8152600401602060405180830381865afa1580156109f1573d5f5f3e3d5ffd5b505050506040513d601f19601f82011682018060405250810190610a1591906116fd565b6002805c6001600160a01b0319166001600160a01b03831617905d50610a79610a738585858080601f0160208091040260200160405190810160405280939291908181526020018383808284375f9201919091525061119892505050565b85611206565b610ab88484848080601f0160208091040260200160405190810160405280939291908181526020018383808284375f9201919091525061121e92505050565b805f5d50806001600160a01b031663a8d5fd656040518163ffffffff1660e01b8152600401602060405180830381865afa158015610af8573d5f5f3e3d5ffd5b505050506040513d601f19601f82011682018060405250810190610b1c91906116fd565b6001805c6001600160a01b0319166001600160a01b03831617905d505050505050565b60605f83604051602001610b5591815260200190565b60405160208183030381529060405290505f5b6020811015610bcb57818181518110610b8357610b836116be565b01602001516001600160f81b03191686610b9d8387611663565b81518110610bad57610bad6116be565b60200101906001600160f81b03191690815f1a905350600101610b68565b5093949350505050565b60605f610c1684848080601f0160208091040260200160405190810160405280939291908181526020018383808284375f9201919091525061106c92505050565b90505f816001600160a01b031663a8d5fd656040518163ffffffff1660e01b8152600401602060405180830381865afa158015610c55573d5f5f3e3d5ffd5b505050506040513d601f19601f82011682018060405250810190610c7991906116fd565b90505f610cba86868080601f0160208091040260200160405190810160405280939291908181526020018383808284375f920191909152506110dd92505050565b90505f610cfe87878080601f0160208091040260200160405190810160405280939291908181526020018383808284375f9201919091525060549250611100915050565b90508015610d71576040516381cbe69160e01b81526001600160a01b0389811660048301528a16906381cbe69190602401602060405180830381865afa158015610d4a573d5f5f3e3d5ffd5b505050506040513d601f19601f82011682018060405250810190610d6e9190611718565b91505b815f03610d91576040516305112ab160e41b815260040160405180910390fd5b6001600160a01b0384161580610dae57506001600160a01b038816155b15610dcc57604051630f58648f60e01b815260040160405180910390fd5b60408051600480825260a0820190925290816020015b60408051606080820183525f808352602083015291810191909152815260200190600190039081610de257905050604080516060810182526001600160a01b0380871682525f60208301819052835191891660248301526044820152929750919082019060640160408051601f198184030181529190526020810180516001600160e01b031663095ea7b360e01b1790529052855186905f90610e8757610e876116be565b60200260200101819052506040518060600160405280846001600160a01b031681526020015f81526020018584604051602401610ed99291906001600160a01b03929092168252602082015260400190565b60408051601f198184030181529190526020810180516001600160e01b031663095ea7b360e01b1790529052855186906001908110610f1a57610f1a6116be565b60200260200101819052506040518060600160405280856001600160a01b031681526020015f8152602001838a8b604051602401610f74939291909283526001600160a01b03918216602084015216604082015260600190565b60408051601f198184030181529190526020810180516001600160e01b0316633ea0e43760e11b1790529052855186906002908110610fb557610fb56116be565b60200260200101819052506040518060600160405280846001600160a01b031681526020015f8152602001855f6040516024016110079291906001600160a01b03929092168252602082015260400190565b60408051601f198184030181529190526020810180516001600160e01b031663095ea7b360e01b1790529052855186906003908110611048576110486116be565b602002602001018190525050505050949350505050565b5f5f6107fe836001610913565b5f61046d8260205b5f611080826014611663565b835110156110cd5760405162461bcd60e51b8152602060048201526015602482015274746f416464726573735f6f75744f66426f756e647360581b60448201526064015b60405180910390fd5b500160200151600160601b900490565b5f61046d8260346112a3565b6110f3815f610968565b6110fd815f610813565b50565b5f828281518110611113576111136116be565b01602001516001600160f81b0319161515905092915050565b5f7f8ce092d4869bdfa1a1ce579ddddb2b776c39ace5d7b5d7e70e97ece2a78f4f9b8260405160200161117b92919091825260601b6bffffffffffffffffffffffff1916602082015260340190565b604051602081830303815290604052805190602001209050919050565b6040516370a0823160e01b81526001600160a01b0383811660048301525f9160025c909116906370a0823190602401602060405180830381865afa1580156111e2573d5f5f3e3d5ffd5b505050506040513d601f19601f8201168201806040525081019061046a9190611718565b5f611210826107f3565b90505f6103de826001610913565b5f5f6112298361106c565b60405163eaed1d0760e01b81525f60048201526001600160a01b0386811660248301529192509082169063eaed1d0790604401602060405180830381865afa158015611277573d5f5f3e3d5ffd5b505050506040513d601f19601f8201168201806040525081019061129b9190611718565b949350505050565b5f6112af826020611663565b835110156112f75760405162461bcd60e51b8152602060048201526015602482015274746f55696e743235365f6f75744f66426f756e647360581b60448201526064016110c4565b50016020015190565b6001600160a01b03811681146110fd575f5ffd5b5f5f83601f840112611324575f5ffd5b50813567ffffffffffffffff81111561133b575f5ffd5b602083019150836020828501011115611352575f5ffd5b9250929050565b5f5f5f5f6060858703121561136c575f5ffd5b843561137781611300565b9350602085013561138781611300565b9250604085013567ffffffffffffffff8111156113a2575f5ffd5b6113ae87828801611314565b95989497509550505050565b5f602082840312156113ca575f5ffd5b81356113d581611300565b9392505050565b5f5f604083850312156113ed575f5ffd5b8235915060208301356113ff81611300565b809150509250929050565b634e487b7160e01b5f52604160045260245ffd5b5f82601f83011261142d575f5ffd5b813567ffffffffffffffff8111156114475761144761140a565b604051601f8201601f19908116603f0116810167ffffffffffffffff811182821017156114765761147661140a565b60405281815283820160200185101561148d575f5ffd5b816020850160208301375f918101602001919091529392505050565b5f5f604083850312156114ba575f5ffd5b823567ffffffffffffffff8111156114d0575f5ffd5b6114dc8582860161141e565b95602094909401359450505050565b5f81518084528060208401602086015e5f602082860101526020601f19601f83011685010191505092915050565b602081525f61046a60208301846114eb565b5f602082016020835280845180835260408501915060408160051b8601019250602086015f5b828110156115ac57868503603f19018452815180516001600160a01b0316865260208082015190870152604090810151606091870182905290611596908701826114eb565b9550506020938401939190910190600101611551565b50929695505050505050565b5f5f602083850312156115c9575f5ffd5b823567ffffffffffffffff8111156115df575f5ffd5b6115eb85828601611314565b90969095509350505050565b5f60208284031215611607575f5ffd5b813567ffffffffffffffff81111561161d575f5ffd5b61129b8482850161141e565b602081016003831061164957634e487b7160e01b5f52602160045260245ffd5b91905290565b634e487b7160e01b5f52601160045260245ffd5b8082018082111561046d5761046d61164f565b6001600160a01b038581168252841660208201526060604082018190528101829052818360808301375f818301608090810191909152601f909201601f191601019392505050565b634e487b7160e01b5f52603260045260245ffd5b8181038181111561046d5761046d61164f565b5f600182016116f6576116f661164f565b5060010190565b5f6020828403121561170d575f5ffd5b81516113d581611300565b5f60208284031215611728575f5ffd5b505191905056fea164736f6c634300081e000a","linkReferences":{}},"methodIdentifiers":{"SUB_TYPE()":"984d6e7a","asset()":"38d52e0f","build(address,address,bytes)":"3b5896bc","decodeAmount(bytes)":"ac440f72","decodeUsePrevHookAmount(bytes)":"e7745517","executionNonce()":"01bd43ef","getOutAmount(address)":"81cbe691","hookType()":"e445e7dd","inspect(bytes)":"8c4313c1","lastCaller()":"2113522a","postExecute(address,address,bytes)":"05b4fe91","preExecute(address,address,bytes)":"2ae2fe3d","replaceCalldataAmount(bytes,uint256)":"3a28b0ab","resetExecutionState(address)":"d06a1e89","setExecutionContext(address)":"14cb37cf","setOutAmount(uint256,address)":"1f264619","spToken()":"8e148776","subtype()":"5492e677","usedShares()":"685a943c"},"id":511}