{"abi":[{"type":"constructor","inputs":[],"stateMutability":"nonpayable"},{"type":"function","name":"asset","inputs":[],"outputs":[{"name":"","type":"address","internalType":"address"}],"stateMutability":"view"},{"type":"function","name":"build","inputs":[{"name":"prevHook","type":"address","internalType":"address"},{"name":"account","type":"address","internalType":"address"},{"name":"hookData","type":"bytes","internalType":"bytes"}],"outputs":[{"name":"executions","type":"tuple[]","internalType":"struct Execution[]","components":[{"name":"target","type":"address","internalType":"address"},{"name":"value","type":"uint256","internalType":"uint256"},{"name":"callData","type":"bytes","internalType":"bytes"}]}],"stateMutability":"view"},{"type":"function","name":"executionNonce","inputs":[],"outputs":[{"name":"","type":"uint256","internalType":"uint256"}],"stateMutability":"view"},{"type":"function","name":"getOutAmount","inputs":[{"name":"caller","type":"address","internalType":"address"}],"outputs":[{"name":"","type":"uint256","internalType":"uint256"}],"stateMutability":"view"},{"type":"function","name":"hookType","inputs":[],"outputs":[{"name":"","type":"uint8","internalType":"enum ISuperHook.HookType"}],"stateMutability":"view"},{"type":"function","name":"inspect","inputs":[{"name":"data","type":"bytes","internalType":"bytes"}],"outputs":[{"name":"","type":"bytes","internalType":"bytes"}],"stateMutability":"pure"},{"type":"function","name":"lastCaller","inputs":[],"outputs":[{"name":"","type":"address","internalType":"address"}],"stateMutability":"view"},{"type":"function","name":"postExecute","inputs":[{"name":"prevHook","type":"address","internalType":"address"},{"name":"account","type":"address","internalType":"address"},{"name":"data","type":"bytes","internalType":"bytes"}],"outputs":[],"stateMutability":"nonpayable"},{"type":"function","name":"preExecute","inputs":[{"name":"prevHook","type":"address","internalType":"address"},{"name":"account","type":"address","internalType":"address"},{"name":"data","type":"bytes","internalType":"bytes"}],"outputs":[],"stateMutability":"nonpayable"},{"type":"function","name":"resetExecutionState","inputs":[{"name":"caller","type":"address","internalType":"address"}],"outputs":[],"stateMutability":"nonpayable"},{"type":"function","name":"setExecutionContext","inputs":[{"name":"caller","type":"address","internalType":"address"}],"outputs":[],"stateMutability":"nonpayable"},{"type":"function","name":"setOutAmount","inputs":[{"name":"_outAmount","type":"uint256","internalType":"uint256"},{"name":"caller","type":"address","internalType":"address"}],"outputs":[],"stateMutability":"nonpayable"},{"type":"function","name":"spToken","inputs":[],"outputs":[{"name":"","type":"address","internalType":"address"}],"stateMutability":"view"},{"type":"function","name":"subType","inputs":[],"outputs":[{"name":"","type":"bytes32","internalType":"bytes32"}],"stateMutability":"view"},{"type":"function","name":"subtype","inputs":[],"outputs":[{"name":"","type":"bytes32","internalType":"bytes32"}],"stateMutability":"view"},{"type":"function","name":"usedShares","inputs":[],"outputs":[{"name":"","type":"uint256","internalType":"uint256"}],"stateMutability":"view"},{"type":"error","name":"ADDRESS_NOT_VALID","inputs":[]},{"type":"error","name":"AMOUNT_NOT_VALID","inputs":[]},{"type":"error","name":"CANNOT_SET_OUT_AMOUNT","inputs":[]},{"type":"error","name":"INCOMPLETE_HOOK_EXECUTION","inputs":[]},{"type":"error","name":"LENGTH_MISMATCH","inputs":[]},{"type":"error","name":"NOT_AUTHORIZED","inputs":[]},{"type":"error","name":"POST_EXECUTE_ALREADY_CALLED","inputs":[]},{"type":"error","name":"PRE_EXECUTE_ALREADY_CALLED","inputs":[]},{"type":"error","name":"UNAUTHORIZED_CALLER","inputs":[]}],"bytecode":{"object":"0x60a0604052348015600e575f5ffd5b506040805180820190915260058152642a37b5b2b760d91b6020909101525f805460ff191690557f1317f51c845ce3bfb7c268e5337a825f12f3d0af9584c2bbfbf4e64e314eaf736080526080516112086100785f395f81816101c7015261023d01526112085ff3fe608060405234801561000f575f5ffd5b50600436106100fb575f3560e01c80635492e677116100935780638e148776116100635780638e14877614610226578063cf0a618114610238578063d06a1e891461025f578063e445e7dd14610272575f5ffd5b80635492e677146101c5578063685a943c146101eb57806381cbe691146101f35780638c4313c114610206575f5ffd5b80632113522a116100ce5780632113522a146101565780632ae2fe3d1461018057806338d52e0f146101935780633b5896bc146101a5575f5ffd5b806301bd43ef146100ff57806305b4fe911461011b57806314cb37cf146101305780631f26461914610143575b5f5ffd5b61010860035c81565b6040519081526020015b60405180910390f35b61012e610129366004610da7565b61028b565b005b61012e61013e366004610e08565b6102f9565b61012e610151366004610e2a565b61031a565b6101686001600160a01b0360045c1681565b6040516001600160a01b039091168152602001610112565b61012e61018e366004610da7565b610373565b6101686001600160a01b0360025c1681565b6101b86101b3366004610da7565b6103da565b6040516101129190610e86565b7f0000000000000000000000000000000000000000000000000000000000000000610108565b6101085f5c81565b610108610201366004610e08565b6105f3565b610219610214366004610f13565b61060b565b6040516101129190610f52565b6101686001600160a01b0360015c1681565b6101087f000000000000000000000000000000000000000000000000000000000000000081565b61012e61026d366004610e08565b610740565b5f5461027e9060ff1681565b6040516101129190610f64565b336001600160a01b038416146102b45760405163e15e56c960e01b815260040160405180910390fd5b5f6102be846107bd565b90506102c9816107d0565b156102e75760405163945b63f560e01b815260040160405180910390fd5b6102f28160016107dd565b5050505050565b610302816107f3565b50336004805c6001600160a01b0319168217905d5050565b5f610324826107bd565b905061032f81610825565b8061033e575061033e816107d0565b1561035c5760405163441e4c7360e11b815260040160405180910390fd5b5f61036882600161082e565b905083815d50505050565b336001600160a01b0384161461039c5760405163e15e56c960e01b815260040160405180910390fd5b5f6103a6846107bd565b90506103b181610825565b156103cf57604051630bbb04d960e11b815260040160405180910390fd5b6102f2816001610883565b60605f6103e98686868661088f565b9050805160026103f99190610f9e565b67ffffffffffffffff81111561041157610411610fb1565b60405190808252806020026020018201604052801561045d57816020015b60408051606080820183525f80835260208301529181019190915281526020019060019003908161042f5790505b5091506040518060600160405280306001600160a01b031681526020015f8152602001306001600160a01b0316632ae2fe3d898989896040516024016104a69493929190610fc5565b604051602081830303815290604052915060e01b6020820180516001600160e01b038381831617835250505050815250825f815181106104e8576104e861100d565b60209081029190910101525f5b8151811015610549578181815181106105105761051061100d565b6020026020010151838260016105269190610f9e565b815181106105365761053661100d565b60209081029190910101526001016104f5565b506040518060600160405280306001600160a01b031681526020015f8152602001306001600160a01b03166305b4fe91898989896040516024016105909493929190610fc5565b604051602081830303815290604052915060e01b6020820180516001600160e01b03838183161783525050505081525082600184516105cf9190611021565b815181106105df576105df61100d565b602002602001018190525050949350505050565b5f610605610600836107bd565b610b55565b92915050565b60605f61064c84848080601f0160208091040260200160405190810160405280939291908181526020018383808284375f9201829052509250610b62915050565b90505f61069b85858080601f0160208091040260200160405190810160405280939291908181526020018383808284375f9201919091525060149250610696915082905088611021565b610bcb565b90505f818060200190518101906106b291906110f2565b5060408051606086901b6001600160601b03191660208201528151601481830301815260349091019091528151919250905f5b8181101561073357828482815181106107005761070061100d565b60200260200101516040516020016107199291906111b9565b60408051601f1981840301815291905292506001016106e5565b5090979650505050505050565b336001600160a01b0360045c161461076b5760405163e15e56c960e01b815260040160405180910390fd5b5f610775826107bd565b905061078081610825565b15806107925750610790816107d0565b155b156107b057604051634bd439b560e11b815260040160405180910390fd5b6107b981610cd0565b5050565b5f5f6107c883610ce7565b5c9392505050565b5f5f6107c883600361082e565b5f6107e983600361082e565b905081815d505050565b5f6003805c9082610803836111e3565b9190505d505f61081283610ce7565b905060035c80825d505060035c92915050565b5f5f6107c88360025b604080517fc41a07c57a776f6217c6d4278dfe7a5d114742afe55627ce458c2802aa4d703460208083019190915281830194909452606080820193909352815180820390930183526080019052805191012090565b5f6107e983600261082e565b60605f6108d084848080601f0160208091040260200160405190810160405280939291908181526020018383808284375f9201829052509250610b62915050565b90505f61091a85858080601f0160208091040260200160405190810160405280939291908181526020018383808284375f9201919091525060149250610696915082905088611021565b90505f5f8280602001905181019061093291906110f2565b915091505f825190508151811461095c5760405163899ef10d60e01b815260040160405180910390fd5b8067ffffffffffffffff81111561097557610975610fb1565b6040519080825280602002602001820160405280156109c157816020015b60408051606080820183525f8083526020830152918101919091528152602001906001900390816109935790505b5095505f5b81811015610b475773eeeeeeeeeeeeeeeeeeeeeeeeeeeeeeeeeeeeeeee6001600160a01b03168482815181106109fe576109fe61100d565b60200260200101516001600160a01b031603610a81576040518060600160405280876001600160a01b03168152602001848381518110610a4057610a4061100d565b6020026020010151815260200160405180602001604052805f815250815250878281518110610a7157610a7161100d565b6020026020010181905250610b3f565b6040518060600160405280858381518110610a9e57610a9e61100d565b60200260200101516001600160a01b031681526020015f815260200187858481518110610acd57610acd61100d565b60209081029190910101516040516001600160a01b039092166024830152604482015260640160408051601f198184030181529190526020810180516001600160e01b031663a9059cbb60e01b17905290528751889083908110610b3357610b3361100d565b60200260200101819052505b6001016109c6565b505050505050949350505050565b5f5f6107c883600161082e565b5f610b6e826014610f9e565b83511015610bbb5760405162461bcd60e51b8152602060048201526015602482015274746f416464726573735f6f75744f66426f756e647360581b60448201526064015b60405180910390fd5b500160200151600160601b900490565b60608182601f011015610c115760405162461bcd60e51b815260206004820152600e60248201526d736c6963655f6f766572666c6f7760901b6044820152606401610bb2565b610c1b8284610f9e565b84511015610c5f5760405162461bcd60e51b8152602060048201526011602482015270736c6963655f6f75744f66426f756e647360781b6044820152606401610bb2565b606082158015610c7d5760405191505f825260208201604052610cc7565b6040519150601f8416801560200281840101858101878315602002848b0101015b81831015610cb6578051835260209283019201610c9e565b5050858452601f01601f1916604052505b50949350505050565b610cda815f610883565b610ce4815f6107dd565b50565b5f7f8ce092d4869bdfa1a1ce579ddddb2b776c39ace5d7b5d7e70e97ece2a78f4f9b82604051602001610d3192919091825260601b6001600160601b031916602082015260340190565b604051602081830303815290604052805190602001209050919050565b6001600160a01b0381168114610ce4575f5ffd5b5f5f83601f840112610d72575f5ffd5b50813567ffffffffffffffff811115610d89575f5ffd5b602083019150836020828501011115610da0575f5ffd5b9250929050565b5f5f5f5f60608587031215610dba575f5ffd5b8435610dc581610d4e565b93506020850135610dd581610d4e565b9250604085013567ffffffffffffffff811115610df0575f5ffd5b610dfc87828801610d62565b95989497509550505050565b5f60208284031215610e18575f5ffd5b8135610e2381610d4e565b9392505050565b5f5f60408385031215610e3b575f5ffd5b823591506020830135610e4d81610d4e565b809150509250929050565b5f81518084528060208401602086015e5f602082860101526020601f19601f83011685010191505092915050565b5f602082016020835280845180835260408501915060408160051b8601019250602086015f5b82811015610f0757868503603f19018452815180516001600160a01b0316865260208082015190870152604090810151606091870182905290610ef190870182610e58565b9550506020938401939190910190600101610eac565b50929695505050505050565b5f5f60208385031215610f24575f5ffd5b823567ffffffffffffffff811115610f3a575f5ffd5b610f4685828601610d62565b90969095509350505050565b602081525f610e236020830184610e58565b6020810160038310610f8457634e487b7160e01b5f52602160045260245ffd5b91905290565b634e487b7160e01b5f52601160045260245ffd5b8082018082111561060557610605610f8a565b634e487b7160e01b5f52604160045260245ffd5b6001600160a01b038581168252841660208201526060604082018190528101829052818360808301375f818301608090810191909152601f909201601f191601019392505050565b634e487b7160e01b5f52603260045260245ffd5b8181038181111561060557610605610f8a565b604051601f8201601f1916810167ffffffffffffffff8111828210171561105d5761105d610fb1565b604052919050565b5f67ffffffffffffffff82111561107e5761107e610fb1565b5060051b60200190565b5f82601f830112611097575f5ffd5b81516110aa6110a582611065565b611034565b8082825260208201915060208360051b8601019250858311156110cb575f5ffd5b602085015b838110156110e85780518352602092830192016110d0565b5095945050505050565b5f5f60408385031215611103575f5ffd5b825167ffffffffffffffff811115611119575f5ffd5b8301601f81018513611129575f5ffd5b80516111376110a582611065565b8082825260208201915060208360051b850101925087831115611158575f5ffd5b6020840193505b8284101561118357835161117281610d4e565b82526020938401939091019061115f565b80955050505050602083015167ffffffffffffffff8111156111a3575f5ffd5b6111af85828601611088565b9150509250929050565b5f83518060208601845e60609390931b6001600160601b0319169190920190815260140192915050565b5f600182016111f4576111f4610f8a565b506001019056fea164736f6c634300081e000a","linkReferences":{}},"methodIdentifiers":{"asset()":"38d52e0f","build(address,address,bytes)":"3b5896bc","executionNonce()":"01bd43ef","getOutAmount(address)":"81cbe691","hookType()":"e445e7dd","inspect(bytes)":"8c4313c1","lastCaller()":"2113522a","postExecute(address,address,bytes)":"05b4fe91","preExecute(address,address,bytes)":"2ae2fe3d","resetExecutionState(address)":"d06a1e89","setExecutionContext(address)":"14cb37cf","setOutAmount(uint256,address)":"1f264619","spToken()":"8e148776","subType()":"cf0a6181","subtype()":"5492e677","usedShares()":"685a943c"},"id":488}