{"abi":[{"type":"constructor","inputs":[{"name":"permit2_","type":"address","internalType":"address"}],"stateMutability":"nonpayable"},{"type":"function","name":"PERMIT_2","inputs":[],"outputs":[{"name":"","type":"address","internalType":"address"}],"stateMutability":"view"},{"type":"function","name":"PERMIT_2_INTERFACE","inputs":[],"outputs":[{"name":"","type":"address","internalType":"contract IPermit2"}],"stateMutability":"view"},{"type":"function","name":"asset","inputs":[],"outputs":[{"name":"","type":"address","internalType":"address"}],"stateMutability":"view"},{"type":"function","name":"build","inputs":[{"name":"prevHook","type":"address","internalType":"address"},{"name":"account","type":"address","internalType":"address"},{"name":"hookData","type":"bytes","internalType":"bytes"}],"outputs":[{"name":"executions","type":"tuple[]","internalType":"struct Execution[]","components":[{"name":"target","type":"address","internalType":"address"},{"name":"value","type":"uint256","internalType":"uint256"},{"name":"callData","type":"bytes","internalType":"bytes"}]}],"stateMutability":"view"},{"type":"function","name":"executionNonce","inputs":[],"outputs":[{"name":"","type":"uint256","internalType":"uint256"}],"stateMutability":"view"},{"type":"function","name":"getOutAmount","inputs":[{"name":"caller","type":"address","internalType":"address"}],"outputs":[{"name":"","type":"uint256","internalType":"uint256"}],"stateMutability":"view"},{"type":"function","name":"hookType","inputs":[],"outputs":[{"name":"","type":"uint8","internalType":"enum ISuperHook.HookType"}],"stateMutability":"view"},{"type":"function","name":"inspect","inputs":[{"name":"data","type":"bytes","internalType":"bytes"}],"outputs":[{"name":"","type":"bytes","internalType":"bytes"}],"stateMutability":"pure"},{"type":"function","name":"lastCaller","inputs":[],"outputs":[{"name":"","type":"address","internalType":"address"}],"stateMutability":"view"},{"type":"function","name":"postExecute","inputs":[{"name":"prevHook","type":"address","internalType":"address"},{"name":"account","type":"address","internalType":"address"},{"name":"data","type":"bytes","internalType":"bytes"}],"outputs":[],"stateMutability":"nonpayable"},{"type":"function","name":"preExecute","inputs":[{"name":"prevHook","type":"address","internalType":"address"},{"name":"account","type":"address","internalType":"address"},{"name":"data","type":"bytes","internalType":"bytes"}],"outputs":[],"stateMutability":"nonpayable"},{"type":"function","name":"resetExecutionState","inputs":[{"name":"caller","type":"address","internalType":"address"}],"outputs":[],"stateMutability":"nonpayable"},{"type":"function","name":"setExecutionContext","inputs":[{"name":"caller","type":"address","internalType":"address"}],"outputs":[],"stateMutability":"nonpayable"},{"type":"function","name":"setOutAmount","inputs":[{"name":"_outAmount","type":"uint256","internalType":"uint256"},{"name":"caller","type":"address","internalType":"address"}],"outputs":[],"stateMutability":"nonpayable"},{"type":"function","name":"spToken","inputs":[],"outputs":[{"name":"","type":"address","internalType":"address"}],"stateMutability":"view"},{"type":"function","name":"subType","inputs":[],"outputs":[{"name":"","type":"bytes32","internalType":"bytes32"}],"stateMutability":"view"},{"type":"function","name":"subtype","inputs":[],"outputs":[{"name":"","type":"bytes32","internalType":"bytes32"}],"stateMutability":"view"},{"type":"function","name":"usedShares","inputs":[],"outputs":[{"name":"","type":"uint256","internalType":"uint256"}],"stateMutability":"view"},{"type":"error","name":"ADDRESS_NOT_VALID","inputs":[]},{"type":"error","name":"AMOUNT_NOT_VALID","inputs":[]},{"type":"error","name":"CANNOT_SET_OUT_AMOUNT","inputs":[]},{"type":"error","name":"INCOMPLETE_HOOK_EXECUTION","inputs":[]},{"type":"error","name":"INSUFFICIENT_BALANCE","inputs":[]},{"type":"error","name":"INVALID_ARRAY_LENGTH","inputs":[]},{"type":"error","name":"NOT_AUTHORIZED","inputs":[]},{"type":"error","name":"POST_EXECUTE_ALREADY_CALLED","inputs":[]},{"type":"error","name":"PRE_EXECUTE_ALREADY_CALLED","inputs":[]},{"type":"error","name":"SafeCastOverflowedUintDowncast","inputs":[{"name":"bits","type":"uint8","internalType":"uint8"},{"name":"value","type":"uint256","internalType":"uint256"}]},{"type":"error","name":"UNAUTHORIZED_CALLER","inputs":[]}],"bytecode":{"object":"0x60e060405234801561000f575f5ffd5b50604051611a3c380380611a3c83398101604081905261002e916100b5565b6040805180820190915260058152642a37b5b2b760d91b6020909101525f805460ff191690557f1317f51c845ce3bfb7c268e5337a825f12f3d0af9584c2bbfbf4e64e314eaf736080526001600160a01b03811661009f57604051630f58648f60e01b815260040160405180910390fd5b6001600160a01b031660a081905260c0526100e2565b5f602082840312156100c5575f5ffd5b81516001600160a01b03811681146100db575f5ffd5b9392505050565b60805160a05160c05161191b6101215f395f61027a01525f818161020e01528181610ee00152610fa201525f81816101dd01526102a1015261191b5ff3fe608060405234801561000f575f5ffd5b5060043610610111575f3560e01c8063685a943c1161009e5780638e1487761161006e5780638e148776146102635780639d01021714610275578063cf0a61811461029c578063d06a1e89146102c3578063e445e7dd146102d6575f5ffd5b8063685a943c14610201578063789d72fa1461020957806381cbe691146102305780638c4313c114610243575f5ffd5b80632113522a116100e45780632113522a1461016c5780632ae2fe3d1461019657806338d52e0f146101a95780633b5896bc146101bb5780635492e677146101db575f5ffd5b806301bd43ef1461011557806305b4fe911461013157806314cb37cf146101465780631f26461914610159575b5f5ffd5b61011e60035c81565b6040519081526020015b60405180910390f35b61014461013f3660046114bc565b6102ef565b005b610144610154366004611519565b61035d565b610144610167366004611539565b61037e565b61017e6001600160a01b0360045c1681565b6040516001600160a01b039091168152602001610128565b6101446101a43660046114bc565b6103d7565b61017e6001600160a01b0360025c1681565b6101ce6101c93660046114bc565b61043e565b6040516101289190611591565b7f000000000000000000000000000000000000000000000000000000000000000061011e565b61011e5f5c81565b61017e7f000000000000000000000000000000000000000000000000000000000000000081565b61011e61023e366004611519565b610657565b61025661025136600461161e565b61066f565b604051610128919061165d565b61017e6001600160a01b0360015c1681565b61017e7f000000000000000000000000000000000000000000000000000000000000000081565b61011e7f000000000000000000000000000000000000000000000000000000000000000081565b6101446102d1366004611519565b61086a565b5f546102e29060ff1681565b604051610128919061166f565b336001600160a01b038416146103185760405163e15e56c960e01b815260040160405180910390fd5b5f610322846108e7565b905061032d816108fa565b1561034b5760405163945b63f560e01b815260040160405180910390fd5b610356816001610907565b5050505050565b6103668161091d565b50336004805c6001600160a01b0319168217905d5050565b5f610388826108e7565b90506103938161094f565b806103a257506103a2816108fa565b156103c05760405163441e4c7360e11b815260040160405180910390fd5b5f6103cc826001610958565b905083815d50505050565b336001600160a01b038416146104005760405163e15e56c960e01b815260040160405180910390fd5b5f61040a846108e7565b90506104158161094f565b1561043357604051630bbb04d960e11b815260040160405180910390fd5b6103568160016109ad565b60605f61044d868686866109b9565b90508051600261045d91906116a9565b67ffffffffffffffff811115610475576104756116bc565b6040519080825280602002602001820160405280156104c157816020015b60408051606080820183525f8083526020830152918101919091528152602001906001900390816104935790505b5091506040518060600160405280306001600160a01b031681526020015f8152602001306001600160a01b0316632ae2fe3d8989898960405160240161050a94939291906116d0565b604051602081830303815290604052915060e01b6020820180516001600160e01b038381831617835250505050815250825f8151811061054c5761054c611718565b60209081029190910101525f5b81518110156105ad5781818151811061057457610574611718565b60200260200101518382600161058a91906116a9565b8151811061059a5761059a611718565b6020908102919091010152600101610559565b506040518060600160405280306001600160a01b031681526020015f8152602001306001600160a01b03166305b4fe91898989896040516024016105f494939291906116d0565b604051602081830303815290604052915060e01b6020820180516001600160e01b0383818316178352505050508152508260018451610633919061172c565b8151811061064357610643611718565b602002602001018190525050949350505050565b5f610669610664836108e7565b611001565b92915050565b60605f6106b384848080601f0160208091040260200160405190810160405280939291908181526020018383808284375f920191909152506014925061100e915050565b90505f61070385858080601f0160208091040260200160405190810160405280939291908181526020018383808284375f92019190915250605492506106fe9150869050601461173f565b611070565b90505f8267ffffffffffffffff81111561071f5761071f6116bc565b604051908082528060200260200182016040528015610748578160200160208202803683370190505b5090505f5b8381101561079b576107698361076483601461173f565b611175565b82828151811061077b5761077b611718565b6001600160a01b039092166020928302919091019091015260010161074d565b505f6107db87878080601f0160208091040260200160405190810160405280939291908181526020018383808284375f9201829052509250611175915050565b6040516020016107fe919060609190911b6001600160601b031916815260140190565b60405160208183030381529060405290505f5b8481101561085f578183828151811061082c5761082c611718565b6020026020010151604051602001610845929190611756565b60408051601f198184030181529190529150600101610811565b509695505050505050565b336001600160a01b0360045c16146108955760405163e15e56c960e01b815260040160405180910390fd5b5f61089f826108e7565b90506108aa8161094f565b15806108bc57506108ba816108fa565b155b156108da57604051634bd439b560e11b815260040160405180910390fd5b6108e3816111d9565b5050565b5f5f6108f2836111f0565b5c9392505050565b5f5f6108f2836003610958565b5f610913836003610958565b905081815d505050565b5f6003805c908261092d83611780565b9190505d505f61093c836111f0565b905060035c80825d505060035c92915050565b5f5f6108f28360025b604080517fc41a07c57a776f6217c6d4278dfe7a5d114742afe55627ce458c2802aa4d703460208083019190915281830194909452606080820193909352815180820390930183526080019052805191012090565b5f610913836002610958565b60606109c36113da565b610a0184848080601f0160208091040260200160405190810160405280939291908181526020018383808284375f9201829052509250611175915050565b6001600160a01b0316808252610a2a57604051630f58648f60e01b815260040160405180910390fd5b610a6b84848080601f0160208091040260200160405190810160405280939291908181526020018383808284375f920191909152506014925061100e915050565b602082018190525f03610a915760405163c6a335ff60e01b815260040160405180910390fd5b610ad284848080601f0160208091040260200160405190810160405280939291908181526020018383808284375f920191909152506034925061100e915050565b816040018181525050610b2684848080601f0160208091040260200160405190810160405280939291908181526020018383808284375f9201919091525050506020840151605491506106fe90601461173f565b6060820152604080516020601f8601819004810282018101909252848152610b8b9186908690819084018382808284375f9201919091525050506020840151610b719150601461173f565b610b7c9060546116a9565b6020808501516106fe9161173f565b6080820152604080516020601f8601819004810282018101909252848152610c0a9186908690819084018382808284375f92019190915250505050602083810151610bd59161173f565b6020840151610be590601461173f565b610bf09060546116a9565b610bfa91906116a9565b60208401516106fe90600661173f565b60a0820152604080516020601f8601819004810282018101909252848152610c5a9186908690819084018382808284375f92019190915250610c5392506041915087905061172c565b6041611070565b60c08201526040805160028082526060820190925290816020015b60408051606080820183525f808352602083015291810191909152815260200190600190039081610c75579050509150806020015167ffffffffffffffff811115610cc257610cc26116bc565b604051908082528060200260200182016040528015610d1257816020015b604080516080810182525f8082526020808301829052928201819052606082015282525f19909201910181610ce05790505b5060e08201525f5b8160200151811015610e5a575f610d3c8360600151836014610764919061173f565b90505f610d598460800151846020610d54919061173f565b61100e565b90505f610d788560a00151856006610d71919061173f565b6006611070565b90505f60d0610d8683611798565b901c90506001600160a01b038416610db157604051630f58648f60e01b815260040160405180910390fd5b825f03610dd1576040516305112ab160e41b815260040160405180910390fd5b6040518060800160405280856001600160a01b03168152602001610df485611257565b6001600160a01b03168152602001610e0f886040015161128e565b65ffffffffffff1681526020018265ffffffffffff168152508660e001518681518110610e3e57610e3e611718565b6020026020010181905250505050508080600101915050610d1a565b506040805160608101825260e083015181526001600160a01b038716602082015282820151818301526101008301819052825160c084015192515f93610ea393916024016117be565b60408051601f19818403018152918152602080830180516001600160e01b0316632a2d80d160e01b17905281516060810183526001600160a01b037f00000000000000000000000000000000000000000000000000000000000000001681525f91810182905291820183905285519293509091859190610f2557610f25611718565b6020026020010181905250610f4c825f0151878460600151856080015186602001516112c0565b61012083018190526040515f91610f6591602401611897565b60408051601f19818403018152918152602080830180516001600160e01b0316630d58b1db60e01b17905281516060810183526001600160a01b037f00000000000000000000000000000000000000000000000000000000000000001681525f9181019190915290810182905285519192509085906001908110610feb57610feb611718565b6020026020010181905250505050949350505050565b5f5f6108f2836001610958565b5f61101a8260206116a9565b835110156110675760405162461bcd60e51b8152602060048201526015602482015274746f55696e743235365f6f75744f66426f756e647360581b60448201526064015b60405180910390fd5b50016020015190565b60608182601f0110156110b65760405162461bcd60e51b815260206004820152600e60248201526d736c6963655f6f766572666c6f7760901b604482015260640161105e565b6110c082846116a9565b845110156111045760405162461bcd60e51b8152602060048201526011602482015270736c6963655f6f75744f66426f756e647360781b604482015260640161105e565b6060821580156111225760405191505f82526020820160405261116c565b6040519150601f8416801560200281840101858101878315602002848b0101015b8183101561115b578051835260209283019201611143565b5050858452601f01601f1916604052505b50949350505050565b5f6111818260146116a9565b835110156111c95760405162461bcd60e51b8152602060048201526015602482015274746f416464726573735f6f75744f66426f756e647360581b604482015260640161105e565b500160200151600160601b900490565b6111e3815f6109ad565b6111ed815f610907565b50565b5f7f8ce092d4869bdfa1a1ce579ddddb2b776c39ace5d7b5d7e70e97ece2a78f4f9b8260405160200161123a92919091825260601b6001600160601b031916602082015260340190565b604051602081830303815290604052805190602001209050919050565b5f6001600160a01b0382111561128a576040516306dfcc6560e41b815260a060048201526024810183905260440161105e565b5090565b5f65ffffffffffff82111561128a576040516306dfcc6560e41b8152603060048201526024810183905260440161105e565b60608167ffffffffffffffff8111156112db576112db6116bc565b60405190808252806020026020018201604052801561132b57816020015b604080516080810182525f8082526020808301829052928201819052606082015282525f199092019101816112f95790505b5090505f5b828110156113d0575f6113488661076484601461173f565b90505f61135a86610d5485602061173f565b905060405180608001604052808a6001600160a01b03168152602001896001600160a01b0316815260200161138e83611257565b6001600160a01b03168152602001836001600160a01b03168152508484815181106113bb576113bb611718565b60209081029190910101525050600101611330565b5095945050505050565b6040518061014001604052805f6001600160a01b031681526020015f81526020015f8152602001606081526020016060815260200160608152602001606081526020016060815260200161144f6040518060600160405280606081526020015f6001600160a01b031681526020015f81525090565b8152602001606081525090565b80356001600160a01b0381168114611472575f5ffd5b919050565b5f5f83601f840112611487575f5ffd5b50813567ffffffffffffffff81111561149e575f5ffd5b6020830191508360208285010111156114b5575f5ffd5b9250929050565b5f5f5f5f606085870312156114cf575f5ffd5b6114d88561145c565b93506114e66020860161145c565b9250604085013567ffffffffffffffff811115611501575f5ffd5b61150d87828801611477565b95989497509550505050565b5f60208284031215611529575f5ffd5b6115328261145c565b9392505050565b5f5f6040838503121561154a575f5ffd5b8235915061155a6020840161145c565b90509250929050565b5f81518084528060208401602086015e5f602082860101526020601f19601f83011685010191505092915050565b5f602082016020835280845180835260408501915060408160051b8601019250602086015f5b8281101561161257868503603f19018452815180516001600160a01b03168652602080820151908701526040908101516060918701829052906115fc90870182611563565b95505060209384019391909101906001016115b7565b50929695505050505050565b5f5f6020838503121561162f575f5ffd5b823567ffffffffffffffff811115611645575f5ffd5b61165185828601611477565b90969095509350505050565b602081525f6115326020830184611563565b602081016003831061168f57634e487b7160e01b5f52602160045260245ffd5b91905290565b634e487b7160e01b5f52601160045260245ffd5b8082018082111561066957610669611695565b634e487b7160e01b5f52604160045260245ffd5b6001600160a01b038581168252841660208201526060604082018190528101829052818360808301375f818301608090810191909152601f909201601f191601019392505050565b634e487b7160e01b5f52603260045260245ffd5b8181038181111561066957610669611695565b808202811582820484141761066957610669611695565b5f83518060208601845e60609390931b6001600160601b0319169190920190815260140192915050565b5f6001820161179157611791611695565b5060010190565b805160208083015191908110156117b8575f198160200360031b1b821691505b50919050565b6001600160a01b038416815260606020808301829052845182840192909252815160c084018190525f9290910190829060e08501905b8083101561185857835160018060a01b03815116835260018060a01b03602082015116602084015265ffffffffffff604082015116604084015265ffffffffffff6060820151166060840152506080820191506020840193506001830192506117f4565b5060208701516001600160a01b03811660808701529250604087015160a0860152848103604086015261188b8187611563565b98975050505050505050565b602080825282518282018190525f918401906040840190835b8181101561190357835180516001600160a01b03908116855260208083015182168187015260408084015183169087015260609283015190911691850191909152909301926080909201916001016118b0565b50909594505050505056fea164736f6c634300081e000a","linkReferences":{}},"methodIdentifiers":{"PERMIT_2()":"789d72fa","PERMIT_2_INTERFACE()":"9d010217","asset()":"38d52e0f","build(address,address,bytes)":"3b5896bc","executionNonce()":"01bd43ef","getOutAmount(address)":"81cbe691","hookType()":"e445e7dd","inspect(bytes)":"8c4313c1","lastCaller()":"2113522a","postExecute(address,address,bytes)":"05b4fe91","preExecute(address,address,bytes)":"2ae2fe3d","resetExecutionState(address)":"d06a1e89","setExecutionContext(address)":"14cb37cf","setOutAmount(uint256,address)":"1f264619","spToken()":"8e148776","subType()":"cf0a6181","subtype()":"5492e677","usedShares()":"685a943c"},"id":389}