{"abi":[{"type":"constructor","inputs":[],"stateMutability":"nonpayable"},{"type":"function","name":"SUB_TYPE","inputs":[],"outputs":[{"name":"","type":"bytes32","internalType":"bytes32"}],"stateMutability":"view"},{"type":"function","name":"asset","inputs":[],"outputs":[{"name":"","type":"address","internalType":"address"}],"stateMutability":"view"},{"type":"function","name":"build","inputs":[{"name":"prevHook","type":"address","internalType":"address"},{"name":"account","type":"address","internalType":"address"},{"name":"hookData","type":"bytes","internalType":"bytes"}],"outputs":[{"name":"executions","type":"tuple[]","internalType":"struct Execution[]","components":[{"name":"target","type":"address","internalType":"address"},{"name":"value","type":"uint256","internalType":"uint256"},{"name":"callData","type":"bytes","internalType":"bytes"}]}],"stateMutability":"view"},{"type":"function","name":"decodeAmount","inputs":[{"name":"data","type":"bytes","internalType":"bytes"}],"outputs":[{"name":"","type":"uint256","internalType":"uint256"}],"stateMutability":"pure"},{"type":"function","name":"decodeUsePrevHookAmount","inputs":[{"name":"data","type":"bytes","internalType":"bytes"}],"outputs":[{"name":"","type":"bool","internalType":"bool"}],"stateMutability":"pure"},{"type":"function","name":"dstChainId","inputs":[],"outputs":[{"name":"","type":"uint256","internalType":"uint256"}],"stateMutability":"view"},{"type":"function","name":"executionNonce","inputs":[],"outputs":[{"name":"","type":"uint256","internalType":"uint256"}],"stateMutability":"view"},{"type":"function","name":"getOutAmount","inputs":[{"name":"caller","type":"address","internalType":"address"}],"outputs":[{"name":"","type":"uint256","internalType":"uint256"}],"stateMutability":"view"},{"type":"function","name":"hookType","inputs":[],"outputs":[{"name":"","type":"uint8","internalType":"enum ISuperHook.HookType"}],"stateMutability":"view"},{"type":"function","name":"inspect","inputs":[{"name":"data","type":"bytes","internalType":"bytes"}],"outputs":[{"name":"","type":"bytes","internalType":"bytes"}],"stateMutability":"pure"},{"type":"function","name":"lastCaller","inputs":[],"outputs":[{"name":"","type":"address","internalType":"address"}],"stateMutability":"view"},{"type":"function","name":"postExecute","inputs":[{"name":"prevHook","type":"address","internalType":"address"},{"name":"account","type":"address","internalType":"address"},{"name":"data","type":"bytes","internalType":"bytes"}],"outputs":[],"stateMutability":"nonpayable"},{"type":"function","name":"preExecute","inputs":[{"name":"prevHook","type":"address","internalType":"address"},{"name":"account","type":"address","internalType":"address"},{"name":"data","type":"bytes","internalType":"bytes"}],"outputs":[],"stateMutability":"nonpayable"},{"type":"function","name":"resetExecutionState","inputs":[{"name":"caller","type":"address","internalType":"address"}],"outputs":[],"stateMutability":"nonpayable"},{"type":"function","name":"setExecutionContext","inputs":[{"name":"caller","type":"address","internalType":"address"}],"outputs":[],"stateMutability":"nonpayable"},{"type":"function","name":"setOutAmount","inputs":[{"name":"_outAmount","type":"uint256","internalType":"uint256"},{"name":"caller","type":"address","internalType":"address"}],"outputs":[],"stateMutability":"nonpayable"},{"type":"function","name":"spToken","inputs":[],"outputs":[{"name":"","type":"address","internalType":"address"}],"stateMutability":"view"},{"type":"function","name":"subtype","inputs":[],"outputs":[{"name":"","type":"bytes32","internalType":"bytes32"}],"stateMutability":"view"},{"type":"function","name":"usedShares","inputs":[],"outputs":[{"name":"","type":"uint256","internalType":"uint256"}],"stateMutability":"view"},{"type":"function","name":"vaultBank","inputs":[],"outputs":[{"name":"","type":"address","internalType":"address"}],"stateMutability":"view"},{"type":"error","name":"ADDRESS_NOT_VALID","inputs":[]},{"type":"error","name":"AMOUNT_NOT_VALID","inputs":[]},{"type":"error","name":"CANNOT_SET_OUT_AMOUNT","inputs":[]},{"type":"error","name":"INCOMPLETE_HOOK_EXECUTION","inputs":[]},{"type":"error","name":"NOT_AUTHORIZED","inputs":[]},{"type":"error","name":"POST_EXECUTE_ALREADY_CALLED","inputs":[]},{"type":"error","name":"PRE_EXECUTE_ALREADY_CALLED","inputs":[]},{"type":"error","name":"UNAUTHORIZED_CALLER","inputs":[]}],"bytecode":{"object":"0x60a0604052348015600e575f5ffd5b506040805180820190915260078152664552433531313560c81b6020909101525f805460ff191660011790557f16b0755429540630f2d4bfab5526bb485356bbabc307c7597c9d323a9f8780a760805260805161134361007d5f395f81816101fc015261028401526113435ff3fe608060405234801561000f575f5ffd5b5060043610610127575f3560e01c8063685a943c116100a9578063984d6e7a1161006e578063984d6e7a1461027f578063ac440f72146102a6578063d06a1e89146102b9578063e445e7dd146102cc578063e7745517146102e5575f5ffd5b8063685a943c14610220578063701ffc8b1461022857806381cbe6911461023a5780638c4313c11461024d5780638e1487761461026d575f5ffd5b80632ae2fe3d116100ef5780632ae2fe3d146101ac57806330c593f7146101bf57806338d52e0f146101c85780633b5896bc146101da5780635492e677146101fa575f5ffd5b806301bd43ef1461012b57806305b4fe911461014757806314cb37cf1461015c5780631f2646191461016f5780632113522a14610182575b5f5ffd5b61013460035c81565b6040519081526020015b60405180910390f35b61015a610155366004610fd8565b610308565b005b61015a61016a366004611035565b610382565b61015a61017d36600461104e565b6103a3565b6101946001600160a01b0360045c1681565b6040516001600160a01b03909116815260200161013e565b61015a6101ba366004610fd8565b6103fc565b61013460065c81565b6101946001600160a01b0360025c1681565b6101ed6101e8366004610fd8565b61046f565b60405161013e91906110a6565b7f0000000000000000000000000000000000000000000000000000000000000000610134565b6101345f5c81565b6101946001600160a01b0360055c1681565b610134610248366004611035565b610688565b61026061025b366004611133565b6106a0565b60405161013e9190611172565b6101946001600160a01b0360015c1681565b6101347f000000000000000000000000000000000000000000000000000000000000000081565b6101346102b4366004611198565b610762565b61015a6102c7366004611035565b61076c565b5f546102d89060ff1681565b60405161013e919061124b565b6102f86102f3366004611198565b6107e9565b604051901515815260200161013e565b336001600160a01b038416146103315760405163e15e56c960e01b815260040160405180910390fd5b5f61033b846107f5565b905061034681610808565b156103645760405163945b63f560e01b815260040160405180910390fd5b61036f816001610815565b61037b8585858561082b565b5050505050565b61038b8161088c565b50336004805c6001600160a01b0319168217905d5050565b5f6103ad826107f5565b90506103b8816108be565b806103c757506103c781610808565b156103e55760405163441e4c7360e11b815260040160405180910390fd5b5f6103f18260016108c7565b905083815d50505050565b336001600160a01b038416146104255760405163e15e56c960e01b815260040160405180910390fd5b5f61042f846107f5565b905061043a816108be565b1561045857604051630bbb04d960e11b815260040160405180910390fd5b61046381600161091c565b61037b85858585610928565b60605f61047e86868686610a27565b90508051600261048e9190611285565b67ffffffffffffffff8111156104a6576104a6611184565b6040519080825280602002602001820160405280156104f257816020015b60408051606080820183525f8083526020830152918101919091528152602001906001900390816104c45790505b5091506040518060600160405280306001600160a01b031681526020015f8152602001306001600160a01b0316632ae2fe3d8989898960405160240161053b9493929190611298565b604051602081830303815290604052915060e01b6020820180516001600160e01b038381831617835250505050815250825f8151811061057d5761057d6112e0565b60209081029190910101525f5b81518110156105de578181815181106105a5576105a56112e0565b6020026020010151838260016105bb9190611285565b815181106105cb576105cb6112e0565b602090810291909101015260010161058a565b506040518060600160405280306001600160a01b031681526020015f8152602001306001600160a01b03166305b4fe91898989896040516024016106259493929190611298565b604051602081830303815290604052915060e01b6020820180516001600160e01b038381831617835250505050815250826001845161066491906112f4565b81518110610674576106746112e0565b602002602001018190525050949350505050565b5f61069a610695836107f5565b610d4f565b92915050565b60606106e083838080601f0160208091040260200160405190810160405280939291908181526020018383808284375f92019190915250610d5c92505050565b61072184848080601f0160208091040260200160405190810160405280939291908181526020018383808284375f9201919091525060349250610d64915050565b6040516bffffffffffffffffffffffff19606093841b811660208301529190921b166034820152604801604051602081830303815290604052905092915050565b5f61069a82610dcd565b336001600160a01b0360045c16146107975760405163e15e56c960e01b815260040160405180910390fd5b5f6107a1826107f5565b90506107ac816108be565b15806107be57506107bc81610808565b155b156107dc57604051634bd439b560e11b815260040160405180910390fd5b6107e581610dd9565b5050565b5f61069a826088610df0565b5f5f61080083610e1c565b5c9392505050565b5f5f6108008360036108c7565b5f6108218360036108c7565b905081815d505050565b61088661083784610688565b6108768585858080601f0160208091040260200160405190810160405280939291908181526020018383808284375f92019190915250610e8892505050565b61088091906112f4565b84610f03565b50505050565b5f6003805c908261089c83611307565b9190505d505f6108ab83610e1c565b905060035c80825d505060035c92915050565b5f5f6108008360025b604080517fc41a07c57a776f6217c6d4278dfe7a5d114742afe55627ce458c2802aa4d703460208083019190915281830194909452606080820193909352815180820390930183526080019052805191012090565b5f6108218360026108c7565b61096a6108808484848080601f0160208091040260200160405190810160405280939291908181526020018383808284375f92019190915250610e8892505050565b6109a882828080601f0160208091040260200160405190810160405280939291908181526020018383808284375f92019190915250610d5c92505050565b6001805c6001600160a01b0319166001600160a01b03831617905d50610a0582828080601f0160208091040260200160405190810160405280939291908181526020018383808284375f9201919091525060349250610d64915050565b6002805c6001600160a01b0319166001600160a01b03831617905d5050505050565b60605f610a6884848080601f0160208091040260200160405190810160405280939291908181526020018383808284375f92019190915250610d5c92505050565b90505f610aac85858080601f0160208091040260200160405190810160405280939291908181526020018383808284375f9201919091525060349250610d64915050565b90505f610af086868080601f0160208091040260200160405190810160405280939291908181526020018383808284375f9201919091525060489250610f1b915050565b90505f610b3487878080601f0160208091040260200160405190810160405280939291908181526020018383808284375f9201919091525060689250610f1b915050565b90505f610b7888888080601f0160208091040260200160405190810160405280939291908181526020018383808284375f9201919091525060889250610df0915050565b90508015610beb576040516381cbe69160e01b81526001600160a01b038a811660048301528b16906381cbe69190602401602060405180830381865afa158015610bc4573d5f5f3e3d5ffd5b505050506040513d601f19601f82011682018060405250810190610be8919061131f565b92505b825f03610c0b576040516305112ab160e41b815260040160405180910390fd5b6001600160a01b0385161580610c2857506001600160a01b038916155b15610c4657604051630f58648f60e01b815260040160405180910390fd5b60408051600180825281830190925290816020015b60408051606080820183525f808352602083015291810191909152815260200190600190039081610c5b5790505095506040518060600160405280866001600160a01b031681526020015f6001600160a01b0316866001600160a01b031614610cc4575f610cc6565b845b81526040516001600160a01b03808d16602483015287166044820152606481018690526084810185905260209091019060a40160408051601f198184030181529190526020810180516001600160e01b03166320e8c56560e01b1790529052865187905f90610d3757610d376112e0565b60200260200101819052505050505050949350505050565b5f5f6108008360016108c7565b5f61069a8260205b5f610d70826014611285565b83511015610dbd5760405162461bcd60e51b8152602060048201526015602482015274746f416464726573735f6f75744f66426f756e647360581b60448201526064015b60405180910390fd5b500160200151600160601b900490565b5f61069a826048610f1b565b610de3815f61091c565b610ded815f610815565b50565b5f828281518110610e0357610e036112e0565b01602001516001600160f81b0319161515905092915050565b5f7f8ce092d4869bdfa1a1ce579ddddb2b776c39ace5d7b5d7e70e97ece2a78f4f9b82604051602001610e6b92919091825260601b6bffffffffffffffffffffffff1916602082015260340190565b604051602081830303815290604052805190602001209050919050565b5f610e9282610d5c565b6040516370a0823160e01b81526001600160a01b03858116600483015291909116906370a0823190602401602060405180830381865afa158015610ed8573d5f5f3e3d5ffd5b505050506040513d601f19601f82011682018060405250810190610efc919061131f565b9392505050565b5f610f0d826107f5565b90505f6103f18260016108c7565b5f610f27826020611285565b83511015610f6f5760405162461bcd60e51b8152602060048201526015602482015274746f55696e743235365f6f75744f66426f756e647360581b6044820152606401610db4565b50016020015190565b80356001600160a01b0381168114610f8e575f5ffd5b919050565b5f5f83601f840112610fa3575f5ffd5b50813567ffffffffffffffff811115610fba575f5ffd5b602083019150836020828501011115610fd1575f5ffd5b9250929050565b5f5f5f5f60608587031215610feb575f5ffd5b610ff485610f78565b935061100260208601610f78565b9250604085013567ffffffffffffffff81111561101d575f5ffd5b61102987828801610f93565b95989497509550505050565b5f60208284031215611045575f5ffd5b610efc82610f78565b5f5f6040838503121561105f575f5ffd5b8235915061106f60208401610f78565b90509250929050565b5f81518084528060208401602086015e5f602082860101526020601f19601f83011685010191505092915050565b5f602082016020835280845180835260408501915060408160051b8601019250602086015f5b8281101561112757868503603f19018452815180516001600160a01b031686526020808201519087015260409081015160609187018290529061111190870182611078565b95505060209384019391909101906001016110cc565b50929695505050505050565b5f5f60208385031215611144575f5ffd5b823567ffffffffffffffff81111561115a575f5ffd5b61116685828601610f93565b90969095509350505050565b602081525f610efc6020830184611078565b634e487b7160e01b5f52604160045260245ffd5b5f602082840312156111a8575f5ffd5b813567ffffffffffffffff8111156111be575f5ffd5b8201601f810184136111ce575f5ffd5b803567ffffffffffffffff8111156111e8576111e8611184565b604051601f8201601f19908116603f0116810167ffffffffffffffff8111828210171561121757611217611184565b60405281815282820160200186101561122e575f5ffd5b816020840160208301375f91810160200191909152949350505050565b602081016003831061126b57634e487b7160e01b5f52602160045260245ffd5b91905290565b634e487b7160e01b5f52601160045260245ffd5b8082018082111561069a5761069a611271565b6001600160a01b038581168252841660208201526060604082018190528101829052818360808301375f818301608090810191909152601f909201601f191601019392505050565b634e487b7160e01b5f52603260045260245ffd5b8181038181111561069a5761069a611271565b5f6001820161131857611318611271565b5060010190565b5f6020828403121561132f575f5ffd5b505191905056fea164736f6c634300081e000a","linkReferences":{}},"methodIdentifiers":{"SUB_TYPE()":"984d6e7a","asset()":"38d52e0f","build(address,address,bytes)":"3b5896bc","decodeAmount(bytes)":"ac440f72","decodeUsePrevHookAmount(bytes)":"e7745517","dstChainId()":"30c593f7","executionNonce()":"01bd43ef","getOutAmount(address)":"81cbe691","hookType()":"e445e7dd","inspect(bytes)":"8c4313c1","lastCaller()":"2113522a","postExecute(address,address,bytes)":"05b4fe91","preExecute(address,address,bytes)":"2ae2fe3d","resetExecutionState(address)":"d06a1e89","setExecutionContext(address)":"14cb37cf","setOutAmount(uint256,address)":"1f264619","spToken()":"8e148776","subtype()":"5492e677","usedShares()":"685a943c","vaultBank()":"701ffc8b"},"id":395}