{"abi":[{"type":"constructor","inputs":[{"name":"ledgerConfiguration_","type":"address","internalType":"address"},{"name":"allowedExecutors_","type":"address[]","internalType":"address[]"}],"stateMutability":"nonpayable"},{"type":"function","name":"allowedExecutors","inputs":[{"name":"executor","type":"address","internalType":"address"}],"outputs":[{"name":"isAllowed","type":"bool","internalType":"bool"}],"stateMutability":"view"},{"type":"function","name":"calculateCostBasisView","inputs":[{"name":"user","type":"address","internalType":"address"},{"name":"yieldSource","type":"address","internalType":"address"},{"name":"usedShares","type":"uint256","internalType":"uint256"}],"outputs":[{"name":"costBasis","type":"uint256","internalType":"uint256"},{"name":"shares","type":"uint256","internalType":"uint256"}],"stateMutability":"view"},{"type":"function","name":"previewFees","inputs":[{"name":"user","type":"address","internalType":"address"},{"name":"yieldSourceAddress","type":"address","internalType":"address"},{"name":"amountAssets","type":"uint256","internalType":"uint256"},{"name":"usedShares","type":"uint256","internalType":"uint256"},{"name":"feePercent","type":"uint256","internalType":"uint256"}],"outputs":[{"name":"feeAmount","type":"uint256","internalType":"uint256"}],"stateMutability":"view"},{"type":"function","name":"superLedgerConfiguration","inputs":[],"outputs":[{"name":"","type":"address","internalType":"contract SuperLedgerConfiguration"}],"stateMutability":"view"},{"type":"function","name":"updateAccounting","inputs":[{"name":"user","type":"address","internalType":"address"},{"name":"yieldSource","type":"address","internalType":"address"},{"name":"yieldSourceOracleId","type":"bytes32","internalType":"bytes32"},{"name":"isInflow","type":"bool","internalType":"bool"},{"name":"amountSharesOrAssets","type":"uint256","internalType":"uint256"},{"name":"usedShares","type":"uint256","internalType":"uint256"}],"outputs":[{"name":"feeAmount","type":"uint256","internalType":"uint256"}],"stateMutability":"nonpayable"},{"type":"function","name":"usersAccumulatorCostBasis","inputs":[{"name":"user","type":"address","internalType":"address"},{"name":"yieldSource","type":"address","internalType":"address"}],"outputs":[{"name":"costBasis","type":"uint256","internalType":"uint256"}],"stateMutability":"view"},{"type":"function","name":"usersAccumulatorShares","inputs":[{"name":"user","type":"address","internalType":"address"},{"name":"yieldSource","type":"address","internalType":"address"}],"outputs":[{"name":"shares","type":"uint256","internalType":"uint256"}],"stateMutability":"view"},{"type":"event","name":"AccountingInflow","inputs":[{"name":"user","type":"address","indexed":true,"internalType":"address"},{"name":"yieldSourceOracle","type":"address","indexed":true,"internalType":"address"},{"name":"yieldSource","type":"address","indexed":true,"internalType":"address"},{"name":"amount","type":"uint256","indexed":false,"internalType":"uint256"},{"name":"pps","type":"uint256","indexed":false,"internalType":"uint256"}],"anonymous":false},{"type":"event","name":"AccountingOutflow","inputs":[{"name":"user","type":"address","indexed":true,"internalType":"address"},{"name":"yieldSourceOracle","type":"address","indexed":true,"internalType":"address"},{"name":"yieldSource","type":"address","indexed":true,"internalType":"address"},{"name":"amount","type":"uint256","indexed":false,"internalType":"uint256"},{"name":"feeAmount","type":"uint256","indexed":false,"internalType":"uint256"}],"anonymous":false},{"type":"event","name":"UsedSharesCapped","inputs":[{"name":"originalVal","type":"uint256","indexed":false,"internalType":"uint256"},{"name":"cappedVal","type":"uint256","indexed":false,"internalType":"uint256"}],"anonymous":false},{"type":"error","name":"FEE_NOT_SET","inputs":[]},{"type":"error","name":"HOOK_NOT_FOUND","inputs":[]},{"type":"error","name":"INVALID_FEE_PERCENT","inputs":[]},{"type":"error","name":"INVALID_LEDGER","inputs":[]},{"type":"error","name":"INVALID_PRICE","inputs":[]},{"type":"error","name":"MANAGER_NOT_SET","inputs":[]},{"type":"error","name":"NOT_AUTHORIZED","inputs":[]},{"type":"error","name":"NOT_MANAGER","inputs":[]},{"type":"error","name":"ZERO_ADDRESS_NOT_ALLOWED","inputs":[]},{"type":"error","name":"ZERO_ID_NOT_ALLOWED","inputs":[]},{"type":"error","name":"ZERO_LENGTH","inputs":[]}],"bytecode":{"object":"0x60a060405234801561000f575f5ffd5b50604051610ba0380380610ba083398101604081905261002e916100fa565b81816001600160a01b03821661005757604051636fe7b73760e01b815260040160405180910390fd5b6001600160a01b03821660805280515f5b818110156100c057600160025f858481518110610087576100876101d8565b6020908102919091018101516001600160a01b031682528101919091526040015f20805460ff1916911515919091179055600101610068565b5050505050506101ec565b80516001600160a01b03811681146100e1575f5ffd5b919050565b634e487b7160e01b5f52604160045260245ffd5b5f5f6040838503121561010b575f5ffd5b610114836100cb565b60208401519092506001600160401b0381111561012f575f5ffd5b8301601f8101851361013f575f5ffd5b80516001600160401b03811115610158576101586100e6565b604051600582901b90603f8201601f191681016001600160401b0381118282101715610186576101866100e6565b6040529182526020818401810192908101888411156101a3575f5ffd5b6020850194505b838510156101c9576101bb856100cb565b8152602094850194016101aa565b50809450505050509250929050565b634e487b7160e01b5f52603260045260245ffd5b60805161099561020b5f395f818161010201526103a201526109955ff3fe608060405234801561000f575f5ffd5b506004361061007a575f3560e01c8063825e9ec711610058578063825e9ec7146100fd578063e4367cd31461013c578063e70833d314610164578063fd8cd53f1461018e575f5ffd5b80632c119fca1461007e57806337cb6736146100b857806349b1df7b146100ea575b5f5ffd5b6100a561008c366004610733565b5f60208181529281526040808220909352908152205481565b6040519081526020015b60405180910390f35b6100da6100c636600461076a565b60026020525f908152604090205460ff1681565b60405190151581526020016100af565b6100a56100f8366004610785565b6101a1565b6101247f000000000000000000000000000000000000000000000000000000000000000081565b6040516001600160a01b0390911681526020016100af565b61014f61014a3660046107d2565b6101c7565b604080519283526020830191909152016100af565b6100a5610172366004610733565b600160209081525f928352604080842090915290825290205481565b6100a561019c366004610810565b610235565b5f5f6101ae8787866101c7565b5090506101bc818685610251565b979650505050505050565b6001600160a01b038084165f8181526020818152604080832094871680845294825280832054938352600182528083209483529390529182205482919081851115610210578194505b5f851161021d575f610228565b6102288186846102aa565b9794965093945050505050565b5f61024487878787878761035b565b90505b9695505050505050565b5f5f848411610260575f61026a565b61026a8585610875565b905080156102a257825f0361029257604051632e069cd360e01b815260040160405180910390fd5b61029f81846127106102aa565b91505b509392505050565b5f5f5f6102b786866106c8565b91509150815f036102db578381816102d1576102d161089a565b0492505050610354565b8184116102f2576102f260038515026011186106e4565b5f848688095f868103871696879004966002600389028118808a02820302808a02820302808a02820302808a02820302808a02820302808a02909103029181900381900460010185841190960395909502919093039390930492909217029150505b9392505050565b335f9081526002602052604081205460ff1661038a57604051633d83866f60e01b815260040160405180910390fd5b604051630b47673760e41b8152600481018690525f907f00000000000000000000000000000000000000000000000000000000000000006001600160a01b03169063b47673709060240160a060405180830381865afa1580156103ef573d5f5f3e3d5ffd5b505050506040513d601f19601f8201168201806040525081019061041391906108be565b60608101519091506001600160a01b031661044157604051638077659960e01b815260040160405180910390fd5b60808101516001600160a01b0316301461046e57604051632a076cc160e11b815260040160405180910390fd5b805160405163ec422afd60e01b81526001600160a01b0389811660048301525f92169063ec422afd90602401602060405180830381865afa1580156104b5573d5f5f3e3d5ffd5b505050506040513d601f19601f820116820180604052508101906104d99190610951565b9050805f036104fb576040516325f9ce5d60e11b815260040160405180910390fd5b85156105d1578151604051636a24d41960e11b81526001600160a01b03808b16600483015261057e928c9289928d92879291169063d449a83290602401602060405180830381865afa158015610553573d5f5f3e3d5ffd5b505050506040513d601f19601f820116820180604052508101906105779190610968565b5050505050565b815160408051878152602081018490526001600160a01b03808c1693811692908d16917f0739bc8e7ea8aa32e4aed717e94d5448d6c652c3d2c346961880a6878b9a2247910160405180910390a46106bc565b8151604051636a24d41960e11b81526001600160a01b038a811660048301525f92169063d449a83290602401602060405180830381865afa158015610618573d5f5f3e3d5ffd5b505050506040513d601f19601f8201168201806040525081019061063c9190610968565b90508561064e8b8b83898888886106f5565b9450896001600160a01b0316845f01516001600160a01b03168c6001600160a01b03167fc1eb34142f486694077c8fe62a1e5ea0af28fa50ecb14190c84a7f60ffbb05fd8a896040516106ab929190918252602082015260400190565b60405180910390a450505050610247565b50509695505050505050565b5f805f1983850993909202808410938190039390930393915050565b634e487b715f52806020526024601cfd5b60208301515f90156101bc576107105f878660200151610251565b98975050505050505050565b6001600160a01b0381168114610730575f5ffd5b50565b5f5f60408385031215610744575f5ffd5b823561074f8161071c565b9150602083013561075f8161071c565b809150509250929050565b5f6020828403121561077a575f5ffd5b81356103548161071c565b5f5f5f5f5f60a08688031215610799575f5ffd5b85356107a48161071c565b945060208601356107b48161071c565b94979496505050506040830135926060810135926080909101359150565b5f5f5f606084860312156107e4575f5ffd5b83356107ef8161071c565b925060208401356107ff8161071c565b929592945050506040919091013590565b5f5f5f5f5f5f60c08789031215610825575f5ffd5b86356108308161071c565b955060208701356108408161071c565b9450604087013593506060870135801515811461085b575f5ffd5b9598949750929560808101359460a0909101359350915050565b8181038181111561089457634e487b7160e01b5f52601160045260245ffd5b92915050565b634e487b7160e01b5f52601260045260245ffd5b80516108b98161071c565b919050565b5f60a08284031280156108cf575f5ffd5b5060405160a0810167ffffffffffffffff811182821017156108ff57634e487b7160e01b5f52604160045260245ffd5b60405261090b836108ae565b815260208381015190820152610923604084016108ae565b6040820152610934606084016108ae565b6060820152610945608084016108ae565b60808201529392505050565b5f60208284031215610961575f5ffd5b5051919050565b5f60208284031215610978575f5ffd5b815160ff81168114610354575f5ffdfea164736f6c634300081e000a","linkReferences":{}},"methodIdentifiers":{"allowedExecutors(address)":"37cb6736","calculateCostBasisView(address,address,uint256)":"e4367cd3","previewFees(address,address,uint256,uint256,uint256)":"49b1df7b","superLedgerConfiguration()":"825e9ec7","updateAccounting(address,address,bytes32,bool,uint256,uint256)":"fd8cd53f","usersAccumulatorCostBasis(address,address)":"e70833d3","usersAccumulatorShares(address,address)":"2c119fca"},"id":418}