{"abi":[{"type":"constructor","inputs":[{"name":"distributor_","type":"address","internalType":"address"}],"stateMutability":"nonpayable"},{"type":"function","name":"BPS","inputs":[],"outputs":[{"name":"","type":"uint256","internalType":"uint256"}],"stateMutability":"view"},{"type":"function","name":"DISTRIBUTOR","inputs":[],"outputs":[{"name":"","type":"address","internalType":"address"}],"stateMutability":"view"},{"type":"function","name":"MAX_FEE_PERCENT","inputs":[],"outputs":[{"name":"","type":"uint256","internalType":"uint256"}],"stateMutability":"view"},{"type":"function","name":"SUB_TYPE","inputs":[],"outputs":[{"name":"","type":"bytes32","internalType":"bytes32"}],"stateMutability":"view"},{"type":"function","name":"asset","inputs":[],"outputs":[{"name":"","type":"address","internalType":"address"}],"stateMutability":"view"},{"type":"function","name":"build","inputs":[{"name":"prevHook","type":"address","internalType":"address"},{"name":"account","type":"address","internalType":"address"},{"name":"hookData","type":"bytes","internalType":"bytes"}],"outputs":[{"name":"executions","type":"tuple[]","internalType":"struct Execution[]","components":[{"name":"target","type":"address","internalType":"address"},{"name":"value","type":"uint256","internalType":"uint256"},{"name":"callData","type":"bytes","internalType":"bytes"}]}],"stateMutability":"view"},{"type":"function","name":"executionNonce","inputs":[],"outputs":[{"name":"","type":"uint256","internalType":"uint256"}],"stateMutability":"view"},{"type":"function","name":"getOutAmount","inputs":[{"name":"caller","type":"address","internalType":"address"}],"outputs":[{"name":"","type":"uint256","internalType":"uint256"}],"stateMutability":"view"},{"type":"function","name":"hookType","inputs":[],"outputs":[{"name":"","type":"uint8","internalType":"enum ISuperHook.HookType"}],"stateMutability":"view"},{"type":"function","name":"inspect","inputs":[{"name":"data","type":"bytes","internalType":"bytes"}],"outputs":[{"name":"addressData","type":"bytes","internalType":"bytes"}],"stateMutability":"pure"},{"type":"function","name":"lastCaller","inputs":[],"outputs":[{"name":"","type":"address","internalType":"address"}],"stateMutability":"view"},{"type":"function","name":"postExecute","inputs":[{"name":"prevHook","type":"address","internalType":"address"},{"name":"account","type":"address","internalType":"address"},{"name":"data","type":"bytes","internalType":"bytes"}],"outputs":[],"stateMutability":"nonpayable"},{"type":"function","name":"preExecute","inputs":[{"name":"prevHook","type":"address","internalType":"address"},{"name":"account","type":"address","internalType":"address"},{"name":"data","type":"bytes","internalType":"bytes"}],"outputs":[],"stateMutability":"nonpayable"},{"type":"function","name":"resetExecutionState","inputs":[{"name":"caller","type":"address","internalType":"address"}],"outputs":[],"stateMutability":"nonpayable"},{"type":"function","name":"setExecutionContext","inputs":[{"name":"caller","type":"address","internalType":"address"}],"outputs":[],"stateMutability":"nonpayable"},{"type":"function","name":"setOutAmount","inputs":[{"name":"_outAmount","type":"uint256","internalType":"uint256"},{"name":"caller","type":"address","internalType":"address"}],"outputs":[],"stateMutability":"nonpayable"},{"type":"function","name":"spToken","inputs":[],"outputs":[{"name":"","type":"address","internalType":"address"}],"stateMutability":"view"},{"type":"function","name":"subtype","inputs":[],"outputs":[{"name":"","type":"bytes32","internalType":"bytes32"}],"stateMutability":"view"},{"type":"function","name":"usedShares","inputs":[],"outputs":[{"name":"","type":"uint256","internalType":"uint256"}],"stateMutability":"view"},{"type":"error","name":"ADDRESS_NOT_VALID","inputs":[]},{"type":"error","name":"AMOUNT_NOT_VALID","inputs":[]},{"type":"error","name":"CANNOT_SET_OUT_AMOUNT","inputs":[]},{"type":"error","name":"FEE_NOT_VALID","inputs":[]},{"type":"error","name":"INCOMPLETE_HOOK_EXECUTION","inputs":[]},{"type":"error","name":"INVALID_ENCODING","inputs":[]},{"type":"error","name":"NOT_AUTHORIZED","inputs":[]},{"type":"error","name":"POST_EXECUTE_ALREADY_CALLED","inputs":[]},{"type":"error","name":"PRE_EXECUTE_ALREADY_CALLED","inputs":[]},{"type":"error","name":"UNAUTHORIZED_CALLER","inputs":[]}],"bytecode":{"object":"0x60c060405234801561000f575f5ffd5b506040516119ea3803806119ea83398101604081905261002e916100b0565b604080518082019091526005815264436c61696d60d81b6020909101525f805460ff191690557f5c2db6855baf6c374b9d0065771a33d4c31a8627d7b9d40f3fc6aa5dbd7b8a486080526001600160a01b03811661009f57604051630f58648f60e01b815260040160405180910390fd5b6001600160a01b031660a0526100dd565b5f602082840312156100c0575f5ffd5b81516001600160a01b03811681146100d6575f5ffd5b9392505050565b60805160a0516118d76101135f395f8181610297015281816109a90152610a6801525f81816101f1015261027001526118d75ff3fe608060405234801561000f575f5ffd5b506004361061011c575f3560e01c80635492e677116100a95780638e1487761161006e5780638e14877614610259578063984d6e7a1461026b5780639c26149f14610292578063d06a1e89146102b9578063e445e7dd146102cc575f5ffd5b80635492e677146101ef57806367d8174014610215578063685a943c1461021e57806381cbe691146102265780638c4313c114610239575f5ffd5b80632113522a116100ef5780632113522a14610177578063249d39e9146101a15780632ae2fe3d146101aa57806338d52e0f146101bd5780633b5896bc146101cf575f5ffd5b806301bd43ef1461012057806305b4fe911461013c57806314cb37cf146101515780631f26461914610164575b5f5ffd5b61012960035c81565b6040519081526020015b60405180910390f35b61014f61014a366004611454565b6102e5565b005b61014f61015f3660046114b1565b61035f565b61014f6101723660046114d1565b610380565b6101896001600160a01b0360045c1681565b6040516001600160a01b039091168152602001610133565b61012961271081565b61014f6101b8366004611454565b6103d9565b6101896001600160a01b0360025c1681565b6101e26101dd366004611454565b610440565b6040516101339190611520565b7f0000000000000000000000000000000000000000000000000000000000000000610129565b61012961138881565b6101295f5c81565b6101296102343660046114b1565b610659565b61024c6102473660046115ad565b610671565b60405161013391906115ec565b6101896001600160a01b0360015c1681565b6101297f000000000000000000000000000000000000000000000000000000000000000081565b6101897f000000000000000000000000000000000000000000000000000000000000000081565b61014f6102c73660046114b1565b610717565b5f546102d89060ff1681565b60405161013391906115fe565b336001600160a01b0384161461030e5760405163e15e56c960e01b815260040160405180910390fd5b5f61031884610794565b9050610323816107a7565b156103415760405163945b63f560e01b815260040160405180910390fd5b61034c8160016107b4565b610358858585856107ca565b5050505050565b610368816107da565b50336004805c6001600160a01b0319168217905d5050565b5f61038a82610794565b90506103958161080c565b806103a457506103a4816107a7565b156103c25760405163441e4c7360e11b815260040160405180910390fd5b5f6103ce826001610815565b905083815d50505050565b336001600160a01b038416146104025760405163e15e56c960e01b815260040160405180910390fd5b5f61040c84610794565b90506104178161080c565b1561043557604051630bbb04d960e11b815260040160405180910390fd5b61034c81600161086a565b60605f61044f86868686610876565b90508051600261045f9190611638565b67ffffffffffffffff8111156104775761047761164b565b6040519080825280602002602001820160405280156104c357816020015b60408051606080820183525f8083526020830152918101919091528152602001906001900390816104955790505b5091506040518060600160405280306001600160a01b031681526020015f8152602001306001600160a01b0316632ae2fe3d8989898960405160240161050c949392919061165f565b604051602081830303815290604052915060e01b6020820180516001600160e01b038381831617835250505050815250825f8151811061054e5761054e6116a7565b60209081029190910101525f5b81518110156105af57818181518110610576576105766116a7565b60200260200101518382600161058c9190611638565b8151811061059c5761059c6116a7565b602090810291909101015260010161055b565b506040518060600160405280306001600160a01b031681526020015f8152602001306001600160a01b03166305b4fe91898989896040516024016105f6949392919061165f565b604051602081830303815290604052915060e01b6020820180516001600160e01b038381831617835250505050815250826001845161063591906116bb565b81518110610645576106456116a7565b602002602001018190525050949350505050565b5f61066b61066683610794565b610c64565b92915050565b60605f61067e8484610c71565b509050818160601b6040516020016106979291906116ce565b60405160208183030381529060405291505f6106b38585610cfd565b505080519091505f5b8181101561070d57848382815181106106d7576106d76116a7565b602002602001015160601b6040516020016106f39291906116ce565b60408051601f1981840301815291905294506001016106bc565b5050505092915050565b336001600160a01b0360045c16146107425760405163e15e56c960e01b815260040160405180910390fd5b5f61074c82610794565b90506107578161080c565b15806107695750610767816107a7565b155b1561078757604051634bd439b560e11b815260040160405180910390fd5b61079081610d32565b5050565b5f5f61079f83610d49565b5c9392505050565b5f5f61079f836003610815565b5f6107c0836003610815565b905081815d505050565b6107d45f84610db5565b50505050565b5f6003805c90826107ea836116fa565b9190505d505f6107f983610d49565b905060035c80825d505060035c92915050565b5f5f61079f8360025b604080517fc41a07c57a776f6217c6d4278dfe7a5d114742afe55627ce458c2802aa4d703460208083019190915281830194909452606080820193909352815180820390930183526080019052805191012090565b5f6107c0836002610815565b60606108a36040518060800160405280606081526020016060815260200160608152602001606081525090565b5f5f6108af8686610c71565b915091506113888111156108d65760405163adafbb0b60e01b815260040160405180910390fd5b6001600160a01b0382166108fd57604051630f58648f60e01b815260040160405180910390fd5b5f610909888888610dcd565b80855290506109188787610cfd565b606087015260408601526020850181905251610935906001611638565b67ffffffffffffffff81111561094d5761094d61164b565b60405190808252806020026020018201604052801561099957816020015b60408051606080820183525f80835260208301529181019190915281526020019060019003908161096b5790505b50945060405180606001604052807f00000000000000000000000000000000000000000000000000000000000000006001600160a01b031681526020015f8152602001855f0151866020015187604001518860600151604051602401610a029493929190611755565b60408051601f198184030181529190526020810180516001600160e01b03166301c7ba5760e61b1790529052855186905f90610a4057610a406116a7565b60200260200101819052505f84602001515190505f5b81811015610c56575f808515610b95577f00000000000000000000000000000000000000000000000000000000000000006001600160a01b0316630c9cbf0e895f01518581518110610aaa57610aaa6116a7565b60200260200101518a602001518681518110610ac857610ac86116a7565b60200260200101516040518363ffffffff1660e01b8152600401610b029291906001600160a01b0392831681529116602082015260400190565b606060405180830381865afa158015610b1d573d5f5f3e3d5ffd5b505050506040513d601f19601f82011682018060405250810190610b41919061183f565b9050508092505061271086836001600160d01b03168a604001518681518110610b6c57610b6c6116a7565b6020026020010151610b7e91906116bb565b610b889190611894565b610b9291906118ab565b90505b604051806060016040528089602001518581518110610bb657610bb66116a7565b60200260200101516001600160a01b031681526020015f81526020018883604051602401610bf99291906001600160a01b03929092168252602082015260400190565b60408051601f198184030181529190526020810180516001600160e01b031663a9059cbb60e01b179052905289610c31856001611638565b81518110610c4157610c416116a7565b60209081029190910101525050600101610a56565b505050505050949350505050565b5f5f61079f836001610815565b5f5f610cb184848080601f0160208091040260200160405190810160405280939291908181526020018383808284375f9201829052509250610e9e915050565b9150610cf484848080601f0160208091040260200160405190810160405280939291908181526020018383808284375f9201919091525060149250610f07915050565b90509250929050565b60608060605f5f5f610d0f8888610f64565b925092509250819550809450610d2688888561119a565b93505050509250925092565b610d3c815f61086a565b610d46815f6107b4565b50565b5f7f8ce092d4869bdfa1a1ce579ddddb2b776c39ace5d7b5d7e70e97ece2a78f4f9b82604051602001610d9892919091825260601b6bffffffffffffffffffffffff1916602082015260340190565b604051602081830303815290604052805190602001209050919050565b5f610dbf82610794565b90505f6103ce826001610815565b60605f610e1184848080601f0160208091040260200160405190810160405280939291908181526020018383808284375f9201919091525060349250610f07915050565b90508067ffffffffffffffff811115610e2c57610e2c61164b565b604051908082528060200260200182016040528015610e55578160200160208202803683370190505b5091505f5b81811015610e955785838281518110610e7557610e756116a7565b6001600160a01b0390921660209283029190910190910152600101610e5a565b50509392505050565b5f610eaa826014611638565b83511015610ef75760405162461bcd60e51b8152602060048201526015602482015274746f416464726573735f6f75744f66426f756e647360581b60448201526064015b60405180910390fd5b500160200151600160601b900490565b5f610f13826020611638565b83511015610f5b5760405162461bcd60e51b8152602060048201526015602482015274746f55696e743235365f6f75744f66426f756e647360581b6044820152606401610eee565b50016020015190565b5f6060805f610faa86868080601f0160208091040260200160405190810160405280939291908181526020018383808284375f9201919091525060349250610f07915050565b9050605493508067ffffffffffffffff811115610fc957610fc961164b565b604051908082528060200260200182016040528015610ff2578160200160208202803683370190505b5092505f5b818110156110aa575f61104088888080601f0160208091040260200160405190810160405280939291908181526020018383808284375f920191909152508a9250610e9e915050565b905061104d601487611638565b95506001600160a01b03811661107657604051630f58648f60e01b815260040160405180910390fd5b80858381518110611089576110896116a7565b6001600160a01b039092166020928302919091019091015250600101610ff7565b508067ffffffffffffffff8111156110c4576110c461164b565b6040519080825280602002602001820160405280156110ed578160200160208202803683370190505b5091505f5b81811015611191575f61113b88888080601f0160208091040260200160405190810160405280939291908181526020018383808284375f920191909152508a9250610f07915050565b9050611148602087611638565b9550805f0361116a576040516305112ab160e41b815260040160405180910390fd5b8084838151811061117d5761117d6116a7565b6020908102919091010152506001016110f2565b50509250925092565b60605f6111de85858080601f0160208091040260200160405190810160405280939291908181526020018383808284375f9201919091525060349250610f07915050565b90508067ffffffffffffffff8111156111f9576111f961164b565b60405190808252806020026020018201604052801561122c57816020015b60608152602001906001900390816112175790505b5091505f5b81811015611377575f61127a87878080601f0160208091040260200160405190810160405280939291908181526020018383808284375f92019190915250899250610f07915050565b9050611287602086611638565b94505f8167ffffffffffffffff8111156112a3576112a361164b565b6040519080825280602002602001820160405280156112cc578160200160208202803683370190505b5090505f5b8281101561134e5761131989898080601f0160208091040260200160405190810160405280939291908181526020018383808284375f920191909152508b92506113a0915050565b82828151811061132b5761132b6116a7565b6020026020010181815250506020876113449190611638565b96506001016112d1565b5080858481518110611362576113626116a7565b60209081029190910101525050600101611231565b5082841461139857604051637277ba1b60e01b815260040160405180910390fd5b509392505050565b5f6113ac826020611638565b83511015610f5b5760405162461bcd60e51b8152602060048201526015602482015274746f427974657333325f6f75744f66426f756e647360581b6044820152606401610eee565b80356001600160a01b038116811461140a575f5ffd5b919050565b5f5f83601f84011261141f575f5ffd5b50813567ffffffffffffffff811115611436575f5ffd5b60208301915083602082850101111561144d575f5ffd5b9250929050565b5f5f5f5f60608587031215611467575f5ffd5b611470856113f4565b935061147e602086016113f4565b9250604085013567ffffffffffffffff811115611499575f5ffd5b6114a58782880161140f565b95989497509550505050565b5f602082840312156114c1575f5ffd5b6114ca826113f4565b9392505050565b5f5f604083850312156114e2575f5ffd5b82359150610cf4602084016113f4565b5f81518084528060208401602086015e5f602082860101526020601f19601f83011685010191505092915050565b5f602082016020835280845180835260408501915060408160051b8601019250602086015f5b828110156115a157868503603f19018452815180516001600160a01b031686526020808201519087015260409081015160609187018290529061158b908701826114f2565b9550506020938401939190910190600101611546565b50929695505050505050565b5f5f602083850312156115be575f5ffd5b823567ffffffffffffffff8111156115d4575f5ffd5b6115e08582860161140f565b90969095509350505050565b602081525f6114ca60208301846114f2565b602081016003831061161e57634e487b7160e01b5f52602160045260245ffd5b91905290565b634e487b7160e01b5f52601160045260245ffd5b8082018082111561066b5761066b611624565b634e487b7160e01b5f52604160045260245ffd5b6001600160a01b038581168252841660208201526060604082018190528101829052818360808301375f818301608090810191909152601f909201601f191601019392505050565b634e487b7160e01b5f52603260045260245ffd5b8181038181111561066b5761066b611624565b5f83518060208601845e6bffffffffffffffffffffffff19939093169190920190815260140192915050565b5f6001820161170b5761170b611624565b5060010190565b5f8151808452602084019350602083015f5b8281101561174b5781516001600160a01b0316865260209586019590910190600101611724565b5093949350505050565b608081525f6117676080830187611712565b82810360208401526117798187611712565b8381036040850152855180825260208088019350909101905f5b818110156117b1578351835260209384019390920191600101611793565b50508381036060850152845180825260208083019350600582901b830181019087015f5b8381101561182f57848303601f19018652815180518085526020918201918501905f5b818110156118165783518352602093840193909201916001016117f8565b50506020978801979094509290920191506001016117d5565b50909a9950505050505050505050565b5f5f5f60608486031215611851575f5ffd5b83516001600160d01b0381168114611867575f5ffd5b602085015190935065ffffffffffff81168114611882575f5ffd5b80925050604084015190509250925092565b808202811582820484141761066b5761066b611624565b5f826118c557634e487b7160e01b5f52601260045260245ffd5b50049056fea164736f6c634300081e000a","linkReferences":{}},"methodIdentifiers":{"BPS()":"249d39e9","DISTRIBUTOR()":"9c26149f","MAX_FEE_PERCENT()":"67d81740","SUB_TYPE()":"984d6e7a","asset()":"38d52e0f","build(address,address,bytes)":"3b5896bc","executionNonce()":"01bd43ef","getOutAmount(address)":"81cbe691","hookType()":"e445e7dd","inspect(bytes)":"8c4313c1","lastCaller()":"2113522a","postExecute(address,address,bytes)":"05b4fe91","preExecute(address,address,bytes)":"2ae2fe3d","resetExecutionState(address)":"d06a1e89","setExecutionContext(address)":"14cb37cf","setOutAmount(uint256,address)":"1f264619","spToken()":"8e148776","subtype()":"5492e677","usedShares()":"685a943c"},"id":6}