{"abi":[{"type":"constructor","inputs":[{"name":"_distributor","type":"address","internalType":"address"}],"stateMutability":"nonpayable"},{"type":"function","name":"asset","inputs":[],"outputs":[{"name":"","type":"address","internalType":"address"}],"stateMutability":"view"},{"type":"function","name":"build","inputs":[{"name":"prevHook","type":"address","internalType":"address"},{"name":"account","type":"address","internalType":"address"},{"name":"hookData","type":"bytes","internalType":"bytes"}],"outputs":[{"name":"executions","type":"tuple[]","internalType":"struct Execution[]","components":[{"name":"target","type":"address","internalType":"address"},{"name":"value","type":"uint256","internalType":"uint256"},{"name":"callData","type":"bytes","internalType":"bytes"}]}],"stateMutability":"view"},{"type":"function","name":"distributor","inputs":[],"outputs":[{"name":"","type":"address","internalType":"address"}],"stateMutability":"view"},{"type":"function","name":"executionNonce","inputs":[],"outputs":[{"name":"","type":"uint256","internalType":"uint256"}],"stateMutability":"view"},{"type":"function","name":"getOutAmount","inputs":[{"name":"caller","type":"address","internalType":"address"}],"outputs":[{"name":"","type":"uint256","internalType":"uint256"}],"stateMutability":"view"},{"type":"function","name":"hookType","inputs":[],"outputs":[{"name":"","type":"uint8","internalType":"enum ISuperHook.HookType"}],"stateMutability":"view"},{"type":"function","name":"inspect","inputs":[{"name":"data","type":"bytes","internalType":"bytes"}],"outputs":[{"name":"addressData","type":"bytes","internalType":"bytes"}],"stateMutability":"pure"},{"type":"function","name":"lastCaller","inputs":[],"outputs":[{"name":"","type":"address","internalType":"address"}],"stateMutability":"view"},{"type":"function","name":"postExecute","inputs":[{"name":"prevHook","type":"address","internalType":"address"},{"name":"account","type":"address","internalType":"address"},{"name":"data","type":"bytes","internalType":"bytes"}],"outputs":[],"stateMutability":"nonpayable"},{"type":"function","name":"preExecute","inputs":[{"name":"prevHook","type":"address","internalType":"address"},{"name":"account","type":"address","internalType":"address"},{"name":"data","type":"bytes","internalType":"bytes"}],"outputs":[],"stateMutability":"nonpayable"},{"type":"function","name":"resetExecutionState","inputs":[{"name":"caller","type":"address","internalType":"address"}],"outputs":[],"stateMutability":"nonpayable"},{"type":"function","name":"setExecutionContext","inputs":[{"name":"caller","type":"address","internalType":"address"}],"outputs":[],"stateMutability":"nonpayable"},{"type":"function","name":"setOutAmount","inputs":[{"name":"_outAmount","type":"uint256","internalType":"uint256"},{"name":"caller","type":"address","internalType":"address"}],"outputs":[],"stateMutability":"nonpayable"},{"type":"function","name":"spToken","inputs":[],"outputs":[{"name":"","type":"address","internalType":"address"}],"stateMutability":"view"},{"type":"function","name":"subType","inputs":[],"outputs":[{"name":"","type":"bytes32","internalType":"bytes32"}],"stateMutability":"view"},{"type":"function","name":"subtype","inputs":[],"outputs":[{"name":"","type":"bytes32","internalType":"bytes32"}],"stateMutability":"view"},{"type":"function","name":"usedShares","inputs":[],"outputs":[{"name":"","type":"uint256","internalType":"uint256"}],"stateMutability":"view"},{"type":"error","name":"ADDRESS_NOT_VALID","inputs":[]},{"type":"error","name":"AMOUNT_NOT_VALID","inputs":[]},{"type":"error","name":"CANNOT_SET_OUT_AMOUNT","inputs":[]},{"type":"error","name":"INCOMPLETE_HOOK_EXECUTION","inputs":[]},{"type":"error","name":"INVALID_ENCODING","inputs":[]},{"type":"error","name":"NOT_AUTHORIZED","inputs":[]},{"type":"error","name":"POST_EXECUTE_ALREADY_CALLED","inputs":[]},{"type":"error","name":"PRE_EXECUTE_ALREADY_CALLED","inputs":[]},{"type":"error","name":"UNAUTHORIZED_CALLER","inputs":[]}],"bytecode":{"object":"0x60c060405234801561000f575f5ffd5b506040516115e13803806115e183398101604081905261002e916100b0565b604080518082019091526005815264436c61696d60d81b6020909101525f805460ff191690557f5c2db6855baf6c374b9d0065771a33d4c31a8627d7b9d40f3fc6aa5dbd7b8a486080526001600160a01b03811661009f57604051630f58648f60e01b815260040160405180910390fd5b6001600160a01b031660a0526100dd565b5f602082840312156100c0575f5ffd5b81516001600160a01b03811681146100d6575f5ffd5b9392505050565b60805160a0516114d561010c5f395f818161024801526108cd01525f81816101d2015261026f01526114d55ff3fe608060405234801561000f575f5ffd5b5060043610610106575f3560e01c80635492e6771161009e5780638e1487761161006e5780638e14877614610231578063bfe1092814610243578063cf0a61811461026a578063d06a1e8914610291578063e445e7dd146102a4575f5ffd5b80635492e677146101d0578063685a943c146101f657806381cbe691146101fe5780638c4313c114610211575f5ffd5b80632113522a116100d95780632113522a146101615780632ae2fe3d1461018b57806338d52e0f1461019e5780633b5896bc146101b0575f5ffd5b806301bd43ef1461010a57806305b4fe911461012657806314cb37cf1461013b5780631f2646191461014e575b5f5ffd5b61011360035c81565b6040519081526020015b60405180910390f35b6101396101343660046110d4565b6102bd565b005b610139610149366004611131565b610337565b61013961015c366004611151565b610358565b6101736001600160a01b0360045c1681565b6040516001600160a01b03909116815260200161011d565b6101396101993660046110d4565b6103b1565b6101736001600160a01b0360025c1681565b6101c36101be3660046110d4565b610418565b60405161011d91906111a9565b7f0000000000000000000000000000000000000000000000000000000000000000610113565b6101135f5c81565b61011361020c366004611131565b610631565b61022461021f366004611236565b610649565b60405161011d9190611275565b6101736001600160a01b0360015c1681565b6101737f000000000000000000000000000000000000000000000000000000000000000081565b6101137f000000000000000000000000000000000000000000000000000000000000000081565b61013961029f366004611131565b6106b9565b5f546102b09060ff1681565b60405161011d9190611287565b336001600160a01b038416146102e65760405163e15e56c960e01b815260040160405180910390fd5b5f6102f084610736565b90506102fb81610749565b156103195760405163945b63f560e01b815260040160405180910390fd5b610324816001610756565b6103308585858561076c565b5050505050565b6103408161077c565b50336004805c6001600160a01b0319168217905d5050565b5f61036282610736565b905061036d816107ae565b8061037c575061037c81610749565b1561039a5760405163441e4c7360e11b815260040160405180910390fd5b5f6103a68260016107b7565b905083815d50505050565b336001600160a01b038416146103da5760405163e15e56c960e01b815260040160405180910390fd5b5f6103e484610736565b90506103ef816107ae565b1561040d57604051630bbb04d960e11b815260040160405180910390fd5b61032481600161080c565b60605f61042786868686610818565b90508051600261043791906112c1565b67ffffffffffffffff81111561044f5761044f6112d4565b60405190808252806020026020018201604052801561049b57816020015b60408051606080820183525f80835260208301529181019190915281526020019060019003908161046d5790505b5091506040518060600160405280306001600160a01b031681526020015f8152602001306001600160a01b0316632ae2fe3d898989896040516024016104e494939291906112e8565b604051602081830303815290604052915060e01b6020820180516001600160e01b038381831617835250505050815250825f8151811061052657610526611330565b60209081029190910101525f5b81518110156105875781818151811061054e5761054e611330565b60200260200101518382600161056491906112c1565b8151811061057457610574611330565b6020908102919091010152600101610533565b506040518060600160405280306001600160a01b031681526020015f8152602001306001600160a01b03166305b4fe91898989896040516024016105ce94939291906112e8565b604051602081830303815290604052915060e01b6020820180516001600160e01b038381831617835250505050815250826001845161060d9190611344565b8151811061061d5761061d611330565b602002602001018190525050949350505050565b5f61064361063e83610736565b610979565b92915050565b60605f6106568484610986565b505080519091505f5b818110156106b0578383828151811061067a5761067a611330565b602002602001015160601b604051602001610696929190611357565b60408051601f19818403018152919052935060010161065f565b50505092915050565b336001600160a01b0360045c16146106e45760405163e15e56c960e01b815260040160405180910390fd5b5f6106ee82610736565b90506106f9816107ae565b158061070b575061070981610749565b155b1561072957604051634bd439b560e11b815260040160405180910390fd5b610732816109bb565b5050565b5f5f610741836109d2565b5c9392505050565b5f5f6107418360036107b7565b5f6107628360036107b7565b905081815d505050565b6107765f84610a3e565b50505050565b5f6003805c908261078c83611383565b9190505d505f61079b836109d2565b905060035c80825d505060035c92915050565b5f5f6107418360025b604080517fc41a07c57a776f6217c6d4278dfe7a5d114742afe55627ce458c2802aa4d703460208083019190915281830194909452606080820193909352815180820390930183526080019052805191012090565b5f6107628360026107b7565b60606108456040518060800160405280606081526020016060815260200160608152602001606081525090565b5f610851868686610a56565b80835290506108608585610986565b60608501526040840152602083015260016040519080825280602002602001820160405280156108bd57816020015b60408051606080820183525f80835260208301529181019190915281526020019060019003908161088f5790505b50925060405180606001604052807f00000000000000000000000000000000000000000000000000000000000000006001600160a01b031681526020015f8152602001835f015184602001518560400151866060015160405160240161092694939291906113de565b60408051601f198184030181529190526020810180516001600160e01b03166301c7ba5760e61b1790529052835184905f9061096457610964611330565b60200260200101819052505050949350505050565b5f5f6107418360016107b7565b60608060605f5f5f6109988888610b24565b9250925092508195508094506109af888885610d57565b93505050509250925092565b6109c5815f61080c565b6109cf815f610756565b50565b5f7f8ce092d4869bdfa1a1ce579ddddb2b776c39ace5d7b5d7e70e97ece2a78f4f9b82604051602001610a2192919091825260601b6bffffffffffffffffffffffff1916602082015260340190565b604051602081830303815290604052805190602001209050919050565b5f610a4882610736565b90505f6103a68260016107b7565b60605f610a9784848080601f0160208091040260200160405190810160405280939291908181526020018383808284375f9201829052509250610f5a915050565b90508067ffffffffffffffff811115610ab257610ab26112d4565b604051908082528060200260200182016040528015610adb578160200160208202803683370190505b5091505f5b81811015610b1b5785838281518110610afb57610afb611330565b6001600160a01b0390921660209283029190910190910152600101610ae0565b50509392505050565b5f6060805f610b6786868080601f0160208091040260200160405190810160405280939291908181526020018383808284375f9201829052509250610f5a915050565b9050602093508067ffffffffffffffff811115610b8657610b866112d4565b604051908082528060200260200182016040528015610baf578160200160208202803683370190505b5092505f5b81811015610c67575f610bfd88888080601f0160208091040260200160405190810160405280939291908181526020018383808284375f920191909152508a9250610fbc915050565b9050610c0a6014876112c1565b95506001600160a01b038116610c3357604051630f58648f60e01b815260040160405180910390fd5b80858381518110610c4657610c46611330565b6001600160a01b039092166020928302919091019091015250600101610bb4565b508067ffffffffffffffff811115610c8157610c816112d4565b604051908082528060200260200182016040528015610caa578160200160208202803683370190505b5091505f5b81811015610d4e575f610cf888888080601f0160208091040260200160405190810160405280939291908181526020018383808284375f920191909152508a9250610f5a915050565b9050610d056020876112c1565b9550805f03610d27576040516305112ab160e41b815260040160405180910390fd5b80848381518110610d3a57610d3a611330565b602090810291909101015250600101610caf565b50509250925092565b60605f610d9885858080601f0160208091040260200160405190810160405280939291908181526020018383808284375f9201829052509250610f5a915050565b90508067ffffffffffffffff811115610db357610db36112d4565b604051908082528060200260200182016040528015610de657816020015b6060815260200190600190039081610dd15790505b5091505f5b81811015610f31575f610e3487878080601f0160208091040260200160405190810160405280939291908181526020018383808284375f92019190915250899250610f5a915050565b9050610e416020866112c1565b94505f8167ffffffffffffffff811115610e5d57610e5d6112d4565b604051908082528060200260200182016040528015610e86578160200160208202803683370190505b5090505f5b82811015610f0857610ed389898080601f0160208091040260200160405190810160405280939291908181526020018383808284375f920191909152508b9250611020915050565b828281518110610ee557610ee5611330565b602002602001018181525050602087610efe91906112c1565b9650600101610e8b565b5080858481518110610f1c57610f1c611330565b60209081029190910101525050600101610deb565b50828414610f5257604051637277ba1b60e01b815260040160405180910390fd5b509392505050565b5f610f668260206112c1565b83511015610fb35760405162461bcd60e51b8152602060048201526015602482015274746f55696e743235365f6f75744f66426f756e647360581b60448201526064015b60405180910390fd5b50016020015190565b5f610fc88260146112c1565b835110156110105760405162461bcd60e51b8152602060048201526015602482015274746f416464726573735f6f75744f66426f756e647360581b6044820152606401610faa565b500160200151600160601b900490565b5f61102c8260206112c1565b83511015610fb35760405162461bcd60e51b8152602060048201526015602482015274746f427974657333325f6f75744f66426f756e647360581b6044820152606401610faa565b80356001600160a01b038116811461108a575f5ffd5b919050565b5f5f83601f84011261109f575f5ffd5b50813567ffffffffffffffff8111156110b6575f5ffd5b6020830191508360208285010111156110cd575f5ffd5b9250929050565b5f5f5f5f606085870312156110e7575f5ffd5b6110f085611074565b93506110fe60208601611074565b9250604085013567ffffffffffffffff811115611119575f5ffd5b6111258782880161108f565b95989497509550505050565b5f60208284031215611141575f5ffd5b61114a82611074565b9392505050565b5f5f60408385031215611162575f5ffd5b8235915061117260208401611074565b90509250929050565b5f81518084528060208401602086015e5f602082860101526020601f19601f83011685010191505092915050565b5f602082016020835280845180835260408501915060408160051b8601019250602086015f5b8281101561122a57868503603f19018452815180516001600160a01b03168652602080820151908701526040908101516060918701829052906112149087018261117b565b95505060209384019391909101906001016111cf565b50929695505050505050565b5f5f60208385031215611247575f5ffd5b823567ffffffffffffffff81111561125d575f5ffd5b6112698582860161108f565b90969095509350505050565b602081525f61114a602083018461117b565b60208101600383106112a757634e487b7160e01b5f52602160045260245ffd5b91905290565b634e487b7160e01b5f52601160045260245ffd5b80820180821115610643576106436112ad565b634e487b7160e01b5f52604160045260245ffd5b6001600160a01b038581168252841660208201526060604082018190528101829052818360808301375f818301608090810191909152601f909201601f191601019392505050565b634e487b7160e01b5f52603260045260245ffd5b81810381811115610643576106436112ad565b5f83518060208601845e6bffffffffffffffffffffffff19939093169190920190815260140192915050565b5f60018201611394576113946112ad565b5060010190565b5f8151808452602084019350602083015f5b828110156113d45781516001600160a01b03168652602095860195909101906001016113ad565b5093949350505050565b608081525f6113f0608083018761139b565b8281036020840152611402818761139b565b8381036040850152855180825260208088019350909101905f5b8181101561143a57835183526020938401939092019160010161141c565b50508381036060850152845180825260208083019350600582901b830181019087015f5b838110156114b857848303601f19018652815180518085526020918201918501905f5b8181101561149f578351835260209384019390920191600101611481565b505060209788019790945092909201915060010161145e565b50909a995050505050505050505056fea164736f6c634300081e000a","linkReferences":{}},"methodIdentifiers":{"asset()":"38d52e0f","build(address,address,bytes)":"3b5896bc","distributor()":"bfe10928","executionNonce()":"01bd43ef","getOutAmount(address)":"81cbe691","hookType()":"e445e7dd","inspect(bytes)":"8c4313c1","lastCaller()":"2113522a","postExecute(address,address,bytes)":"05b4fe91","preExecute(address,address,bytes)":"2ae2fe3d","resetExecutionState(address)":"d06a1e89","setExecutionContext(address)":"14cb37cf","setOutAmount(uint256,address)":"1f264619","spToken()":"8e148776","subType()":"cf0a6181","subtype()":"5492e677","usedShares()":"685a943c"},"id":464}