{"abi":[{"type":"constructor","inputs":[{"name":"pendleRouterV4_","type":"address","internalType":"address"}],"stateMutability":"nonpayable"},{"type":"function","name":"PENDLE_ROUTER_V4","inputs":[],"outputs":[{"name":"","type":"address","internalType":"contract IPendleRouterV4"}],"stateMutability":"view"},{"type":"function","name":"SUB_TYPE","inputs":[],"outputs":[{"name":"","type":"bytes32","internalType":"bytes32"}],"stateMutability":"view"},{"type":"function","name":"asset","inputs":[],"outputs":[{"name":"","type":"address","internalType":"address"}],"stateMutability":"view"},{"type":"function","name":"build","inputs":[{"name":"prevHook","type":"address","internalType":"address"},{"name":"account","type":"address","internalType":"address"},{"name":"hookData","type":"bytes","internalType":"bytes"}],"outputs":[{"name":"executions","type":"tuple[]","internalType":"struct Execution[]","components":[{"name":"target","type":"address","internalType":"address"},{"name":"value","type":"uint256","internalType":"uint256"},{"name":"callData","type":"bytes","internalType":"bytes"}]}],"stateMutability":"view"},{"type":"function","name":"decodeUsePrevHookAmount","inputs":[{"name":"data","type":"bytes","internalType":"bytes"}],"outputs":[{"name":"","type":"bool","internalType":"bool"}],"stateMutability":"pure"},{"type":"function","name":"executionNonce","inputs":[],"outputs":[{"name":"","type":"uint256","internalType":"uint256"}],"stateMutability":"view"},{"type":"function","name":"getOutAmount","inputs":[{"name":"caller","type":"address","internalType":"address"}],"outputs":[{"name":"","type":"uint256","internalType":"uint256"}],"stateMutability":"view"},{"type":"function","name":"hookType","inputs":[],"outputs":[{"name":"","type":"uint8","internalType":"enum ISuperHook.HookType"}],"stateMutability":"view"},{"type":"function","name":"inspect","inputs":[{"name":"data","type":"bytes","internalType":"bytes"}],"outputs":[{"name":"packed","type":"bytes","internalType":"bytes"}],"stateMutability":"pure"},{"type":"function","name":"lastCaller","inputs":[],"outputs":[{"name":"","type":"address","internalType":"address"}],"stateMutability":"view"},{"type":"function","name":"postExecute","inputs":[{"name":"prevHook","type":"address","internalType":"address"},{"name":"account","type":"address","internalType":"address"},{"name":"data","type":"bytes","internalType":"bytes"}],"outputs":[],"stateMutability":"nonpayable"},{"type":"function","name":"preExecute","inputs":[{"name":"prevHook","type":"address","internalType":"address"},{"name":"account","type":"address","internalType":"address"},{"name":"data","type":"bytes","internalType":"bytes"}],"outputs":[],"stateMutability":"nonpayable"},{"type":"function","name":"resetExecutionState","inputs":[{"name":"caller","type":"address","internalType":"address"}],"outputs":[],"stateMutability":"nonpayable"},{"type":"function","name":"setExecutionContext","inputs":[{"name":"caller","type":"address","internalType":"address"}],"outputs":[],"stateMutability":"nonpayable"},{"type":"function","name":"setOutAmount","inputs":[{"name":"_outAmount","type":"uint256","internalType":"uint256"},{"name":"caller","type":"address","internalType":"address"}],"outputs":[],"stateMutability":"nonpayable"},{"type":"function","name":"spToken","inputs":[],"outputs":[{"name":"","type":"address","internalType":"address"}],"stateMutability":"view"},{"type":"function","name":"subtype","inputs":[],"outputs":[{"name":"","type":"bytes32","internalType":"bytes32"}],"stateMutability":"view"},{"type":"function","name":"usedShares","inputs":[],"outputs":[{"name":"","type":"uint256","internalType":"uint256"}],"stateMutability":"view"},{"type":"error","name":"ADDRESS_NOT_VALID","inputs":[]},{"type":"error","name":"AMOUNT_IN_NOT_VALID","inputs":[]},{"type":"error","name":"AMOUNT_NOT_VALID","inputs":[]},{"type":"error","name":"CANNOT_SET_OUT_AMOUNT","inputs":[]},{"type":"error","name":"EPS_NOT_VALID","inputs":[]},{"type":"error","name":"INCOMPLETE_HOOK_EXECUTION","inputs":[]},{"type":"error","name":"INVALID_GUESS_PT_OUT","inputs":[]},{"type":"error","name":"INVALID_SWAP_TYPE","inputs":[]},{"type":"error","name":"MAKING_AMOUNT_NOT_VALID","inputs":[]},{"type":"error","name":"MARKET_NOT_VALID","inputs":[]},{"type":"error","name":"MIN_OUT_NOT_VALID","inputs":[]},{"type":"error","name":"NOT_AUTHORIZED","inputs":[]},{"type":"error","name":"ORDER_EXPIRED","inputs":[]},{"type":"error","name":"POST_EXECUTE_ALREADY_CALLED","inputs":[]},{"type":"error","name":"PRE_EXECUTE_ALREADY_CALLED","inputs":[]},{"type":"error","name":"RECEIVER_NOT_VALID","inputs":[]},{"type":"error","name":"UNAUTHORIZED_CALLER","inputs":[]}],"bytecode":{"object":"0x60c060405234801561000f575f5ffd5b50604051612ead380380612ead83398101604081905261002e916100af565b6040805180820190915260048152631415165560e21b6020909101525f805460ff191690557fb86a7e98c9c656516a060ac5bc14d0453b037386adfb5f9f2ae12ee7a543e1b46080526001600160a01b03811661009e57604051630f58648f60e01b815260040160405180910390fd5b6001600160a01b031660a0526100dc565b5f602082840312156100bf575f5ffd5b81516001600160a01b03811681146100d5575f5ffd5b9392505050565b60805160a051612da261010b5f395f818161019b0152610fa601525f8181610204015261027a0152612da25ff3fe608060405234801561000f575f5ffd5b5060043610610111575f3560e01c80635492e6771161009e5780638e1487761161006e5780638e14877614610263578063984d6e7a14610275578063d06a1e891461029c578063e445e7dd146102af578063e7745517146102c8575f5ffd5b80635492e67714610202578063685a943c1461022857806381cbe691146102305780638c4313c114610243575f5ffd5b80632113522a116100e45780632113522a1461016c57806321bd8052146101965780632ae2fe3d146101bd57806338d52e0f146101d05780633b5896bc146101e2575f5ffd5b806301bd43ef1461011557806305b4fe911461013157806314cb37cf146101465780631f26461914610159575b5f5ffd5b61011e60035c81565b6040519081526020015b60405180910390f35b61014461013f366004611ad6565b6102eb565b005b610144610154366004611b36565b610365565b610144610167366004611b51565b610386565b61017e6001600160a01b0360045c1681565b6040516001600160a01b039091168152602001610128565b61017e7f000000000000000000000000000000000000000000000000000000000000000081565b6101446101cb366004611ad6565b6103df565b61017e6001600160a01b0360025c1681565b6101f56101f0366004611ad6565b610452565b6040516101289190611bad565b7f000000000000000000000000000000000000000000000000000000000000000061011e565b61011e5f5c81565b61011e61023e366004611b36565b61066a565b610256610251366004611c3a565b610682565b6040516101289190611c78565b61017e6001600160a01b0360015c1681565b61011e7f000000000000000000000000000000000000000000000000000000000000000081565b6101446102aa366004611b36565b610bda565b5f546102bb9060ff1681565b6040516101289190611c9e565b6102db6102d6366004611e03565b610c57565b6040519015158152602001610128565b336001600160a01b038416146103145760405163e15e56c960e01b815260040160405180910390fd5b5f61031e84610c63565b905061032981610c76565b156103475760405163945b63f560e01b815260040160405180910390fd5b610352816001610c83565b61035e85858585610c99565b5050505050565b61036e81610cc6565b50336004805c6001600160a01b0319168217905d5050565b5f61039082610c63565b905061039b81610cf8565b806103aa57506103aa81610c76565b156103c85760405163441e4c7360e11b815260040160405180910390fd5b5f6103d4826001610d01565b905083815d50505050565b336001600160a01b038416146104085760405163e15e56c960e01b815260040160405180910390fd5b5f61041284610c63565b905061041d81610cf8565b1561043b57604051630bbb04d960e11b815260040160405180910390fd5b610446816001610d56565b61035e85858585610d62565b60605f61046186868686610d70565b9050805160026104719190611e50565b6001600160401b0381111561048857610488611cb8565b6040519080825280602002602001820160405280156104d457816020015b60408051606080820183525f8083526020830152918101919091528152602001906001900390816104a65790505b5091506040518060600160405280306001600160a01b031681526020015f8152602001306001600160a01b0316632ae2fe3d8989898960405160240161051d9493929190611e63565b604051602081830303815290604052915060e01b6020820180516001600160e01b038381831617835250505050815250825f8151811061055f5761055f611eab565b60209081029190910101525f5b81518110156105c05781818151811061058757610587611eab565b60200260200101518382600161059d9190611e50565b815181106105ad576105ad611eab565b602090810291909101015260010161056c565b506040518060600160405280306001600160a01b031681526020015f8152602001306001600160a01b03166305b4fe91898989896040516024016106079493929190611e63565b604051602081830303815290604052915060e01b6020820180516001600160e01b03838183161783525050505081525082600184516106469190611ebf565b8151811061065657610656611eab565b602002602001018190525050949350505050565b5f61067c61067783610c63565b61100c565b92915050565b6060365f6106938460558188611ed2565b90925090505f6106a66004828486611ed2565b6106af91611ef9565b9050631bf03dc360e11b6001600160e01b0319821601610927575f8080806106da866004818a611ed2565b8101906106e791906122ee565b9550955050509350935061072f8a8a8080601f0160208091040260200160405190810160405280939291908181526020018383808284375f9201919091525061101992505050565b8484845f015185604001518660600151876080015160200151875f01516040516020016107639897969594939291906123d1565b60408051601f19818403018152918152820151519098505f5b8181101561084757898360400151828151811061079b5761079b611eab565b60200260200101515f015160800151846040015183815181106107c0576107c0611eab565b60200260200101515f015160a00151856040015184815181106107e5576107e5611eab565b60200260200101515f015160c001518660400151858151811061080a5761080a611eab565b60200260200101515f015160e0015160405160200161082d959493929190612446565b60408051601f19818403018152919052995060010161077c565b506060820151515f5b8181101561091b578a8460600151828151811061086f5761086f611eab565b60200260200101515f0151608001518560600151838151811061089457610894611eab565b60200260200101515f015160a00151866060015184815181106108b9576108b9611eab565b60200260200101515f015160c00151876060015185815181106108de576108de611eab565b60200260200101515f015160e00151604051602001610901959493929190612446565b60408051601f198184030181529190529a50600101610850565b50505050505050610bd1565b6329ad5dcd60e21b6001600160e01b0319821601610bd1575f808080610950866004818a611ed2565b81019061095d919061248e565b9450945050935093506109a48a8a8080601f0160208091040260200160405190810160405280939291908181526020018383808284375f9201919091525061101992505050565b82516040808501516060808701516080880151602090810151945196831b6001600160601b0319908116918801919091528a831b8116603488015289831b8116604888015294821b8516605c87015291811b8416607086015290811b831660848501521b16609882015260ac0160408051601f19818403018152918152820151519098505f5b81811015610af5578983604001518281518110610a4957610a49611eab565b60200260200101515f01516080015184604001518381518110610a6e57610a6e611eab565b60200260200101515f015160a0015185604001518481518110610a9357610a93611eab565b60200260200101515f015160c0015186604001518581518110610ab857610ab8611eab565b60200260200101515f015160e00151604051602001610adb959493929190612446565b60408051601f198184030181529190529950600101610a2a565b506060820151515f5b81811015610bc9578a84606001518281518110610b1d57610b1d611eab565b60200260200101515f01516080015185606001518381518110610b4257610b42611eab565b60200260200101515f015160a0015186606001518481518110610b6757610b67611eab565b60200260200101515f015160c0015187606001518581518110610b8c57610b8c611eab565b60200260200101515f015160e00151604051602001610baf959493929190612446565b60408051601f198184030181529190529a50600101610afe565b505050505050505b50505092915050565b336001600160a01b0360045c1614610c055760405163e15e56c960e01b815260040160405180910390fd5b5f610c0f82610c63565b9050610c1a81610cf8565b1580610c2c5750610c2a81610c76565b155b15610c4a57604051634bd439b560e11b815260040160405180910390fd5b610c5381611025565b5050565b5f61067c82603461103c565b5f5f610c6e83611068565b5c9392505050565b5f5f610c6e836003610d01565b5f610c8f836003610d01565b905081815d505050565b610cc0610ca58461066a565b610cb08585856110cf565b610cba9190611ebf565b8461117b565b50505050565b5f6003805c9082610cd68361251e565b9190505d505f610ce583611068565b905060035c80825d505060035c92915050565b5f5f610c6e8360025b604080517fc41a07c57a776f6217c6d4278dfe7a5d114742afe55627ce458c2802aa4d703460208083019190915281830194909452606080820193909352815180820390930183526080019052805191012090565b5f610c8f836002610d01565b610cc0610cba8484846110cf565b60605f610db184848080601f0160208091040260200160405190810160405280939291908181526020018383808284375f9201919091525061101992505050565b90505f610df585858080601f0160208091040260200160405190810160405280939291908181526020018383808284375f920191909152506034925061103c915050565b90505f610e3986868080601f0160208091040260200160405190810160405280939291908181526020018383808284375f9201919091525060359250611193915050565b90505f610e49866055818a611ed2565b8080601f0160208091040260200160405190810160405280939291908181526020018383808284375f920182905250939450610e9a9250610e9191508990506055818c611ed2565b8b878e8a6111f5565b90505f84610ea85782610eaa565b815b90505f5f610eb7836116a5565b915091505f87610ec75786610f2f565b6040516381cbe69160e01b81526001600160a01b038e811660048301528f16906381cbe69190602401602060405180830381865afa158015610f0b573d5f5f3e3d5ffd5b505050506040513d601f19601f82011682018060405250810190610f2f9190612536565b90505f838015610f4657506001600160a01b038316155b610f50575f610f52565b815b604080516001808252818301909252919250816020015b60408051606080820183525f808352602083015291810191909152815260200190600190039081610f69579050509a5060405180606001604052807f00000000000000000000000000000000000000000000000000000000000000006001600160a01b03168152602001828152602001868152508b5f81518110610fef57610fef611eab565b602002602001018190525050505050505050505050949350505050565b5f5f610c6e836001610d01565b5f61067c826020611721565b61102f815f610d56565b611039815f610c83565b50565b5f82828151811061104f5761104f611eab565b01602001516001600160f81b0319161515905092915050565b5f7f8ce092d4869bdfa1a1ce579ddddb2b776c39ace5d7b5d7e70e97ece2a78f4f9b826040516020016110b292919091825260601b6001600160601b031916602082015260340190565b604051602081830303815290604052805190602001209050919050565b5f806110e66110e18460558188611ed2565b611785565b90506001600160a01b0381166111085750506001600160a01b03831631611174565b6040516370a0823160e01b81526001600160a01b0386811660048301528216906370a0823190602401602060405180830381865afa15801561114c573d5f5f3e3d5ffd5b505050506040513d601f19601f820116820180604052508101906111709190612536565b9150505b9392505050565b5f61118582610c63565b90505f6103d4826001610d01565b5f61119f826020611e50565b835110156111ec5760405162461bcd60e51b8152602060048201526015602482015274746f55696e743235365f6f75744f66426f756e647360581b60448201526064015b60405180910390fd5b50016020015190565b60605f611205600482898b611ed2565b61120e91611ef9565b9050631bf03dc360e11b6001600160e01b0319821601611498575f5f5f5f5f5f8d8d600490809261124193929190611ed2565b81019061124e91906122ee565b9550955095509550955095508b6001600160a01b0316866001600160a01b03161461128c57604051631af73f3b60e21b815260040160405180910390fd5b886001600160a01b0316856001600160a01b0316146112be57604051636d88b14560e11b815260040160405180910390fd5b835f036112de57604051636b74117160e11b815260040160405180910390fd5b6020830151835111156113045760405163f963d46960e01b815260040160405180910390fd5b670de0b6b3a764000083608001511115611331576040516343d8fec560e01b815260040160405180910390fd5b60408201516001600160a01b03161580611356575060608201516001600160a01b0316155b1561137457604051630f58648f60e01b815260040160405180910390fd5b8a156113e8576040516381cbe69160e01b81526001600160a01b038d811660048301528b16906381cbe69190602401602060405180830381865afa1580156113be573d5f5f3e3d5ffd5b505050506040513d601f19601f820116820180604052508101906113e29190612536565b60208301525b81602001515f0361140c5760405163648453d360e11b815260040160405180910390fd5b6040810151511561142457611424816040015161188c565b6060810151511561143c5761143c816060015161188c565b86868686868686604051602401611458969594939291906127b7565b60408051601f198184030181529190526020810180516001600160e01b03166001600160e01b031990931692909217909152975061169a95505050505050565b6329ad5dcd60e21b6001600160e01b0319821601611681575f5f5f5f5f8c8c60049080926114c893929190611ed2565b8101906114d5919061248e565b945094509450945094508a6001600160a01b0316856001600160a01b03161461151157604051631af73f3b60e21b815260040160405180910390fd5b876001600160a01b0316846001600160a01b03161461154357604051636d88b14560e11b815260040160405180910390fd5b89156115b4576040516381cbe69160e01b81526001600160a01b038c811660048301528a16906381cbe69190602401602060405180830381865afa15801561158d573d5f5f3e3d5ffd5b505050506040513d601f19601f820116820180604052508101906115b19190612536565b92505b825f036115d45760405163648453d360e11b815260040160405180910390fd5b81602001515f036115f857604051636b74117160e11b815260040160405180910390fd5b6040810151511561161057611610816040015161188c565b6060810151511561162857611628816060015161188c565b85858585858560405160240161164295949392919061283d565b60408051601f198184030181529190526020810180516001600160e01b03166001600160e01b031990931692909217909152965061169a945050505050565b6040516312d9b5dd60e01b815260040160405180910390fd5b509695505050505050565b5f5f5f6116b4845f6004611901565b6116bd9061288d565b9050631bf03dc360e11b6001600160e01b0319821601611716575f6116f08560048088516116eb9190611ebf565b611901565b8060200190518101906117039190612c72565b505160019a909950975050505050505050565b505f93849350915050565b5f61172d826014611e50565b835110156117755760405162461bcd60e51b8152602060048201526015602482015274746f416464726573735f6f75744f66426f756e647360581b60448201526064016111e3565b500160200151600160601b900490565b5f806117946004828587611ed2565b61179d91611ef9565b9050631bf03dc360e11b6001600160e01b0319821601611844575f6117c58460048188611ed2565b8101906117d291906122ee565b50505050915050806001600160a01b0316632c8ce6bc6040518163ffffffff1660e01b8152600401606060405180830381865afa158015611815573d5f5f3e3d5ffd5b505050506040513d601f19601f820116820180604052508101906118399190612d4b565b509350611885915050565b6329ad5dcd60e21b6001600160e01b0319821601611681575f61186a8460048188611ed2565b810190611877919061248e565b505195506118859350505050565b5092915050565b5f5b8151811015610c53578181815181106118a9576118a9611eab565b6020026020010151604001515f036118d457604051638b8565b960e01b815260040160405180910390fd5b6118f98282815181106118e9576118e9611eab565b60200260200101515f0151611a06565b60010161188e565b60608182601f0110156119475760405162461bcd60e51b815260206004820152600e60248201526d736c6963655f6f766572666c6f7760901b60448201526064016111e3565b6119518284611e50565b845110156119955760405162461bcd60e51b8152602060048201526011602482015270736c6963655f6f75744f66426f756e647360781b60448201526064016111e3565b6060821580156119b35760405191505f8252602082016040526119fd565b6040519150601f8416801560200281840101858101878315602002848b0101015b818310156119ec5780518352602092830192016119d4565b5050858452601f01601f1916604052505b50949350505050565b4281602001511015611a2b57604051637811aa5560e01b815260040160405180910390fd5b60c08101516001600160a01b03161580611a50575060e08101516001600160a01b0316155b1561103957604051630f58648f60e01b815260040160405180910390fd5b6001600160a01b0381168114611039575f5ffd5b8035611a8d81611a6e565b919050565b5f5f83601f840112611aa2575f5ffd5b5081356001600160401b03811115611ab8575f5ffd5b602083019150836020828501011115611acf575f5ffd5b9250929050565b5f5f5f5f60608587031215611ae9575f5ffd5b8435611af481611a6e565b93506020850135611b0481611a6e565b925060408501356001600160401b03811115611b1e575f5ffd5b611b2a87828801611a92565b95989497509550505050565b5f60208284031215611b46575f5ffd5b813561117481611a6e565b5f5f60408385031215611b62575f5ffd5b823591506020830135611b7481611a6e565b809150509250929050565b5f81518084528060208401602086015e5f602082860101526020601f19601f83011685010191505092915050565b5f602082016020835280845180835260408501915060408160051b8601019250602086015f5b82811015611c2e57868503603f19018452815180516001600160a01b0316865260208082015190870152604090810151606091870182905290611c1890870182611b7f565b9550506020938401939190910190600101611bd3565b50929695505050505050565b5f5f60208385031215611c4b575f5ffd5b82356001600160401b03811115611c60575f5ffd5b611c6c85828601611a92565b90969095509350505050565b602081525f6111746020830184611b7f565b634e487b7160e01b5f52602160045260245ffd5b6020810160038310611cb257611cb2611c8a565b91905290565b634e487b7160e01b5f52604160045260245ffd5b60405160a081016001600160401b0381118282101715611cee57611cee611cb8565b60405290565b604051608081016001600160401b0381118282101715611cee57611cee611cb8565b604051606081016001600160401b0381118282101715611cee57611cee611cb8565b60405161018081016001600160401b0381118282101715611cee57611cee611cb8565b604051601f8201601f191681016001600160401b0381118282101715611d8357611d83611cb8565b604052919050565b5f6001600160401b03821115611da357611da3611cb8565b50601f01601f191660200190565b5f82601f830112611dc0575f5ffd5b8135611dd3611dce82611d8b565b611d5b565b818152846020838601011115611de7575f5ffd5b816020850160208301375f918101602001919091529392505050565b5f60208284031215611e13575f5ffd5b81356001600160401b03811115611e28575f5ffd5b611e3484828501611db1565b949350505050565b634e487b7160e01b5f52601160045260245ffd5b8082018082111561067c5761067c611e3c565b6001600160a01b038581168252841660208201526060604082018190528101829052818360808301375f818301608090810191909152601f909201601f191601019392505050565b634e487b7160e01b5f52603260045260245ffd5b8181038181111561067c5761067c611e3c565b5f5f85851115611ee0575f5ffd5b83861115611eec575f5ffd5b5050820193919092039150565b80356001600160e01b03198116906004841015611885576001600160e01b031960049490940360031b84901b1690921692915050565b600b8110611039575f5ffd5b8015158114611039575f5ffd5b5f60a08284031215611f58575f5ffd5b611f60611ccc565b90508135611f6d81611a6e565b8152602082810135908201526040820135611f8781611a6e565b60408201526060820135611f9a81611a6e565b606082015260808201356001600160401b03811115611fb7575f5ffd5b820160808185031215611fc8575f5ffd5b611fd0611cf4565b8135611fdb81611f2f565b81526020820135611feb81611a6e565b602082015260408201356001600160401b03811115612008575f5ffd5b61201486828501611db1565b6040830152506060820135915061202a82611f3b565b6060810191909152608082015292915050565b5f6001600160401b0382111561205557612055611cb8565b5060051b60200190565b60048110611039575f5ffd5b8035611a8d8161205f565b5f82601f830112612085575f5ffd5b8135612093611dce8261203d565b8082825260208201915060208360051b8601019250858311156120b4575f5ffd5b602085015b838110156122315780356001600160401b038111156120d6575f5ffd5b86016060818903601f190112156120eb575f5ffd5b6120f3611d16565b60208201356001600160401b0381111561210b575f5ffd5b6020818401019050610180818b031215612123575f5ffd5b61212b611d38565b81358152602080830135908201526040808301359082015261214f6060830161206b565b606082015261216060808301611a82565b608082015261217160a08301611a82565b60a082015261218260c08301611a82565b60c082015261219360e08301611a82565b60e08201526101008281013590820152610120808301359082015261014080830135908201526101608201356001600160401b038111156121d2575f5ffd5b6121de8c828501611db1565b6101608301525082525060408201356001600160401b03811115612200575f5ffd5b61220f8a602083860101611db1565b60208381019190915260609390930135604083015250845292830192016120b9565b5095945050505050565b5f60a0828403121561224b575f5ffd5b612253611ccc565b905061225e82611a82565b81526020828101359082015260408201356001600160401b03811115612282575f5ffd5b61228e84828501612076565b60408301525060608201356001600160401b038111156122ac575f5ffd5b6122b884828501612076565b60608301525060808201356001600160401b038111156122d6575f5ffd5b6122e284828501611db1565b60808301525092915050565b5f5f5f5f5f5f868803610140811215612305575f5ffd5b873561231081611a6e565b9650602088013561232081611a6e565b95506040880135945060a0605f198201121561233a575f5ffd5b50612343611ccc565b60608881013582526080808a0135602084015260a08a0135604084015260c08a01359183019190915260e08901359082015292506101008701356001600160401b03811115612390575f5ffd5b61239c89828a01611f48565b9250506101208701356001600160401b038111156123b8575f5ffd5b6123c489828a0161223b565b9150509295509295509295565b6001600160601b031960608a811b8216835289811b8216601484015288811b8216602884015287811b8216603c84015286811b8216605084015285811b8216606484015284901b166078820152612437608c82018360601b6001600160601b0319169052565b60a00198975050505050505050565b5f86518060208901845e606096871b6001600160601b03199081169390910192835294861b851660148301525091841b8316602883015290921b16603c820152605001919050565b5f5f5f5f5f60a086880312156124a2575f5ffd5b85356124ad81611a6e565b945060208601356124bd81611a6e565b93506040860135925060608601356001600160401b038111156124de575f5ffd5b6124ea88828901611f48565b92505060808601356001600160401b03811115612505575f5ffd5b6125118882890161223b565b9150509295509295909350565b5f6001820161252f5761252f611e3c565b5060010190565b5f60208284031215612546575f5ffd5b5051919050565b60018060a01b0381511682526020810151602083015260018060a01b03604082015116604083015260018060a01b0360608201511660608301525f608082015160a060808501528051600b81106125a6576125a6611c8a565b60a085015260208101516001600160a01b031660c08501526040810151608060e08601526125d8610120860182611b7f565b905060608201511515610100860152809250505092915050565b6004811061260257612602611c8a565b9052565b5f82825180855260208501945060208160051b830101602085015f5b8381101561273f57848303601f1901885281518051606080865281518187015260208201516080870152604082015160a087015281015161266660c08701826125f2565b5060808101516001600160a01b03811660e08701525060a08101516001600160a01b0381166101008701525060c08101516001600160a01b0381166101208701525060e08101516001600160a01b038116610140870152506101008101516101608601526101208101516101808601526101408101516101a086015261016081015190506101806101c08601526127016101e0860182611b7f565b90506020820151858203602087015261271a8282611b7f565b6040938401519690930195909552506020988901989093509190910190600101612622565b50909695505050505050565b60018060a01b038151168252602081015160208301525f604082015160a0604085015261277b60a0850182612606565b9050606083015184820360608601526127948282612606565b915050608083015184820360808601526127ae8282611b7f565b95945050505050565b60018060a01b038716815260018060a01b03861660208201528460408201528351606082015260208401516080820152604084015160a0820152606084015160c0820152608084015160e08201526101406101008201525f61281d61014083018561254d565b828103610120840152612830818561274b565b9998505050505050505050565b6001600160a01b038681168252851660208201526040810184905260a0606082018190525f9061286f9083018561254d565b8281036080840152612881818561274b565b98975050505050505050565b805160208201516001600160e01b03198116919060048210156128c4576001600160e01b0319600483900360031b81901b82161692505b5050919050565b8051611a8d81611a6e565b5f82601f8301126128e5575f5ffd5b81516128f3611dce82611d8b565b818152846020838601011115612907575f5ffd5b8160208501602083015e5f918101602001919091529392505050565b5f60a08284031215612933575f5ffd5b61293b611ccc565b9050815161294881611a6e565b815260208281015190820152604082015161296281611a6e565b6040820152606082015161297581611a6e565b606082015260808201516001600160401b03811115612992575f5ffd5b8201608081850312156129a3575f5ffd5b6129ab611cf4565b81516129b681611f2f565b815260208201516129c681611a6e565b602082015260408201516001600160401b038111156129e3575f5ffd5b6129ef868285016128d6565b6040830152506060820151915061202a82611f3b565b8051611a8d8161205f565b5f82601f830112612a1f575f5ffd5b8151612a2d611dce8261203d565b8082825260208201915060208360051b860101925085831115612a4e575f5ffd5b602085015b838110156122315780516001600160401b03811115612a70575f5ffd5b86016060818903601f19011215612a85575f5ffd5b612a8d611d16565b60208201516001600160401b03811115612aa5575f5ffd5b6020818401019050610180818b031215612abd575f5ffd5b612ac5611d38565b815181526020808301519082015260408083015190820152612ae960608301612a05565b6060820152612afa608083016128cb565b6080820152612b0b60a083016128cb565b60a0820152612b1c60c083016128cb565b60c0820152612b2d60e083016128cb565b60e08201526101008281015190820152610120808301519082015261014080830151908201526101608201516001600160401b03811115612b6c575f5ffd5b612b788c8285016128d6565b6101608301525082525060408201516001600160401b03811115612b9a575f5ffd5b612ba98a6020838601016128d6565b6020838101919091526060939093015160408301525084529283019201612a53565b5f60a08284031215612bdb575f5ffd5b612be3611ccc565b9050612bee826128cb565b81526020828101519082015260408201516001600160401b03811115612c12575f5ffd5b612c1e84828501612a10565b60408301525060608201516001600160401b03811115612c3c575f5ffd5b612c4884828501612a10565b60608301525060808201516001600160401b03811115612c66575f5ffd5b6122e2848285016128d6565b5f5f5f5f5f5f868803610140811215612c89575f5ffd5b8751612c9481611a6e565b6020890151909750612ca581611a6e565b6040890151909650945060a0605f1982011215612cc0575f5ffd5b50612cc9611ccc565b60608881015182526080808a0151602084015260a08a0151604084015260c08a01519183019190915260e0890151908201526101008801519093506001600160401b03811115612d17575f5ffd5b612d2389828a01612923565b9250506101208701516001600160401b03811115612d3f575f5ffd5b6123c489828a01612bcb565b5f5f5f60608486031215612d5d575f5ffd5b8351612d6881611a6e565b6020850151909350612d7981611a6e565b6040850151909250612d8a81611a6e565b80915050925092509256fea164736f6c634300081e000a","linkReferences":{}},"methodIdentifiers":{"PENDLE_ROUTER_V4()":"21bd8052","SUB_TYPE()":"984d6e7a","asset()":"38d52e0f","build(address,address,bytes)":"3b5896bc","decodeUsePrevHookAmount(bytes)":"e7745517","executionNonce()":"01bd43ef","getOutAmount(address)":"81cbe691","hookType()":"e445e7dd","inspect(bytes)":"8c4313c1","lastCaller()":"2113522a","postExecute(address,address,bytes)":"05b4fe91","preExecute(address,address,bytes)":"2ae2fe3d","resetExecutionState(address)":"d06a1e89","setExecutionContext(address)":"14cb37cf","setOutAmount(uint256,address)":"1f264619","spToken()":"8e148776","subtype()":"5492e677","usedShares()":"685a943c"},"id":480}