{"abi":[{"type":"constructor","inputs":[{"name":"superLedgerConfiguration_","type":"address","internalType":"address"}],"stateMutability":"nonpayable"},{"type":"function","name":"SUPER_LEDGER_CONFIGURATION","inputs":[],"outputs":[{"name":"","type":"address","internalType":"address"}],"stateMutability":"view"},{"type":"function","name":"TWAP_DURATION","inputs":[],"outputs":[{"name":"","type":"uint32","internalType":"uint32"}],"stateMutability":"view"},{"type":"function","name":"decimals","inputs":[{"name":"","type":"address","internalType":"address"}],"outputs":[{"name":"","type":"uint8","internalType":"uint8"}],"stateMutability":"pure"},{"type":"function","name":"getAssetOutput","inputs":[{"name":"market","type":"address","internalType":"address"},{"name":"","type":"address","internalType":"address"},{"name":"sharesIn","type":"uint256","internalType":"uint256"}],"outputs":[{"name":"assetsOut","type":"uint256","internalType":"uint256"}],"stateMutability":"view"},{"type":"function","name":"getAssetOutputWithFees","inputs":[{"name":"yieldSourceOracleId","type":"bytes32","internalType":"bytes32"},{"name":"yieldSourceAddress","type":"address","internalType":"address"},{"name":"assetOut","type":"address","internalType":"address"},{"name":"user","type":"address","internalType":"address"},{"name":"usedShares","type":"uint256","internalType":"uint256"}],"outputs":[{"name":"","type":"uint256","internalType":"uint256"}],"stateMutability":"view"},{"type":"function","name":"getBalanceOfOwner","inputs":[{"name":"market","type":"address","internalType":"address"},{"name":"ownerOfShares","type":"address","internalType":"address"}],"outputs":[{"name":"balance","type":"uint256","internalType":"uint256"}],"stateMutability":"view"},{"type":"function","name":"getPricePerShare","inputs":[{"name":"market","type":"address","internalType":"address"}],"outputs":[{"name":"price","type":"uint256","internalType":"uint256"}],"stateMutability":"view"},{"type":"function","name":"getPricePerShareMultiple","inputs":[{"name":"yieldSourceAddresses","type":"address[]","internalType":"address[]"}],"outputs":[{"name":"pricesPerShare","type":"uint256[]","internalType":"uint256[]"}],"stateMutability":"view"},{"type":"function","name":"getShareOutput","inputs":[{"name":"market","type":"address","internalType":"address"},{"name":"","type":"address","internalType":"address"},{"name":"assetsIn","type":"uint256","internalType":"uint256"}],"outputs":[{"name":"sharesOut","type":"uint256","internalType":"uint256"}],"stateMutability":"view"},{"type":"function","name":"getTVL","inputs":[{"name":"market","type":"address","internalType":"address"}],"outputs":[{"name":"tvl","type":"uint256","internalType":"uint256"}],"stateMutability":"view"},{"type":"function","name":"getTVLByOwnerOfShares","inputs":[{"name":"market","type":"address","internalType":"address"},{"name":"ownerOfShares","type":"address","internalType":"address"}],"outputs":[{"name":"tvl","type":"uint256","internalType":"uint256"}],"stateMutability":"view"},{"type":"function","name":"getTVLByOwnerOfSharesMultiple","inputs":[{"name":"yieldSourceAddresses","type":"address[]","internalType":"address[]"},{"name":"ownersOfShares","type":"address[][]","internalType":"address[][]"}],"outputs":[{"name":"userTvls","type":"uint256[][]","internalType":"uint256[][]"}],"stateMutability":"view"},{"type":"function","name":"getTVLMultiple","inputs":[{"name":"yieldSourceAddresses","type":"address[]","internalType":"address[]"}],"outputs":[{"name":"tvls","type":"uint256[]","internalType":"uint256[]"}],"stateMutability":"view"},{"type":"function","name":"getWithdrawalShareOutput","inputs":[{"name":"market","type":"address","internalType":"address"},{"name":"","type":"address","internalType":"address"},{"name":"assetsIn","type":"uint256","internalType":"uint256"}],"outputs":[{"name":"","type":"uint256","internalType":"uint256"}],"stateMutability":"view"},{"type":"event","name":"TwapDurationSet","inputs":[{"name":"newDuration","type":"uint32","indexed":false,"internalType":"uint32"}],"anonymous":false},{"type":"error","name":"ARRAY_LENGTH_MISMATCH","inputs":[]},{"type":"error","name":"ASSET_DECIMALS_TOO_HIGH","inputs":[]},{"type":"error","name":"INVALID_ASSET","inputs":[]},{"type":"error","name":"INVALID_BASE_ASSET","inputs":[]},{"type":"error","name":"NOT_AVAILABLE_ERC20_ON_CHAIN","inputs":[]}],"bytecode":{"object":"0x60c060405234801561000f575f5ffd5b5060405161227d38038061227d83398101604081905261002e9161007c565b6001600160a01b03811660805261038460a08190526040519081527fae45eae27fdd572bcc5daa11e5155fef7d0b5081d88a374f0580bf91bfdc29b99060200160405180910390a1506100a9565b5f6020828403121561008c575f5ffd5b81516001600160a01b03811681146100a2575f5ffd5b9392505050565b60805160a0516121a56100d85f395f81816101bf0152610bb301525f8181610180015261043001526121a55ff3fe608060405234801561000f575f5ffd5b50600436106100e5575f3560e01c8063879ac8f811610088578063cacc7b0e11610063578063cacc7b0e14610229578063d449a8321461023c578063ec422afd14610262578063fea8af5f14610275575f5ffd5b8063879ac8f8146101ba578063a7a128b4146101f6578063aa5815fd14610216575f5ffd5b806334f99b48116100c357806334f99b48146101355780634fecb266146101555780637eeb8107146101685780638717164a1461017b575f5ffd5b8063056f143c146100e95780630f40517a1461010f5780632f112c4614610122575b5f5ffd5b6100fc6100f73660046118cb565b610288565b6040519081526020015b60405180910390f35b6100fc61011d366004611909565b610377565b6100fc610130366004611924565b61040a565b610148610143366004611a56565b61066f565b6040516101069190611b34565b6100fc610163366004611bc0565b610815565b6100fc6101763660046118cb565b6108b6565b6101a27f000000000000000000000000000000000000000000000000000000000000000081565b6040516001600160a01b039091168152602001610106565b6101e17f000000000000000000000000000000000000000000000000000000000000000081565b60405163ffffffff9091168152602001610106565b610209610204366004611bf7565b610998565b6040516101069190611c29565b6100fc6102243660046118cb565b610a3a565b610209610237366004611bf7565b610b08565b61025061024a366004611909565b50601290565b60405160ff9091168152602001610106565b6100fc610270366004611909565b610ba3565b6100fc610283366004611bc0565b610bd7565b5f5f61029385610ba3565b9050805f036102a5575f915050610370565b5f6102af86610c4e565b90505f6102bb82610cba565b925050505f6102c988610d69565b6001600160a01b031663313ce5676040518163ffffffff1660e01b8152600401602060405180830381865afa158015610304573d5f5f3e3d5ffd5b505050506040513d601f19601f820116820180604052508101906103289190611c80565b90505f61033960ff84166012611cad565b61034490600a611da3565b61034e9088611dae565b90506103688161036260ff8516600a611da3565b87610dd4565b955050505050505b9392505050565b5f5f61038283610d69565b90505f816001600160a01b03166318160ddd6040518163ffffffff1660e01b8152600401602060405180830381865afa1580156103c1573d5f5f3e3d5ffd5b505050506040513d601f19601f820116820180604052508101906103e59190611dc5565b9050805f036103f757505f9392505050565b610402845f83610a3a565b949350505050565b5f5f610417868685610a3a565b604051630b47673760e41b8152600481018990529091507f00000000000000000000000000000000000000000000000000000000000000006001600160a01b03169063b47673709060240160a060405180830381865afa92505050801561049b575060408051601f3d908101601f1916820190925261049891810190611ddc565b60015b6104a6579050610666565b5f81602001511180156104c5575060808101516001600160a01b031615155b1561066257805160405163ec422afd60e01b81526001600160a01b0389811660048301525f92169063ec422afd90602401602060405180830381865afa158015610511573d5f5f3e3d5ffd5b505050506040513d601f19601f820116820180604052508101906105359190611dc5565b8251604051636a24d41960e11b81526001600160a01b038b811660048301529293505f929091169063d449a83290602401602060405180830381865afa158015610581573d5f5f3e3d5ffd5b505050506040513d601f19601f820116820180604052508101906105a59190611c80565b60808401516020850151604051633c144b4b60e21b81526001600160a01b038b811660048301528d8116602483015260448201899052606482018b9052608482019290925260a4810186905260ff841660c48201529293505f9291169063f0512d2c9060e401602060405180830381865afa158015610626573d5f5f3e3d5ffd5b505050506040513d601f19601f8201168201806040525081019061064a9190611dc5565b90506106568186611e6b565b95505050505050610666565b5090505b95945050505050565b8151815160609190811461069657604051634456f5e960e11b815260040160405180910390fd5b8067ffffffffffffffff8111156106af576106af61197b565b6040519080825280602002602001820160405280156106e257816020015b60608152602001906001900390816106cd5790505b5091505f5b8181101561080d575f85828151811061070257610702611e7e565b602002602001015190505f85838151811061071f5761071f611e7e565b602002602001015190505f815190508067ffffffffffffffff8111156107475761074761197b565b604051908082528060200260200182016040528015610770578160200160208202803683370190505b5086858151811061078357610783611e7e565b60200260200101819052505f5b818110156107fe575f6107bc858584815181106107af576107af611e7e565b6020026020010151610815565b9050808887815181106107d1576107d1611e7e565b602002602001015183815181106107ea576107ea611e7e565b602090810291909101015250600101610790565b505050508060010190506106e7565b505092915050565b5f5f61082084610d69565b6040516370a0823160e01b81526001600160a01b0385811660048301529192505f918316906370a0823190602401602060405180830381865afa158015610869573d5f5f3e3d5ffd5b505050506040513d601f19601f8201168201806040525081019061088d9190611dc5565b9050805f036108a0575f925050506108b0565b6108ab855f83610a3a565b925050505b92915050565b5f5f6108c185610ba3565b9050805f036108d3575f915050610370565b5f6108dd86610c4e565b90505f6108e982610cba565b925050505f6108f788610d69565b6001600160a01b031663313ce5676040518163ffffffff1660e01b8152600401602060405180830381865afa158015610932573d5f5f3e3d5ffd5b505050506040513d601f19601f820116820180604052508101906109569190611c80565b90505f61096760ff84166012611cad565b61097290600a611da3565b61097c9088611dae565b90506103688161099060ff8516600a611da3565b876001610e84565b80516060908067ffffffffffffffff8111156109b6576109b661197b565b6040519080825280602002602001820160405280156109df578160200160208202803683370190505b5091505f5b81811015610a3357610a0e848281518110610a0157610a01611e7e565b6020026020010151610ba3565b838281518110610a2057610a20611e7e565b60209081029190910101526001016109e4565b5050919050565b5f5f610a4585610ba3565b90505f610a5186610d69565b6001600160a01b031663313ce5676040518163ffffffff1660e01b8152600401602060405180830381865afa158015610a8c573d5f5f3e3d5ffd5b505050506040513d601f19601f82011682018060405250810190610ab09190611c80565b90505f610abc87610c4e565b90505f610ac882610cba565b925050505f610ae787868660ff16600a610ae29190611da3565b610dd4565b9050610368816001610afd60ff86166012611cad565b610ae290600a611da3565b80516060908067ffffffffffffffff811115610b2657610b2661197b565b604051908082528060200260200182016040528015610b4f578160200160208202803683370190505b5091505f5b81811015610a3357610b7e848281518110610b7157610b71611e7e565b6020026020010151610377565b838281518110610b9057610b90611e7e565b6020908102919091010152600101610b54565b5f6108b06001600160a01b0383167f0000000000000000000000000000000000000000000000000000000000000000610ec6565b5f5f610be284610d69565b6040516370a0823160e01b81526001600160a01b038581166004830152919250908216906370a0823190602401602060405180830381865afa158015610c2a573d5f5f3e3d5ffd5b505050506040513d601f19601f820116820180604052508101906104029190611dc5565b5f5f826001600160a01b0316632c8ce6bc6040518163ffffffff1660e01b8152600401606060405180830381865afa158015610c8c573d5f5f3e3d5ffd5b505050506040513d601f19601f82011682018060405250810190610cb09190611e92565b5090949350505050565b5f5f5f5f5f5f866001600160a01b031663a40bee506040518163ffffffff1660e01b8152600401606060405180830381865afa158015610cfc573d5f5f3e3d5ffd5b505050506040513d601f19601f82011682018060405250810190610d209190611edc565b92509250925060128160ff161115610d4b57604051632a9b39d360e11b815260040160405180910390fd5b826001811115610d5d57610d5d611f24565b97919650945092505050565b5f5f826001600160a01b0316632c8ce6bc6040518163ffffffff1660e01b8152600401606060405180830381865afa158015610da7573d5f5f3e3d5ffd5b505050506040513d601f19601f82011682018060405250810190610dcb9190611e92565b50949350505050565b5f5f5f610de18686610f10565b91509150815f03610e0557838181610dfb57610dfb611f38565b0492505050610370565b818411610e1c57610e1c6003851502601118610f2c565b5f848688095f868103871696879004966002600389028118808a02820302808a02820302808a02820302808a02820302808a02820302808a02909103029181900381900460010185841190960395909502919093039390930492909217029150509392505050565b5f610eb1610e9183610f3d565b8015610eac57505f8480610ea757610ea7611f38565b868809115b151590565b610ebc868686610dd4565b6106669190611e6b565b5f5f5f610ed285610f69565b91509150808210610ef057610ee7858561118c565b925050506108b0565b8082610efc878761118c565b610f069190611dae565b610ee79190611f4c565b5f805f1983850993909202808410938190039390930393915050565b634e487b715f52806020526024601cfd5b5f6002826003811115610f5257610f52611f24565b610f5c9190611f5f565b60ff166001149050919050565b5f5f5f5f846001600160a01b0316632c8ce6bc6040518163ffffffff1660e01b8152600401606060405180830381865afa158015610fa9573d5f5f3e3d5ffd5b505050506040513d601f19601f82011682018060405250810190610fcd9190611e92565b9250509150816001600160a01b0316633ba0b9a96040518163ffffffff1660e01b8152600401602060405180830381865afa15801561100e573d5f5f3e3d5ffd5b505050506040513d601f19601f820116820180604052508101906110329190611dc5565b93505f816001600160a01b031663d2a3584e6040518163ffffffff1660e01b8152600401602060405180830381865afa158015611071573d5f5f3e3d5ffd5b505050506040513d601f19601f820116820180604052508101906110959190611dc5565b9050816001600160a01b031663516399df6040518163ffffffff1660e01b8152600401602060405180830381865afa1580156110d3573d5f5f3e3d5ffd5b505050506040513d601f19601f820116820180604052508101906110f79190611f80565b801561116a575043826001600160a01b03166360e0a9e16040518163ffffffff1660e01b8152600401602060405180830381865afa15801561113b573d5f5f3e3d5ffd5b505050506040513d601f19601f8201168201806040525081019061115f9190611f9f565b6001600160801b0316145b1561117757809350611184565b6111818582611254565b93505b505050915091565b5f5f836001600160a01b031663e184c9be6040518163ffffffff1660e01b8152600401602060405180830381865afa1580156111ca573d5f5f3e3d5ffd5b505050506040513d601f19601f820116820180604052508101906111ee9190611dc5565b905042811161120857670de0b6b3a76400009150506108b0565b5f6112138585611269565b90505f6112204284611cad565b90505f6112356112308484611411565b611449565b9050611249670de0b6b3a76400008261145a565b9450505050506108b0565b5f8183116112625781610370565b5090919050565b5f8163ffffffff165f036112f6575f836001600160a01b031663c3fb90d66040518163ffffffff1660e01b815260040160c060405180830381865afa1580156112b4573d5f5f3e3d5ffd5b505050506040513d601f19601f820116820180604052508101906112d89190611fe7565b50505092505050806bffffffffffffffffffffffff169150506108b0565b6040805160028082526060820183525f9260208301908036833701905050905082815f8151811061132957611329611e7e565b63ffffffff9092166020928302919091019091015260405163883bdbfd60e01b81525f906001600160a01b0386169063883bdbfd9061136c908590600401612069565b5f60405180830381865afa158015611386573d5f5f3e3d5ffd5b505050506040513d5f823e601f3d908101601f191682016040526113ad91908101906120a6565b90508363ffffffff16815f815181106113c8576113c8611e7e565b6020026020010151826001815181106113e3576113e3611e7e565b60200260200101516113f5919061214b565b6113ff919061216a565b6001600160d81b031695945050505050565b5f806114226201518061016d611dae565b61142c8486611dae565b6114369190611f4c565b905061040261144482611488565b61149c565b5f5f821215611456575f5ffd5b5090565b5f8061146e670de0b6b3a764000085611dae565b905082818161147f5761147f611f38565b04949350505050565b5f6001600160ff1b03821115611456575f5ffd5b5f680238fd42c5cf03ffff1982121580156114c0575068070c1cc73b00c800008213155b6115035760405162461bcd60e51b815260206004820152601060248201526f125b9d985b1a5908195e1c1bdb995b9d60821b604482015260640160405180910390fd5b5f82121561153a57611516825f0361149c565b6ec097ce7bc90715b34b9f10000000008161153357611533611f38565b0592915050565b5f6806f05b59d3b2000000831261157957506806f05b59d3b1ffffff1990910190770195e54c5dd42177f53a27172fa9ec6302628270000000006115af565b6803782dace9d900000083126115ab57506803782dace9d8ffffff19909101906b1425982cf597cd205cef73806115af565b5060015b6064929092029168056bc75e2d6310000068ad78ebc5ac6200000084126115ff5768ad78ebc5ac61ffffff199093019268056bc75e2d631000006e01855144814a7ff805980ff008400082020590505b6856bc75e2d631000000841261163b576856bc75e2d630ffffff199093019268056bc75e2d631000006b02df0ab5a80a22c61ab5a70082020590505b682b5e3af16b18800000841261167557682b5e3af16b187fffff199093019268056bc75e2d63100000693f1fce3da636ea5cf85082020590505b6815af1d78b58c40000084126116af576815af1d78b58c3fffff199093019268056bc75e2d63100000690127fa27722cc06cc5e282020590505b680ad78ebc5ac620000084126116e857680ad78ebc5ac61fffff199093019268056bc75e2d6310000068280e60114edb805d0382020590505b68056bc75e2d6310000084126117215768056bc75e2d630fffff199093019268056bc75e2d63100000680ebc5fb4174612111082020590505b6802b5e3af16b1880000841261175a576802b5e3af16b187ffff199093019268056bc75e2d631000006808f00f760a4b2db55d82020590505b68015af1d78b58c4000084126117935768015af1d78b58c3ffff199093019268056bc75e2d631000006806f5f177578893793782020590505b68056bc75e2d631000008481019085906002908280020505918201919050600368056bc75e2d631000008783020505918201919050600468056bc75e2d631000008783020505918201919050600568056bc75e2d631000008783020505918201919050600668056bc75e2d631000008783020505918201919050600768056bc75e2d631000008783020505918201919050600868056bc75e2d631000008783020505918201919050600968056bc75e2d631000008783020505918201919050600a68056bc75e2d631000008783020505918201919050600b68056bc75e2d631000008783020505918201919050600c68056bc75e2d631000008783020505918201919050606468056bc75e2d63100000848402058502059695505050505050565b6001600160a01b03811681146118c8575f5ffd5b50565b5f5f5f606084860312156118dd575f5ffd5b83356118e8816118b4565b925060208401356118f8816118b4565b929592945050506040919091013590565b5f60208284031215611919575f5ffd5b8135610370816118b4565b5f5f5f5f5f60a08688031215611938575f5ffd5b85359450602086013561194a816118b4565b9350604086013561195a816118b4565b9250606086013561196a816118b4565b949793965091946080013592915050565b634e487b7160e01b5f52604160045260245ffd5b604051601f8201601f1916810167ffffffffffffffff811182821017156119b8576119b861197b565b604052919050565b5f67ffffffffffffffff8211156119d9576119d961197b565b5060051b60200190565b5f82601f8301126119f2575f5ffd5b8135611a05611a00826119c0565b61198f565b8082825260208201915060208360051b860101925085831115611a26575f5ffd5b602085015b83811015611a4c578035611a3e816118b4565b835260209283019201611a2b565b5095945050505050565b5f5f60408385031215611a67575f5ffd5b823567ffffffffffffffff811115611a7d575f5ffd5b611a89858286016119e3565b925050602083013567ffffffffffffffff811115611aa5575f5ffd5b8301601f81018513611ab5575f5ffd5b8035611ac3611a00826119c0565b8082825260208201915060208360051b850101925087831115611ae4575f5ffd5b602084015b83811015611b2557803567ffffffffffffffff811115611b07575f5ffd5b611b168a6020838901016119e3565b84525060209283019201611ae9565b50809450505050509250929050565b5f602082016020835280845180835260408501915060408160051b8601019250602086015f5b82811015611bb457868503603f19018452815180518087526020918201918701905f5b81811015611b9b578351835260209384019390920191600101611b7d565b5090965050506020938401939190910190600101611b5a565b50929695505050505050565b5f5f60408385031215611bd1575f5ffd5b8235611bdc816118b4565b91506020830135611bec816118b4565b809150509250929050565b5f60208284031215611c07575f5ffd5b813567ffffffffffffffff811115611c1d575f5ffd5b610402848285016119e3565b602080825282518282018190525f918401906040840190835b81811015611c60578351835260209384019390920191600101611c42565b509095945050505050565b805160ff81168114611c7b575f5ffd5b919050565b5f60208284031215611c90575f5ffd5b61037082611c6b565b634e487b7160e01b5f52601160045260245ffd5b818103818111156108b0576108b0611c99565b6001815b6001841115611cfb57808504811115611cdf57611cdf611c99565b6001841615611ced57908102905b60019390931c928002611cc4565b935093915050565b5f82611d11575060016108b0565b81611d1d57505f6108b0565b8160018114611d335760028114611d3d57611d59565b60019150506108b0565b60ff841115611d4e57611d4e611c99565b50506001821b6108b0565b5060208310610133831016604e8410600b8410161715611d7c575081810a6108b0565b611d885f198484611cc0565b805f1904821115611d9b57611d9b611c99565b029392505050565b5f6103708383611d03565b80820281158282048414176108b0576108b0611c99565b5f60208284031215611dd5575f5ffd5b5051919050565b5f60a0828403128015611ded575f5ffd5b5060405160a0810167ffffffffffffffff81118282101715611e1157611e1161197b565b6040528251611e1f816118b4565b8152602083810151908201526040830151611e39816118b4565b60408201526060830151611e4c816118b4565b60608201526080830151611e5f816118b4565b60808201529392505050565b808201808211156108b0576108b0611c99565b634e487b7160e01b5f52603260045260245ffd5b5f5f5f60608486031215611ea4575f5ffd5b8351611eaf816118b4565b6020850151909350611ec0816118b4565b6040850151909250611ed1816118b4565b809150509250925092565b5f5f5f60608486031215611eee575f5ffd5b835160028110611efc575f5ffd5b6020850151909350611f0d816118b4565b9150611f1b60408501611c6b565b90509250925092565b634e487b7160e01b5f52602160045260245ffd5b634e487b7160e01b5f52601260045260245ffd5b5f82611f5a57611f5a611f38565b500490565b5f60ff831680611f7157611f71611f38565b8060ff84160691505092915050565b5f60208284031215611f90575f5ffd5b81518015158114610370575f5ffd5b5f60208284031215611faf575f5ffd5b81516001600160801b0381168114610370575f5ffd5b8051600f81900b8114611c7b575f5ffd5b805161ffff81168114611c7b575f5ffd5b5f5f5f5f5f5f60c08789031215611ffc575f5ffd5b61200587611fc5565b955061201360208801611fc5565b945060408701516bffffffffffffffffffffffff81168114612033575f5ffd5b935061204160608801611fd6565b925061204f60808801611fd6565b915061205d60a08801611fd6565b90509295509295509295565b602080825282518282018190525f918401906040840190835b81811015611c6057835163ffffffff16835260209384019390920191600101612082565b5f602082840312156120b6575f5ffd5b815167ffffffffffffffff8111156120cc575f5ffd5b8201601f810184136120dc575f5ffd5b80516120ea611a00826119c0565b8082825260208201915060208360051b85010192508683111561210b575f5ffd5b6020840193505b828410156121415783516001600160d81b0381168114612130575f5ffd5b825260209384019390910190612112565b9695505050505050565b6001600160d81b0382811682821603908111156108b0576108b0611c99565b5f6001600160d81b0383168061218257612182611f38565b6001600160d81b0392909216919091049291505056fea164736f6c634300081e000a","linkReferences":{}},"methodIdentifiers":{"SUPER_LEDGER_CONFIGURATION()":"8717164a","TWAP_DURATION()":"879ac8f8","decimals(address)":"d449a832","getAssetOutput(address,address,uint256)":"aa5815fd","getAssetOutputWithFees(bytes32,address,address,address,uint256)":"2f112c46","getBalanceOfOwner(address,address)":"fea8af5f","getPricePerShare(address)":"ec422afd","getPricePerShareMultiple(address[])":"a7a128b4","getShareOutput(address,address,uint256)":"056f143c","getTVL(address)":"0f40517a","getTVLByOwnerOfShares(address,address)":"4fecb266","getTVLByOwnerOfSharesMultiple(address[],address[][])":"34f99b48","getTVLMultiple(address[])":"cacc7b0e","getWithdrawalShareOutput(address,address,uint256)":"7eeb8107"},"id":484}