{"abi":[{"type":"constructor","inputs":[],"stateMutability":"nonpayable"},{"type":"function","name":"SUB_TYPE","inputs":[],"outputs":[{"name":"","type":"bytes32","internalType":"bytes32"}],"stateMutability":"view"},{"type":"function","name":"asset","inputs":[],"outputs":[{"name":"","type":"address","internalType":"address"}],"stateMutability":"view"},{"type":"function","name":"build","inputs":[{"name":"prevHook","type":"address","internalType":"address"},{"name":"account","type":"address","internalType":"address"},{"name":"hookData","type":"bytes","internalType":"bytes"}],"outputs":[{"name":"executions","type":"tuple[]","internalType":"struct Execution[]","components":[{"name":"target","type":"address","internalType":"address"},{"name":"value","type":"uint256","internalType":"uint256"},{"name":"callData","type":"bytes","internalType":"bytes"}]}],"stateMutability":"view"},{"type":"function","name":"decodeAmount","inputs":[{"name":"data","type":"bytes","internalType":"bytes"}],"outputs":[{"name":"","type":"uint256","internalType":"uint256"}],"stateMutability":"pure"},{"type":"function","name":"decodeUsePrevHookAmount","inputs":[{"name":"data","type":"bytes","internalType":"bytes"}],"outputs":[{"name":"","type":"bool","internalType":"bool"}],"stateMutability":"pure"},{"type":"function","name":"executionNonce","inputs":[],"outputs":[{"name":"","type":"uint256","internalType":"uint256"}],"stateMutability":"view"},{"type":"function","name":"getOutAmount","inputs":[{"name":"caller","type":"address","internalType":"address"}],"outputs":[{"name":"","type":"uint256","internalType":"uint256"}],"stateMutability":"view"},{"type":"function","name":"hookType","inputs":[],"outputs":[{"name":"","type":"uint8","internalType":"enum ISuperHook.HookType"}],"stateMutability":"view"},{"type":"function","name":"inspect","inputs":[{"name":"data","type":"bytes","internalType":"bytes"}],"outputs":[{"name":"","type":"bytes","internalType":"bytes"}],"stateMutability":"pure"},{"type":"function","name":"lastCaller","inputs":[],"outputs":[{"name":"","type":"address","internalType":"address"}],"stateMutability":"view"},{"type":"function","name":"postExecute","inputs":[{"name":"prevHook","type":"address","internalType":"address"},{"name":"account","type":"address","internalType":"address"},{"name":"data","type":"bytes","internalType":"bytes"}],"outputs":[],"stateMutability":"nonpayable"},{"type":"function","name":"preExecute","inputs":[{"name":"prevHook","type":"address","internalType":"address"},{"name":"account","type":"address","internalType":"address"},{"name":"data","type":"bytes","internalType":"bytes"}],"outputs":[],"stateMutability":"nonpayable"},{"type":"function","name":"replaceCalldataAmount","inputs":[{"name":"data","type":"bytes","internalType":"bytes"},{"name":"amount","type":"uint256","internalType":"uint256"}],"outputs":[{"name":"","type":"bytes","internalType":"bytes"}],"stateMutability":"pure"},{"type":"function","name":"resetExecutionState","inputs":[{"name":"caller","type":"address","internalType":"address"}],"outputs":[],"stateMutability":"nonpayable"},{"type":"function","name":"setExecutionContext","inputs":[{"name":"caller","type":"address","internalType":"address"}],"outputs":[],"stateMutability":"nonpayable"},{"type":"function","name":"setOutAmount","inputs":[{"name":"_outAmount","type":"uint256","internalType":"uint256"},{"name":"caller","type":"address","internalType":"address"}],"outputs":[],"stateMutability":"nonpayable"},{"type":"function","name":"spToken","inputs":[],"outputs":[{"name":"","type":"address","internalType":"address"}],"stateMutability":"view"},{"type":"function","name":"subtype","inputs":[],"outputs":[{"name":"","type":"bytes32","internalType":"bytes32"}],"stateMutability":"view"},{"type":"function","name":"usedShares","inputs":[],"outputs":[{"name":"","type":"uint256","internalType":"uint256"}],"stateMutability":"view"},{"type":"error","name":"ADDRESS_NOT_VALID","inputs":[]},{"type":"error","name":"AMOUNT_NOT_VALID","inputs":[]},{"type":"error","name":"CANNOT_SET_OUT_AMOUNT","inputs":[]},{"type":"error","name":"INCOMPLETE_HOOK_EXECUTION","inputs":[]},{"type":"error","name":"NOT_AUTHORIZED","inputs":[]},{"type":"error","name":"POST_EXECUTE_ALREADY_CALLED","inputs":[]},{"type":"error","name":"PRE_EXECUTE_ALREADY_CALLED","inputs":[]},{"type":"error","name":"UNAUTHORIZED_CALLER","inputs":[]}],"bytecode":{"object":"0x60a0604052348015600e575f5ffd5b506040805180820190915260078152664552433531313560c81b6020909101525f805460ff191660021790557f16b0755429540630f2d4bfab5526bb485356bbabc307c7597c9d323a9f8780a760805260805161150261007d5f395f8181610208015261027101526115025ff3fe608060405234801561000f575f5ffd5b506004361061011c575f3560e01c80635492e677116100a9578063984d6e7a1161006e578063984d6e7a1461026c578063ac440f7214610293578063d06a1e89146102a6578063e445e7dd146102b9578063e7745517146102d2575f5ffd5b80635492e67714610206578063685a943c1461022c57806381cbe691146102345780638c4313c1146102475780638e1487761461025a575f5ffd5b80632113522a116100ef5780632113522a146101775780632ae2fe3d146101a157806338d52e0f146101b45780633a28b0ab146101c65780633b5896bc146101e6575f5ffd5b806301bd43ef1461012057806305b4fe911461013c57806314cb37cf146101515780631f26461914610164575b5f5ffd5b61012960035c81565b6040519081526020015b60405180910390f35b61014f61014a36600461114b565b6102f5565b005b61014f61015f3660046111a8565b61036f565b61014f6101723660046111c1565b610390565b6101896001600160a01b0360045c1681565b6040516001600160a01b039091168152602001610133565b61014f6101af36600461114b565b6103e9565b6101896001600160a01b0360025c1681565b6101d96101d436600461128a565b61045c565b60405161013391906112fa565b6101f96101f436600461114b565b610473565b604051610133919061130c565b7f0000000000000000000000000000000000000000000000000000000000000000610129565b6101295f5c81565b6101296102423660046111a8565b61068c565b6101d9610255366004611399565b61069e565b6101896001600160a01b0360015c1681565b6101297f000000000000000000000000000000000000000000000000000000000000000081565b6101296102a13660046113d8565b610760565b61014f6102b43660046111a8565b61076a565b5f546102c59060ff1681565b604051610133919061140a565b6102e56102e03660046113d8565b6107e7565b6040519015158152602001610133565b336001600160a01b0384161461031e5760405163e15e56c960e01b815260040160405180910390fd5b5f610328846107f3565b905061033381610806565b156103515760405163945b63f560e01b815260040160405180910390fd5b61035c816001610813565b61036885858585610829565b5050505050565b610378816108d8565b50336004805c6001600160a01b0319168217905d5050565b5f61039a826107f3565b90506103a58161090a565b806103b457506103b481610806565b156103d25760405163441e4c7360e11b815260040160405180910390fd5b5f6103de826001610913565b905083815d50505050565b336001600160a01b038416146104125760405163e15e56c960e01b815260040160405180910390fd5b5f61041c846107f3565b90506104278161090a565b1561044557604051630bbb04d960e11b815260040160405180910390fd5b610450816001610968565b61036885858585610974565b606061046a83836048610ab6565b90505b92915050565b60605f61048286868686610b4c565b9050805160026104929190611444565b67ffffffffffffffff8111156104aa576104aa6111eb565b6040519080825280602002602001820160405280156104f657816020015b60408051606080820183525f8083526020830152918101919091528152602001906001900390816104c85790505b5091506040518060600160405280306001600160a01b031681526020015f8152602001306001600160a01b0316632ae2fe3d8989898960405160240161053f9493929190611457565b604051602081830303815290604052915060e01b6020820180516001600160e01b038381831617835250505050815250825f815181106105815761058161149f565b60209081029190910101525f5b81518110156105e2578181815181106105a9576105a961149f565b6020026020010151838260016105bf9190611444565b815181106105cf576105cf61149f565b602090810291909101015260010161058e565b506040518060600160405280306001600160a01b031681526020015f8152602001306001600160a01b03166305b4fe91898989896040516024016106299493929190611457565b604051602081830303815290604052915060e01b6020820180516001600160e01b038381831617835250505050815250826001845161066891906114b3565b815181106106785761067861149f565b602002602001018190525050949350505050565b5f61046d610699836107f3565b610e50565b60606106de83838080601f0160208091040260200160405190810160405280939291908181526020018383808284375f92019190915250610e5d92505050565b61071f84848080601f0160208091040260200160405190810160405280939291908181526020018383808284375f9201919091525060349250610e65915050565b6040516bffffffffffffffffffffffff19606093841b811660208301529190921b166034820152604801604051602081830303815290604052905092915050565b5f61046d82610ece565b336001600160a01b0360045c16146107955760405163e15e56c960e01b815260040160405180910390fd5b5f61079f826107f3565b90506107aa8161090a565b15806107bc57506107ba81610806565b155b156107da57604051634bd439b560e11b815260040160405180910390fd5b6107e381610eda565b5050565b5f61046d826088610ef1565b5f5f6107fe83610f1d565b5c9392505050565b5f5f6107fe836003610913565b5f61081f836003610913565b905081815d505050565b6108846108358461068c565b6108748585858080601f0160208091040260200160405190810160405280939291908181526020018383808284375f92019190915250610f8992505050565b61087e91906114b3565b84610ff7565b6108c38383838080601f0160208091040260200160405190810160405280939291908181526020018383808284375f9201919091525061100f92505050565b6108ce905f5c6114b3565b805f5d5050505050565b5f6003805c90826108e8836114c6565b9190505d505f6108f783610f1d565b905060035c80825d505060035c92915050565b5f5f6107fe8360025b604080517fc41a07c57a776f6217c6d4278dfe7a5d114742afe55627ce458c2802aa4d703460208083019190915281830194909452606080820193909352815180820390930183526080019052805191012090565b5f61081f836002610913565b6109b582828080601f0160208091040260200160405190810160405280939291908181526020018383808284375f9201919091525060349250610e65915050565b6002805c6001600160a01b0319166001600160a01b03831617905d50610a1361087e8484848080601f0160208091040260200160405190810160405280939291908181526020018383808284375f92019190915250610f8992505050565b610a528383838080601f0160208091040260200160405190810160405280939291908181526020018383808284375f9201919091525061100f92505050565b805f5d50610a9482828080601f0160208091040260200160405190810160405280939291908181526020018383808284375f92019190915250610e5d92505050565b6001805c6001600160a01b0319166001600160a01b03831617905d5050505050565b60605f83604051602001610acc91815260200190565b60405160208183030381529060405290505f5b6020811015610b4257818181518110610afa57610afa61149f565b01602001516001600160f81b03191686610b148387611444565b81518110610b2457610b2461149f565b60200101906001600160f81b03191690815f1a905350600101610adf565b5093949350505050565b60605f610b8d84848080601f0160208091040260200160405190810160405280939291908181526020018383808284375f92019190915250610e5d92505050565b90505f610bd185858080601f0160208091040260200160405190810160405280939291908181526020018383808284375f9201919091525060349250610e65915050565b90505f610c1286868080601f0160208091040260200160405190810160405280939291908181526020018383808284375f92019190915250610ece92505050565b90505f610c5687878080601f0160208091040260200160405190810160405280939291908181526020018383808284375f920191909152506068925061108e915050565b90505f610c9a88888080601f0160208091040260200160405190810160405280939291908181526020018383808284375f9201919091525060889250610ef1915050565b90508015610d0d576040516381cbe69160e01b81526001600160a01b038a811660048301528b16906381cbe69190602401602060405180830381865afa158015610ce6573d5f5f3e3d5ffd5b505050506040513d601f19601f82011682018060405250810190610d0a91906114de565b92505b825f03610d2d576040516305112ab160e41b815260040160405180910390fd5b6001600160a01b0385161580610d4a57506001600160a01b038416155b15610d6857604051630f58648f60e01b815260040160405180910390fd5b60408051600180825281830190925290816020015b60408051606080820183525f808352602083015291810191909152815260200190600190039081610d7d57905050604080516060810182526001600160a01b0380891682525f6020830181905283518e831660248201526044810189905291891660648301526084820187905260a4820152929850919082019060c40160408051601f198184030181529190526020810180516001600160e01b031663769f8e5d60e01b1790529052865187905f90610e3857610e3861149f565b60200260200101819052505050505050949350505050565b5f5f6107fe836001610913565b5f61046d8260205b5f610e71826014611444565b83511015610ebe5760405162461bcd60e51b8152602060048201526015602482015274746f416464726573735f6f75744f66426f756e647360581b60448201526064015b60405180910390fd5b500160200151600160601b900490565b5f61046d82604861108e565b610ee4815f610968565b610eee815f610813565b50565b5f828281518110610f0457610f0461149f565b01602001516001600160f81b0319161515905092915050565b5f7f8ce092d4869bdfa1a1ce579ddddb2b776c39ace5d7b5d7e70e97ece2a78f4f9b82604051602001610f6c92919091825260601b6bffffffffffffffffffffffff1916602082015260340190565b604051602081830303815290604052805190602001209050919050565b6040516370a0823160e01b81526001600160a01b0383811660048301525f9160025c909116906370a0823190602401602060405180830381865afa158015610fd3573d5f5f3e3d5ffd5b505050506040513d601f19601f8201168201806040525081019061046a91906114de565b5f611001826107f3565b90505f6103de826001610913565b5f5f61101a83610e5d565b6040516370a0823160e01b81526001600160a01b038681166004830152919250908216906370a0823190602401602060405180830381865afa158015611062573d5f5f3e3d5ffd5b505050506040513d601f19601f8201168201806040525081019061108691906114de565b949350505050565b5f61109a826020611444565b835110156110e25760405162461bcd60e51b8152602060048201526015602482015274746f55696e743235365f6f75744f66426f756e647360581b6044820152606401610eb5565b50016020015190565b80356001600160a01b0381168114611101575f5ffd5b919050565b5f5f83601f840112611116575f5ffd5b50813567ffffffffffffffff81111561112d575f5ffd5b602083019150836020828501011115611144575f5ffd5b9250929050565b5f5f5f5f6060858703121561115e575f5ffd5b611167856110eb565b9350611175602086016110eb565b9250604085013567ffffffffffffffff811115611190575f5ffd5b61119c87828801611106565b95989497509550505050565b5f602082840312156111b8575f5ffd5b61046a826110eb565b5f5f604083850312156111d2575f5ffd5b823591506111e2602084016110eb565b90509250929050565b634e487b7160e01b5f52604160045260245ffd5b5f82601f83011261120e575f5ffd5b813567ffffffffffffffff811115611228576112286111eb565b604051601f8201601f19908116603f0116810167ffffffffffffffff81118282101715611257576112576111eb565b60405281815283820160200185101561126e575f5ffd5b816020850160208301375f918101602001919091529392505050565b5f5f6040838503121561129b575f5ffd5b823567ffffffffffffffff8111156112b1575f5ffd5b6112bd858286016111ff565b95602094909401359450505050565b5f81518084528060208401602086015e5f602082860101526020601f19601f83011685010191505092915050565b602081525f61046a60208301846112cc565b5f602082016020835280845180835260408501915060408160051b8601019250602086015f5b8281101561138d57868503603f19018452815180516001600160a01b0316865260208082015190870152604090810151606091870182905290611377908701826112cc565b9550506020938401939190910190600101611332565b50929695505050505050565b5f5f602083850312156113aa575f5ffd5b823567ffffffffffffffff8111156113c0575f5ffd5b6113cc85828601611106565b90969095509350505050565b5f602082840312156113e8575f5ffd5b813567ffffffffffffffff8111156113fe575f5ffd5b611086848285016111ff565b602081016003831061142a57634e487b7160e01b5f52602160045260245ffd5b91905290565b634e487b7160e01b5f52601160045260245ffd5b8082018082111561046d5761046d611430565b6001600160a01b038581168252841660208201526060604082018190528101829052818360808301375f818301608090810191909152601f909201601f191601019392505050565b634e487b7160e01b5f52603260045260245ffd5b8181038181111561046d5761046d611430565b5f600182016114d7576114d7611430565b5060010190565b5f602082840312156114ee575f5ffd5b505191905056fea164736f6c634300081e000a","linkReferences":{}},"methodIdentifiers":{"SUB_TYPE()":"984d6e7a","asset()":"38d52e0f","build(address,address,bytes)":"3b5896bc","decodeAmount(bytes)":"ac440f72","decodeUsePrevHookAmount(bytes)":"e7745517","executionNonce()":"01bd43ef","getOutAmount(address)":"81cbe691","hookType()":"e445e7dd","inspect(bytes)":"8c4313c1","lastCaller()":"2113522a","postExecute(address,address,bytes)":"05b4fe91","preExecute(address,address,bytes)":"2ae2fe3d","replaceCalldataAmount(bytes,uint256)":"3a28b0ab","resetExecutionState(address)":"d06a1e89","setExecutionContext(address)":"14cb37cf","setOutAmount(uint256,address)":"1f264619","spToken()":"8e148776","subtype()":"5492e677","usedShares()":"685a943c"},"id":396}