{"abi":[{"type":"constructor","inputs":[],"stateMutability":"nonpayable"},{"type":"function","name":"SUB_TYPE","inputs":[],"outputs":[{"name":"","type":"bytes32","internalType":"bytes32"}],"stateMutability":"view"},{"type":"function","name":"asset","inputs":[],"outputs":[{"name":"","type":"address","internalType":"address"}],"stateMutability":"view"},{"type":"function","name":"build","inputs":[{"name":"prevHook","type":"address","internalType":"address"},{"name":"account","type":"address","internalType":"address"},{"name":"hookData","type":"bytes","internalType":"bytes"}],"outputs":[{"name":"executions","type":"tuple[]","internalType":"struct Execution[]","components":[{"name":"target","type":"address","internalType":"address"},{"name":"value","type":"uint256","internalType":"uint256"},{"name":"callData","type":"bytes","internalType":"bytes"}]}],"stateMutability":"view"},{"type":"function","name":"decodeAmount","inputs":[{"name":"data","type":"bytes","internalType":"bytes"}],"outputs":[{"name":"","type":"uint256","internalType":"uint256"}],"stateMutability":"pure"},{"type":"function","name":"decodeUsePrevHookAmount","inputs":[{"name":"data","type":"bytes","internalType":"bytes"}],"outputs":[{"name":"","type":"bool","internalType":"bool"}],"stateMutability":"pure"},{"type":"function","name":"executionNonce","inputs":[],"outputs":[{"name":"","type":"uint256","internalType":"uint256"}],"stateMutability":"view"},{"type":"function","name":"getOutAmount","inputs":[{"name":"caller","type":"address","internalType":"address"}],"outputs":[{"name":"","type":"uint256","internalType":"uint256"}],"stateMutability":"view"},{"type":"function","name":"hookType","inputs":[],"outputs":[{"name":"","type":"uint8","internalType":"enum ISuperHook.HookType"}],"stateMutability":"view"},{"type":"function","name":"inspect","inputs":[{"name":"data","type":"bytes","internalType":"bytes"}],"outputs":[{"name":"","type":"bytes","internalType":"bytes"}],"stateMutability":"pure"},{"type":"function","name":"isAsyncCancelHook","inputs":[],"outputs":[{"name":"","type":"uint8","internalType":"enum ISuperHookAsyncCancelations.CancelationType"}],"stateMutability":"pure"},{"type":"function","name":"lastCaller","inputs":[],"outputs":[{"name":"","type":"address","internalType":"address"}],"stateMutability":"view"},{"type":"function","name":"postExecute","inputs":[{"name":"prevHook","type":"address","internalType":"address"},{"name":"account","type":"address","internalType":"address"},{"name":"data","type":"bytes","internalType":"bytes"}],"outputs":[],"stateMutability":"nonpayable"},{"type":"function","name":"preExecute","inputs":[{"name":"prevHook","type":"address","internalType":"address"},{"name":"account","type":"address","internalType":"address"},{"name":"data","type":"bytes","internalType":"bytes"}],"outputs":[],"stateMutability":"nonpayable"},{"type":"function","name":"resetExecutionState","inputs":[{"name":"caller","type":"address","internalType":"address"}],"outputs":[],"stateMutability":"nonpayable"},{"type":"function","name":"setExecutionContext","inputs":[{"name":"caller","type":"address","internalType":"address"}],"outputs":[],"stateMutability":"nonpayable"},{"type":"function","name":"setOutAmount","inputs":[{"name":"_outAmount","type":"uint256","internalType":"uint256"},{"name":"caller","type":"address","internalType":"address"}],"outputs":[],"stateMutability":"nonpayable"},{"type":"function","name":"spToken","inputs":[],"outputs":[{"name":"","type":"address","internalType":"address"}],"stateMutability":"view"},{"type":"function","name":"subtype","inputs":[],"outputs":[{"name":"","type":"bytes32","internalType":"bytes32"}],"stateMutability":"view"},{"type":"function","name":"usedShares","inputs":[],"outputs":[{"name":"","type":"uint256","internalType":"uint256"}],"stateMutability":"view"},{"type":"error","name":"ADDRESS_NOT_VALID","inputs":[]},{"type":"error","name":"AMOUNT_NOT_VALID","inputs":[]},{"type":"error","name":"CANNOT_SET_OUT_AMOUNT","inputs":[]},{"type":"error","name":"INCOMPLETE_HOOK_EXECUTION","inputs":[]},{"type":"error","name":"NOT_AUTHORIZED","inputs":[]},{"type":"error","name":"POST_EXECUTE_ALREADY_CALLED","inputs":[]},{"type":"error","name":"PRE_EXECUTE_ALREADY_CALLED","inputs":[]},{"type":"error","name":"UNAUTHORIZED_CALLER","inputs":[]}],"bytecode":{"object":"0x60a0604052348015600e575f5ffd5b506040805180820190915260078152660455243373534360cc1b6020909101525f805460ff191690557fc518a1d423df5aa415a8180f6384c181bd18f2bc1b734ba3dd52cd98b9b5fb776080526080516111ec61007a5f395f81816101f7015261026d01526111ec5ff3fe608060405234801561000f575f5ffd5b506004361061011c575f3560e01c80635492e677116100a9578063984d6e7a1161006e578063984d6e7a14610268578063ac440f721461028f578063d06a1e89146102a2578063e445e7dd146102b5578063e7745517146102c1575f5ffd5b80635492e677146101f5578063685a943c1461021b57806381cbe691146102235780638c4313c1146102365780638e14877614610256575f5ffd5b80631f264619116100ef5780631f264619146101735780632113522a146101865780632ae2fe3d146101b057806338d52e0f146101c35780633b5896bc146101d5575f5ffd5b806301bd43ef1461012057806305b4fe911461013c57806308c189f91461015157806314cb37cf14610160575b5f5ffd5b61012960035c81565b6040519081526020015b60405180910390f35b61014f61014a366004610e53565b6102e4565b005b5f5b6040516101339190610ed0565b61014f61016e366004610ee3565b61035e565b61014f610181366004610efe565b61037f565b6101986001600160a01b0360045c1681565b6040516001600160a01b039091168152602001610133565b61014f6101be366004610e53565b6103d8565b6101986001600160a01b0360025c1681565b6101e86101e3366004610e53565b61044b565b6040516101339190610f5a565b7f0000000000000000000000000000000000000000000000000000000000000000610129565b6101295f5c81565b610129610231366004610ee3565b610664565b610249610244366004610fe7565b61067c565b6040516101339190611026565b6101986001600160a01b0360015c1681565b6101297f000000000000000000000000000000000000000000000000000000000000000081565b61012961029d36600461104c565b6106fb565b61014f6102b0366004610ee3565b610705565b5f546101539060ff1681565b6102d46102cf36600461104c565b610782565b6040519015158152602001610133565b336001600160a01b0384161461030d5760405163e15e56c960e01b815260040160405180910390fd5b5f6103178461078e565b9050610322816107a1565b156103405760405163945b63f560e01b815260040160405180910390fd5b61034b8160016107ae565b610357858585856107c4565b5050505050565b61036781610825565b50336004805c6001600160a01b0319168217905d5050565b5f6103898261078e565b905061039481610857565b806103a357506103a3816107a1565b156103c15760405163441e4c7360e11b815260040160405180910390fd5b5f6103cd826001610860565b905083815d50505050565b336001600160a01b038416146104015760405163e15e56c960e01b815260040160405180910390fd5b5f61040b8461078e565b905061041681610857565b1561043457604051630bbb04d960e11b815260040160405180910390fd5b61043f8160016108b5565b610357858585856108c1565b60605f61045a86868686610903565b90508051600261046a9190611113565b67ffffffffffffffff81111561048257610482611038565b6040519080825280602002602001820160405280156104ce57816020015b60408051606080820183525f8083526020830152918101919091528152602001906001900390816104a05790505b5091506040518060600160405280306001600160a01b031681526020015f8152602001306001600160a01b0316632ae2fe3d898989896040516024016105179493929190611126565b604051602081830303815290604052915060e01b6020820180516001600160e01b038381831617835250505050815250825f815181106105595761055961116e565b60209081029190910101525f5b81518110156105ba578181815181106105815761058161116e565b6020026020010151838260016105979190611113565b815181106105a7576105a761116e565b6020908102919091010152600101610566565b506040518060600160405280306001600160a01b031681526020015f8152602001306001600160a01b03166305b4fe91898989896040516024016106019493929190611126565b604051602081830303815290604052915060e01b6020820180516001600160e01b03838183161783525050505081525082600184516106409190611182565b815181106106505761065061116e565b602002602001018190525050949350505050565b5f6106766106718361078e565b610b6e565b92915050565b60606106bc83838080601f0160208091040260200160405190810160405280939291908181526020018383808284375f92019190915250610b7b92505050565b6040516020016106e4919060609190911b6bffffffffffffffffffffffff1916815260140190565b604051602081830303815290604052905092915050565b5f61067682610b87565b336001600160a01b0360045c16146107305760405163e15e56c960e01b815260040160405180910390fd5b5f61073a8261078e565b905061074581610857565b15806107575750610755816107a1565b155b1561077557604051634bd439b560e11b815260040160405180910390fd5b61077e81610b93565b5050565b5f610676826054610baa565b5f5f61079983610bd6565b5c9392505050565b5f5f610799836003610860565b5f6107ba836003610860565b905081815d505050565b61081f6108068484848080601f0160208091040260200160405190810160405280939291908181526020018383808284375f92019190915250610c4292505050565b61080f85610664565b6108199190611182565b84610d1c565b50505050565b5f6003805c908261083583611195565b9190505d505f61084483610bd6565b905060035c80825d505060035c92915050565b5f5f6107998360025b604080517fc41a07c57a776f6217c6d4278dfe7a5d114742afe55627ce458c2802aa4d703460208083019190915281830194909452606080820193909352815180820390930183526080019052805191012090565b5f6107ba836002610860565b61081f6108198484848080601f0160208091040260200160405190810160405280939291908181526020018383808284375f92019190915250610c4292505050565b60605f61094484848080601f0160208091040260200160405190810160405280939291908181526020018383808284375f92019190915250610b7b92505050565b90505f61098585858080601f0160208091040260200160405190810160405280939291908181526020018383808284375f92019190915250610b8792505050565b90505f6109c986868080601f0160208091040260200160405190810160405280939291908181526020018383808284375f9201919091525060549250610baa915050565b90508015610a3c576040516381cbe69160e01b81526001600160a01b0388811660048301528916906381cbe69190602401602060405180830381865afa158015610a15573d5f5f3e3d5ffd5b505050506040513d601f19601f82011682018060405250810190610a3991906111ad565b91505b815f03610a5c576040516305112ab160e41b815260040160405180910390fd5b6001600160a01b0383161580610a7957506001600160a01b038716155b15610a9757604051630f58648f60e01b815260040160405180910390fd5b60408051600180825281830190925290816020015b60408051606080820183525f808352602083015291810191909152815260200190600190039081610aac57905050604080516060810182526001600160a01b0380871682525f6020830152825160248101879052908b16604482018190526064820152929650919082019060840160408051601f198184030181529190526020810180516001600160e01b0316633ea0e43760e11b1790529052845185905f90610b5857610b5861116e565b6020026020010181905250505050949350505050565b5f5f610799836001610860565b5f610676826020610d34565b5f610676826034610d9d565b610b9d815f6108b5565b610ba7815f6107ae565b50565b5f828281518110610bbd57610bbd61116e565b01602001516001600160f81b0319161515905092915050565b5f7f8ce092d4869bdfa1a1ce579ddddb2b776c39ace5d7b5d7e70e97ece2a78f4f9b82604051602001610c2592919091825260601b6bffffffffffffffffffffffff1916602082015260340190565b604051602081830303815290604052805190602001209050919050565b5f610c4c82610b7b565b6001600160a01b031663a8d5fd656040518163ffffffff1660e01b8152600401602060405180830381865afa158015610c87573d5f5f3e3d5ffd5b505050506040513d601f19601f82011682018060405250810190610cab91906111c4565b6040516370a0823160e01b81526001600160a01b03858116600483015291909116906370a0823190602401602060405180830381865afa158015610cf1573d5f5f3e3d5ffd5b505050506040513d601f19601f82011682018060405250810190610d1591906111ad565b9392505050565b5f610d268261078e565b90505f6103cd826001610860565b5f610d40826014611113565b83511015610d8d5760405162461bcd60e51b8152602060048201526015602482015274746f416464726573735f6f75744f66426f756e647360581b60448201526064015b60405180910390fd5b500160200151600160601b900490565b5f610da9826020611113565b83511015610df15760405162461bcd60e51b8152602060048201526015602482015274746f55696e743235365f6f75744f66426f756e647360581b6044820152606401610d84565b50016020015190565b6001600160a01b0381168114610ba7575f5ffd5b5f5f83601f840112610e1e575f5ffd5b50813567ffffffffffffffff811115610e35575f5ffd5b602083019150836020828501011115610e4c575f5ffd5b9250929050565b5f5f5f5f60608587031215610e66575f5ffd5b8435610e7181610dfa565b93506020850135610e8181610dfa565b9250604085013567ffffffffffffffff811115610e9c575f5ffd5b610ea887828801610e0e565b95989497509550505050565b60038110610ba757634e487b7160e01b5f52602160045260245ffd5b60208101610edd83610eb4565b91905290565b5f60208284031215610ef3575f5ffd5b8135610d1581610dfa565b5f5f60408385031215610f0f575f5ffd5b823591506020830135610f2181610dfa565b809150509250929050565b5f81518084528060208401602086015e5f602082860101526020601f19601f83011685010191505092915050565b5f602082016020835280845180835260408501915060408160051b8601019250602086015f5b82811015610fdb57868503603f19018452815180516001600160a01b0316865260208082015190870152604090810151606091870182905290610fc590870182610f2c565b9550506020938401939190910190600101610f80565b50929695505050505050565b5f5f60208385031215610ff8575f5ffd5b823567ffffffffffffffff81111561100e575f5ffd5b61101a85828601610e0e565b90969095509350505050565b602081525f610d156020830184610f2c565b634e487b7160e01b5f52604160045260245ffd5b5f6020828403121561105c575f5ffd5b813567ffffffffffffffff811115611072575f5ffd5b8201601f81018413611082575f5ffd5b803567ffffffffffffffff81111561109c5761109c611038565b604051601f8201601f19908116603f0116810167ffffffffffffffff811182821017156110cb576110cb611038565b6040528181528282016020018610156110e2575f5ffd5b816020840160208301375f91810160200191909152949350505050565b634e487b7160e01b5f52601160045260245ffd5b80820180821115610676576106766110ff565b6001600160a01b038581168252841660208201526060604082018190528101829052818360808301375f818301608090810191909152601f909201601f191601019392505050565b634e487b7160e01b5f52603260045260245ffd5b81810381811115610676576106766110ff565b5f600182016111a6576111a66110ff565b5060010190565b5f602082840312156111bd575f5ffd5b5051919050565b5f602082840312156111d4575f5ffd5b8151610d1581610dfa56fea164736f6c634300081e000a","linkReferences":{}},"methodIdentifiers":{"SUB_TYPE()":"984d6e7a","asset()":"38d52e0f","build(address,address,bytes)":"3b5896bc","decodeAmount(bytes)":"ac440f72","decodeUsePrevHookAmount(bytes)":"e7745517","executionNonce()":"01bd43ef","getOutAmount(address)":"81cbe691","hookType()":"e445e7dd","inspect(bytes)":"8c4313c1","isAsyncCancelHook()":"08c189f9","lastCaller()":"2113522a","postExecute(address,address,bytes)":"05b4fe91","preExecute(address,address,bytes)":"2ae2fe3d","resetExecutionState(address)":"d06a1e89","setExecutionContext(address)":"14cb37cf","setOutAmount(uint256,address)":"1f264619","spToken()":"8e148776","subtype()":"5492e677","usedShares()":"685a943c"},"id":519}