{"abi":[{"type":"constructor","inputs":[{"name":"superLedgerConfiguration_","type":"address","internalType":"address"}],"stateMutability":"nonpayable"},{"type":"function","name":"SUPER_LEDGER_CONFIGURATION","inputs":[],"outputs":[{"name":"","type":"address","internalType":"address"}],"stateMutability":"view"},{"type":"function","name":"decimals","inputs":[{"name":"ptAddress","type":"address","internalType":"address"}],"outputs":[{"name":"","type":"uint8","internalType":"uint8"}],"stateMutability":"view"},{"type":"function","name":"getAssetOutput","inputs":[{"name":"ptAddress","type":"address","internalType":"address"},{"name":"","type":"address","internalType":"address"},{"name":"sharesIn","type":"uint256","internalType":"uint256"}],"outputs":[{"name":"","type":"uint256","internalType":"uint256"}],"stateMutability":"view"},{"type":"function","name":"getAssetOutputWithFees","inputs":[{"name":"yieldSourceOracleId","type":"bytes32","internalType":"bytes32"},{"name":"yieldSourceAddress","type":"address","internalType":"address"},{"name":"assetOut","type":"address","internalType":"address"},{"name":"user","type":"address","internalType":"address"},{"name":"usedShares","type":"uint256","internalType":"uint256"}],"outputs":[{"name":"","type":"uint256","internalType":"uint256"}],"stateMutability":"view"},{"type":"function","name":"getBalanceOfOwner","inputs":[{"name":"ptAddress","type":"address","internalType":"address"},{"name":"ownerOfShares","type":"address","internalType":"address"}],"outputs":[{"name":"","type":"uint256","internalType":"uint256"}],"stateMutability":"view"},{"type":"function","name":"getPricePerShare","inputs":[{"name":"ptAddress","type":"address","internalType":"address"}],"outputs":[{"name":"","type":"uint256","internalType":"uint256"}],"stateMutability":"view"},{"type":"function","name":"getPricePerShareMultiple","inputs":[{"name":"yieldSourceAddresses","type":"address[]","internalType":"address[]"}],"outputs":[{"name":"pricesPerShare","type":"uint256[]","internalType":"uint256[]"}],"stateMutability":"view"},{"type":"function","name":"getShareOutput","inputs":[{"name":"ptAddress","type":"address","internalType":"address"},{"name":"","type":"address","internalType":"address"},{"name":"assetsIn","type":"uint256","internalType":"uint256"}],"outputs":[{"name":"","type":"uint256","internalType":"uint256"}],"stateMutability":"view"},{"type":"function","name":"getTVL","inputs":[{"name":"ptAddress","type":"address","internalType":"address"}],"outputs":[{"name":"","type":"uint256","internalType":"uint256"}],"stateMutability":"view"},{"type":"function","name":"getTVLByOwnerOfShares","inputs":[{"name":"ptAddress","type":"address","internalType":"address"},{"name":"ownerOfShares","type":"address","internalType":"address"}],"outputs":[{"name":"","type":"uint256","internalType":"uint256"}],"stateMutability":"view"},{"type":"function","name":"getTVLByOwnerOfSharesMultiple","inputs":[{"name":"yieldSourceAddresses","type":"address[]","internalType":"address[]"},{"name":"ownersOfShares","type":"address[][]","internalType":"address[][]"}],"outputs":[{"name":"userTvls","type":"uint256[][]","internalType":"uint256[][]"}],"stateMutability":"view"},{"type":"function","name":"getTVLMultiple","inputs":[{"name":"yieldSourceAddresses","type":"address[]","internalType":"address[]"}],"outputs":[{"name":"tvls","type":"uint256[]","internalType":"uint256[]"}],"stateMutability":"view"},{"type":"error","name":"ARRAY_LENGTH_MISMATCH","inputs":[]},{"type":"error","name":"INVALID_BASE_ASSET","inputs":[]}],"bytecode":{"object":"0x60a0604052348015600e575f5ffd5b50604051611058380380611058833981016040819052602b91603b565b6001600160a01b03166080526066565b5f60208284031215604a575f5ffd5b81516001600160a01b0381168114605f575f5ffd5b9392505050565b608051610fd36100855f395f818161013901526103030152610fd35ff3fe608060405234801561000f575f5ffd5b50600436106100b1575f3560e01c8063a7a128b41161006e578063a7a128b414610173578063aa5815fd14610193578063cacc7b0e146101a6578063d449a832146101b9578063ec422afd146101de578063fea8af5f146101f1575f5ffd5b8063056f143c146100b55780630f40517a146100db5780632f112c46146100ee57806334f99b48146101015780634fecb266146101215780638717164a14610134575b5f5ffd5b6100c86100c3366004610a34565b610204565b6040519081526020015b60405180910390f35b6100c86100e9366004610a72565b610276565b6100c86100fc366004610a8d565b6102dd565b61011461010f366004610bbf565b610542565b6040516100d29190610c9d565b6100c861012f366004610d29565b6106e8565b61015b7f000000000000000000000000000000000000000000000000000000000000000081565b6040516001600160a01b0390911681526020016100d2565b610186610181366004610d60565b61076f565b6040516100d29190610d92565b6100c86101a1366004610a34565b610811565b6101866101b4366004610d60565b610840565b6101cc6101c7366004610a72565b6108db565b60405160ff90911681526020016100d2565b6100c86101ec366004610a72565b6108e5565b6100c86101ff366004610d29565b61096e565b6040516325a8d87d60e01b8152600481018290525f906001600160a01b038516906325a8d87d906024015b602060405180830381865afa15801561024a573d5f5f3e3d5ffd5b505050506040513d601f19601f8201168201806040525081019061026e9190610dd4565b949350505050565b5f816001600160a01b03166301e1d1146040518163ffffffff1660e01b8152600401602060405180830381865afa1580156102b3573d5f5f3e3d5ffd5b505050506040513d601f19601f820116820180604052508101906102d79190610dd4565b92915050565b5f5f6102ea868685610811565b604051630b47673760e41b8152600481018990529091507f00000000000000000000000000000000000000000000000000000000000000006001600160a01b03169063b47673709060240160a060405180830381865afa92505050801561036e575060408051601f3d908101601f1916820190925261036b91810190610deb565b60015b610379579050610539565b5f8160200151118015610398575060808101516001600160a01b031615155b1561053557805160405163ec422afd60e01b81526001600160a01b0389811660048301525f92169063ec422afd90602401602060405180830381865afa1580156103e4573d5f5f3e3d5ffd5b505050506040513d601f19601f820116820180604052508101906104089190610dd4565b8251604051636a24d41960e11b81526001600160a01b038b811660048301529293505f929091169063d449a83290602401602060405180830381865afa158015610454573d5f5f3e3d5ffd5b505050506040513d601f19601f820116820180604052508101906104789190610e7a565b60808401516020850151604051633c144b4b60e21b81526001600160a01b038b811660048301528d8116602483015260448201899052606482018b9052608482019290925260a4810186905260ff841660c48201529293505f9291169063f0512d2c9060e401602060405180830381865afa1580156104f9573d5f5f3e3d5ffd5b505050506040513d601f19601f8201168201806040525081019061051d9190610dd4565b90506105298186610eae565b95505050505050610539565b5090505b95945050505050565b8151815160609190811461056957604051634456f5e960e11b815260040160405180910390fd5b8067ffffffffffffffff81111561058257610582610ae4565b6040519080825280602002602001820160405280156105b557816020015b60608152602001906001900390816105a05790505b5091505f5b818110156106e0575f8582815181106105d5576105d5610ec1565b602002602001015190505f8583815181106105f2576105f2610ec1565b602002602001015190505f815190508067ffffffffffffffff81111561061a5761061a610ae4565b604051908082528060200260200182016040528015610643578160200160208202803683370190505b5086858151811061065657610656610ec1565b60200260200101819052505f5b818110156106d1575f61068f8585848151811061068257610682610ec1565b60200260200101516106e8565b9050808887815181106106a4576106a4610ec1565b602002602001015183815181106106bd576106bd610ec1565b602090810291909101015250600101610663565b505050508060010190506105ba565b505092915050565b5f82816106f58285610975565b9050805f03610708575f925050506102d7565b604051631dc7f52160e01b8152600481018290526001600160a01b03831690631dc7f52190602401602060405180830381865afa15801561074b573d5f5f3e3d5ffd5b505050506040513d601f19601f820116820180604052508101906105399190610dd4565b80516060908067ffffffffffffffff81111561078d5761078d610ae4565b6040519080825280602002602001820160405280156107b6578160200160208202803683370190505b5091505f5b8181101561080a576107e58482815181106107d8576107d8610ec1565b60200260200101516108e5565b8382815181106107f7576107f7610ec1565b60209081029190910101526001016107bb565b5050919050565b604051631dc7f52160e01b8152600481018290525f906001600160a01b03851690631dc7f5219060240161022f565b80516060908067ffffffffffffffff81111561085e5761085e610ae4565b604051908082528060200260200182016040528015610887578160200160208202803683370190505b5091505f5b8181101561080a576108b68482815181106108a9576108a9610ec1565b6020026020010151610276565b8382815181106108c8576108c8610ec1565b602090810291909101015260010161088c565b5f6102d7826109bc565b5f816001600160a01b038116631dc7f5216108ff836109bc565b61090a90600a610fb8565b6040518263ffffffff1660e01b815260040161092891815260200190565b602060405180830381865afa158015610943573d5f5f3e3d5ffd5b505050506040513d601f19601f820116820180604052508101906109679190610dd4565b9392505050565b5f61096783835b6040516370a0823160e01b81526001600160a01b0382811660048301525f91908416906370a0823190602401602060405180830381865afa158015610943573d5f5f3e3d5ffd5b5f816001600160a01b031663313ce5676040518163ffffffff1660e01b8152600401602060405180830381865afa1580156109f9573d5f5f3e3d5ffd5b505050506040513d601f19601f820116820180604052508101906102d79190610e7a565b6001600160a01b0381168114610a31575f5ffd5b50565b5f5f5f60608486031215610a46575f5ffd5b8335610a5181610a1d565b92506020840135610a6181610a1d565b929592945050506040919091013590565b5f60208284031215610a82575f5ffd5b813561096781610a1d565b5f5f5f5f5f60a08688031215610aa1575f5ffd5b853594506020860135610ab381610a1d565b93506040860135610ac381610a1d565b92506060860135610ad381610a1d565b949793965091946080013592915050565b634e487b7160e01b5f52604160045260245ffd5b604051601f8201601f1916810167ffffffffffffffff81118282101715610b2157610b21610ae4565b604052919050565b5f67ffffffffffffffff821115610b4257610b42610ae4565b5060051b60200190565b5f82601f830112610b5b575f5ffd5b8135610b6e610b6982610b29565b610af8565b8082825260208201915060208360051b860101925085831115610b8f575f5ffd5b602085015b83811015610bb5578035610ba781610a1d565b835260209283019201610b94565b5095945050505050565b5f5f60408385031215610bd0575f5ffd5b823567ffffffffffffffff811115610be6575f5ffd5b610bf285828601610b4c565b925050602083013567ffffffffffffffff811115610c0e575f5ffd5b8301601f81018513610c1e575f5ffd5b8035610c2c610b6982610b29565b8082825260208201915060208360051b850101925087831115610c4d575f5ffd5b602084015b83811015610c8e57803567ffffffffffffffff811115610c70575f5ffd5b610c7f8a602083890101610b4c565b84525060209283019201610c52565b50809450505050509250929050565b5f602082016020835280845180835260408501915060408160051b8601019250602086015f5b82811015610d1d57868503603f19018452815180518087526020918201918701905f5b81811015610d04578351835260209384019390920191600101610ce6565b5090965050506020938401939190910190600101610cc3565b50929695505050505050565b5f5f60408385031215610d3a575f5ffd5b8235610d4581610a1d565b91506020830135610d5581610a1d565b809150509250929050565b5f60208284031215610d70575f5ffd5b813567ffffffffffffffff811115610d86575f5ffd5b61026e84828501610b4c565b602080825282518282018190525f918401906040840190835b81811015610dc9578351835260209384019390920191600101610dab565b509095945050505050565b5f60208284031215610de4575f5ffd5b5051919050565b5f60a0828403128015610dfc575f5ffd5b5060405160a0810167ffffffffffffffff81118282101715610e2057610e20610ae4565b6040528251610e2e81610a1d565b8152602083810151908201526040830151610e4881610a1d565b60408201526060830151610e5b81610a1d565b60608201526080830151610e6e81610a1d565b60808201529392505050565b5f60208284031215610e8a575f5ffd5b815160ff81168114610967575f5ffd5b634e487b7160e01b5f52601160045260245ffd5b808201808211156102d7576102d7610e9a565b634e487b7160e01b5f52603260045260245ffd5b6001815b6001841115610f1057808504811115610ef457610ef4610e9a565b6001841615610f0257908102905b60019390931c928002610ed9565b935093915050565b5f82610f26575060016102d7565b81610f3257505f6102d7565b8160018114610f485760028114610f5257610f6e565b60019150506102d7565b60ff841115610f6357610f63610e9a565b50506001821b6102d7565b5060208310610133831016604e8410600b8410161715610f91575081810a6102d7565b610f9d5f198484610ed5565b805f1904821115610fb057610fb0610e9a565b029392505050565b5f61096760ff841683610f1856fea164736f6c634300081e000a","linkReferences":{}},"methodIdentifiers":{"SUPER_LEDGER_CONFIGURATION()":"8717164a","decimals(address)":"d449a832","getAssetOutput(address,address,uint256)":"aa5815fd","getAssetOutputWithFees(bytes32,address,address,address,uint256)":"2f112c46","getBalanceOfOwner(address,address)":"fea8af5f","getPricePerShare(address)":"ec422afd","getPricePerShareMultiple(address[])":"a7a128b4","getShareOutput(address,address,uint256)":"056f143c","getTVL(address)":"0f40517a","getTVLByOwnerOfShares(address,address)":"4fecb266","getTVLByOwnerOfSharesMultiple(address[],address[][])":"34f99b48","getTVLMultiple(address[])":"cacc7b0e"},"id":453}