{"abi":[{"type":"constructor","inputs":[{"name":"superLedgerConfiguration_","type":"address","internalType":"address"}],"stateMutability":"nonpayable"},{"type":"function","name":"SUPER_LEDGER_CONFIGURATION","inputs":[],"outputs":[{"name":"","type":"address","internalType":"address"}],"stateMutability":"view"},{"type":"function","name":"decimals","inputs":[{"name":"","type":"address","internalType":"address"}],"outputs":[{"name":"","type":"uint8","internalType":"uint8"}],"stateMutability":"pure"},{"type":"function","name":"getAssetOutput","inputs":[{"name":"","type":"address","internalType":"address"},{"name":"","type":"address","internalType":"address"},{"name":"sharesIn","type":"uint256","internalType":"uint256"}],"outputs":[{"name":"","type":"uint256","internalType":"uint256"}],"stateMutability":"pure"},{"type":"function","name":"getAssetOutputWithFees","inputs":[{"name":"yieldSourceOracleId","type":"bytes32","internalType":"bytes32"},{"name":"yieldSourceAddress","type":"address","internalType":"address"},{"name":"assetOut","type":"address","internalType":"address"},{"name":"user","type":"address","internalType":"address"},{"name":"usedShares","type":"uint256","internalType":"uint256"}],"outputs":[{"name":"","type":"uint256","internalType":"uint256"}],"stateMutability":"view"},{"type":"function","name":"getBalanceOfOwner","inputs":[{"name":"yieldSourceAddress","type":"address","internalType":"address"},{"name":"ownerOfShares","type":"address","internalType":"address"}],"outputs":[{"name":"","type":"uint256","internalType":"uint256"}],"stateMutability":"view"},{"type":"function","name":"getPricePerShare","inputs":[{"name":"","type":"address","internalType":"address"}],"outputs":[{"name":"","type":"uint256","internalType":"uint256"}],"stateMutability":"pure"},{"type":"function","name":"getPricePerShareMultiple","inputs":[{"name":"yieldSourceAddresses","type":"address[]","internalType":"address[]"}],"outputs":[{"name":"pricesPerShare","type":"uint256[]","internalType":"uint256[]"}],"stateMutability":"view"},{"type":"function","name":"getShareOutput","inputs":[{"name":"","type":"address","internalType":"address"},{"name":"","type":"address","internalType":"address"},{"name":"assetsIn","type":"uint256","internalType":"uint256"}],"outputs":[{"name":"","type":"uint256","internalType":"uint256"}],"stateMutability":"pure"},{"type":"function","name":"getTVL","inputs":[{"name":"yieldSourceAddress","type":"address","internalType":"address"}],"outputs":[{"name":"","type":"uint256","internalType":"uint256"}],"stateMutability":"view"},{"type":"function","name":"getTVLByOwnerOfShares","inputs":[{"name":"yieldSourceAddress","type":"address","internalType":"address"},{"name":"ownerOfShares","type":"address","internalType":"address"}],"outputs":[{"name":"","type":"uint256","internalType":"uint256"}],"stateMutability":"view"},{"type":"function","name":"getTVLByOwnerOfSharesMultiple","inputs":[{"name":"yieldSourceAddresses","type":"address[]","internalType":"address[]"},{"name":"ownersOfShares","type":"address[][]","internalType":"address[][]"}],"outputs":[{"name":"userTvls","type":"uint256[][]","internalType":"uint256[][]"}],"stateMutability":"view"},{"type":"function","name":"getTVLMultiple","inputs":[{"name":"yieldSourceAddresses","type":"address[]","internalType":"address[]"}],"outputs":[{"name":"tvls","type":"uint256[]","internalType":"uint256[]"}],"stateMutability":"view"},{"type":"error","name":"ARRAY_LENGTH_MISMATCH","inputs":[]},{"type":"error","name":"INVALID_BASE_ASSET","inputs":[]}],"bytecode":{"object":"0x60a0604052348015600e575f5ffd5b50604051610d45380380610d45833981016040819052602b91603b565b6001600160a01b03166080526066565b5f60208284031215604a575f5ffd5b81516001600160a01b0381168114605f575f5ffd5b9392505050565b608051610cc06100855f395f818161013a01526102650152610cc05ff3fe608060405234801561000f575f5ffd5b50600436106100b1575f3560e01c8063a7a128b41161006e578063a7a128b414610174578063aa5815fd146100b5578063cacc7b0e14610194578063d449a832146101a7578063ec422afd146101cd578063fea8af5f14610122575f5ffd5b8063056f143c146100b55780630f40517a146100dc5780632f112c46146100ef57806334f99b48146101025780634fecb266146101225780638717164a14610135575b5f5ffd5b6100c96100c3366004610812565b92915050565b6040519081526020015b60405180910390f35b6100c96100ea366004610850565b6101e8565b6100c96100fd36600461086b565b610249565b61011561011036600461099d565b6104a4565b6040516100d39190610a7b565b6100c9610130366004610b07565b61064a565b61015c7f000000000000000000000000000000000000000000000000000000000000000081565b6040516001600160a01b0390911681526020016100d3565b610187610182366004610b3e565b6106bc565b6040516100d39190610b78565b6101876101a2366004610b3e565b610760565b6101bb6101b5366004610850565b50601290565b60405160ff90911681526020016100d3565b6100c96101db366004610850565b50670de0b6b3a764000090565b5f816001600160a01b03166318160ddd6040518163ffffffff1660e01b8152600401602060405180830381865afa158015610225573d5f5f3e3d5ffd5b505050506040513d601f19601f820116820180604052508101906100c39190610bba565b5f8082604051630b47673760e41b8152600481018990529091507f00000000000000000000000000000000000000000000000000000000000000006001600160a01b03169063b47673709060240160a060405180830381865afa9250505080156102d0575060408051601f3d908101601f191682019092526102cd91810190610bd1565b60015b6102db57905061049b565b5f81602001511180156102fa575060808101516001600160a01b031615155b1561049757805160405163ec422afd60e01b81526001600160a01b0389811660048301525f92169063ec422afd90602401602060405180830381865afa158015610346573d5f5f3e3d5ffd5b505050506040513d601f19601f8201168201806040525081019061036a9190610bba565b8251604051636a24d41960e11b81526001600160a01b038b811660048301529293505f929091169063d449a83290602401602060405180830381865afa1580156103b6573d5f5f3e3d5ffd5b505050506040513d601f19601f820116820180604052508101906103da9190610c60565b60808401516020850151604051633c144b4b60e21b81526001600160a01b038b811660048301528d8116602483015260448201899052606482018b9052608482019290925260a4810186905260ff841660c48201529293505f9291169063f0512d2c9060e401602060405180830381865afa15801561045b573d5f5f3e3d5ffd5b505050506040513d601f19601f8201168201806040525081019061047f9190610bba565b905061048b8186610c80565b9550505050505061049b565b5090505b95945050505050565b815181516060919081146104cb57604051634456f5e960e11b815260040160405180910390fd5b8067ffffffffffffffff8111156104e4576104e46108c2565b60405190808252806020026020018201604052801561051757816020015b60608152602001906001900390816105025790505b5091505f5b81811015610642575f85828151811061053757610537610c9f565b602002602001015190505f85838151811061055457610554610c9f565b602002602001015190505f815190508067ffffffffffffffff81111561057c5761057c6108c2565b6040519080825280602002602001820160405280156105a5578160200160208202803683370190505b508685815181106105b8576105b8610c9f565b60200260200101819052505f5b81811015610633575f6105f1858584815181106105e4576105e4610c9f565b602002602001015161064a565b90508088878151811061060657610606610c9f565b6020026020010151838151811061061f5761061f610c9f565b6020908102919091010152506001016105c5565b5050505080600101905061051c565b505092915050565b6040516370a0823160e01b81526001600160a01b0382811660048301525f91908416906370a0823190602401602060405180830381865afa158015610691573d5f5f3e3d5ffd5b505050506040513d601f19601f820116820180604052508101906106b59190610bba565b9392505050565b80516060908067ffffffffffffffff8111156106da576106da6108c2565b604051908082528060200260200182016040528015610703578160200160208202803683370190505b5091505f5b818110156107595761073484828151811061072557610725610c9f565b50670de0b6b3a7640000919050565b83828151811061074657610746610c9f565b6020908102919091010152600101610708565b5050919050565b80516060908067ffffffffffffffff81111561077e5761077e6108c2565b6040519080825280602002602001820160405280156107a7578160200160208202803683370190505b5091505f5b81811015610759576107d68482815181106107c9576107c9610c9f565b60200260200101516101e8565b8382815181106107e8576107e8610c9f565b60209081029190910101526001016107ac565b6001600160a01b038116811461080f575f5ffd5b50565b5f5f5f60608486031215610824575f5ffd5b833561082f816107fb565b9250602084013561083f816107fb565b929592945050506040919091013590565b5f60208284031215610860575f5ffd5b81356106b5816107fb565b5f5f5f5f5f60a0868803121561087f575f5ffd5b853594506020860135610891816107fb565b935060408601356108a1816107fb565b925060608601356108b1816107fb565b949793965091946080013592915050565b634e487b7160e01b5f52604160045260245ffd5b604051601f8201601f1916810167ffffffffffffffff811182821017156108ff576108ff6108c2565b604052919050565b5f67ffffffffffffffff821115610920576109206108c2565b5060051b60200190565b5f82601f830112610939575f5ffd5b813561094c61094782610907565b6108d6565b8082825260208201915060208360051b86010192508583111561096d575f5ffd5b602085015b83811015610993578035610985816107fb565b835260209283019201610972565b5095945050505050565b5f5f604083850312156109ae575f5ffd5b823567ffffffffffffffff8111156109c4575f5ffd5b6109d08582860161092a565b925050602083013567ffffffffffffffff8111156109ec575f5ffd5b8301601f810185136109fc575f5ffd5b8035610a0a61094782610907565b8082825260208201915060208360051b850101925087831115610a2b575f5ffd5b602084015b83811015610a6c57803567ffffffffffffffff811115610a4e575f5ffd5b610a5d8a60208389010161092a565b84525060209283019201610a30565b50809450505050509250929050565b5f602082016020835280845180835260408501915060408160051b8601019250602086015f5b82811015610afb57868503603f19018452815180518087526020918201918701905f5b81811015610ae2578351835260209384019390920191600101610ac4565b5090965050506020938401939190910190600101610aa1565b50929695505050505050565b5f5f60408385031215610b18575f5ffd5b8235610b23816107fb565b91506020830135610b33816107fb565b809150509250929050565b5f60208284031215610b4e575f5ffd5b813567ffffffffffffffff811115610b64575f5ffd5b610b708482850161092a565b949350505050565b602080825282518282018190525f918401906040840190835b81811015610baf578351835260209384019390920191600101610b91565b509095945050505050565b5f60208284031215610bca575f5ffd5b5051919050565b5f60a0828403128015610be2575f5ffd5b5060405160a0810167ffffffffffffffff81118282101715610c0657610c066108c2565b6040528251610c14816107fb565b8152602083810151908201526040830151610c2e816107fb565b60408201526060830151610c41816107fb565b60608201526080830151610c54816107fb565b60808201529392505050565b5f60208284031215610c70575f5ffd5b815160ff811681146106b5575f5ffd5b808201808211156100c357634e487b7160e01b5f52601160045260245ffd5b634e487b7160e01b5f52603260045260245ffdfea164736f6c634300081e000a","linkReferences":{}},"methodIdentifiers":{"SUPER_LEDGER_CONFIGURATION()":"8717164a","decimals(address)":"d449a832","getAssetOutput(address,address,uint256)":"aa5815fd","getAssetOutputWithFees(bytes32,address,address,address,uint256)":"2f112c46","getBalanceOfOwner(address,address)":"fea8af5f","getPricePerShare(address)":"ec422afd","getPricePerShareMultiple(address[])":"a7a128b4","getShareOutput(address,address,uint256)":"056f143c","getTVL(address)":"0f40517a","getTVLByOwnerOfShares(address,address)":"4fecb266","getTVLByOwnerOfSharesMultiple(address[],address[][])":"34f99b48","getTVLMultiple(address[])":"cacc7b0e"},"id":455}