{"abi":[{"type":"constructor","inputs":[{"name":"ledgerConfiguration_","type":"address","internalType":"address"},{"name":"superDestinationValidator_","type":"address","internalType":"address"}],"stateMutability":"nonpayable"},{"type":"function","name":"SUPER_DESTINATION_VALIDATOR","inputs":[],"outputs":[{"name":"","type":"address","internalType":"address"}],"stateMutability":"view"},{"type":"function","name":"execute","inputs":[{"name":"data","type":"bytes","internalType":"bytes"}],"outputs":[],"stateMutability":"nonpayable"},{"type":"function","name":"isInitialized","inputs":[{"name":"account","type":"address","internalType":"address"}],"outputs":[{"name":"","type":"bool","internalType":"bool"}],"stateMutability":"view"},{"type":"function","name":"isMerkleRootUsed","inputs":[{"name":"user","type":"address","internalType":"address"},{"name":"merkleRoot","type":"bytes32","internalType":"bytes32"}],"outputs":[{"name":"","type":"bool","internalType":"bool"}],"stateMutability":"view"},{"type":"function","name":"isModuleType","inputs":[{"name":"typeID","type":"uint256","internalType":"uint256"}],"outputs":[{"name":"","type":"bool","internalType":"bool"}],"stateMutability":"pure"},{"type":"function","name":"ledgerConfiguration","inputs":[],"outputs":[{"name":"","type":"address","internalType":"contract ISuperLedgerConfiguration"}],"stateMutability":"view"},{"type":"function","name":"markRootsAsUsed","inputs":[{"name":"roots","type":"bytes32[]","internalType":"bytes32[]"}],"outputs":[],"stateMutability":"nonpayable"},{"type":"function","name":"name","inputs":[],"outputs":[{"name":"","type":"string","internalType":"string"}],"stateMutability":"pure"},{"type":"function","name":"onInstall","inputs":[{"name":"","type":"bytes","internalType":"bytes"}],"outputs":[],"stateMutability":"nonpayable"},{"type":"function","name":"onUninstall","inputs":[{"name":"","type":"bytes","internalType":"bytes"}],"outputs":[],"stateMutability":"nonpayable"},{"type":"function","name":"processBridgedExecution","inputs":[{"name":"","type":"address","internalType":"address"},{"name":"account","type":"address","internalType":"address"},{"name":"dstTokens","type":"address[]","internalType":"address[]"},{"name":"intentAmounts","type":"uint256[]","internalType":"uint256[]"},{"name":"initData","type":"bytes","internalType":"bytes"},{"name":"executorCalldata","type":"bytes","internalType":"bytes"},{"name":"userSignatureData","type":"bytes","internalType":"bytes"}],"outputs":[],"stateMutability":"nonpayable"},{"type":"function","name":"usedMerkleRoots","inputs":[{"name":"user","type":"address","internalType":"address"},{"name":"merkleRoot","type":"bytes32","internalType":"bytes32"}],"outputs":[{"name":"used","type":"bool","internalType":"bool"}],"stateMutability":"view"},{"type":"function","name":"validateHookCompliance","inputs":[{"name":"hook","type":"address","internalType":"address"},{"name":"prevHook","type":"address","internalType":"address"},{"name":"account","type":"address","internalType":"address"},{"name":"hookData","type":"bytes","internalType":"bytes"}],"outputs":[{"name":"","type":"tuple[]","internalType":"struct Execution[]","components":[{"name":"target","type":"address","internalType":"address"},{"name":"value","type":"uint256","internalType":"uint256"},{"name":"callData","type":"bytes","internalType":"bytes"}]}],"stateMutability":"view"},{"type":"function","name":"version","inputs":[],"outputs":[{"name":"","type":"string","internalType":"string"}],"stateMutability":"pure"},{"type":"event","name":"AccountCreated","inputs":[{"name":"account","type":"address","indexed":true,"internalType":"address"},{"name":"salt","type":"bytes32","indexed":false,"internalType":"bytes32"}],"anonymous":false},{"type":"event","name":"SuperDestinationExecutorExecuted","inputs":[{"name":"account","type":"address","indexed":true,"internalType":"address"}],"anonymous":false},{"type":"event","name":"SuperDestinationExecutorInvalidIntentAmount","inputs":[{"name":"account","type":"address","indexed":true,"internalType":"address"},{"name":"token","type":"address","indexed":true,"internalType":"address"},{"name":"intentAmount","type":"uint256","indexed":false,"internalType":"uint256"}],"anonymous":false},{"type":"event","name":"SuperDestinationExecutorMarkRootsAsUsed","inputs":[{"name":"account","type":"address","indexed":true,"internalType":"address"},{"name":"roots","type":"bytes32[]","indexed":false,"internalType":"bytes32[]"}],"anonymous":false},{"type":"event","name":"SuperDestinationExecutorReceivedButNoHooks","inputs":[{"name":"account","type":"address","indexed":true,"internalType":"address"}],"anonymous":false},{"type":"event","name":"SuperDestinationExecutorReceivedButNotEnoughBalance","inputs":[{"name":"account","type":"address","indexed":true,"internalType":"address"},{"name":"token","type":"address","indexed":true,"internalType":"address"},{"name":"intentAmount","type":"uint256","indexed":false,"internalType":"uint256"},{"name":"available","type":"uint256","indexed":false,"internalType":"uint256"}],"anonymous":false},{"type":"event","name":"SuperDestinationExecutorReceivedButRootUsedAlready","inputs":[{"name":"account","type":"address","indexed":true,"internalType":"address"},{"name":"root","type":"bytes32","indexed":true,"internalType":"bytes32"}],"anonymous":false},{"type":"event","name":"SuperPositionMintRequested","inputs":[{"name":"account","type":"address","indexed":true,"internalType":"address"},{"name":"spToken","type":"address","indexed":true,"internalType":"address"},{"name":"amount","type":"uint256","indexed":false,"internalType":"uint256"},{"name":"dstChainId","type":"uint256","indexed":true,"internalType":"uint256"}],"anonymous":false},{"type":"error","name":"ACCOUNT_NOT_CREATED","inputs":[]},{"type":"error","name":"ADDRESS_NOT_ACCOUNT","inputs":[]},{"type":"error","name":"ADDRESS_NOT_VALID","inputs":[]},{"type":"error","name":"ALREADY_INITIALIZED","inputs":[]},{"type":"error","name":"ARRAY_LENGTH_MISMATCH","inputs":[]},{"type":"error","name":"FEE_NOT_TRANSFERRED","inputs":[]},{"type":"error","name":"FIRST_HOOK_CANNOT_USE_PREVIOUS_AMOUNT","inputs":[]},{"type":"error","name":"INSUFFICIENT_BALANCE_FOR_FEE","inputs":[]},{"type":"error","name":"INVALID_ACCOUNT","inputs":[]},{"type":"error","name":"INVALID_CALLER","inputs":[]},{"type":"error","name":"INVALID_CHAIN_ID","inputs":[]},{"type":"error","name":"INVALID_FEE","inputs":[]},{"type":"error","name":"INVALID_SIGNATURE","inputs":[]},{"type":"error","name":"INVALID_YIELD_SOURCE_ORACLE_ID","inputs":[]},{"type":"error","name":"LENGTH_MISMATCH","inputs":[]},{"type":"error","name":"MALICIOUS_HOOK_DETECTED","inputs":[]},{"type":"error","name":"MANAGER_NOT_SET","inputs":[]},{"type":"error","name":"MERKLE_ROOT_ALREADY_USED","inputs":[]},{"type":"error","name":"ModuleAlreadyInitialized","inputs":[{"name":"smartAccount","type":"address","internalType":"address"}]},{"type":"error","name":"NOT_AUTHORIZED","inputs":[]},{"type":"error","name":"NOT_INITIALIZED","inputs":[]},{"type":"error","name":"NO_HOOKS","inputs":[]},{"type":"error","name":"NotInitialized","inputs":[{"name":"smartAccount","type":"address","internalType":"address"}]},{"type":"error","name":"ReentrancyGuardReentrantCall","inputs":[]},{"type":"error","name":"SENDER_CREATOR_NOT_VALID","inputs":[]}],"bytecode":{"object":"0x60c060405234801561000f575f5ffd5b50604051612e91380380612e9183398101604081905261002e916100b4565b60015f55816001600160a01b03811661005a57604051630f58648f60e01b815260040160405180910390fd5b6001600160a01b03908116608052811661008757604051630f58648f60e01b815260040160405180910390fd5b6001600160a01b031660a052506100e5565b80516001600160a01b03811681146100af575f5ffd5b919050565b5f5f604083850312156100c5575f5ffd5b6100ce83610099565b91506100dc60208401610099565b90509250929050565b60805160a051612d7d6101145f395f81816101b2015261074e01525f81816101f101526114640152612d7d5ff3fe608060405234801561000f575f5ffd5b50600436106100e5575f3560e01c80636d61fe7011610088578063a5c08d3d11610063578063a5c08d3d14610266578063d60b347f14610279578063ecd05961146102a4578063ed71d9d1146102b8575f5ffd5b80636d61fe70146102135780638a91b0e314610226578063a5b6f20814610239575f5ffd5b80634a03fda4116100c35780634a03fda41461016c57806354fd4d501461018c5780635a0ed186146101ad5780636740419b146101ec575f5ffd5b806306fdde03146100e957806309c5eabe14610134578063244cd76714610149575b5f5ffd5b60408051808201909152601881527f537570657244657374696e6174696f6e4578656375746f72000000000000000060208201525b60405161012b9190611d1f565b60405180910390f35b610147610142366004611d31565b6102cb565b005b61015c610157366004611dc4565b610313565b604051901515815260200161012b565b61017f61017a366004611f16565b610340565b60405161012b9190611f86565b604080518082019091526005815264302e302e3160d81b602082015261011e565b6101d47f000000000000000000000000000000000000000000000000000000000000000081565b6040516001600160a01b03909116815260200161012b565b6101d47f000000000000000000000000000000000000000000000000000000000000000081565b610147610221366004611d31565b6105a2565b610147610234366004611d31565b6105f2565b61015c610247366004611dc4565b600260209081525f928352604080842090915290825290205460ff1681565b610147610274366004612035565b61063b565b61015c6102873660046120c5565b6001600160a01b03165f9081526001602052604090205460ff1690565b61015c6102b23660046120e0565b60021490565b6101476102c63660046121c0565b6106e3565b335f9081526001602052604090205460ff166102fa57604051630f68fe6360e21b815260040160405180910390fd5b61030f3361030a838501856122be565b6109f9565b5050565b6001600160a01b0382165f90815260026020908152604080832084845290915290205460ff165b92915050565b604080515f808252602082019092526060919081610387565b60408051606080820183525f8083526020830152918101919091528152602001906001900390816103595790505b5090505f866001600160a01b0316633b5896bc8787876040518463ffffffff1660e01b81526004016103bb939291906123cc565b5f60405180830381865afa1580156103d5573d5f5f3e3d5ffd5b505050506040513d5f823e601f3d908101601f191682016040526103fc919081019061244f565b90506002815110156104105750905061059a565b866001600160a01b0316815f8151811061042c5761042c612553565b60200260200101515f01516001600160a01b03161461044d5750905061059a565b5f815f8151811061046057610460612553565b60200260200101516040015161047590612567565b90506001600160e01b03198116632ae2fe3d60e01b1461049a5782935050505061059a565b5f600183516104a991906125b9565b9050886001600160a01b03168382815181106104c7576104c7612553565b60200260200101515f01516001600160a01b0316146104ec578394505050505061059a565b5f8382815181106104ff576104ff612553565b60200260200101516040015161051490612567565b90506001600160e01b031981166305b4fe9160e01b1461053b57849550505050505061059a565b60015b82811015610591578a6001600160a01b031685828151811061056257610562612553565b60200260200101515f01516001600160a01b0316036105895785965050505050505061059a565b60010161053e565b50929450505050505b949350505050565b335f9081526001602052604090205460ff16156105d25760405163439a74c960e01b815260040160405180910390fd5b5050335f908152600160208190526040909120805460ff19169091179055565b335f9081526001602052604090205460ff1661062157604051630f68fe6360e21b815260040160405180910390fd5b5050335f908152600160205260409020805460ff19169055565b80515f5b8181101561069d57335f90815260026020526040812084516001929086908590811061066d5761066d612553565b60209081029190910181015182528101919091526040015f20805460ff191691151591909117905560010161063f565b50336001600160a01b03167f2a2e76694cfe1777579407d33b992a385876cdac566ec14689232edd2425d40e836040516106d791906125cc565b60405180910390a25050565b84518451811461070657604051634456f5e960e11b815260040160405180910390fd5b6107108785610b23565b96505f61071c83610bc4565b90505f84468a308b8b60405160200161073a96959493929190612648565b60405160208183030381529060405290505f7f00000000000000000000000000000000000000000000000000000000000000006001600160a01b0316635c2ec0f38b878560405160200161078f9291906126e4565b6040516020818303038152906040526040518363ffffffff1660e01b81526004016107bb929190612708565b602060405180830381865afa1580156107d6573d5f5f3e3d5ffd5b505050506040513d601f19601f820116820180604052508101906107fa919061272b565b90506001600160e01b03198116635c2ec0f360e01b1461082d57604051631468054760e31b815260040160405180910390fd5b6108388a8a8a610be8565b61084557505050506109f0565b6001600160a01b038a165f90815260026020908152604080832086845290915290205460ff16156108ae5760405183906001600160a01b038c16907fc85a4c9cf6ceb3da81d38c466e43c8b89a7f2857440772a73d2189d718b57841905f90a3505050506109f0565b6001600160a01b038a165f9081526002602090815260408083208684529091529020805460ff191660011790556108e486610e04565b15610925576040516001600160a01b038b16907fb159537e384a9a796d3957f8a925c701e1a32cb359781d4b26ac895b02125f78905f90a2505050506109f0565b6040805160018082528183019092525f91816020015b60408051606080820183525f80835260208301529181019190915281526020019060019003908161093b5790505090506040518060600160405280306001600160a01b031681526020015f815260200188815250815f815181106109a1576109a1612553565b60200260200101819052506109b68b82610e48565b506040516001600160a01b038c16907f98f6e69f6c380877e68c669d19d23a062e9e5a9c18103278c08537aae6fd825e905f90a250505050505b50505050505050565b8051515f819003610a1d57604051632c4df46b60e11b815260040160405180910390fd5b8160200151518114610a425760405163899ef10d60e01b815260040160405180910390fd5b5f5f5f5b83811015610b1b578451805182908110610a6257610a62612553565b60200260200101519150805f03610abe575f610a9b8387602001518481518110610a8e57610a8e612553565b6020026020010151610ed5565b90508015610abc5760405163020ee8b160e31b815260040160405180910390fd5b505b6001600160a01b038216610ae557604051630f58648f60e01b815260040160405180910390fd5b610b0e86838588602001518581518110610b0157610b01612553565b6020026020010151610f4e565b9091508190600101610a46565b505050505050565b5f5f8251118015610b3c57506001600160a01b0383163b155b15610b81575f610b4b836110e5565b9050806001600160a01b0316846001600160a01b031614610b7f5760405163d248522760e01b815260040160405180910390fd5b505b6001600160a01b0383161580610b9f57506001600160a01b0383163b155b15610bbd5760405163526a392d60e01b815260040160405180910390fd5b5090919050565b5f5f82806020019051810190610bda9190612a4d565b509198975050505050505050565b81515f90815b81811015610df6575f858281518110610c0957610c09612553565b602002602001015190505f858381518110610c2657610c26612553565b60200260200101519050805f03610c9057816001600160a01b0316886001600160a01b03167ffe3e30b591c8199a91f575b16b49e2d2b7d947c4e1490f570b41f1aa448decb883604051610c7c91815260200190565b60405180910390a35f945050505050610dfd565b6001600160a01b038216610d07578015801590610cb6575080886001600160a01b031631105b15610d0257604080518281526001600160a01b038a8116803160208401529085169290917f2a147d47d8d7c5f6b2c7eebb350802ba5ed6008e8eb811f40b78d2090b329c869101610c7c565b610dec565b6040516370a0823160e01b81526001600160a01b0389811660048301525f91908416906370a0823190602401602060405180830381865afa158015610d4e573d5f5f3e3d5ffd5b505050506040513d601f19601f82011682018060405250810190610d729190612b1d565b90508115801590610d8257508181105b15610dea57826001600160a01b0316896001600160a01b03167f2a147d47d8d7c5f6b2c7eebb350802ba5ed6008e8eb811f40b78d2090b329c868484604051610dd5929190918252602082015260400190565b60405180910390a35f95505050505050610dfd565b505b5050600101610bee565b5060019150505b9392505050565b5f5f610e12835f60046111cc565b610e1b90612567565b90506001600160e01b031981166304e2f55f60e11b14610e3e5750600192915050565b50505160e4101590565b60605f610e5b600160f81b8280806112d6565b9050836001600160a01b031663d691c96482610e7686611340565b6040518363ffffffff1660e01b8152600401610e93929190612b34565b5f604051808303815f875af1158015610eae573d5f5f3e3d5ffd5b505050506040513d5f823e601f3d908101601f1916820160405261059a9190810190612b4c565b60405163e774551760e01b81525f906001600160a01b0384169063e774551790610f03908590600401611d1f565b602060405180830381865afa925050508015610f3c575060408051601f3d908101601f19168201909252610f3991810190612bf0565b60015b610f4757505f61033a565b905061033a565b610f56611369565b5f610f6384848785610340565b905080515f03610f865760405163addfcd9d60e01b815260040160405180910390fd5b6040516314cb37cf60e01b81526001600160a01b0386811660048301528516906314cb37cf906024015f604051808303815f87803b158015610fc6575f5ffd5b505af1158015610fd8573d5f5f3e3d5ffd5b50505050610fe68582610e48565b505f846001600160a01b0316632113522a6040518163ffffffff1660e01b8152600401602060405180830381865afa158015611024573d5f5f3e3d5ffd5b505050506040513d601f19601f820116820180604052508101906110489190612c0f565b90506001600160a01b0381163014611073576040516306a8611160e11b815260040160405180910390fd5b60405163d06a1e8960e01b81526001600160a01b03878116600483015286169063d06a1e89906024015f604051808303815f87803b1580156110b3575f5ffd5b505af11580156110c5573d5f5f3e3d5ffd5b505050506110d4868685611391565b50506110df60015f55565b50505050565b5f5f6110f1835f6118bb565b90506001600160a01b03811661111a57604051630f58648f60e01b815260040160405180910390fd5b806001600160a01b03163b5f036111445760405163f7b0af8560e01b815260040160405180910390fd5b5f61115d84601480875161115891906125b9565b6111cc565b604051632b870d1b60e11b81529091506001600160a01b0383169063570e1a369061118c908490600401611d1f565b6020604051808303815f875af11580156111a8573d5f5f3e3d5ffd5b505050506040513d601f19601f8201168201806040525081019061059a9190612c0f565b60608182601f0110156112175760405162461bcd60e51b815260206004820152600e60248201526d736c6963655f6f766572666c6f7760901b60448201526064015b60405180910390fd5b6112218284612c2a565b845110156112655760405162461bcd60e51b8152602060048201526011602482015270736c6963655f6f75744f66426f756e647360781b604482015260640161120e565b6060821580156112835760405191505f8252602082016040526112cd565b6040519150601f8416801560200281840101858101878315602002848b0101015b818310156112bc5780518352602092830192016112a4565b5050858452601f01601f1916604052505b50949350505050565b604080516001600160f81b03198087166020830152851660218201525f602282018190526001600160e01b03198516602683015269ffffffffffffffffffff198416602a830152910160405160208183030381529060405261133790612c3d565b95945050505050565b6060816040516020016113539190611f86565b6040516020818303038152906040529050919050565b60025f540361138b57604051633ee5aeb560e01b815260040160405180910390fd5b60025f55565b5f5f836001600160a01b031663e445e7dd6040518163ffffffff1660e01b8152600401602060405180830381865afa1580156113cf573d5f5f3e3d5ffd5b505050506040513d601f19601f820116820180604052508101906113f39190612c63565b9050600181600281111561140957611409612c81565b14806114265750600281600281111561142457611424612c81565b145b156118b4575f6114358461191f565b90505f61144185611935565b604051630b47673760e41b8152600481018490529091505f906001600160a01b037f0000000000000000000000000000000000000000000000000000000000000000169063b47673709060240160a060405180830381865afa1580156114a9573d5f5f3e3d5ffd5b505050506040513d601f19601f820116820180604052508101906114cd9190612c95565b60608101519091506001600160a01b03166114fb57604051638077659960e01b815260040160405180910390fd5b6040516381cbe69160e01b81526001600160a01b0389811660048301525f91908916906381cbe69190602401602060405180830381865afa158015611542573d5f5f3e3d5ffd5b505050506040513d601f19601f820116820180604052508101906115669190612b1d565b60808301519091506001600160a01b031663fd8cd53f8a858760018a600281111561159357611593612c81565b14868e6001600160a01b031663685a943c6040518163ffffffff1660e01b8152600401602060405180830381865afa1580156115d1573d5f5f3e3d5ffd5b505050506040513d601f19601f820116820180604052508101906115f59190612b1d565b6040516001600160e01b031960e089901b1681526001600160a01b039687166004820152959094166024860152604485019290925215156064840152608483015260a482015260c4016020604051808303815f875af115801561165a573d5f5f3e3d5ffd5b505050506040513d601f19601f8201168201806040525081019061167e9190612b1d565b95505f861180156116a05750600285600281111561169e5761169e612c81565b145b156118af57808611156116c657604051632fb15b8760e01b815260040160405180910390fd5b5f886001600160a01b03166338d52e0f6040518163ffffffff1660e01b8152600401602060405180830381865afa158015611703573d5f5f3e3d5ffd5b505050506040513d601f19601f820116820180604052508101906117279190612c0f565b90506001600160a01b038116158061175b57506001600160a01b03811673eeeeeeeeeeeeeeeeeeeeeeeeeeeeeeeeeeeeeeee145b1561179f57868a6001600160a01b031631101561178b57604051638e10f0c960e01b815260040160405180910390fd5b61179a8a846040015189611941565b611839565b6040516370a0823160e01b81526001600160a01b038b811660048301528891908316906370a0823190602401602060405180830381865afa1580156117e6573d5f5f3e3d5ffd5b505050506040513d601f19601f8201168201806040525081019061180a9190612b1d565b101561182957604051638e10f0c960e01b815260040160405180910390fd5b6118398a8285604001518a61199e565b6001600160a01b038916631f26461961185289856125b9565b6040516001600160e01b031960e084901b16815260048101919091526001600160a01b038d1660248201526044015f604051808303815f87803b158015611897575f5ffd5b505af11580156118a9573d5f5f3e3d5ffd5b50505050505b505050505b5050505050565b5f6118c7826014612c2a565b8351101561190f5760405162461bcd60e51b8152602060048201526015602482015274746f416464726573735f6f75744f66426f756e647360581b604482015260640161120e565b500160200151600160601b900490565b5f61192c825f60206111cc565b61033a90612c3d565b5f61033a8260206118bb565b5f826001600160a01b031631905061196984848460405180602001604052805f815250611b36565b506001600160a01b038316318261198083836125b9565b146118b45760405163102831ad60e11b815260040160405180910390fd5b6040516370a0823160e01b81526001600160a01b0383811660048301525f91908516906370a0823190602401602060405180830381865afa1580156119e5573d5f5f3e3d5ffd5b505050506040513d601f19601f82011682018060405250810190611a099190612b1d565b6040516001600160a01b038516602482015260448101849052909150611a6190869086905f9060640160408051601f198184030181529190526020810180516001600160e01b031663a9059cbb60e01b179052611b36565b506040516370a0823160e01b81526001600160a01b0384811660048301525f91908616906370a0823190602401602060405180830381865afa158015611aa9573d5f5f3e3d5ffd5b505050506040513d601f19601f82011682018060405250810190611acd9190612b1d565b90505f611ada83836125b9565b90505f611aed856103e8620186a0611be5565b9050611af981866125b9565b821080611b0e5750611b0b8186612c2a565b82115b15611b2c5760405163102831ad60e11b815260040160405180910390fd5b5050505050505050565b60605f611b45818080806112d6565b9050856001600160a01b031663d691c96482611b62888888611c95565b6040518363ffffffff1660e01b8152600401611b7f929190612b34565b5f604051808303815f875af1158015611b9a573d5f5f3e3d5ffd5b505050506040513d5f823e601f3d908101601f19168201604052611bc19190810190612b4c565b5f81518110611bd257611bd2612553565b6020026020010151915050949350505050565b5f5f5f611bf28686611cc4565b91509150815f03611c1657838181611c0c57611c0c612d23565b0492505050610dfd565b818411611c2d57611c2d6003851502601118611ce0565b5f848688095f868103871696879004966002600389028118808a02820302808a02820302808a02820302808a02820302808a02820302808a02909103029181900381900460010185841190960395909502919093039390930492909217029150509392505050565b6060838383604051602001611cac93929190612d37565b60405160208183030381529060405290509392505050565b5f805f1983850993909202808410938190039390930393915050565b634e487b715f52806020526024601cfd5b5f81518084528060208401602086015e5f602082860101526020601f19601f83011685010191505092915050565b602081525f610dfd6020830184611cf1565b5f5f60208385031215611d42575f5ffd5b82356001600160401b03811115611d57575f5ffd5b8301601f81018513611d67575f5ffd5b80356001600160401b03811115611d7c575f5ffd5b856020828401011115611d8d575f5ffd5b6020919091019590945092505050565b6001600160a01b0381168114611db1575f5ffd5b50565b8035611dbf81611d9d565b919050565b5f5f60408385031215611dd5575f5ffd5b8235611de081611d9d565b946020939093013593505050565b634e487b7160e01b5f52604160045260245ffd5b604080519081016001600160401b0381118282101715611e2457611e24611dee565b60405290565b604051606081016001600160401b0381118282101715611e2457611e24611dee565b60405160c081016001600160401b0381118282101715611e2457611e24611dee565b604051601f8201601f191681016001600160401b0381118282101715611e9657611e96611dee565b604052919050565b5f6001600160401b03821115611eb657611eb6611dee565b50601f01601f191660200190565b5f82601f830112611ed3575f5ffd5b8135611ee6611ee182611e9e565b611e6e565b818152846020838601011115611efa575f5ffd5b816020850160208301375f918101602001919091529392505050565b5f5f5f5f60808587031215611f29575f5ffd5b8435611f3481611d9d565b93506020850135611f4481611d9d565b92506040850135611f5481611d9d565b915060608501356001600160401b03811115611f6e575f5ffd5b611f7a87828801611ec4565b91505092959194509250565b5f602082016020835280845180835260408501915060408160051b8601019250602086015f5b8281101561200757868503603f19018452815180516001600160a01b0316865260208082015190870152604090810151606091870182905290611ff190870182611cf1565b9550506020938401939190910190600101611fac565b50929695505050505050565b5f6001600160401b0382111561202b5761202b611dee565b5060051b60200190565b5f60208284031215612045575f5ffd5b81356001600160401b0381111561205a575f5ffd5b8201601f8101841361206a575f5ffd5b8035612078611ee182612013565b8082825260208201915060208360051b850101925086831115612099575f5ffd5b6020840193505b828410156120bb5783358252602093840193909101906120a0565b9695505050505050565b5f602082840312156120d5575f5ffd5b8135610dfd81611d9d565b5f602082840312156120f0575f5ffd5b5035919050565b5f82601f830112612106575f5ffd5b8135612114611ee182612013565b8082825260208201915060208360051b860101925085831115612135575f5ffd5b602085015b8381101561215b57803561214d81611d9d565b83526020928301920161213a565b5095945050505050565b5f82601f830112612174575f5ffd5b8135612182611ee182612013565b8082825260208201915060208360051b8601019250858311156121a3575f5ffd5b602085015b8381101561215b5780358352602092830192016121a8565b5f5f5f5f5f5f5f60e0888a0312156121d6575f5ffd5b6121df88611db4565b96506121ed60208901611db4565b955060408801356001600160401b03811115612207575f5ffd5b6122138a828b016120f7565b95505060608801356001600160401b0381111561222e575f5ffd5b61223a8a828b01612165565b94505060808801356001600160401b03811115612255575f5ffd5b6122618a828b01611ec4565b93505060a08801356001600160401b0381111561227c575f5ffd5b6122888a828b01611ec4565b92505060c08801356001600160401b038111156122a3575f5ffd5b6122af8a828b01611ec4565b91505092959891949750929550565b5f602082840312156122ce575f5ffd5b81356001600160401b038111156122e3575f5ffd5b8201604081850312156122f4575f5ffd5b6122fc611e02565b81356001600160401b03811115612311575f5ffd5b61231d868285016120f7565b82525060208201356001600160401b03811115612338575f5ffd5b80830192505084601f83011261234c575f5ffd5b813561235a611ee182612013565b8082825260208201915060208360051b86010192508783111561237b575f5ffd5b602085015b838110156123bb5780356001600160401b0381111561239d575f5ffd5b6123ac8a6020838a0101611ec4565b84525060209283019201612380565b506020840152509095945050505050565b6001600160a01b038481168252831660208201526060604082018190525f9061133790830184611cf1565b8051611dbf81611d9d565b5f82601f830112612411575f5ffd5b815161241f611ee182611e9e565b818152846020838601011115612433575f5ffd5b8160208501602083015e5f918101602001919091529392505050565b5f6020828403121561245f575f5ffd5b81516001600160401b03811115612474575f5ffd5b8201601f81018413612484575f5ffd5b8051612492611ee182612013565b8082825260208201915060208360051b8501019250868311156124b3575f5ffd5b602084015b838110156125485780516001600160401b038111156124d5575f5ffd5b85016060818a03601f190112156124ea575f5ffd5b6124f2611e2a565b602082015161250081611d9d565b81526040820151602082015260608201516001600160401b03811115612524575f5ffd5b6125338b602083860101612402565b604083015250845250602092830192016124b8565b509695505050505050565b634e487b7160e01b5f52603260045260245ffd5b805160208201516001600160e01b031981169190600482101561259e576001600160e01b0319600483900360031b81901b82161692505b5050919050565b634e487b7160e01b5f52601160045260245ffd5b8181038181111561033a5761033a6125a5565b602080825282518282018190525f918401906040840190835b818110156126035783518352602093840193909201916001016125e5565b509095945050505050565b5f8151808452602084019350602083015f5b8281101561263e578151865260209586019590910190600101612620565b5093949350505050565b60c081525f61265a60c0830189611cf1565b6001600160401b0388166020848101919091526001600160a01b038881166040860152871660608501528382036080850152855180835286820192909101905f5b818110156126c25783516001600160a01b031683526020938401939092019160010161269b565b505083810360a08501526126d6818661260e565b9a9950505050505050505050565b604081525f6126f66040830185611cf1565b82810360208401526113378185611cf1565b6001600160a01b03831681526040602082018190525f9061059a90830184611cf1565b5f6020828403121561273b575f5ffd5b81516001600160e01b031981168114610dfd575f5ffd5b80516001600160401b0381168114611dbf575f5ffd5b5f82601f830112612777575f5ffd5b8151612785611ee182612013565b8082825260208201915060208360051b8601019250858311156127a6575f5ffd5b602085015b8381101561215b576127bc81612752565b8352602092830192016127ab565b805165ffffffffffff81168114611dbf575f5ffd5b5f82601f8301126127ee575f5ffd5b81516127fc611ee182612013565b8082825260208201915060208360051b86010192508583111561281d575f5ffd5b602085015b8381101561215b578051835260209283019201612822565b5f82601f830112612849575f5ffd5b8151612857611ee182612013565b8082825260208201915060208360051b860101925085831115612878575f5ffd5b602085015b8381101561215b57805161289081611d9d565b83526020928301920161287d565b5f82601f8301126128ad575f5ffd5b81516128bb611ee182612013565b8082825260208201915060208360051b8601019250858311156128dc575f5ffd5b602085015b8381101561215b5780516001600160401b038111156128fe575f5ffd5b86016060818903601f19011215612913575f5ffd5b61291b611e2a565b60208201516001600160401b03811115612933575f5ffd5b6129428a6020838601016127df565b82525061295160408301612752565b602082015260608201516001600160401b0381111561296e575f5ffd5b60208184010192505060c0828a031215612986575f5ffd5b61298e611e4c565b612997836123f7565b81526129a5602084016123f7565b602082015260408301516001600160401b038111156129c2575f5ffd5b6129ce8b82860161283a565b60408301525060608301516001600160401b038111156129ec575f5ffd5b6129f88b8286016127df565b606083015250612a0a608084016123f7565b608082015260a08301516001600160401b03811115612a27575f5ffd5b612a338b828601612402565b60a0830152506040820152845250602092830192016128e1565b5f5f5f5f5f5f5f60e0888a031215612a63575f5ffd5b87516001600160401b03811115612a78575f5ffd5b612a848a828b01612768565b975050612a93602089016127ca565b9550612aa1604089016127ca565b606089015160808a015191965094506001600160401b03811115612ac3575f5ffd5b612acf8a828b016127df565b93505060a08801516001600160401b03811115612aea575f5ffd5b612af68a828b0161289e565b92505060c08801516001600160401b03811115612b11575f5ffd5b6122af8a828b01612402565b5f60208284031215612b2d575f5ffd5b5051919050565b828152604060208201525f61059a6040830184611cf1565b5f60208284031215612b5c575f5ffd5b81516001600160401b03811115612b71575f5ffd5b8201601f81018413612b81575f5ffd5b8051612b8f611ee182612013565b8082825260208201915060208360051b850101925086831115612bb0575f5ffd5b602084015b838110156125485780516001600160401b03811115612bd2575f5ffd5b612be189602083890101612402565b84525060209283019201612bb5565b5f60208284031215612c00575f5ffd5b81518015158114610dfd575f5ffd5b5f60208284031215612c1f575f5ffd5b8151610dfd81611d9d565b8082018082111561033a5761033a6125a5565b80516020808301519190811015612c5d575f198160200360031b1b821691505b50919050565b5f60208284031215612c73575f5ffd5b815160038110610dfd575f5ffd5b634e487b7160e01b5f52602160045260245ffd5b5f60a0828403128015612ca6575f5ffd5b5060405160a081016001600160401b0381118282101715612cc957612cc9611dee565b6040528251612cd781611d9d565b8152602083810151908201526040830151612cf181611d9d565b60408201526060830151612d0481611d9d565b60608201526080830151612d1781611d9d565b60808201529392505050565b634e487b7160e01b5f52601260045260245ffd5b6bffffffffffffffffffffffff198460601b1681528260148201525f82518060208501603485015e5f920160340191825250939250505056fea164736f6c634300081e000a","linkReferences":{}},"methodIdentifiers":{"SUPER_DESTINATION_VALIDATOR()":"5a0ed186","execute(bytes)":"09c5eabe","isInitialized(address)":"d60b347f","isMerkleRootUsed(address,bytes32)":"244cd767","isModuleType(uint256)":"ecd05961","ledgerConfiguration()":"6740419b","markRootsAsUsed(bytes32[])":"a5c08d3d","name()":"06fdde03","onInstall(bytes)":"6d61fe70","onUninstall(bytes)":"8a91b0e3","processBridgedExecution(address,address,address[],uint256[],bytes,bytes,bytes)":"ed71d9d1","usedMerkleRoots(address,bytes32)":"a5b6f208","validateHookCompliance(address,address,address,bytes)":"4a03fda4","version()":"54fd4d50"},"id":350}