{"abi":[{"type":"constructor","inputs":[{"name":"aggregationRouter_","type":"address","internalType":"address"}],"stateMutability":"nonpayable"},{"type":"function","name":"NATIVE","inputs":[],"outputs":[{"name":"","type":"address","internalType":"address"}],"stateMutability":"view"},{"type":"function","name":"aggregationRouter","inputs":[],"outputs":[{"name":"","type":"address","internalType":"contract I1InchAggregationRouterV6"}],"stateMutability":"view"},{"type":"function","name":"asset","inputs":[],"outputs":[{"name":"","type":"address","internalType":"address"}],"stateMutability":"view"},{"type":"function","name":"build","inputs":[{"name":"prevHook","type":"address","internalType":"address"},{"name":"account","type":"address","internalType":"address"},{"name":"hookData","type":"bytes","internalType":"bytes"}],"outputs":[{"name":"executions","type":"tuple[]","internalType":"struct Execution[]","components":[{"name":"target","type":"address","internalType":"address"},{"name":"value","type":"uint256","internalType":"uint256"},{"name":"callData","type":"bytes","internalType":"bytes"}]}],"stateMutability":"view"},{"type":"function","name":"decodeUsePrevHookAmount","inputs":[{"name":"data","type":"bytes","internalType":"bytes"}],"outputs":[{"name":"","type":"bool","internalType":"bool"}],"stateMutability":"pure"},{"type":"function","name":"executionNonce","inputs":[],"outputs":[{"name":"","type":"uint256","internalType":"uint256"}],"stateMutability":"view"},{"type":"function","name":"getOutAmount","inputs":[{"name":"caller","type":"address","internalType":"address"}],"outputs":[{"name":"","type":"uint256","internalType":"uint256"}],"stateMutability":"view"},{"type":"function","name":"hookType","inputs":[],"outputs":[{"name":"","type":"uint8","internalType":"enum ISuperHook.HookType"}],"stateMutability":"view"},{"type":"function","name":"inspect","inputs":[{"name":"data","type":"bytes","internalType":"bytes"}],"outputs":[{"name":"","type":"bytes","internalType":"bytes"}],"stateMutability":"pure"},{"type":"function","name":"lastCaller","inputs":[],"outputs":[{"name":"","type":"address","internalType":"address"}],"stateMutability":"view"},{"type":"function","name":"postExecute","inputs":[{"name":"prevHook","type":"address","internalType":"address"},{"name":"account","type":"address","internalType":"address"},{"name":"data","type":"bytes","internalType":"bytes"}],"outputs":[],"stateMutability":"nonpayable"},{"type":"function","name":"preExecute","inputs":[{"name":"prevHook","type":"address","internalType":"address"},{"name":"account","type":"address","internalType":"address"},{"name":"data","type":"bytes","internalType":"bytes"}],"outputs":[],"stateMutability":"nonpayable"},{"type":"function","name":"resetExecutionState","inputs":[{"name":"caller","type":"address","internalType":"address"}],"outputs":[],"stateMutability":"nonpayable"},{"type":"function","name":"setExecutionContext","inputs":[{"name":"caller","type":"address","internalType":"address"}],"outputs":[],"stateMutability":"nonpayable"},{"type":"function","name":"setOutAmount","inputs":[{"name":"_outAmount","type":"uint256","internalType":"uint256"},{"name":"caller","type":"address","internalType":"address"}],"outputs":[],"stateMutability":"nonpayable"},{"type":"function","name":"spToken","inputs":[],"outputs":[{"name":"","type":"address","internalType":"address"}],"stateMutability":"view"},{"type":"function","name":"subType","inputs":[],"outputs":[{"name":"","type":"bytes32","internalType":"bytes32"}],"stateMutability":"view"},{"type":"function","name":"subtype","inputs":[],"outputs":[{"name":"","type":"bytes32","internalType":"bytes32"}],"stateMutability":"view"},{"type":"function","name":"usedShares","inputs":[],"outputs":[{"name":"","type":"uint256","internalType":"uint256"}],"stateMutability":"view"},{"type":"error","name":"ADDRESS_NOT_VALID","inputs":[]},{"type":"error","name":"AMOUNT_NOT_VALID","inputs":[]},{"type":"error","name":"CANNOT_SET_OUT_AMOUNT","inputs":[]},{"type":"error","name":"INCOMPLETE_HOOK_EXECUTION","inputs":[]},{"type":"error","name":"INVALID_DESTINATION_TOKEN","inputs":[]},{"type":"error","name":"INVALID_INPUT_AMOUNT","inputs":[]},{"type":"error","name":"INVALID_OUTPUT_AMOUNT","inputs":[]},{"type":"error","name":"INVALID_RECEIVER","inputs":[]},{"type":"error","name":"INVALID_SELECTOR","inputs":[]},{"type":"error","name":"INVALID_SELECTOR_OFFSET","inputs":[]},{"type":"error","name":"INVALID_TOKEN_PAIR","inputs":[]},{"type":"error","name":"NOT_AUTHORIZED","inputs":[]},{"type":"error","name":"PARTIAL_FILL_NOT_ALLOWED","inputs":[]},{"type":"error","name":"POST_EXECUTE_ALREADY_CALLED","inputs":[]},{"type":"error","name":"PRE_EXECUTE_ALREADY_CALLED","inputs":[]},{"type":"error","name":"SafeCastOverflowedIntDowncast","inputs":[{"name":"bits","type":"uint8","internalType":"uint8"},{"name":"value","type":"int256","internalType":"int256"}]},{"type":"error","name":"SafeCastOverflowedUintDowncast","inputs":[{"name":"bits","type":"uint8","internalType":"uint8"},{"name":"value","type":"uint256","internalType":"uint256"}]},{"type":"error","name":"UNAUTHORIZED_CALLER","inputs":[]},{"type":"error","name":"ZERO_ADDRESS","inputs":[]}],"bytecode":{"object":"0x60c060405234801561000f575f5ffd5b5060405161218538038061218583398101604081905261002e916100af565b6040805180820190915260048152630537761760e41b6020909101525f805460ff191690557fbce316f0d9d2a3affa97de1d99bb2aac0538e2666d0d8545545ead241ef0ccab6080526001600160a01b03811661009e5760405163538ba4f960e01b815260040160405180910390fd5b6001600160a01b031660a0526100dc565b5f602082840312156100bf575f5ffd5b81516001600160a01b03811681146100d5575f5ffd5b9392505050565b60805160a05161207a61010b5f395f81816102ef0152610b9901525f81816101e80152610279015261207a5ff3fe608060405234801561000f575f5ffd5b506004361061011c575f3560e01c8063685a943c116100a9578063cf0a61811161006e578063cf0a618114610274578063d06a1e891461029b578063e445e7dd146102ae578063e7745517146102c7578063fcdfd946146102ea575f5ffd5b8063685a943c1461020c57806381cbe691146102145780638c4313c1146102275780638e14877614610247578063a0cf0aea14610259575f5ffd5b80632113522a116100ef5780632113522a146101775780632ae2fe3d146101a157806338d52e0f146101b45780633b5896bc146101c65780635492e677146101e6575f5ffd5b806301bd43ef1461012057806305b4fe911461013c57806314cb37cf146101515780631f26461914610164575b5f5ffd5b61012960035c81565b6040519081526020015b60405180910390f35b61014f61014a366004611992565b610311565b005b61014f61015f3660046119f3565b61038b565b61014f610172366004611a0e565b6103ac565b6101896001600160a01b0360045c1681565b6040516001600160a01b039091168152602001610133565b61014f6101af366004611992565b610405565b6101896001600160a01b0360025c1681565b6101d96101d4366004611992565b610478565b6040516101339190611a6a565b7f0000000000000000000000000000000000000000000000000000000000000000610129565b6101295f5c81565b6101296102223660046119f3565b610691565b61023a610235366004611af7565b6106a9565b6040516101339190611b36565b6101896001600160a01b0360015c1681565b61018973eeeeeeeeeeeeeeeeeeeeeeeeeeeeeeeeeeeeeeee81565b6101297f000000000000000000000000000000000000000000000000000000000000000081565b61014f6102a93660046119f3565b6108f1565b5f546102ba9060ff1681565b6040516101339190611b5c565b6102da6102d5366004611c4a565b61096e565b6040519015158152602001610133565b6101897f000000000000000000000000000000000000000000000000000000000000000081565b336001600160a01b0384161461033a5760405163e15e56c960e01b815260040160405180910390fd5b5f6103448461097a565b905061034f8161098d565b1561036d5760405163945b63f560e01b815260040160405180910390fd5b61037881600161099a565b610384858585856109b0565b5050505050565b610394816109dd565b50336004805c6001600160a01b0319168217905d5050565b5f6103b68261097a565b90506103c181610a0f565b806103d057506103d08161098d565b156103ee5760405163441e4c7360e11b815260040160405180910390fd5b5f6103fa826001610a18565b905083815d50505050565b336001600160a01b0384161461042e5760405163e15e56c960e01b815260040160405180910390fd5b5f6104388461097a565b905061044381610a0f565b1561046157604051630bbb04d960e11b815260040160405180910390fd5b61046c816001610a6d565b61038485858585610a79565b60605f61048786868686610a87565b9050805160026104979190611c98565b67ffffffffffffffff8111156104af576104af611b82565b6040519080825280602002602001820160405280156104fb57816020015b60408051606080820183525f8083526020830152918101919091528152602001906001900390816104cd5790505b5091506040518060600160405280306001600160a01b031681526020015f8152602001306001600160a01b0316632ae2fe3d898989896040516024016105449493929190611cab565b604051602081830303815290604052915060e01b6020820180516001600160e01b038381831617835250505050815250825f8151811061058657610586611cf3565b60209081029190910101525f5b81518110156105e7578181815181106105ae576105ae611cf3565b6020026020010151838260016105c49190611c98565b815181106105d4576105d4611cf3565b6020908102919091010152600101610593565b506040518060600160405280306001600160a01b031681526020015f8152602001306001600160a01b03166305b4fe918989898960405160240161062e9493929190611cab565b604051602081830303815290604052915060e01b6020820180516001600160e01b038381831617835250505050815250826001845161066d9190611d07565b8151811061067d5761067d611cf3565b602002602001018190525050949350505050565b5f6106a361069e8361097a565b610cba565b92915050565b6060365f6106ba8460498188611d1a565b90925090505f6106cd6004828486611d1a565b6106d691611d41565b90506060630e9b51bf60e11b6001600160e01b0319831601610781575f8080610702866004818a611d1a565b81019061070f9190611d79565b9450505092509250610727836001600160a01b031690565b6001600160a01b0383166001600160a01b0383166040516001600160601b0319606094851b8116602083015292841b83166034820152921b166048820152605c0160405160208183030381529060405293505050506108e7565b63f812dc8760e01b6001600160e01b0319831601610826575f806107a88560048189611d1a565b8101906107b59190611db0565b50805160208083015160408085015160608087015192516001600160601b031989831b81169682019690965295811b8516603487015292831b84166048860152821b8316605c850152901b1660708201529193509150608401604051602081830303815290604052925050506108e7565b633b29ad5160e01b6001600160e01b03198316016108ce575f80808061084f876004818b611d1a565b81019061085c9190611e87565b50505050509350935093509350838361087b846001600160a01b031690565b6040516001600160601b0319606094851b8116602083015292841b8316603482015290831b821660488201529183901b16605c8201526070016040516020818303038152906040529450505050506108e7565b60405163d858d3d360e01b815260040160405180910390fd5b9695505050505050565b336001600160a01b0360045c161461091c5760405163e15e56c960e01b815260040160405180910390fd5b5f6109268261097a565b905061093181610a0f565b158061094357506109418161098d565b155b1561096157604051634bd439b560e11b815260040160405180910390fd5b61096a81610cc7565b5050565b5f6106a3826048610cde565b5f5f61098583610d0a565b5c9392505050565b5f5f610985836003610a18565b5f6109a6836003610a18565b905081815d505050565b6109d76109bc84610691565b6109c7848487610d71565b6109d19190611d07565b84610e71565b50505050565b5f6003805c90826109ed83611f02565b9190505d505f6109fc83610d0a565b905060035c80825d505060035c92915050565b5f5f6109858360025b604080517fc41a07c57a776f6217c6d4278dfe7a5d114742afe55627ce458c2802aa4d703460208083019190915281830194909452606080820193909352815180820390930183526080019052805191012090565b5f6109a6836002610a18565b6109d76109d1838386610d71565b60605f610a976014828587611d1a565b610aa091611f1a565b60601c90505f610ab4602860148688611d1a565b610abd91611f1a565b60601c90505f610ad1604860288789611d1a565b610ada91611f50565b5f1c90505f610b2087878080601f0160208091040260200160405190810160405280939291908181526020018383808284375f9201919091525060489250610cde915050565b9050365f610b31886049818c611d1a565b915091505f610b4587878e8e888888610e89565b604080516001808252818301909252919250816020015b60408051606080820183525f808352602083015291810191909152815260200190600190039081610b5c57905050975060405180606001604052807f00000000000000000000000000000000000000000000000000000000000000006001600160a01b03168152602001858015610bd257505f87115b610bdc5786610c44565b6040516381cbe69160e01b81526001600160a01b038e811660048301528f16906381cbe69190602401602060405180830381865afa158015610c20573d5f5f3e3d5ffd5b505050506040513d601f19601f82011682018060405250810190610c449190611f6d565b815260200185610c895784848080601f0160208091040260200160405190810160405280939291908181526020018383808284375f92019190915250610c8b92505050565b825b815250885f81518110610ca057610ca0611cf3565b602002602001018190525050505050505050949350505050565b5f5f610985836001610a18565b610cd1815f610a6d565b610cdb815f61099a565b50565b5f828281518110610cf157610cf1611cf3565b01602001516001600160f81b0319161515905092915050565b5f7f8ce092d4869bdfa1a1ce579ddddb2b776c39ace5d7b5d7e70e97ece2a78f4f9b82604051602001610d5492919091825260601b6001600160601b031916602082015260340190565b604051602081830303815290604052805190602001209050919050565b5f80610d806014828688611d1a565b610d8991611f1a565b60601c90505f610d9d602860148789611d1a565b610da691611f1a565b60601c905080610db35750825b6001600160a01b03821673eeeeeeeeeeeeeeeeeeeeeeeeeeeeeeeeeeeeeeee1480610de557506001600160a01b038216155b15610dfd576001600160a01b0316319150610e6a9050565b6040516370a0823160e01b81526001600160a01b0382811660048301528316906370a0823190602401602060405180830381865afa158015610e41573d5f5f3e3d5ffd5b505050506040513d601f19601f82011682018060405250810190610e659190611f6d565b925050505b9392505050565b5f610e7b8261097a565b90505f6103fa826001610a18565b60605f610e996004828587611d1a565b610ea291611d41565b9050630e9b51bf60e11b6001600160e01b0319821601610edd57610ed6610ecc8460048188611d1a565b8a8c8b8b8b610f79565b9150610f41565b63f812dc8760e01b6001600160e01b0319821601610f0f57610ed6610f058460048188611d1a565b8a8c8b8b8b61149d565b633b29ad5160e01b6001600160e01b03198216016108ce57610ed6610f378460048188611d1a565b8a8c8b8b8b61163e565b815115610f6d578082604051602001610f5b929190611f84565b60405160208183030381529060405291505b50979650505050505050565b60605f80808080610f8c8c8e018e611d79565b945094509450945094505f5f610fa1836117c6565b90506002816002811115610fb757610fb7611b48565b036111525760ff60d084901c81169060d885901c165f610fd6826117dd565b9050825f0361104e576040516387cb4f5760e01b8152600481018390526001600160a01b038716906387cb4f57906024015b602060405180830381865afa158015611023573d5f5f3e3d5ffd5b505050506040513d601f19601f820116820180604052508101906110479190611faf565b945061114a565b8260040361109e576001600160a01b0386166323746eb86110776001600160801b038416611819565b6040516001600160e01b031960e084901b168152600f9190910b6004820152602401611008565b826008036110d35760405163c661065760e01b8152600481018390526001600160a01b0387169063c661065790602401611008565b82600c036110fc576001600160a01b03861663b739953e6110776001600160801b038416611819565b8260100361113157604051630b9947eb60e41b8152600481018390526001600160a01b0387169063b9947eb090602401611008565b604051632a3b8b8360e11b815260040160405180910390fd5b505050611285565b5f6001600160a01b0384166001600160a01b0316630dfe16816040518163ffffffff1660e01b8152600401602060405180830381865afa158015611198573d5f5f3e3d5ffd5b505050506040513d601f19601f820116820180604052508101906111bc9190611faf565b90505f6001600160a01b0385166001600160a01b031663d21220a76040518163ffffffff1660e01b8152600401602060405180830381865afa158015611204573d5f5f3e3d5ffd5b505050506040513d601f19601f820116820180604052508101906112289190611faf565b90506001600160a01b0388811690831681900361124757819450611281565b806001600160a01b0316826001600160a01b03160361126857829450611281565b604051630374f15d60e31b815260040160405180910390fd5b5050505b61128e8361184d565b156112ab5773eeeeeeeeeeeeeeeeeeeeeeeeeeeeeeeeeeeeeeee91505b88156113aa576040516381cbe69160e01b81526001600160a01b038b811660048301528691908d16906381cbe69190602401602060405180830381865afa1580156112f8573d5f5f3e3d5ffd5b505050506040513d601f19601f8201168201806040525081019061131c9190611f6d565b95508086146113a85780861115611367575f61134561133b8389611d07565b620186a08461185c565b90506113558682620186a061185c565b61135f9087611c98565b9550506113a8565b5f61137561133b8884611d07565b90505f6113868783620186a061185c565b905086811115611398575f96506113a5565b6113a28188611d07565b96505b50505b505b845f036113ca5760405163324dfcff60e11b815260040160405180910390fd5b835f036113ea576040516385b1b8ff60e01b815260040160405180910390fd5b816001600160a01b03168c6001600160a01b03161461141c57604051630912106360e41b815260040160405180910390fd5b6001600160a01b03878116908e16811461144957604051632b0ddb9160e01b815260040160405180910390fd5b891561148a5760408051602081018a9052908101889052606081018790526080810186905260a0810185905260c00160405160208183030381529060405298505b5050505050505050979650505050505050565b60605f80806114ae8a8c018c611db0565b92509250925060018260c00151165f146114db5760405163bfc016d560e01b815260040160405180910390fd5b876001600160a01b031682602001516001600160a01b03161461151157604051630912106360e41b815260040160405180910390fd5b886001600160a01b031682606001516001600160a01b03161461154757604051632b0ddb9160e01b815260040160405180910390fd5b84156115bb576040516381cbe69160e01b81526001600160a01b0387811660048301528816906381cbe69190602401602060405180830381865afa158015611591573d5f5f3e3d5ffd5b505050506040513d601f19601f820116820180604052508101906115b59190611f6d565b60808301525b81608001515f036115df5760405163324dfcff60e11b815260040160405180910390fd5b8160a001515f03611603576040516385b1b8ff60e01b815260040160405180910390fd5b84156116305782828260405160200161161e93929190611fca565b60405160208183030381529060405293505b505050979650505050505050565b60605f8080806116508b8d018d611e87565b50505095509550955050945050896001600160a01b0316846001600160a01b03161461168f57604051632b0ddb9160e01b815260040160405180910390fd5b886001600160a01b0316836001600160a01b0316146116c157604051630912106360e41b815260040160405180910390fd5b8515611732576040516381cbe69160e01b81526001600160a01b0388811660048301528916906381cbe69190602401602060405180830381865afa15801561170b573d5f5f3e3d5ffd5b505050506040513d601f19601f8201168201806040525081019061172f9190611f6d565b91505b815f036117525760405163324dfcff60e11b815260040160405180910390fd5b805f03611772576040516385b1b8ff60e01b815260040160405180910390fd5b85156117b7578b8b8080601f0160208091040260200160405190810160405280939291908181526020018383808284375f9201919091525050505060a0810183905294505b50505050979650505050505050565b5f60fd82901c60028111156106a3576106a3611b48565b5f6001600160801b03821115611815576040516306dfcc6560e41b815260806004820152602481018390526044015b60405180910390fd5b5090565b80600f81900b81146118485760405163327269a760e01b8152608060048201526024810183905260440161180c565b919050565b5f600160fc1b821615156106a3565b5f5f5f611869868661190c565b91509150815f0361188d5783818161188357611883612059565b0492505050610e6a565b8184116118a4576118a46003851502601118611928565b5f848688095f868103871696879004966002600389028118808a02820302808a02820302808a02820302808a02820302808a02820302808a02909103029181900381900460010185841190960395909502919093039390930492909217029150509392505050565b5f805f1983850993909202808410938190039390930393915050565b634e487b715f52806020526024601cfd5b6001600160a01b0381168114610cdb575f5ffd5b5f5f83601f84011261195d575f5ffd5b50813567ffffffffffffffff811115611974575f5ffd5b60208301915083602082850101111561198b575f5ffd5b9250929050565b5f5f5f5f606085870312156119a5575f5ffd5b84356119b081611939565b935060208501356119c081611939565b9250604085013567ffffffffffffffff8111156119db575f5ffd5b6119e78782880161194d565b95989497509550505050565b5f60208284031215611a03575f5ffd5b8135610e6a81611939565b5f5f60408385031215611a1f575f5ffd5b823591506020830135611a3181611939565b809150509250929050565b5f81518084528060208401602086015e5f602082860101526020601f19601f83011685010191505092915050565b5f602082016020835280845180835260408501915060408160051b8601019250602086015f5b82811015611aeb57868503603f19018452815180516001600160a01b0316865260208082015190870152604090810151606091870182905290611ad590870182611a3c565b9550506020938401939190910190600101611a90565b50929695505050505050565b5f5f60208385031215611b08575f5ffd5b823567ffffffffffffffff811115611b1e575f5ffd5b611b2a8582860161194d565b90969095509350505050565b602081525f610e6a6020830184611a3c565b634e487b7160e01b5f52602160045260245ffd5b6020810160038310611b7c57634e487b7160e01b5f52602160045260245ffd5b91905290565b634e487b7160e01b5f52604160045260245ffd5b60405160e0810167ffffffffffffffff81118282101715611bb957611bb9611b82565b60405290565b5f82601f830112611bce575f5ffd5b813567ffffffffffffffff811115611be857611be8611b82565b604051601f8201601f19908116603f0116810167ffffffffffffffff81118282101715611c1757611c17611b82565b604052818152838201602001851015611c2e575f5ffd5b816020850160208301375f918101602001919091529392505050565b5f60208284031215611c5a575f5ffd5b813567ffffffffffffffff811115611c70575f5ffd5b611c7c84828501611bbf565b949350505050565b634e487b7160e01b5f52601160045260245ffd5b808201808211156106a3576106a3611c84565b6001600160a01b038581168252841660208201526060604082018190528101829052818360808301375f818301608090810191909152601f909201601f191601019392505050565b634e487b7160e01b5f52603260045260245ffd5b818103818111156106a3576106a3611c84565b5f5f85851115611d28575f5ffd5b83861115611d34575f5ffd5b5050820193919092039150565b80356001600160e01b03198116906004841015611d72576001600160e01b0319600485900360031b81901b82161691505b5092915050565b5f5f5f5f5f60a08688031215611d8d575f5ffd5b505083359560208501359550604085013594606081013594506080013592509050565b5f5f5f838503610120811215611dc4575f5ffd5b8435611dcf81611939565b935060e0601f1982011215611de2575f5ffd5b50611deb611b96565b6020850135611df981611939565b81526040850135611e0981611939565b60208201526060850135611e1c81611939565b60408201526080850135611e2f81611939565b606082015260a085810135608083015260c0808701359183019190915260e086013590820152915061010084013567ffffffffffffffff811115611e71575f5ffd5b611e7d86828701611bbf565b9150509250925092565b5f5f5f5f5f5f5f5f5f6101208a8c031215611ea0575f5ffd5b8935611eab81611939565b985060208a0135611ebb81611939565b975060408a0135965060608a0135611ed281611939565b989b979a50959860808101359760a0820135975060c0820135965060e08201359550610100909101359350915050565b5f60018201611f1357611f13611c84565b5060010190565b80356001600160601b03198116906014841015611d72576001600160601b031960149490940360031b84901b1690921692915050565b803560208310156106a3575f19602084900360031b1b1692915050565b5f60208284031215611f7d575f5ffd5b5051919050565b6001600160e01b03198316815281515f908060208501600485015e5f92016004019182525092915050565b5f60208284031215611fbf575f5ffd5b8151610e6a81611939565b60018060a01b038416815260018060a01b03835116602082015260018060a01b03602084015116604082015260018060a01b03604084015116606082015260018060a01b036060840151166080820152608083015160a082015260a083015160c082015260c083015160e08201526101206101008201525f612050610120830184611a3c565b95945050505050565b634e487b7160e01b5f52601260045260245ffdfea164736f6c634300081e000a","linkReferences":{}},"methodIdentifiers":{"NATIVE()":"a0cf0aea","aggregationRouter()":"fcdfd946","asset()":"38d52e0f","build(address,address,bytes)":"3b5896bc","decodeUsePrevHookAmount(bytes)":"e7745517","executionNonce()":"01bd43ef","getOutAmount(address)":"81cbe691","hookType()":"e445e7dd","inspect(bytes)":"8c4313c1","lastCaller()":"2113522a","postExecute(address,address,bytes)":"05b4fe91","preExecute(address,address,bytes)":"2ae2fe3d","resetExecutionState(address)":"d06a1e89","setExecutionContext(address)":"14cb37cf","setOutAmount(uint256,address)":"1f264619","spToken()":"8e148776","subType()":"cf0a6181","subtype()":"5492e677","usedShares()":"685a943c"},"id":481}