{"abi":[{"type":"constructor","inputs":[{"name":"poolManager_","type":"address","internalType":"address"}],"stateMutability":"nonpayable"},{"type":"receive","stateMutability":"payable"},{"type":"function","name":"POOL_MANAGER","inputs":[],"outputs":[{"name":"","type":"address","internalType":"contract IPoolManager"}],"stateMutability":"view"},{"type":"function","name":"SUB_TYPE","inputs":[],"outputs":[{"name":"","type":"bytes32","internalType":"bytes32"}],"stateMutability":"view"},{"type":"function","name":"asset","inputs":[],"outputs":[{"name":"","type":"address","internalType":"address"}],"stateMutability":"view"},{"type":"function","name":"build","inputs":[{"name":"prevHook","type":"address","internalType":"address"},{"name":"account","type":"address","internalType":"address"},{"name":"hookData","type":"bytes","internalType":"bytes"}],"outputs":[{"name":"executions","type":"tuple[]","internalType":"struct Execution[]","components":[{"name":"target","type":"address","internalType":"address"},{"name":"value","type":"uint256","internalType":"uint256"},{"name":"callData","type":"bytes","internalType":"bytes"}]}],"stateMutability":"view"},{"type":"function","name":"decodeUsePrevHookAmount","inputs":[{"name":"data","type":"bytes","internalType":"bytes"}],"outputs":[{"name":"usePrevHookAmount","type":"bool","internalType":"bool"}],"stateMutability":"pure"},{"type":"function","name":"executionNonce","inputs":[],"outputs":[{"name":"","type":"uint256","internalType":"uint256"}],"stateMutability":"view"},{"type":"function","name":"getOutAmount","inputs":[{"name":"caller","type":"address","internalType":"address"}],"outputs":[{"name":"","type":"uint256","internalType":"uint256"}],"stateMutability":"view"},{"type":"function","name":"getQuote","inputs":[{"name":"params","type":"tuple","internalType":"struct SwapUniswapV4Hook.QuoteParams","components":[{"name":"poolKey","type":"tuple","internalType":"struct PoolKey","components":[{"name":"currency0","type":"address","internalType":"Currency"},{"name":"currency1","type":"address","internalType":"Currency"},{"name":"fee","type":"uint24","internalType":"uint24"},{"name":"tickSpacing","type":"int24","internalType":"int24"},{"name":"hooks","type":"address","internalType":"contract IHooks"}]},{"name":"zeroForOne","type":"bool","internalType":"bool"},{"name":"amountIn","type":"uint256","internalType":"uint256"},{"name":"sqrtPriceLimitX96","type":"uint160","internalType":"uint160"}]}],"outputs":[{"name":"result","type":"tuple","internalType":"struct SwapUniswapV4Hook.QuoteResult","components":[{"name":"amountOut","type":"uint256","internalType":"uint256"},{"name":"sqrtPriceX96After","type":"uint160","internalType":"uint160"}]}],"stateMutability":"view"},{"type":"function","name":"hookType","inputs":[],"outputs":[{"name":"","type":"uint8","internalType":"enum ISuperHook.HookType"}],"stateMutability":"view"},{"type":"function","name":"inspect","inputs":[{"name":"data","type":"bytes","internalType":"bytes"}],"outputs":[{"name":"","type":"bytes","internalType":"bytes"}],"stateMutability":"pure"},{"type":"function","name":"lastCaller","inputs":[],"outputs":[{"name":"","type":"address","internalType":"address"}],"stateMutability":"view"},{"type":"function","name":"postExecute","inputs":[{"name":"prevHook","type":"address","internalType":"address"},{"name":"account","type":"address","internalType":"address"},{"name":"data","type":"bytes","internalType":"bytes"}],"outputs":[],"stateMutability":"nonpayable"},{"type":"function","name":"preExecute","inputs":[{"name":"prevHook","type":"address","internalType":"address"},{"name":"account","type":"address","internalType":"address"},{"name":"data","type":"bytes","internalType":"bytes"}],"outputs":[],"stateMutability":"nonpayable"},{"type":"function","name":"resetExecutionState","inputs":[{"name":"caller","type":"address","internalType":"address"}],"outputs":[],"stateMutability":"nonpayable"},{"type":"function","name":"setExecutionContext","inputs":[{"name":"caller","type":"address","internalType":"address"}],"outputs":[],"stateMutability":"nonpayable"},{"type":"function","name":"setOutAmount","inputs":[{"name":"_outAmount","type":"uint256","internalType":"uint256"},{"name":"caller","type":"address","internalType":"address"}],"outputs":[],"stateMutability":"nonpayable"},{"type":"function","name":"spToken","inputs":[],"outputs":[{"name":"","type":"address","internalType":"address"}],"stateMutability":"view"},{"type":"function","name":"subtype","inputs":[],"outputs":[{"name":"","type":"bytes32","internalType":"bytes32"}],"stateMutability":"view"},{"type":"function","name":"unlockCallback","inputs":[{"name":"data","type":"bytes","internalType":"bytes"}],"outputs":[{"name":"","type":"bytes","internalType":"bytes"}],"stateMutability":"nonpayable"},{"type":"function","name":"usedShares","inputs":[],"outputs":[{"name":"","type":"uint256","internalType":"uint256"}],"stateMutability":"view"},{"type":"error","name":"ADDRESS_NOT_VALID","inputs":[]},{"type":"error","name":"AMOUNT_NOT_VALID","inputs":[]},{"type":"error","name":"CANNOT_SET_OUT_AMOUNT","inputs":[]},{"type":"error","name":"EXCESSIVE_SLIPPAGE_DEVIATION","inputs":[{"name":"actualDeviation","type":"uint256","internalType":"uint256"},{"name":"maxAllowed","type":"uint256","internalType":"uint256"}]},{"type":"error","name":"HOOK_BALANCE_NOT_CLEARED","inputs":[{"name":"token","type":"address","internalType":"address"},{"name":"remaining","type":"uint256","internalType":"uint256"}]},{"type":"error","name":"INCOMPLETE_HOOK_EXECUTION","inputs":[]},{"type":"error","name":"INSUFFICIENT_OUTPUT_AMOUNT","inputs":[{"name":"actual","type":"uint256","internalType":"uint256"},{"name":"minimum","type":"uint256","internalType":"uint256"}]},{"type":"error","name":"INVALID_ACTUAL_AMOUNT","inputs":[]},{"type":"error","name":"INVALID_HOOK_DATA","inputs":[]},{"type":"error","name":"INVALID_ORIGINAL_AMOUNTS","inputs":[]},{"type":"error","name":"INVALID_OUTPUT_DELTA","inputs":[]},{"type":"error","name":"INVALID_PREVIOUS_NATIVE_TRANSFER_HOOK_USAGE","inputs":[]},{"type":"error","name":"INVALID_PRICE_LIMIT","inputs":[]},{"type":"error","name":"NOT_AUTHORIZED","inputs":[]},{"type":"error","name":"OUTPUT_AMOUNT_DIFFERENT_THAN_TRUE","inputs":[]},{"type":"error","name":"POST_EXECUTE_ALREADY_CALLED","inputs":[]},{"type":"error","name":"PRE_EXECUTE_ALREADY_CALLED","inputs":[]},{"type":"error","name":"QUOTE_DEVIATION_EXCEEDS_SAFETY_BOUNDS","inputs":[]},{"type":"error","name":"UNAUTHORIZED_CALLBACK","inputs":[]},{"type":"error","name":"UNAUTHORIZED_CALLER","inputs":[]},{"type":"error","name":"ZERO_LIQUIDITY","inputs":[]}],"bytecode":{"object":"0x60c060405234801561000f575f5ffd5b506040516132f83803806132f883398101604081905261002e91610088565b6040805180820190915260048152630537761760e41b6020909101525f805460ff191690557fbce316f0d9d2a3affa97de1d99bb2aac0538e2666d0d8545545ead241ef0ccab6080526001600160a01b031660a0526100b5565b5f60208284031215610098575f5ffd5b81516001600160a01b03811681146100ae575f5ffd5b9392505050565b60805160a0516131d56101235f395f8181610292015281816108ae0152818161099201528181610a3801528181610aa401528181610b2201528181610bd801528181610d0e01528181610e4301528181610ea7015261102101525f818161025d015261036101526131d55ff3fe60806040526004361061011e575f3560e01c8063685a943c1161009d578063984d6e7a11610062578063984d6e7a14610350578063d06a1e8914610383578063d323e185146103a2578063e445e7dd146103e5578063e77455171461040a575f5ffd5b8063685a943c146102b457806381cbe691146102c85780638c4313c1146102e75780638e1487761461031357806391dd734614610331575f5ffd5b80632ae2fe3d116100e35780632ae2fe3d146101e657806338d52e0f146102055780633b5896bc146102235780635492e6771461024f57806362308e8514610281575f5ffd5b806301bd43ef1461012957806305b4fe911461015157806314cb37cf146101725780631f264619146101915780632113522a146101b0575f5ffd5b3661012557005b5f5ffd5b348015610134575f5ffd5b5061013e60035c81565b6040519081526020015b60405180910390f35b34801561015c575f5ffd5b5061017061016b366004612a6a565b610439565b005b34801561017d575f5ffd5b5061017061018c366004612acb565b6104b3565b34801561019c575f5ffd5b506101706101ab366004612ae6565b6104d4565b3480156101bb575f5ffd5b506101ce6001600160a01b0360045c1681565b6040516001600160a01b039091168152602001610148565b3480156101f1575f5ffd5b50610170610200366004612a6a565b61052d565b348015610210575f5ffd5b506101ce6001600160a01b0360025c1681565b34801561022e575f5ffd5b5061024261023d366004612a6a565b6105a0565b6040516101489190612b42565b34801561025a575f5ffd5b507f000000000000000000000000000000000000000000000000000000000000000061013e565b34801561028c575f5ffd5b506101ce7f000000000000000000000000000000000000000000000000000000000000000081565b3480156102bf575f5ffd5b5061013e5f5c81565b3480156102d3575f5ffd5b5061013e6102e2366004612acb565b6107b9565b3480156102f2575f5ffd5b50610306610301366004612bcf565b6107d1565b6040516101489190612c0e565b34801561031e575f5ffd5b506101ce6001600160a01b0360015c1681565b34801561033c575f5ffd5b5061030661034b366004612bcf565b6108a1565b34801561035b575f5ffd5b5061013e7f000000000000000000000000000000000000000000000000000000000000000081565b34801561038e575f5ffd5b5061017061039d366004612acb565b610d9d565b3480156103ad575f5ffd5b506103c16103bc366004612d2a565b610e1a565b60408051825181526020928301516001600160a01b03169281019290925201610148565b3480156103f0575f5ffd5b505f546103fd9060ff1681565b6040516101489190612da6565b348015610415575f5ffd5b50610429610424366004612bcf565b610f72565b6040519015158152602001610148565b336001600160a01b038416146104625760405163e15e56c960e01b815260040160405180910390fd5b5f61046c84610fdd565b905061047781610ff0565b156104955760405163945b63f560e01b815260040160405180910390fd5b6104a0816001610ffd565b6104ac85858585611013565b5050505050565b6104bc816111ab565b50336004805c6001600160a01b0319168217905d5050565b5f6104de82610fdd565b90506104e9816111dd565b806104f857506104f881610ff0565b156105165760405163441e4c7360e11b815260040160405180910390fd5b5f6105228260016111e6565b905083815d50505050565b336001600160a01b038416146105565760405163e15e56c960e01b815260040160405180910390fd5b5f61056084610fdd565b905061056b816111dd565b1561058957604051630bbb04d960e11b815260040160405180910390fd5b61059481600161123b565b6104ac85858585611247565b60605f6105af86868686611330565b9050805160026105bf9190612de0565b67ffffffffffffffff8111156105d7576105d7612c20565b60405190808252806020026020018201604052801561062357816020015b60408051606080820183525f8083526020830152918101919091528152602001906001900390816105f55790505b5091506040518060600160405280306001600160a01b031681526020015f8152602001306001600160a01b0316632ae2fe3d8989898960405160240161066c9493929190612df3565b604051602081830303815290604052915060e01b6020820180516001600160e01b038381831617835250505050815250825f815181106106ae576106ae612e3b565b60209081029190910101525f5b815181101561070f578181815181106106d6576106d6612e3b565b6020026020010151838260016106ec9190612de0565b815181106106fc576106fc612e3b565b60209081029190910101526001016106bb565b506040518060600160405280306001600160a01b031681526020015f8152602001306001600160a01b03166305b4fe91898989896040516024016107569493929190612df3565b604051602081830303815290604052915060e01b6020820180516001600160e01b03838183161783525050505081525082600184516107959190612e4f565b815181106107a5576107a5612e3b565b602002602001018190525050949350505050565b5f6107cb6107c683610fdd565b611421565b92915050565b60605f6108165f85858080601f0160208091040260200160405190810160405280939291908181526020018383808284375f92019190915250929392505061142e9050565b90505f61085c601486868080601f0160208091040260200160405190810160405280939291908181526020018383808284375f92019190915250929392505061142e9050565b6040516bffffffffffffffffffffffff19606085811b8216602084015283901b1660348201529091506048016040516020818303038152906040529250505092915050565b6060336001600160a01b037f000000000000000000000000000000000000000000000000000000000000000016146108ec57604051633d046d8960e21b815260040160405180910390fd5b5f8080808080806108ff898b018b612e89565b9650965096509650965096509650826001600160a01b03165f03610936576040516339e5d57760e01b815260040160405180910390fd5b5f82610946578760200151610949565b87515b90505f8361095857885161095e565b88602001515b9050816001600160a01b038116610a19578847101561099057604051632982115760e11b815260040160405180910390fd5b7f00000000000000000000000000000000000000000000000000000000000000006001600160a01b03166311da60b48a6040518263ffffffff1660e01b815260040160206040518083038185885af11580156109ee573d5f5f3e3d5ffd5b50505050506040513d601f19601f82011682018060405250810190610a139190612f61565b50610ba3565b604051632961046560e21b81526001600160a01b0384811660048301527f0000000000000000000000000000000000000000000000000000000000000000169063a5841194906024015f604051808303815f87803b158015610a79575f5ffd5b505af1158015610a8b573d5f5f3e3d5ffd5b505060405163a9059cbb60e01b81526001600160a01b037f000000000000000000000000000000000000000000000000000000000000000081166004830152602482018d90528416925063a9059cbb91506044016020604051808303815f875af1158015610afb573d5f5f3e3d5ffd5b505050506040513d601f19601f82011682018060405250810190610b1f9190612f78565b507f00000000000000000000000000000000000000000000000000000000000000006001600160a01b03166311da60b46040518163ffffffff1660e01b81526004016020604051808303815f875af1158015610b7d573d5f5f3e3d5ffd5b505050506040513d601f19601f82011682018060405250810190610ba19190612f61565b505b5f604051806060016040528087151581526020018b610bc190612f93565b8152602001886001600160a01b031681525090505f7f00000000000000000000000000000000000000000000000000000000000000006001600160a01b031663f3cd914c8d84896040518463ffffffff1660e01b8152600401610c2693929190612ff0565b6020604051808303815f875af1158015610c42573d5f5f3e3d5ffd5b505050506040513d601f19601f82011682018060405250810190610c669190612f61565b90505f87610c7d57610c788260801d90565b610c87565b610c8782600f0b90565b90505f81600f0b13610cac5760405163171eaf1f60e11b815260040160405180910390fd5b600f81900b8b811015610ce0576040516293a4a360e41b815260048101829052602481018d90526044015b60405180910390fd5b604051630b0d9c0960e01b81526001600160a01b0387811660048301528c81166024830152604482018390527f00000000000000000000000000000000000000000000000000000000000000001690630b0d9c09906064015f604051808303815f87803b158015610d4f575f5ffd5b505af1158015610d61573d5f5f3e3d5ffd5b5050505080604051602001610d7891815260200190565b6040516020818303038152906040529e50505050505050505050505050505092915050565b336001600160a01b0360045c1614610dc85760405163e15e56c960e01b815260040160405180910390fd5b5f610dd282610fdd565b9050610ddd816111dd565b1580610def5750610ded81610ff0565b155b15610e0d57604051634bd439b560e11b815260040160405180910390fd5b610e1681611492565b5050565b604080518082019091525f8082526020820152815160a090205f8080610e696001600160a01b037f000000000000000000000000000000000000000000000000000000000000000016856114a9565b93509350509250826001600160a01b03165f03610e995760405163039271df60e11b815260040160405180910390fd5b5f610ecd6001600160a01b037f0000000000000000000000000000000000000000000000000000000000000000168661155b565b90505f87606001516001600160a01b03165f14610eee578760600151610f2b565b8760200151610f1b57610f16600173fffd8963efd1fc6a506488495d951d5263988d26613039565b610f2b565b610f2b6401000276a36001613058565b90505f5f610f528784868d60400151610f4390612f93565b610f4d8b8b613077565b6115e7565b508b52506001600160a01b031660208a0152509698975050505050505050565b5f60da821015610f95576040516373a0474d60e11b815260040160405180910390fd5b610fd683838080601f0160208091040260200160405190810160405280939291908181526020018383808284375f9201919091525060d9925061174a915050565b9392505050565b5f5f610fe883611776565b5c9392505050565b5f5f610fe88360036111e6565b5f6110098360036111e6565b905081815d505050565b5f61101c6117e2565b90505f7f00000000000000000000000000000000000000000000000000000000000000006001600160a01b03166348c89491836040518263ffffffff1660e01b815260040161106b9190612c0e565b5f604051808303815f875af1158015611086573d5f5f3e3d5ffd5b505050506040513d5f823e601f3d908101601f191682016040526110ad9190810190613092565b90506110b761187f565b5f818060200190518101906110cc9190612f61565b90505f6110d986866118a6565b90505f6001600160a01b0382166110fb57506001600160a01b03871631611166565b6040516370a0823160e01b81526001600160a01b0389811660048301528316906370a0823190602401602060405180830381865afa15801561113f573d5f5f3e3d5ffd5b505050506040513d601f19601f820116820180604052508101906111639190612f61565b90505b5f61117360055c83612e4f565b9050808414611195576040516366bbfe4960e01b815260040160405180910390fd5b61119f848a61198d565b50505050505050505050565b5f6003805c90826111bb83613107565b9190505d505f6111ca83611776565b905060035c80825d505060035c92915050565b5f5f610fe88360025b604080517fc41a07c57a776f6217c6d4278dfe7a5d114742afe55627ce458c2802aa4d703460208083019190915281830194909452606080820193909352815180820390930183526080019052805191012090565b5f6110098360026111e6565b611253848484846119a5565b50806002805c6001600160a01b0319166001600160a01b03831617905d50505f61127d83836118a6565b90506001600160a01b0381166112a2576001600160a01b038416318060055d50611310565b6040516370a0823160e01b81526001600160a01b0385811660048301528216906370a0823190602401602060405180830381865afa1580156112e6573d5f5f3e3d5ffd5b505050506040513d601f19601f8201168201806040525081019061130a9190612f61565b8060055d505b5f61131d86868686611b91565b905061132881611caf565b505050505050565b60605f5f611340878787876119a5565b90925090506001600160a01b038216156114175760408051600180825281830190925290816020015b60408051606080820183525f808352602083015291810191909152815260200190600190039081611369575050604080516060810182526001600160a01b03851681525f602080830182905283513060248201526044808201889052855180830390910181526064909101855290810180516001600160e01b031663a9059cbb60e01b1790529282019290925282519295509185919061140b5761140b612e3b565b60200260200101819052505b5050949350505050565b5f5f610fe88360016111e6565b5f61143a826014612de0565b835110156114825760405162461bcd60e51b8152602060048201526015602482015274746f416464726573735f6f75744f66426f756e647360581b6044820152606401610cd7565b500160200151600160601b900490565b61149c815f61123b565b6114a6815f610ffd565b50565b5f5f5f5f5f6114b786611d0d565b604051631e2eaeaf60e01b8152600481018290529091505f906001600160a01b03891690631e2eaeaf90602401602060405180830381865afa1580156114ff573d5f5f3e3d5ffd5b505050506040513d601f19601f820116820180604052508101906115239190612f61565b90506001600160a01b03811695508060a01c60020b945062ffffff8160b81c16935062ffffff8160d01c169250505092959194509250565b5f5f61156683611d0d565b90505f611574600383612de0565b604051631e2eaeaf60e01b8152600481018290529091506001600160a01b03861690631e2eaeaf90602401602060405180830381865afa1580156115ba573d5f5f3e3d5ffd5b505050506040513d601f19601f820116820180604052508101906115de9190612f61565b95945050505050565b5f80808062ffffff85166001600160a01b03808a16908b16101582881280156116bd575f6116208a5f0385620f424003620f4240611d2c565b905082611639576116348d8d8d6001611dc8565b611646565b6116468c8e8d6001611e14565b965086811061167a578b9750620f424084146116715761166c878586620f424003611ed9565b611673565b865b9450611693565b8096506116898d8c8386611f09565b9750868a5f030394505b826116a9576116a48d898d5f611e14565b6116b5565b6116b5888e8d5f611dc8565b95505061173b565b816116d3576116ce8c8c8c5f611e14565b6116df565b6116df8b8d8c5f611dc8565b94508489106116f0578a9650611702565b8894506116ff8c8b8785611f57565b96505b81611719576117148c888c6001611dc8565b611726565b611726878d8c6001611e14565b9550611738868485620f424003611ed9565b93505b50505095509550955095915050565b5f82828151811061175d5761175d612e3b565b01602001516001600160f81b0319161515905092915050565b5f7f8ce092d4869bdfa1a1ce579ddddb2b776c39ace5d7b5d7e70e97ece2a78f4f9b826040516020016117c592919091825260601b6bffffffffffffffffffffffff1916602082015260340190565b604051602081830303815290604052805190602001209050919050565b60607f627aa3803339ac43821d56e4daaf1b561068359bd683c25d3b3f5e42787753c1805c8067ffffffffffffffff81111561182057611820612c20565b6040519080825280601f01601f19166020018201604052801561184a576020820181803683370190505b5092505f5b8181101561187957602081810181900484015c8583018201526118729082612de0565b905061184f565b50505090565b7f627aa3803339ac43821d56e4daaf1b561068359bd683c25d3b3f5e42787753c15f815d50565b5f5f6118ea5f85858080601f0160208091040260200160405190810160405280939291908181526020018383808284375f92019190915250929392505061142e9050565b90505f611930601486868080601f0160208091040260200160405190810160405280939291908181526020018383808284375f92019190915250929392505061142e9050565b90505f61197486868080601f0160208091040260200160405190810160405280939291908181526020018383808284375f9201919091525060d8925061174a915050565b9050806119815782611983565b815b9695505050505050565b5f61199782610fdd565b90505f6105228260016111e6565b5f5f5f6119ea5f86868080601f0160208091040260200160405190810160405280939291908181526020018383808284375f92019190915250929392505061142e9050565b90505f611a30601487878080601f0160208091040260200160405190810160405280939291908181526020018383808284375f92019190915250929392505061142e9050565b90505f611a7487878080601f0160208091040260200160405190810160405280939291908181526020018383808284375f9201919091525060d8925061174a915050565b90505f611ab888888080601f0160208091040260200160405190810160405280939291908181526020018383808284375f9201919091525060d9925061174a915050565b905081611ac55782611ac7565b835b95508015611b3e576040516381cbe69160e01b81526001600160a01b038a811660048301528b16906381cbe69190602401602060405180830381865afa158015611b13573d5f5f3e3d5ffd5b505050506040513d601f19601f82011682018060405250810190611b379190612f61565b9450611b84565b611b81607889898080601f0160208091040260200160405190810160405280939291908181526020018383808284375f920191909152509293925050611f9e9050565b94505b5050505094509492505050565b60605f5f5f5f5f5f5f5f5f611ba68c8c611ffb565b9850985098509850985098509850985098505f82611bc45786611c3e565b8e6001600160a01b03166381cbe6918f6040518263ffffffff1660e01b8152600401611bff91906001600160a01b0391909116815260200190565b602060405180830381865afa158015611c1a573d5f5f3e3d5ffd5b505050506040513d601f19601f82011682018060405250810190611c3e9190612f61565b90505f611c6c60405180608001604052808a8152602001898152602001848152602001888152508c876124b4565b90508a82828c8c8988604051602001611c8b979695949392919061311f565b6040516020818303038152906040529b505050505050505050505050949350505050565b80517f627aa3803339ac43821d56e4daaf1b561068359bd683c25d3b3f5e42787753c19080825d5f5b81811015611d07575f8160208601015190508060208084010485015d50611d00602082612de0565b9050611cd8565b50505050565b6040515f906117c5908390600690602001918252602082015260400190565b5f838302815f1985870982811083820303915050808411611d4b575f5ffd5b805f03611d5d57508290049050610fd6565b5f848688095f868103871696879004966002600389028118808a02820302808a02820302808a02820302808a02820302808a02820302808a02909103029181900381900460010186841190950394909402919094039290920491909117919091029150509392505050565b5f6001600160a01b038481169086160360ff81901d90810118600160601b6001600160801b038516611dfb818484611d2c565b9350845f83858409111684019350505050949350505050565b5f836001600160a01b0316856001600160a01b03161115611e33579293925b6001600160a01b038516611e4d5762bfc9215f526004601cfd5b600160601b600160e01b03606084901b166001600160a01b038686031683611ea057866001600160a01b0316611e8d8383896001600160a01b0316611d2c565b81611e9a57611e9a61317e565b04611ecc565b611ecc611eb78383896001600160a01b0316611ed9565b886001600160a01b0316808204910615150190565b925050505b949350505050565b5f611ee5848484611d2c565b90508180611ef557611ef561317e565b83850915610fd65760010180610fd6575f5ffd5b5f6001600160801b038416156001600160a01b038616151715611f3357634f2461b85f526004601cfd5b81611f4a57611f4585858560016125b0565b6115de565b6115de858585600161269b565b5f6001600160801b038416156001600160a01b038616151715611f8157634f2461b85f526004601cfd5b81611f9257611f458585855f61269b565b6115de8585855f6125b0565b5f611faa826020612de0565b83511015611ff25760405162461bcd60e51b8152602060048201526015602482015274746f55696e743235365f6f75744f66426f756e647360581b6044820152606401610cd7565b50016020015190565b6040805160a0810182525f808252602082018190529181018290526060810182905260808101919091525f808080808080606060da8a1015612050576040516373a0474d60e11b815260040160405180910390fd5b6040518060a0016040528061209d5f8e8e8080601f0160208091040260200160405190810160405280939291908181526020018383808284375f92019190915250929392505061142e9050565b6001600160a01b031681526020016120ee60148e8e8080601f0160208091040260200160405190810160405280939291908181526020018383808284375f92019190915250929392505061142e9050565b6001600160a01b0316815260200161213f60288e8e8080601f0160208091040260200160405190810160405280939291908181526020018383808284375f92019190915250929392505061277d9050565b62ffffff16815260200161218c602c8e8e8080601f0160208091040260200160405190810160405280939291908181526020018383808284375f92019190915250929392505061277d9050565b60020b81526020016121d760308e8e8080601f0160208091040260200160405190810160405280939291908181526020018383808284375f92019190915250929392505061142e9050565b6001600160a01b0316815250985088602001516001600160a01b0316895f01516001600160a01b03160361221e576040516373a0474d60e11b815260040160405180910390fd5b886040015162ffffff165f03612247576040516373a0474d60e11b815260040160405180910390fd5b886060015160020b5f0361226e576040516373a0474d60e11b815260040160405180910390fd5b6122b160448c8c8080601f0160208091040260200160405190810160405280939291908181526020018383808284375f92019190915250929392505061142e9050565b97506122f660588c8c8080601f0160208091040260200160405190810160405280939291908181526020018383808284375f920191909152509293925050611f9e9050565b965061233b60788c8c8080601f0160208091040260200160405190810160405280939291908181526020018383808284375f920191909152509293925050611f9e9050565b955061238060988c8c8080601f0160208091040260200160405190810160405280939291908181526020018383808284375f920191909152509293925050611f9e9050565b94506123c560b88c8c8080601f0160208091040260200160405190810160405280939291908181526020018383808284375f920191909152509293925050611f9e9050565b93506124088b8b8080601f0160208091040260200160405190810160405280939291908181526020018383808284375f9201919091525060d8925061174a915050565b925061244b8b8b8080601f0160208091040260200160405190810160405280939291908181526020018383808284375f9201919091525060d9925061174a915050565b915060da8a11156124a7576124a460da612465818d612e4f565b8d8d8080601f0160208091040260200160405190810160405280939291908181526020018383808284375f920191909152509294939250506127d99050565b90505b9295985092959850929598565b82515f9015806124c657506020840151155b156124e457604051630add8eb160e21b815260040160405180910390fd5b83604001515f03612508576040516313a4d0d960e31b815260040160405180910390fd5b835160408501515f919061252490670de0b6b3a7640000613192565b61252e91906131a9565b9050670de0b6b3a76400008186602001516125499190613192565b61255391906131a9565b91505f61255f826128de565b90508560600151811115612596576060860151604051630e61211560e31b8152610cd7918391600401918252602082015260400190565b6125a68587604001518587612934565b5050509392505050565b5f8115612620575f6001600160a01b038411156125e4576125df84600160601b876001600160801b0316611d2c565b6125fb565b6125fb6001600160801b038616606086901b6131a9565b9050612618612613826001600160a01b038916612de0565b6129ed565b915050611ed1565b5f6001600160a01b0384111561264d5761264884600160601b876001600160801b0316611ed9565b61266a565b61266a606085901b6001600160801b038716808204910615150190565b9050806001600160a01b0387161161268957634323a5555f526004601cfd5b6001600160a01b038616039050611ed1565b5f825f036126aa575083611ed1565b600160601b600160e01b03606085901b16821561273c576001600160a01b038616848102908582816126de576126de61317e565b040361270e5781810182811061270c5761270283896001600160a01b031683611ed9565b9350505050611ed1565b505b5061261881856127276001600160a01b038a16836131a9565b6127319190612de0565b808204910615150190565b6001600160a01b0386168481029085820414818311166127635763f5c787f15f526004601cfd5b808203612702612613846001600160a01b038b1684611ed9565b5f612789826004612de0565b835110156127d05760405162461bcd60e51b8152602060048201526014602482015273746f55696e7433325f6f75744f66426f756e647360601b6044820152606401610cd7565b50016004015190565b60608182601f01101561281f5760405162461bcd60e51b815260206004820152600e60248201526d736c6963655f6f766572666c6f7760901b6044820152606401610cd7565b6128298284612de0565b8451101561286d5760405162461bcd60e51b8152602060048201526011602482015270736c6963655f6f75744f66426f756e647360781b6044820152606401610cd7565b60608215801561288b5760405191505f8252602082016040526128d5565b6040519150601f8416801560200281840101858101878315602002848b0101015b818310156128c45780518352602092830192016128ac565b5050858452601f01601f1916604052505b50949350505050565b5f670de0b6b3a764000082111561291957670de0b6b3a76400006127106129058285612e4f565b61290f9190613192565b6107cb91906131a9565b670de0b6b3a76400006127106129058483612e4f565b919050565b5f5f61296a604051806080016040528088815260200185151581526020018781526020015f6001600160a01b0316815250610e1a565b90505f84825f0151116129a25781518590612710906129899083612e4f565b6129939190613192565b61299d91906131a9565b6129c5565b81516127106129b18783612e4f565b6129bb9190613192565b6129c591906131a9565b90506103e88111159250826114175760405163103e0f7360e01b815260040160405180910390fd5b806001600160a01b038116811461292f5761292f6393dafdf160e01b805f5260045ffd5b6001600160a01b03811681146114a6575f5ffd5b5f5f83601f840112612a35575f5ffd5b50813567ffffffffffffffff811115612a4c575f5ffd5b602083019150836020828501011115612a63575f5ffd5b9250929050565b5f5f5f5f60608587031215612a7d575f5ffd5b8435612a8881612a11565b93506020850135612a9881612a11565b9250604085013567ffffffffffffffff811115612ab3575f5ffd5b612abf87828801612a25565b95989497509550505050565b5f60208284031215612adb575f5ffd5b8135610fd681612a11565b5f5f60408385031215612af7575f5ffd5b823591506020830135612b0981612a11565b809150509250929050565b5f81518084528060208401602086015e5f602082860101526020601f19601f83011685010191505092915050565b5f602082016020835280845180835260408501915060408160051b8601019250602086015f5b82811015612bc357868503603f19018452815180516001600160a01b0316865260208082015190870152604090810151606091870182905290612bad90870182612b14565b9550506020938401939190910190600101612b68565b50929695505050505050565b5f5f60208385031215612be0575f5ffd5b823567ffffffffffffffff811115612bf6575f5ffd5b612c0285828601612a25565b90969095509350505050565b602081525f610fd66020830184612b14565b634e487b7160e01b5f52604160045260245ffd5b60405160a0810167ffffffffffffffff81118282101715612c5757612c57612c20565b60405290565b604051601f8201601f1916810167ffffffffffffffff81118282101715612c8657612c86612c20565b604052919050565b803561292f81612a11565b5f60a08284031215612ca9575f5ffd5b612cb1612c34565b90508135612cbe81612a11565b81526020820135612cce81612a11565b6020820152604082013562ffffff81168114612ce8575f5ffd5b60408201526060820135600281900b8114612d01575f5ffd5b6060820152612d1260808301612c8e565b608082015292915050565b80151581146114a6575f5ffd5b5f610100828403128015612d3c575f5ffd5b506040516080810167ffffffffffffffff81118282101715612d6057612d60612c20565b604052612d6d8484612c99565b815260a0830135612d7d81612d1d565b602082015260c0830135604082015260e0830135612d9a81612a11565b60608201529392505050565b6020810160038310612dc657634e487b7160e01b5f52602160045260245ffd5b91905290565b634e487b7160e01b5f52601160045260245ffd5b808201808211156107cb576107cb612dcc565b6001600160a01b038581168252841660208201526060604082018190528101829052818360808301375f818301608090810191909152601f909201601f191601019392505050565b634e487b7160e01b5f52603260045260245ffd5b818103818111156107cb576107cb612dcc565b5f67ffffffffffffffff821115612e7b57612e7b612c20565b50601f01601f191660200190565b5f5f5f5f5f5f5f610160888a031215612ea0575f5ffd5b612eaa8989612c99565b965060a0880135955060c0880135945060e0880135612ec881612a11565b9350610100880135612ed981612a11565b9250610120880135612eea81612d1d565b915061014088013567ffffffffffffffff811115612f06575f5ffd5b8801601f81018a13612f16575f5ffd5b8035612f29612f2482612e62565b612c5d565b8181528b6020838501011115612f3d575f5ffd5b816020840160208301375f6020838301015280935050505092959891949750929550565b5f60208284031215612f71575f5ffd5b5051919050565b5f60208284031215612f88575f5ffd5b8151610fd681612d1d565b5f600160ff1b8201612fa757612fa7612dcc565b505f0390565b80516001600160a01b03908116835260208083015182169084015260408083015162ffffff169084015260608083015160020b9084015260809182015116910152565b612ffa8185612fad565b8251151560a0820152602083015160c082015260408301516001600160a01b031660e082015261012061010082018190525f906115de90830184612b14565b6001600160a01b0382811682821603908111156107cb576107cb612dcc565b6001600160a01b0381811683821601908111156107cb576107cb612dcc565b62ffffff81811683821601908111156107cb576107cb612dcc565b5f602082840312156130a2575f5ffd5b815167ffffffffffffffff8111156130b8575f5ffd5b8201601f810184136130c8575f5ffd5b80516130d6612f2482612e62565b8181528560208385010111156130ea575f5ffd5b8160208401602083015e5f91810160200191909152949350505050565b5f6001820161311857613118612dcc565b5060010190565b6131298189612fad565b60a0810187905260c081018690526001600160a01b0385811660e0830152841661010082015282151561012082015261016061014082018190525f9061317190830184612b14565b9998505050505050505050565b634e487b7160e01b5f52601260045260245ffd5b80820281158282048414176107cb576107cb612dcc565b5f826131c357634e487b7160e01b5f52601260045260245ffd5b50049056fea164736f6c634300081e000a","linkReferences":{}},"methodIdentifiers":{"POOL_MANAGER()":"62308e85","SUB_TYPE()":"984d6e7a","asset()":"38d52e0f","build(address,address,bytes)":"3b5896bc","decodeUsePrevHookAmount(bytes)":"e7745517","executionNonce()":"01bd43ef","getOutAmount(address)":"81cbe691","getQuote(((address,address,uint24,int24,address),bool,uint256,uint160))":"d323e185","hookType()":"e445e7dd","inspect(bytes)":"8c4313c1","lastCaller()":"2113522a","postExecute(address,address,bytes)":"05b4fe91","preExecute(address,address,bytes)":"2ae2fe3d","resetExecutionState(address)":"d06a1e89","setExecutionContext(address)":"14cb37cf","setOutAmount(uint256,address)":"1f264619","spToken()":"8e148776","subtype()":"5492e677","unlockCallback(bytes)":"91dd7346","usedShares()":"685a943c"},"id":532}