{"abi":[{"type":"constructor","inputs":[],"stateMutability":"nonpayable"},{"type":"function","name":"asset","inputs":[],"outputs":[{"name":"","type":"address","internalType":"address"}],"stateMutability":"view"},{"type":"function","name":"build","inputs":[{"name":"prevHook","type":"address","internalType":"address"},{"name":"account","type":"address","internalType":"address"},{"name":"hookData","type":"bytes","internalType":"bytes"}],"outputs":[{"name":"executions","type":"tuple[]","internalType":"struct Execution[]","components":[{"name":"target","type":"address","internalType":"address"},{"name":"value","type":"uint256","internalType":"uint256"},{"name":"callData","type":"bytes","internalType":"bytes"}]}],"stateMutability":"view"},{"type":"function","name":"decodeUsePrevHookAmount","inputs":[{"name":"data","type":"bytes","internalType":"bytes"}],"outputs":[{"name":"","type":"bool","internalType":"bool"}],"stateMutability":"pure"},{"type":"function","name":"executionNonce","inputs":[],"outputs":[{"name":"","type":"uint256","internalType":"uint256"}],"stateMutability":"view"},{"type":"function","name":"getOutAmount","inputs":[{"name":"caller","type":"address","internalType":"address"}],"outputs":[{"name":"","type":"uint256","internalType":"uint256"}],"stateMutability":"view"},{"type":"function","name":"hookType","inputs":[],"outputs":[{"name":"","type":"uint8","internalType":"enum ISuperHook.HookType"}],"stateMutability":"view"},{"type":"function","name":"inspect","inputs":[{"name":"data","type":"bytes","internalType":"bytes"}],"outputs":[{"name":"","type":"bytes","internalType":"bytes"}],"stateMutability":"pure"},{"type":"function","name":"lastCaller","inputs":[],"outputs":[{"name":"","type":"address","internalType":"address"}],"stateMutability":"view"},{"type":"function","name":"postExecute","inputs":[{"name":"prevHook","type":"address","internalType":"address"},{"name":"account","type":"address","internalType":"address"},{"name":"data","type":"bytes","internalType":"bytes"}],"outputs":[],"stateMutability":"nonpayable"},{"type":"function","name":"preExecute","inputs":[{"name":"prevHook","type":"address","internalType":"address"},{"name":"account","type":"address","internalType":"address"},{"name":"data","type":"bytes","internalType":"bytes"}],"outputs":[],"stateMutability":"nonpayable"},{"type":"function","name":"resetExecutionState","inputs":[{"name":"caller","type":"address","internalType":"address"}],"outputs":[],"stateMutability":"nonpayable"},{"type":"function","name":"setExecutionContext","inputs":[{"name":"caller","type":"address","internalType":"address"}],"outputs":[],"stateMutability":"nonpayable"},{"type":"function","name":"setOutAmount","inputs":[{"name":"_outAmount","type":"uint256","internalType":"uint256"},{"name":"caller","type":"address","internalType":"address"}],"outputs":[],"stateMutability":"nonpayable"},{"type":"function","name":"spToken","inputs":[],"outputs":[{"name":"","type":"address","internalType":"address"}],"stateMutability":"view"},{"type":"function","name":"subType","inputs":[],"outputs":[{"name":"","type":"bytes32","internalType":"bytes32"}],"stateMutability":"view"},{"type":"function","name":"subtype","inputs":[],"outputs":[{"name":"","type":"bytes32","internalType":"bytes32"}],"stateMutability":"view"},{"type":"function","name":"usedShares","inputs":[],"outputs":[{"name":"","type":"uint256","internalType":"uint256"}],"stateMutability":"view"},{"type":"error","name":"ADDRESS_NOT_VALID","inputs":[]},{"type":"error","name":"AMOUNT_NOT_VALID","inputs":[]},{"type":"error","name":"CANNOT_SET_OUT_AMOUNT","inputs":[]},{"type":"error","name":"INCOMPLETE_HOOK_EXECUTION","inputs":[]},{"type":"error","name":"NOT_AUTHORIZED","inputs":[]},{"type":"error","name":"POST_EXECUTE_ALREADY_CALLED","inputs":[]},{"type":"error","name":"PRE_EXECUTE_ALREADY_CALLED","inputs":[]},{"type":"error","name":"UNAUTHORIZED_CALLER","inputs":[]}],"bytecode":{"object":"0x60a0604052348015600e575f5ffd5b506040805180820190915260058152642a37b5b2b760d91b6020909101525f805460ff191690557f1317f51c845ce3bfb7c268e5337a825f12f3d0af9584c2bbfbf4e64e314eaf736080526080516111a16100785f395f81816101d2015261024801526111a15ff3fe608060405234801561000f575f5ffd5b5060043610610106575f3560e01c80635492e6771161009e5780638e1487761161006e5780638e14877614610231578063cf0a618114610243578063d06a1e891461026a578063e445e7dd1461027d578063e774551714610296575f5ffd5b80635492e677146101d0578063685a943c146101f657806381cbe691146101fe5780638c4313c114610211575f5ffd5b80632113522a116100d95780632113522a146101615780632ae2fe3d1461018b57806338d52e0f1461019e5780633b5896bc146101b0575f5ffd5b806301bd43ef1461010a57806305b4fe911461012657806314cb37cf1461013b5780631f2646191461014e575b5f5ffd5b61011360035c81565b6040519081526020015b60405180910390f35b610139610134366004610e2f565b6102b9565b005b610139610149366004610e8c565b610333565b61013961015c366004610eac565b610354565b6101736001600160a01b0360045c1681565b6040516001600160a01b03909116815260200161011d565b610139610199366004610e2f565b6103ad565b6101736001600160a01b0360025c1681565b6101c36101be366004610e2f565b610420565b60405161011d9190610f04565b7f0000000000000000000000000000000000000000000000000000000000000000610113565b6101135f5c81565b61011361020c366004610e8c565b610639565b61022461021f366004610f91565b610651565b60405161011d9190610fd0565b6101736001600160a01b0360015c1681565b6101137f000000000000000000000000000000000000000000000000000000000000000081565b610139610278366004610e8c565b610713565b5f546102899060ff1681565b60405161011d9190610fe2565b6102a96102a436600461101c565b610790565b604051901515815260200161011d565b336001600160a01b038416146102e25760405163e15e56c960e01b815260040160405180910390fd5b5f6102ec8461079c565b90506102f7816107af565b156103155760405163945b63f560e01b815260040160405180910390fd5b6103208160016107bc565b61032c858585856107d2565b5050505050565b61033c81610832565b50336004805c6001600160a01b0319168217905d5050565b5f61035e8261079c565b905061036981610864565b806103785750610378816107af565b156103965760405163441e4c7360e11b815260040160405180910390fd5b5f6103a282600161086d565b905083815d50505050565b336001600160a01b038416146103d65760405163e15e56c960e01b815260040160405180910390fd5b5f6103e08461079c565b90506103eb81610864565b1561040957604051630bbb04d960e11b815260040160405180910390fd5b6104148160016108c2565b61032c858585856108ce565b60605f61042f8686868661090f565b90508051600261043f91906110e3565b67ffffffffffffffff81111561045757610457611008565b6040519080825280602002602001820160405280156104a357816020015b60408051606080820183525f8083526020830152918101919091528152602001906001900390816104755790505b5091506040518060600160405280306001600160a01b031681526020015f8152602001306001600160a01b0316632ae2fe3d898989896040516024016104ec94939291906110f6565b604051602081830303815290604052915060e01b6020820180516001600160e01b038381831617835250505050815250825f8151811061052e5761052e61113e565b60209081029190910101525f5b815181101561058f578181815181106105565761055661113e565b60200260200101518382600161056c91906110e3565b8151811061057c5761057c61113e565b602090810291909101015260010161053b565b506040518060600160405280306001600160a01b031681526020015f8152602001306001600160a01b03166305b4fe91898989896040516024016105d694939291906110f6565b604051602081830303815290604052915060e01b6020820180516001600160e01b03838183161783525050505081525082600184516106159190611152565b815181106106255761062561113e565b602002602001018190525050949350505050565b5f61064b6106468361079c565b610ba7565b92915050565b606061069183838080601f0160208091040260200160405190810160405280939291908181526020018383808284375f9201829052509250610bb4915050565b6106d284848080601f0160208091040260200160405190810160405280939291908181526020018383808284375f9201919091525060149250610bb4915050565b6040516bffffffffffffffffffffffff19606093841b811660208301529190921b166034820152604801604051602081830303815290604052905092915050565b336001600160a01b0360045c161461073e5760405163e15e56c960e01b815260040160405180910390fd5b5f6107488261079c565b905061075381610864565b15806107655750610763816107af565b155b1561078357604051634bd439b560e11b815260040160405180910390fd5b61078c81610c1d565b5050565b5f61064b826048610c34565b5f5f6107a783610c60565b5c9392505050565b5f5f6107a783600361086d565b5f6107c883600361086d565b905081815d505050565b61082c6107de84610639565b61081c84848080601f0160208091040260200160405190810160405280939291908181526020018383808284375f92019190915250610ccc92505050565b6108269190611152565b84610d5a565b50505050565b5f6003805c908261084283611165565b9190505d505f61085183610c60565b905060035c80825d505060035c92915050565b5f5f6107a78360025b604080517fc41a07c57a776f6217c6d4278dfe7a5d114742afe55627ce458c2802aa4d703460208083019190915281830194909452606080820193909352815180820390930183526080019052805191012090565b5f6107c883600261086d565b61082c61082683838080601f0160208091040260200160405190810160405280939291908181526020018383808284375f92019190915250610ccc92505050565b60605f61095084848080601f0160208091040260200160405190810160405280939291908181526020018383808284375f9201829052509250610bb4915050565b90505f61099485858080601f0160208091040260200160405190810160405280939291908181526020018383808284375f9201919091525060149250610bb4915050565b90505f6109d886868080601f0160208091040260200160405190810160405280939291908181526020018383808284375f9201919091525060289250610d72915050565b90505f610a1c87878080601f0160208091040260200160405190810160405280939291908181526020018383808284375f9201919091525060489250610c34915050565b90508015610a8f576040516381cbe69160e01b81526001600160a01b0389811660048301528a16906381cbe69190602401602060405180830381865afa158015610a68573d5f5f3e3d5ffd5b505050506040513d601f19601f82011682018060405250810190610a8c919061117d565b91505b815f03610aaf576040516305112ab160e41b815260040160405180910390fd5b6001600160a01b038416610ad657604051630f58648f60e01b815260040160405180910390fd5b60408051600180825281830190925290816020015b60408051606080820183525f808352602083015291810191909152815260200190600190039081610aeb57905050604080516060810182526001600160a01b0380881682525f60208301528251908716602482015260448101869052929750919082019060640160408051601f198184030181529190526020810180516001600160e01b031663a9059cbb60e01b1790529052855186905f90610b9057610b9061113e565b602002602001018190525050505050949350505050565b5f5f6107a783600161086d565b5f610bc08260146110e3565b83511015610c0d5760405162461bcd60e51b8152602060048201526015602482015274746f416464726573735f6f75744f66426f756e647360581b60448201526064015b60405180910390fd5b500160200151600160601b900490565b610c27815f6108c2565b610c31815f6107bc565b50565b5f828281518110610c4757610c4761113e565b01602001516001600160f81b0319161515905092915050565b5f7f8ce092d4869bdfa1a1ce579ddddb2b776c39ace5d7b5d7e70e97ece2a78f4f9b82604051602001610caf92919091825260601b6bffffffffffffffffffffffff1916602082015260340190565b604051602081830303815290604052805190602001209050919050565b5f5f610cd8835f610bb4565b90505f610ce6846014610bb4565b6040516370a0823160e01b81526001600160a01b038083166004830152919250908316906370a0823190602401602060405180830381865afa158015610d2e573d5f5f3e3d5ffd5b505050506040513d601f19601f82011682018060405250810190610d52919061117d565b949350505050565b5f610d648261079c565b90505f6103a282600161086d565b5f610d7e8260206110e3565b83511015610dc65760405162461bcd60e51b8152602060048201526015602482015274746f55696e743235365f6f75744f66426f756e647360581b6044820152606401610c04565b50016020015190565b80356001600160a01b0381168114610de5575f5ffd5b919050565b5f5f83601f840112610dfa575f5ffd5b50813567ffffffffffffffff811115610e11575f5ffd5b602083019150836020828501011115610e28575f5ffd5b9250929050565b5f5f5f5f60608587031215610e42575f5ffd5b610e4b85610dcf565b9350610e5960208601610dcf565b9250604085013567ffffffffffffffff811115610e74575f5ffd5b610e8087828801610dea565b95989497509550505050565b5f60208284031215610e9c575f5ffd5b610ea582610dcf565b9392505050565b5f5f60408385031215610ebd575f5ffd5b82359150610ecd60208401610dcf565b90509250929050565b5f81518084528060208401602086015e5f602082860101526020601f19601f83011685010191505092915050565b5f602082016020835280845180835260408501915060408160051b8601019250602086015f5b82811015610f8557868503603f19018452815180516001600160a01b0316865260208082015190870152604090810151606091870182905290610f6f90870182610ed6565b9550506020938401939190910190600101610f2a565b50929695505050505050565b5f5f60208385031215610fa2575f5ffd5b823567ffffffffffffffff811115610fb8575f5ffd5b610fc485828601610dea565b90969095509350505050565b602081525f610ea56020830184610ed6565b602081016003831061100257634e487b7160e01b5f52602160045260245ffd5b91905290565b634e487b7160e01b5f52604160045260245ffd5b5f6020828403121561102c575f5ffd5b813567ffffffffffffffff811115611042575f5ffd5b8201601f81018413611052575f5ffd5b803567ffffffffffffffff81111561106c5761106c611008565b604051601f8201601f19908116603f0116810167ffffffffffffffff8111828210171561109b5761109b611008565b6040528181528282016020018610156110b2575f5ffd5b816020840160208301375f91810160200191909152949350505050565b634e487b7160e01b5f52601160045260245ffd5b8082018082111561064b5761064b6110cf565b6001600160a01b038581168252841660208201526060604082018190528101829052818360808301375f818301608090810191909152601f909201601f191601019392505050565b634e487b7160e01b5f52603260045260245ffd5b8181038181111561064b5761064b6110cf565b5f60018201611176576111766110cf565b5060010190565b5f6020828403121561118d575f5ffd5b505191905056fea164736f6c634300081e000a","linkReferences":{}},"methodIdentifiers":{"asset()":"38d52e0f","build(address,address,bytes)":"3b5896bc","decodeUsePrevHookAmount(bytes)":"e7745517","executionNonce()":"01bd43ef","getOutAmount(address)":"81cbe691","hookType()":"e445e7dd","inspect(bytes)":"8c4313c1","lastCaller()":"2113522a","postExecute(address,address,bytes)":"05b4fe91","preExecute(address,address,bytes)":"2ae2fe3d","resetExecutionState(address)":"d06a1e89","setExecutionContext(address)":"14cb37cf","setOutAmount(uint256,address)":"1f264619","spToken()":"8e148776","subType()":"cf0a6181","subtype()":"5492e677","usedShares()":"685a943c"},"id":491}