{"abi":[{"type":"constructor","inputs":[{"name":"_routerV2","type":"address","internalType":"address"}],"stateMutability":"nonpayable"},{"type":"function","name":"asset","inputs":[],"outputs":[{"name":"","type":"address","internalType":"address"}],"stateMutability":"view"},{"type":"function","name":"build","inputs":[{"name":"prevHook","type":"address","internalType":"address"},{"name":"account","type":"address","internalType":"address"},{"name":"hookData","type":"bytes","internalType":"bytes"}],"outputs":[{"name":"executions","type":"tuple[]","internalType":"struct Execution[]","components":[{"name":"target","type":"address","internalType":"address"},{"name":"value","type":"uint256","internalType":"uint256"},{"name":"callData","type":"bytes","internalType":"bytes"}]}],"stateMutability":"view"},{"type":"function","name":"decodeUsePrevHookAmount","inputs":[{"name":"data","type":"bytes","internalType":"bytes"}],"outputs":[{"name":"","type":"bool","internalType":"bool"}],"stateMutability":"pure"},{"type":"function","name":"executionNonce","inputs":[],"outputs":[{"name":"","type":"uint256","internalType":"uint256"}],"stateMutability":"view"},{"type":"function","name":"getOutAmount","inputs":[{"name":"caller","type":"address","internalType":"address"}],"outputs":[{"name":"","type":"uint256","internalType":"uint256"}],"stateMutability":"view"},{"type":"function","name":"hookType","inputs":[],"outputs":[{"name":"","type":"uint8","internalType":"enum ISuperHook.HookType"}],"stateMutability":"view"},{"type":"function","name":"inspect","inputs":[{"name":"data","type":"bytes","internalType":"bytes"}],"outputs":[{"name":"","type":"bytes","internalType":"bytes"}],"stateMutability":"view"},{"type":"function","name":"lastCaller","inputs":[],"outputs":[{"name":"","type":"address","internalType":"address"}],"stateMutability":"view"},{"type":"function","name":"odosRouterV2","inputs":[],"outputs":[{"name":"","type":"address","internalType":"contract IOdosRouterV2"}],"stateMutability":"view"},{"type":"function","name":"postExecute","inputs":[{"name":"prevHook","type":"address","internalType":"address"},{"name":"account","type":"address","internalType":"address"},{"name":"data","type":"bytes","internalType":"bytes"}],"outputs":[],"stateMutability":"nonpayable"},{"type":"function","name":"preExecute","inputs":[{"name":"prevHook","type":"address","internalType":"address"},{"name":"account","type":"address","internalType":"address"},{"name":"data","type":"bytes","internalType":"bytes"}],"outputs":[],"stateMutability":"nonpayable"},{"type":"function","name":"resetExecutionState","inputs":[{"name":"caller","type":"address","internalType":"address"}],"outputs":[],"stateMutability":"nonpayable"},{"type":"function","name":"setExecutionContext","inputs":[{"name":"caller","type":"address","internalType":"address"}],"outputs":[],"stateMutability":"nonpayable"},{"type":"function","name":"setOutAmount","inputs":[{"name":"_outAmount","type":"uint256","internalType":"uint256"},{"name":"caller","type":"address","internalType":"address"}],"outputs":[],"stateMutability":"nonpayable"},{"type":"function","name":"spToken","inputs":[],"outputs":[{"name":"","type":"address","internalType":"address"}],"stateMutability":"view"},{"type":"function","name":"subType","inputs":[],"outputs":[{"name":"","type":"bytes32","internalType":"bytes32"}],"stateMutability":"view"},{"type":"function","name":"subtype","inputs":[],"outputs":[{"name":"","type":"bytes32","internalType":"bytes32"}],"stateMutability":"view"},{"type":"function","name":"usedShares","inputs":[],"outputs":[{"name":"","type":"uint256","internalType":"uint256"}],"stateMutability":"view"},{"type":"error","name":"ADDRESS_NOT_VALID","inputs":[]},{"type":"error","name":"AMOUNT_NOT_VALID","inputs":[]},{"type":"error","name":"CANNOT_SET_OUT_AMOUNT","inputs":[]},{"type":"error","name":"INCOMPLETE_HOOK_EXECUTION","inputs":[]},{"type":"error","name":"NOT_AUTHORIZED","inputs":[]},{"type":"error","name":"POST_EXECUTE_ALREADY_CALLED","inputs":[]},{"type":"error","name":"PRE_EXECUTE_ALREADY_CALLED","inputs":[]},{"type":"error","name":"UNAUTHORIZED_CALLER","inputs":[]}],"bytecode":{"object":"0x60c060405234801561000f575f5ffd5b50604051611a73380380611a7383398101604081905261002e916100af565b6040805180820190915260048152630537761760e41b6020909101525f805460ff191690557fbce316f0d9d2a3affa97de1d99bb2aac0538e2666d0d8545545ead241ef0ccab6080526001600160a01b03811661009e57604051630f58648f60e01b815260040160405180910390fd5b6001600160a01b031660a0526100dc565b5f602082840312156100bf575f5ffd5b81516001600160a01b03811681146100d5575f5ffd5b9392505050565b60805160a05161195a6101195f395f81816102530152818161080a01528181610cdd0152610e8201525f81816101dd015261027a015261195a5ff3fe608060405234801561000f575f5ffd5b5060043610610111575f3560e01c8063685a943c1161009e578063cbb595d81161006e578063cbb595d81461024e578063cf0a618114610275578063d06a1e891461029c578063e445e7dd146102af578063e7745517146102c8575f5ffd5b8063685a943c1461020157806381cbe691146102095780638c4313c11461021c5780638e1487761461023c575f5ffd5b80632113522a116100e45780632113522a1461016c5780632ae2fe3d1461019657806338d52e0f146101a95780633b5896bc146101bb5780635492e677146101db575f5ffd5b806301bd43ef1461011557806305b4fe911461013157806314cb37cf146101465780631f26461914610159575b5f5ffd5b61011e60035c81565b6040519081526020015b60405180910390f35b61014461013f366004611556565b6102eb565b005b6101446101543660046115b3565b610365565b6101446101673660046115d3565b610386565b61017e6001600160a01b0360045c1681565b6040516001600160a01b039091168152602001610128565b6101446101a4366004611556565b6103df565b61017e6001600160a01b0360025c1681565b6101ce6101c9366004611556565b610452565b604051610128919061162b565b7f000000000000000000000000000000000000000000000000000000000000000061011e565b61011e5f5c81565b61011e6102173660046115b3565b61066b565b61022f61022a3660046116b8565b610683565b60405161012891906116f7565b61017e6001600160a01b0360015c1681565b61017e7f000000000000000000000000000000000000000000000000000000000000000081565b61011e7f000000000000000000000000000000000000000000000000000000000000000081565b6101446102aa3660046115b3565b610858565b5f546102bb9060ff1681565b6040516101289190611709565b6102db6102d6366004611743565b6108aa565b6040519015158152602001610128565b336001600160a01b038416146103145760405163e15e56c960e01b815260040160405180910390fd5b5f61031e846108b6565b9050610329816108c9565b156103475760405163945b63f560e01b815260040160405180910390fd5b6103528160016108d6565b61035e858585856108ec565b5050505050565b61036e8161094d565b50336004805c6001600160a01b0319168217905d5050565b5f610390826108b6565b905061039b8161097f565b806103aa57506103aa816108c9565b156103c85760405163441e4c7360e11b815260040160405180910390fd5b5f6103d4826001610988565b905083815d50505050565b336001600160a01b038416146104085760405163e15e56c960e01b815260040160405180910390fd5b5f610412846108b6565b905061041d8161097f565b1561043b57604051630bbb04d960e11b815260040160405180910390fd5b6104468160016109dd565b61035e858585856109e9565b60605f61046186868686610a2b565b905080516002610471919061180a565b67ffffffffffffffff8111156104895761048961172f565b6040519080825280602002602001820160405280156104d557816020015b60408051606080820183525f8083526020830152918101919091528152602001906001900390816104a75790505b5091506040518060600160405280306001600160a01b031681526020015f8152602001306001600160a01b0316632ae2fe3d8989898960405160240161051e949392919061181d565b604051602081830303815290604052915060e01b6020820180516001600160e01b038381831617835250505050815250825f8151811061056057610560611865565b60209081029190910101525f5b81518110156105c15781818151811061058857610588611865565b60200260200101518382600161059e919061180a565b815181106105ae576105ae611865565b602090810291909101015260010161056d565b506040518060600160405280306001600160a01b031681526020015f8152602001306001600160a01b03166305b4fe9189898989604051602401610608949392919061181d565b604051602081830303815290604052915060e01b6020820180516001600160e01b03838183161783525050505081525082600184516106479190611879565b8151811061065757610657611865565b602002602001018190525050949350505050565b5f61067d610678836108b6565b611008565b92915050565b60605f6106c784848080601f0160208091040260200160405190810160405280939291908181526020018383808284375f92019190915250609d9250611015915050565b90505f61071585858080601f0160208091040260200160405190810160405280939291908181526020018383808284375f92019190915250610710925086915060bd905061180a565b611077565b905061075585858080601f0160208091040260200160405190810160405280939291908181526020018383808284375f9201829052509250611077915050565b61079686868080601f0160208091040260200160405190810160405280939291908181526020018383808284375f9201919091525060349250611077915050565b6107d787878080601f0160208091040260200160405190810160405280939291908181526020018383808284375f9201919091525060489250611077915050565b6040516bffffffffffffffffffffffff19606094851b8116602083015292841b8316603482015290831b821660488201527f0000000000000000000000000000000000000000000000000000000000000000831b8216605c8201529183901b1660708201526084016040516020818303038152906040529250505092915050565b5f610862826108b6565b905061086d8161097f565b158061087f575061087d816108c9565b155b1561089d57604051634bd439b560e11b815260040160405180910390fd5b6108a6816110db565b5050565b5f61067d82609c6110f2565b5f5f6108c18361111e565b5c9392505050565b5f5f6108c1836003610988565b5f6108e2836003610988565b905081815d505050565b6109476108f88461066b565b6109378585858080601f0160208091040260200160405190810160405280939291908181526020018383808284375f9201919091525061118a92505050565b6109419190611879565b84611229565b50505050565b5f6003805c908261095d8361188c565b9190505d505f61096c8361111e565b905060035c80825d505060035c92915050565b5f5f6108c18360025b604080517fc41a07c57a776f6217c6d4278dfe7a5d114742afe55627ce458c2802aa4d703460208083019190915281830194909452606080820193909352815180820390930183526080019052805191012090565b5f6108e2836002610988565b6109476109418484848080601f0160208091040260200160405190810160405280939291908181526020018383808284375f9201919091525061118a92505050565b6040805160c0810182525f808252602080830182905282840182905260608084018190526080840183905260a084018390528451601f870183900483028101830190955285855293610a999187908790819084018382808284375f92019190915250609d9250611015915050565b9050610ade85858080601f0160208091040260200160405190810160405280939291908181526020018383808284375f9201919091525060bd92508591506112419050565b6060830152604080516020601f8701819004810282018101909252858152610b279187908790819084018382808284375f92019190915250610710925085915060bd905061180a565b6001600160a01b03166080830152604080516020601f8701819004810282018101909252858152610b899187908790819084018382808284375f92019190915250610b79925085915060bd905061180a565b610b8490601461180a565b611346565b63ffffffff1660a0830152604080516020601f8701819004810282018101909252858152610bd09187908790819084018382808284375f9201829052509250611077915050565b6001600160a01b03168252604080516020601f8701819004810282018101909252858152610c1a9187908790819084018382808284375f9201919091525060149250611015915050565b8260200181815250505f610c6586868080601f0160208091040260200160405190810160405280939291908181526020018383808284375f92019190915250609c92506110f2915050565b90508015610cdb576040516381cbe69160e01b81526001600160a01b0388811660048301528916906381cbe69190602401602060405180830381865afa158015610cb1573d5f5f3e3d5ffd5b505050506040513d601f19601f82011682018060405250810190610cd591906118a4565b60208401525b7f00000000000000000000000000000000000000000000000000000000000000006001600160a01b03166040848101919091528051600480825260a0820190925290816020015b60408051606080820183525f808352602083015291810191909152815260200190600190039081610d22579050506040805160608101825285516001600160a01b0390811682525f60208301819052878401518451921660248301526044820152929650919082019060640160408051601f198184030181529190526020810180516001600160e01b031663095ea7b360e01b1790529052845185905f90610dcc57610dcc611865565b60200260200101819052506040518060600160405280845f01516001600160a01b031681526020015f815260200184604001518560200151604051602401610e299291906001600160a01b03929092168252602082015260400190565b60408051601f198184030181529190526020810180516001600160e01b031663095ea7b360e01b1790529052845185906001908110610e6a57610e6a611865565b602002602001018190525060405180606001604052807f00000000000000000000000000000000000000000000000000000000000000006001600160a01b031681526020015f8152602001610ef5898b8a8a8080601f0160208091040260200160405190810160405280939291908181526020018383808284375f920191909152506113a292505050565b856060015186608001518760a00151604051602401610f1794939291906118bb565b60408051601f198184030181529190526020810180516001600160e01b0316630ed8d73960e21b1790529052845185906002908110610f5857610f58611865565b60200260200101819052506040518060600160405280845f01516001600160a01b031681526020015f815260200184604001515f604051602401610fb19291906001600160a01b03929092168252602082015260400190565b60408051601f198184030181529190526020810180516001600160e01b031663095ea7b360e01b1790529052845185906003908110610ff257610ff2611865565b6020026020010181905250505050949350505050565b5f5f6108c1836001610988565b5f61102182602061180a565b8351101561106e5760405162461bcd60e51b8152602060048201526015602482015274746f55696e743235365f6f75744f66426f756e647360581b60448201526064015b60405180910390fd5b50016020015190565b5f61108382601461180a565b835110156110cb5760405162461bcd60e51b8152602060048201526015602482015274746f416464726573735f6f75744f66426f756e647360581b6044820152606401611065565b500160200151600160601b900490565b6110e5815f6109dd565b6110ef815f6108d6565b50565b5f82828151811061110557611105611865565b01602001516001600160f81b0319161515905092915050565b5f7f8ce092d4869bdfa1a1ce579ddddb2b776c39ace5d7b5d7e70e97ece2a78f4f9b8260405160200161116d92919091825260601b6bffffffffffffffffffffffff1916602082015260340190565b604051602081830303815290604052805190602001209050919050565b5f5f611197836048611077565b90506001600160a01b0381166111b95750506001600160a01b0382163161067d565b6040516370a0823160e01b81526001600160a01b0385811660048301528216906370a0823190602401602060405180830381865afa1580156111fd573d5f5f3e3d5ffd5b505050506040513d601f19601f8201168201806040525081019061122191906118a4565b949350505050565b5f611233826108b6565b90505f6103d4826001610988565b60608182601f0110156112875760405162461bcd60e51b815260206004820152600e60248201526d736c6963655f6f766572666c6f7760901b6044820152606401611065565b611291828461180a565b845110156112d55760405162461bcd60e51b8152602060048201526011602482015270736c6963655f6f75744f66426f756e647360781b6044820152606401611065565b6060821580156112f35760405191505f82526020820160405261133d565b6040519150601f8416801560200281840101858101878315602002848b0101015b8183101561132c578051835260209283019201611314565b5050858452601f01601f1916604052505b50949350505050565b5f61135282600461180a565b835110156113995760405162461bcd60e51b8152602060048201526014602482015273746f55696e7433325f6f75744f66426f756e647360601b6044820152606401611065565b50016004015190565b6040805160e0810182525f80825260208201819052918101829052606081018290526080810182905260a0810182905260c08101829052906113e48382611077565b90505f6113f2846014611015565b90505f611400856034611077565b90505f61140e866048611077565b90505f61141c87605c611015565b90505f61142a88607c611015565b90505f61143889609c6110f2565b905080156114ab576040516381cbe69160e01b81526001600160a01b038c811660048301528b16906381cbe69190602401602060405180830381865afa158015611484573d5f5f3e3d5ffd5b505050506040513d601f19601f820116820180604052508101906114a891906118a4565b95505b506040805160e0810182526001600160a01b0397881681526020810196909652938616938501939093529084166060840152608083015260a0820152941660c0850152509192915050565b80356001600160a01b038116811461150c575f5ffd5b919050565b5f5f83601f840112611521575f5ffd5b50813567ffffffffffffffff811115611538575f5ffd5b60208301915083602082850101111561154f575f5ffd5b9250929050565b5f5f5f5f60608587031215611569575f5ffd5b611572856114f6565b9350611580602086016114f6565b9250604085013567ffffffffffffffff81111561159b575f5ffd5b6115a787828801611511565b95989497509550505050565b5f602082840312156115c3575f5ffd5b6115cc826114f6565b9392505050565b5f5f604083850312156115e4575f5ffd5b823591506115f4602084016114f6565b90509250929050565b5f81518084528060208401602086015e5f602082860101526020601f19601f83011685010191505092915050565b5f602082016020835280845180835260408501915060408160051b8601019250602086015f5b828110156116ac57868503603f19018452815180516001600160a01b0316865260208082015190870152604090810151606091870182905290611696908701826115fd565b9550506020938401939190910190600101611651565b50929695505050505050565b5f5f602083850312156116c9575f5ffd5b823567ffffffffffffffff8111156116df575f5ffd5b6116eb85828601611511565b90969095509350505050565b602081525f6115cc60208301846115fd565b602081016003831061172957634e487b7160e01b5f52602160045260245ffd5b91905290565b634e487b7160e01b5f52604160045260245ffd5b5f60208284031215611753575f5ffd5b813567ffffffffffffffff811115611769575f5ffd5b8201601f81018413611779575f5ffd5b803567ffffffffffffffff8111156117935761179361172f565b604051601f8201601f19908116603f0116810167ffffffffffffffff811182821017156117c2576117c261172f565b6040528181528282016020018610156117d9575f5ffd5b816020840160208301375f91810160200191909152949350505050565b634e487b7160e01b5f52601160045260245ffd5b8082018082111561067d5761067d6117f6565b6001600160a01b038581168252841660208201526060604082018190528101829052818360808301375f818301608090810191909152601f909201601f191601019392505050565b634e487b7160e01b5f52603260045260245ffd5b8181038181111561067d5761067d6117f6565b5f6001820161189d5761189d6117f6565b5060010190565b5f602082840312156118b4575f5ffd5b5051919050565b84516001600160a01b039081168252602080870151908301526040808701518216908301526060808701518216908301526080808701519083015260a0868101519083015260c0808701519091169082015261014060e082018190525f90611925908301866115fd565b6001600160a01b038516610100840152905063ffffffff83166101208301529594505050505056fea164736f6c634300081e000a","linkReferences":{}},"methodIdentifiers":{"asset()":"38d52e0f","build(address,address,bytes)":"3b5896bc","decodeUsePrevHookAmount(bytes)":"e7745517","executionNonce()":"01bd43ef","getOutAmount(address)":"81cbe691","hookType()":"e445e7dd","inspect(bytes)":"8c4313c1","lastCaller()":"2113522a","odosRouterV2()":"cbb595d8","postExecute(address,address,bytes)":"05b4fe91","preExecute(address,address,bytes)":"2ae2fe3d","resetExecutionState(address)":"d06a1e89","setExecutionContext(address)":"14cb37cf","setOutAmount(uint256,address)":"1f264619","spToken()":"8e148776","subType()":"cf0a6181","subtype()":"5492e677","usedShares()":"685a943c"},"id":464}