{"abi":[{"type":"constructor","inputs":[],"stateMutability":"nonpayable"},{"type":"function","name":"asset","inputs":[],"outputs":[{"name":"","type":"address","internalType":"address"}],"stateMutability":"view"},{"type":"function","name":"build","inputs":[{"name":"prevHook","type":"address","internalType":"address"},{"name":"account","type":"address","internalType":"address"},{"name":"hookData","type":"bytes","internalType":"bytes"}],"outputs":[{"name":"executions","type":"tuple[]","internalType":"struct Execution[]","components":[{"name":"target","type":"address","internalType":"address"},{"name":"value","type":"uint256","internalType":"uint256"},{"name":"callData","type":"bytes","internalType":"bytes"}]}],"stateMutability":"view"},{"type":"function","name":"decodeUsePrevHookAmount","inputs":[{"name":"data","type":"bytes","internalType":"bytes"}],"outputs":[{"name":"","type":"bool","internalType":"bool"}],"stateMutability":"pure"},{"type":"function","name":"executionNonce","inputs":[],"outputs":[{"name":"","type":"uint256","internalType":"uint256"}],"stateMutability":"view"},{"type":"function","name":"getOutAmount","inputs":[{"name":"caller","type":"address","internalType":"address"}],"outputs":[{"name":"","type":"uint256","internalType":"uint256"}],"stateMutability":"view"},{"type":"function","name":"hookType","inputs":[],"outputs":[{"name":"","type":"uint8","internalType":"enum ISuperHook.HookType"}],"stateMutability":"view"},{"type":"function","name":"inspect","inputs":[{"name":"data","type":"bytes","internalType":"bytes"}],"outputs":[{"name":"","type":"bytes","internalType":"bytes"}],"stateMutability":"pure"},{"type":"function","name":"lastCaller","inputs":[],"outputs":[{"name":"","type":"address","internalType":"address"}],"stateMutability":"view"},{"type":"function","name":"postExecute","inputs":[{"name":"prevHook","type":"address","internalType":"address"},{"name":"account","type":"address","internalType":"address"},{"name":"data","type":"bytes","internalType":"bytes"}],"outputs":[],"stateMutability":"nonpayable"},{"type":"function","name":"preExecute","inputs":[{"name":"prevHook","type":"address","internalType":"address"},{"name":"account","type":"address","internalType":"address"},{"name":"data","type":"bytes","internalType":"bytes"}],"outputs":[],"stateMutability":"nonpayable"},{"type":"function","name":"resetExecutionState","inputs":[{"name":"caller","type":"address","internalType":"address"}],"outputs":[],"stateMutability":"nonpayable"},{"type":"function","name":"setExecutionContext","inputs":[{"name":"caller","type":"address","internalType":"address"}],"outputs":[],"stateMutability":"nonpayable"},{"type":"function","name":"setOutAmount","inputs":[{"name":"_outAmount","type":"uint256","internalType":"uint256"},{"name":"caller","type":"address","internalType":"address"}],"outputs":[],"stateMutability":"nonpayable"},{"type":"function","name":"spToken","inputs":[],"outputs":[{"name":"","type":"address","internalType":"address"}],"stateMutability":"view"},{"type":"function","name":"subType","inputs":[],"outputs":[{"name":"","type":"bytes32","internalType":"bytes32"}],"stateMutability":"view"},{"type":"function","name":"subtype","inputs":[],"outputs":[{"name":"","type":"bytes32","internalType":"bytes32"}],"stateMutability":"view"},{"type":"function","name":"usedShares","inputs":[],"outputs":[{"name":"","type":"uint256","internalType":"uint256"}],"stateMutability":"view"},{"type":"error","name":"ADDRESS_NOT_VALID","inputs":[]},{"type":"error","name":"AMOUNT_NOT_VALID","inputs":[]},{"type":"error","name":"CANNOT_SET_OUT_AMOUNT","inputs":[]},{"type":"error","name":"INCOMPLETE_HOOK_EXECUTION","inputs":[]},{"type":"error","name":"NOT_AUTHORIZED","inputs":[]},{"type":"error","name":"POST_EXECUTE_ALREADY_CALLED","inputs":[]},{"type":"error","name":"PRE_EXECUTE_ALREADY_CALLED","inputs":[]},{"type":"error","name":"UNAUTHORIZED_CALLER","inputs":[]}],"bytecode":{"object":"0x60a0604052348015600e575f5ffd5b506040805180820190915260058152642a37b5b2b760d91b6020909101525f805460ff191690557f1317f51c845ce3bfb7c268e5337a825f12f3d0af9584c2bbfbf4e64e314eaf736080526080516111d06100785f395f81816101d2015261024801526111d05ff3fe608060405234801561000f575f5ffd5b5060043610610106575f3560e01c80635492e6771161009e5780638e1487761161006e5780638e14877614610231578063cf0a618114610243578063d06a1e891461026a578063e445e7dd1461027d578063e774551714610296575f5ffd5b80635492e677146101d0578063685a943c146101f657806381cbe691146101fe5780638c4313c114610211575f5ffd5b80632113522a116100d95780632113522a146101615780632ae2fe3d1461018b57806338d52e0f1461019e5780633b5896bc146101b0575f5ffd5b806301bd43ef1461010a57806305b4fe911461012657806314cb37cf1461013b5780631f2646191461014e575b5f5ffd5b61011360035c81565b6040519081526020015b60405180910390f35b610139610134366004610e5e565b6102b9565b005b610139610149366004610ebb565b610333565b61013961015c366004610edb565b610354565b6101736001600160a01b0360045c1681565b6040516001600160a01b03909116815260200161011d565b610139610199366004610e5e565b6103ad565b6101736001600160a01b0360025c1681565b6101c36101be366004610e5e565b610419565b60405161011d9190610f33565b7f0000000000000000000000000000000000000000000000000000000000000000610113565b6101135f5c81565b61011361020c366004610ebb565b610632565b61022461021f366004610fc0565b61064a565b60405161011d9190610fff565b6101736001600160a01b0360015c1681565b6101137f000000000000000000000000000000000000000000000000000000000000000081565b610139610278366004610ebb565b61070c565b5f546102899060ff1681565b60405161011d9190611011565b6102a96102a436600461104b565b61075e565b604051901515815260200161011d565b336001600160a01b038416146102e25760405163e15e56c960e01b815260040160405180910390fd5b5f6102ec8461076a565b90506102f78161077d565b156103155760405163945b63f560e01b815260040160405180910390fd5b61032081600161078a565b61032c858585856107a0565b5050505050565b61033c816108a8565b50336004805c6001600160a01b0319168217905d5050565b5f61035e8261076a565b9050610369816108da565b8061037857506103788161077d565b156103965760405163441e4c7360e11b815260040160405180910390fd5b5f6103a28260016108e3565b905083815d50505050565b336001600160a01b038416146103d65760405163e15e56c960e01b815260040160405180910390fd5b5f6103e08461076a565b90506103eb816108da565b1561040957604051630bbb04d960e11b815260040160405180910390fd5b610414816001610938565b61032c565b60605f61042886868686610944565b9050805160026104389190611112565b67ffffffffffffffff81111561045057610450611037565b60405190808252806020026020018201604052801561049c57816020015b60408051606080820183525f80835260208301529181019190915281526020019060019003908161046e5790505b5091506040518060600160405280306001600160a01b031681526020015f8152602001306001600160a01b0316632ae2fe3d898989896040516024016104e59493929190611125565b604051602081830303815290604052915060e01b6020820180516001600160e01b038381831617835250505050815250825f815181106105275761052761116d565b60209081029190910101525f5b81518110156105885781818151811061054f5761054f61116d565b6020026020010151838260016105659190611112565b815181106105755761057561116d565b6020908102919091010152600101610534565b506040518060600160405280306001600160a01b031681526020015f8152602001306001600160a01b03166305b4fe91898989896040516024016105cf9493929190611125565b604051602081830303815290604052915060e01b6020820180516001600160e01b038381831617835250505050815250826001845161060e9190611181565b8151811061061e5761061e61116d565b602002602001018190525050949350505050565b5f61064461063f8361076a565b610c64565b92915050565b606061068a83838080601f0160208091040260200160405190810160405280939291908181526020018383808284375f9201829052509250610c71915050565b6106cb84848080601f0160208091040260200160405190810160405280939291908181526020018383808284375f9201919091525060149250610c71915050565b6040516bffffffffffffffffffffffff19606093841b811660208301529190921b166034820152604801604051602081830303815290604052905092915050565b5f6107168261076a565b9050610721816108da565b158061073357506107318161077d565b155b1561075157604051634bd439b560e11b815260040160405180910390fd5b61075a81610cda565b5050565b5f610644826048610cf1565b5f5f61077583610d1d565b5c9392505050565b5f5f6107758360036108e3565b5f6107968360036108e3565b905081815d505050565b5f6107df83838080601f0160208091040260200160405190810160405280939291908181526020018383808284375f9201829052509250610c71915050565b90505f61082384848080601f0160208091040260200160405190810160405280939291908181526020018383808284375f9201919091525060149250610c71915050565b604051636eb1769f60e11b81526001600160a01b03878116600483015280831660248301529192506108a09184169063dd62ed3e90604401602060405180830381865afa158015610876573d5f5f3e3d5ffd5b505050506040513d601f19601f8201168201806040525081019061089a9190611194565b86610d89565b505050505050565b5f6003805c90826108b8836111ab565b9190505d505f6108c783610d1d565b905060035c80825d505060035c92915050565b5f5f6107758360025b604080517fc41a07c57a776f6217c6d4278dfe7a5d114742afe55627ce458c2802aa4d703460208083019190915281830194909452606080820193909352815180820390930183526080019052805191012090565b5f6107968360026108e3565b60605f61098584848080601f0160208091040260200160405190810160405280939291908181526020018383808284375f9201829052509250610c71915050565b90505f6109c985858080601f0160208091040260200160405190810160405280939291908181526020018383808284375f9201919091525060149250610c71915050565b90505f610a0d86868080601f0160208091040260200160405190810160405280939291908181526020018383808284375f9201919091525060289250610da1915050565b90505f610a5187878080601f0160208091040260200160405190810160405280939291908181526020018383808284375f9201919091525060489250610cf1915050565b90508015610ac4576040516381cbe69160e01b81526001600160a01b0389811660048301528a16906381cbe69190602401602060405180830381865afa158015610a9d573d5f5f3e3d5ffd5b505050506040513d601f19601f82011682018060405250810190610ac19190611194565b91505b6001600160a01b0384161580610ae157506001600160a01b038316155b15610aff57604051630f58648f60e01b815260040160405180910390fd5b6040805160028082526060820190925290816020015b60408051606080820183525f808352602083015291810191909152815260200190600190039081610b1557905050604080516060810182526001600160a01b0380881682525f60208301819052835191881660248301526044820152929750919082019060640160408051601f198184030181529190526020810180516001600160e01b031663095ea7b360e01b1790529052855186905f90610bba57610bba61116d565b60200260200101819052506040518060600160405280856001600160a01b031681526020015f81526020018484604051602401610c0c9291906001600160a01b03929092168252602082015260400190565b60408051601f198184030181529190526020810180516001600160e01b031663095ea7b360e01b1790529052855186906001908110610c4d57610c4d61116d565b602002602001018190525050505050949350505050565b5f5f6107758360016108e3565b5f610c7d826014611112565b83511015610cca5760405162461bcd60e51b8152602060048201526015602482015274746f416464726573735f6f75744f66426f756e647360581b60448201526064015b60405180910390fd5b500160200151600160601b900490565b610ce4815f610938565b610cee815f61078a565b50565b5f828281518110610d0457610d0461116d565b01602001516001600160f81b0319161515905092915050565b5f7f8ce092d4869bdfa1a1ce579ddddb2b776c39ace5d7b5d7e70e97ece2a78f4f9b82604051602001610d6c92919091825260601b6bffffffffffffffffffffffff1916602082015260340190565b604051602081830303815290604052805190602001209050919050565b5f610d938261076a565b90505f6103a28260016108e3565b5f610dad826020611112565b83511015610df55760405162461bcd60e51b8152602060048201526015602482015274746f55696e743235365f6f75744f66426f756e647360581b6044820152606401610cc1565b50016020015190565b80356001600160a01b0381168114610e14575f5ffd5b919050565b5f5f83601f840112610e29575f5ffd5b50813567ffffffffffffffff811115610e40575f5ffd5b602083019150836020828501011115610e57575f5ffd5b9250929050565b5f5f5f5f60608587031215610e71575f5ffd5b610e7a85610dfe565b9350610e8860208601610dfe565b9250604085013567ffffffffffffffff811115610ea3575f5ffd5b610eaf87828801610e19565b95989497509550505050565b5f60208284031215610ecb575f5ffd5b610ed482610dfe565b9392505050565b5f5f60408385031215610eec575f5ffd5b82359150610efc60208401610dfe565b90509250929050565b5f81518084528060208401602086015e5f602082860101526020601f19601f83011685010191505092915050565b5f602082016020835280845180835260408501915060408160051b8601019250602086015f5b82811015610fb457868503603f19018452815180516001600160a01b0316865260208082015190870152604090810151606091870182905290610f9e90870182610f05565b9550506020938401939190910190600101610f59565b50929695505050505050565b5f5f60208385031215610fd1575f5ffd5b823567ffffffffffffffff811115610fe7575f5ffd5b610ff385828601610e19565b90969095509350505050565b602081525f610ed46020830184610f05565b602081016003831061103157634e487b7160e01b5f52602160045260245ffd5b91905290565b634e487b7160e01b5f52604160045260245ffd5b5f6020828403121561105b575f5ffd5b813567ffffffffffffffff811115611071575f5ffd5b8201601f81018413611081575f5ffd5b803567ffffffffffffffff81111561109b5761109b611037565b604051601f8201601f19908116603f0116810167ffffffffffffffff811182821017156110ca576110ca611037565b6040528181528282016020018610156110e1575f5ffd5b816020840160208301375f91810160200191909152949350505050565b634e487b7160e01b5f52601160045260245ffd5b80820180821115610644576106446110fe565b6001600160a01b038581168252841660208201526060604082018190528101829052818360808301375f818301608090810191909152601f909201601f191601019392505050565b634e487b7160e01b5f52603260045260245ffd5b81810381811115610644576106446110fe565b5f602082840312156111a4575f5ffd5b5051919050565b5f600182016111bc576111bc6110fe565b506001019056fea164736f6c634300081e000a","linkReferences":{}},"methodIdentifiers":{"asset()":"38d52e0f","build(address,address,bytes)":"3b5896bc","decodeUsePrevHookAmount(bytes)":"e7745517","executionNonce()":"01bd43ef","getOutAmount(address)":"81cbe691","hookType()":"e445e7dd","inspect(bytes)":"8c4313c1","lastCaller()":"2113522a","postExecute(address,address,bytes)":"05b4fe91","preExecute(address,address,bytes)":"2ae2fe3d","resetExecutionState(address)":"d06a1e89","setExecutionContext(address)":"14cb37cf","setOutAmount(uint256,address)":"1f264619","spToken()":"8e148776","subType()":"cf0a6181","subtype()":"5492e677","usedShares()":"685a943c"},"id":472}