{"abi":[{"type":"constructor","inputs":[{"name":"permit2_","type":"address","internalType":"address"}],"stateMutability":"nonpayable"},{"type":"function","name":"PERMIT_2","inputs":[],"outputs":[{"name":"","type":"address","internalType":"address"}],"stateMutability":"view"},{"type":"function","name":"PERMIT_2_INTERFACE","inputs":[],"outputs":[{"name":"","type":"address","internalType":"contract IPermit2"}],"stateMutability":"view"},{"type":"function","name":"asset","inputs":[],"outputs":[{"name":"","type":"address","internalType":"address"}],"stateMutability":"view"},{"type":"function","name":"build","inputs":[{"name":"prevHook","type":"address","internalType":"address"},{"name":"account","type":"address","internalType":"address"},{"name":"hookData","type":"bytes","internalType":"bytes"}],"outputs":[{"name":"executions","type":"tuple[]","internalType":"struct Execution[]","components":[{"name":"target","type":"address","internalType":"address"},{"name":"value","type":"uint256","internalType":"uint256"},{"name":"callData","type":"bytes","internalType":"bytes"}]}],"stateMutability":"view"},{"type":"function","name":"executionNonce","inputs":[],"outputs":[{"name":"","type":"uint256","internalType":"uint256"}],"stateMutability":"view"},{"type":"function","name":"getOutAmount","inputs":[{"name":"caller","type":"address","internalType":"address"}],"outputs":[{"name":"","type":"uint256","internalType":"uint256"}],"stateMutability":"view"},{"type":"function","name":"hookType","inputs":[],"outputs":[{"name":"","type":"uint8","internalType":"enum ISuperHook.HookType"}],"stateMutability":"view"},{"type":"function","name":"inspect","inputs":[{"name":"data","type":"bytes","internalType":"bytes"}],"outputs":[{"name":"","type":"bytes","internalType":"bytes"}],"stateMutability":"pure"},{"type":"function","name":"lastCaller","inputs":[],"outputs":[{"name":"","type":"address","internalType":"address"}],"stateMutability":"view"},{"type":"function","name":"postExecute","inputs":[{"name":"prevHook","type":"address","internalType":"address"},{"name":"account","type":"address","internalType":"address"},{"name":"data","type":"bytes","internalType":"bytes"}],"outputs":[],"stateMutability":"nonpayable"},{"type":"function","name":"preExecute","inputs":[{"name":"prevHook","type":"address","internalType":"address"},{"name":"account","type":"address","internalType":"address"},{"name":"data","type":"bytes","internalType":"bytes"}],"outputs":[],"stateMutability":"nonpayable"},{"type":"function","name":"resetExecutionState","inputs":[{"name":"caller","type":"address","internalType":"address"}],"outputs":[],"stateMutability":"nonpayable"},{"type":"function","name":"setExecutionContext","inputs":[{"name":"caller","type":"address","internalType":"address"}],"outputs":[],"stateMutability":"nonpayable"},{"type":"function","name":"setOutAmount","inputs":[{"name":"_outAmount","type":"uint256","internalType":"uint256"},{"name":"caller","type":"address","internalType":"address"}],"outputs":[],"stateMutability":"nonpayable"},{"type":"function","name":"spToken","inputs":[],"outputs":[{"name":"","type":"address","internalType":"address"}],"stateMutability":"view"},{"type":"function","name":"subType","inputs":[],"outputs":[{"name":"","type":"bytes32","internalType":"bytes32"}],"stateMutability":"view"},{"type":"function","name":"subtype","inputs":[],"outputs":[{"name":"","type":"bytes32","internalType":"bytes32"}],"stateMutability":"view"},{"type":"function","name":"usedShares","inputs":[],"outputs":[{"name":"","type":"uint256","internalType":"uint256"}],"stateMutability":"view"},{"type":"error","name":"ADDRESS_NOT_VALID","inputs":[]},{"type":"error","name":"AMOUNT_NOT_VALID","inputs":[]},{"type":"error","name":"CANNOT_SET_OUT_AMOUNT","inputs":[]},{"type":"error","name":"INCOMPLETE_HOOK_EXECUTION","inputs":[]},{"type":"error","name":"INSUFFICIENT_BALANCE","inputs":[]},{"type":"error","name":"INVALID_ARRAY_LENGTH","inputs":[]},{"type":"error","name":"NOT_AUTHORIZED","inputs":[]},{"type":"error","name":"POST_EXECUTE_ALREADY_CALLED","inputs":[]},{"type":"error","name":"PRE_EXECUTE_ALREADY_CALLED","inputs":[]},{"type":"error","name":"SafeCastOverflowedUintDowncast","inputs":[{"name":"bits","type":"uint8","internalType":"uint8"},{"name":"value","type":"uint256","internalType":"uint256"}]},{"type":"error","name":"UNAUTHORIZED_CALLER","inputs":[]}],"bytecode":{"object":"0x60e060405234801561000f575f5ffd5b50604051611a11380380611a1183398101604081905261002e916100b5565b6040805180820190915260058152642a37b5b2b760d91b6020909101525f805460ff191690557f1317f51c845ce3bfb7c268e5337a825f12f3d0af9584c2bbfbf4e64e314eaf736080526001600160a01b03811661009f57604051630f58648f60e01b815260040160405180910390fd5b6001600160a01b031660a081905260c0526100e2565b5f602082840312156100c5575f5ffd5b81516001600160a01b03811681146100db575f5ffd5b9392505050565b60805160a05160c0516118f06101215f395f61027a01525f818161020e01528181610eb50152610f7701525f81816101dd01526102a101526118f05ff3fe608060405234801561000f575f5ffd5b5060043610610111575f3560e01c8063685a943c1161009e5780638e1487761161006e5780638e148776146102635780639d01021714610275578063cf0a61811461029c578063d06a1e89146102c3578063e445e7dd146102d6575f5ffd5b8063685a943c14610201578063789d72fa1461020957806381cbe691146102305780638c4313c114610243575f5ffd5b80632113522a116100e45780632113522a1461016c5780632ae2fe3d1461019657806338d52e0f146101a95780633b5896bc146101bb5780635492e677146101db575f5ffd5b806301bd43ef1461011557806305b4fe911461013157806314cb37cf146101465780631f26461914610159575b5f5ffd5b61011e60035c81565b6040519081526020015b60405180910390f35b61014461013f366004611491565b6102ef565b005b6101446101543660046114ee565b61035d565b61014461016736600461150e565b61037e565b61017e6001600160a01b0360045c1681565b6040516001600160a01b039091168152602001610128565b6101446101a4366004611491565b6103d7565b61017e6001600160a01b0360025c1681565b6101ce6101c9366004611491565b61043e565b6040516101289190611566565b7f000000000000000000000000000000000000000000000000000000000000000061011e565b61011e5f5c81565b61017e7f000000000000000000000000000000000000000000000000000000000000000081565b61011e61023e3660046114ee565b610657565b6102566102513660046115f3565b61066f565b6040516101289190611632565b61017e6001600160a01b0360015c1681565b61017e7f000000000000000000000000000000000000000000000000000000000000000081565b61011e7f000000000000000000000000000000000000000000000000000000000000000081565b6101446102d13660046114ee565b61086a565b5f546102e29060ff1681565b6040516101289190611644565b336001600160a01b038416146103185760405163e15e56c960e01b815260040160405180910390fd5b5f610322846108bc565b905061032d816108cf565b1561034b5760405163945b63f560e01b815260040160405180910390fd5b6103568160016108dc565b5050505050565b610366816108f2565b50336004805c6001600160a01b0319168217905d5050565b5f610388826108bc565b905061039381610924565b806103a257506103a2816108cf565b156103c05760405163441e4c7360e11b815260040160405180910390fd5b5f6103cc82600161092d565b905083815d50505050565b336001600160a01b038416146104005760405163e15e56c960e01b815260040160405180910390fd5b5f61040a846108bc565b905061041581610924565b1561043357604051630bbb04d960e11b815260040160405180910390fd5b610356816001610982565b60605f61044d8686868661098e565b90508051600261045d919061167e565b67ffffffffffffffff81111561047557610475611691565b6040519080825280602002602001820160405280156104c157816020015b60408051606080820183525f8083526020830152918101919091528152602001906001900390816104935790505b5091506040518060600160405280306001600160a01b031681526020015f8152602001306001600160a01b0316632ae2fe3d8989898960405160240161050a94939291906116a5565b604051602081830303815290604052915060e01b6020820180516001600160e01b038381831617835250505050815250825f8151811061054c5761054c6116ed565b60209081029190910101525f5b81518110156105ad57818181518110610574576105746116ed565b60200260200101518382600161058a919061167e565b8151811061059a5761059a6116ed565b6020908102919091010152600101610559565b506040518060600160405280306001600160a01b031681526020015f8152602001306001600160a01b03166305b4fe91898989896040516024016105f494939291906116a5565b604051602081830303815290604052915060e01b6020820180516001600160e01b03838183161783525050505081525082600184516106339190611701565b81518110610643576106436116ed565b602002602001018190525050949350505050565b5f610669610664836108bc565b610fd6565b92915050565b60605f6106b384848080601f0160208091040260200160405190810160405280939291908181526020018383808284375f9201919091525060149250610fe3915050565b90505f61070385858080601f0160208091040260200160405190810160405280939291908181526020018383808284375f92019190915250605492506106fe91508690506014611714565b611045565b90505f8267ffffffffffffffff81111561071f5761071f611691565b604051908082528060200260200182016040528015610748578160200160208202803683370190505b5090505f5b8381101561079b5761076983610764836014611714565b61114a565b82828151811061077b5761077b6116ed565b6001600160a01b039092166020928302919091019091015260010161074d565b505f6107db87878080601f0160208091040260200160405190810160405280939291908181526020018383808284375f920182905250925061114a915050565b6040516020016107fe919060609190911b6001600160601b031916815260140190565b60405160208183030381529060405290505f5b8481101561085f578183828151811061082c5761082c6116ed565b602002602001015160405160200161084592919061172b565b60408051601f198184030181529190529150600101610811565b509695505050505050565b5f610874826108bc565b905061087f81610924565b1580610891575061088f816108cf565b155b156108af57604051634bd439b560e11b815260040160405180910390fd5b6108b8816111ae565b5050565b5f5f6108c7836111c5565b5c9392505050565b5f5f6108c783600361092d565b5f6108e883600361092d565b905081815d505050565b5f6003805c908261090283611755565b9190505d505f610911836111c5565b905060035c80825d505060035c92915050565b5f5f6108c78360025b604080517fc41a07c57a776f6217c6d4278dfe7a5d114742afe55627ce458c2802aa4d703460208083019190915281830194909452606080820193909352815180820390930183526080019052805191012090565b5f6108e883600261092d565b60606109986113af565b6109d684848080601f0160208091040260200160405190810160405280939291908181526020018383808284375f920182905250925061114a915050565b6001600160a01b03168082526109ff57604051630f58648f60e01b815260040160405180910390fd5b610a4084848080601f0160208091040260200160405190810160405280939291908181526020018383808284375f9201919091525060149250610fe3915050565b602082018190525f03610a665760405163c6a335ff60e01b815260040160405180910390fd5b610aa784848080601f0160208091040260200160405190810160405280939291908181526020018383808284375f9201919091525060349250610fe3915050565b816040018181525050610afb84848080601f0160208091040260200160405190810160405280939291908181526020018383808284375f9201919091525050506020840151605491506106fe906014611714565b6060820152604080516020601f8601819004810282018101909252848152610b609186908690819084018382808284375f9201919091525050506020840151610b4691506014611714565b610b5190605461167e565b6020808501516106fe91611714565b6080820152604080516020601f8601819004810282018101909252848152610bdf9186908690819084018382808284375f92019190915250505050602083810151610baa91611714565b6020840151610bba906014611714565b610bc590605461167e565b610bcf919061167e565b60208401516106fe906006611714565b60a0820152604080516020601f8601819004810282018101909252848152610c2f9186908690819084018382808284375f92019190915250610c28925060419150879050611701565b6041611045565b60c08201526040805160028082526060820190925290816020015b60408051606080820183525f808352602083015291810191909152815260200190600190039081610c4a579050509150806020015167ffffffffffffffff811115610c9757610c97611691565b604051908082528060200260200182016040528015610ce757816020015b604080516080810182525f8082526020808301829052928201819052606082015282525f19909201910181610cb55790505b5060e08201525f5b8160200151811015610e2f575f610d1183606001518360146107649190611714565b90505f610d2e8460800151846020610d299190611714565b610fe3565b90505f610d4d8560a00151856006610d469190611714565b6006611045565b90505f60d0610d5b8361176d565b901c90506001600160a01b038416610d8657604051630f58648f60e01b815260040160405180910390fd5b825f03610da6576040516305112ab160e41b815260040160405180910390fd5b6040518060800160405280856001600160a01b03168152602001610dc98561122c565b6001600160a01b03168152602001610de48860400151611263565b65ffffffffffff1681526020018265ffffffffffff168152508660e001518681518110610e1357610e136116ed565b6020026020010181905250505050508080600101915050610cef565b506040805160608101825260e083015181526001600160a01b038716602082015282820151818301526101008301819052825160c084015192515f93610e789391602401611793565b60408051601f19818403018152918152602080830180516001600160e01b0316632a2d80d160e01b17905281516060810183526001600160a01b037f00000000000000000000000000000000000000000000000000000000000000001681525f91810182905291820183905285519293509091859190610efa57610efa6116ed565b6020026020010181905250610f21825f015187846060015185608001518660200151611295565b61012083018190526040515f91610f3a9160240161186c565b60408051601f19818403018152918152602080830180516001600160e01b0316630d58b1db60e01b17905281516060810183526001600160a01b037f00000000000000000000000000000000000000000000000000000000000000001681525f9181019190915290810182905285519192509085906001908110610fc057610fc06116ed565b6020026020010181905250505050949350505050565b5f5f6108c783600161092d565b5f610fef82602061167e565b8351101561103c5760405162461bcd60e51b8152602060048201526015602482015274746f55696e743235365f6f75744f66426f756e647360581b60448201526064015b60405180910390fd5b50016020015190565b60608182601f01101561108b5760405162461bcd60e51b815260206004820152600e60248201526d736c6963655f6f766572666c6f7760901b6044820152606401611033565b611095828461167e565b845110156110d95760405162461bcd60e51b8152602060048201526011602482015270736c6963655f6f75744f66426f756e647360781b6044820152606401611033565b6060821580156110f75760405191505f825260208201604052611141565b6040519150601f8416801560200281840101858101878315602002848b0101015b81831015611130578051835260209283019201611118565b5050858452601f01601f1916604052505b50949350505050565b5f61115682601461167e565b8351101561119e5760405162461bcd60e51b8152602060048201526015602482015274746f416464726573735f6f75744f66426f756e647360581b6044820152606401611033565b500160200151600160601b900490565b6111b8815f610982565b6111c2815f6108dc565b50565b5f7f8ce092d4869bdfa1a1ce579ddddb2b776c39ace5d7b5d7e70e97ece2a78f4f9b8260405160200161120f92919091825260601b6001600160601b031916602082015260340190565b604051602081830303815290604052805190602001209050919050565b5f6001600160a01b0382111561125f576040516306dfcc6560e41b815260a0600482015260248101839052604401611033565b5090565b5f65ffffffffffff82111561125f576040516306dfcc6560e41b81526030600482015260248101839052604401611033565b60608167ffffffffffffffff8111156112b0576112b0611691565b60405190808252806020026020018201604052801561130057816020015b604080516080810182525f8082526020808301829052928201819052606082015282525f199092019101816112ce5790505b5090505f5b828110156113a5575f61131d86610764846014611714565b90505f61132f86610d29856020611714565b905060405180608001604052808a6001600160a01b03168152602001896001600160a01b031681526020016113638361122c565b6001600160a01b03168152602001836001600160a01b0316815250848481518110611390576113906116ed565b60209081029190910101525050600101611305565b5095945050505050565b6040518061014001604052805f6001600160a01b031681526020015f81526020015f815260200160608152602001606081526020016060815260200160608152602001606081526020016114246040518060600160405280606081526020015f6001600160a01b031681526020015f81525090565b8152602001606081525090565b80356001600160a01b0381168114611447575f5ffd5b919050565b5f5f83601f84011261145c575f5ffd5b50813567ffffffffffffffff811115611473575f5ffd5b60208301915083602082850101111561148a575f5ffd5b9250929050565b5f5f5f5f606085870312156114a4575f5ffd5b6114ad85611431565b93506114bb60208601611431565b9250604085013567ffffffffffffffff8111156114d6575f5ffd5b6114e28782880161144c565b95989497509550505050565b5f602082840312156114fe575f5ffd5b61150782611431565b9392505050565b5f5f6040838503121561151f575f5ffd5b8235915061152f60208401611431565b90509250929050565b5f81518084528060208401602086015e5f602082860101526020601f19601f83011685010191505092915050565b5f602082016020835280845180835260408501915060408160051b8601019250602086015f5b828110156115e757868503603f19018452815180516001600160a01b03168652602080820151908701526040908101516060918701829052906115d190870182611538565b955050602093840193919091019060010161158c565b50929695505050505050565b5f5f60208385031215611604575f5ffd5b823567ffffffffffffffff81111561161a575f5ffd5b6116268582860161144c565b90969095509350505050565b602081525f6115076020830184611538565b602081016003831061166457634e487b7160e01b5f52602160045260245ffd5b91905290565b634e487b7160e01b5f52601160045260245ffd5b808201808211156106695761066961166a565b634e487b7160e01b5f52604160045260245ffd5b6001600160a01b038581168252841660208201526060604082018190528101829052818360808301375f818301608090810191909152601f909201601f191601019392505050565b634e487b7160e01b5f52603260045260245ffd5b818103818111156106695761066961166a565b80820281158282048414176106695761066961166a565b5f83518060208601845e60609390931b6001600160601b0319169190920190815260140192915050565b5f600182016117665761176661166a565b5060010190565b8051602080830151919081101561178d575f198160200360031b1b821691505b50919050565b6001600160a01b038416815260606020808301829052845182840192909252815160c084018190525f9290910190829060e08501905b8083101561182d57835160018060a01b03815116835260018060a01b03602082015116602084015265ffffffffffff604082015116604084015265ffffffffffff6060820151166060840152506080820191506020840193506001830192506117c9565b5060208701516001600160a01b03811660808701529250604087015160a086015284810360408601526118608187611538565b98975050505050505050565b602080825282518282018190525f918401906040840190835b818110156118d857835180516001600160a01b0390811685526020808301518216818701526040808401518316908701526060928301519091169185019190915290930192608090920191600101611885565b50909594505050505056fea164736f6c634300081e000a","linkReferences":{}},"methodIdentifiers":{"PERMIT_2()":"789d72fa","PERMIT_2_INTERFACE()":"9d010217","asset()":"38d52e0f","build(address,address,bytes)":"3b5896bc","executionNonce()":"01bd43ef","getOutAmount(address)":"81cbe691","hookType()":"e445e7dd","inspect(bytes)":"8c4313c1","lastCaller()":"2113522a","postExecute(address,address,bytes)":"05b4fe91","preExecute(address,address,bytes)":"2ae2fe3d","resetExecutionState(address)":"d06a1e89","setExecutionContext(address)":"14cb37cf","setOutAmount(uint256,address)":"1f264619","spToken()":"8e148776","subType()":"cf0a6181","subtype()":"5492e677","usedShares()":"685a943c"},"id":474}