{"abi":[{"type":"constructor","inputs":[],"stateMutability":"nonpayable"},{"type":"function","name":"asset","inputs":[],"outputs":[{"name":"","type":"address","internalType":"address"}],"stateMutability":"view"},{"type":"function","name":"build","inputs":[{"name":"prevHook","type":"address","internalType":"address"},{"name":"account","type":"address","internalType":"address"},{"name":"hookData","type":"bytes","internalType":"bytes"}],"outputs":[{"name":"executions","type":"tuple[]","internalType":"struct Execution[]","components":[{"name":"target","type":"address","internalType":"address"},{"name":"value","type":"uint256","internalType":"uint256"},{"name":"callData","type":"bytes","internalType":"bytes"}]}],"stateMutability":"view"},{"type":"function","name":"executionNonce","inputs":[],"outputs":[{"name":"","type":"uint256","internalType":"uint256"}],"stateMutability":"view"},{"type":"function","name":"getOutAmount","inputs":[{"name":"caller","type":"address","internalType":"address"}],"outputs":[{"name":"","type":"uint256","internalType":"uint256"}],"stateMutability":"view"},{"type":"function","name":"hookType","inputs":[],"outputs":[{"name":"","type":"uint8","internalType":"enum ISuperHook.HookType"}],"stateMutability":"view"},{"type":"function","name":"inspect","inputs":[{"name":"data","type":"bytes","internalType":"bytes"}],"outputs":[{"name":"","type":"bytes","internalType":"bytes"}],"stateMutability":"pure"},{"type":"function","name":"lastCaller","inputs":[],"outputs":[{"name":"","type":"address","internalType":"address"}],"stateMutability":"view"},{"type":"function","name":"postExecute","inputs":[{"name":"prevHook","type":"address","internalType":"address"},{"name":"account","type":"address","internalType":"address"},{"name":"data","type":"bytes","internalType":"bytes"}],"outputs":[],"stateMutability":"nonpayable"},{"type":"function","name":"preExecute","inputs":[{"name":"prevHook","type":"address","internalType":"address"},{"name":"account","type":"address","internalType":"address"},{"name":"data","type":"bytes","internalType":"bytes"}],"outputs":[],"stateMutability":"nonpayable"},{"type":"function","name":"resetExecutionState","inputs":[{"name":"caller","type":"address","internalType":"address"}],"outputs":[],"stateMutability":"nonpayable"},{"type":"function","name":"setExecutionContext","inputs":[{"name":"caller","type":"address","internalType":"address"}],"outputs":[],"stateMutability":"nonpayable"},{"type":"function","name":"setOutAmount","inputs":[{"name":"_outAmount","type":"uint256","internalType":"uint256"},{"name":"caller","type":"address","internalType":"address"}],"outputs":[],"stateMutability":"nonpayable"},{"type":"function","name":"spToken","inputs":[],"outputs":[{"name":"","type":"address","internalType":"address"}],"stateMutability":"view"},{"type":"function","name":"subType","inputs":[],"outputs":[{"name":"","type":"bytes32","internalType":"bytes32"}],"stateMutability":"view"},{"type":"function","name":"subtype","inputs":[],"outputs":[{"name":"","type":"bytes32","internalType":"bytes32"}],"stateMutability":"view"},{"type":"function","name":"usedShares","inputs":[],"outputs":[{"name":"","type":"uint256","internalType":"uint256"}],"stateMutability":"view"},{"type":"error","name":"ADDRESS_NOT_VALID","inputs":[]},{"type":"error","name":"AMOUNT_NOT_VALID","inputs":[]},{"type":"error","name":"CANNOT_SET_OUT_AMOUNT","inputs":[]},{"type":"error","name":"INCOMPLETE_HOOK_EXECUTION","inputs":[]},{"type":"error","name":"LENGTH_MISMATCH","inputs":[]},{"type":"error","name":"NOT_AUTHORIZED","inputs":[]},{"type":"error","name":"POST_EXECUTE_ALREADY_CALLED","inputs":[]},{"type":"error","name":"PRE_EXECUTE_ALREADY_CALLED","inputs":[]},{"type":"error","name":"UNAUTHORIZED_CALLER","inputs":[]}],"bytecode":{"object":"0x60a0604052348015600e575f5ffd5b506040805180820190915260058152642a37b5b2b760d91b6020909101525f805460ff191690557f1317f51c845ce3bfb7c268e5337a825f12f3d0af9584c2bbfbf4e64e314eaf736080526080516111dd6100785f395f81816101c7015261023d01526111dd5ff3fe608060405234801561000f575f5ffd5b50600436106100fb575f3560e01c80635492e677116100935780638e148776116100635780638e14877614610226578063cf0a618114610238578063d06a1e891461025f578063e445e7dd14610272575f5ffd5b80635492e677146101c5578063685a943c146101eb57806381cbe691146101f35780638c4313c114610206575f5ffd5b80632113522a116100ce5780632113522a146101565780632ae2fe3d1461018057806338d52e0f146101935780633b5896bc146101a5575f5ffd5b806301bd43ef146100ff57806305b4fe911461011b57806314cb37cf146101305780631f26461914610143575b5f5ffd5b61010860035c81565b6040519081526020015b60405180910390f35b61012e610129366004610d7c565b61028b565b005b61012e61013e366004610ddd565b6102f9565b61012e610151366004610dff565b61031a565b6101686001600160a01b0360045c1681565b6040516001600160a01b039091168152602001610112565b61012e61018e366004610d7c565b610373565b6101686001600160a01b0360025c1681565b6101b86101b3366004610d7c565b6103da565b6040516101129190610e5b565b7f0000000000000000000000000000000000000000000000000000000000000000610108565b6101085f5c81565b610108610201366004610ddd565b6105f3565b610219610214366004610ee8565b61060b565b6040516101129190610f27565b6101686001600160a01b0360015c1681565b6101087f000000000000000000000000000000000000000000000000000000000000000081565b61012e61026d366004610ddd565b610740565b5f5461027e9060ff1681565b6040516101129190610f39565b336001600160a01b038416146102b45760405163e15e56c960e01b815260040160405180910390fd5b5f6102be84610792565b90506102c9816107a5565b156102e75760405163945b63f560e01b815260040160405180910390fd5b6102f28160016107b2565b5050505050565b610302816107c8565b50336004805c6001600160a01b0319168217905d5050565b5f61032482610792565b905061032f816107fa565b8061033e575061033e816107a5565b1561035c5760405163441e4c7360e11b815260040160405180910390fd5b5f610368826001610803565b905083815d50505050565b336001600160a01b0384161461039c5760405163e15e56c960e01b815260040160405180910390fd5b5f6103a684610792565b90506103b1816107fa565b156103cf57604051630bbb04d960e11b815260040160405180910390fd5b6102f2816001610858565b60605f6103e986868686610864565b9050805160026103f99190610f73565b67ffffffffffffffff81111561041157610411610f86565b60405190808252806020026020018201604052801561045d57816020015b60408051606080820183525f80835260208301529181019190915281526020019060019003908161042f5790505b5091506040518060600160405280306001600160a01b031681526020015f8152602001306001600160a01b0316632ae2fe3d898989896040516024016104a69493929190610f9a565b604051602081830303815290604052915060e01b6020820180516001600160e01b038381831617835250505050815250825f815181106104e8576104e8610fe2565b60209081029190910101525f5b81518110156105495781818151811061051057610510610fe2565b6020026020010151838260016105269190610f73565b8151811061053657610536610fe2565b60209081029190910101526001016104f5565b506040518060600160405280306001600160a01b031681526020015f8152602001306001600160a01b03166305b4fe91898989896040516024016105909493929190610f9a565b604051602081830303815290604052915060e01b6020820180516001600160e01b03838183161783525050505081525082600184516105cf9190610ff6565b815181106105df576105df610fe2565b602002602001018190525050949350505050565b5f61060561060083610792565b610b2a565b92915050565b60605f61064c84848080601f0160208091040260200160405190810160405280939291908181526020018383808284375f9201829052509250610b37915050565b90505f61069b85858080601f0160208091040260200160405190810160405280939291908181526020018383808284375f9201919091525060149250610696915082905088610ff6565b610ba0565b90505f818060200190518101906106b291906110c7565b5060408051606086901b6001600160601b03191660208201528151601481830301815260349091019091528151919250905f5b81811015610733578284828151811061070057610700610fe2565b602002602001015160405160200161071992919061118e565b60408051601f1981840301815291905292506001016106e5565b5090979650505050505050565b5f61074a82610792565b9050610755816107fa565b15806107675750610765816107a5565b155b1561078557604051634bd439b560e11b815260040160405180910390fd5b61078e81610ca5565b5050565b5f5f61079d83610cbc565b5c9392505050565b5f5f61079d836003610803565b5f6107be836003610803565b905081815d505050565b5f6003805c90826107d8836111b8565b9190505d505f6107e783610cbc565b905060035c80825d505060035c92915050565b5f5f61079d8360025b604080517fc41a07c57a776f6217c6d4278dfe7a5d114742afe55627ce458c2802aa4d703460208083019190915281830194909452606080820193909352815180820390930183526080019052805191012090565b5f6107be836002610803565b60605f6108a584848080601f0160208091040260200160405190810160405280939291908181526020018383808284375f9201829052509250610b37915050565b90505f6108ef85858080601f0160208091040260200160405190810160405280939291908181526020018383808284375f9201919091525060149250610696915082905088610ff6565b90505f5f8280602001905181019061090791906110c7565b915091505f82519050815181146109315760405163899ef10d60e01b815260040160405180910390fd5b8067ffffffffffffffff81111561094a5761094a610f86565b60405190808252806020026020018201604052801561099657816020015b60408051606080820183525f8083526020830152918101919091528152602001906001900390816109685790505b5095505f5b81811015610b1c5773eeeeeeeeeeeeeeeeeeeeeeeeeeeeeeeeeeeeeeee6001600160a01b03168482815181106109d3576109d3610fe2565b60200260200101516001600160a01b031603610a56576040518060600160405280876001600160a01b03168152602001848381518110610a1557610a15610fe2565b6020026020010151815260200160405180602001604052805f815250815250878281518110610a4657610a46610fe2565b6020026020010181905250610b14565b6040518060600160405280858381518110610a7357610a73610fe2565b60200260200101516001600160a01b031681526020015f815260200187858481518110610aa257610aa2610fe2565b60209081029190910101516040516001600160a01b039092166024830152604482015260640160408051601f198184030181529190526020810180516001600160e01b031663a9059cbb60e01b17905290528751889083908110610b0857610b08610fe2565b60200260200101819052505b60010161099b565b505050505050949350505050565b5f5f61079d836001610803565b5f610b43826014610f73565b83511015610b905760405162461bcd60e51b8152602060048201526015602482015274746f416464726573735f6f75744f66426f756e647360581b60448201526064015b60405180910390fd5b500160200151600160601b900490565b60608182601f011015610be65760405162461bcd60e51b815260206004820152600e60248201526d736c6963655f6f766572666c6f7760901b6044820152606401610b87565b610bf08284610f73565b84511015610c345760405162461bcd60e51b8152602060048201526011602482015270736c6963655f6f75744f66426f756e647360781b6044820152606401610b87565b606082158015610c525760405191505f825260208201604052610c9c565b6040519150601f8416801560200281840101858101878315602002848b0101015b81831015610c8b578051835260209283019201610c73565b5050858452601f01601f1916604052505b50949350505050565b610caf815f610858565b610cb9815f6107b2565b50565b5f7f8ce092d4869bdfa1a1ce579ddddb2b776c39ace5d7b5d7e70e97ece2a78f4f9b82604051602001610d0692919091825260601b6001600160601b031916602082015260340190565b604051602081830303815290604052805190602001209050919050565b6001600160a01b0381168114610cb9575f5ffd5b5f5f83601f840112610d47575f5ffd5b50813567ffffffffffffffff811115610d5e575f5ffd5b602083019150836020828501011115610d75575f5ffd5b9250929050565b5f5f5f5f60608587031215610d8f575f5ffd5b8435610d9a81610d23565b93506020850135610daa81610d23565b9250604085013567ffffffffffffffff811115610dc5575f5ffd5b610dd187828801610d37565b95989497509550505050565b5f60208284031215610ded575f5ffd5b8135610df881610d23565b9392505050565b5f5f60408385031215610e10575f5ffd5b823591506020830135610e2281610d23565b809150509250929050565b5f81518084528060208401602086015e5f602082860101526020601f19601f83011685010191505092915050565b5f602082016020835280845180835260408501915060408160051b8601019250602086015f5b82811015610edc57868503603f19018452815180516001600160a01b0316865260208082015190870152604090810151606091870182905290610ec690870182610e2d565b9550506020938401939190910190600101610e81565b50929695505050505050565b5f5f60208385031215610ef9575f5ffd5b823567ffffffffffffffff811115610f0f575f5ffd5b610f1b85828601610d37565b90969095509350505050565b602081525f610df86020830184610e2d565b6020810160038310610f5957634e487b7160e01b5f52602160045260245ffd5b91905290565b634e487b7160e01b5f52601160045260245ffd5b8082018082111561060557610605610f5f565b634e487b7160e01b5f52604160045260245ffd5b6001600160a01b038581168252841660208201526060604082018190528101829052818360808301375f818301608090810191909152601f909201601f191601019392505050565b634e487b7160e01b5f52603260045260245ffd5b8181038181111561060557610605610f5f565b604051601f8201601f1916810167ffffffffffffffff8111828210171561103257611032610f86565b604052919050565b5f67ffffffffffffffff82111561105357611053610f86565b5060051b60200190565b5f82601f83011261106c575f5ffd5b815161107f61107a8261103a565b611009565b8082825260208201915060208360051b8601019250858311156110a0575f5ffd5b602085015b838110156110bd5780518352602092830192016110a5565b5095945050505050565b5f5f604083850312156110d8575f5ffd5b825167ffffffffffffffff8111156110ee575f5ffd5b8301601f810185136110fe575f5ffd5b805161110c61107a8261103a565b8082825260208201915060208360051b85010192508783111561112d575f5ffd5b6020840193505b8284101561115857835161114781610d23565b825260209384019390910190611134565b80955050505050602083015167ffffffffffffffff811115611178575f5ffd5b6111848582860161105d565b9150509250929050565b5f83518060208601845e60609390931b6001600160601b0319169190920190815260140192915050565b5f600182016111c9576111c9610f5f565b506001019056fea164736f6c634300081e000a","linkReferences":{}},"methodIdentifiers":{"asset()":"38d52e0f","build(address,address,bytes)":"3b5896bc","executionNonce()":"01bd43ef","getOutAmount(address)":"81cbe691","hookType()":"e445e7dd","inspect(bytes)":"8c4313c1","lastCaller()":"2113522a","postExecute(address,address,bytes)":"05b4fe91","preExecute(address,address,bytes)":"2ae2fe3d","resetExecutionState(address)":"d06a1e89","setExecutionContext(address)":"14cb37cf","setOutAmount(uint256,address)":"1f264619","spToken()":"8e148776","subType()":"cf0a6181","subtype()":"5492e677","usedShares()":"685a943c"},"id":470}