{"abi":[{"type":"constructor","inputs":[{"name":"dlnSource_","type":"address","internalType":"address"},{"name":"validator_","type":"address","internalType":"address"}],"stateMutability":"nonpayable"},{"type":"function","name":"asset","inputs":[],"outputs":[{"name":"","type":"address","internalType":"address"}],"stateMutability":"view"},{"type":"function","name":"build","inputs":[{"name":"prevHook","type":"address","internalType":"address"},{"name":"account","type":"address","internalType":"address"},{"name":"hookData","type":"bytes","internalType":"bytes"}],"outputs":[{"name":"executions","type":"tuple[]","internalType":"struct Execution[]","components":[{"name":"target","type":"address","internalType":"address"},{"name":"value","type":"uint256","internalType":"uint256"},{"name":"callData","type":"bytes","internalType":"bytes"}]}],"stateMutability":"view"},{"type":"function","name":"decodeUsePrevHookAmount","inputs":[{"name":"data","type":"bytes","internalType":"bytes"}],"outputs":[{"name":"","type":"bool","internalType":"bool"}],"stateMutability":"pure"},{"type":"function","name":"dlnSource","inputs":[],"outputs":[{"name":"","type":"address","internalType":"address"}],"stateMutability":"view"},{"type":"function","name":"executionNonce","inputs":[],"outputs":[{"name":"","type":"uint256","internalType":"uint256"}],"stateMutability":"view"},{"type":"function","name":"getOutAmount","inputs":[{"name":"caller","type":"address","internalType":"address"}],"outputs":[{"name":"","type":"uint256","internalType":"uint256"}],"stateMutability":"view"},{"type":"function","name":"hookType","inputs":[],"outputs":[{"name":"","type":"uint8","internalType":"enum ISuperHook.HookType"}],"stateMutability":"view"},{"type":"function","name":"inspect","inputs":[{"name":"data","type":"bytes","internalType":"bytes"}],"outputs":[{"name":"","type":"bytes","internalType":"bytes"}],"stateMutability":"pure"},{"type":"function","name":"lastCaller","inputs":[],"outputs":[{"name":"","type":"address","internalType":"address"}],"stateMutability":"view"},{"type":"function","name":"postExecute","inputs":[{"name":"prevHook","type":"address","internalType":"address"},{"name":"account","type":"address","internalType":"address"},{"name":"data","type":"bytes","internalType":"bytes"}],"outputs":[],"stateMutability":"nonpayable"},{"type":"function","name":"preExecute","inputs":[{"name":"prevHook","type":"address","internalType":"address"},{"name":"account","type":"address","internalType":"address"},{"name":"data","type":"bytes","internalType":"bytes"}],"outputs":[],"stateMutability":"nonpayable"},{"type":"function","name":"resetExecutionState","inputs":[{"name":"caller","type":"address","internalType":"address"}],"outputs":[],"stateMutability":"nonpayable"},{"type":"function","name":"setExecutionContext","inputs":[{"name":"caller","type":"address","internalType":"address"}],"outputs":[],"stateMutability":"nonpayable"},{"type":"function","name":"setOutAmount","inputs":[{"name":"_outAmount","type":"uint256","internalType":"uint256"},{"name":"caller","type":"address","internalType":"address"}],"outputs":[],"stateMutability":"nonpayable"},{"type":"function","name":"spToken","inputs":[],"outputs":[{"name":"","type":"address","internalType":"address"}],"stateMutability":"view"},{"type":"function","name":"subType","inputs":[],"outputs":[{"name":"","type":"bytes32","internalType":"bytes32"}],"stateMutability":"view"},{"type":"function","name":"subtype","inputs":[],"outputs":[{"name":"","type":"bytes32","internalType":"bytes32"}],"stateMutability":"view"},{"type":"function","name":"usedShares","inputs":[],"outputs":[{"name":"","type":"uint256","internalType":"uint256"}],"stateMutability":"view"},{"type":"error","name":"ADDRESS_NOT_VALID","inputs":[]},{"type":"error","name":"AMOUNT_NOT_VALID","inputs":[]},{"type":"error","name":"AMOUNT_UNDERFLOW","inputs":[]},{"type":"error","name":"CANNOT_SET_OUT_AMOUNT","inputs":[]},{"type":"error","name":"INCOMPLETE_HOOK_EXECUTION","inputs":[]},{"type":"error","name":"NOT_AUTHORIZED","inputs":[]},{"type":"error","name":"POST_EXECUTE_ALREADY_CALLED","inputs":[]},{"type":"error","name":"PRE_EXECUTE_ALREADY_CALLED","inputs":[]},{"type":"error","name":"UNAUTHORIZED_CALLER","inputs":[]}],"bytecode":{"object":"0x60e060405234801561000f575f5ffd5b5060405161224f38038061224f83398101604081905261002e916100e6565b60408051808201909152600681526542726964676560d01b6020909101525f805460ff191690557f7aa5ae620294318af92bf4e2b2a729646c932a80312a5fa630da993a2ef5cc106080526001600160a01b038216158061009657506001600160a01b038116155b156100b457604051630f58648f60e01b815260040160405180910390fd5b6001600160a01b0391821660a0521660c052610117565b80516001600160a01b03811681146100e1575f5ffd5b919050565b5f5f604083850312156100f7575f5ffd5b610100836100cb565b915061010e602084016100cb565b90509250929050565b60805160a05160c05161210061014f5f395f6108c401525f81816102530152610b3101525f81816101dd015261027a01526121005ff3fe608060405234801561000f575f5ffd5b5060043610610111575f3560e01c8063685a943c1161009e5780638f4bef1c1161006e5780638f4bef1c1461024e578063cf0a618114610275578063d06a1e891461029c578063e445e7dd146102af578063e7745517146102c8575f5ffd5b8063685a943c1461020157806381cbe691146102095780638c4313c11461021c5780638e1487761461023c575f5ffd5b80632113522a116100e45780632113522a1461016c5780632ae2fe3d1461019657806338d52e0f146101a95780633b5896bc146101bb5780635492e677146101db575f5ffd5b806301bd43ef1461011557806305b4fe911461013157806314cb37cf146101465780631f26461914610159575b5f5ffd5b61011e60035c81565b6040519081526020015b60405180910390f35b61014461013f366004611819565b6102eb565b005b610144610154366004611879565b610359565b610144610167366004611894565b61037a565b61017e6001600160a01b0360045c1681565b6040516001600160a01b039091168152602001610128565b6101446101a4366004611819565b6103d3565b61017e6001600160a01b0360025c1681565b6101ce6101c9366004611819565b61043a565b60405161012891906118f0565b7f000000000000000000000000000000000000000000000000000000000000000061011e565b61011e5f5c81565b61011e610217366004611879565b610652565b61022f61022a36600461197d565b61066a565b60405161012891906119bb565b61017e6001600160a01b0360015c1681565b61017e7f000000000000000000000000000000000000000000000000000000000000000081565b61011e7f000000000000000000000000000000000000000000000000000000000000000081565b6101446102aa366004611879565b610771565b5f546102bb9060ff1681565b60405161012891906119cd565b6102db6102d6366004611a5d565b6107c3565b6040519015158152602001610128565b336001600160a01b038416146103145760405163e15e56c960e01b815260040160405180910390fd5b5f61031e846107ce565b9050610329816107e1565b156103475760405163945b63f560e01b815260040160405180910390fd5b6103528160016107ee565b5050505050565b61036281610804565b50336004805c6001600160a01b0319168217905d5050565b5f610384826107ce565b905061038f81610836565b8061039e575061039e816107e1565b156103bc5760405163441e4c7360e11b815260040160405180910390fd5b5f6103c882600161083f565b905083815d50505050565b336001600160a01b038416146103fc5760405163e15e56c960e01b815260040160405180910390fd5b5f610406846107ce565b905061041181610836565b1561042f57604051630bbb04d960e11b815260040160405180910390fd5b610352816001610894565b60605f610449868686866108a0565b9050805160026104599190611aea565b6001600160401b03811115610470576104706119f3565b6040519080825280602002602001820160405280156104bc57816020015b60408051606080820183525f80835260208301529181019190915281526020019060019003908161048e5790505b5091506040518060600160405280306001600160a01b031681526020015f8152602001306001600160a01b0316632ae2fe3d898989896040516024016105059493929190611afd565b604051602081830303815290604052915060e01b6020820180516001600160e01b038381831617835250505050815250825f8151811061054757610547611b45565b60209081029190910101525f5b81518110156105a85781818151811061056f5761056f611b45565b6020026020010151838260016105859190611aea565b8151811061059557610595611b45565b6020908102919091010152600101610554565b506040518060600160405280306001600160a01b031681526020015f8152602001306001600160a01b03166305b4fe91898989896040516024016105ef9493929190611afd565b604051602081830303815290604052915060e01b6020820180516001600160e01b038381831617835250505050815250826001845161062e9190611b59565b8151811061063e5761063e611b45565b602002602001018190525050949350505050565b5f61066461065f836107ce565b610bd0565b92915050565b60605f6106b984848080601f0160208091040260200160405190810160405280939291908181526020018383808284375f92018290525060408051602081019091529081529250610bdd915050565b5050509050805f015181604001516106d090611b6c565b60601c8260a001516106e190611b6c565b60601c8360c0015160601b60601c8460e001516106fd90611b6c565b60601c85610140015161070f90611b6c565b6040516001600160601b0319606097881b8116602083015295871b8616603482015293861b8516604885015291851b8416605c84015290931b821660708201529116608482015260980160405160208183030381529060405291505092915050565b5f61077b826107ce565b905061078681610836565b15806107985750610796816107e1565b155b156107b657604051634bd439b560e11b815260040160405180910390fd5b6107bf81611292565b5050565b5f610664825f6112a9565b5f5f6107d9836112d5565b5c9392505050565b5f5f6107d983600361083f565b5f6107fa83600361083f565b905081815d505050565b5f6003805c908261081483611bba565b9190505d505f610823836112d5565b905060035c80825d505060035c92915050565b5f5f6107d98360025b604080517fc41a07c57a776f6217c6d4278dfe7a5d114742afe55627ce458c2802aa4d703460208083019190915281830194909452606080820193909352815180820390930183526080019052805191012090565b5f6107fa83600261083f565b604051630f65bac560e01b81526001600160a01b0384811660048301526060915f917f00000000000000000000000000000000000000000000000000000000000000001690630f65bac5906024015f60405180830381865afa158015610908573d5f5f3e3d5ffd5b505050506040513d5f823e601f3d908101601f1916820160405261092f9190810190611c1f565b90505f5f5f5f61097588888080601f0160208091040260200160405190810160405280939291908181526020018383808284375f92019190915250899250610bdd915050565b93509350935093505f6109bc89898080601f0160208091040260200160405190810160405280939291908181526020018383808284375f92018290525092506112a9915050565b90508015610abb576040516381cbe69160e01b81526001600160a01b038b811660048301525f91908d16906381cbe69190602401602060405180830381865afa158015610a0b573d5f5f3e3d5ffd5b505050506040513d601f19601f82011682018060405250810190610a2f9190611c58565b90505f8660200151118015610a4757505f8660600151115b15610a6557610a5f866060015182886020015161133c565b60608701525b6020860180519082905286516001600160a01b0316610ab85780861015610a9f5760405163a11995cd60e01b815260040160405180910390fd5b610aa98187611b59565b9550610ab58287611aea565b95505b50505b84602001515f03610adf576040516305112ab160e41b815260040160405180910390fd5b60408051600180825281830190925290816020015b60408051606080820183525f808352602083015291810191909152815260200190600190039081610af457905050965060405180606001604052807f00000000000000000000000000000000000000000000000000000000000000006001600160a01b03168152602001858152602001868585604051602401610b7993929190611c6f565b60408051601f198184030181529190526020810180516001600160e01b031663fbe16ca760e01b1790529052875188905f90610bb757610bb7611b45565b6020026020010181905250505050505050949350505050565b5f5f6107d983600161083f565b610c476040518061016001604052805f6001600160a01b031681526020015f8152602001606081526020015f81526020015f8152602001606081526020015f6001600160a01b03168152602001606081526020016060815260200160608152602001606081525090565b5f60605f610cfe6040518061026001604052805f81526020015f81526020015f60ff1681526020015f6001600160a01b031681526020015f81526020015f6001600160a01b031681526020015f6001600160a01b031681526020015f81526020015f151581526020015f1515815260200160608152602001606081526020015f81526020015f8152602001606081526020015f6001600160a01b031681526020016060815260200160608152602001606081525090565b6001808252610d0e9088906113ed565b93506020815f01818151610d229190611aea565b9052508051610d3290889061144f565b6001600160a01b0316606082015280516014908290610d52908390611aea565b9052508051610d629088906113ed565b608082015280516020908290610d79908390611aea565b9052508051610d899088906114b3565b60ff16604082015280516001908290610da3908390611aea565b9052508051610db390889061144f565b6001600160a01b031660a082015280516014908290610dd3908390611aea565b9052508051610de390889061144f565b6001600160a01b031660c082015280516014908290610e03908390611aea565b9052508051610e139088906113ed565b60e082015280516020908290610e2a908390611aea565b9052508051610e3a9088906112a9565b151561010082015280516001908290610e54908390611aea565b9052508051610e649088906112a9565b151561012082015280516001908290610e7e908390611aea565b9052508051610e8e9088906113ed565b60208083019190915281518290610ea6908390611aea565b90525080516020820151610ebb91899161150e565b610140820152602081015181518290610ed5908390611aea565b9052508051610ee59088906113ed565b60208083019190915281518290610efd908390611aea565b90525080516020820151610f1291899161150e565b610160820152602081015181518290610f2c908390611aea565b9052508051610f3c9088906113ed565b61018082015280516020908290610f54908390611aea565b9052508051610f649088906113ed565b6101a082015280516020908290610f7c908390611aea565b9052508051610f8c9088906113ed565b60208083019190915281518290610fa4908390611aea565b90525080516020820151610fb991899161150e565b6101c0820152602081015181518290610fd3908390611aea565b9052508051610fe390889061144f565b6001600160a01b03166101e082015280516014908290611004908390611aea565b90525080516110149088906113ed565b6020808301919091528151829061102c908390611aea565b9052508051602082015161104191899161150e565b61020082015260208101518151829061105b908390611aea565b905250805161106b9088906113ed565b60208083019190915281518290611083908390611aea565b9052508051602082015161109891899161150e565b6102208201526020810151815182906110b2908390611aea565b90525080516110c29088906113ed565b602080830191909152815182906110da908390611aea565b905250805160208201516110ef91899161150e565b610240820152602081015181518290611109908390611aea565b90525080515f9061111b9089906113ed565b90506020825f0181815161112f9190611aea565b90525081516111409089908361150e565b935080825f018181516111539190611aea565b9052508151611163908990611613565b92506004825f018181516111779190611aea565b9150818152505060405180610160016040528083606001516001600160a01b031681526020018360800151815260200183610160015181526020018361018001518152602001836101a001518152602001836101c001518152602001836101e001516001600160a01b031681526020018361020001518152602001836102200151815260200161127760405180610100016040528086610140015181526020018b81526020018660a001516001600160a01b031681526020018660c001516001600160a01b031681526020018660e0015181526020018661010001511515815260200186610120015115158152602001866040015160ff1681525061166f565b81526020018361024001518152509550505092959194509250565b61129c815f610894565b6112a6815f6107ee565b50565b5f8282815181106112bc576112bc611b45565b01602001516001600160f81b0319161515905092915050565b5f7f8ce092d4869bdfa1a1ce579ddddb2b776c39ace5d7b5d7e70e97ece2a78f4f9b8260405160200161131f92919091825260601b6001600160601b031916602082015260340190565b604051602081830303815290604052805190602001209050919050565b5f5f5f6113498686611794565b91509150815f0361136d5783818161136357611363611db7565b04925050506113e6565b8184116113845761138460038515026011186117b0565b5f848688095f868103871696879004966002600389028118808a02820302808a02820302808a02820302808a02820302808a02820302808a02909103029181900381900460010185841190960395909502919093039390930492909217029150505b9392505050565b5f6113f9826020611aea565b835110156114465760405162461bcd60e51b8152602060048201526015602482015274746f55696e743235365f6f75744f66426f756e647360581b60448201526064015b60405180910390fd5b50016020015190565b5f61145b826014611aea565b835110156114a35760405162461bcd60e51b8152602060048201526015602482015274746f416464726573735f6f75744f66426f756e647360581b604482015260640161143d565b500160200151600160601b900490565b5f6114bf826001611aea565b835110156115055760405162461bcd60e51b8152602060048201526013602482015272746f55696e74385f6f75744f66426f756e647360681b604482015260640161143d565b50016001015190565b60608182601f0110156115545760405162461bcd60e51b815260206004820152600e60248201526d736c6963655f6f766572666c6f7760901b604482015260640161143d565b61155e8284611aea565b845110156115a25760405162461bcd60e51b8152602060048201526011602482015270736c6963655f6f75744f66426f756e647360781b604482015260640161143d565b6060821580156115c05760405191505f82526020820160405261160a565b6040519150601f8416801560200281840101858101878315602002848b0101015b818310156115f95780518352602092830192016115e1565b5050858452601f01601f1916604052505b50949350505050565b5f61161f826004611aea565b835110156116665760405162461bcd60e51b8152602060048201526014602482015273746f55696e7433325f6f75744f66426f756e647360601b604482015260640161143d565b50016004015190565b8051516060905f0361168e57505060408051602081019091525f815290565b5f5f5f5f5f865f01518060200190518101906116aa9190611eb6565b945094509450945094505f6040518060c0016040528089604001516001600160a01b0316815260200189606001516001600160a01b0316815260200189608001516001600160a01b031681526020018960a00151151581526020018960c001511515815260200187878787878e6020015160405160200161173096959493929190611fb8565b60405160208183030381529060405281525090508760e001518160405160200161175a9190612062565b60408051601f198184030181529082905261177892916020016120ca565b6040516020818303038152906040529650505050505050919050565b5f805f1983850993909202808410938190039390930393915050565b634e487b715f52806020526024601cfd5b6001600160a01b03811681146112a6575f5ffd5b5f5f83601f8401126117e5575f5ffd5b5081356001600160401b038111156117fb575f5ffd5b602083019150836020828501011115611812575f5ffd5b9250929050565b5f5f5f5f6060858703121561182c575f5ffd5b8435611837816117c1565b93506020850135611847816117c1565b925060408501356001600160401b03811115611861575f5ffd5b61186d878288016117d5565b95989497509550505050565b5f60208284031215611889575f5ffd5b81356113e6816117c1565b5f5f604083850312156118a5575f5ffd5b8235915060208301356118b7816117c1565b809150509250929050565b5f81518084528060208401602086015e5f602082860101526020601f19601f83011685010191505092915050565b5f602082016020835280845180835260408501915060408160051b8601019250602086015f5b8281101561197157868503603f19018452815180516001600160a01b031686526020808201519087015260409081015160609187018290529061195b908701826118c2565b9550506020938401939190910190600101611916565b50929695505050505050565b5f5f6020838503121561198e575f5ffd5b82356001600160401b038111156119a3575f5ffd5b6119af858286016117d5565b90969095509350505050565b602081525f6113e660208301846118c2565b60208101600383106119ed57634e487b7160e01b5f52602160045260245ffd5b91905290565b634e487b7160e01b5f52604160045260245ffd5b604051601f8201601f191681016001600160401b0381118282101715611a2f57611a2f6119f3565b604052919050565b5f6001600160401b03821115611a4f57611a4f6119f3565b50601f01601f191660200190565b5f60208284031215611a6d575f5ffd5b81356001600160401b03811115611a82575f5ffd5b8201601f81018413611a92575f5ffd5b8035611aa5611aa082611a37565b611a07565b818152856020838501011115611ab9575f5ffd5b816020840160208301375f91810160200191909152949350505050565b634e487b7160e01b5f52601160045260245ffd5b8082018082111561066457610664611ad6565b6001600160a01b038581168252841660208201526060604082018190528101829052818360808301375f818301608090810191909152601f909201601f191601019392505050565b634e487b7160e01b5f52603260045260245ffd5b8181038181111561066457610664611ad6565b805160208201516001600160601b0319811691906014821015611bb3576bffffffffffffffffffffffff196bffffffffffffffffffffffff198360140360031b1b82161692505b5050919050565b5f60018201611bcb57611bcb611ad6565b5060010190565b5f82601f830112611be1575f5ffd5b8151611bef611aa082611a37565b818152846020838601011115611c03575f5ffd5b8160208501602083015e5f918101602001919091529392505050565b5f60208284031215611c2f575f5ffd5b81516001600160401b03811115611c44575f5ffd5b611c5084828501611bd2565b949350505050565b5f60208284031215611c68575f5ffd5b5051919050565b60808152611c896080820185516001600160a01b03169052565b602084015160a08201525f604085015161016060c0840152611caf6101e08401826118c2565b9050606086015160e0840152608086015161010084015260a0860151607f1984830301610120850152611ce282826118c2565b91505060c0860151611d006101408501826001600160a01b03169052565b5060e0860151838203607f1901610160850152611d1d82826118c2565b915050610100860151607f1984830301610180850152611d3d82826118c2565b915050610120860151607f19848303016101a0850152611d5d82826118c2565b915050610140860151607f19848303016101c0850152611d7d82826118c2565b9150508281036020840152611d9281866118c2565b63ffffffff94909416604084015250508082036060909101525f815260200192915050565b634e487b7160e01b5f52601260045260245ffd5b5f6001600160401b03821115611de357611de36119f3565b5060051b60200190565b5f82601f830112611dfc575f5ffd5b8151611e0a611aa082611dcb565b8082825260208201915060208360051b860101925085831115611e2b575f5ffd5b602085015b83811015611e51578051611e43816117c1565b835260209283019201611e30565b5095945050505050565b5f82601f830112611e6a575f5ffd5b8151611e78611aa082611dcb565b8082825260208201915060208360051b860101925085831115611e99575f5ffd5b602085015b83811015611e51578051835260209283019201611e9e565b5f5f5f5f5f60a08688031215611eca575f5ffd5b85516001600160401b03811115611edf575f5ffd5b611eeb88828901611bd2565b95505060208601516001600160401b03811115611f06575f5ffd5b611f1288828901611bd2565b9450506040860151611f23816117c1565b60608701519093506001600160401b03811115611f3e575f5ffd5b611f4a88828901611ded565b92505060808601516001600160401b03811115611f65575f5ffd5b611f7188828901611e5b565b9150509295509295909350565b5f8151808452602084019350602083015f5b82811015611fae578151865260209586019590910190600101611f90565b5093949350505050565b60c081525f611fca60c08301896118c2565b8281036020840152611fdc81896118c2565b6001600160a01b03881660408501528381036060850152865180825260208089019350909101905f5b8181101561202c5783516001600160a01b0316835260209384019390920191600101612005565b505083810360808501526120408187611f7e565b91505082810360a084015261205581856118c2565b9998505050505050505050565b6020815260018060a01b03825116602082015260018060a01b03602083015116604082015260018060a01b0360408301511660608201526060820151151560808201526080820151151560a08201525f60a083015160c080840152611c5060e08401826118c2565b60ff60f81b8360f81b1681525f82518060208501600185015e5f9201600101918252509291505056fea164736f6c634300081e000a","linkReferences":{}},"methodIdentifiers":{"asset()":"38d52e0f","build(address,address,bytes)":"3b5896bc","decodeUsePrevHookAmount(bytes)":"e7745517","dlnSource()":"8f4bef1c","executionNonce()":"01bd43ef","getOutAmount(address)":"81cbe691","hookType()":"e445e7dd","inspect(bytes)":"8c4313c1","lastCaller()":"2113522a","postExecute(address,address,bytes)":"05b4fe91","preExecute(address,address,bytes)":"2ae2fe3d","resetExecutionState(address)":"d06a1e89","setExecutionContext(address)":"14cb37cf","setOutAmount(uint256,address)":"1f264619","spToken()":"8e148776","subType()":"cf0a6181","subtype()":"5492e677","usedShares()":"685a943c"},"id":442}