{"abi":[{"type":"constructor","inputs":[{"name":"dlnDestination_","type":"address","internalType":"address"}],"stateMutability":"nonpayable"},{"type":"function","name":"asset","inputs":[],"outputs":[{"name":"","type":"address","internalType":"address"}],"stateMutability":"view"},{"type":"function","name":"build","inputs":[{"name":"prevHook","type":"address","internalType":"address"},{"name":"account","type":"address","internalType":"address"},{"name":"hookData","type":"bytes","internalType":"bytes"}],"outputs":[{"name":"executions","type":"tuple[]","internalType":"struct Execution[]","components":[{"name":"target","type":"address","internalType":"address"},{"name":"value","type":"uint256","internalType":"uint256"},{"name":"callData","type":"bytes","internalType":"bytes"}]}],"stateMutability":"view"},{"type":"function","name":"dlnDestination","inputs":[],"outputs":[{"name":"","type":"address","internalType":"address"}],"stateMutability":"view"},{"type":"function","name":"executionNonce","inputs":[],"outputs":[{"name":"","type":"uint256","internalType":"uint256"}],"stateMutability":"view"},{"type":"function","name":"getOutAmount","inputs":[{"name":"caller","type":"address","internalType":"address"}],"outputs":[{"name":"","type":"uint256","internalType":"uint256"}],"stateMutability":"view"},{"type":"function","name":"hookType","inputs":[],"outputs":[{"name":"","type":"uint8","internalType":"enum ISuperHook.HookType"}],"stateMutability":"view"},{"type":"function","name":"inspect","inputs":[{"name":"data","type":"bytes","internalType":"bytes"}],"outputs":[{"name":"","type":"bytes","internalType":"bytes"}],"stateMutability":"pure"},{"type":"function","name":"lastCaller","inputs":[],"outputs":[{"name":"","type":"address","internalType":"address"}],"stateMutability":"view"},{"type":"function","name":"postExecute","inputs":[{"name":"prevHook","type":"address","internalType":"address"},{"name":"account","type":"address","internalType":"address"},{"name":"data","type":"bytes","internalType":"bytes"}],"outputs":[],"stateMutability":"nonpayable"},{"type":"function","name":"preExecute","inputs":[{"name":"prevHook","type":"address","internalType":"address"},{"name":"account","type":"address","internalType":"address"},{"name":"data","type":"bytes","internalType":"bytes"}],"outputs":[],"stateMutability":"nonpayable"},{"type":"function","name":"resetExecutionState","inputs":[{"name":"caller","type":"address","internalType":"address"}],"outputs":[],"stateMutability":"nonpayable"},{"type":"function","name":"setExecutionContext","inputs":[{"name":"caller","type":"address","internalType":"address"}],"outputs":[],"stateMutability":"nonpayable"},{"type":"function","name":"setOutAmount","inputs":[{"name":"_outAmount","type":"uint256","internalType":"uint256"},{"name":"caller","type":"address","internalType":"address"}],"outputs":[],"stateMutability":"nonpayable"},{"type":"function","name":"spToken","inputs":[],"outputs":[{"name":"","type":"address","internalType":"address"}],"stateMutability":"view"},{"type":"function","name":"subType","inputs":[],"outputs":[{"name":"","type":"bytes32","internalType":"bytes32"}],"stateMutability":"view"},{"type":"function","name":"subtype","inputs":[],"outputs":[{"name":"","type":"bytes32","internalType":"bytes32"}],"stateMutability":"view"},{"type":"function","name":"usedShares","inputs":[],"outputs":[{"name":"","type":"uint256","internalType":"uint256"}],"stateMutability":"view"},{"type":"error","name":"ADDRESS_NOT_VALID","inputs":[]},{"type":"error","name":"AMOUNT_NOT_VALID","inputs":[]},{"type":"error","name":"CANNOT_SET_OUT_AMOUNT","inputs":[]},{"type":"error","name":"INCOMPLETE_HOOK_EXECUTION","inputs":[]},{"type":"error","name":"NOT_AUTHORIZED","inputs":[]},{"type":"error","name":"POST_EXECUTE_ALREADY_CALLED","inputs":[]},{"type":"error","name":"PRE_EXECUTE_ALREADY_CALLED","inputs":[]},{"type":"error","name":"UNAUTHORIZED_CALLER","inputs":[]}],"bytecode":{"object":"0x60c060405234801561000f575f5ffd5b506040516114fa3803806114fa83398101604081905261002e916100b1565b60408051808201909152600681526542726964676560d01b6020909101525f805460ff191690557f7aa5ae620294318af92bf4e2b2a729646c932a80312a5fa630da993a2ef5cc106080526001600160a01b0381166100a057604051630f58648f60e01b815260040160405180910390fd5b6001600160a01b031660a0526100de565b5f602082840312156100c1575f5ffd5b81516001600160a01b03811681146100d7575f5ffd5b9392505050565b60805160a0516113ed61010d5f395f818161023601526108cd01525f81816101d2015261026f01526113ed5ff3fe608060405234801561000f575f5ffd5b5060043610610106575f3560e01c80635492e6771161009e5780638d0e48d71161006e5780638d0e48d7146102315780638e14877614610258578063cf0a61811461026a578063d06a1e8914610291578063e445e7dd146102a4575f5ffd5b80635492e677146101d0578063685a943c146101f657806381cbe691146101fe5780638c4313c114610211575f5ffd5b80632113522a116100d95780632113522a146101615780632ae2fe3d1461018b57806338d52e0f1461019e5780633b5896bc146101b0575f5ffd5b806301bd43ef1461010a57806305b4fe911461012657806314cb37cf1461013b5780631f2646191461014e575b5f5ffd5b61011360035c81565b6040519081526020015b60405180910390f35b610139610134366004610f21565b6102bd565b005b610139610149366004610f7e565b61032b565b61013961015c366004610f9e565b61034c565b6101736001600160a01b0360045c1681565b6040516001600160a01b03909116815260200161011d565b610139610199366004610f21565b6103a5565b6101736001600160a01b0360025c1681565b6101c36101be366004610f21565b61040c565b60405161011d9190610ff6565b7f0000000000000000000000000000000000000000000000000000000000000000610113565b6101135f5c81565b61011361020c366004610f7e565b610625565b61022461021f366004611083565b61063d565b60405161011d91906110c2565b6101737f000000000000000000000000000000000000000000000000000000000000000081565b6101736001600160a01b0360015c1681565b6101137f000000000000000000000000000000000000000000000000000000000000000081565b61013961029f366004610f7e565b61070d565b5f546102b09060ff1681565b60405161011d91906110d4565b336001600160a01b038416146102e65760405163e15e56c960e01b815260040160405180910390fd5b5f6102f08461075f565b90506102fb81610772565b156103195760405163945b63f560e01b815260040160405180910390fd5b61032481600161077f565b5050505050565b61033481610795565b50336004805c6001600160a01b0319168217905d5050565b5f6103568261075f565b9050610361816107c7565b80610370575061037081610772565b1561038e5760405163441e4c7360e11b815260040160405180910390fd5b5f61039a8260016107d0565b905083815d50505050565b336001600160a01b038416146103ce5760405163e15e56c960e01b815260040160405180910390fd5b5f6103d88461075f565b90506103e3816107c7565b1561040157604051630bbb04d960e11b815260040160405180910390fd5b610324816001610825565b60605f61041b86868686610831565b90508051600261042b919061110e565b67ffffffffffffffff81111561044357610443611121565b60405190808252806020026020018201604052801561048f57816020015b60408051606080820183525f8083526020830152918101919091528152602001906001900390816104615790505b5091506040518060600160405280306001600160a01b031681526020015f8152602001306001600160a01b0316632ae2fe3d898989896040516024016104d89493929190611135565b604051602081830303815290604052915060e01b6020820180516001600160e01b038381831617835250505050815250825f8151811061051a5761051a61117d565b60209081029190910101525f5b815181101561057b578181815181106105425761054261117d565b602002602001015183826001610558919061110e565b815181106105685761056861117d565b6020908102919091010152600101610527565b506040518060600160405280306001600160a01b031681526020015f8152602001306001600160a01b03166305b4fe91898989896040516024016105c29493929190611135565b604051602081830303815290604052915060e01b6020820180516001600160e01b03838183161783525050505081525082600184516106019190611191565b815181106106115761061161117d565b602002602001018190525050949350505050565b5f6106376106328361075f565b610969565b92915050565b60605f61067e84848080601f0160208091040260200160405190810160405280939291908181526020018383808284375f9201919091525061097692505050565b5050905080606001518160c00151610695906111a4565b60601c8261010001516106a7906111a4565b60601c8361012001516106b9906111a4565b60601c8461014001516106cb906111a4565b60601c8561018001516106dd906111a4565b60601c6040516020016106f5969594939291906111f2565b60405160208183030381529060405291505092915050565b5f6107178261075f565b9050610722816107c7565b1580610734575061073281610772565b155b1561075257604051634bd439b560e11b815260040160405180910390fd5b61075b81610c80565b5050565b5f5f61076a83610c97565b5c9392505050565b5f5f61076a8360036107d0565b5f61078b8360036107d0565b905081815d505050565b5f6003805c90826107a583611244565b9190505d505f6107b483610c97565b905060035c80825d505060035c92915050565b5f5f61076a8360025b604080517fc41a07c57a776f6217c6d4278dfe7a5d114742afe55627ce458c2802aa4d703460208083019190915281830194909452606080820193909352815180820390930183526080019052805191012090565b5f61078b8360026107d0565b60605f5f5f61087486868080601f0160208091040260200160405190810160405280939291908181526020018383808284375f9201919091525061097692505050565b6040805160018082528183019092529396509194509250816020015b60408051606080820183525f80835260208301529181019190915281526020019060019003908161089057905050935060405180606001604052807f00000000000000000000000000000000000000000000000000000000000000006001600160a01b031681526020018381526020018489846040516024016109159392919061125c565b60408051601f198184030181529190526020810180516001600160e01b03166369c6cb1360e11b1790529052845185905f906109535761095361117d565b6020026020010181905250505050949350505050565b5f5f61076a8360016107d0565b6109ed604051806101c001604052805f67ffffffffffffffff168152602001606081526020015f8152602001606081526020015f81526020015f8152602001606081526020015f81526020016060815260200160608152602001606081526020016060815260200160608152602001606081525090565b5f80806109fa8582610cfe565b9250610a0760208261110e565b9050610a138582610d60565b67ffffffffffffffff168452610a2a60088261110e565b90505f610a378683610cfe565b9050610a4460208361110e565b9150610a51868383610dbc565b6020860152610a60818361110e565b91505f610a6d8784610cfe565b9050610a7a60208461110e565b9250610a87878483610dbc565b6060870152610a96818461110e565b9250610aa28784610cfe565b6080870152610ab260208461110e565b9250610abe8784610cfe565b6040870152610ace60208461110e565b9250610ada8784610cfe565b60a0870152610aea60208461110e565b92505f610af78885610cfe565b9050610b0460208561110e565b9350610b11888583610dbc565b60c0880152610b20818561110e565b9350610b2c8885610cfe565b60e0880152610b3c60208561110e565b93505f610b498986610cfe565b9050610b5660208661110e565b9450610b63898683610dbc565b610100890152610b73818661110e565b94505f610b808a87610cfe565b9050610b8d60208761110e565b9550610b9a8a8783610dbc565b6101208a0152610baa818761110e565b95505f610bb78b88610cfe565b9050610bc460208861110e565b9650610bd18b8883610dbc565b6101408b0152610be1818861110e565b96505f610bee8c89610cfe565b9050610bfb60208961110e565b9750610c088c8983610dbc565b6101608c0152610c18818961110e565b97505f610c258d8a610cfe565b9050610c3260208a61110e565b9850610c3f8d8a83610dbc565b6101808d0152610c4f818a61110e565b60408051602081019091525f81526101a08e01529850610c6f8d8a610cfe565b9b9d9a9c5050505050505050505050565b610c8a815f610825565b610c94815f61077f565b50565b5f7f8ce092d4869bdfa1a1ce579ddddb2b776c39ace5d7b5d7e70e97ece2a78f4f9b82604051602001610ce192919091825260601b6001600160601b031916602082015260340190565b604051602081830303815290604052805190602001209050919050565b5f610d0a82602061110e565b83511015610d575760405162461bcd60e51b8152602060048201526015602482015274746f55696e743235365f6f75744f66426f756e647360581b60448201526064015b60405180910390fd5b50016020015190565b5f610d6c82600861110e565b83511015610db35760405162461bcd60e51b8152602060048201526014602482015273746f55696e7436345f6f75744f66426f756e647360601b6044820152606401610d4e565b50016008015190565b60608182601f011015610e025760405162461bcd60e51b815260206004820152600e60248201526d736c6963655f6f766572666c6f7760901b6044820152606401610d4e565b610e0c828461110e565b84511015610e505760405162461bcd60e51b8152602060048201526011602482015270736c6963655f6f75744f66426f756e647360781b6044820152606401610d4e565b606082158015610e6e5760405191505f825260208201604052610eb8565b6040519150601f8416801560200281840101858101878315602002848b0101015b81831015610ea7578051835260209283019201610e8f565b5050858452601f01601f1916604052505b50949350505050565b80356001600160a01b0381168114610ed7575f5ffd5b919050565b5f5f83601f840112610eec575f5ffd5b50813567ffffffffffffffff811115610f03575f5ffd5b602083019150836020828501011115610f1a575f5ffd5b9250929050565b5f5f5f5f60608587031215610f34575f5ffd5b610f3d85610ec1565b9350610f4b60208601610ec1565b9250604085013567ffffffffffffffff811115610f66575f5ffd5b610f7287828801610edc565b95989497509550505050565b5f60208284031215610f8e575f5ffd5b610f9782610ec1565b9392505050565b5f5f60408385031215610faf575f5ffd5b82359150610fbf60208401610ec1565b90509250929050565b5f81518084528060208401602086015e5f602082860101526020601f19601f83011685010191505092915050565b5f602082016020835280845180835260408501915060408160051b8601019250602086015f5b8281101561107757868503603f19018452815180516001600160a01b031686526020808201519087015260409081015160609187018290529061106190870182610fc8565b955050602093840193919091019060010161101c565b50929695505050505050565b5f5f60208385031215611094575f5ffd5b823567ffffffffffffffff8111156110aa575f5ffd5b6110b685828601610edc565b90969095509350505050565b602081525f610f976020830184610fc8565b60208101600383106110f457634e487b7160e01b5f52602160045260245ffd5b91905290565b634e487b7160e01b5f52601160045260245ffd5b80820180821115610637576106376110fa565b634e487b7160e01b5f52604160045260245ffd5b6001600160a01b038581168252841660208201526060604082018190528101829052818360808301375f818301608090810191909152601f909201601f191601019392505050565b634e487b7160e01b5f52603260045260245ffd5b81810381811115610637576106376110fa565b805160208201516001600160601b03198116919060148210156111eb576bffffffffffffffffffffffff196bffffffffffffffffffffffff198360140360031b1b82161692505b5050919050565b5f87518060208a01845e606097881b6001600160601b03199081169390910192835295871b861660148301525092851b8416602884015290841b8316603c83015290921b166050820152606401919050565b5f60018201611255576112556110fa565b5060010190565b6060815261127760608201855167ffffffffffffffff169052565b5f60208501516101c06080840152611293610220840182610fc8565b9050604086015160a08401526060860151605f198483030160c08501526112ba8282610fc8565b915050608086015160e084015260a086015161010084015260c0860151605f19848303016101208501526112ee8282610fc8565b91505060e0860151610140840152610100860151605f19848303016101608501526113198282610fc8565b915050610120860151605f19848303016101808501526113398282610fc8565b915050610140860151605f19848303016101a08501526113598282610fc8565b915050610160860151605f19848303016101c08501526113798282610fc8565b915050610180860151605f19848303016101e08501526113998282610fc8565b9150506101a0860151605f19848303016102008501526113b98282610fc8565b925050506113d260208301856001600160a01b03169052565b82604083015294935050505056fea164736f6c634300081e000a","linkReferences":{}},"methodIdentifiers":{"asset()":"38d52e0f","build(address,address,bytes)":"3b5896bc","dlnDestination()":"8d0e48d7","executionNonce()":"01bd43ef","getOutAmount(address)":"81cbe691","hookType()":"e445e7dd","inspect(bytes)":"8c4313c1","lastCaller()":"2113522a","postExecute(address,address,bytes)":"05b4fe91","preExecute(address,address,bytes)":"2ae2fe3d","resetExecutionState(address)":"d06a1e89","setExecutionContext(address)":"14cb37cf","setOutAmount(uint256,address)":"1f264619","spToken()":"8e148776","subType()":"cf0a6181","subtype()":"5492e677","usedShares()":"685a943c"},"id":441}