{"abi":[{"type":"constructor","inputs":[],"stateMutability":"nonpayable"},{"type":"function","name":"asset","inputs":[],"outputs":[{"name":"","type":"address","internalType":"address"}],"stateMutability":"view"},{"type":"function","name":"build","inputs":[{"name":"prevHook","type":"address","internalType":"address"},{"name":"account","type":"address","internalType":"address"},{"name":"hookData","type":"bytes","internalType":"bytes"}],"outputs":[{"name":"executions","type":"tuple[]","internalType":"struct Execution[]","components":[{"name":"target","type":"address","internalType":"address"},{"name":"value","type":"uint256","internalType":"uint256"},{"name":"callData","type":"bytes","internalType":"bytes"}]}],"stateMutability":"view"},{"type":"function","name":"decodeAmount","inputs":[{"name":"data","type":"bytes","internalType":"bytes"}],"outputs":[{"name":"","type":"uint256","internalType":"uint256"}],"stateMutability":"pure"},{"type":"function","name":"decodeUsePrevHookAmount","inputs":[{"name":"data","type":"bytes","internalType":"bytes"}],"outputs":[{"name":"","type":"bool","internalType":"bool"}],"stateMutability":"pure"},{"type":"function","name":"dstChainId","inputs":[],"outputs":[{"name":"","type":"uint256","internalType":"uint256"}],"stateMutability":"view"},{"type":"function","name":"executionNonce","inputs":[],"outputs":[{"name":"","type":"uint256","internalType":"uint256"}],"stateMutability":"view"},{"type":"function","name":"getOutAmount","inputs":[{"name":"caller","type":"address","internalType":"address"}],"outputs":[{"name":"","type":"uint256","internalType":"uint256"}],"stateMutability":"view"},{"type":"function","name":"hookType","inputs":[],"outputs":[{"name":"","type":"uint8","internalType":"enum ISuperHook.HookType"}],"stateMutability":"view"},{"type":"function","name":"inspect","inputs":[{"name":"data","type":"bytes","internalType":"bytes"}],"outputs":[{"name":"","type":"bytes","internalType":"bytes"}],"stateMutability":"pure"},{"type":"function","name":"lastCaller","inputs":[],"outputs":[{"name":"","type":"address","internalType":"address"}],"stateMutability":"view"},{"type":"function","name":"postExecute","inputs":[{"name":"prevHook","type":"address","internalType":"address"},{"name":"account","type":"address","internalType":"address"},{"name":"data","type":"bytes","internalType":"bytes"}],"outputs":[],"stateMutability":"nonpayable"},{"type":"function","name":"preExecute","inputs":[{"name":"prevHook","type":"address","internalType":"address"},{"name":"account","type":"address","internalType":"address"},{"name":"data","type":"bytes","internalType":"bytes"}],"outputs":[],"stateMutability":"nonpayable"},{"type":"function","name":"resetExecutionState","inputs":[{"name":"caller","type":"address","internalType":"address"}],"outputs":[],"stateMutability":"nonpayable"},{"type":"function","name":"setExecutionContext","inputs":[{"name":"caller","type":"address","internalType":"address"}],"outputs":[],"stateMutability":"nonpayable"},{"type":"function","name":"setOutAmount","inputs":[{"name":"_outAmount","type":"uint256","internalType":"uint256"},{"name":"caller","type":"address","internalType":"address"}],"outputs":[],"stateMutability":"nonpayable"},{"type":"function","name":"spToken","inputs":[],"outputs":[{"name":"","type":"address","internalType":"address"}],"stateMutability":"view"},{"type":"function","name":"subType","inputs":[],"outputs":[{"name":"","type":"bytes32","internalType":"bytes32"}],"stateMutability":"view"},{"type":"function","name":"subtype","inputs":[],"outputs":[{"name":"","type":"bytes32","internalType":"bytes32"}],"stateMutability":"view"},{"type":"function","name":"usedShares","inputs":[],"outputs":[{"name":"","type":"uint256","internalType":"uint256"}],"stateMutability":"view"},{"type":"function","name":"vaultBank","inputs":[],"outputs":[{"name":"","type":"address","internalType":"address"}],"stateMutability":"view"},{"type":"error","name":"ADDRESS_NOT_VALID","inputs":[]},{"type":"error","name":"AMOUNT_NOT_VALID","inputs":[]},{"type":"error","name":"CANNOT_SET_OUT_AMOUNT","inputs":[]},{"type":"error","name":"INCOMPLETE_HOOK_EXECUTION","inputs":[]},{"type":"error","name":"NOT_AUTHORIZED","inputs":[]},{"type":"error","name":"POST_EXECUTE_ALREADY_CALLED","inputs":[]},{"type":"error","name":"PRE_EXECUTE_ALREADY_CALLED","inputs":[]},{"type":"error","name":"UNAUTHORIZED_CALLER","inputs":[]}],"bytecode":{"object":"0x60a0604052348015600e575f5ffd5b506040805180820190915260078152660455243373534360cc1b6020909101525f805460ff191660011790557fc518a1d423df5aa415a8180f6384c181bd18f2bc1b734ba3dd52cd98b9b5fb7760805260805161129b61007d5f395f81816101fc0152610297015261129b5ff3fe608060405234801561000f575f5ffd5b5060043610610127575f3560e01c8063685a943c116100a9578063ac440f721161006e578063ac440f721461027f578063cf0a618114610292578063d06a1e89146102b9578063e445e7dd146102cc578063e7745517146102e5575f5ffd5b8063685a943c14610220578063701ffc8b1461022857806381cbe6911461023a5780638c4313c11461024d5780638e1487761461026d575f5ffd5b80632ae2fe3d116100ef5780632ae2fe3d146101ac57806330c593f7146101bf57806338d52e0f146101c85780633b5896bc146101da5780635492e677146101fa575f5ffd5b806301bd43ef1461012b57806305b4fe911461014757806314cb37cf1461015c5780631f2646191461016f5780632113522a14610182575b5f5ffd5b61013460035c81565b6040519081526020015b60405180910390f35b61015a610155366004610f0b565b610308565b005b61015a61016a366004610f6c565b610382565b61015a61017d366004610f87565b6103a3565b6101946001600160a01b0360045c1681565b6040516001600160a01b03909116815260200161013e565b61015a6101ba366004610f0b565b6103fc565b61013460065c81565b6101946001600160a01b0360025c1681565b6101ed6101e8366004610f0b565b61046f565b60405161013e9190610fe3565b7f0000000000000000000000000000000000000000000000000000000000000000610134565b6101345f5c81565b6101946001600160a01b0360055c1681565b610134610248366004610f6c565b610688565b61026061025b366004611070565b6106a0565b60405161013e91906110af565b6101946001600160a01b0360015c1681565b61013461028d3660046110d5565b61071f565b6101347f000000000000000000000000000000000000000000000000000000000000000081565b61015a6102c7366004610f6c565b610729565b5f546102d89060ff1681565b60405161013e9190611188565b6102f86102f33660046110d5565b61077b565b604051901515815260200161013e565b336001600160a01b038416146103315760405163e15e56c960e01b815260040160405180910390fd5b5f61033b84610787565b90506103468161079a565b156103645760405163945b63f560e01b815260040160405180910390fd5b61036f8160016107a7565b61037b858585856107bd565b5050505050565b61038b8161081e565b50336004805c6001600160a01b0319168217905d5050565b5f6103ad82610787565b90506103b881610850565b806103c757506103c78161079a565b156103e55760405163441e4c7360e11b815260040160405180910390fd5b5f6103f1826001610859565b905083815d50505050565b336001600160a01b038416146104255760405163e15e56c960e01b815260040160405180910390fd5b5f61042f84610787565b905061043a81610850565b1561045857604051630bbb04d960e11b815260040160405180910390fd5b6104638160016108ae565b61037b858585856108ba565b60605f61047e868686866109bb565b90508051600261048e91906111c2565b67ffffffffffffffff8111156104a6576104a66110c1565b6040519080825280602002602001820160405280156104f257816020015b60408051606080820183525f8083526020830152918101919091528152602001906001900390816104c45790505b5091506040518060600160405280306001600160a01b031681526020015f8152602001306001600160a01b0316632ae2fe3d8989898960405160240161053b94939291906111d5565b604051602081830303815290604052915060e01b6020820180516001600160e01b038381831617835250505050815250825f8151811061057d5761057d61121d565b60209081029190910101525f5b81518110156105de578181815181106105a5576105a561121d565b6020026020010151838260016105bb91906111c2565b815181106105cb576105cb61121d565b602090810291909101015260010161058a565b506040518060600160405280306001600160a01b031681526020015f8152602001306001600160a01b03166305b4fe918989898960405160240161062594939291906111d5565b604051602081830303815290604052915060e01b6020820180516001600160e01b03838183161783525050505081525082600184516106649190611231565b815181106106745761067461121d565b602002602001018190525050949350505050565b5f61069a61069583610787565b610c26565b92915050565b60606106e083838080601f0160208091040260200160405190810160405280939291908181526020018383808284375f92019190915250610c3392505050565b604051602001610708919060609190911b6bffffffffffffffffffffffff1916815260140190565b604051602081830303815290604052905092915050565b5f61069a82610c3f565b5f61073382610787565b905061073e81610850565b1580610750575061074e8161079a565b155b1561076e57604051634bd439b560e11b815260040160405180910390fd5b61077781610c4b565b5050565b5f61069a826054610c62565b5f5f61079283610c8e565b5c9392505050565b5f5f610792836003610859565b5f6107b3836003610859565b905081815d505050565b6108186107c984610688565b6108088585858080601f0160208091040260200160405190810160405280939291908181526020018383808284375f92019190915250610cfa92505050565b6108129190611231565b84610dd4565b50505050565b5f6003805c908261082e83611244565b9190505d505f61083d83610c8e565b905060035c80825d505060035c92915050565b5f5f6107928360025b604080517fc41a07c57a776f6217c6d4278dfe7a5d114742afe55627ce458c2802aa4d703460208083019190915281830194909452606080820193909352815180820390930183526080019052805191012090565b5f6107b3836002610859565b6108fc6108128484848080601f0160208091040260200160405190810160405280939291908181526020018383808284375f92019190915250610cfa92505050565b61093a82828080601f0160208091040260200160405190810160405280939291908181526020018383808284375f92019190915250610c3392505050565b6001600160a01b031663a8d5fd656040518163ffffffff1660e01b8152600401602060405180830381865afa158015610975573d5f5f3e3d5ffd5b505050506040513d601f19601f82011682018060405250810190610999919061125c565b6001805c6001600160a01b0319166001600160a01b03831617905d5050505050565b60605f6109fc84848080601f0160208091040260200160405190810160405280939291908181526020018383808284375f92019190915250610c3392505050565b90505f610a3d85858080601f0160208091040260200160405190810160405280939291908181526020018383808284375f92019190915250610c3f92505050565b90505f610a8186868080601f0160208091040260200160405190810160405280939291908181526020018383808284375f9201919091525060549250610c62915050565b90508015610af4576040516381cbe69160e01b81526001600160a01b0388811660048301528916906381cbe69190602401602060405180830381865afa158015610acd573d5f5f3e3d5ffd5b505050506040513d601f19601f82011682018060405250810190610af19190611277565b91505b815f03610b14576040516305112ab160e41b815260040160405180910390fd5b6001600160a01b0383161580610b3157506001600160a01b038716155b15610b4f57604051630f58648f60e01b815260040160405180910390fd5b60408051600180825281830190925290816020015b60408051606080820183525f808352602083015291810191909152815260200190600190039081610b6457905050604080516060810182526001600160a01b0380871682525f6020830152825160248101879052908b16604482018190526064820152929650919082019060840160408051601f198184030181529190526020810180516001600160e01b0316630b8b4a6160e21b1790529052845185905f90610c1057610c1061121d565b6020026020010181905250505050949350505050565b5f5f610792836001610859565b5f61069a826020610dec565b5f61069a826034610e55565b610c55815f6108ae565b610c5f815f6107a7565b50565b5f828281518110610c7557610c7561121d565b01602001516001600160f81b0319161515905092915050565b5f7f8ce092d4869bdfa1a1ce579ddddb2b776c39ace5d7b5d7e70e97ece2a78f4f9b82604051602001610cdd92919091825260601b6bffffffffffffffffffffffff1916602082015260340190565b604051602081830303815290604052805190602001209050919050565b5f610d0482610c33565b6001600160a01b031663a8d5fd656040518163ffffffff1660e01b8152600401602060405180830381865afa158015610d3f573d5f5f3e3d5ffd5b505050506040513d601f19601f82011682018060405250810190610d63919061125c565b6040516370a0823160e01b81526001600160a01b03858116600483015291909116906370a0823190602401602060405180830381865afa158015610da9573d5f5f3e3d5ffd5b505050506040513d601f19601f82011682018060405250810190610dcd9190611277565b9392505050565b5f610dde82610787565b90505f6103f1826001610859565b5f610df88260146111c2565b83511015610e455760405162461bcd60e51b8152602060048201526015602482015274746f416464726573735f6f75744f66426f756e647360581b60448201526064015b60405180910390fd5b500160200151600160601b900490565b5f610e618260206111c2565b83511015610ea95760405162461bcd60e51b8152602060048201526015602482015274746f55696e743235365f6f75744f66426f756e647360581b6044820152606401610e3c565b50016020015190565b6001600160a01b0381168114610c5f575f5ffd5b5f5f83601f840112610ed6575f5ffd5b50813567ffffffffffffffff811115610eed575f5ffd5b602083019150836020828501011115610f04575f5ffd5b9250929050565b5f5f5f5f60608587031215610f1e575f5ffd5b8435610f2981610eb2565b93506020850135610f3981610eb2565b9250604085013567ffffffffffffffff811115610f54575f5ffd5b610f6087828801610ec6565b95989497509550505050565b5f60208284031215610f7c575f5ffd5b8135610dcd81610eb2565b5f5f60408385031215610f98575f5ffd5b823591506020830135610faa81610eb2565b809150509250929050565b5f81518084528060208401602086015e5f602082860101526020601f19601f83011685010191505092915050565b5f602082016020835280845180835260408501915060408160051b8601019250602086015f5b8281101561106457868503603f19018452815180516001600160a01b031686526020808201519087015260409081015160609187018290529061104e90870182610fb5565b9550506020938401939190910190600101611009565b50929695505050505050565b5f5f60208385031215611081575f5ffd5b823567ffffffffffffffff811115611097575f5ffd5b6110a385828601610ec6565b90969095509350505050565b602081525f610dcd6020830184610fb5565b634e487b7160e01b5f52604160045260245ffd5b5f602082840312156110e5575f5ffd5b813567ffffffffffffffff8111156110fb575f5ffd5b8201601f8101841361110b575f5ffd5b803567ffffffffffffffff811115611125576111256110c1565b604051601f8201601f19908116603f0116810167ffffffffffffffff81118282101715611154576111546110c1565b60405281815282820160200186101561116b575f5ffd5b816020840160208301375f91810160200191909152949350505050565b60208101600383106111a857634e487b7160e01b5f52602160045260245ffd5b91905290565b634e487b7160e01b5f52601160045260245ffd5b8082018082111561069a5761069a6111ae565b6001600160a01b038581168252841660208201526060604082018190528101829052818360808301375f818301608090810191909152601f909201601f191601019392505050565b634e487b7160e01b5f52603260045260245ffd5b8181038181111561069a5761069a6111ae565b5f60018201611255576112556111ae565b5060010190565b5f6020828403121561126c575f5ffd5b8151610dcd81610eb2565b5f60208284031215611287575f5ffd5b505191905056fea164736f6c634300081e000a","linkReferences":{}},"methodIdentifiers":{"asset()":"38d52e0f","build(address,address,bytes)":"3b5896bc","decodeAmount(bytes)":"ac440f72","decodeUsePrevHookAmount(bytes)":"e7745517","dstChainId()":"30c593f7","executionNonce()":"01bd43ef","getOutAmount(address)":"81cbe691","hookType()":"e445e7dd","inspect(bytes)":"8c4313c1","lastCaller()":"2113522a","postExecute(address,address,bytes)":"05b4fe91","preExecute(address,address,bytes)":"2ae2fe3d","resetExecutionState(address)":"d06a1e89","setExecutionContext(address)":"14cb37cf","setOutAmount(uint256,address)":"1f264619","spToken()":"8e148776","subType()":"cf0a6181","subtype()":"5492e677","usedShares()":"685a943c","vaultBank()":"701ffc8b"},"id":487}