{"abi":[{"type":"constructor","inputs":[],"stateMutability":"nonpayable"},{"type":"function","name":"asset","inputs":[],"outputs":[{"name":"","type":"address","internalType":"address"}],"stateMutability":"view"},{"type":"function","name":"build","inputs":[{"name":"prevHook","type":"address","internalType":"address"},{"name":"account","type":"address","internalType":"address"},{"name":"hookData","type":"bytes","internalType":"bytes"}],"outputs":[{"name":"executions","type":"tuple[]","internalType":"struct Execution[]","components":[{"name":"target","type":"address","internalType":"address"},{"name":"value","type":"uint256","internalType":"uint256"},{"name":"callData","type":"bytes","internalType":"bytes"}]}],"stateMutability":"view"},{"type":"function","name":"decodeAmount","inputs":[{"name":"data","type":"bytes","internalType":"bytes"}],"outputs":[{"name":"","type":"uint256","internalType":"uint256"}],"stateMutability":"pure"},{"type":"function","name":"executionNonce","inputs":[],"outputs":[{"name":"","type":"uint256","internalType":"uint256"}],"stateMutability":"view"},{"type":"function","name":"getOutAmount","inputs":[{"name":"caller","type":"address","internalType":"address"}],"outputs":[{"name":"","type":"uint256","internalType":"uint256"}],"stateMutability":"view"},{"type":"function","name":"hookType","inputs":[],"outputs":[{"name":"","type":"uint8","internalType":"enum ISuperHook.HookType"}],"stateMutability":"view"},{"type":"function","name":"inspect","inputs":[{"name":"data","type":"bytes","internalType":"bytes"}],"outputs":[{"name":"","type":"bytes","internalType":"bytes"}],"stateMutability":"pure"},{"type":"function","name":"lastCaller","inputs":[],"outputs":[{"name":"","type":"address","internalType":"address"}],"stateMutability":"view"},{"type":"function","name":"postExecute","inputs":[{"name":"prevHook","type":"address","internalType":"address"},{"name":"account","type":"address","internalType":"address"},{"name":"data","type":"bytes","internalType":"bytes"}],"outputs":[],"stateMutability":"nonpayable"},{"type":"function","name":"preExecute","inputs":[{"name":"prevHook","type":"address","internalType":"address"},{"name":"account","type":"address","internalType":"address"},{"name":"data","type":"bytes","internalType":"bytes"}],"outputs":[],"stateMutability":"nonpayable"},{"type":"function","name":"resetExecutionState","inputs":[{"name":"caller","type":"address","internalType":"address"}],"outputs":[],"stateMutability":"nonpayable"},{"type":"function","name":"setExecutionContext","inputs":[{"name":"caller","type":"address","internalType":"address"}],"outputs":[],"stateMutability":"nonpayable"},{"type":"function","name":"setOutAmount","inputs":[{"name":"_outAmount","type":"uint256","internalType":"uint256"},{"name":"caller","type":"address","internalType":"address"}],"outputs":[],"stateMutability":"nonpayable"},{"type":"function","name":"spToken","inputs":[],"outputs":[{"name":"","type":"address","internalType":"address"}],"stateMutability":"view"},{"type":"function","name":"subType","inputs":[],"outputs":[{"name":"","type":"bytes32","internalType":"bytes32"}],"stateMutability":"view"},{"type":"function","name":"subtype","inputs":[],"outputs":[{"name":"","type":"bytes32","internalType":"bytes32"}],"stateMutability":"view"},{"type":"function","name":"usedShares","inputs":[],"outputs":[{"name":"","type":"uint256","internalType":"uint256"}],"stateMutability":"view"},{"type":"error","name":"ADDRESS_NOT_VALID","inputs":[]},{"type":"error","name":"AMOUNT_NOT_VALID","inputs":[]},{"type":"error","name":"CANNOT_SET_OUT_AMOUNT","inputs":[]},{"type":"error","name":"INCOMPLETE_HOOK_EXECUTION","inputs":[]},{"type":"error","name":"NOT_AUTHORIZED","inputs":[]},{"type":"error","name":"POST_EXECUTE_ALREADY_CALLED","inputs":[]},{"type":"error","name":"PRE_EXECUTE_ALREADY_CALLED","inputs":[]},{"type":"error","name":"UNAUTHORIZED_CALLER","inputs":[]}],"bytecode":{"object":"0x60a0604052348015600e575f5ffd5b5060408051808201909152600881526721b7b7b63237bbb760c11b6020909101525f805460ff191690557f70fbe9d5927235f8c6014e8efeb60b8ac37eb0fca78742c3a38f4cc6d89da3a96080526080516110c161007b5f395f81816101d2015261025b01526110c15ff3fe608060405234801561000f575f5ffd5b5060043610610106575f3560e01c80635492e6771161009e5780638e1487761161006e5780638e14877614610231578063ac440f7214610243578063cf0a618114610256578063d06a1e891461027d578063e445e7dd14610290575f5ffd5b80635492e677146101d0578063685a943c146101f657806381cbe691146101fe5780638c4313c114610211575f5ffd5b80632113522a116100d95780632113522a146101615780632ae2fe3d1461018b57806338d52e0f1461019e5780633b5896bc146101b0575f5ffd5b806301bd43ef1461010a57806305b4fe911461012657806314cb37cf1461013b5780631f2646191461014e575b5f5ffd5b61011360035c81565b6040519081526020015b60405180910390f35b610139610134366004610d56565b6102a9565b005b610139610149366004610db3565b610323565b61013961015c366004610dcc565b610344565b6101736001600160a01b0360045c1681565b6040516001600160a01b03909116815260200161011d565b610139610199366004610d56565b61039d565b6101736001600160a01b0360025c1681565b6101c36101be366004610d56565b610410565b60405161011d9190610e24565b7f0000000000000000000000000000000000000000000000000000000000000000610113565b6101135f5c81565b61011361020c366004610db3565b610629565b61022461021f366004610eb1565b610641565b60405161011d9190610ef0565b6101736001600160a01b0360015c1681565b610113610251366004610f16565b6106c0565b6101137f000000000000000000000000000000000000000000000000000000000000000081565b61013961028b366004610db3565b6106ca565b5f5461029c9060ff1681565b60405161011d9190610fc9565b336001600160a01b038416146102d25760405163e15e56c960e01b815260040160405180910390fd5b5f6102dc8461071c565b90506102e78161072f565b156103055760405163945b63f560e01b815260040160405180910390fd5b61031081600161073c565b61031c85858585610752565b5050505050565b61032c816107a6565b50336004805c6001600160a01b0319168217905d5050565b5f61034e8261071c565b9050610359816107d8565b8061036857506103688161072f565b156103865760405163441e4c7360e11b815260040160405180910390fd5b5f6103928260016107e1565b905083815d50505050565b336001600160a01b038416146103c65760405163e15e56c960e01b815260040160405180910390fd5b5f6103d08461071c565b90506103db816107d8565b156103f957604051630bbb04d960e11b815260040160405180910390fd5b610404816001610836565b61031c85858585610842565b60605f61041f86868686610881565b90508051600261042f9190611003565b67ffffffffffffffff81111561044757610447610f02565b60405190808252806020026020018201604052801561049357816020015b60408051606080820183525f8083526020830152918101919091528152602001906001900390816104655790505b5091506040518060600160405280306001600160a01b031681526020015f8152602001306001600160a01b0316632ae2fe3d898989896040516024016104dc9493929190611016565b604051602081830303815290604052915060e01b6020820180516001600160e01b038381831617835250505050815250825f8151811061051e5761051e61105e565b60209081029190910101525f5b815181101561057f578181815181106105465761054661105e565b60200260200101518382600161055c9190611003565b8151811061056c5761056c61105e565b602090810291909101015260010161052b565b506040518060600160405280306001600160a01b031681526020015f8152602001306001600160a01b03166305b4fe91898989896040516024016105c69493929190611016565b604051602081830303815290604052915060e01b6020820180516001600160e01b03838183161783525050505081525082600184516106059190611072565b815181106106155761061561105e565b602002602001018190525050949350505050565b5f61063b6106368361071c565b610ae1565b92915050565b606061068183838080601f0160208091040260200160405190810160405280939291908181526020018383808284375f92019190915250610aee92505050565b6040516020016106a9919060609190911b6bffffffffffffffffffffffff1916815260140190565b604051602081830303815290604052905092915050565b5f61063b82610afa565b5f6106d48261071c565b90506106df816107d8565b15806106f157506106ef8161072f565b155b1561070f57604051634bd439b560e11b815260040160405180910390fd5b61071881610b06565b5050565b5f5f61072783610b1d565b5c9392505050565b5f5f6107278360036107e1565b5f6107488360036107e1565b905081815d505050565b6107918383838080601f0160208091040260200160405190810160405280939291908181526020018383808284375f92019190915250610b8992505050565b61079c905f5c611072565b805f5d5050505050565b5f6003805c90826107b683611085565b9190505d505f6107c583610b1d565b905060035c80825d505060035c92915050565b5f5f6107278360025b604080517fc41a07c57a776f6217c6d4278dfe7a5d114742afe55627ce458c2802aa4d703460208083019190915281830194909452606080820193909352815180820390930183526080019052805191012090565b5f6107488360026107e1565b61079c8383838080601f0160208091040260200160405190810160405280939291908181526020018383808284375f92019190915250610b8992505050565b60605f6108c284848080601f0160208091040260200160405190810160405280939291908181526020018383808284375f92019190915250610aee92505050565b90505f61090385858080601f0160208091040260200160405190810160405280939291908181526020018383808284375f92019190915250610afa92505050565b90505f61094786868080601f0160208091040260200160405190810160405280939291908181526020018383808284375f9201919091525060549250610c04915050565b905080156109ba576040516381cbe69160e01b81526001600160a01b0388811660048301528916906381cbe69190602401602060405180830381865afa158015610993573d5f5f3e3d5ffd5b505050506040513d601f19601f820116820180604052508101906109b7919061109d565b91505b815f036109da576040516305112ab160e41b815260040160405180910390fd5b6001600160a01b03831615806109f757506001600160a01b038716155b15610a1557604051630f58648f60e01b815260040160405180910390fd5b60408051600180825281830190925290816020015b60408051606080820183525f808352602083015291810191909152815260200190600190039081610a2a5790505093506040518060600160405280846001600160a01b031681526020015f815260200183604051602401610a8d91815260200190565b60408051601f198184030181529190526020810180516001600160e01b0316639343d9e160e01b1790529052845185905f90610acb57610acb61105e565b6020026020010181905250505050949350505050565b5f5f6107278360016107e1565b5f61063b826020610c30565b5f61063b826034610c99565b610b10815f610836565b610b1a815f61073c565b50565b5f7f8ce092d4869bdfa1a1ce579ddddb2b776c39ace5d7b5d7e70e97ece2a78f4f9b82604051602001610b6c92919091825260601b6bffffffffffffffffffffffff1916602082015260340190565b604051602081830303815290604052805190602001209050919050565b5f610b9382610aee565b6040516370a0823160e01b81526001600160a01b03858116600483015291909116906370a0823190602401602060405180830381865afa158015610bd9573d5f5f3e3d5ffd5b505050506040513d601f19601f82011682018060405250810190610bfd919061109d565b9392505050565b5f828281518110610c1757610c1761105e565b01602001516001600160f81b0319161515905092915050565b5f610c3c826014611003565b83511015610c895760405162461bcd60e51b8152602060048201526015602482015274746f416464726573735f6f75744f66426f756e647360581b60448201526064015b60405180910390fd5b500160200151600160601b900490565b5f610ca5826020611003565b83511015610ced5760405162461bcd60e51b8152602060048201526015602482015274746f55696e743235365f6f75744f66426f756e647360581b6044820152606401610c80565b50016020015190565b80356001600160a01b0381168114610d0c575f5ffd5b919050565b5f5f83601f840112610d21575f5ffd5b50813567ffffffffffffffff811115610d38575f5ffd5b602083019150836020828501011115610d4f575f5ffd5b9250929050565b5f5f5f5f60608587031215610d69575f5ffd5b610d7285610cf6565b9350610d8060208601610cf6565b9250604085013567ffffffffffffffff811115610d9b575f5ffd5b610da787828801610d11565b95989497509550505050565b5f60208284031215610dc3575f5ffd5b610bfd82610cf6565b5f5f60408385031215610ddd575f5ffd5b82359150610ded60208401610cf6565b90509250929050565b5f81518084528060208401602086015e5f602082860101526020601f19601f83011685010191505092915050565b5f602082016020835280845180835260408501915060408160051b8601019250602086015f5b82811015610ea557868503603f19018452815180516001600160a01b0316865260208082015190870152604090810151606091870182905290610e8f90870182610df6565b9550506020938401939190910190600101610e4a565b50929695505050505050565b5f5f60208385031215610ec2575f5ffd5b823567ffffffffffffffff811115610ed8575f5ffd5b610ee485828601610d11565b90969095509350505050565b602081525f610bfd6020830184610df6565b634e487b7160e01b5f52604160045260245ffd5b5f60208284031215610f26575f5ffd5b813567ffffffffffffffff811115610f3c575f5ffd5b8201601f81018413610f4c575f5ffd5b803567ffffffffffffffff811115610f6657610f66610f02565b604051601f8201601f19908116603f0116810167ffffffffffffffff81118282101715610f9557610f95610f02565b604052818152828201602001861015610fac575f5ffd5b816020840160208301375f91810160200191909152949350505050565b6020810160038310610fe957634e487b7160e01b5f52602160045260245ffd5b91905290565b634e487b7160e01b5f52601160045260245ffd5b8082018082111561063b5761063b610fef565b6001600160a01b038581168252841660208201526060604082018190528101829052818360808301375f818301608090810191909152601f909201601f191601019392505050565b634e487b7160e01b5f52603260045260245ffd5b8181038181111561063b5761063b610fef565b5f6001820161109657611096610fef565b5060010190565b5f602082840312156110ad575f5ffd5b505191905056fea164736f6c634300081e000a","linkReferences":{}},"methodIdentifiers":{"asset()":"38d52e0f","build(address,address,bytes)":"3b5896bc","decodeAmount(bytes)":"ac440f72","executionNonce()":"01bd43ef","getOutAmount(address)":"81cbe691","hookType()":"e445e7dd","inspect(bytes)":"8c4313c1","lastCaller()":"2113522a","postExecute(address,address,bytes)":"05b4fe91","preExecute(address,address,bytes)":"2ae2fe3d","resetExecutionState(address)":"d06a1e89","setExecutionContext(address)":"14cb37cf","setOutAmount(uint256,address)":"1f264619","spToken()":"8e148776","subType()":"cf0a6181","subtype()":"5492e677","usedShares()":"685a943c"},"id":492}