{"abi":[{"type":"constructor","inputs":[{"name":"_distributor","type":"address","internalType":"address"}],"stateMutability":"nonpayable"},{"type":"function","name":"asset","inputs":[],"outputs":[{"name":"","type":"address","internalType":"address"}],"stateMutability":"view"},{"type":"function","name":"build","inputs":[{"name":"prevHook","type":"address","internalType":"address"},{"name":"account","type":"address","internalType":"address"},{"name":"hookData","type":"bytes","internalType":"bytes"}],"outputs":[{"name":"executions","type":"tuple[]","internalType":"struct Execution[]","components":[{"name":"target","type":"address","internalType":"address"},{"name":"value","type":"uint256","internalType":"uint256"},{"name":"callData","type":"bytes","internalType":"bytes"}]}],"stateMutability":"view"},{"type":"function","name":"distributor","inputs":[],"outputs":[{"name":"","type":"address","internalType":"address"}],"stateMutability":"view"},{"type":"function","name":"executionNonce","inputs":[],"outputs":[{"name":"","type":"uint256","internalType":"uint256"}],"stateMutability":"view"},{"type":"function","name":"getOutAmount","inputs":[{"name":"caller","type":"address","internalType":"address"}],"outputs":[{"name":"","type":"uint256","internalType":"uint256"}],"stateMutability":"view"},{"type":"function","name":"hookType","inputs":[],"outputs":[{"name":"","type":"uint8","internalType":"enum ISuperHook.HookType"}],"stateMutability":"view"},{"type":"function","name":"inspect","inputs":[{"name":"data","type":"bytes","internalType":"bytes"}],"outputs":[{"name":"addressData","type":"bytes","internalType":"bytes"}],"stateMutability":"pure"},{"type":"function","name":"lastCaller","inputs":[],"outputs":[{"name":"","type":"address","internalType":"address"}],"stateMutability":"view"},{"type":"function","name":"postExecute","inputs":[{"name":"prevHook","type":"address","internalType":"address"},{"name":"account","type":"address","internalType":"address"},{"name":"data","type":"bytes","internalType":"bytes"}],"outputs":[],"stateMutability":"nonpayable"},{"type":"function","name":"preExecute","inputs":[{"name":"prevHook","type":"address","internalType":"address"},{"name":"account","type":"address","internalType":"address"},{"name":"data","type":"bytes","internalType":"bytes"}],"outputs":[],"stateMutability":"nonpayable"},{"type":"function","name":"resetExecutionState","inputs":[{"name":"caller","type":"address","internalType":"address"}],"outputs":[],"stateMutability":"nonpayable"},{"type":"function","name":"setExecutionContext","inputs":[{"name":"caller","type":"address","internalType":"address"}],"outputs":[],"stateMutability":"nonpayable"},{"type":"function","name":"setOutAmount","inputs":[{"name":"_outAmount","type":"uint256","internalType":"uint256"},{"name":"caller","type":"address","internalType":"address"}],"outputs":[],"stateMutability":"nonpayable"},{"type":"function","name":"spToken","inputs":[],"outputs":[{"name":"","type":"address","internalType":"address"}],"stateMutability":"view"},{"type":"function","name":"subType","inputs":[],"outputs":[{"name":"","type":"bytes32","internalType":"bytes32"}],"stateMutability":"view"},{"type":"function","name":"subtype","inputs":[],"outputs":[{"name":"","type":"bytes32","internalType":"bytes32"}],"stateMutability":"view"},{"type":"function","name":"usedShares","inputs":[],"outputs":[{"name":"","type":"uint256","internalType":"uint256"}],"stateMutability":"view"},{"type":"error","name":"ADDRESS_NOT_VALID","inputs":[]},{"type":"error","name":"AMOUNT_NOT_VALID","inputs":[]},{"type":"error","name":"CANNOT_SET_OUT_AMOUNT","inputs":[]},{"type":"error","name":"INCOMPLETE_HOOK_EXECUTION","inputs":[]},{"type":"error","name":"INVALID_ENCODING","inputs":[]},{"type":"error","name":"NOT_AUTHORIZED","inputs":[]},{"type":"error","name":"POST_EXECUTE_ALREADY_CALLED","inputs":[]},{"type":"error","name":"PRE_EXECUTE_ALREADY_CALLED","inputs":[]},{"type":"error","name":"UNAUTHORIZED_CALLER","inputs":[]}],"bytecode":{"object":"0x60c060405234801561000f575f5ffd5b506040516115b63803806115b683398101604081905261002e916100b0565b604080518082019091526005815264436c61696d60d81b6020909101525f805460ff191690557f5c2db6855baf6c374b9d0065771a33d4c31a8627d7b9d40f3fc6aa5dbd7b8a486080526001600160a01b03811661009f57604051630f58648f60e01b815260040160405180910390fd5b6001600160a01b031660a0526100dd565b5f602082840312156100c0575f5ffd5b81516001600160a01b03811681146100d6575f5ffd5b9392505050565b60805160a0516114aa61010c5f395f818161024801526108a201525f81816101d2015261026f01526114aa5ff3fe608060405234801561000f575f5ffd5b5060043610610106575f3560e01c80635492e6771161009e5780638e1487761161006e5780638e14877614610231578063bfe1092814610243578063cf0a61811461026a578063d06a1e8914610291578063e445e7dd146102a4575f5ffd5b80635492e677146101d0578063685a943c146101f657806381cbe691146101fe5780638c4313c114610211575f5ffd5b80632113522a116100d95780632113522a146101615780632ae2fe3d1461018b57806338d52e0f1461019e5780633b5896bc146101b0575f5ffd5b806301bd43ef1461010a57806305b4fe911461012657806314cb37cf1461013b5780631f2646191461014e575b5f5ffd5b61011360035c81565b6040519081526020015b60405180910390f35b6101396101343660046110a9565b6102bd565b005b610139610149366004611106565b610337565b61013961015c366004611126565b610358565b6101736001600160a01b0360045c1681565b6040516001600160a01b03909116815260200161011d565b6101396101993660046110a9565b6103b1565b6101736001600160a01b0360025c1681565b6101c36101be3660046110a9565b610418565b60405161011d919061117e565b7f0000000000000000000000000000000000000000000000000000000000000000610113565b6101135f5c81565b61011361020c366004611106565b610631565b61022461021f36600461120b565b610649565b60405161011d919061124a565b6101736001600160a01b0360015c1681565b6101737f000000000000000000000000000000000000000000000000000000000000000081565b6101137f000000000000000000000000000000000000000000000000000000000000000081565b61013961029f366004611106565b6106b9565b5f546102b09060ff1681565b60405161011d919061125c565b336001600160a01b038416146102e65760405163e15e56c960e01b815260040160405180910390fd5b5f6102f08461070b565b90506102fb8161071e565b156103195760405163945b63f560e01b815260040160405180910390fd5b61032481600161072b565b61033085858585610741565b5050505050565b61034081610751565b50336004805c6001600160a01b0319168217905d5050565b5f6103628261070b565b905061036d81610783565b8061037c575061037c8161071e565b1561039a5760405163441e4c7360e11b815260040160405180910390fd5b5f6103a682600161078c565b905083815d50505050565b336001600160a01b038416146103da5760405163e15e56c960e01b815260040160405180910390fd5b5f6103e48461070b565b90506103ef81610783565b1561040d57604051630bbb04d960e11b815260040160405180910390fd5b6103248160016107e1565b60605f610427868686866107ed565b9050805160026104379190611296565b67ffffffffffffffff81111561044f5761044f6112a9565b60405190808252806020026020018201604052801561049b57816020015b60408051606080820183525f80835260208301529181019190915281526020019060019003908161046d5790505b5091506040518060600160405280306001600160a01b031681526020015f8152602001306001600160a01b0316632ae2fe3d898989896040516024016104e494939291906112bd565b604051602081830303815290604052915060e01b6020820180516001600160e01b038381831617835250505050815250825f8151811061052657610526611305565b60209081029190910101525f5b81518110156105875781818151811061054e5761054e611305565b6020026020010151838260016105649190611296565b8151811061057457610574611305565b6020908102919091010152600101610533565b506040518060600160405280306001600160a01b031681526020015f8152602001306001600160a01b03166305b4fe91898989896040516024016105ce94939291906112bd565b604051602081830303815290604052915060e01b6020820180516001600160e01b038381831617835250505050815250826001845161060d9190611319565b8151811061061d5761061d611305565b602002602001018190525050949350505050565b5f61064361063e8361070b565b61094e565b92915050565b60605f610656848461095b565b505080519091505f5b818110156106b0578383828151811061067a5761067a611305565b602002602001015160601b60405160200161069692919061132c565b60408051601f19818403018152919052935060010161065f565b50505092915050565b5f6106c38261070b565b90506106ce81610783565b15806106e057506106de8161071e565b155b156106fe57604051634bd439b560e11b815260040160405180910390fd5b61070781610990565b5050565b5f5f610716836109a7565b5c9392505050565b5f5f61071683600361078c565b5f61073783600361078c565b905081815d505050565b61074b5f84610a13565b50505050565b5f6003805c908261076183611358565b9190505d505f610770836109a7565b905060035c80825d505060035c92915050565b5f5f6107168360025b604080517fc41a07c57a776f6217c6d4278dfe7a5d114742afe55627ce458c2802aa4d703460208083019190915281830194909452606080820193909352815180820390930183526080019052805191012090565b5f61073783600261078c565b606061081a6040518060800160405280606081526020016060815260200160608152602001606081525090565b5f610826868686610a2b565b8083529050610835858561095b565b606085015260408401526020830152600160405190808252806020026020018201604052801561089257816020015b60408051606080820183525f8083526020830152918101919091528152602001906001900390816108645790505b50925060405180606001604052807f00000000000000000000000000000000000000000000000000000000000000006001600160a01b031681526020015f8152602001835f01518460200151856040015186606001516040516024016108fb94939291906113b3565b60408051601f198184030181529190526020810180516001600160e01b03166301c7ba5760e61b1790529052835184905f9061093957610939611305565b60200260200101819052505050949350505050565b5f5f61071683600161078c565b60608060605f5f5f61096d8888610af9565b925092509250819550809450610984888885610d2c565b93505050509250925092565b61099a815f6107e1565b6109a4815f61072b565b50565b5f7f8ce092d4869bdfa1a1ce579ddddb2b776c39ace5d7b5d7e70e97ece2a78f4f9b826040516020016109f692919091825260601b6bffffffffffffffffffffffff1916602082015260340190565b604051602081830303815290604052805190602001209050919050565b5f610a1d8261070b565b90505f6103a682600161078c565b60605f610a6c84848080601f0160208091040260200160405190810160405280939291908181526020018383808284375f9201829052509250610f2f915050565b90508067ffffffffffffffff811115610a8757610a876112a9565b604051908082528060200260200182016040528015610ab0578160200160208202803683370190505b5091505f5b81811015610af05785838281518110610ad057610ad0611305565b6001600160a01b0390921660209283029190910190910152600101610ab5565b50509392505050565b5f6060805f610b3c86868080601f0160208091040260200160405190810160405280939291908181526020018383808284375f9201829052509250610f2f915050565b9050602093508067ffffffffffffffff811115610b5b57610b5b6112a9565b604051908082528060200260200182016040528015610b84578160200160208202803683370190505b5092505f5b81811015610c3c575f610bd288888080601f0160208091040260200160405190810160405280939291908181526020018383808284375f920191909152508a9250610f91915050565b9050610bdf601487611296565b95506001600160a01b038116610c0857604051630f58648f60e01b815260040160405180910390fd5b80858381518110610c1b57610c1b611305565b6001600160a01b039092166020928302919091019091015250600101610b89565b508067ffffffffffffffff811115610c5657610c566112a9565b604051908082528060200260200182016040528015610c7f578160200160208202803683370190505b5091505f5b81811015610d23575f610ccd88888080601f0160208091040260200160405190810160405280939291908181526020018383808284375f920191909152508a9250610f2f915050565b9050610cda602087611296565b9550805f03610cfc576040516305112ab160e41b815260040160405180910390fd5b80848381518110610d0f57610d0f611305565b602090810291909101015250600101610c84565b50509250925092565b60605f610d6d85858080601f0160208091040260200160405190810160405280939291908181526020018383808284375f9201829052509250610f2f915050565b90508067ffffffffffffffff811115610d8857610d886112a9565b604051908082528060200260200182016040528015610dbb57816020015b6060815260200190600190039081610da65790505b5091505f5b81811015610f06575f610e0987878080601f0160208091040260200160405190810160405280939291908181526020018383808284375f92019190915250899250610f2f915050565b9050610e16602086611296565b94505f8167ffffffffffffffff811115610e3257610e326112a9565b604051908082528060200260200182016040528015610e5b578160200160208202803683370190505b5090505f5b82811015610edd57610ea889898080601f0160208091040260200160405190810160405280939291908181526020018383808284375f920191909152508b9250610ff5915050565b828281518110610eba57610eba611305565b602002602001018181525050602087610ed39190611296565b9650600101610e60565b5080858481518110610ef157610ef1611305565b60209081029190910101525050600101610dc0565b50828414610f2757604051637277ba1b60e01b815260040160405180910390fd5b509392505050565b5f610f3b826020611296565b83511015610f885760405162461bcd60e51b8152602060048201526015602482015274746f55696e743235365f6f75744f66426f756e647360581b60448201526064015b60405180910390fd5b50016020015190565b5f610f9d826014611296565b83511015610fe55760405162461bcd60e51b8152602060048201526015602482015274746f416464726573735f6f75744f66426f756e647360581b6044820152606401610f7f565b500160200151600160601b900490565b5f611001826020611296565b83511015610f885760405162461bcd60e51b8152602060048201526015602482015274746f427974657333325f6f75744f66426f756e647360581b6044820152606401610f7f565b80356001600160a01b038116811461105f575f5ffd5b919050565b5f5f83601f840112611074575f5ffd5b50813567ffffffffffffffff81111561108b575f5ffd5b6020830191508360208285010111156110a2575f5ffd5b9250929050565b5f5f5f5f606085870312156110bc575f5ffd5b6110c585611049565b93506110d360208601611049565b9250604085013567ffffffffffffffff8111156110ee575f5ffd5b6110fa87828801611064565b95989497509550505050565b5f60208284031215611116575f5ffd5b61111f82611049565b9392505050565b5f5f60408385031215611137575f5ffd5b8235915061114760208401611049565b90509250929050565b5f81518084528060208401602086015e5f602082860101526020601f19601f83011685010191505092915050565b5f602082016020835280845180835260408501915060408160051b8601019250602086015f5b828110156111ff57868503603f19018452815180516001600160a01b03168652602080820151908701526040908101516060918701829052906111e990870182611150565b95505060209384019391909101906001016111a4565b50929695505050505050565b5f5f6020838503121561121c575f5ffd5b823567ffffffffffffffff811115611232575f5ffd5b61123e85828601611064565b90969095509350505050565b602081525f61111f6020830184611150565b602081016003831061127c57634e487b7160e01b5f52602160045260245ffd5b91905290565b634e487b7160e01b5f52601160045260245ffd5b8082018082111561064357610643611282565b634e487b7160e01b5f52604160045260245ffd5b6001600160a01b038581168252841660208201526060604082018190528101829052818360808301375f818301608090810191909152601f909201601f191601019392505050565b634e487b7160e01b5f52603260045260245ffd5b8181038181111561064357610643611282565b5f83518060208601845e6bffffffffffffffffffffffff19939093169190920190815260140192915050565b5f6001820161136957611369611282565b5060010190565b5f8151808452602084019350602083015f5b828110156113a95781516001600160a01b0316865260209586019590910190600101611382565b5093949350505050565b608081525f6113c56080830187611370565b82810360208401526113d78187611370565b8381036040850152855180825260208088019350909101905f5b8181101561140f5783518352602093840193909201916001016113f1565b50508381036060850152845180825260208083019350600582901b830181019087015f5b8381101561148d57848303601f19018652815180518085526020918201918501905f5b81811015611474578351835260209384019390920191600101611456565b5050602097880197909450929092019150600101611433565b50909a995050505050505050505056fea164736f6c634300081e000a","linkReferences":{}},"methodIdentifiers":{"asset()":"38d52e0f","build(address,address,bytes)":"3b5896bc","distributor()":"bfe10928","executionNonce()":"01bd43ef","getOutAmount(address)":"81cbe691","hookType()":"e445e7dd","inspect(bytes)":"8c4313c1","lastCaller()":"2113522a","postExecute(address,address,bytes)":"05b4fe91","preExecute(address,address,bytes)":"2ae2fe3d","resetExecutionState(address)":"d06a1e89","setExecutionContext(address)":"14cb37cf","setOutAmount(uint256,address)":"1f264619","spToken()":"8e148776","subType()":"cf0a6181","subtype()":"5492e677","usedShares()":"685a943c"},"id":446}