{"abi":[{"type":"constructor","inputs":[],"stateMutability":"nonpayable"},{"type":"function","name":"asset","inputs":[],"outputs":[{"name":"","type":"address","internalType":"address"}],"stateMutability":"view"},{"type":"function","name":"build","inputs":[{"name":"prevHook","type":"address","internalType":"address"},{"name":"account","type":"address","internalType":"address"},{"name":"hookData","type":"bytes","internalType":"bytes"}],"outputs":[{"name":"executions","type":"tuple[]","internalType":"struct Execution[]","components":[{"name":"target","type":"address","internalType":"address"},{"name":"value","type":"uint256","internalType":"uint256"},{"name":"callData","type":"bytes","internalType":"bytes"}]}],"stateMutability":"view"},{"type":"function","name":"decodeAmount","inputs":[{"name":"data","type":"bytes","internalType":"bytes"}],"outputs":[{"name":"","type":"uint256","internalType":"uint256"}],"stateMutability":"pure"},{"type":"function","name":"decodeUsePrevHookAmount","inputs":[{"name":"data","type":"bytes","internalType":"bytes"}],"outputs":[{"name":"","type":"bool","internalType":"bool"}],"stateMutability":"pure"},{"type":"function","name":"executionNonce","inputs":[],"outputs":[{"name":"","type":"uint256","internalType":"uint256"}],"stateMutability":"view"},{"type":"function","name":"getOutAmount","inputs":[{"name":"caller","type":"address","internalType":"address"}],"outputs":[{"name":"","type":"uint256","internalType":"uint256"}],"stateMutability":"view"},{"type":"function","name":"hookType","inputs":[],"outputs":[{"name":"","type":"uint8","internalType":"enum ISuperHook.HookType"}],"stateMutability":"view"},{"type":"function","name":"inspect","inputs":[{"name":"data","type":"bytes","internalType":"bytes"}],"outputs":[{"name":"","type":"bytes","internalType":"bytes"}],"stateMutability":"pure"},{"type":"function","name":"lastCaller","inputs":[],"outputs":[{"name":"","type":"address","internalType":"address"}],"stateMutability":"view"},{"type":"function","name":"postExecute","inputs":[{"name":"prevHook","type":"address","internalType":"address"},{"name":"account","type":"address","internalType":"address"},{"name":"data","type":"bytes","internalType":"bytes"}],"outputs":[],"stateMutability":"nonpayable"},{"type":"function","name":"preExecute","inputs":[{"name":"prevHook","type":"address","internalType":"address"},{"name":"account","type":"address","internalType":"address"},{"name":"data","type":"bytes","internalType":"bytes"}],"outputs":[],"stateMutability":"nonpayable"},{"type":"function","name":"replaceCalldataAmount","inputs":[{"name":"data","type":"bytes","internalType":"bytes"},{"name":"amount","type":"uint256","internalType":"uint256"}],"outputs":[{"name":"","type":"bytes","internalType":"bytes"}],"stateMutability":"pure"},{"type":"function","name":"resetExecutionState","inputs":[{"name":"caller","type":"address","internalType":"address"}],"outputs":[],"stateMutability":"nonpayable"},{"type":"function","name":"setExecutionContext","inputs":[{"name":"caller","type":"address","internalType":"address"}],"outputs":[],"stateMutability":"nonpayable"},{"type":"function","name":"setOutAmount","inputs":[{"name":"_outAmount","type":"uint256","internalType":"uint256"},{"name":"caller","type":"address","internalType":"address"}],"outputs":[],"stateMutability":"nonpayable"},{"type":"function","name":"spToken","inputs":[],"outputs":[{"name":"","type":"address","internalType":"address"}],"stateMutability":"view"},{"type":"function","name":"subType","inputs":[],"outputs":[{"name":"","type":"bytes32","internalType":"bytes32"}],"stateMutability":"view"},{"type":"function","name":"subtype","inputs":[],"outputs":[{"name":"","type":"bytes32","internalType":"bytes32"}],"stateMutability":"view"},{"type":"function","name":"usedShares","inputs":[],"outputs":[{"name":"","type":"uint256","internalType":"uint256"}],"stateMutability":"view"},{"type":"error","name":"ADDRESS_NOT_VALID","inputs":[]},{"type":"error","name":"AMOUNT_NOT_VALID","inputs":[]},{"type":"error","name":"CANNOT_SET_OUT_AMOUNT","inputs":[]},{"type":"error","name":"INCOMPLETE_HOOK_EXECUTION","inputs":[]},{"type":"error","name":"NOT_AUTHORIZED","inputs":[]},{"type":"error","name":"POST_EXECUTE_ALREADY_CALLED","inputs":[]},{"type":"error","name":"PRE_EXECUTE_ALREADY_CALLED","inputs":[]},{"type":"error","name":"UNAUTHORIZED_CALLER","inputs":[]}],"bytecode":{"object":"0x60a0604052348015600e575f5ffd5b506040805180820190915260078152660455243373534360cc1b6020909101525f805460ff191660021790557fc518a1d423df5aa415a8180f6384c181bd18f2bc1b734ba3dd52cd98b9b5fb776080526080516114b361007d5f395f8181610208015261028401526114b35ff3fe608060405234801561000f575f5ffd5b506004361061011c575f3560e01c80635492e677116100a9578063ac440f721161006e578063ac440f721461026c578063cf0a61811461027f578063d06a1e89146102a6578063e445e7dd146102b9578063e7745517146102d2575f5ffd5b80635492e67714610206578063685a943c1461022c57806381cbe691146102345780638c4313c1146102475780638e1487761461025a575f5ffd5b80632113522a116100ef5780632113522a146101775780632ae2fe3d146101a157806338d52e0f146101b45780633a28b0ab146101c65780633b5896bc146101e6575f5ffd5b806301bd43ef1461012057806305b4fe911461013c57806314cb37cf146101515780631f26461914610164575b5f5ffd5b61012960035c81565b6040519081526020015b60405180910390f35b61014f61014a3660046110d0565b6102f5565b005b61014f61015f366004611131565b61036f565b61014f610172366004611153565b610390565b6101896001600160a01b0360045c1681565b6040516001600160a01b039091168152602001610133565b61014f6101af3660046110d0565b6103e9565b6101896001600160a01b0360025c1681565b6101d96101d4366004611220565b61045c565b6040516101339190611290565b6101f96101f43660046110d0565b610473565b60405161013391906112a2565b7f0000000000000000000000000000000000000000000000000000000000000000610129565b6101295f5c81565b610129610242366004611131565b61068c565b6101d961025536600461132f565b61069e565b6101896001600160a01b0360015c1681565b61012961027a36600461136e565b61071d565b6101297f000000000000000000000000000000000000000000000000000000000000000081565b61014f6102b4366004611131565b610727565b5f546102c59060ff1681565b60405161013391906113a0565b6102e56102e036600461136e565b610779565b6040519015158152602001610133565b336001600160a01b0384161461031e5760405163e15e56c960e01b815260040160405180910390fd5b5f61032884610785565b905061033381610798565b156103515760405163945b63f560e01b815260040160405180910390fd5b61035c8160016107a5565b610368858585856107bb565b5050505050565b6103788161086a565b50336004805c6001600160a01b0319168217905d5050565b5f61039a82610785565b90506103a58161089c565b806103b457506103b481610798565b156103d25760405163441e4c7360e11b815260040160405180910390fd5b5f6103de8260016108a5565b905083815d50505050565b336001600160a01b038416146104125760405163e15e56c960e01b815260040160405180910390fd5b5f61041c84610785565b90506104278161089c565b1561044557604051630bbb04d960e11b815260040160405180910390fd5b6104508160016108fa565b61036885858585610906565b606061046a83836034610ad1565b90505b92915050565b60605f61048286868686610b67565b90508051600261049291906113da565b67ffffffffffffffff8111156104aa576104aa611181565b6040519080825280602002602001820160405280156104f657816020015b60408051606080820183525f8083526020830152918101919091528152602001906001900390816104c85790505b5091506040518060600160405280306001600160a01b031681526020015f8152602001306001600160a01b0316632ae2fe3d8989898960405160240161053f94939291906113ed565b604051602081830303815290604052915060e01b6020820180516001600160e01b038381831617835250505050815250825f8151811061058157610581611435565b60209081029190910101525f5b81518110156105e2578181815181106105a9576105a9611435565b6020026020010151838260016105bf91906113da565b815181106105cf576105cf611435565b602090810291909101015260010161058e565b506040518060600160405280306001600160a01b031681526020015f8152602001306001600160a01b03166305b4fe918989898960405160240161062994939291906113ed565b604051602081830303815290604052915060e01b6020820180516001600160e01b03838183161783525050505081525082600184516106689190611449565b8151811061067857610678611435565b602002602001018190525050949350505050565b5f61046d61069983610785565b610dd2565b60606106de83838080601f0160208091040260200160405190810160405280939291908181526020018383808284375f92019190915250610ddf92505050565b604051602001610706919060609190911b6bffffffffffffffffffffffff1916815260140190565b604051602081830303815290604052905092915050565b5f61046d82610deb565b5f61073182610785565b905061073c8161089c565b158061074e575061074c81610798565b155b1561076c57604051634bd439b560e11b815260040160405180910390fd5b61077581610df7565b5050565b5f61046d826054610e0e565b5f5f61079083610e3a565b5c9392505050565b5f5f6107908360036108a5565b5f6107b18360036108a5565b905081815d505050565b6108166107c78461068c565b6108068585858080601f0160208091040260200160405190810160405280939291908181526020018383808284375f92019190915250610ea692505050565b6108109190611449565b84610f14565b6108558383838080601f0160208091040260200160405190810160405280939291908181526020018383808284375f92019190915250610f2c92505050565b610860905f5c611449565b805f5d5050505050565b5f6003805c908261087a8361145c565b9190505d505f61088983610e3a565b905060035c80825d505060035c92915050565b5f5f6107908360025b604080517fc41a07c57a776f6217c6d4278dfe7a5d114742afe55627ce458c2802aa4d703460208083019190915281830194909452606080820193909352815180820390930183526080019052805191012090565b5f6107b18360026108a5565b5f61094583838080601f0160208091040260200160405190810160405280939291908181526020018383808284375f92019190915250610ddf92505050565b9050806001600160a01b03166338d52e0f6040518163ffffffff1660e01b8152600401602060405180830381865afa158015610983573d5f5f3e3d5ffd5b505050506040513d601f19601f820116820180604052508101906109a79190611474565b6002805c6001600160a01b0319166001600160a01b03831617905d50610a0b610a058585858080601f0160208091040260200160405190810160405280939291908181526020018383808284375f92019190915250610ea692505050565b85610f14565b610a4a8484848080601f0160208091040260200160405190810160405280939291908181526020018383808284375f92019190915250610f2c92505050565b805f5d50806001600160a01b031663a8d5fd656040518163ffffffff1660e01b8152600401602060405180830381865afa158015610a8a573d5f5f3e3d5ffd5b505050506040513d601f19601f82011682018060405250810190610aae9190611474565b6001805c6001600160a01b0319166001600160a01b03831617905d505050505050565b60605f83604051602001610ae791815260200190565b60405160208183030381529060405290505f5b6020811015610b5d57818181518110610b1557610b15611435565b01602001516001600160f81b03191686610b2f83876113da565b81518110610b3f57610b3f611435565b60200101906001600160f81b03191690815f1a905350600101610afa565b5093949350505050565b60605f610ba884848080601f0160208091040260200160405190810160405280939291908181526020018383808284375f92019190915250610ddf92505050565b90505f610be985858080601f0160208091040260200160405190810160405280939291908181526020018383808284375f92019190915250610deb92505050565b90505f610c2d86868080601f0160208091040260200160405190810160405280939291908181526020018383808284375f9201919091525060549250610e0e915050565b90508015610ca0576040516381cbe69160e01b81526001600160a01b0388811660048301528916906381cbe69190602401602060405180830381865afa158015610c79573d5f5f3e3d5ffd5b505050506040513d601f19601f82011682018060405250810190610c9d919061148f565b91505b815f03610cc0576040516305112ab160e41b815260040160405180910390fd5b6001600160a01b0383161580610cdd57506001600160a01b038716155b15610cfb57604051630f58648f60e01b815260040160405180910390fd5b60408051600180825281830190925290816020015b60408051606080820183525f808352602083015291810191909152815260200190600190039081610d1057905050604080516060810182526001600160a01b0380871682525f6020830152825160248101879052908b16604482018190526064820152929650919082019060840160408051601f198184030181529190526020810180516001600160e01b0316635d043b2960e11b1790529052845185905f90610dbc57610dbc611435565b6020026020010181905250505050949350505050565b5f5f6107908360016108a5565b5f61046d826020610fb1565b5f61046d82603461101a565b610e01815f6108fa565b610e0b815f6107a5565b50565b5f828281518110610e2157610e21611435565b01602001516001600160f81b0319161515905092915050565b5f7f8ce092d4869bdfa1a1ce579ddddb2b776c39ace5d7b5d7e70e97ece2a78f4f9b82604051602001610e8992919091825260601b6bffffffffffffffffffffffff1916602082015260340190565b604051602081830303815290604052805190602001209050919050565b6040516370a0823160e01b81526001600160a01b0383811660048301525f9160025c909116906370a0823190602401602060405180830381865afa158015610ef0573d5f5f3e3d5ffd5b505050506040513d601f19601f8201168201806040525081019061046a919061148f565b5f610f1e82610785565b90505f6103de8260016108a5565b5f5f610f3783610ddf565b60405163eaed1d0760e01b81525f60048201526001600160a01b0386811660248301529192509082169063eaed1d0790604401602060405180830381865afa158015610f85573d5f5f3e3d5ffd5b505050506040513d601f19601f82011682018060405250810190610fa9919061148f565b949350505050565b5f610fbd8260146113da565b8351101561100a5760405162461bcd60e51b8152602060048201526015602482015274746f416464726573735f6f75744f66426f756e647360581b60448201526064015b60405180910390fd5b500160200151600160601b900490565b5f6110268260206113da565b8351101561106e5760405162461bcd60e51b8152602060048201526015602482015274746f55696e743235365f6f75744f66426f756e647360581b6044820152606401611001565b50016020015190565b6001600160a01b0381168114610e0b575f5ffd5b5f5f83601f84011261109b575f5ffd5b50813567ffffffffffffffff8111156110b2575f5ffd5b6020830191508360208285010111156110c9575f5ffd5b9250929050565b5f5f5f5f606085870312156110e3575f5ffd5b84356110ee81611077565b935060208501356110fe81611077565b9250604085013567ffffffffffffffff811115611119575f5ffd5b6111258782880161108b565b95989497509550505050565b5f60208284031215611141575f5ffd5b813561114c81611077565b9392505050565b5f5f60408385031215611164575f5ffd5b82359150602083013561117681611077565b809150509250929050565b634e487b7160e01b5f52604160045260245ffd5b5f82601f8301126111a4575f5ffd5b813567ffffffffffffffff8111156111be576111be611181565b604051601f8201601f19908116603f0116810167ffffffffffffffff811182821017156111ed576111ed611181565b604052818152838201602001851015611204575f5ffd5b816020850160208301375f918101602001919091529392505050565b5f5f60408385031215611231575f5ffd5b823567ffffffffffffffff811115611247575f5ffd5b61125385828601611195565b95602094909401359450505050565b5f81518084528060208401602086015e5f602082860101526020601f19601f83011685010191505092915050565b602081525f61046a6020830184611262565b5f602082016020835280845180835260408501915060408160051b8601019250602086015f5b8281101561132357868503603f19018452815180516001600160a01b031686526020808201519087015260409081015160609187018290529061130d90870182611262565b95505060209384019391909101906001016112c8565b50929695505050505050565b5f5f60208385031215611340575f5ffd5b823567ffffffffffffffff811115611356575f5ffd5b6113628582860161108b565b90969095509350505050565b5f6020828403121561137e575f5ffd5b813567ffffffffffffffff811115611394575f5ffd5b610fa984828501611195565b60208101600383106113c057634e487b7160e01b5f52602160045260245ffd5b91905290565b634e487b7160e01b5f52601160045260245ffd5b8082018082111561046d5761046d6113c6565b6001600160a01b038581168252841660208201526060604082018190528101829052818360808301375f818301608090810191909152601f909201601f191601019392505050565b634e487b7160e01b5f52603260045260245ffd5b8181038181111561046d5761046d6113c6565b5f6001820161146d5761146d6113c6565b5060010190565b5f60208284031215611484575f5ffd5b815161114c81611077565b5f6020828403121561149f575f5ffd5b505191905056fea164736f6c634300081e000a","linkReferences":{}},"methodIdentifiers":{"asset()":"38d52e0f","build(address,address,bytes)":"3b5896bc","decodeAmount(bytes)":"ac440f72","decodeUsePrevHookAmount(bytes)":"e7745517","executionNonce()":"01bd43ef","getOutAmount(address)":"81cbe691","hookType()":"e445e7dd","inspect(bytes)":"8c4313c1","lastCaller()":"2113522a","postExecute(address,address,bytes)":"05b4fe91","preExecute(address,address,bytes)":"2ae2fe3d","replaceCalldataAmount(bytes,uint256)":"3a28b0ab","resetExecutionState(address)":"d06a1e89","setExecutionContext(address)":"14cb37cf","setOutAmount(uint256,address)":"1f264619","spToken()":"8e148776","subType()":"cf0a6181","subtype()":"5492e677","usedShares()":"685a943c"},"id":488}