{"abi":[{"type":"function","name":"getAccountOwner","inputs":[{"name":"account","type":"address","internalType":"address"}],"outputs":[{"name":"","type":"address","internalType":"address"}],"stateMutability":"view"},{"type":"function","name":"isInitialized","inputs":[{"name":"account","type":"address","internalType":"address"}],"outputs":[{"name":"","type":"bool","internalType":"bool"}],"stateMutability":"view"},{"type":"function","name":"isModuleType","inputs":[{"name":"typeID","type":"uint256","internalType":"uint256"}],"outputs":[{"name":"","type":"bool","internalType":"bool"}],"stateMutability":"pure"},{"type":"function","name":"isValidSignatureWithSender","inputs":[{"name":"","type":"address","internalType":"address"},{"name":"dataHash","type":"bytes32","internalType":"bytes32"},{"name":"data","type":"bytes","internalType":"bytes"}],"outputs":[{"name":"","type":"bytes4","internalType":"bytes4"}],"stateMutability":"view"},{"type":"function","name":"namespace","inputs":[],"outputs":[{"name":"","type":"string","internalType":"string"}],"stateMutability":"pure"},{"type":"function","name":"onInstall","inputs":[{"name":"data","type":"bytes","internalType":"bytes"}],"outputs":[],"stateMutability":"nonpayable"},{"type":"function","name":"onUninstall","inputs":[{"name":"","type":"bytes","internalType":"bytes"}],"outputs":[],"stateMutability":"nonpayable"},{"type":"function","name":"retrieveSignatureData","inputs":[{"name":"account","type":"address","internalType":"address"}],"outputs":[{"name":"","type":"bytes","internalType":"bytes"}],"stateMutability":"view"},{"type":"function","name":"validateUserOp","inputs":[{"name":"_userOp","type":"tuple","internalType":"struct PackedUserOperation","components":[{"name":"sender","type":"address","internalType":"address"},{"name":"nonce","type":"uint256","internalType":"uint256"},{"name":"initCode","type":"bytes","internalType":"bytes"},{"name":"callData","type":"bytes","internalType":"bytes"},{"name":"accountGasLimits","type":"bytes32","internalType":"bytes32"},{"name":"preVerificationGas","type":"uint256","internalType":"uint256"},{"name":"gasFees","type":"bytes32","internalType":"bytes32"},{"name":"paymasterAndData","type":"bytes","internalType":"bytes"},{"name":"signature","type":"bytes","internalType":"bytes"}]},{"name":"_userOpHash","type":"bytes32","internalType":"bytes32"}],"outputs":[{"name":"","type":"uint256","internalType":"ERC7579ValidatorBase.ValidationData"}],"stateMutability":"nonpayable"},{"type":"error","name":"ALREADY_INITIALIZED","inputs":[]},{"type":"error","name":"ECDSAInvalidSignature","inputs":[]},{"type":"error","name":"ECDSAInvalidSignatureLength","inputs":[{"name":"length","type":"uint256","internalType":"uint256"}]},{"type":"error","name":"ECDSAInvalidSignatureS","inputs":[{"name":"s","type":"bytes32","internalType":"bytes32"}]},{"type":"error","name":"INVALID_CHAIN_ID","inputs":[]},{"type":"error","name":"INVALID_DESTINATION_PROOF","inputs":[]},{"type":"error","name":"INVALID_PROOF","inputs":[]},{"type":"error","name":"INVALID_SENDER","inputs":[]},{"type":"error","name":"INVALID_USER_OP","inputs":[]},{"type":"error","name":"INVALID_USER_OP","inputs":[]},{"type":"error","name":"ModuleAlreadyInitialized","inputs":[{"name":"smartAccount","type":"address","internalType":"address"}]},{"type":"error","name":"NOT_EIP1271_SIGNER","inputs":[]},{"type":"error","name":"NOT_IMPLEMENTED","inputs":[]},{"type":"error","name":"NOT_INITIALIZED","inputs":[]},{"type":"error","name":"NotInitialized","inputs":[{"name":"smartAccount","type":"address","internalType":"address"}]},{"type":"error","name":"PROOF_NOT_FOUND","inputs":[]},{"type":"error","name":"ZERO_ADDRESS","inputs":[]}],"bytecode":{"object":"0x6080604052348015600e575f5ffd5b50611fa38061001c5f395ff3fe608060405234801561000f575f5ffd5b5060043610610090575f3560e01c80638a91b0e3116100635780638a91b0e31461011d5780639700320314610130578063d60b347f14610151578063ecd059611461018c578063f551e2ee146101a0575f5ffd5b80630f65bac514610094578063442b172c146100bd5780636d61fe70146101005780637c015a8914610115575b5f5ffd5b6100a76100a2366004611640565b6101cc565b6040516100b49190611689565b60405180910390f35b6100e86100cb366004611640565b6001600160a01b039081165f908152600160205260409020541690565b6040516001600160a01b0390911681526020016100b4565b61011361010e3660046116df565b6101e8565b005b6100a7610293565b61011361012b3660046116df565b6102c5565b61014361013e36600461171d565b610324565b6040519081526020016100b4565b61017c61015f366004611640565b6001600160a01b03165f9081526020819052604090205460ff1690565b60405190151581526020016100b4565b61017c61019a366004611763565b60011490565b6101b36101ae36600461177a565b6105b8565b6040516001600160e01b031990911681526020016100b4565b60606001600160a01b0382166101e18161067d565b9392505050565b335f9081526020819052604090205460ff16156102185760405163439a74c960e01b815260040160405180910390fd5b5f61022582840184611640565b90506001600160a01b03811661024e5760405163538ba4f960e01b815260040160405180910390fd5b335f908152602081815260408083208054600160ff199091168117909155909152902080546001600160a01b0319166001600160a01b03929092169190911790555050565b60606102c060408051808201909152600e81526d29bab832b92b30b634b230ba37b960911b602082015290565b905090565b335f9081526020819052604090205460ff166102f457604051630f68fe6360e21b815260040160405180910390fd5b5050335f90815260208181526040808320805460ff191690556001909152902080546001600160a01b0319169055565b5f61035e6103356020850185611640565b6001600160a01b0316803b806020016040519081016040528181525f908060200190933c610706565b15801561039357505f806103756020860186611640565b6001600160a01b0316815260208101919091526040015f205460ff16155b156103b157604051630f68fe6360e21b815260040160405180910390fd5b5f6103fc6103c36101008601866117d1565b8080601f0160208091040260200160405190810160405280939291908181526020018383808284375f9201919091525061072792505050565b90505f61041661040f6020870187611640565b83866107c1565b5090505f6104358261042b6020890189611640565b856020015161083b565b9050808015610442575082515b1561059c576080830151515f81900361046e576040516302dcc9d960e11b815260040160405180910390fd5b5f5b81811015610566575f8560800151828151811061048f5761048f611813565b602002602001015190505f6040518060c00160405280836040015160a00151815260200183602001516001600160401b0316815260200183604001515f01516001600160a01b031681526020018360400151602001516001600160a01b03168152602001836040015160400151815260200183604001516060015181525090505f6105278289602001518560400151608001516108e5565b905061053b835f0151896040015183610954565b610558576040516302dcc9d960e11b815260040160405180910390fd5b505050806001019050610470565b505f6105756020890189611640565b6001600160a01b031690506105996105916101008a018a6117d1565b839190610969565b50505b6105ac811584602001515f6109ce565b93505050505b92915050565b5f6105e6336001600160a01b0316803b806020016040519081016040528181525f908060200190933c610706565b1580156106025750335f9081526020819052604090205460ff16155b1561062057604051630f68fe6360e21b815260040160405180910390fd5b5f61062d838501856118db565b90505f61063982610727565b90505f6106473383896107c1565b5090505f61065a8233856020015161083b565b905080610667575f610670565b630b135d3f60e11b5b9998505050505050505050565b60605f610689836109e2565b9050805c806001600160401b038111156106a5576106a5611827565b6040519080825280601f01601f1916602001820160405280156106cf576020820181803683370190505b5092505f5b818110156106fe57602081810181900484015c8583018201526106f79082611968565b90506106d4565b505050919050565b5f61ef0160f01b6107168361197b565b6001600160e81b0319161492915050565b6107676040518060c001604052805f151581526020015f65ffffffffffff1681526020015f81526020016060815260200160608152602001606081525090565b5f5f5f5f5f5f878060200190518101906107819190611cd1565b6040805160c081018252961515875265ffffffffffff9095166020870152938501929092526060840152608083015260a082015298975050505050505050565b5f5f6107f5836040516020016107d991815260200190565b60408051601f1981840301815291905260208601518651610a35565b905061080a8460600151856040015183610954565b6108275760405163712eb08760e01b815260040160405180910390fd5b6108318585610ab7565b9150935093915050565b5f8065ffffffffffff8316158061085a5750428365ffffffffffff1610155b9050610889846001600160a01b0316803b806020016040519081016040528181525f908060200190933c610706565b156108b457836001600160a01b0316856001600160a01b03161480156108ac5750805b9150506101e1565b6001600160a01b038085165f9081526001602052604090205486821691161480156108dc5750805b95945050505050565b82516020808501516040808701516060880151608089015160a08a015193515f9761091897909695918b918b9101611dc6565b60408051601f19818403018152828252805160209182012090830152016040516020818303038152906040528051906020012090509392505050565b5f826109608584610c3e565b14949350505050565b5f610973846109e2565b9050805c80156109965760405163a9bd11f360e01b815260040160405180910390fd5b8280835d5f5b818110156109c557858101358060208084010486015d506109be602082611968565b905061099c565b50505050505050565b5f6109da848484610c80565b949350505050565b604080517f10f373395e5c9f816ee3fda0a2b50417c869ccbb40eb3cb5bb0a96939cc2618d60208201529081018290525f906060015b604051602081830303815290604052805190602001209050919050565b5f5f84806020019051810190610a4b9190611e8a565b604080516020810183905265ffffffffffff871691810191909152841515606082015230608082015290915060a00160408051601f1981840301815282825280516020918201209083015201604051602081830303815290604052805190602001209150509392505050565b5f610ae5836001600160a01b0316803b806020016040519081016040528181525f908060200190933c610706565b15610afa57610af382610cb6565b90506105b2565b6001600160a01b038084165f9081526001602052604090205416803b1580610b4a5750610b4a816001600160a01b0316803b806020016040519081016040528181525f908060200190933c610706565b15610b6057610b5883610cb6565b9150506105b2565b5f610b6e8460400151610d05565b9050610b846001600160a01b0383168583610d20565b15610b91575090506105b2565b60a0840151604051630b135d3f60e11b81526001600160a01b03841691631626ba7e91610bc2918591600401611ea1565b602060405180830381865afa925050508015610bfb575060408051601f3d908101601f19168201909252610bf891810190611eb9565b60015b15610c25576374eca2c160e11b6001600160e01b0319821601610c23578293505050506105b2565b505b6040516331d42a1b60e21b815260040160405180910390fd5b5f81815b8451811015610c7857610c6e82868381518110610c6157610c61611813565b6020026020010151611053565b9150600101610c42565b509392505050565b5f60d08265ffffffffffff16901b60a08465ffffffffffff16901b85610ca6575f610ca9565b60015b60ff161717949350505050565b5f5f610cc58360400151610d05565b7f19457468657265756d205369676e6564204d6573736167653a0a3332000000005f908152601c829052603c8120919250506109da818560a0015161107c565b5f610d0e610293565b82604051602001610a18929190611ee0565b5f60605f856001600160a01b031663a0e67e2b6040518163ffffffff1660e01b81526004015f60405180830381865afa925050508015610d8157506040513d5f823e601f3d908101601f19168201604052610d7e9190810190611f01565b60015b610d8f575f925050506101e1565b9150856001600160a01b031663e75235b86040518163ffffffff1660e01b8152600401602060405180830381865afa925050508015610deb575060408051601f3d908101601f19168201909252610de891810190611e8a565b60015b610df9575f925050506101e1565b604080518082018252600d81526c5375706572666f726d5361666560981b6020918201528151808301835260058152640312e302e360dc1b9082015281517f8b73c3c69bb8fe3d512ecc4cf759cc79239f7b179b0ffacaa9a75d522b39400f818301527fe2c6934fb785b5f60008275f0609066361e48bc175bda8e1160d2680b4c1849d818401527f06c015bd22b4c69690933c1058878ebdfef31f9aaae40bbe86d8a09fe1b2972c6060820152600160808201526001600160a01b038a1660a08083019190915283518083038201815260c08301855280519084012060e08084018b905285518085039091018152610100840186528051908501207f60b3cbf8b4a223d68d641b3b6ddf9a298e7f33710cf3d3a9d1146b5a6150fbca610120850152610140808501919091528551808503909101815261016084018652805190850120601960f81b610180850152600160f81b61018185015261018284018290526101a280850191909152855180850390910181526101c2909301909452815191909201209088015192935090915f908190610f98908490876110a4565b9150915084821015610fb2575f96505050505050506101e1565b610fbb81611224565b610fc486611224565b610fcd86611230565b85515f90815b81811015611041575f6110088a8381518110610ff157610ff1611813565b60200260200101518661123990919063ffffffff16565b5090508015611038578361101b81611f32565b9450508884106110385760019a50505050505050505050506101e1565b50600101610fd3565b505f9c9b505050505050505050505050565b5f81831061106d575f8281526020849052604090206101e1565b505f9182526020526040902090565b5f5f5f5f61108a868661125a565b92509250925061109a82826112a3565b5090949350505050565b81515f90606090826110b7604183611f4a565b9050806001600160401b038111156110d1576110d1611827565b6040519080825280602002602001820160405280156110fa578160200160208202803683370190505b5092508481101561110f575f9350505061121c565b5f5b81811015611218575f5f5f5f61113e8b8660410201602081015160408201516060909201515f1a92909190565b9250925092508260ff165f036111625761115b8c8c84848b611364565b93506111c0565b601e8360ff1611156111b15761115b61119f8d6020527b19457468657265756d205369676e6564204d6573736167653a0a33325f52603c60042090565b6111aa600486611f69565b848461142b565b6111bd8c84848461142b565b93505b6001600160a01b038416156111dd57886111d981611f32565b9950505b838886815181106111f0576111f0611813565b6001600160a01b03909216602092830291909101909101525050600190920191506111119050565b5050505b935093915050565b61122d81611465565b50565b61122d816114ba565b5f8061124f84846001600160a01b03165f611503565b909590945092505050565b5f5f5f8351604103611291576020840151604085015160608601515f1a61128388828585611564565b95509550955050505061129c565b505081515f91506002905b9250925092565b5f8260038111156112b6576112b6611f82565b036112bf575050565b60018260038111156112d3576112d3611f82565b036112f15760405163f645eedf60e01b815260040160405180910390fd5b600282600381111561130557611305611f82565b0361132b5760405163fce698f760e01b8152600481018290526024015b60405180910390fd5b600382600381111561133f5761133f611f82565b03611360576040516335e2f38360e21b815260048101829052602401611322565b5050565b838201602001518390826113788583611968565b611383906020611968565b1115611392575f9150506108dc565b604051630b135d3f60e11b808252878601602001916001600160a01b03851690631626ba7e906113c8908c908690600401611ea1565b602060405180830381865afa1580156113e3573d5f5f3e3d5ffd5b505050506040513d601f19601f820116820180604052508101906114079190611eb9565b6001600160e01b03191614611420575f925050506108dc565b505095945050505050565b5f604051855f5260ff851660205283604052826060526020604060805f60015afa505f6060523d6060185191508060405250949350505050565b80515f82528060051b8201601f19602084015b6020018281116114b3578051828201805182811161149857505050611478565b5b602082015283018051828111611499575060200152611478565b5050509052565b600281511061122d576020810160408201600183510160051b83015b81518351146114ea57602083019250815183525b6020820191508082036114d657505081900360051c9052565b5f5f5f19600186515f87870197505b81830160011c94508460051b890151870190508781148284111761154c57808811611541578385019150611512565b600185019250611512565b84151597148716989290930190950295509350505050565b5f80807f7fffffffffffffffffffffffffffffff5d576e7357a4501ddfe92f46681b20a084111561159d57505f91506003905082611622565b604080515f808252602082018084528a905260ff891692820192909252606081018790526080810186905260019060a0016020604051602081039080840390855afa1580156115ee573d5f5f3e3d5ffd5b5050604051601f1901519150506001600160a01b03811661161957505f925060019150829050611622565b92505f91508190505b9450945094915050565b6001600160a01b038116811461122d575f5ffd5b5f60208284031215611650575f5ffd5b81356101e18161162c565b5f81518084528060208401602086015e5f602082860101526020601f19601f83011685010191505092915050565b602081525f6101e1602083018461165b565b5f5f83601f8401126116ab575f5ffd5b5081356001600160401b038111156116c1575f5ffd5b6020830191508360208285010111156116d8575f5ffd5b9250929050565b5f5f602083850312156116f0575f5ffd5b82356001600160401b03811115611705575f5ffd5b6117118582860161169b565b90969095509350505050565b5f5f6040838503121561172e575f5ffd5b82356001600160401b03811115611743575f5ffd5b83016101208186031215611755575f5ffd5b946020939093013593505050565b5f60208284031215611773575f5ffd5b5035919050565b5f5f5f5f6060858703121561178d575f5ffd5b84356117988161162c565b93506020850135925060408501356001600160401b038111156117b9575f5ffd5b6117c58782880161169b565b95989497509550505050565b5f5f8335601e198436030181126117e6575f5ffd5b8301803591506001600160401b038211156117ff575f5ffd5b6020019150368190038213156116d8575f5ffd5b634e487b7160e01b5f52603260045260245ffd5b634e487b7160e01b5f52604160045260245ffd5b604051606081016001600160401b038111828210171561185d5761185d611827565b60405290565b60405160c081016001600160401b038111828210171561185d5761185d611827565b604051601f8201601f191681016001600160401b03811182821017156118ad576118ad611827565b604052919050565b5f6001600160401b038211156118cd576118cd611827565b50601f01601f191660200190565b5f602082840312156118eb575f5ffd5b81356001600160401b03811115611900575f5ffd5b8201601f81018413611910575f5ffd5b803561192361191e826118b5565b611885565b818152856020838501011115611937575f5ffd5b816020840160208301375f91810160200191909152949350505050565b634e487b7160e01b5f52601160045260245ffd5b808201808211156105b2576105b2611954565b805160208201516001600160e81b03198116919060038210156119b1576001600160e81b03196003838103901b81901b82161692505b5050919050565b805165ffffffffffff811681146119cd575f5ffd5b919050565b5f6001600160401b038211156119ea576119ea611827565b5060051b60200190565b5f82601f830112611a03575f5ffd5b8151611a1161191e826119d2565b8082825260208201915060208360051b860101925085831115611a32575f5ffd5b602085015b83811015611a4f578051835260209283019201611a37565b5095945050505050565b80516119cd8161162c565b5f82601f830112611a73575f5ffd5b8151611a8161191e826119d2565b8082825260208201915060208360051b860101925085831115611aa2575f5ffd5b602085015b83811015611a4f578051611aba8161162c565b835260209283019201611aa7565b5f82601f830112611ad7575f5ffd5b8151611ae561191e826118b5565b818152846020838601011115611af9575f5ffd5b8160208501602083015e5f918101602001919091529392505050565b5f82601f830112611b24575f5ffd5b8151611b3261191e826119d2565b8082825260208201915060208360051b860101925085831115611b53575f5ffd5b602085015b83811015611a4f5780516001600160401b03811115611b75575f5ffd5b86016060818903601f19011215611b8a575f5ffd5b611b9261183b565b60208201516001600160401b03811115611baa575f5ffd5b611bb98a6020838601016119f4565b82525060408201516001600160401b0381168114611bd5575f5ffd5b602082015260608201516001600160401b03811115611bf2575f5ffd5b60208184010192505060c0828a031215611c0a575f5ffd5b611c12611863565b611c1b83611a59565b8152611c2960208401611a59565b602082015260408301516001600160401b03811115611c46575f5ffd5b611c528b828601611a64565b60408301525060608301516001600160401b03811115611c70575f5ffd5b611c7c8b8286016119f4565b606083015250611c8e60808401611a59565b608082015260a08301516001600160401b03811115611cab575f5ffd5b611cb78b828601611ac8565b60a083015250604082015284525060209283019201611b58565b5f5f5f5f5f5f60c08789031215611ce6575f5ffd5b86518015158114611cf5575f5ffd5b9550611d03602088016119b8565b6040880151606089015191965094506001600160401b03811115611d25575f5ffd5b611d3189828a016119f4565b93505060808701516001600160401b03811115611d4c575f5ffd5b611d5889828a01611b15565b92505060a08701516001600160401b03811115611d73575f5ffd5b611d7f89828a01611ac8565b9150509295509295509295565b5f8151808452602084019350602083015f5b82811015611dbc578151865260209586019590910190600101611d9e565b5093949350505050565b61010081525f611dda61010083018b61165b565b6001600160401b038a166020848101919091526001600160a01b038a81166040860152891660608501528382036080850152875180835288820192909101905f5b81811015611e425783516001600160a01b0316835260209384019390920191600101611e1b565b505083810360a0850152611e568188611d8c565b92505050611e6e60c083018565ffffffffffff169052565b6001600160a01b03831660e08301529998505050505050505050565b5f60208284031215611e9a575f5ffd5b5051919050565b828152604060208201525f6109da604083018461165b565b5f60208284031215611ec9575f5ffd5b81516001600160e01b0319811681146101e1575f5ffd5b604081525f611ef2604083018561165b565b90508260208301529392505050565b5f60208284031215611f11575f5ffd5b81516001600160401b03811115611f26575f5ffd5b6109da84828501611a64565b5f60018201611f4357611f43611954565b5060010190565b5f82611f6457634e487b7160e01b5f52601260045260245ffd5b500490565b60ff82811682821603908111156105b2576105b2611954565b634e487b7160e01b5f52602160045260245ffdfea164736f6c634300081e000a","linkReferences":{}},"methodIdentifiers":{"getAccountOwner(address)":"442b172c","isInitialized(address)":"d60b347f","isModuleType(uint256)":"ecd05961","isValidSignatureWithSender(address,bytes32,bytes)":"f551e2ee","namespace()":"7c015a89","onInstall(bytes)":"6d61fe70","onUninstall(bytes)":"8a91b0e3","retrieveSignatureData(address)":"0f65bac5","validateUserOp((address,uint256,bytes,bytes,bytes32,uint256,bytes32,bytes,bytes),bytes32)":"97003203"},"id":545}