{"abi":[{"type":"constructor","inputs":[{"name":"aggregationRouter_","type":"address","internalType":"address"}],"stateMutability":"nonpayable"},{"type":"function","name":"NATIVE","inputs":[],"outputs":[{"name":"","type":"address","internalType":"address"}],"stateMutability":"view"},{"type":"function","name":"aggregationRouter","inputs":[],"outputs":[{"name":"","type":"address","internalType":"contract I1InchAggregationRouterV6"}],"stateMutability":"view"},{"type":"function","name":"asset","inputs":[],"outputs":[{"name":"","type":"address","internalType":"address"}],"stateMutability":"view"},{"type":"function","name":"build","inputs":[{"name":"prevHook","type":"address","internalType":"address"},{"name":"account","type":"address","internalType":"address"},{"name":"hookData","type":"bytes","internalType":"bytes"}],"outputs":[{"name":"executions","type":"tuple[]","internalType":"struct Execution[]","components":[{"name":"target","type":"address","internalType":"address"},{"name":"value","type":"uint256","internalType":"uint256"},{"name":"callData","type":"bytes","internalType":"bytes"}]}],"stateMutability":"view"},{"type":"function","name":"decodeUsePrevHookAmount","inputs":[{"name":"data","type":"bytes","internalType":"bytes"}],"outputs":[{"name":"","type":"bool","internalType":"bool"}],"stateMutability":"pure"},{"type":"function","name":"executionNonce","inputs":[],"outputs":[{"name":"","type":"uint256","internalType":"uint256"}],"stateMutability":"view"},{"type":"function","name":"getOutAmount","inputs":[{"name":"caller","type":"address","internalType":"address"}],"outputs":[{"name":"","type":"uint256","internalType":"uint256"}],"stateMutability":"view"},{"type":"function","name":"hookType","inputs":[],"outputs":[{"name":"","type":"uint8","internalType":"enum ISuperHook.HookType"}],"stateMutability":"view"},{"type":"function","name":"inspect","inputs":[{"name":"data","type":"bytes","internalType":"bytes"}],"outputs":[{"name":"","type":"bytes","internalType":"bytes"}],"stateMutability":"pure"},{"type":"function","name":"lastCaller","inputs":[],"outputs":[{"name":"","type":"address","internalType":"address"}],"stateMutability":"view"},{"type":"function","name":"postExecute","inputs":[{"name":"prevHook","type":"address","internalType":"address"},{"name":"account","type":"address","internalType":"address"},{"name":"data","type":"bytes","internalType":"bytes"}],"outputs":[],"stateMutability":"nonpayable"},{"type":"function","name":"preExecute","inputs":[{"name":"prevHook","type":"address","internalType":"address"},{"name":"account","type":"address","internalType":"address"},{"name":"data","type":"bytes","internalType":"bytes"}],"outputs":[],"stateMutability":"nonpayable"},{"type":"function","name":"resetExecutionState","inputs":[{"name":"caller","type":"address","internalType":"address"}],"outputs":[],"stateMutability":"nonpayable"},{"type":"function","name":"setExecutionContext","inputs":[{"name":"caller","type":"address","internalType":"address"}],"outputs":[],"stateMutability":"nonpayable"},{"type":"function","name":"setOutAmount","inputs":[{"name":"_outAmount","type":"uint256","internalType":"uint256"},{"name":"caller","type":"address","internalType":"address"}],"outputs":[],"stateMutability":"nonpayable"},{"type":"function","name":"spToken","inputs":[],"outputs":[{"name":"","type":"address","internalType":"address"}],"stateMutability":"view"},{"type":"function","name":"subType","inputs":[],"outputs":[{"name":"","type":"bytes32","internalType":"bytes32"}],"stateMutability":"view"},{"type":"function","name":"subtype","inputs":[],"outputs":[{"name":"","type":"bytes32","internalType":"bytes32"}],"stateMutability":"view"},{"type":"function","name":"usedShares","inputs":[],"outputs":[{"name":"","type":"uint256","internalType":"uint256"}],"stateMutability":"view"},{"type":"error","name":"ADDRESS_NOT_VALID","inputs":[]},{"type":"error","name":"AMOUNT_NOT_VALID","inputs":[]},{"type":"error","name":"CANNOT_SET_OUT_AMOUNT","inputs":[]},{"type":"error","name":"INCOMPLETE_HOOK_EXECUTION","inputs":[]},{"type":"error","name":"INVALID_DESTINATION_TOKEN","inputs":[]},{"type":"error","name":"INVALID_INPUT_AMOUNT","inputs":[]},{"type":"error","name":"INVALID_OUTPUT_AMOUNT","inputs":[]},{"type":"error","name":"INVALID_RECEIVER","inputs":[]},{"type":"error","name":"INVALID_SELECTOR","inputs":[]},{"type":"error","name":"INVALID_SELECTOR_OFFSET","inputs":[]},{"type":"error","name":"INVALID_TOKEN_PAIR","inputs":[]},{"type":"error","name":"NOT_AUTHORIZED","inputs":[]},{"type":"error","name":"PARTIAL_FILL_NOT_ALLOWED","inputs":[]},{"type":"error","name":"POST_EXECUTE_ALREADY_CALLED","inputs":[]},{"type":"error","name":"PRE_EXECUTE_ALREADY_CALLED","inputs":[]},{"type":"error","name":"SafeCastOverflowedIntDowncast","inputs":[{"name":"bits","type":"uint8","internalType":"uint8"},{"name":"value","type":"int256","internalType":"int256"}]},{"type":"error","name":"SafeCastOverflowedUintDowncast","inputs":[{"name":"bits","type":"uint8","internalType":"uint8"},{"name":"value","type":"uint256","internalType":"uint256"}]},{"type":"error","name":"UNAUTHORIZED_CALLER","inputs":[]},{"type":"error","name":"ZERO_ADDRESS","inputs":[]}],"bytecode":{"object":"0x60c060405234801561000f575f5ffd5b5060405161215a38038061215a83398101604081905261002e916100af565b6040805180820190915260048152630537761760e41b6020909101525f805460ff191690557fbce316f0d9d2a3affa97de1d99bb2aac0538e2666d0d8545545ead241ef0ccab6080526001600160a01b03811661009e5760405163538ba4f960e01b815260040160405180910390fd5b6001600160a01b031660a0526100dc565b5f602082840312156100bf575f5ffd5b81516001600160a01b03811681146100d5575f5ffd5b9392505050565b60805160a05161204f61010b5f395f81816102ef0152610b6e01525f81816101e80152610279015261204f5ff3fe608060405234801561000f575f5ffd5b506004361061011c575f3560e01c8063685a943c116100a9578063cf0a61811161006e578063cf0a618114610274578063d06a1e891461029b578063e445e7dd146102ae578063e7745517146102c7578063fcdfd946146102ea575f5ffd5b8063685a943c1461020c57806381cbe691146102145780638c4313c1146102275780638e14877614610247578063a0cf0aea14610259575f5ffd5b80632113522a116100ef5780632113522a146101775780632ae2fe3d146101a157806338d52e0f146101b45780633b5896bc146101c65780635492e677146101e6575f5ffd5b806301bd43ef1461012057806305b4fe911461013c57806314cb37cf146101515780631f26461914610164575b5f5ffd5b61012960035c81565b6040519081526020015b60405180910390f35b61014f61014a366004611967565b610311565b005b61014f61015f3660046119c8565b61038b565b61014f6101723660046119e3565b6103ac565b6101896001600160a01b0360045c1681565b6040516001600160a01b039091168152602001610133565b61014f6101af366004611967565b610405565b6101896001600160a01b0360025c1681565b6101d96101d4366004611967565b610478565b6040516101339190611a3f565b7f0000000000000000000000000000000000000000000000000000000000000000610129565b6101295f5c81565b6101296102223660046119c8565b610691565b61023a610235366004611acc565b6106a9565b6040516101339190611b0b565b6101896001600160a01b0360015c1681565b61018973eeeeeeeeeeeeeeeeeeeeeeeeeeeeeeeeeeeeeeee81565b6101297f000000000000000000000000000000000000000000000000000000000000000081565b61014f6102a93660046119c8565b6108f1565b5f546102ba9060ff1681565b6040516101339190611b31565b6102da6102d5366004611c1f565b610943565b6040519015158152602001610133565b6101897f000000000000000000000000000000000000000000000000000000000000000081565b336001600160a01b0384161461033a5760405163e15e56c960e01b815260040160405180910390fd5b5f6103448461094f565b905061034f81610962565b1561036d5760405163945b63f560e01b815260040160405180910390fd5b61037881600161096f565b61038485858585610985565b5050505050565b610394816109b2565b50336004805c6001600160a01b0319168217905d5050565b5f6103b68261094f565b90506103c1816109e4565b806103d057506103d081610962565b156103ee5760405163441e4c7360e11b815260040160405180910390fd5b5f6103fa8260016109ed565b905083815d50505050565b336001600160a01b0384161461042e5760405163e15e56c960e01b815260040160405180910390fd5b5f6104388461094f565b9050610443816109e4565b1561046157604051630bbb04d960e11b815260040160405180910390fd5b61046c816001610a42565b61038485858585610a4e565b60605f61048786868686610a5c565b9050805160026104979190611c6d565b67ffffffffffffffff8111156104af576104af611b57565b6040519080825280602002602001820160405280156104fb57816020015b60408051606080820183525f8083526020830152918101919091528152602001906001900390816104cd5790505b5091506040518060600160405280306001600160a01b031681526020015f8152602001306001600160a01b0316632ae2fe3d898989896040516024016105449493929190611c80565b604051602081830303815290604052915060e01b6020820180516001600160e01b038381831617835250505050815250825f8151811061058657610586611cc8565b60209081029190910101525f5b81518110156105e7578181815181106105ae576105ae611cc8565b6020026020010151838260016105c49190611c6d565b815181106105d4576105d4611cc8565b6020908102919091010152600101610593565b506040518060600160405280306001600160a01b031681526020015f8152602001306001600160a01b03166305b4fe918989898960405160240161062e9493929190611c80565b604051602081830303815290604052915060e01b6020820180516001600160e01b038381831617835250505050815250826001845161066d9190611cdc565b8151811061067d5761067d611cc8565b602002602001018190525050949350505050565b5f6106a361069e8361094f565b610c8f565b92915050565b6060365f6106ba8460498188611cef565b90925090505f6106cd6004828486611cef565b6106d691611d16565b90506060630e9b51bf60e11b6001600160e01b0319831601610781575f8080610702866004818a611cef565b81019061070f9190611d4e565b9450505092509250610727836001600160a01b031690565b6001600160a01b0383166001600160a01b0383166040516001600160601b0319606094851b8116602083015292841b83166034820152921b166048820152605c0160405160208183030381529060405293505050506108e7565b63f812dc8760e01b6001600160e01b0319831601610826575f806107a88560048189611cef565b8101906107b59190611d85565b50805160208083015160408085015160608087015192516001600160601b031989831b81169682019690965295811b8516603487015292831b84166048860152821b8316605c850152901b1660708201529193509150608401604051602081830303815290604052925050506108e7565b633b29ad5160e01b6001600160e01b03198316016108ce575f80808061084f876004818b611cef565b81019061085c9190611e5c565b50505050509350935093509350838361087b846001600160a01b031690565b6040516001600160601b0319606094851b8116602083015292841b8316603482015290831b821660488201529183901b16605c8201526070016040516020818303038152906040529450505050506108e7565b60405163d858d3d360e01b815260040160405180910390fd5b9695505050505050565b5f6108fb8261094f565b9050610906816109e4565b1580610918575061091681610962565b155b1561093657604051634bd439b560e11b815260040160405180910390fd5b61093f81610c9c565b5050565b5f6106a3826048610cb3565b5f5f61095a83610cdf565b5c9392505050565b5f5f61095a8360036109ed565b5f61097b8360036109ed565b905081815d505050565b6109ac61099184610691565b61099c848487610d46565b6109a69190611cdc565b84610e46565b50505050565b5f6003805c90826109c283611ed7565b9190505d505f6109d183610cdf565b905060035c80825d505060035c92915050565b5f5f61095a8360025b604080517fc41a07c57a776f6217c6d4278dfe7a5d114742afe55627ce458c2802aa4d703460208083019190915281830194909452606080820193909352815180820390930183526080019052805191012090565b5f61097b8360026109ed565b6109ac6109a6838386610d46565b60605f610a6c6014828587611cef565b610a7591611eef565b60601c90505f610a89602860148688611cef565b610a9291611eef565b60601c90505f610aa6604860288789611cef565b610aaf91611f25565b5f1c90505f610af587878080601f0160208091040260200160405190810160405280939291908181526020018383808284375f9201919091525060489250610cb3915050565b9050365f610b06886049818c611cef565b915091505f610b1a87878e8e888888610e5e565b604080516001808252818301909252919250816020015b60408051606080820183525f808352602083015291810191909152815260200190600190039081610b3157905050975060405180606001604052807f00000000000000000000000000000000000000000000000000000000000000006001600160a01b03168152602001858015610ba757505f87115b610bb15786610c19565b6040516381cbe69160e01b81526001600160a01b038e811660048301528f16906381cbe69190602401602060405180830381865afa158015610bf5573d5f5f3e3d5ffd5b505050506040513d601f19601f82011682018060405250810190610c199190611f42565b815260200185610c5e5784848080601f0160208091040260200160405190810160405280939291908181526020018383808284375f92019190915250610c6092505050565b825b815250885f81518110610c7557610c75611cc8565b602002602001018190525050505050505050949350505050565b5f5f61095a8360016109ed565b610ca6815f610a42565b610cb0815f61096f565b50565b5f828281518110610cc657610cc6611cc8565b01602001516001600160f81b0319161515905092915050565b5f7f8ce092d4869bdfa1a1ce579ddddb2b776c39ace5d7b5d7e70e97ece2a78f4f9b82604051602001610d2992919091825260601b6001600160601b031916602082015260340190565b604051602081830303815290604052805190602001209050919050565b5f80610d556014828688611cef565b610d5e91611eef565b60601c90505f610d72602860148789611cef565b610d7b91611eef565b60601c905080610d885750825b6001600160a01b03821673eeeeeeeeeeeeeeeeeeeeeeeeeeeeeeeeeeeeeeee1480610dba57506001600160a01b038216155b15610dd2576001600160a01b0316319150610e3f9050565b6040516370a0823160e01b81526001600160a01b0382811660048301528316906370a0823190602401602060405180830381865afa158015610e16573d5f5f3e3d5ffd5b505050506040513d601f19601f82011682018060405250810190610e3a9190611f42565b925050505b9392505050565b5f610e508261094f565b90505f6103fa8260016109ed565b60605f610e6e6004828587611cef565b610e7791611d16565b9050630e9b51bf60e11b6001600160e01b0319821601610eb257610eab610ea18460048188611cef565b8a8c8b8b8b610f4e565b9150610f16565b63f812dc8760e01b6001600160e01b0319821601610ee457610eab610eda8460048188611cef565b8a8c8b8b8b611472565b633b29ad5160e01b6001600160e01b03198216016108ce57610eab610f0c8460048188611cef565b8a8c8b8b8b611613565b815115610f42578082604051602001610f30929190611f59565b60405160208183030381529060405291505b50979650505050505050565b60605f80808080610f618c8e018e611d4e565b945094509450945094505f5f610f768361179b565b90506002816002811115610f8c57610f8c611b1d565b036111275760ff60d084901c81169060d885901c165f610fab826117b2565b9050825f03611023576040516387cb4f5760e01b8152600481018390526001600160a01b038716906387cb4f57906024015b602060405180830381865afa158015610ff8573d5f5f3e3d5ffd5b505050506040513d601f19601f8201168201806040525081019061101c9190611f84565b945061111f565b82600403611073576001600160a01b0386166323746eb861104c6001600160801b0384166117ee565b6040516001600160e01b031960e084901b168152600f9190910b6004820152602401610fdd565b826008036110a85760405163c661065760e01b8152600481018390526001600160a01b0387169063c661065790602401610fdd565b82600c036110d1576001600160a01b03861663b739953e61104c6001600160801b0384166117ee565b8260100361110657604051630b9947eb60e41b8152600481018390526001600160a01b0387169063b9947eb090602401610fdd565b604051632a3b8b8360e11b815260040160405180910390fd5b50505061125a565b5f6001600160a01b0384166001600160a01b0316630dfe16816040518163ffffffff1660e01b8152600401602060405180830381865afa15801561116d573d5f5f3e3d5ffd5b505050506040513d601f19601f820116820180604052508101906111919190611f84565b90505f6001600160a01b0385166001600160a01b031663d21220a76040518163ffffffff1660e01b8152600401602060405180830381865afa1580156111d9573d5f5f3e3d5ffd5b505050506040513d601f19601f820116820180604052508101906111fd9190611f84565b90506001600160a01b0388811690831681900361121c57819450611256565b806001600160a01b0316826001600160a01b03160361123d57829450611256565b604051630374f15d60e31b815260040160405180910390fd5b5050505b61126383611822565b156112805773eeeeeeeeeeeeeeeeeeeeeeeeeeeeeeeeeeeeeeee91505b881561137f576040516381cbe69160e01b81526001600160a01b038b811660048301528691908d16906381cbe69190602401602060405180830381865afa1580156112cd573d5f5f3e3d5ffd5b505050506040513d601f19601f820116820180604052508101906112f19190611f42565b955080861461137d578086111561133c575f61131a6113108389611cdc565b620186a084611831565b905061132a8682620186a0611831565b6113349087611c6d565b95505061137d565b5f61134a6113108884611cdc565b90505f61135b8783620186a0611831565b90508681111561136d575f965061137a565b6113778188611cdc565b96505b50505b505b845f0361139f5760405163324dfcff60e11b815260040160405180910390fd5b835f036113bf576040516385b1b8ff60e01b815260040160405180910390fd5b816001600160a01b03168c6001600160a01b0316146113f157604051630912106360e41b815260040160405180910390fd5b6001600160a01b03878116908e16811461141e57604051632b0ddb9160e01b815260040160405180910390fd5b891561145f5760408051602081018a9052908101889052606081018790526080810186905260a0810185905260c00160405160208183030381529060405298505b5050505050505050979650505050505050565b60605f80806114838a8c018c611d85565b92509250925060018260c00151165f146114b05760405163bfc016d560e01b815260040160405180910390fd5b876001600160a01b031682602001516001600160a01b0316146114e657604051630912106360e41b815260040160405180910390fd5b886001600160a01b031682606001516001600160a01b03161461151c57604051632b0ddb9160e01b815260040160405180910390fd5b8415611590576040516381cbe69160e01b81526001600160a01b0387811660048301528816906381cbe69190602401602060405180830381865afa158015611566573d5f5f3e3d5ffd5b505050506040513d601f19601f8201168201806040525081019061158a9190611f42565b60808301525b81608001515f036115b45760405163324dfcff60e11b815260040160405180910390fd5b8160a001515f036115d8576040516385b1b8ff60e01b815260040160405180910390fd5b8415611605578282826040516020016115f393929190611f9f565b60405160208183030381529060405293505b505050979650505050505050565b60605f8080806116258b8d018d611e5c565b50505095509550955050945050896001600160a01b0316846001600160a01b03161461166457604051632b0ddb9160e01b815260040160405180910390fd5b886001600160a01b0316836001600160a01b03161461169657604051630912106360e41b815260040160405180910390fd5b8515611707576040516381cbe69160e01b81526001600160a01b0388811660048301528916906381cbe69190602401602060405180830381865afa1580156116e0573d5f5f3e3d5ffd5b505050506040513d601f19601f820116820180604052508101906117049190611f42565b91505b815f036117275760405163324dfcff60e11b815260040160405180910390fd5b805f03611747576040516385b1b8ff60e01b815260040160405180910390fd5b851561178c578b8b8080601f0160208091040260200160405190810160405280939291908181526020018383808284375f9201919091525050505060a0810183905294505b50505050979650505050505050565b5f60fd82901c60028111156106a3576106a3611b1d565b5f6001600160801b038211156117ea576040516306dfcc6560e41b815260806004820152602481018390526044015b60405180910390fd5b5090565b80600f81900b811461181d5760405163327269a760e01b815260806004820152602481018390526044016117e1565b919050565b5f600160fc1b821615156106a3565b5f5f5f61183e86866118e1565b91509150815f03611862578381816118585761185861202e565b0492505050610e3f565b8184116118795761187960038515026011186118fd565b5f848688095f868103871696879004966002600389028118808a02820302808a02820302808a02820302808a02820302808a02820302808a02909103029181900381900460010185841190960395909502919093039390930492909217029150509392505050565b5f805f1983850993909202808410938190039390930393915050565b634e487b715f52806020526024601cfd5b6001600160a01b0381168114610cb0575f5ffd5b5f5f83601f840112611932575f5ffd5b50813567ffffffffffffffff811115611949575f5ffd5b602083019150836020828501011115611960575f5ffd5b9250929050565b5f5f5f5f6060858703121561197a575f5ffd5b84356119858161190e565b935060208501356119958161190e565b9250604085013567ffffffffffffffff8111156119b0575f5ffd5b6119bc87828801611922565b95989497509550505050565b5f602082840312156119d8575f5ffd5b8135610e3f8161190e565b5f5f604083850312156119f4575f5ffd5b823591506020830135611a068161190e565b809150509250929050565b5f81518084528060208401602086015e5f602082860101526020601f19601f83011685010191505092915050565b5f602082016020835280845180835260408501915060408160051b8601019250602086015f5b82811015611ac057868503603f19018452815180516001600160a01b0316865260208082015190870152604090810151606091870182905290611aaa90870182611a11565b9550506020938401939190910190600101611a65565b50929695505050505050565b5f5f60208385031215611add575f5ffd5b823567ffffffffffffffff811115611af3575f5ffd5b611aff85828601611922565b90969095509350505050565b602081525f610e3f6020830184611a11565b634e487b7160e01b5f52602160045260245ffd5b6020810160038310611b5157634e487b7160e01b5f52602160045260245ffd5b91905290565b634e487b7160e01b5f52604160045260245ffd5b60405160e0810167ffffffffffffffff81118282101715611b8e57611b8e611b57565b60405290565b5f82601f830112611ba3575f5ffd5b813567ffffffffffffffff811115611bbd57611bbd611b57565b604051601f8201601f19908116603f0116810167ffffffffffffffff81118282101715611bec57611bec611b57565b604052818152838201602001851015611c03575f5ffd5b816020850160208301375f918101602001919091529392505050565b5f60208284031215611c2f575f5ffd5b813567ffffffffffffffff811115611c45575f5ffd5b611c5184828501611b94565b949350505050565b634e487b7160e01b5f52601160045260245ffd5b808201808211156106a3576106a3611c59565b6001600160a01b038581168252841660208201526060604082018190528101829052818360808301375f818301608090810191909152601f909201601f191601019392505050565b634e487b7160e01b5f52603260045260245ffd5b818103818111156106a3576106a3611c59565b5f5f85851115611cfd575f5ffd5b83861115611d09575f5ffd5b5050820193919092039150565b80356001600160e01b03198116906004841015611d47576001600160e01b0319600485900360031b81901b82161691505b5092915050565b5f5f5f5f5f60a08688031215611d62575f5ffd5b505083359560208501359550604085013594606081013594506080013592509050565b5f5f5f838503610120811215611d99575f5ffd5b8435611da48161190e565b935060e0601f1982011215611db7575f5ffd5b50611dc0611b6b565b6020850135611dce8161190e565b81526040850135611dde8161190e565b60208201526060850135611df18161190e565b60408201526080850135611e048161190e565b606082015260a085810135608083015260c0808701359183019190915260e086013590820152915061010084013567ffffffffffffffff811115611e46575f5ffd5b611e5286828701611b94565b9150509250925092565b5f5f5f5f5f5f5f5f5f6101208a8c031215611e75575f5ffd5b8935611e808161190e565b985060208a0135611e908161190e565b975060408a0135965060608a0135611ea78161190e565b989b979a50959860808101359760a0820135975060c0820135965060e08201359550610100909101359350915050565b5f60018201611ee857611ee8611c59565b5060010190565b80356001600160601b03198116906014841015611d47576001600160601b031960149490940360031b84901b1690921692915050565b803560208310156106a3575f19602084900360031b1b1692915050565b5f60208284031215611f52575f5ffd5b5051919050565b6001600160e01b03198316815281515f908060208501600485015e5f92016004019182525092915050565b5f60208284031215611f94575f5ffd5b8151610e3f8161190e565b60018060a01b038416815260018060a01b03835116602082015260018060a01b03602084015116604082015260018060a01b03604084015116606082015260018060a01b036060840151166080820152608083015160a082015260a083015160c082015260c083015160e08201526101206101008201525f612025610120830184611a11565b95945050505050565b634e487b7160e01b5f52601260045260245ffdfea164736f6c634300081e000a","linkReferences":{}},"methodIdentifiers":{"NATIVE()":"a0cf0aea","aggregationRouter()":"fcdfd946","asset()":"38d52e0f","build(address,address,bytes)":"3b5896bc","decodeUsePrevHookAmount(bytes)":"e7745517","executionNonce()":"01bd43ef","getOutAmount(address)":"81cbe691","hookType()":"e445e7dd","inspect(bytes)":"8c4313c1","lastCaller()":"2113522a","postExecute(address,address,bytes)":"05b4fe91","preExecute(address,address,bytes)":"2ae2fe3d","resetExecutionState(address)":"d06a1e89","setExecutionContext(address)":"14cb37cf","setOutAmount(uint256,address)":"1f264619","spToken()":"8e148776","subType()":"cf0a6181","subtype()":"5492e677","usedShares()":"685a943c"},"id":463}