{"abi":[{"type":"constructor","inputs":[{"name":"morpho_","type":"address","internalType":"address"}],"stateMutability":"nonpayable"},{"type":"function","name":"asset","inputs":[],"outputs":[{"name":"","type":"address","internalType":"address"}],"stateMutability":"view"},{"type":"function","name":"build","inputs":[{"name":"prevHook","type":"address","internalType":"address"},{"name":"account","type":"address","internalType":"address"},{"name":"hookData","type":"bytes","internalType":"bytes"}],"outputs":[{"name":"executions","type":"tuple[]","internalType":"struct Execution[]","components":[{"name":"target","type":"address","internalType":"address"},{"name":"value","type":"uint256","internalType":"uint256"},{"name":"callData","type":"bytes","internalType":"bytes"}]}],"stateMutability":"view"},{"type":"function","name":"decodeUsePrevHookAmount","inputs":[{"name":"data","type":"bytes","internalType":"bytes"}],"outputs":[{"name":"","type":"bool","internalType":"bool"}],"stateMutability":"pure"},{"type":"function","name":"deriveShareBalance","inputs":[{"name":"id","type":"bytes32","internalType":"Id"},{"name":"account","type":"address","internalType":"address"}],"outputs":[{"name":"borrowShares","type":"uint128","internalType":"uint128"}],"stateMutability":"view"},{"type":"function","name":"executionNonce","inputs":[],"outputs":[{"name":"","type":"uint256","internalType":"uint256"}],"stateMutability":"view"},{"type":"function","name":"getCollateralTokenAddress","inputs":[{"name":"data","type":"bytes","internalType":"bytes"}],"outputs":[{"name":"","type":"address","internalType":"address"}],"stateMutability":"pure"},{"type":"function","name":"getCollateralTokenBalance","inputs":[{"name":"account","type":"address","internalType":"address"},{"name":"data","type":"bytes","internalType":"bytes"}],"outputs":[{"name":"","type":"uint256","internalType":"uint256"}],"stateMutability":"view"},{"type":"function","name":"getLoanTokenAddress","inputs":[{"name":"data","type":"bytes","internalType":"bytes"}],"outputs":[{"name":"","type":"address","internalType":"address"}],"stateMutability":"pure"},{"type":"function","name":"getLoanTokenBalance","inputs":[{"name":"account","type":"address","internalType":"address"},{"name":"data","type":"bytes","internalType":"bytes"}],"outputs":[{"name":"","type":"uint256","internalType":"uint256"}],"stateMutability":"view"},{"type":"function","name":"getOutAmount","inputs":[{"name":"caller","type":"address","internalType":"address"}],"outputs":[{"name":"","type":"uint256","internalType":"uint256"}],"stateMutability":"view"},{"type":"function","name":"hookType","inputs":[],"outputs":[{"name":"","type":"uint8","internalType":"enum ISuperHook.HookType"}],"stateMutability":"view"},{"type":"function","name":"inspect","inputs":[{"name":"data","type":"bytes","internalType":"bytes"}],"outputs":[{"name":"","type":"bytes","internalType":"bytes"}],"stateMutability":"pure"},{"type":"function","name":"lastCaller","inputs":[],"outputs":[{"name":"","type":"address","internalType":"address"}],"stateMutability":"view"},{"type":"function","name":"morpho","inputs":[],"outputs":[{"name":"","type":"address","internalType":"address"}],"stateMutability":"view"},{"type":"function","name":"morphoBase","inputs":[],"outputs":[{"name":"","type":"address","internalType":"contract IMorphoBase"}],"stateMutability":"view"},{"type":"function","name":"morphoInterface","inputs":[],"outputs":[{"name":"","type":"address","internalType":"contract IMorpho"}],"stateMutability":"view"},{"type":"function","name":"morphoStaticTyping","inputs":[],"outputs":[{"name":"","type":"address","internalType":"contract IMorphoStaticTyping"}],"stateMutability":"view"},{"type":"function","name":"postExecute","inputs":[{"name":"prevHook","type":"address","internalType":"address"},{"name":"account","type":"address","internalType":"address"},{"name":"data","type":"bytes","internalType":"bytes"}],"outputs":[],"stateMutability":"nonpayable"},{"type":"function","name":"postExecuteMutex","inputs":[],"outputs":[{"name":"","type":"bool","internalType":"bool"}],"stateMutability":"view"},{"type":"function","name":"preExecute","inputs":[{"name":"prevHook","type":"address","internalType":"address"},{"name":"account","type":"address","internalType":"address"},{"name":"data","type":"bytes","internalType":"bytes"}],"outputs":[],"stateMutability":"nonpayable"},{"type":"function","name":"preExecuteMutex","inputs":[],"outputs":[{"name":"","type":"bool","internalType":"bool"}],"stateMutability":"view"},{"type":"function","name":"resetExecutionState","inputs":[{"name":"caller","type":"address","internalType":"address"}],"outputs":[],"stateMutability":"nonpayable"},{"type":"function","name":"setExecutionContext","inputs":[{"name":"caller","type":"address","internalType":"address"}],"outputs":[],"stateMutability":"nonpayable"},{"type":"function","name":"setOutAmount","inputs":[{"name":"_outAmount","type":"uint256","internalType":"uint256"},{"name":"caller","type":"address","internalType":"address"}],"outputs":[],"stateMutability":"nonpayable"},{"type":"function","name":"sharesToAssets","inputs":[{"name":"marketParams","type":"tuple","internalType":"struct MarketParams","components":[{"name":"loanToken","type":"address","internalType":"address"},{"name":"collateralToken","type":"address","internalType":"address"},{"name":"oracle","type":"address","internalType":"address"},{"name":"irm","type":"address","internalType":"address"},{"name":"lltv","type":"uint256","internalType":"uint256"}]},{"name":"account","type":"address","internalType":"address"}],"outputs":[{"name":"assets","type":"uint256","internalType":"uint256"}],"stateMutability":"view"},{"type":"function","name":"spToken","inputs":[],"outputs":[{"name":"","type":"address","internalType":"address"}],"stateMutability":"view"},{"type":"function","name":"subType","inputs":[],"outputs":[{"name":"","type":"bytes32","internalType":"bytes32"}],"stateMutability":"view"},{"type":"function","name":"subtype","inputs":[],"outputs":[{"name":"","type":"bytes32","internalType":"bytes32"}],"stateMutability":"view"},{"type":"function","name":"usedShares","inputs":[],"outputs":[{"name":"","type":"uint256","internalType":"uint256"}],"stateMutability":"view"},{"type":"error","name":"ADDRESS_NOT_VALID","inputs":[]},{"type":"error","name":"AMOUNT_NOT_VALID","inputs":[]},{"type":"error","name":"CANNOT_SET_OUT_AMOUNT","inputs":[]},{"type":"error","name":"INCOMPLETE_HOOK_EXECUTION","inputs":[]},{"type":"error","name":"NOT_AUTHORIZED","inputs":[]},{"type":"error","name":"POST_EXECUTE_ALREADY_CALLED","inputs":[]},{"type":"error","name":"PRE_EXECUTE_ALREADY_CALLED","inputs":[]},{"type":"error","name":"UNAUTHORIZED_CALLER","inputs":[]}],"bytecode":{"object":"0x60a060405234801561000f575f5ffd5b50604051611d01380380611d0183398101604081905261002e9161010a565b6040805180820190915260098152684c6f616e526570617960b81b6020909101525f805460ff191690557fc4ca98b212a28e3a28db4ed5cc1e6eefa183a4af47da3bb56451d704736462d0608081905281906001600160a01b0382166100a757604051630f58648f60e01b815260040160405180910390fd5b505f8054600180546001600160a01b03199081166001600160a01b0396871690811790925560028054821683179055610100600160a81b031992831694909516610100908102929092169390931790830217905560038054909216179055610137565b5f6020828403121561011a575f5ffd5b81516001600160a01b0381168114610130575f5ffd5b9392505050565b608051611bab6101565f395f81816102b7015261039a0152611bab5ff3fe608060405234801561000f575f5ffd5b50600436106101c5575f3560e01c806384542a24116100fe578063d06a1e891161009e578063e77455171161006e578063e77455171461040e578063eb55e8cc14610421578063f983789614610434578063faf331401461044b575f5ffd5b8063d06a1e89146103bc578063d8fbc833146103cf578063e445e7dd146103e2578063e512cf16146103fb575f5ffd5b80638c4313c1116100d95780638c4313c1146103505780638e14877614610370578063b263ee3e14610382578063cf0a618114610395575f5ffd5b806384542a2414610318578063867bb72c1461032a57806387ef841a1461033d575f5ffd5b80632ae2fe3d116101695780635492e677116101445780635492e677146102b557806360b5be29146102db578063685a943c146102fd57806381cbe69114610305575f5ffd5b80632ae2fe3d1461027057806338d52e0f146102835780633b5896bc14610295575f5ffd5b806305b4fe91116101a457806305b4fe911461022357806314cb37cf146102385780631f2646191461024b5780632113522a1461025e575f5ffd5b8062f5f8b4146101c957806301bd43ef146101f957806303341d6614610210575b5f5ffd5b6101dc6101d73660046115d5565b610476565b6040516001600160a01b0390911681526020015b60405180910390f35b61020260035c81565b6040519081526020016101f0565b61020261021e366004611622565b610487565b6102366102313660046116b2565b610507565b005b61023661024636600461170f565b610575565b61023661025936600461172f565b610596565b6101dc6001600160a01b0360045c1681565b61023661027e3660046116b2565b6105ef565b6101dc6001600160a01b0360025c1681565b6102a86102a33660046116b2565b610662565b6040516101f09190611787565b7f0000000000000000000000000000000000000000000000000000000000000000610202565b6102ed60ff600160a81b60025c041681565b60405190151581526020016101f0565b6102025f5c81565b61020261031336600461170f565b61087b565b6102ed60ff600160a01b60025c041681565b610202610338366004611622565b61088d565b6101dc61034b3660046115d5565b61089a565b61036361035e366004611814565b6108a6565b6040516101f09190611853565b6101dc6001600160a01b0360015c1681565b6003546101dc906001600160a01b031681565b6102027f000000000000000000000000000000000000000000000000000000000000000081565b6102366103ca36600461170f565b610971565b6001546101dc906001600160a01b031681565b5f546103ee9060ff1681565b6040516101f09190611865565b6002546101dc906001600160a01b031681565b6102ed61041c3660046115d5565b6109c3565b61020261042f36600461188b565b6109cf565b5f546101dc9061010090046001600160a01b031681565b61045e61045936600461172f565b610ab1565b6040516001600160801b0390911681526020016101f0565b5f610481825f610b2d565b92915050565b5f5f610493835f610b2d565b6040516370a0823160e01b81526001600160a01b038681166004830152919250908216906370a0823190602401602060405180830381865afa1580156104db573d5f5f3e3d5ffd5b505050506040513d601f19601f820116820180604052508101906104ff9190611927565b949350505050565b336001600160a01b038416146105305760405163e15e56c960e01b815260040160405180910390fd5b5f61053a84610b96565b905061054581610ba9565b156105635760405163945b63f560e01b815260040160405180910390fd5b61056e816001610bb6565b5050505050565b61057e81610bcc565b50336004805c6001600160a01b0319168217905d5050565b5f6105a082610b96565b90506105ab81610bfe565b806105ba57506105ba81610ba9565b156105d85760405163441e4c7360e11b815260040160405180910390fd5b5f6105e4826001610c07565b905083815d50505050565b336001600160a01b038416146106185760405163e15e56c960e01b815260040160405180910390fd5b5f61062284610b96565b905061062d81610bfe565b1561064b57604051630bbb04d960e11b815260040160405180910390fd5b610656816001610c5c565b61056e85858585610c68565b60605f61067186868686610d34565b9050805160026106819190611952565b67ffffffffffffffff81111561069957610699611536565b6040519080825280602002602001820160405280156106e557816020015b60408051606080820183525f8083526020830152918101919091528152602001906001900390816106b75790505b5091506040518060600160405280306001600160a01b031681526020015f8152602001306001600160a01b0316632ae2fe3d8989898960405160240161072e9493929190611965565b604051602081830303815290604052915060e01b6020820180516001600160e01b038381831617835250505050815250825f81518110610770576107706119ad565b60209081029190910101525f5b81518110156107d157818181518110610798576107986119ad565b6020026020010151838260016107ae9190611952565b815181106107be576107be6119ad565b602090810291909101015260010161077d565b506040518060600160405280306001600160a01b031681526020015f8152602001306001600160a01b03166305b4fe91898989896040516024016108189493929190611965565b604051602081830303815290604052915060e01b6020820180516001600160e01b038381831617835250505050815250826001845161085791906119c1565b81518110610867576108676119ad565b602002602001018190525050949350505050565b5f61048161088883610b96565b61125e565b5f5f610493836014610b2d565b5f610481826014610b2d565b60605f6108e784848080601f0160208091040260200160405190810160405280939291908181526020018383808284375f9201919091525061126b92505050565b90505f61090a825f01518360200151846040015185606001518660a0015161136c565b8051602080830151604080850151606095860151825195871b6bffffffffffffffffffffffff199081169587019590955292861b84166034860152851b83166048850152931b16605c82015281518082036050018152607090910190915295945050505050565b5f61097b82610b96565b905061098681610bfe565b1580610998575061099681610ba9565b155b156109b657604051634bd439b560e11b815260040160405180910390fd5b6109bf816113d3565b5050565b5f6104818260906113ea565b5f5f6109dc8460a0902090565b90505f6109e98285610ab1565b6001600160801b031690505f5f60019054906101000a90046001600160a01b03166001600160a01b0316635c60e39a846040518263ffffffff1660e01b8152600401610a3791815260200190565b60c060405180830381865afa158015610a52573d5f5f3e3d5ffd5b505050506040513d601f19601f82011682018060405250810190610a7691906119ea565b9050610aa781604001516001600160801b031682606001516001600160801b0316846114169092919063ffffffff16565b9695505050505050565b6003546040516349e2903160e11b8152600481018490526001600160a01b0383811660248301525f9216906393c5206290604401606060405180830381865afa158015610b00573d5f5f3e3d5ffd5b505050506040513d601f19601f82011682018060405250810190610b249190611a89565b50949350505050565b5f610b39826014611952565b83511015610b865760405162461bcd60e51b8152602060048201526015602482015274746f416464726573735f6f75744f66426f756e647360581b60448201526064015b60405180910390fd5b500160200151600160601b900490565b5f5f610ba18361143a565b5c9392505050565b5f5f610ba1836003610c07565b5f610bc2836003610c07565b905081815d505050565b5f6003805c9082610bdc83611ac2565b9190505d505f610beb8361143a565b905060035c80825d505060035c92915050565b5f5f610ba18360025b604080517fc41a07c57a776f6217c6d4278dfe7a5d114742afe55627ce458c2802aa4d703460208083019190915281830194909452606080820193909352815180820390930183526080019052805191012090565b5f610bc2836002610c07565b5f610ca783838080601f0160208091040260200160405190810160405280939291908181526020018383808284375f9201919091525061126b92505050565b90505f610cca825f01518360200151846040015185606001518660a0015161136c565b5f54604051630a8e0d6f60e11b815291925061010090046001600160a01b03169063151c1ade90610cff908490600401611b19565b5f604051808303815f87803b158015610d16575f5ffd5b505af1158015610d28573d5f5f3e3d5ffd5b50505050505050505050565b60605f610d7584848080601f0160208091040260200160405190810160405280939291908181526020018383808284375f9201919091525061126b92505050565b80519091506001600160a01b03161580610d9a575060208101516001600160a01b0316155b15610db857604051630f58648f60e01b815260040160405180910390fd5b5f610dd9825f01518360200151846040015185606001518660a0015161136c565b90505f610de78260a0902090565b60408051600480825260a08201909252919250816020015b60408051606080820183525f808352602083015291810191909152815260200190600190039081610dff579050506040805160608101825285516001600160a01b0390811682525f602083018190526001548451921660248301526044820152929650919082019060640160408051601f198184030181529190526020810180516001600160e01b031663095ea7b360e01b1790529052845185905f90610ea857610ea86119ad565b60200260200101819052508260e0015115611007575f610ec88289610ab1565b90506001600160801b0381165f610edf858b6109cf565b6040805160608101825288516001600160a01b0390811682525f602083015260015483519116602482015260448101849052929350919082019060640160408051601f198184030181529190526020810180516001600160e01b031663095ea7b360e01b1790529052875188906001908110610f5d57610f5d6119ad565b6020026020010181905250604051806060016040528060015f9054906101000a90046001600160a01b03166001600160a01b031681526020015f8152602001865f858e604051602401610fb39493929190611b27565b60408051601f198184030181529190526020810180516001600160e01b03166320b76e8160e01b1790529052875188906002908110610ff457610ff46119ad565b60200260200101819052505050506111cd565b8260c001511561107f576040516381cbe69160e01b81526001600160a01b0388811660048301528916906381cbe69190602401602060405180830381865afa158015611055573d5f5f3e3d5ffd5b505050506040513d601f19601f820116820180604052508101906110799190611927565b60808401525b82608001515f036110a3576040516305112ab160e41b815260040160405180910390fd5b6040805160608101825284516001600160a01b0390811682525f6020830152600154608087015184519190921660248201526044810191909152909182019060640160408051601f198184030181529190526020810180516001600160e01b031663095ea7b360e01b1790529052845185906001908110611126576111266119ad565b6020026020010181905250604051806060016040528060015f9054906101000a90046001600160a01b03166001600160a01b031681526020015f81526020018385608001515f8b6040516024016111809493929190611b27565b60408051601f198184030181529190526020810180516001600160e01b03166320b76e8160e01b17905290528451859060029081106111c1576111c16119ad565b60200260200101819052505b6040805160608101825284516001600160a01b0390811682525f602083018190526001548451921660248301526044820152909182019060640160408051601f198184030181529190526020810180516001600160e01b031663095ea7b360e01b1790529052845185906003908110611248576112486119ad565b6020026020010181905250505050949350505050565b5f5f610ba1836001610c07565b60408051610100810182525f80825260208201819052918101829052606081018290526080810182905260a0810182905260c0810182905260e08101829052906112b58382610b2d565b90505f6112c3846014610b2d565b90505f6112d1856028610b2d565b90505f6112df86603c610b2d565b90505f6112eb876114a6565b90505f6112f98860706114ae565b90505f6113078960906113ea565b90505f6113158a60916113ea565b60408051610100810182526001600160a01b039a8b168152988a1660208a01529689169688019690965250929095166060850152608084015260a083019390935291151560c082015290151560e082015292915050565b6040805160a0810182525f80825260208201819052918101829052606081018290526080810191909152506040805160a0810182526001600160a01b0396871681529486166020860152928516928401929092529092166060820152608081019190915290565b6113dd815f610c5c565b6113e7815f610bb6565b50565b5f8282815181106113fd576113fd6119ad565b01602001516001600160f81b0319161515905092915050565b5f6104ff611425600185611952565b611432620f424085611952565b86919061150b565b5f7f8ce092d4869bdfa1a1ce579ddddb2b776c39ace5d7b5d7e70e97ece2a78f4f9b8260405160200161148992919091825260601b6bffffffffffffffffffffffff1916602082015260340190565b604051602081830303815290604052805190602001209050919050565b5f6104818260505b5f6114ba826020611952565b835110156115025760405162461bcd60e51b8152602060048201526015602482015274746f55696e743235365f6f75744f66426f756e647360581b6044820152606401610b7d565b50016020015190565b5f816115186001826119c1565b6115228587611b68565b61152c9190611952565b6104ff9190611b7f565b634e487b7160e01b5f52604160045260245ffd5b5f82601f830112611559575f5ffd5b813567ffffffffffffffff81111561157357611573611536565b604051601f8201601f19908116603f0116810167ffffffffffffffff811182821017156115a2576115a2611536565b6040528181528382016020018510156115b9575f5ffd5b816020850160208301375f918101602001919091529392505050565b5f602082840312156115e5575f5ffd5b813567ffffffffffffffff8111156115fb575f5ffd5b6104ff8482850161154a565b80356001600160a01b038116811461161d575f5ffd5b919050565b5f5f60408385031215611633575f5ffd5b61163c83611607565b9150602083013567ffffffffffffffff811115611657575f5ffd5b6116638582860161154a565b9150509250929050565b5f5f83601f84011261167d575f5ffd5b50813567ffffffffffffffff811115611694575f5ffd5b6020830191508360208285010111156116ab575f5ffd5b9250929050565b5f5f5f5f606085870312156116c5575f5ffd5b6116ce85611607565b93506116dc60208601611607565b9250604085013567ffffffffffffffff8111156116f7575f5ffd5b6117038782880161166d565b95989497509550505050565b5f6020828403121561171f575f5ffd5b61172882611607565b9392505050565b5f5f60408385031215611740575f5ffd5b8235915061175060208401611607565b90509250929050565b5f81518084528060208401602086015e5f602082860101526020601f19601f83011685010191505092915050565b5f602082016020835280845180835260408501915060408160051b8601019250602086015f5b8281101561180857868503603f19018452815180516001600160a01b03168652602080820151908701526040908101516060918701829052906117f290870182611759565b95505060209384019391909101906001016117ad565b50929695505050505050565b5f5f60208385031215611825575f5ffd5b823567ffffffffffffffff81111561183b575f5ffd5b6118478582860161166d565b90969095509350505050565b602081525f6117286020830184611759565b602081016003831061188557634e487b7160e01b5f52602160045260245ffd5b91905290565b5f5f82840360c081121561189d575f5ffd5b60a08112156118aa575f5ffd5b5060405160a0810167ffffffffffffffff811182821017156118ce576118ce611536565b6040526118da84611607565b81526118e860208501611607565b60208201526118f960408501611607565b604082015261190a60608501611607565b606082015260808481013590820152915061175060a08401611607565b5f60208284031215611937575f5ffd5b5051919050565b634e487b7160e01b5f52601160045260245ffd5b808201808211156104815761048161193e565b6001600160a01b038581168252841660208201526060604082018190528101829052818360808301375f818301608090810191909152601f909201601f191601019392505050565b634e487b7160e01b5f52603260045260245ffd5b818103818111156104815761048161193e565b80516001600160801b038116811461161d575f5ffd5b5f60c08284031280156119fb575f5ffd5b5060405160c0810167ffffffffffffffff81118282101715611a1f57611a1f611536565b604052611a2b836119d4565b8152611a39602084016119d4565b6020820152611a4a604084016119d4565b6040820152611a5b606084016119d4565b6060820152611a6c608084016119d4565b6080820152611a7d60a084016119d4565b60a08201529392505050565b5f5f5f60608486031215611a9b575f5ffd5b83519250611aab602085016119d4565b9150611ab9604085016119d4565b90509250925092565b5f60018201611ad357611ad361193e565b5060010190565b80516001600160a01b03908116835260208083015182169084015260408083015182169084015260608083015190911690830152608090810151910152565b60a081016104818284611ada565b611b318186611ada565b60a081019390935260c08301919091526001600160a01b031660e082015261012061010082018190525f9082015261014001919050565b80820281158282048414176104815761048161193e565b5f82611b9957634e487b7160e01b5f52601260045260245ffd5b50049056fea164736f6c634300081e000a","linkReferences":{}},"methodIdentifiers":{"asset()":"38d52e0f","build(address,address,bytes)":"3b5896bc","decodeUsePrevHookAmount(bytes)":"e7745517","deriveShareBalance(bytes32,address)":"faf33140","executionNonce()":"01bd43ef","getCollateralTokenAddress(bytes)":"87ef841a","getCollateralTokenBalance(address,bytes)":"867bb72c","getLoanTokenAddress(bytes)":"00f5f8b4","getLoanTokenBalance(address,bytes)":"03341d66","getOutAmount(address)":"81cbe691","hookType()":"e445e7dd","inspect(bytes)":"8c4313c1","lastCaller()":"2113522a","morpho()":"d8fbc833","morphoBase()":"e512cf16","morphoInterface()":"f9837896","morphoStaticTyping()":"b263ee3e","postExecute(address,address,bytes)":"05b4fe91","postExecuteMutex()":"60b5be29","preExecute(address,address,bytes)":"2ae2fe3d","preExecuteMutex()":"84542a24","resetExecutionState(address)":"d06a1e89","setExecutionContext(address)":"14cb37cf","setOutAmount(uint256,address)":"1f264619","sharesToAssets((address,address,address,address,uint256),address)":"eb55e8cc","spToken()":"8e148776","subType()":"cf0a6181","subtype()":"5492e677","usedShares()":"685a943c"},"id":357}