{"abi":[{"type":"constructor","inputs":[{"name":"router_","type":"address","internalType":"address"}],"stateMutability":"nonpayable"},{"type":"function","name":"REDEEM_IBT_FOR_ASSET","inputs":[],"outputs":[{"name":"","type":"bytes1","internalType":"bytes1"}],"stateMutability":"view"},{"type":"function","name":"REDEEM_PT_FOR_ASSET","inputs":[],"outputs":[{"name":"","type":"bytes1","internalType":"bytes1"}],"stateMutability":"view"},{"type":"function","name":"ROUTER","inputs":[],"outputs":[{"name":"","type":"address","internalType":"address"}],"stateMutability":"view"},{"type":"function","name":"SELECTOR","inputs":[],"outputs":[{"name":"","type":"bytes4","internalType":"bytes4"}],"stateMutability":"view"},{"type":"function","name":"asset","inputs":[],"outputs":[{"name":"","type":"address","internalType":"address"}],"stateMutability":"view"},{"type":"function","name":"build","inputs":[{"name":"prevHook","type":"address","internalType":"address"},{"name":"account","type":"address","internalType":"address"},{"name":"hookData","type":"bytes","internalType":"bytes"}],"outputs":[{"name":"executions","type":"tuple[]","internalType":"struct Execution[]","components":[{"name":"target","type":"address","internalType":"address"},{"name":"value","type":"uint256","internalType":"uint256"},{"name":"callData","type":"bytes","internalType":"bytes"}]}],"stateMutability":"view"},{"type":"function","name":"decodeUsePrevHookAmount","inputs":[{"name":"data","type":"bytes","internalType":"bytes"}],"outputs":[{"name":"","type":"bool","internalType":"bool"}],"stateMutability":"pure"},{"type":"function","name":"executionNonce","inputs":[],"outputs":[{"name":"","type":"uint256","internalType":"uint256"}],"stateMutability":"view"},{"type":"function","name":"getOutAmount","inputs":[{"name":"caller","type":"address","internalType":"address"}],"outputs":[{"name":"","type":"uint256","internalType":"uint256"}],"stateMutability":"view"},{"type":"function","name":"hookType","inputs":[],"outputs":[{"name":"","type":"uint8","internalType":"enum ISuperHook.HookType"}],"stateMutability":"view"},{"type":"function","name":"inspect","inputs":[{"name":"data","type":"bytes","internalType":"bytes"}],"outputs":[{"name":"","type":"bytes","internalType":"bytes"}],"stateMutability":"pure"},{"type":"function","name":"lastCaller","inputs":[],"outputs":[{"name":"","type":"address","internalType":"address"}],"stateMutability":"view"},{"type":"function","name":"postExecute","inputs":[{"name":"prevHook","type":"address","internalType":"address"},{"name":"account","type":"address","internalType":"address"},{"name":"data","type":"bytes","internalType":"bytes"}],"outputs":[],"stateMutability":"nonpayable"},{"type":"function","name":"postExecuteMutex","inputs":[],"outputs":[{"name":"","type":"bool","internalType":"bool"}],"stateMutability":"view"},{"type":"function","name":"preExecute","inputs":[{"name":"prevHook","type":"address","internalType":"address"},{"name":"account","type":"address","internalType":"address"},{"name":"data","type":"bytes","internalType":"bytes"}],"outputs":[],"stateMutability":"nonpayable"},{"type":"function","name":"preExecuteMutex","inputs":[],"outputs":[{"name":"","type":"bool","internalType":"bool"}],"stateMutability":"view"},{"type":"function","name":"resetExecutionState","inputs":[{"name":"caller","type":"address","internalType":"address"}],"outputs":[],"stateMutability":"nonpayable"},{"type":"function","name":"setExecutionContext","inputs":[{"name":"caller","type":"address","internalType":"address"}],"outputs":[],"stateMutability":"nonpayable"},{"type":"function","name":"setOutAmount","inputs":[{"name":"_outAmount","type":"uint256","internalType":"uint256"},{"name":"caller","type":"address","internalType":"address"}],"outputs":[],"stateMutability":"nonpayable"},{"type":"function","name":"spToken","inputs":[],"outputs":[{"name":"","type":"address","internalType":"address"}],"stateMutability":"view"},{"type":"function","name":"subType","inputs":[],"outputs":[{"name":"","type":"bytes32","internalType":"bytes32"}],"stateMutability":"view"},{"type":"function","name":"subtype","inputs":[],"outputs":[{"name":"","type":"bytes32","internalType":"bytes32"}],"stateMutability":"view"},{"type":"function","name":"usedShares","inputs":[],"outputs":[{"name":"","type":"uint256","internalType":"uint256"}],"stateMutability":"view"},{"type":"error","name":"ADDRESS_NOT_VALID","inputs":[]},{"type":"error","name":"AMOUNT_NOT_VALID","inputs":[]},{"type":"error","name":"CANNOT_SET_OUT_AMOUNT","inputs":[]},{"type":"error","name":"INCOMPLETE_HOOK_EXECUTION","inputs":[]},{"type":"error","name":"INVALID_ASSET","inputs":[]},{"type":"error","name":"INVALID_COMMAND","inputs":[]},{"type":"error","name":"INVALID_MIN_ASSETS","inputs":[]},{"type":"error","name":"INVALID_PT","inputs":[]},{"type":"error","name":"INVALID_RECIPIENT","inputs":[]},{"type":"error","name":"NOT_AUTHORIZED","inputs":[]},{"type":"error","name":"POST_EXECUTE_ALREADY_CALLED","inputs":[]},{"type":"error","name":"PRE_EXECUTE_ALREADY_CALLED","inputs":[]},{"type":"error","name":"UNAUTHORIZED_CALLER","inputs":[]}],"bytecode":{"object":"0x60c060405234801561000f575f5ffd5b506040516119eb3803806119eb83398101604081905261002e916100af565b6040805180820190915260048152631415165560e21b6020909101525f805460ff191690557fb86a7e98c9c656516a060ac5bc14d0453b037386adfb5f9f2ae12ee7a543e1b46080526001600160a01b03811661009e57604051630f58648f60e01b815260040160405180910390fd5b6001600160a01b031660a0526100dc565b5f602082840312156100bf575f5ffd5b81516001600160a01b03811681146100d5575f5ffd5b9392505050565b60805160a0516118e061010b5f395f81816102250152610b8e01525f818161027b015261032501526118e05ff3fe608060405234801561000f575f5ffd5b5060043610610148575f3560e01c806360b5be29116100bf578063cf0a618111610079578063cf0a618114610320578063cf48b54214610347578063d06a1e891461036b578063e2302d141461037e578063e445e7dd14610389578063e7745517146103a2575f5ffd5b806360b5be291461029f578063685a943c146102c157806381cbe691146102c957806384542a24146102dc5780638c4313c1146102ee5780638e1487761461030e575f5ffd5b80632113522a116101105780632113522a146101e35780632ae2fe3d1461020d57806332fe7b261461022057806338d52e0f146102475780633b5896bc146102595780635492e67714610279575f5ffd5b806301bd43ef1461014c578063053c238d1461016857806305b4fe91146101a857806314cb37cf146101bd5780631f264619146101d0575b5f5ffd5b61015560035c81565b6040519081526020015b60405180910390f35b61018f7f24856bc3cddb0b75c4dd6e2501472e6df224cd4fbd15d402737681bfb656feaf81565b6040516001600160e01b0319909116815260200161015f565b6101bb6101b63660046114f9565b6103b5565b005b6101bb6101cb366004611556565b61042f565b6101bb6101de366004611576565b610450565b6101f56001600160a01b0360045c1681565b6040516001600160a01b03909116815260200161015f565b6101bb61021b3660046114f9565b6104a9565b6101f57f000000000000000000000000000000000000000000000000000000000000000081565b6101f56001600160a01b0360025c1681565b61026c6102673660046114f9565b61051c565b60405161015f91906115ce565b7f0000000000000000000000000000000000000000000000000000000000000000610155565b6102b160ff600160a81b60025c041681565b604051901515815260200161015f565b6101555f5c81565b6101556102d7366004611556565b610735565b6102b160ff600160a01b60025c041681565b6103016102fc36600461165b565b61074d565b60405161015f919061169a565b6101f56001600160a01b0360015c1681565b6101557f000000000000000000000000000000000000000000000000000000000000000081565b610352600760f81b81565b6040516001600160f81b0319909116815260200161015f565b6101bb610379366004611556565b6107bf565b610352600160fb1b81565b5f546103959060ff1681565b60405161015f91906116ac565b6102b16103b03660046116e6565b610811565b336001600160a01b038416146103de5760405163e15e56c960e01b815260040160405180910390fd5b5f6103e88461081d565b90506103f381610830565b156104115760405163945b63f560e01b815260040160405180910390fd5b61041c81600161083d565b61042885858585610853565b5050505050565b61043881610880565b50336004805c6001600160a01b0319168217905d5050565b5f61045a8261081d565b9050610465816108b2565b80610474575061047481610830565b156104925760405163441e4c7360e11b815260040160405180910390fd5b5f61049e8260016108bb565b905083815d50505050565b336001600160a01b038416146104d25760405163e15e56c960e01b815260040160405180910390fd5b5f6104dc8461081d565b90506104e7816108b2565b1561050557604051630bbb04d960e11b815260040160405180910390fd5b610510816001610910565b6104288585858561091c565b60605f61052b8686868661092a565b90508051600261053b91906117ad565b67ffffffffffffffff811115610553576105536116d2565b60405190808252806020026020018201604052801561059f57816020015b60408051606080820183525f8083526020830152918101919091528152602001906001900390816105715790505b5091506040518060600160405280306001600160a01b031681526020015f8152602001306001600160a01b0316632ae2fe3d898989896040516024016105e894939291906117c0565b604051602081830303815290604052915060e01b6020820180516001600160e01b038381831617835250505050815250825f8151811061062a5761062a611808565b60209081029190910101525f5b815181101561068b5781818151811061065257610652611808565b60200260200101518382600161066891906117ad565b8151811061067857610678611808565b6020908102919091010152600101610637565b506040518060600160405280306001600160a01b031681526020015f8152602001306001600160a01b03166305b4fe91898989896040516024016106d294939291906117c0565b604051602081830303815290604052915060e01b6020820180516001600160e01b0383818316178352505050508152508260018451610711919061181c565b8151811061072157610721611808565b602002602001018190525050949350505050565b5f6107476107428361081d565b610bec565b92915050565b60605f61075a8484610bf9565b90508060200151815f015182604001516040516020016107a793929190606093841b6bffffffffffffffffffffffff19908116825292841b83166014820152921b166028820152603c0190565b60405160208183030381529060405291505092915050565b5f6107c98261081d565b90506107d4816108b2565b15806107e657506107e481610830565b155b1561080457604051634bd439b560e11b815260040160405180910390fd5b61080d81610e82565b5050565b5f61074782609c610e99565b5f5f61082883610ec5565b5c9392505050565b5f5f6108288360036108bb565b5f6108498360036108bb565b905081815d505050565b61087a61085f84610735565b61086a848487610f31565b610874919061181c565b8461102e565b50505050565b5f6003805c90826108908361182f565b9190505d505f61089f83610ec5565b905060035c80825d505060035c92915050565b5f5f6108288360025b604080517fc41a07c57a776f6217c6d4278dfe7a5d114742afe55627ce458c2802aa4d703460208083019190915281830194909452606080820193909352815180820390930183526080019052805191012090565b5f6108498360026108bb565b61087a610874838386610f31565b60605f6109378484610bf9565b60408101519091506001600160a01b03166109655760405163290802d360e11b815260040160405180910390fd5b60c08101516001600160f81b031916600760f81b14801590610999575060c08101516001600160f81b031916600160fb1b14155b156109b757604051637ee9fb1960e01b815260040160405180910390fd5b8060a0015115610a2f576040516381cbe69160e01b81526001600160a01b0386811660048301528716906381cbe69190602401602060405180830381865afa158015610a05573d5f5f3e3d5ffd5b505050506040513d601f19601f82011682018060405250810190610a299190611847565b60808201525b80608001515f03610a53576040516305112ab160e41b815260040160405180910390fd5b60408051600180825281830190925290816020015b60408051606080820183525f808352602083015291810191909152815260200190600190039081610a685790505060c08201519092506060906001600160f81b03191660f960f81b01610afe5760208201516001600160a01b0316610ae0576040516333bb44cb60e21b815260040160405180910390fd5b610af7826020015183608001518460400151611046565b9050610b81565b60c08201516001600160f81b031916601f60fb1b01610b815781516001600160a01b0316610b3f5760405163569d85b160e11b815260040160405180910390fd5b81606001515f03610b6357604051636981bc8f60e01b815260040160405180910390fd5b610b7e825f0151836080015184604001518560600151611186565b90505b60405180606001604052807f00000000000000000000000000000000000000000000000000000000000000006001600160a01b031681526020015f815260200182815250835f81518110610bd757610bd7611808565b60200260200101819052505050949350505050565b5f5f6108288360016108bb565b6040805160e0810182525f80825260208201819052918101829052606081018290526080810182905260a0810182905260c08101919091525f610c7384848080601f0160208091040260200160405190810160405280939291908181526020018383808284375f92019190915250602092506112ce915050565b90505f610cb785858080601f0160208091040260200160405190810160405280939291908181526020018383808284375f92019190915250603492506112ce915050565b90505f610cfb86868080601f0160208091040260200160405190810160405280939291908181526020018383808284375f92019190915250604892506112ce915050565b90505f610d3f87878080601f0160208091040260200160405190810160405280939291908181526020018383808284375f92019190915250605c9250611337915050565b90505f610d8388888080601f0160208091040260200160405190810160405280939291908181526020018383808284375f92019190915250607c9250611337915050565b90505f610dc789898080601f0160208091040260200160405190810160405280939291908181526020018383808284375f92019190915250609c9250610e99915050565b90505f610e0e8a8a8080601f0160208091040260200160405190810160405280939291908181526020018383808284375f92019190915250609d9250600191506113949050565b90505f815f81518110610e2357610e23611808565b602091018101516040805160e0810182526001600160a01b039a8b1681529a8a16928b019290925296909716968801969096525060608601929092526080850152151560a08401526001600160f81b03191660c0830152509392505050565b610e8c815f610910565b610e96815f61083d565b50565b5f828281518110610eac57610eac611808565b01602001516001600160f81b0319161515905092915050565b5f7f8ce092d4869bdfa1a1ce579ddddb2b776c39ace5d7b5d7e70e97ece2a78f4f9b82604051602001610f1492919091825260601b6bffffffffffffffffffffffff1916602082015260340190565b604051602081830303815290604052805190602001209050919050565b5f5f610f7485858080601f0160208091040260200160405190810160405280939291908181526020018383808284375f92019190915250602092506112ce915050565b90505f610fb886868080601f0160208091040260200160405190810160405280939291908181526020018383808284375f92019190915250604892506112ce915050565b6040516370a0823160e01b81526001600160a01b038083166004830152919250908316906370a0823190602401602060405180830381865afa158015611000573d5f5f3e3d5ffd5b505050506040513d601f19601f820116820180604052508101906110249190611847565b9695505050505050565b5f6110388261081d565b90505f61049e8260016108bb565b6040805160018082528183019092526060915f9190602082018180368337019050509050600760f81b815f8151811061108157611081611808565b60200101906001600160f81b03191690815f1a9053506040805160018082528183019092525f91816020015b60608152602001906001900390816110ad57905050604080516001600160a01b03808a1660208301529181018890529086166060820152909150608001604051602081830303815290604052815f8151811061110b5761110b611808565b60200260200101819052507f24856bc3cddb0b75c4dd6e2501472e6df224cd4fbd15d402737681bfb656feaf828260405160240161114a92919061185e565b60408051601f198184030181529190526020810180516001600160e01b03166001600160e01b0319909316929092179091529695505050505050565b6040805160018082528183019092526060915f9190602082018180368337019050509050600860f81b815f815181106111c1576111c1611808565b60200101906001600160f81b03191690815f1a9053506040805160018082528183019092525f91816020015b60608152602001906001900390816111ed57905050604080516001600160a01b03808b16602083015291810189905290871660608201526080810186905290915060a001604051602081830303815290604052815f8151811061125257611252611808565b60200260200101819052507f24856bc3cddb0b75c4dd6e2501472e6df224cd4fbd15d402737681bfb656feaf828260405160240161129192919061185e565b60408051601f198184030181529190526020810180516001600160e01b03166001600160e01b031990931692909217909152979650505050505050565b5f6112da8260146117ad565b835110156113275760405162461bcd60e51b8152602060048201526015602482015274746f416464726573735f6f75744f66426f756e647360581b60448201526064015b60405180910390fd5b500160200151600160601b900490565b5f6113438260206117ad565b8351101561138b5760405162461bcd60e51b8152602060048201526015602482015274746f55696e743235365f6f75744f66426f756e647360581b604482015260640161131e565b50016020015190565b60608182601f0110156113da5760405162461bcd60e51b815260206004820152600e60248201526d736c6963655f6f766572666c6f7760901b604482015260640161131e565b6113e482846117ad565b845110156114285760405162461bcd60e51b8152602060048201526011602482015270736c6963655f6f75744f66426f756e647360781b604482015260640161131e565b6060821580156114465760405191505f825260208201604052611490565b6040519150601f8416801560200281840101858101878315602002848b0101015b8183101561147f578051835260209283019201611467565b5050858452601f01601f1916604052505b50949350505050565b80356001600160a01b03811681146114af575f5ffd5b919050565b5f5f83601f8401126114c4575f5ffd5b50813567ffffffffffffffff8111156114db575f5ffd5b6020830191508360208285010111156114f2575f5ffd5b9250929050565b5f5f5f5f6060858703121561150c575f5ffd5b61151585611499565b935061152360208601611499565b9250604085013567ffffffffffffffff81111561153e575f5ffd5b61154a878288016114b4565b95989497509550505050565b5f60208284031215611566575f5ffd5b61156f82611499565b9392505050565b5f5f60408385031215611587575f5ffd5b8235915061159760208401611499565b90509250929050565b5f81518084528060208401602086015e5f602082860101526020601f19601f83011685010191505092915050565b5f602082016020835280845180835260408501915060408160051b8601019250602086015f5b8281101561164f57868503603f19018452815180516001600160a01b0316865260208082015190870152604090810151606091870182905290611639908701826115a0565b95505060209384019391909101906001016115f4565b50929695505050505050565b5f5f6020838503121561166c575f5ffd5b823567ffffffffffffffff811115611682575f5ffd5b61168e858286016114b4565b90969095509350505050565b602081525f61156f60208301846115a0565b60208101600383106116cc57634e487b7160e01b5f52602160045260245ffd5b91905290565b634e487b7160e01b5f52604160045260245ffd5b5f602082840312156116f6575f5ffd5b813567ffffffffffffffff81111561170c575f5ffd5b8201601f8101841361171c575f5ffd5b803567ffffffffffffffff811115611736576117366116d2565b604051601f8201601f19908116603f0116810167ffffffffffffffff81118282101715611765576117656116d2565b60405281815282820160200186101561177c575f5ffd5b816020840160208301375f91810160200191909152949350505050565b634e487b7160e01b5f52601160045260245ffd5b8082018082111561074757610747611799565b6001600160a01b038581168252841660208201526060604082018190528101829052818360808301375f818301608090810191909152601f909201601f191601019392505050565b634e487b7160e01b5f52603260045260245ffd5b8181038181111561074757610747611799565b5f6001820161184057611840611799565b5060010190565b5f60208284031215611857575f5ffd5b5051919050565b604081525f61187060408301856115a0565b828103602084015280845180835260208301915060208160051b840101602087015f5b838110156118c557601f198684030185526118af8383516115a0565b6020958601959093509190910190600101611893565b50909897505050505050505056fea164736f6c634300081e000a","linkReferences":{}},"methodIdentifiers":{"REDEEM_IBT_FOR_ASSET()":"cf48b542","REDEEM_PT_FOR_ASSET()":"e2302d14","ROUTER()":"32fe7b26","SELECTOR()":"053c238d","asset()":"38d52e0f","build(address,address,bytes)":"3b5896bc","decodeUsePrevHookAmount(bytes)":"e7745517","executionNonce()":"01bd43ef","getOutAmount(address)":"81cbe691","hookType()":"e445e7dd","inspect(bytes)":"8c4313c1","lastCaller()":"2113522a","postExecute(address,address,bytes)":"05b4fe91","postExecuteMutex()":"60b5be29","preExecute(address,address,bytes)":"2ae2fe3d","preExecuteMutex()":"84542a24","resetExecutionState(address)":"d06a1e89","setExecutionContext(address)":"14cb37cf","setOutAmount(uint256,address)":"1f264619","spToken()":"8e148776","subType()":"cf0a6181","subtype()":"5492e677","usedShares()":"685a943c"},"id":374}