{"abi":[{"type":"constructor","inputs":[{"name":"spokePoolV3_","type":"address","internalType":"address"},{"name":"validator_","type":"address","internalType":"address"}],"stateMutability":"nonpayable"},{"type":"function","name":"asset","inputs":[],"outputs":[{"name":"","type":"address","internalType":"address"}],"stateMutability":"view"},{"type":"function","name":"build","inputs":[{"name":"prevHook","type":"address","internalType":"address"},{"name":"account","type":"address","internalType":"address"},{"name":"hookData","type":"bytes","internalType":"bytes"}],"outputs":[{"name":"executions","type":"tuple[]","internalType":"struct Execution[]","components":[{"name":"target","type":"address","internalType":"address"},{"name":"value","type":"uint256","internalType":"uint256"},{"name":"callData","type":"bytes","internalType":"bytes"}]}],"stateMutability":"view"},{"type":"function","name":"decodeUsePrevHookAmount","inputs":[{"name":"data","type":"bytes","internalType":"bytes"}],"outputs":[{"name":"","type":"bool","internalType":"bool"}],"stateMutability":"pure"},{"type":"function","name":"executionNonce","inputs":[],"outputs":[{"name":"","type":"uint256","internalType":"uint256"}],"stateMutability":"view"},{"type":"function","name":"getOutAmount","inputs":[{"name":"caller","type":"address","internalType":"address"}],"outputs":[{"name":"","type":"uint256","internalType":"uint256"}],"stateMutability":"view"},{"type":"function","name":"hookType","inputs":[],"outputs":[{"name":"","type":"uint8","internalType":"enum ISuperHook.HookType"}],"stateMutability":"view"},{"type":"function","name":"inspect","inputs":[{"name":"data","type":"bytes","internalType":"bytes"}],"outputs":[{"name":"","type":"bytes","internalType":"bytes"}],"stateMutability":"pure"},{"type":"function","name":"lastCaller","inputs":[],"outputs":[{"name":"","type":"address","internalType":"address"}],"stateMutability":"view"},{"type":"function","name":"postExecute","inputs":[{"name":"prevHook","type":"address","internalType":"address"},{"name":"account","type":"address","internalType":"address"},{"name":"data","type":"bytes","internalType":"bytes"}],"outputs":[],"stateMutability":"nonpayable"},{"type":"function","name":"postExecuteMutex","inputs":[],"outputs":[{"name":"","type":"bool","internalType":"bool"}],"stateMutability":"view"},{"type":"function","name":"preExecute","inputs":[{"name":"prevHook","type":"address","internalType":"address"},{"name":"account","type":"address","internalType":"address"},{"name":"data","type":"bytes","internalType":"bytes"}],"outputs":[],"stateMutability":"nonpayable"},{"type":"function","name":"preExecuteMutex","inputs":[],"outputs":[{"name":"","type":"bool","internalType":"bool"}],"stateMutability":"view"},{"type":"function","name":"resetExecutionState","inputs":[{"name":"caller","type":"address","internalType":"address"}],"outputs":[],"stateMutability":"nonpayable"},{"type":"function","name":"setExecutionContext","inputs":[{"name":"caller","type":"address","internalType":"address"}],"outputs":[],"stateMutability":"nonpayable"},{"type":"function","name":"setOutAmount","inputs":[{"name":"_outAmount","type":"uint256","internalType":"uint256"},{"name":"caller","type":"address","internalType":"address"}],"outputs":[],"stateMutability":"nonpayable"},{"type":"function","name":"spToken","inputs":[],"outputs":[{"name":"","type":"address","internalType":"address"}],"stateMutability":"view"},{"type":"function","name":"spokePoolV3","inputs":[],"outputs":[{"name":"","type":"address","internalType":"address"}],"stateMutability":"view"},{"type":"function","name":"subType","inputs":[],"outputs":[{"name":"","type":"bytes32","internalType":"bytes32"}],"stateMutability":"view"},{"type":"function","name":"subtype","inputs":[],"outputs":[{"name":"","type":"bytes32","internalType":"bytes32"}],"stateMutability":"view"},{"type":"function","name":"usedShares","inputs":[],"outputs":[{"name":"","type":"uint256","internalType":"uint256"}],"stateMutability":"view"},{"type":"error","name":"ADDRESS_NOT_VALID","inputs":[]},{"type":"error","name":"AMOUNT_NOT_VALID","inputs":[]},{"type":"error","name":"CANNOT_SET_OUT_AMOUNT","inputs":[]},{"type":"error","name":"DATA_NOT_VALID","inputs":[]},{"type":"error","name":"INCOMPLETE_HOOK_EXECUTION","inputs":[]},{"type":"error","name":"NOT_AUTHORIZED","inputs":[]},{"type":"error","name":"POST_EXECUTE_ALREADY_CALLED","inputs":[]},{"type":"error","name":"PRE_EXECUTE_ALREADY_CALLED","inputs":[]},{"type":"error","name":"UNAUTHORIZED_CALLER","inputs":[]}],"bytecode":{"object":"0x60e060405234801561000f575f5ffd5b50604051611dba380380611dba83398101604081905261002e916100e6565b60408051808201909152600681526542726964676560d01b6020909101525f805460ff191690557f7aa5ae620294318af92bf4e2b2a729646c932a80312a5fa630da993a2ef5cc106080526001600160a01b038216158061009657506001600160a01b038116155b156100b457604051630f58648f60e01b815260040160405180910390fd5b6001600160a01b0391821660a0521660c052610117565b80516001600160a01b03811681146100e1575f5ffd5b919050565b5f5f604083850312156100f7575f5ffd5b610100836100cb565b915061010e602084016100cb565b90509250929050565b60805160a05160c051611c646101565f395f610f0601525f81816101f601528181610ddd015261102701525f818161021a01526102c40152611c645ff3fe608060405234801561000f575f5ffd5b5060043610610127575f3560e01c806360b5be29116100a95780638e1487761161006e5780638e148776146102ad578063cf0a6181146102bf578063d06a1e89146102e6578063e445e7dd146102f9578063e774551714610312575f5ffd5b806360b5be291461023e578063685a943c1461026057806381cbe6911461026857806384542a241461027b5780638c4313c11461028d575f5ffd5b80632ae2fe3d116100ef5780632ae2fe3d146101ac57806338d52e0f146101bf5780633b5896bc146101d15780633c02c770146101f15780635492e67714610218575f5ffd5b806301bd43ef1461012b57806305b4fe911461014757806314cb37cf1461015c5780631f2646191461016f5780632113522a14610182575b5f5ffd5b61013460035c81565b6040519081526020015b60405180910390f35b61015a610155366004611505565b610325565b005b61015a61016a366004611565565b610393565b61015a61017d366004611580565b6103b4565b6101946001600160a01b0360045c1681565b6040516001600160a01b03909116815260200161013e565b61015a6101ba366004611505565b61040d565b6101946001600160a01b0360025c1681565b6101e46101df366004611505565b610474565b60405161013e91906115dc565b6101947f000000000000000000000000000000000000000000000000000000000000000081565b7f0000000000000000000000000000000000000000000000000000000000000000610134565b61025060ff600160a81b60025c041681565b604051901515815260200161013e565b6101345f5c81565b610134610276366004611565565b61068c565b61025060ff600160a01b60025c041681565b6102a061029b366004611669565b6106a4565b60405161013e91906116a7565b6101946001600160a01b0360015c1681565b6101347f000000000000000000000000000000000000000000000000000000000000000081565b61015a6102f4366004611565565b6107fe565b5f546103059060ff1681565b60405161013e91906116b9565b610250610320366004611749565b610850565b336001600160a01b0384161461034e5760405163e15e56c960e01b815260040160405180910390fd5b5f6103588461085c565b90506103638161086f565b156103815760405163945b63f560e01b815260040160405180910390fd5b61038c81600161087c565b5050505050565b61039c81610892565b50336004805c6001600160a01b0319168217905d5050565b5f6103be8261085c565b90506103c9816108c4565b806103d857506103d88161086f565b156103f65760405163441e4c7360e11b815260040160405180910390fd5b5f6104028260016108cd565b905083815d50505050565b336001600160a01b038416146104365760405163e15e56c960e01b815260040160405180910390fd5b5f6104408461085c565b905061044b816108c4565b1561046957604051630bbb04d960e11b815260040160405180910390fd5b61038c816001610922565b60605f6104838686868661092e565b90508051600261049391906117d6565b6001600160401b038111156104aa576104aa6116df565b6040519080825280602002602001820160405280156104f657816020015b60408051606080820183525f8083526020830152918101919091528152602001906001900390816104c85790505b5091506040518060600160405280306001600160a01b031681526020015f8152602001306001600160a01b0316632ae2fe3d8989898960405160240161053f94939291906117e9565b604051602081830303815290604052915060e01b6020820180516001600160e01b038381831617835250505050815250825f8151811061058157610581611831565b60209081029190910101525f5b81518110156105e2578181815181106105a9576105a9611831565b6020026020010151838260016105bf91906117d6565b815181106105cf576105cf611831565b602090810291909101015260010161058e565b506040518060600160405280306001600160a01b031681526020015f8152602001306001600160a01b03166305b4fe918989898960405160240161062994939291906117e9565b604051602081830303815290604052915060e01b6020820180516001600160e01b03838183161783525050505081525082600184516106689190611845565b8151811061067857610678611831565b602002602001018190525050949350505050565b5f61069e6106998361085c565b6110eb565b92915050565b60606106e783838080601f0160208091040260200160405190810160405280939291908181526020018383808284375f92019190915250602092506110f8915050565b61072884848080601f0160208091040260200160405190810160405280939291908181526020018383808284375f92019190915250603492506110f8915050565b61076985858080601f0160208091040260200160405190810160405280939291908181526020018383808284375f92019190915250604892506110f8915050565b6107aa86868080601f0160208091040260200160405190810160405280939291908181526020018383808284375f9201919091525060bc92506110f8915050565b6040516bffffffffffffffffffffffff19606095861b8116602083015293851b8416603482015291841b8316604883015290921b16605c820152607001604051602081830303815290604052905092915050565b5f6108088261085c565b9050610813816108c4565b158061082557506108238161086f565b155b1561084357604051634bd439b560e11b815260040160405180910390fd5b61084c81611161565b5050565b5f61069e8260d8611178565b5f5f610867836111a4565b5c9392505050565b5f5f6108678360036108cd565b5f6108888360036108cd565b905081815d505050565b5f6003805c90826108a283611858565b9190505d505f6108b1836111a4565b905060035c80825d505060035c92915050565b5f5f6108678360025b604080517fc41a07c57a776f6217c6d4278dfe7a5d114742afe55627ce458c2802aa4d703460208083019190915281830194909452606080820193909352815180820390930183526080019052805191012090565b5f6108888360026108cd565b606060d9821015610952576040516308aec44b60e31b815260040160405180910390fd5b60408051610180810182525f8082526020820181905291810182905260608082018390526080820183905260a0820183905260c0820183905260e08201839052610100820183905261012082018390526101408201929092526101608101919091526109f284848080601f0160208091040260200160405190810160405280939291908181526020018383808284375f9201829052509250611210915050565b8152604080516020601f8601819004810282018101909252848152610a339186908690819084018382808284375f92019190915250602092506110f8915050565b6001600160a01b031660208083019190915260408051601f8601839004830281018301909152848152610a829186908690819084018382808284375f92019190915250603492506110f8915050565b6001600160a01b031660408083019190915280516020601f8601819004810282018101909252848152610ad19186908690819084018382808284375f92019190915250604892506110f8915050565b6001600160a01b03166060820152604080516020601f8601819004810282018101909252848152610b1e9186908690819084018382808284375f92019190915250605c9250611210915050565b6080820152604080516020601f8601819004810282018101909252848152610b629186908690819084018382808284375f92019190915250607c9250611210915050565b60a0820152604080516020601f8601819004810282018101909252848152610ba69186908690819084018382808284375f92019190915250609c9250611210915050565b60c0820152604080516020601f8601819004810282018101909252848152610bea9186908690819084018382808284375f9201919091525060bc92506110f8915050565b6001600160a01b031660e0820152604080516020601f8601819004810282018101909252848152610c379186908690819084018382808284375f9201919091525060d0925061126d915050565b63ffffffff16610100820152604080516020601f8601819004810282018101909252848152610c829186908690819084018382808284375f9201919091525060d4925061126d915050565b63ffffffff16610120820152604080516020601f8601819004810282018101909252848152610ccd9186908690819084018382808284375f9201919091525060d89250611178915050565b1515610140820152604080516020601f8601819004810282018101909252848152610d1f9186908690819084018382808284375f9201919091525060d99250610d1a915082905087611845565b6112c9565b61016082015261014081015115610e8a576040516381cbe69160e01b81526001600160a01b0386811660048301525f91908816906381cbe69190602401602060405180830381865afa158015610d77573d5f5f3e3d5ffd5b505050506040513d601f19601f82011682018060405250810190610d9b9190611870565b90505f8260800151118015610db357505f8260a00151115b15610dd157610dcb8260a001518284608001516113d0565b60a08301525b808260800181815250507f00000000000000000000000000000000000000000000000000000000000000006001600160a01b03166317fcb39b6040518163ffffffff1660e01b8152600401602060405180830381865afa158015610e37573d5f5f3e3d5ffd5b505050506040513d601f19601f82011682018060405250810190610e5b9190611887565b6001600160a01b031682604001516001600160a01b0316148015610e7f5750815115155b15610e88578082525b505b80608001515f03610eae576040516305112ab160e41b815260040160405180910390fd5b60208101516001600160a01b0316610ed957604051630f58648f60e01b815260040160405180910390fd5b6101608101515115610fd557604051630f65bac560e01b81526001600160a01b0386811660048301525f917f000000000000000000000000000000000000000000000000000000000000000090911690630f65bac5906024015f60405180830381865afa158015610f4c573d5f5f3e3d5ffd5b505050506040513d5f823e601f3d908101601f19168201604052610f7391908101906118ef565b90505f5f5f5f5f866101600151806020019051810190610f939190611a13565b9450945094509450945084848484848a604051602001610fb896959493929190611b15565b60408051601f198184030181529190526101608801525050505050505b60408051600180825281830190925290816020015b60408051606080820183525f808352602083015291810191909152815260200190600190039081610fea57905050915060405180606001604052807f00000000000000000000000000000000000000000000000000000000000000006001600160a01b03168152602001825f015181526020018683602001518460400151856060015186608001518760a001518860c001518960e001518a61010001518b61012001518c61016001516040516024016110ad9b9a99989796959493929190611bbf565b60408051601f198184030181529190526020810180516001600160e01b0316631ebbd90b60e21b1790529052825183905f9061067857610678611831565b5f5f6108678360016108cd565b5f6111048260146117d6565b835110156111515760405162461bcd60e51b8152602060048201526015602482015274746f416464726573735f6f75744f66426f756e647360581b60448201526064015b60405180910390fd5b500160200151600160601b900490565b61116b815f610922565b611175815f61087c565b50565b5f82828151811061118b5761118b611831565b01602001516001600160f81b0319161515905092915050565b5f7f8ce092d4869bdfa1a1ce579ddddb2b776c39ace5d7b5d7e70e97ece2a78f4f9b826040516020016111f392919091825260601b6bffffffffffffffffffffffff1916602082015260340190565b604051602081830303815290604052805190602001209050919050565b5f61121c8260206117d6565b835110156112645760405162461bcd60e51b8152602060048201526015602482015274746f55696e743235365f6f75744f66426f756e647360581b6044820152606401611148565b50016020015190565b5f6112798260046117d6565b835110156112c05760405162461bcd60e51b8152602060048201526014602482015273746f55696e7433325f6f75744f66426f756e647360601b6044820152606401611148565b50016004015190565b60608182601f01101561130f5760405162461bcd60e51b815260206004820152600e60248201526d736c6963655f6f766572666c6f7760901b6044820152606401611148565b61131982846117d6565b8451101561135d5760405162461bcd60e51b8152602060048201526011602482015270736c6963655f6f75744f66426f756e647360781b6044820152606401611148565b60608215801561137b5760405191505f8252602082016040526113c5565b6040519150601f8416801560200281840101858101878315602002848b0101015b818310156113b457805183526020928301920161139c565b5050858452601f01601f1916604052505b5090505b9392505050565b5f5f5f6113dd8686611480565b91509150815f03611401578381816113f7576113f7611c43565b04925050506113c9565b81841161141857611418600385150260111861149c565b5f848688095f868103871696879004966002600389028118808a02820302808a02820302808a02820302808a02820302808a02820302808a02909103029181900381900460010185841190960395909502919093039390930492909217029150509392505050565b5f805f1983850993909202808410938190039390930393915050565b634e487b715f52806020526024601cfd5b6001600160a01b0381168114611175575f5ffd5b5f5f83601f8401126114d1575f5ffd5b5081356001600160401b038111156114e7575f5ffd5b6020830191508360208285010111156114fe575f5ffd5b9250929050565b5f5f5f5f60608587031215611518575f5ffd5b8435611523816114ad565b93506020850135611533816114ad565b925060408501356001600160401b0381111561154d575f5ffd5b611559878288016114c1565b95989497509550505050565b5f60208284031215611575575f5ffd5b81356113c9816114ad565b5f5f60408385031215611591575f5ffd5b8235915060208301356115a3816114ad565b809150509250929050565b5f81518084528060208401602086015e5f602082860101526020601f19601f83011685010191505092915050565b5f602082016020835280845180835260408501915060408160051b8601019250602086015f5b8281101561165d57868503603f19018452815180516001600160a01b0316865260208082015190870152604090810151606091870182905290611647908701826115ae565b9550506020938401939190910190600101611602565b50929695505050505050565b5f5f6020838503121561167a575f5ffd5b82356001600160401b0381111561168f575f5ffd5b61169b858286016114c1565b90969095509350505050565b602081525f6113c960208301846115ae565b60208101600383106116d957634e487b7160e01b5f52602160045260245ffd5b91905290565b634e487b7160e01b5f52604160045260245ffd5b604051601f8201601f191681016001600160401b038111828210171561171b5761171b6116df565b604052919050565b5f6001600160401b0382111561173b5761173b6116df565b50601f01601f191660200190565b5f60208284031215611759575f5ffd5b81356001600160401b0381111561176e575f5ffd5b8201601f8101841361177e575f5ffd5b803561179161178c82611723565b6116f3565b8181528560208385010111156117a5575f5ffd5b816020840160208301375f91810160200191909152949350505050565b634e487b7160e01b5f52601160045260245ffd5b8082018082111561069e5761069e6117c2565b6001600160a01b038581168252841660208201526060604082018190528101829052818360808301375f818301608090810191909152601f909201601f191601019392505050565b634e487b7160e01b5f52603260045260245ffd5b8181038181111561069e5761069e6117c2565b5f60018201611869576118696117c2565b5060010190565b5f60208284031215611880575f5ffd5b5051919050565b5f60208284031215611897575f5ffd5b81516113c9816114ad565b5f82601f8301126118b1575f5ffd5b81516118bf61178c82611723565b8181528460208386010111156118d3575f5ffd5b8160208501602083015e5f918101602001919091529392505050565b5f602082840312156118ff575f5ffd5b81516001600160401b03811115611914575f5ffd5b611920848285016118a2565b949350505050565b5f6001600160401b03821115611940576119406116df565b5060051b60200190565b5f82601f830112611959575f5ffd5b815161196761178c82611928565b8082825260208201915060208360051b860101925085831115611988575f5ffd5b602085015b838110156119ae5780516119a0816114ad565b83526020928301920161198d565b5095945050505050565b5f82601f8301126119c7575f5ffd5b81516119d561178c82611928565b8082825260208201915060208360051b8601019250858311156119f6575f5ffd5b602085015b838110156119ae5780518352602092830192016119fb565b5f5f5f5f5f60a08688031215611a27575f5ffd5b85516001600160401b03811115611a3c575f5ffd5b611a48888289016118a2565b95505060208601516001600160401b03811115611a63575f5ffd5b611a6f888289016118a2565b9450506040860151611a80816114ad565b60608701519093506001600160401b03811115611a9b575f5ffd5b611aa78882890161194a565b92505060808601516001600160401b03811115611ac2575f5ffd5b611ace888289016119b8565b9150509295509295909350565b5f8151808452602084019350602083015f5b82811015611b0b578151865260209586019590910190600101611aed565b5093949350505050565b60c081525f611b2760c08301896115ae565b8281036020840152611b3981896115ae565b6001600160a01b03881660408501528381036060850152865180825260208089019350909101905f5b81811015611b895783516001600160a01b0316835260209384019390920191600101611b62565b50508381036080850152611b9d8187611adb565b91505082810360a0840152611bb281856115ae565b9998505050505050505050565b6001600160a01b038c811682528b811660208301528a8116604083015289811660608301526080820189905260a0820188905260c08201879052851660e082015263ffffffff841661010082015263ffffffff83166101208201526101606101408201525f611c326101608301846115ae565b9d9c50505050505050505050505050565b634e487b7160e01b5f52601260045260245ffdfea164736f6c634300081e000a","linkReferences":{}},"methodIdentifiers":{"asset()":"38d52e0f","build(address,address,bytes)":"3b5896bc","decodeUsePrevHookAmount(bytes)":"e7745517","executionNonce()":"01bd43ef","getOutAmount(address)":"81cbe691","hookType()":"e445e7dd","inspect(bytes)":"8c4313c1","lastCaller()":"2113522a","postExecute(address,address,bytes)":"05b4fe91","postExecuteMutex()":"60b5be29","preExecute(address,address,bytes)":"2ae2fe3d","preExecuteMutex()":"84542a24","resetExecutionState(address)":"d06a1e89","setExecutionContext(address)":"14cb37cf","setOutAmount(uint256,address)":"1f264619","spToken()":"8e148776","spokePoolV3()":"3c02c770","subType()":"cf0a6181","subtype()":"5492e677","usedShares()":"685a943c"},"id":344}