{"abi":[{"type":"constructor","inputs":[{"name":"_routerV2","type":"address","internalType":"address"}],"stateMutability":"nonpayable"},{"type":"function","name":"asset","inputs":[],"outputs":[{"name":"","type":"address","internalType":"address"}],"stateMutability":"view"},{"type":"function","name":"build","inputs":[{"name":"prevHook","type":"address","internalType":"address"},{"name":"account","type":"address","internalType":"address"},{"name":"hookData","type":"bytes","internalType":"bytes"}],"outputs":[{"name":"executions","type":"tuple[]","internalType":"struct Execution[]","components":[{"name":"target","type":"address","internalType":"address"},{"name":"value","type":"uint256","internalType":"uint256"},{"name":"callData","type":"bytes","internalType":"bytes"}]}],"stateMutability":"view"},{"type":"function","name":"decodeUsePrevHookAmount","inputs":[{"name":"data","type":"bytes","internalType":"bytes"}],"outputs":[{"name":"","type":"bool","internalType":"bool"}],"stateMutability":"pure"},{"type":"function","name":"executionNonce","inputs":[],"outputs":[{"name":"","type":"uint256","internalType":"uint256"}],"stateMutability":"view"},{"type":"function","name":"getOutAmount","inputs":[{"name":"caller","type":"address","internalType":"address"}],"outputs":[{"name":"","type":"uint256","internalType":"uint256"}],"stateMutability":"view"},{"type":"function","name":"hookType","inputs":[],"outputs":[{"name":"","type":"uint8","internalType":"enum ISuperHook.HookType"}],"stateMutability":"view"},{"type":"function","name":"inspect","inputs":[{"name":"data","type":"bytes","internalType":"bytes"}],"outputs":[{"name":"","type":"bytes","internalType":"bytes"}],"stateMutability":"view"},{"type":"function","name":"lastCaller","inputs":[],"outputs":[{"name":"","type":"address","internalType":"address"}],"stateMutability":"view"},{"type":"function","name":"odosRouterV2","inputs":[],"outputs":[{"name":"","type":"address","internalType":"contract IOdosRouterV2"}],"stateMutability":"view"},{"type":"function","name":"postExecute","inputs":[{"name":"prevHook","type":"address","internalType":"address"},{"name":"account","type":"address","internalType":"address"},{"name":"data","type":"bytes","internalType":"bytes"}],"outputs":[],"stateMutability":"nonpayable"},{"type":"function","name":"postExecuteMutex","inputs":[],"outputs":[{"name":"","type":"bool","internalType":"bool"}],"stateMutability":"view"},{"type":"function","name":"preExecute","inputs":[{"name":"prevHook","type":"address","internalType":"address"},{"name":"account","type":"address","internalType":"address"},{"name":"data","type":"bytes","internalType":"bytes"}],"outputs":[],"stateMutability":"nonpayable"},{"type":"function","name":"preExecuteMutex","inputs":[],"outputs":[{"name":"","type":"bool","internalType":"bool"}],"stateMutability":"view"},{"type":"function","name":"resetExecutionState","inputs":[{"name":"caller","type":"address","internalType":"address"}],"outputs":[],"stateMutability":"nonpayable"},{"type":"function","name":"setExecutionContext","inputs":[{"name":"caller","type":"address","internalType":"address"}],"outputs":[],"stateMutability":"nonpayable"},{"type":"function","name":"setOutAmount","inputs":[{"name":"_outAmount","type":"uint256","internalType":"uint256"},{"name":"caller","type":"address","internalType":"address"}],"outputs":[],"stateMutability":"nonpayable"},{"type":"function","name":"spToken","inputs":[],"outputs":[{"name":"","type":"address","internalType":"address"}],"stateMutability":"view"},{"type":"function","name":"subType","inputs":[],"outputs":[{"name":"","type":"bytes32","internalType":"bytes32"}],"stateMutability":"view"},{"type":"function","name":"subtype","inputs":[],"outputs":[{"name":"","type":"bytes32","internalType":"bytes32"}],"stateMutability":"view"},{"type":"function","name":"usedShares","inputs":[],"outputs":[{"name":"","type":"uint256","internalType":"uint256"}],"stateMutability":"view"},{"type":"error","name":"ADDRESS_NOT_VALID","inputs":[]},{"type":"error","name":"AMOUNT_NOT_VALID","inputs":[]},{"type":"error","name":"CANNOT_SET_OUT_AMOUNT","inputs":[]},{"type":"error","name":"INCOMPLETE_HOOK_EXECUTION","inputs":[]},{"type":"error","name":"NOT_AUTHORIZED","inputs":[]},{"type":"error","name":"POST_EXECUTE_ALREADY_CALLED","inputs":[]},{"type":"error","name":"PRE_EXECUTE_ALREADY_CALLED","inputs":[]},{"type":"error","name":"UNAUTHORIZED_CALLER","inputs":[]}],"bytecode":{"object":"0x60c060405234801561000f575f5ffd5b50604051611aad380380611aad83398101604081905261002e916100af565b6040805180820190915260048152630537761760e41b6020909101525f805460ff191690557fbce316f0d9d2a3affa97de1d99bb2aac0538e2666d0d8545545ead241ef0ccab6080526001600160a01b03811661009e57604051630f58648f60e01b815260040160405180910390fd5b6001600160a01b031660a0526100dc565b5f602082840312156100bf575f5ffd5b81516001600160a01b03811681146100d5575f5ffd5b9392505050565b60805160a0516119946101195f395f818161029d0152818161084401528181610d170152610ebc01525f81816101f301526102c401526119945ff3fe608060405234801561000f575f5ffd5b5060043610610127575f3560e01c8063685a943c116100a9578063cbb595d81161006e578063cbb595d814610298578063cf0a6181146102bf578063d06a1e89146102e6578063e445e7dd146102f9578063e774551714610312575f5ffd5b8063685a943c1461023957806381cbe6911461024157806384542a24146102545780638c4313c1146102665780638e14877614610286575f5ffd5b80632ae2fe3d116100ef5780632ae2fe3d146101ac57806338d52e0f146101bf5780633b5896bc146101d15780635492e677146101f157806360b5be2914610217575f5ffd5b806301bd43ef1461012b57806305b4fe911461014757806314cb37cf1461015c5780631f2646191461016f5780632113522a14610182575b5f5ffd5b61013460035c81565b6040519081526020015b60405180910390f35b61015a610155366004611590565b610325565b005b61015a61016a3660046115ed565b61039f565b61015a61017d36600461160d565b6103c0565b6101946001600160a01b0360045c1681565b6040516001600160a01b03909116815260200161013e565b61015a6101ba366004611590565b610419565b6101946001600160a01b0360025c1681565b6101e46101df366004611590565b61048c565b60405161013e9190611665565b7f0000000000000000000000000000000000000000000000000000000000000000610134565b61022960ff600160a81b60025c041681565b604051901515815260200161013e565b6101345f5c81565b61013461024f3660046115ed565b6106a5565b61022960ff600160a01b60025c041681565b6102796102743660046116f2565b6106bd565b60405161013e9190611731565b6101946001600160a01b0360015c1681565b6101947f000000000000000000000000000000000000000000000000000000000000000081565b6101347f000000000000000000000000000000000000000000000000000000000000000081565b61015a6102f43660046115ed565b610892565b5f546103059060ff1681565b60405161013e9190611743565b61022961032036600461177d565b6108e4565b336001600160a01b0384161461034e5760405163e15e56c960e01b815260040160405180910390fd5b5f610358846108f0565b905061036381610903565b156103815760405163945b63f560e01b815260040160405180910390fd5b61038c816001610910565b61039885858585610926565b5050505050565b6103a881610987565b50336004805c6001600160a01b0319168217905d5050565b5f6103ca826108f0565b90506103d5816109b9565b806103e457506103e481610903565b156104025760405163441e4c7360e11b815260040160405180910390fd5b5f61040e8260016109c2565b905083815d50505050565b336001600160a01b038416146104425760405163e15e56c960e01b815260040160405180910390fd5b5f61044c846108f0565b9050610457816109b9565b1561047557604051630bbb04d960e11b815260040160405180910390fd5b610480816001610a17565b61039885858585610a23565b60605f61049b86868686610a65565b9050805160026104ab9190611844565b67ffffffffffffffff8111156104c3576104c3611769565b60405190808252806020026020018201604052801561050f57816020015b60408051606080820183525f8083526020830152918101919091528152602001906001900390816104e15790505b5091506040518060600160405280306001600160a01b031681526020015f8152602001306001600160a01b0316632ae2fe3d898989896040516024016105589493929190611857565b604051602081830303815290604052915060e01b6020820180516001600160e01b038381831617835250505050815250825f8151811061059a5761059a61189f565b60209081029190910101525f5b81518110156105fb578181815181106105c2576105c261189f565b6020026020010151838260016105d89190611844565b815181106105e8576105e861189f565b60209081029190910101526001016105a7565b506040518060600160405280306001600160a01b031681526020015f8152602001306001600160a01b03166305b4fe91898989896040516024016106429493929190611857565b604051602081830303815290604052915060e01b6020820180516001600160e01b038381831617835250505050815250826001845161068191906118b3565b815181106106915761069161189f565b602002602001018190525050949350505050565b5f6106b76106b2836108f0565b611042565b92915050565b60605f61070184848080601f0160208091040260200160405190810160405280939291908181526020018383808284375f92019190915250609d925061104f915050565b90505f61074f85858080601f0160208091040260200160405190810160405280939291908181526020018383808284375f9201919091525061074a925086915060bd9050611844565b6110b1565b905061078f85858080601f0160208091040260200160405190810160405280939291908181526020018383808284375f92018290525092506110b1915050565b6107d086868080601f0160208091040260200160405190810160405280939291908181526020018383808284375f92019190915250603492506110b1915050565b61081187878080601f0160208091040260200160405190810160405280939291908181526020018383808284375f92019190915250604892506110b1915050565b6040516bffffffffffffffffffffffff19606094851b8116602083015292841b8316603482015290831b821660488201527f0000000000000000000000000000000000000000000000000000000000000000831b8216605c8201529183901b1660708201526084016040516020818303038152906040529250505092915050565b5f61089c826108f0565b90506108a7816109b9565b15806108b957506108b781610903565b155b156108d757604051634bd439b560e11b815260040160405180910390fd5b6108e081611115565b5050565b5f6106b782609c61112c565b5f5f6108fb83611158565b5c9392505050565b5f5f6108fb8360036109c2565b5f61091c8360036109c2565b905081815d505050565b610981610932846106a5565b6109718585858080601f0160208091040260200160405190810160405280939291908181526020018383808284375f920191909152506111c492505050565b61097b91906118b3565b84611263565b50505050565b5f6003805c9082610997836118c6565b9190505d505f6109a683611158565b905060035c80825d505060035c92915050565b5f5f6108fb8360025b604080517fc41a07c57a776f6217c6d4278dfe7a5d114742afe55627ce458c2802aa4d703460208083019190915281830194909452606080820193909352815180820390930183526080019052805191012090565b5f61091c8360026109c2565b61098161097b8484848080601f0160208091040260200160405190810160405280939291908181526020018383808284375f920191909152506111c492505050565b6040805160c0810182525f808252602080830182905282840182905260608084018190526080840183905260a084018390528451601f870183900483028101830190955285855293610ad39187908790819084018382808284375f92019190915250609d925061104f915050565b9050610b1885858080601f0160208091040260200160405190810160405280939291908181526020018383808284375f9201919091525060bd925085915061127b9050565b6060830152604080516020601f8701819004810282018101909252858152610b619187908790819084018382808284375f9201919091525061074a925085915060bd9050611844565b6001600160a01b03166080830152604080516020601f8701819004810282018101909252858152610bc39187908790819084018382808284375f92019190915250610bb3925085915060bd9050611844565b610bbe906014611844565b611380565b63ffffffff1660a0830152604080516020601f8701819004810282018101909252858152610c0a9187908790819084018382808284375f92018290525092506110b1915050565b6001600160a01b03168252604080516020601f8701819004810282018101909252858152610c549187908790819084018382808284375f920191909152506014925061104f915050565b8260200181815250505f610c9f86868080601f0160208091040260200160405190810160405280939291908181526020018383808284375f92019190915250609c925061112c915050565b90508015610d15576040516381cbe69160e01b81526001600160a01b0388811660048301528916906381cbe69190602401602060405180830381865afa158015610ceb573d5f5f3e3d5ffd5b505050506040513d601f19601f82011682018060405250810190610d0f91906118de565b60208401525b7f00000000000000000000000000000000000000000000000000000000000000006001600160a01b03166040848101919091528051600480825260a0820190925290816020015b60408051606080820183525f808352602083015291810191909152815260200190600190039081610d5c579050506040805160608101825285516001600160a01b0390811682525f60208301819052878401518451921660248301526044820152929650919082019060640160408051601f198184030181529190526020810180516001600160e01b031663095ea7b360e01b1790529052845185905f90610e0657610e0661189f565b60200260200101819052506040518060600160405280845f01516001600160a01b031681526020015f815260200184604001518560200151604051602401610e639291906001600160a01b03929092168252602082015260400190565b60408051601f198184030181529190526020810180516001600160e01b031663095ea7b360e01b1790529052845185906001908110610ea457610ea461189f565b602002602001018190525060405180606001604052807f00000000000000000000000000000000000000000000000000000000000000006001600160a01b031681526020015f8152602001610f2f898b8a8a8080601f0160208091040260200160405190810160405280939291908181526020018383808284375f920191909152506113dc92505050565b856060015186608001518760a00151604051602401610f5194939291906118f5565b60408051601f198184030181529190526020810180516001600160e01b0316630ed8d73960e21b1790529052845185906002908110610f9257610f9261189f565b60200260200101819052506040518060600160405280845f01516001600160a01b031681526020015f815260200184604001515f604051602401610feb9291906001600160a01b03929092168252602082015260400190565b60408051601f198184030181529190526020810180516001600160e01b031663095ea7b360e01b179052905284518590600390811061102c5761102c61189f565b6020026020010181905250505050949350505050565b5f5f6108fb8360016109c2565b5f61105b826020611844565b835110156110a85760405162461bcd60e51b8152602060048201526015602482015274746f55696e743235365f6f75744f66426f756e647360581b60448201526064015b60405180910390fd5b50016020015190565b5f6110bd826014611844565b835110156111055760405162461bcd60e51b8152602060048201526015602482015274746f416464726573735f6f75744f66426f756e647360581b604482015260640161109f565b500160200151600160601b900490565b61111f815f610a17565b611129815f610910565b50565b5f82828151811061113f5761113f61189f565b01602001516001600160f81b0319161515905092915050565b5f7f8ce092d4869bdfa1a1ce579ddddb2b776c39ace5d7b5d7e70e97ece2a78f4f9b826040516020016111a792919091825260601b6bffffffffffffffffffffffff1916602082015260340190565b604051602081830303815290604052805190602001209050919050565b5f5f6111d18360486110b1565b90506001600160a01b0381166111f35750506001600160a01b038216316106b7565b6040516370a0823160e01b81526001600160a01b0385811660048301528216906370a0823190602401602060405180830381865afa158015611237573d5f5f3e3d5ffd5b505050506040513d601f19601f8201168201806040525081019061125b91906118de565b949350505050565b5f61126d826108f0565b90505f61040e8260016109c2565b60608182601f0110156112c15760405162461bcd60e51b815260206004820152600e60248201526d736c6963655f6f766572666c6f7760901b604482015260640161109f565b6112cb8284611844565b8451101561130f5760405162461bcd60e51b8152602060048201526011602482015270736c6963655f6f75744f66426f756e647360781b604482015260640161109f565b60608215801561132d5760405191505f825260208201604052611377565b6040519150601f8416801560200281840101858101878315602002848b0101015b8183101561136657805183526020928301920161134e565b5050858452601f01601f1916604052505b50949350505050565b5f61138c826004611844565b835110156113d35760405162461bcd60e51b8152602060048201526014602482015273746f55696e7433325f6f75744f66426f756e647360601b604482015260640161109f565b50016004015190565b6040805160e0810182525f80825260208201819052918101829052606081018290526080810182905260a0810182905260c081018290529061141e83826110b1565b90505f61142c84601461104f565b90505f61143a8560346110b1565b90505f6114488660486110b1565b90505f61145687605c61104f565b90505f61146488607c61104f565b90505f61147289609c61112c565b905080156114e5576040516381cbe69160e01b81526001600160a01b038c811660048301528b16906381cbe69190602401602060405180830381865afa1580156114be573d5f5f3e3d5ffd5b505050506040513d601f19601f820116820180604052508101906114e291906118de565b95505b506040805160e0810182526001600160a01b0397881681526020810196909652938616938501939093529084166060840152608083015260a0820152941660c0850152509192915050565b80356001600160a01b0381168114611546575f5ffd5b919050565b5f5f83601f84011261155b575f5ffd5b50813567ffffffffffffffff811115611572575f5ffd5b602083019150836020828501011115611589575f5ffd5b9250929050565b5f5f5f5f606085870312156115a3575f5ffd5b6115ac85611530565b93506115ba60208601611530565b9250604085013567ffffffffffffffff8111156115d5575f5ffd5b6115e18782880161154b565b95989497509550505050565b5f602082840312156115fd575f5ffd5b61160682611530565b9392505050565b5f5f6040838503121561161e575f5ffd5b8235915061162e60208401611530565b90509250929050565b5f81518084528060208401602086015e5f602082860101526020601f19601f83011685010191505092915050565b5f602082016020835280845180835260408501915060408160051b8601019250602086015f5b828110156116e657868503603f19018452815180516001600160a01b03168652602080820151908701526040908101516060918701829052906116d090870182611637565b955050602093840193919091019060010161168b565b50929695505050505050565b5f5f60208385031215611703575f5ffd5b823567ffffffffffffffff811115611719575f5ffd5b6117258582860161154b565b90969095509350505050565b602081525f6116066020830184611637565b602081016003831061176357634e487b7160e01b5f52602160045260245ffd5b91905290565b634e487b7160e01b5f52604160045260245ffd5b5f6020828403121561178d575f5ffd5b813567ffffffffffffffff8111156117a3575f5ffd5b8201601f810184136117b3575f5ffd5b803567ffffffffffffffff8111156117cd576117cd611769565b604051601f8201601f19908116603f0116810167ffffffffffffffff811182821017156117fc576117fc611769565b604052818152828201602001861015611813575f5ffd5b816020840160208301375f91810160200191909152949350505050565b634e487b7160e01b5f52601160045260245ffd5b808201808211156106b7576106b7611830565b6001600160a01b038581168252841660208201526060604082018190528101829052818360808301375f818301608090810191909152601f909201601f191601019392505050565b634e487b7160e01b5f52603260045260245ffd5b818103818111156106b7576106b7611830565b5f600182016118d7576118d7611830565b5060010190565b5f602082840312156118ee575f5ffd5b5051919050565b84516001600160a01b039081168252602080870151908301526040808701518216908301526060808701518216908301526080808701519083015260a0868101519083015260c0808701519091169082015261014060e082018190525f9061195f90830186611637565b6001600160a01b038516610100840152905063ffffffff83166101208301529594505050505056fea164736f6c634300081e000a","linkReferences":{}},"methodIdentifiers":{"asset()":"38d52e0f","build(address,address,bytes)":"3b5896bc","decodeUsePrevHookAmount(bytes)":"e7745517","executionNonce()":"01bd43ef","getOutAmount(address)":"81cbe691","hookType()":"e445e7dd","inspect(bytes)":"8c4313c1","lastCaller()":"2113522a","odosRouterV2()":"cbb595d8","postExecute(address,address,bytes)":"05b4fe91","postExecuteMutex()":"60b5be29","preExecute(address,address,bytes)":"2ae2fe3d","preExecuteMutex()":"84542a24","resetExecutionState(address)":"d06a1e89","setExecutionContext(address)":"14cb37cf","setOutAmount(uint256,address)":"1f264619","spToken()":"8e148776","subType()":"cf0a6181","subtype()":"5492e677","usedShares()":"685a943c"},"id":338}