{"abi":[{"type":"constructor","inputs":[],"stateMutability":"nonpayable"},{"type":"function","name":"asset","inputs":[],"outputs":[{"name":"","type":"address","internalType":"address"}],"stateMutability":"view"},{"type":"function","name":"build","inputs":[{"name":"prevHook","type":"address","internalType":"address"},{"name":"account","type":"address","internalType":"address"},{"name":"hookData","type":"bytes","internalType":"bytes"}],"outputs":[{"name":"executions","type":"tuple[]","internalType":"struct Execution[]","components":[{"name":"target","type":"address","internalType":"address"},{"name":"value","type":"uint256","internalType":"uint256"},{"name":"callData","type":"bytes","internalType":"bytes"}]}],"stateMutability":"view"},{"type":"function","name":"decodeAmount","inputs":[{"name":"data","type":"bytes","internalType":"bytes"}],"outputs":[{"name":"","type":"uint256","internalType":"uint256"}],"stateMutability":"pure"},{"type":"function","name":"decodeUsePrevHookAmount","inputs":[{"name":"data","type":"bytes","internalType":"bytes"}],"outputs":[{"name":"","type":"bool","internalType":"bool"}],"stateMutability":"pure"},{"type":"function","name":"executionNonce","inputs":[],"outputs":[{"name":"","type":"uint256","internalType":"uint256"}],"stateMutability":"view"},{"type":"function","name":"getOutAmount","inputs":[{"name":"caller","type":"address","internalType":"address"}],"outputs":[{"name":"","type":"uint256","internalType":"uint256"}],"stateMutability":"view"},{"type":"function","name":"hookType","inputs":[],"outputs":[{"name":"","type":"uint8","internalType":"enum ISuperHook.HookType"}],"stateMutability":"view"},{"type":"function","name":"inspect","inputs":[{"name":"data","type":"bytes","internalType":"bytes"}],"outputs":[{"name":"","type":"bytes","internalType":"bytes"}],"stateMutability":"pure"},{"type":"function","name":"isAsyncCancelHook","inputs":[],"outputs":[{"name":"","type":"uint8","internalType":"enum ISuperHookAsyncCancelations.CancelationType"}],"stateMutability":"pure"},{"type":"function","name":"lastCaller","inputs":[],"outputs":[{"name":"","type":"address","internalType":"address"}],"stateMutability":"view"},{"type":"function","name":"postExecute","inputs":[{"name":"prevHook","type":"address","internalType":"address"},{"name":"account","type":"address","internalType":"address"},{"name":"data","type":"bytes","internalType":"bytes"}],"outputs":[],"stateMutability":"nonpayable"},{"type":"function","name":"postExecuteMutex","inputs":[],"outputs":[{"name":"","type":"bool","internalType":"bool"}],"stateMutability":"view"},{"type":"function","name":"preExecute","inputs":[{"name":"prevHook","type":"address","internalType":"address"},{"name":"account","type":"address","internalType":"address"},{"name":"data","type":"bytes","internalType":"bytes"}],"outputs":[],"stateMutability":"nonpayable"},{"type":"function","name":"preExecuteMutex","inputs":[],"outputs":[{"name":"","type":"bool","internalType":"bool"}],"stateMutability":"view"},{"type":"function","name":"resetExecutionState","inputs":[{"name":"caller","type":"address","internalType":"address"}],"outputs":[],"stateMutability":"nonpayable"},{"type":"function","name":"setExecutionContext","inputs":[{"name":"caller","type":"address","internalType":"address"}],"outputs":[],"stateMutability":"nonpayable"},{"type":"function","name":"setOutAmount","inputs":[{"name":"_outAmount","type":"uint256","internalType":"uint256"},{"name":"caller","type":"address","internalType":"address"}],"outputs":[],"stateMutability":"nonpayable"},{"type":"function","name":"spToken","inputs":[],"outputs":[{"name":"","type":"address","internalType":"address"}],"stateMutability":"view"},{"type":"function","name":"subType","inputs":[],"outputs":[{"name":"","type":"bytes32","internalType":"bytes32"}],"stateMutability":"view"},{"type":"function","name":"subtype","inputs":[],"outputs":[{"name":"","type":"bytes32","internalType":"bytes32"}],"stateMutability":"view"},{"type":"function","name":"usedShares","inputs":[],"outputs":[{"name":"","type":"uint256","internalType":"uint256"}],"stateMutability":"view"},{"type":"error","name":"ADDRESS_NOT_VALID","inputs":[]},{"type":"error","name":"AMOUNT_NOT_VALID","inputs":[]},{"type":"error","name":"CANNOT_SET_OUT_AMOUNT","inputs":[]},{"type":"error","name":"INCOMPLETE_HOOK_EXECUTION","inputs":[]},{"type":"error","name":"NOT_AUTHORIZED","inputs":[]},{"type":"error","name":"POST_EXECUTE_ALREADY_CALLED","inputs":[]},{"type":"error","name":"PRE_EXECUTE_ALREADY_CALLED","inputs":[]},{"type":"error","name":"UNAUTHORIZED_CALLER","inputs":[]}],"bytecode":{"object":"0x60a0604052348015600e575f5ffd5b506040805180820190915260078152660455243373534360cc1b6020909101525f805460ff191690557fc518a1d423df5aa415a8180f6384c181bd18f2bc1b734ba3dd52cd98b9b5fb7760805260805161144c61007a5f395f818161020d01526102ca015261144c5ff3fe608060405234801561000f575f5ffd5b5060043610610132575f3560e01c806360b5be29116100b45780638e148776116100795780638e148776146102a0578063ac440f72146102b2578063cf0a6181146102c5578063d06a1e89146102ec578063e445e7dd146102ff578063e77455171461030b575f5ffd5b806360b5be2914610231578063685a943c1461025357806381cbe6911461025b57806384542a241461026e5780638c4313c114610280575f5ffd5b80632113522a116100fa5780632113522a1461019c5780632ae2fe3d146101c657806338d52e0f146101d95780633b5896bc146101eb5780635492e6771461020b575f5ffd5b806301bd43ef1461013657806305b4fe911461015257806308c189f91461016757806314cb37cf146101765780631f26461914610189575b5f5ffd5b61013f60035c81565b6040519081526020015b60405180910390f35b6101656101603660046110b3565b61031e565b005b5f5b6040516101499190611130565b610165610184366004611143565b610398565b61016561019736600461115e565b6103b9565b6101ae6001600160a01b0360045c1681565b6040516001600160a01b039091168152602001610149565b6101656101d43660046110b3565b610412565b6101ae6001600160a01b0360025c1681565b6101fe6101f93660046110b3565b610485565b60405161014991906111ba565b7f000000000000000000000000000000000000000000000000000000000000000061013f565b61024360ff600160a81b60025c041681565b6040519015158152602001610149565b61013f5f5c81565b61013f610269366004611143565b61069e565b61024360ff600160a01b60025c041681565b61029361028e366004611247565b6106b6565b6040516101499190611286565b6101ae6001600160a01b0360015c1681565b61013f6102c03660046112ac565b610778565b61013f7f000000000000000000000000000000000000000000000000000000000000000081565b6101656102fa366004611143565b610782565b5f546101699060ff1681565b6102436103193660046112ac565b6107d4565b336001600160a01b038416146103475760405163e15e56c960e01b815260040160405180910390fd5b5f610351846107e0565b905061035c816107f3565b1561037a5760405163945b63f560e01b815260040160405180910390fd5b610385816001610800565b61039185858585610816565b5050505050565b6103a181610877565b50336004805c6001600160a01b0319168217905d5050565b5f6103c3826107e0565b90506103ce816108a9565b806103dd57506103dd816107f3565b156103fb5760405163441e4c7360e11b815260040160405180910390fd5b5f6104078260016108b2565b905083815d50505050565b336001600160a01b0384161461043b5760405163e15e56c960e01b815260040160405180910390fd5b5f610445846107e0565b9050610450816108a9565b1561046e57604051630bbb04d960e11b815260040160405180910390fd5b610479816001610907565b61039185858585610913565b60605f61049486868686610955565b9050805160026104a49190611373565b67ffffffffffffffff8111156104bc576104bc611298565b60405190808252806020026020018201604052801561050857816020015b60408051606080820183525f8083526020830152918101919091528152602001906001900390816104da5790505b5091506040518060600160405280306001600160a01b031681526020015f8152602001306001600160a01b0316632ae2fe3d898989896040516024016105519493929190611386565b604051602081830303815290604052915060e01b6020820180516001600160e01b038381831617835250505050815250825f81518110610593576105936113ce565b60209081029190910101525f5b81518110156105f4578181815181106105bb576105bb6113ce565b6020026020010151838260016105d19190611373565b815181106105e1576105e16113ce565b60209081029190910101526001016105a0565b506040518060600160405280306001600160a01b031681526020015f8152602001306001600160a01b03166305b4fe918989898960405160240161063b9493929190611386565b604051602081830303815290604052915060e01b6020820180516001600160e01b038381831617835250505050815250826001845161067a91906113e2565b8151811061068a5761068a6113ce565b602002602001018190525050949350505050565b5f6106b06106ab836107e0565b610dd2565b92915050565b60606106f683838080601f0160208091040260200160405190810160405280939291908181526020018383808284375f92019190915250610ddf92505050565b61073784848080601f0160208091040260200160405190810160405280939291908181526020018383808284375f9201919091525060349250610de7915050565b6040516bffffffffffffffffffffffff19606093841b811660208301529190921b166034820152604801604051602081830303815290604052905092915050565b5f6106b082610e50565b5f61078c826107e0565b9050610797816108a9565b15806107a957506107a7816107f3565b155b156107c757604051634bd439b560e11b815260040160405180910390fd5b6107d081610e5c565b5050565b5f6106b0826068610e73565b5f5f6107eb83610e9f565b5c9392505050565b5f5f6107eb8360036108b2565b5f61080c8360036108b2565b905081815d505050565b6108716108588484848080601f0160208091040260200160405190810160405280939291908181526020018383808284375f92019190915250610f0b92505050565b6108618561069e565b61086b91906113e2565b84610fe5565b50505050565b5f6003805c9082610887836113f5565b9190505d505f61089683610e9f565b905060035c80825d505060035c92915050565b5f5f6107eb8360025b604080517fc41a07c57a776f6217c6d4278dfe7a5d114742afe55627ce458c2802aa4d703460208083019190915281830194909452606080820193909352815180820390930183526080019052805191012090565b5f61080c8360026108b2565b61087161086b8484848080601f0160208091040260200160405190810160405280939291908181526020018383808284375f92019190915250610f0b92505050565b60605f61099684848080601f0160208091040260200160405190810160405280939291908181526020018383808284375f92019190915250610ddf92505050565b90505f6109da85858080601f0160208091040260200160405190810160405280939291908181526020018383808284375f9201919091525060349250610de7915050565b90505f610a1b86868080601f0160208091040260200160405190810160405280939291908181526020018383808284375f92019190915250610e5092505050565b90505f610a5f87878080601f0160208091040260200160405190810160405280939291908181526020018383808284375f9201919091525060689250610e73915050565b90508015610ad2576040516381cbe69160e01b81526001600160a01b0389811660048301528a16906381cbe69190602401602060405180830381865afa158015610aab573d5f5f3e3d5ffd5b505050506040513d601f19601f82011682018060405250810190610acf919061140d565b91505b815f03610af2576040516305112ab160e41b815260040160405180910390fd5b6001600160a01b0384161580610b0f57506001600160a01b038816155b80610b2157506001600160a01b038316155b15610b3f57604051630f58648f60e01b815260040160405180910390fd5b60408051600480825260a0820190925290816020015b60408051606080820183525f808352602083015291810191909152815260200190600190039081610b5557905050604080516060810182526001600160a01b0380871682525f60208301819052835191891660248301526044820152929750919082019060640160408051601f198184030181529190526020810180516001600160e01b031663095ea7b360e01b1790529052855186905f90610bfa57610bfa6113ce565b60200260200101819052506040518060600160405280846001600160a01b031681526020015f81526020018584604051602401610c4c9291906001600160a01b03929092168252602082015260400190565b60408051601f198184030181529190526020810180516001600160e01b031663095ea7b360e01b1790529052855186906001908110610c8d57610c8d6113ce565b60200260200101819052506040518060600160405280856001600160a01b031681526020015f8152602001838a8b604051602401610ce7939291909283526001600160a01b03918216602084015216604082015260600190565b60408051601f198184030181529190526020810180516001600160e01b03166385b77f4560e01b1790529052855186906002908110610d2857610d286113ce565b60200260200101819052506040518060600160405280846001600160a01b031681526020015f8152602001855f604051602401610d7a9291906001600160a01b03929092168252602082015260400190565b60408051601f198184030181529190526020810180516001600160e01b031663095ea7b360e01b1790529052855186906003908110610dbb57610dbb6113ce565b602002602001018190525050505050949350505050565b5f5f6107eb8360016108b2565b5f6106b08260205b5f610df3826014611373565b83511015610e405760405162461bcd60e51b8152602060048201526015602482015274746f416464726573735f6f75744f66426f756e647360581b60448201526064015b60405180910390fd5b500160200151600160601b900490565b5f6106b0826048610ffd565b610e66815f610907565b610e70815f610800565b50565b5f828281518110610e8657610e866113ce565b01602001516001600160f81b0319161515905092915050565b5f7f8ce092d4869bdfa1a1ce579ddddb2b776c39ace5d7b5d7e70e97ece2a78f4f9b82604051602001610eee92919091825260601b6bffffffffffffffffffffffff1916602082015260340190565b604051602081830303815290604052805190602001209050919050565b5f610f1582610ddf565b6001600160a01b03166338d52e0f6040518163ffffffff1660e01b8152600401602060405180830381865afa158015610f50573d5f5f3e3d5ffd5b505050506040513d601f19601f82011682018060405250810190610f749190611424565b6040516370a0823160e01b81526001600160a01b03858116600483015291909116906370a0823190602401602060405180830381865afa158015610fba573d5f5f3e3d5ffd5b505050506040513d601f19601f82011682018060405250810190610fde919061140d565b9392505050565b5f610fef826107e0565b90505f6104078260016108b2565b5f611009826020611373565b835110156110515760405162461bcd60e51b8152602060048201526015602482015274746f55696e743235365f6f75744f66426f756e647360581b6044820152606401610e37565b50016020015190565b6001600160a01b0381168114610e70575f5ffd5b5f5f83601f84011261107e575f5ffd5b50813567ffffffffffffffff811115611095575f5ffd5b6020830191508360208285010111156110ac575f5ffd5b9250929050565b5f5f5f5f606085870312156110c6575f5ffd5b84356110d18161105a565b935060208501356110e18161105a565b9250604085013567ffffffffffffffff8111156110fc575f5ffd5b6111088782880161106e565b95989497509550505050565b60038110610e7057634e487b7160e01b5f52602160045260245ffd5b6020810161113d83611114565b91905290565b5f60208284031215611153575f5ffd5b8135610fde8161105a565b5f5f6040838503121561116f575f5ffd5b8235915060208301356111818161105a565b809150509250929050565b5f81518084528060208401602086015e5f602082860101526020601f19601f83011685010191505092915050565b5f602082016020835280845180835260408501915060408160051b8601019250602086015f5b8281101561123b57868503603f19018452815180516001600160a01b03168652602080820151908701526040908101516060918701829052906112259087018261118c565b95505060209384019391909101906001016111e0565b50929695505050505050565b5f5f60208385031215611258575f5ffd5b823567ffffffffffffffff81111561126e575f5ffd5b61127a8582860161106e565b90969095509350505050565b602081525f610fde602083018461118c565b634e487b7160e01b5f52604160045260245ffd5b5f602082840312156112bc575f5ffd5b813567ffffffffffffffff8111156112d2575f5ffd5b8201601f810184136112e2575f5ffd5b803567ffffffffffffffff8111156112fc576112fc611298565b604051601f8201601f19908116603f0116810167ffffffffffffffff8111828210171561132b5761132b611298565b604052818152828201602001861015611342575f5ffd5b816020840160208301375f91810160200191909152949350505050565b634e487b7160e01b5f52601160045260245ffd5b808201808211156106b0576106b061135f565b6001600160a01b038581168252841660208201526060604082018190528101829052818360808301375f818301608090810191909152601f909201601f191601019392505050565b634e487b7160e01b5f52603260045260245ffd5b818103818111156106b0576106b061135f565b5f600182016114065761140661135f565b5060010190565b5f6020828403121561141d575f5ffd5b5051919050565b5f60208284031215611434575f5ffd5b8151610fde8161105a56fea164736f6c634300081e000a","linkReferences":{}},"methodIdentifiers":{"asset()":"38d52e0f","build(address,address,bytes)":"3b5896bc","decodeAmount(bytes)":"ac440f72","decodeUsePrevHookAmount(bytes)":"e7745517","executionNonce()":"01bd43ef","getOutAmount(address)":"81cbe691","hookType()":"e445e7dd","inspect(bytes)":"8c4313c1","isAsyncCancelHook()":"08c189f9","lastCaller()":"2113522a","postExecute(address,address,bytes)":"05b4fe91","postExecuteMutex()":"60b5be29","preExecute(address,address,bytes)":"2ae2fe3d","preExecuteMutex()":"84542a24","resetExecutionState(address)":"d06a1e89","setExecutionContext(address)":"14cb37cf","setOutAmount(uint256,address)":"1f264619","spToken()":"8e148776","subType()":"cf0a6181","subtype()":"5492e677","usedShares()":"685a943c"},"id":542}