{"abi":[{"type":"constructor","inputs":[],"stateMutability":"nonpayable"},{"type":"function","name":"asset","inputs":[],"outputs":[{"name":"","type":"address","internalType":"address"}],"stateMutability":"view"},{"type":"function","name":"build","inputs":[{"name":"prevHook","type":"address","internalType":"address"},{"name":"account","type":"address","internalType":"address"},{"name":"hookData","type":"bytes","internalType":"bytes"}],"outputs":[{"name":"executions","type":"tuple[]","internalType":"struct Execution[]","components":[{"name":"target","type":"address","internalType":"address"},{"name":"value","type":"uint256","internalType":"uint256"},{"name":"callData","type":"bytes","internalType":"bytes"}]}],"stateMutability":"view"},{"type":"function","name":"executionNonce","inputs":[],"outputs":[{"name":"","type":"uint256","internalType":"uint256"}],"stateMutability":"view"},{"type":"function","name":"getOutAmount","inputs":[{"name":"caller","type":"address","internalType":"address"}],"outputs":[{"name":"","type":"uint256","internalType":"uint256"}],"stateMutability":"view"},{"type":"function","name":"hookType","inputs":[],"outputs":[{"name":"","type":"uint8","internalType":"enum ISuperHook.HookType"}],"stateMutability":"view"},{"type":"function","name":"inspect","inputs":[{"name":"data","type":"bytes","internalType":"bytes"}],"outputs":[{"name":"","type":"bytes","internalType":"bytes"}],"stateMutability":"pure"},{"type":"function","name":"lastCaller","inputs":[],"outputs":[{"name":"","type":"address","internalType":"address"}],"stateMutability":"view"},{"type":"function","name":"postExecute","inputs":[{"name":"prevHook","type":"address","internalType":"address"},{"name":"account","type":"address","internalType":"address"},{"name":"data","type":"bytes","internalType":"bytes"}],"outputs":[],"stateMutability":"nonpayable"},{"type":"function","name":"postExecuteMutex","inputs":[],"outputs":[{"name":"","type":"bool","internalType":"bool"}],"stateMutability":"view"},{"type":"function","name":"preExecute","inputs":[{"name":"prevHook","type":"address","internalType":"address"},{"name":"account","type":"address","internalType":"address"},{"name":"data","type":"bytes","internalType":"bytes"}],"outputs":[],"stateMutability":"nonpayable"},{"type":"function","name":"preExecuteMutex","inputs":[],"outputs":[{"name":"","type":"bool","internalType":"bool"}],"stateMutability":"view"},{"type":"function","name":"resetExecutionState","inputs":[{"name":"caller","type":"address","internalType":"address"}],"outputs":[],"stateMutability":"nonpayable"},{"type":"function","name":"setExecutionContext","inputs":[{"name":"caller","type":"address","internalType":"address"}],"outputs":[],"stateMutability":"nonpayable"},{"type":"function","name":"setOutAmount","inputs":[{"name":"_outAmount","type":"uint256","internalType":"uint256"},{"name":"caller","type":"address","internalType":"address"}],"outputs":[],"stateMutability":"nonpayable"},{"type":"function","name":"spToken","inputs":[],"outputs":[{"name":"","type":"address","internalType":"address"}],"stateMutability":"view"},{"type":"function","name":"subType","inputs":[],"outputs":[{"name":"","type":"bytes32","internalType":"bytes32"}],"stateMutability":"view"},{"type":"function","name":"subtype","inputs":[],"outputs":[{"name":"","type":"bytes32","internalType":"bytes32"}],"stateMutability":"view"},{"type":"function","name":"usedShares","inputs":[],"outputs":[{"name":"","type":"uint256","internalType":"uint256"}],"stateMutability":"view"},{"type":"error","name":"ADDRESS_NOT_VALID","inputs":[]},{"type":"error","name":"AMOUNT_NOT_VALID","inputs":[]},{"type":"error","name":"CANNOT_SET_OUT_AMOUNT","inputs":[]},{"type":"error","name":"INCOMPLETE_HOOK_EXECUTION","inputs":[]},{"type":"error","name":"LENGTH_MISMATCH","inputs":[]},{"type":"error","name":"NOT_AUTHORIZED","inputs":[]},{"type":"error","name":"POST_EXECUTE_ALREADY_CALLED","inputs":[]},{"type":"error","name":"PRE_EXECUTE_ALREADY_CALLED","inputs":[]},{"type":"error","name":"UNAUTHORIZED_CALLER","inputs":[]}],"bytecode":{"object":"0x60a0604052348015600e575f5ffd5b506040805180820190915260058152642a37b5b2b760d91b6020909101525f805460ff191690557f1317f51c845ce3bfb7c268e5337a825f12f3d0af9584c2bbfbf4e64e314eaf736080526080516112276100785f395f81816101dd015261028701526112275ff3fe608060405234801561000f575f5ffd5b5060043610610111575f3560e01c806360b5be291161009e5780638c4313c11161006e5780638c4313c1146102505780638e14877614610270578063cf0a618114610282578063d06a1e89146102a9578063e445e7dd146102bc575f5ffd5b806360b5be2914610201578063685a943c1461022357806381cbe6911461022b57806384542a241461023e575f5ffd5b80632113522a116100e45780632113522a1461016c5780632ae2fe3d1461019657806338d52e0f146101a95780633b5896bc146101bb5780635492e677146101db575f5ffd5b806301bd43ef1461011557806305b4fe911461013157806314cb37cf146101465780631f26461914610159575b5f5ffd5b61011e60035c81565b6040519081526020015b60405180910390f35b61014461013f366004610dc6565b6102d5565b005b610144610154366004610e27565b610343565b610144610167366004610e49565b610364565b61017e6001600160a01b0360045c1681565b6040516001600160a01b039091168152602001610128565b6101446101a4366004610dc6565b6103bd565b61017e6001600160a01b0360025c1681565b6101ce6101c9366004610dc6565b610424565b6040516101289190610ea5565b7f000000000000000000000000000000000000000000000000000000000000000061011e565b61021360ff600160a81b60025c041681565b6040519015158152602001610128565b61011e5f5c81565b61011e610239366004610e27565b61063d565b61021360ff600160a01b60025c041681565b61026361025e366004610f32565b610655565b6040516101289190610f71565b61017e6001600160a01b0360015c1681565b61011e7f000000000000000000000000000000000000000000000000000000000000000081565b6101446102b7366004610e27565b61078a565b5f546102c89060ff1681565b6040516101289190610f83565b336001600160a01b038416146102fe5760405163e15e56c960e01b815260040160405180910390fd5b5f610308846107dc565b9050610313816107ef565b156103315760405163945b63f560e01b815260040160405180910390fd5b61033c8160016107fc565b5050505050565b61034c81610812565b50336004805c6001600160a01b0319168217905d5050565b5f61036e826107dc565b905061037981610844565b806103885750610388816107ef565b156103a65760405163441e4c7360e11b815260040160405180910390fd5b5f6103b282600161084d565b905083815d50505050565b336001600160a01b038416146103e65760405163e15e56c960e01b815260040160405180910390fd5b5f6103f0846107dc565b90506103fb81610844565b1561041957604051630bbb04d960e11b815260040160405180910390fd5b61033c8160016108a2565b60605f610433868686866108ae565b9050805160026104439190610fbd565b67ffffffffffffffff81111561045b5761045b610fd0565b6040519080825280602002602001820160405280156104a757816020015b60408051606080820183525f8083526020830152918101919091528152602001906001900390816104795790505b5091506040518060600160405280306001600160a01b031681526020015f8152602001306001600160a01b0316632ae2fe3d898989896040516024016104f09493929190610fe4565b604051602081830303815290604052915060e01b6020820180516001600160e01b038381831617835250505050815250825f815181106105325761053261102c565b60209081029190910101525f5b81518110156105935781818151811061055a5761055a61102c565b6020026020010151838260016105709190610fbd565b815181106105805761058061102c565b602090810291909101015260010161053f565b506040518060600160405280306001600160a01b031681526020015f8152602001306001600160a01b03166305b4fe91898989896040516024016105da9493929190610fe4565b604051602081830303815290604052915060e01b6020820180516001600160e01b03838183161783525050505081525082600184516106199190611040565b815181106106295761062961102c565b602002602001018190525050949350505050565b5f61064f61064a836107dc565b610b74565b92915050565b60605f61069684848080601f0160208091040260200160405190810160405280939291908181526020018383808284375f9201829052509250610b81915050565b90505f6106e585858080601f0160208091040260200160405190810160405280939291908181526020018383808284375f92019190915250601492506106e0915082905088611040565b610bea565b90505f818060200190518101906106fc9190611111565b5060408051606086901b6001600160601b03191660208201528151601481830301815260349091019091528151919250905f5b8181101561077d578284828151811061074a5761074a61102c565b60200260200101516040516020016107639291906111d8565b60408051601f19818403018152919052925060010161072f565b5090979650505050505050565b5f610794826107dc565b905061079f81610844565b15806107b157506107af816107ef565b155b156107cf57604051634bd439b560e11b815260040160405180910390fd5b6107d881610cef565b5050565b5f5f6107e783610d06565b5c9392505050565b5f5f6107e783600361084d565b5f61080883600361084d565b905081815d505050565b5f6003805c908261082283611202565b9190505d505f61083183610d06565b905060035c80825d505060035c92915050565b5f5f6107e78360025b604080517fc41a07c57a776f6217c6d4278dfe7a5d114742afe55627ce458c2802aa4d703460208083019190915281830194909452606080820193909352815180820390930183526080019052805191012090565b5f61080883600261084d565b60605f6108ef84848080601f0160208091040260200160405190810160405280939291908181526020018383808284375f9201829052509250610b81915050565b90505f61093985858080601f0160208091040260200160405190810160405280939291908181526020018383808284375f92019190915250601492506106e0915082905088611040565b90505f5f828060200190518101906109519190611111565b915091505f825190508151811461097b5760405163899ef10d60e01b815260040160405180910390fd5b8067ffffffffffffffff81111561099457610994610fd0565b6040519080825280602002602001820160405280156109e057816020015b60408051606080820183525f8083526020830152918101919091528152602001906001900390816109b25790505b5095505f5b81811015610b665773eeeeeeeeeeeeeeeeeeeeeeeeeeeeeeeeeeeeeeee6001600160a01b0316848281518110610a1d57610a1d61102c565b60200260200101516001600160a01b031603610aa0576040518060600160405280876001600160a01b03168152602001848381518110610a5f57610a5f61102c565b6020026020010151815260200160405180602001604052805f815250815250878281518110610a9057610a9061102c565b6020026020010181905250610b5e565b6040518060600160405280858381518110610abd57610abd61102c565b60200260200101516001600160a01b031681526020015f815260200187858481518110610aec57610aec61102c565b60209081029190910101516040516001600160a01b039092166024830152604482015260640160408051601f198184030181529190526020810180516001600160e01b031663a9059cbb60e01b17905290528751889083908110610b5257610b5261102c565b60200260200101819052505b6001016109e5565b505050505050949350505050565b5f5f6107e783600161084d565b5f610b8d826014610fbd565b83511015610bda5760405162461bcd60e51b8152602060048201526015602482015274746f416464726573735f6f75744f66426f756e647360581b60448201526064015b60405180910390fd5b500160200151600160601b900490565b60608182601f011015610c305760405162461bcd60e51b815260206004820152600e60248201526d736c6963655f6f766572666c6f7760901b6044820152606401610bd1565b610c3a8284610fbd565b84511015610c7e5760405162461bcd60e51b8152602060048201526011602482015270736c6963655f6f75744f66426f756e647360781b6044820152606401610bd1565b606082158015610c9c5760405191505f825260208201604052610ce6565b6040519150601f8416801560200281840101858101878315602002848b0101015b81831015610cd5578051835260209283019201610cbd565b5050858452601f01601f1916604052505b50949350505050565b610cf9815f6108a2565b610d03815f6107fc565b50565b5f7f8ce092d4869bdfa1a1ce579ddddb2b776c39ace5d7b5d7e70e97ece2a78f4f9b82604051602001610d5092919091825260601b6001600160601b031916602082015260340190565b604051602081830303815290604052805190602001209050919050565b6001600160a01b0381168114610d03575f5ffd5b5f5f83601f840112610d91575f5ffd5b50813567ffffffffffffffff811115610da8575f5ffd5b602083019150836020828501011115610dbf575f5ffd5b9250929050565b5f5f5f5f60608587031215610dd9575f5ffd5b8435610de481610d6d565b93506020850135610df481610d6d565b9250604085013567ffffffffffffffff811115610e0f575f5ffd5b610e1b87828801610d81565b95989497509550505050565b5f60208284031215610e37575f5ffd5b8135610e4281610d6d565b9392505050565b5f5f60408385031215610e5a575f5ffd5b823591506020830135610e6c81610d6d565b809150509250929050565b5f81518084528060208401602086015e5f602082860101526020601f19601f83011685010191505092915050565b5f602082016020835280845180835260408501915060408160051b8601019250602086015f5b82811015610f2657868503603f19018452815180516001600160a01b0316865260208082015190870152604090810151606091870182905290610f1090870182610e77565b9550506020938401939190910190600101610ecb565b50929695505050505050565b5f5f60208385031215610f43575f5ffd5b823567ffffffffffffffff811115610f59575f5ffd5b610f6585828601610d81565b90969095509350505050565b602081525f610e426020830184610e77565b6020810160038310610fa357634e487b7160e01b5f52602160045260245ffd5b91905290565b634e487b7160e01b5f52601160045260245ffd5b8082018082111561064f5761064f610fa9565b634e487b7160e01b5f52604160045260245ffd5b6001600160a01b038581168252841660208201526060604082018190528101829052818360808301375f818301608090810191909152601f909201601f191601019392505050565b634e487b7160e01b5f52603260045260245ffd5b8181038181111561064f5761064f610fa9565b604051601f8201601f1916810167ffffffffffffffff8111828210171561107c5761107c610fd0565b604052919050565b5f67ffffffffffffffff82111561109d5761109d610fd0565b5060051b60200190565b5f82601f8301126110b6575f5ffd5b81516110c96110c482611084565b611053565b8082825260208201915060208360051b8601019250858311156110ea575f5ffd5b602085015b838110156111075780518352602092830192016110ef565b5095945050505050565b5f5f60408385031215611122575f5ffd5b825167ffffffffffffffff811115611138575f5ffd5b8301601f81018513611148575f5ffd5b80516111566110c482611084565b8082825260208201915060208360051b850101925087831115611177575f5ffd5b6020840193505b828410156111a257835161119181610d6d565b82526020938401939091019061117e565b80955050505050602083015167ffffffffffffffff8111156111c2575f5ffd5b6111ce858286016110a7565b9150509250929050565b5f83518060208601845e60609390931b6001600160601b0319169190920190815260140192915050565b5f6001820161121357611213610fa9565b506001019056fea164736f6c634300081e000a","linkReferences":{}},"methodIdentifiers":{"asset()":"38d52e0f","build(address,address,bytes)":"3b5896bc","executionNonce()":"01bd43ef","getOutAmount(address)":"81cbe691","hookType()":"e445e7dd","inspect(bytes)":"8c4313c1","lastCaller()":"2113522a","postExecute(address,address,bytes)":"05b4fe91","postExecuteMutex()":"60b5be29","preExecute(address,address,bytes)":"2ae2fe3d","preExecuteMutex()":"84542a24","resetExecutionState(address)":"d06a1e89","setExecutionContext(address)":"14cb37cf","setOutAmount(uint256,address)":"1f264619","spToken()":"8e148776","subType()":"cf0a6181","subtype()":"5492e677","usedShares()":"685a943c"},"id":531}