{"abi":[{"type":"constructor","inputs":[{"name":"permit2_","type":"address","internalType":"address"}],"stateMutability":"nonpayable"},{"type":"function","name":"PERMIT_2","inputs":[],"outputs":[{"name":"","type":"address","internalType":"address"}],"stateMutability":"view"},{"type":"function","name":"PERMIT_2_INTERFACE","inputs":[],"outputs":[{"name":"","type":"address","internalType":"contract IPermit2"}],"stateMutability":"view"},{"type":"function","name":"asset","inputs":[],"outputs":[{"name":"","type":"address","internalType":"address"}],"stateMutability":"view"},{"type":"function","name":"build","inputs":[{"name":"prevHook","type":"address","internalType":"address"},{"name":"account","type":"address","internalType":"address"},{"name":"hookData","type":"bytes","internalType":"bytes"}],"outputs":[{"name":"executions","type":"tuple[]","internalType":"struct Execution[]","components":[{"name":"target","type":"address","internalType":"address"},{"name":"value","type":"uint256","internalType":"uint256"},{"name":"callData","type":"bytes","internalType":"bytes"}]}],"stateMutability":"view"},{"type":"function","name":"executionNonce","inputs":[],"outputs":[{"name":"","type":"uint256","internalType":"uint256"}],"stateMutability":"view"},{"type":"function","name":"getOutAmount","inputs":[{"name":"caller","type":"address","internalType":"address"}],"outputs":[{"name":"","type":"uint256","internalType":"uint256"}],"stateMutability":"view"},{"type":"function","name":"hookType","inputs":[],"outputs":[{"name":"","type":"uint8","internalType":"enum ISuperHook.HookType"}],"stateMutability":"view"},{"type":"function","name":"inspect","inputs":[{"name":"data","type":"bytes","internalType":"bytes"}],"outputs":[{"name":"","type":"bytes","internalType":"bytes"}],"stateMutability":"pure"},{"type":"function","name":"lastCaller","inputs":[],"outputs":[{"name":"","type":"address","internalType":"address"}],"stateMutability":"view"},{"type":"function","name":"postExecute","inputs":[{"name":"prevHook","type":"address","internalType":"address"},{"name":"account","type":"address","internalType":"address"},{"name":"data","type":"bytes","internalType":"bytes"}],"outputs":[],"stateMutability":"nonpayable"},{"type":"function","name":"postExecuteMutex","inputs":[],"outputs":[{"name":"","type":"bool","internalType":"bool"}],"stateMutability":"view"},{"type":"function","name":"preExecute","inputs":[{"name":"prevHook","type":"address","internalType":"address"},{"name":"account","type":"address","internalType":"address"},{"name":"data","type":"bytes","internalType":"bytes"}],"outputs":[],"stateMutability":"nonpayable"},{"type":"function","name":"preExecuteMutex","inputs":[],"outputs":[{"name":"","type":"bool","internalType":"bool"}],"stateMutability":"view"},{"type":"function","name":"resetExecutionState","inputs":[{"name":"caller","type":"address","internalType":"address"}],"outputs":[],"stateMutability":"nonpayable"},{"type":"function","name":"setExecutionContext","inputs":[{"name":"caller","type":"address","internalType":"address"}],"outputs":[],"stateMutability":"nonpayable"},{"type":"function","name":"setOutAmount","inputs":[{"name":"_outAmount","type":"uint256","internalType":"uint256"},{"name":"caller","type":"address","internalType":"address"}],"outputs":[],"stateMutability":"nonpayable"},{"type":"function","name":"spToken","inputs":[],"outputs":[{"name":"","type":"address","internalType":"address"}],"stateMutability":"view"},{"type":"function","name":"subType","inputs":[],"outputs":[{"name":"","type":"bytes32","internalType":"bytes32"}],"stateMutability":"view"},{"type":"function","name":"subtype","inputs":[],"outputs":[{"name":"","type":"bytes32","internalType":"bytes32"}],"stateMutability":"view"},{"type":"function","name":"usedShares","inputs":[],"outputs":[{"name":"","type":"uint256","internalType":"uint256"}],"stateMutability":"view"},{"type":"error","name":"ADDRESS_NOT_VALID","inputs":[]},{"type":"error","name":"AMOUNT_NOT_VALID","inputs":[]},{"type":"error","name":"CANNOT_SET_OUT_AMOUNT","inputs":[]},{"type":"error","name":"INCOMPLETE_HOOK_EXECUTION","inputs":[]},{"type":"error","name":"INSUFFICIENT_BALANCE","inputs":[]},{"type":"error","name":"INVALID_ARRAY_LENGTH","inputs":[]},{"type":"error","name":"NOT_AUTHORIZED","inputs":[]},{"type":"error","name":"POST_EXECUTE_ALREADY_CALLED","inputs":[]},{"type":"error","name":"PRE_EXECUTE_ALREADY_CALLED","inputs":[]},{"type":"error","name":"SafeCastOverflowedUintDowncast","inputs":[{"name":"bits","type":"uint8","internalType":"uint8"},{"name":"value","type":"uint256","internalType":"uint256"}]},{"type":"error","name":"UNAUTHORIZED_CALLER","inputs":[]}],"bytecode":{"object":"0x60e060405234801561000f575f5ffd5b50604051611a5b380380611a5b83398101604081905261002e916100b5565b6040805180820190915260058152642a37b5b2b760d91b6020909101525f805460ff191690557f1317f51c845ce3bfb7c268e5337a825f12f3d0af9584c2bbfbf4e64e314eaf736080526001600160a01b03811661009f57604051630f58648f60e01b815260040160405180910390fd5b6001600160a01b031660a081905260c0526100e2565b5f602082840312156100c5575f5ffd5b81516001600160a01b03811681146100db575f5ffd5b9392505050565b60805160a05160c05161193a6101215f395f6102c401525f818161024601528181610eff0152610fc101525f81816101f301526102eb015261193a5ff3fe608060405234801561000f575f5ffd5b5060043610610127575f3560e01c8063685a943c116100a95780638e1487761161006e5780638e148776146102ad5780639d010217146102bf578063cf0a6181146102e6578063d06a1e891461030d578063e445e7dd14610320575f5ffd5b8063685a943c14610239578063789d72fa1461024157806381cbe6911461026857806384542a241461027b5780638c4313c11461028d575f5ffd5b80632ae2fe3d116100ef5780632ae2fe3d146101ac57806338d52e0f146101bf5780633b5896bc146101d15780635492e677146101f157806360b5be2914610217575f5ffd5b806301bd43ef1461012b57806305b4fe911461014757806314cb37cf1461015c5780631f2646191461016f5780632113522a14610182575b5f5ffd5b61013460035c81565b6040519081526020015b60405180910390f35b61015a6101553660046114db565b610339565b005b61015a61016a366004611538565b6103a7565b61015a61017d366004611558565b6103c8565b6101946001600160a01b0360045c1681565b6040516001600160a01b03909116815260200161013e565b61015a6101ba3660046114db565b610421565b6101946001600160a01b0360025c1681565b6101e46101df3660046114db565b610488565b60405161013e91906115b0565b7f0000000000000000000000000000000000000000000000000000000000000000610134565b61022960ff600160a81b60025c041681565b604051901515815260200161013e565b6101345f5c81565b6101947f000000000000000000000000000000000000000000000000000000000000000081565b610134610276366004611538565b6106a1565b61022960ff600160a01b60025c041681565b6102a061029b36600461163d565b6106b9565b60405161013e919061167c565b6101946001600160a01b0360015c1681565b6101947f000000000000000000000000000000000000000000000000000000000000000081565b6101347f000000000000000000000000000000000000000000000000000000000000000081565b61015a61031b366004611538565b6108b4565b5f5461032c9060ff1681565b60405161013e919061168e565b336001600160a01b038416146103625760405163e15e56c960e01b815260040160405180910390fd5b5f61036c84610906565b905061037781610919565b156103955760405163945b63f560e01b815260040160405180910390fd5b6103a0816001610926565b5050505050565b6103b08161093c565b50336004805c6001600160a01b0319168217905d5050565b5f6103d282610906565b90506103dd8161096e565b806103ec57506103ec81610919565b1561040a5760405163441e4c7360e11b815260040160405180910390fd5b5f610416826001610977565b905083815d50505050565b336001600160a01b0384161461044a5760405163e15e56c960e01b815260040160405180910390fd5b5f61045484610906565b905061045f8161096e565b1561047d57604051630bbb04d960e11b815260040160405180910390fd5b6103a08160016109cc565b60605f610497868686866109d8565b9050805160026104a791906116c8565b67ffffffffffffffff8111156104bf576104bf6116db565b60405190808252806020026020018201604052801561050b57816020015b60408051606080820183525f8083526020830152918101919091528152602001906001900390816104dd5790505b5091506040518060600160405280306001600160a01b031681526020015f8152602001306001600160a01b0316632ae2fe3d8989898960405160240161055494939291906116ef565b604051602081830303815290604052915060e01b6020820180516001600160e01b038381831617835250505050815250825f8151811061059657610596611737565b60209081029190910101525f5b81518110156105f7578181815181106105be576105be611737565b6020026020010151838260016105d491906116c8565b815181106105e4576105e4611737565b60209081029190910101526001016105a3565b506040518060600160405280306001600160a01b031681526020015f8152602001306001600160a01b03166305b4fe918989898960405160240161063e94939291906116ef565b604051602081830303815290604052915060e01b6020820180516001600160e01b038381831617835250505050815250826001845161067d919061174b565b8151811061068d5761068d611737565b602002602001018190525050949350505050565b5f6106b36106ae83610906565b611020565b92915050565b60605f6106fd84848080601f0160208091040260200160405190810160405280939291908181526020018383808284375f920191909152506014925061102d915050565b90505f61074d85858080601f0160208091040260200160405190810160405280939291908181526020018383808284375f92019190915250605492506107489150869050601461175e565b61108f565b90505f8267ffffffffffffffff811115610769576107696116db565b604051908082528060200260200182016040528015610792578160200160208202803683370190505b5090505f5b838110156107e5576107b3836107ae83601461175e565b611194565b8282815181106107c5576107c5611737565b6001600160a01b0390921660209283029190910190910152600101610797565b505f61082587878080601f0160208091040260200160405190810160405280939291908181526020018383808284375f9201829052509250611194915050565b604051602001610848919060609190911b6001600160601b031916815260140190565b60405160208183030381529060405290505f5b848110156108a9578183828151811061087657610876611737565b602002602001015160405160200161088f929190611775565b60408051601f19818403018152919052915060010161085b565b509695505050505050565b5f6108be82610906565b90506108c98161096e565b15806108db57506108d981610919565b155b156108f957604051634bd439b560e11b815260040160405180910390fd5b610902816111f8565b5050565b5f5f6109118361120f565b5c9392505050565b5f5f610911836003610977565b5f610932836003610977565b905081815d505050565b5f6003805c908261094c8361179f565b9190505d505f61095b8361120f565b905060035c80825d505060035c92915050565b5f5f6109118360025b604080517fc41a07c57a776f6217c6d4278dfe7a5d114742afe55627ce458c2802aa4d703460208083019190915281830194909452606080820193909352815180820390930183526080019052805191012090565b5f610932836002610977565b60606109e26113f9565b610a2084848080601f0160208091040260200160405190810160405280939291908181526020018383808284375f9201829052509250611194915050565b6001600160a01b0316808252610a4957604051630f58648f60e01b815260040160405180910390fd5b610a8a84848080601f0160208091040260200160405190810160405280939291908181526020018383808284375f920191909152506014925061102d915050565b602082018190525f03610ab05760405163c6a335ff60e01b815260040160405180910390fd5b610af184848080601f0160208091040260200160405190810160405280939291908181526020018383808284375f920191909152506034925061102d915050565b816040018181525050610b4584848080601f0160208091040260200160405190810160405280939291908181526020018383808284375f92019190915250505060208401516054915061074890601461175e565b6060820152604080516020601f8601819004810282018101909252848152610baa9186908690819084018382808284375f9201919091525050506020840151610b909150601461175e565b610b9b9060546116c8565b6020808501516107489161175e565b6080820152604080516020601f8601819004810282018101909252848152610c299186908690819084018382808284375f92019190915250505050602083810151610bf49161175e565b6020840151610c0490601461175e565b610c0f9060546116c8565b610c1991906116c8565b602084015161074890600661175e565b60a0820152604080516020601f8601819004810282018101909252848152610c799186908690819084018382808284375f92019190915250610c7292506041915087905061174b565b604161108f565b60c08201526040805160028082526060820190925290816020015b60408051606080820183525f808352602083015291810191909152815260200190600190039081610c94579050509150806020015167ffffffffffffffff811115610ce157610ce16116db565b604051908082528060200260200182016040528015610d3157816020015b604080516080810182525f8082526020808301829052928201819052606082015282525f19909201910181610cff5790505b5060e08201525f5b8160200151811015610e79575f610d5b83606001518360146107ae919061175e565b90505f610d788460800151846020610d73919061175e565b61102d565b90505f610d978560a00151856006610d90919061175e565b600661108f565b90505f60d0610da5836117b7565b901c90506001600160a01b038416610dd057604051630f58648f60e01b815260040160405180910390fd5b825f03610df0576040516305112ab160e41b815260040160405180910390fd5b6040518060800160405280856001600160a01b03168152602001610e1385611276565b6001600160a01b03168152602001610e2e88604001516112ad565b65ffffffffffff1681526020018265ffffffffffff168152508660e001518681518110610e5d57610e5d611737565b6020026020010181905250505050508080600101915050610d39565b506040805160608101825260e083015181526001600160a01b038716602082015282820151818301526101008301819052825160c084015192515f93610ec293916024016117dd565b60408051601f19818403018152918152602080830180516001600160e01b0316632a2d80d160e01b17905281516060810183526001600160a01b037f00000000000000000000000000000000000000000000000000000000000000001681525f91810182905291820183905285519293509091859190610f4457610f44611737565b6020026020010181905250610f6b825f0151878460600151856080015186602001516112df565b61012083018190526040515f91610f84916024016118b6565b60408051601f19818403018152918152602080830180516001600160e01b0316630d58b1db60e01b17905281516060810183526001600160a01b037f00000000000000000000000000000000000000000000000000000000000000001681525f918101919091529081018290528551919250908590600190811061100a5761100a611737565b6020026020010181905250505050949350505050565b5f5f610911836001610977565b5f6110398260206116c8565b835110156110865760405162461bcd60e51b8152602060048201526015602482015274746f55696e743235365f6f75744f66426f756e647360581b60448201526064015b60405180910390fd5b50016020015190565b60608182601f0110156110d55760405162461bcd60e51b815260206004820152600e60248201526d736c6963655f6f766572666c6f7760901b604482015260640161107d565b6110df82846116c8565b845110156111235760405162461bcd60e51b8152602060048201526011602482015270736c6963655f6f75744f66426f756e647360781b604482015260640161107d565b6060821580156111415760405191505f82526020820160405261118b565b6040519150601f8416801560200281840101858101878315602002848b0101015b8183101561117a578051835260209283019201611162565b5050858452601f01601f1916604052505b50949350505050565b5f6111a08260146116c8565b835110156111e85760405162461bcd60e51b8152602060048201526015602482015274746f416464726573735f6f75744f66426f756e647360581b604482015260640161107d565b500160200151600160601b900490565b611202815f6109cc565b61120c815f610926565b50565b5f7f8ce092d4869bdfa1a1ce579ddddb2b776c39ace5d7b5d7e70e97ece2a78f4f9b8260405160200161125992919091825260601b6001600160601b031916602082015260340190565b604051602081830303815290604052805190602001209050919050565b5f6001600160a01b038211156112a9576040516306dfcc6560e41b815260a060048201526024810183905260440161107d565b5090565b5f65ffffffffffff8211156112a9576040516306dfcc6560e41b8152603060048201526024810183905260440161107d565b60608167ffffffffffffffff8111156112fa576112fa6116db565b60405190808252806020026020018201604052801561134a57816020015b604080516080810182525f8082526020808301829052928201819052606082015282525f199092019101816113185790505b5090505f5b828110156113ef575f611367866107ae84601461175e565b90505f61137986610d7385602061175e565b905060405180608001604052808a6001600160a01b03168152602001896001600160a01b031681526020016113ad83611276565b6001600160a01b03168152602001836001600160a01b03168152508484815181106113da576113da611737565b6020908102919091010152505060010161134f565b5095945050505050565b6040518061014001604052805f6001600160a01b031681526020015f81526020015f8152602001606081526020016060815260200160608152602001606081526020016060815260200161146e6040518060600160405280606081526020015f6001600160a01b031681526020015f81525090565b8152602001606081525090565b80356001600160a01b0381168114611491575f5ffd5b919050565b5f5f83601f8401126114a6575f5ffd5b50813567ffffffffffffffff8111156114bd575f5ffd5b6020830191508360208285010111156114d4575f5ffd5b9250929050565b5f5f5f5f606085870312156114ee575f5ffd5b6114f78561147b565b93506115056020860161147b565b9250604085013567ffffffffffffffff811115611520575f5ffd5b61152c87828801611496565b95989497509550505050565b5f60208284031215611548575f5ffd5b6115518261147b565b9392505050565b5f5f60408385031215611569575f5ffd5b823591506115796020840161147b565b90509250929050565b5f81518084528060208401602086015e5f602082860101526020601f19601f83011685010191505092915050565b5f602082016020835280845180835260408501915060408160051b8601019250602086015f5b8281101561163157868503603f19018452815180516001600160a01b031686526020808201519087015260409081015160609187018290529061161b90870182611582565b95505060209384019391909101906001016115d6565b50929695505050505050565b5f5f6020838503121561164e575f5ffd5b823567ffffffffffffffff811115611664575f5ffd5b61167085828601611496565b90969095509350505050565b602081525f6115516020830184611582565b60208101600383106116ae57634e487b7160e01b5f52602160045260245ffd5b91905290565b634e487b7160e01b5f52601160045260245ffd5b808201808211156106b3576106b36116b4565b634e487b7160e01b5f52604160045260245ffd5b6001600160a01b038581168252841660208201526060604082018190528101829052818360808301375f818301608090810191909152601f909201601f191601019392505050565b634e487b7160e01b5f52603260045260245ffd5b818103818111156106b3576106b36116b4565b80820281158282048414176106b3576106b36116b4565b5f83518060208601845e60609390931b6001600160601b0319169190920190815260140192915050565b5f600182016117b0576117b06116b4565b5060010190565b805160208083015191908110156117d7575f198160200360031b1b821691505b50919050565b6001600160a01b038416815260606020808301829052845182840192909252815160c084018190525f9290910190829060e08501905b8083101561187757835160018060a01b03815116835260018060a01b03602082015116602084015265ffffffffffff604082015116604084015265ffffffffffff606082015116606084015250608082019150602084019350600183019250611813565b5060208701516001600160a01b03811660808701529250604087015160a086015284810360408601526118aa8187611582565b98975050505050505050565b602080825282518282018190525f918401906040840190835b8181101561192257835180516001600160a01b03908116855260208083015182168187015260408084015183169087015260609283015190911691850191909152909301926080909201916001016118cf565b50909594505050505056fea164736f6c634300081e000a","linkReferences":{}},"methodIdentifiers":{"PERMIT_2()":"789d72fa","PERMIT_2_INTERFACE()":"9d010217","asset()":"38d52e0f","build(address,address,bytes)":"3b5896bc","executionNonce()":"01bd43ef","getOutAmount(address)":"81cbe691","hookType()":"e445e7dd","inspect(bytes)":"8c4313c1","lastCaller()":"2113522a","postExecute(address,address,bytes)":"05b4fe91","postExecuteMutex()":"60b5be29","preExecute(address,address,bytes)":"2ae2fe3d","preExecuteMutex()":"84542a24","resetExecutionState(address)":"d06a1e89","setExecutionContext(address)":"14cb37cf","setOutAmount(uint256,address)":"1f264619","spToken()":"8e148776","subType()":"cf0a6181","subtype()":"5492e677","usedShares()":"685a943c"},"id":377}