{"abi":[{"type":"constructor","inputs":[],"stateMutability":"nonpayable"},{"type":"function","name":"asset","inputs":[],"outputs":[{"name":"","type":"address","internalType":"address"}],"stateMutability":"view"},{"type":"function","name":"build","inputs":[{"name":"prevHook","type":"address","internalType":"address"},{"name":"account","type":"address","internalType":"address"},{"name":"hookData","type":"bytes","internalType":"bytes"}],"outputs":[{"name":"executions","type":"tuple[]","internalType":"struct Execution[]","components":[{"name":"target","type":"address","internalType":"address"},{"name":"value","type":"uint256","internalType":"uint256"},{"name":"callData","type":"bytes","internalType":"bytes"}]}],"stateMutability":"view"},{"type":"function","name":"executionNonce","inputs":[],"outputs":[{"name":"","type":"uint256","internalType":"uint256"}],"stateMutability":"view"},{"type":"function","name":"getOutAmount","inputs":[{"name":"caller","type":"address","internalType":"address"}],"outputs":[{"name":"","type":"uint256","internalType":"uint256"}],"stateMutability":"view"},{"type":"function","name":"hookType","inputs":[],"outputs":[{"name":"","type":"uint8","internalType":"enum ISuperHook.HookType"}],"stateMutability":"view"},{"type":"function","name":"inspect","inputs":[{"name":"data","type":"bytes","internalType":"bytes"}],"outputs":[{"name":"","type":"bytes","internalType":"bytes"}],"stateMutability":"pure"},{"type":"function","name":"lastCaller","inputs":[],"outputs":[{"name":"","type":"address","internalType":"address"}],"stateMutability":"view"},{"type":"function","name":"postExecute","inputs":[{"name":"prevHook","type":"address","internalType":"address"},{"name":"account","type":"address","internalType":"address"},{"name":"data","type":"bytes","internalType":"bytes"}],"outputs":[],"stateMutability":"nonpayable"},{"type":"function","name":"postExecuteMutex","inputs":[],"outputs":[{"name":"","type":"bool","internalType":"bool"}],"stateMutability":"view"},{"type":"function","name":"preExecute","inputs":[{"name":"prevHook","type":"address","internalType":"address"},{"name":"account","type":"address","internalType":"address"},{"name":"data","type":"bytes","internalType":"bytes"}],"outputs":[],"stateMutability":"nonpayable"},{"type":"function","name":"preExecuteMutex","inputs":[],"outputs":[{"name":"","type":"bool","internalType":"bool"}],"stateMutability":"view"},{"type":"function","name":"resetExecutionState","inputs":[{"name":"caller","type":"address","internalType":"address"}],"outputs":[],"stateMutability":"nonpayable"},{"type":"function","name":"setExecutionContext","inputs":[{"name":"caller","type":"address","internalType":"address"}],"outputs":[],"stateMutability":"nonpayable"},{"type":"function","name":"setOutAmount","inputs":[{"name":"_outAmount","type":"uint256","internalType":"uint256"},{"name":"caller","type":"address","internalType":"address"}],"outputs":[],"stateMutability":"nonpayable"},{"type":"function","name":"spToken","inputs":[],"outputs":[{"name":"","type":"address","internalType":"address"}],"stateMutability":"view"},{"type":"function","name":"subType","inputs":[],"outputs":[{"name":"","type":"bytes32","internalType":"bytes32"}],"stateMutability":"view"},{"type":"function","name":"subtype","inputs":[],"outputs":[{"name":"","type":"bytes32","internalType":"bytes32"}],"stateMutability":"view"},{"type":"function","name":"usedShares","inputs":[],"outputs":[{"name":"","type":"uint256","internalType":"uint256"}],"stateMutability":"view"},{"type":"error","name":"ADDRESS_NOT_VALID","inputs":[]},{"type":"error","name":"AMOUNT_NOT_VALID","inputs":[]},{"type":"error","name":"CANNOT_SET_OUT_AMOUNT","inputs":[]},{"type":"error","name":"INCOMPLETE_HOOK_EXECUTION","inputs":[]},{"type":"error","name":"NOT_AUTHORIZED","inputs":[]},{"type":"error","name":"POST_EXECUTE_ALREADY_CALLED","inputs":[]},{"type":"error","name":"PRE_EXECUTE_ALREADY_CALLED","inputs":[]},{"type":"error","name":"UNAUTHORIZED_CALLER","inputs":[]}],"bytecode":{"object":"0x60a0604052348015600e575f5ffd5b5060408051808201909152601481527f43616e63656c4465706f736974526571756573740000000000000000000000006020909101525f805460ff191690557fa80ed216577410a8484eae9cf1d0238bb7de7cc1458c698177d5b2278624de85608052608051610d366100905f395f81816101dd01526102870152610d365ff3fe608060405234801561000f575f5ffd5b5060043610610111575f3560e01c806360b5be291161009e5780638c4313c11161006e5780638c4313c1146102505780638e14877614610270578063cf0a618114610282578063d06a1e89146102a9578063e445e7dd146102bc575f5ffd5b806360b5be2914610201578063685a943c1461022357806381cbe6911461022b57806384542a241461023e575f5ffd5b80632113522a116100e45780632113522a1461016c5780632ae2fe3d1461019657806338d52e0f146101a95780633b5896bc146101bb5780635492e677146101db575f5ffd5b806301bd43ef1461011557806305b4fe911461013157806314cb37cf146101465780631f26461914610159575b5f5ffd5b61011e60035c81565b6040519081526020015b60405180910390f35b61014461013f366004610a8e565b6102d5565b005b610144610154366004610aeb565b610343565b610144610167366004610b0b565b610364565b61017e6001600160a01b0360045c1681565b6040516001600160a01b039091168152602001610128565b6101446101a4366004610a8e565b6103bd565b61017e6001600160a01b0360025c1681565b6101ce6101c9366004610a8e565b610424565b6040516101289190610b63565b7f000000000000000000000000000000000000000000000000000000000000000061011e565b61021360ff600160a81b60025c041681565b6040519015158152602001610128565b61011e5f5c81565b61011e610239366004610aeb565b61063d565b61021360ff600160a01b60025c041681565b61026361025e366004610bf0565b610655565b6040516101289190610c2f565b61017e6001600160a01b0360015c1681565b61011e7f000000000000000000000000000000000000000000000000000000000000000081565b6101446102b7366004610aeb565b6106d4565b5f546102c89060ff1681565b6040516101289190610c41565b336001600160a01b038416146102fe5760405163e15e56c960e01b815260040160405180910390fd5b5f61030884610726565b905061031381610739565b156103315760405163945b63f560e01b815260040160405180910390fd5b61033c816001610746565b5050505050565b61034c8161075c565b50336004805c6001600160a01b0319168217905d5050565b5f61036e82610726565b90506103798161078e565b80610388575061038881610739565b156103a65760405163441e4c7360e11b815260040160405180910390fd5b5f6103b2826001610797565b905083815d50505050565b336001600160a01b038416146103e65760405163e15e56c960e01b815260040160405180910390fd5b5f6103f084610726565b90506103fb8161078e565b1561041957604051630bbb04d960e11b815260040160405180910390fd5b61033c8160016107ec565b60605f610433868686866107f8565b9050805160026104439190610c7b565b67ffffffffffffffff81111561045b5761045b610c8e565b6040519080825280602002602001820160405280156104a757816020015b60408051606080820183525f8083526020830152918101919091528152602001906001900390816104795790505b5091506040518060600160405280306001600160a01b031681526020015f8152602001306001600160a01b0316632ae2fe3d898989896040516024016104f09493929190610ca2565b604051602081830303815290604052915060e01b6020820180516001600160e01b038381831617835250505050815250825f8151811061053257610532610cea565b60209081029190910101525f5b81518110156105935781818151811061055a5761055a610cea565b6020026020010151838260016105709190610c7b565b8151811061058057610580610cea565b602090810291909101015260010161053f565b506040518060600160405280306001600160a01b031681526020015f8152602001306001600160a01b03166305b4fe91898989896040516024016105da9493929190610ca2565b604051602081830303815290604052915060e01b6020820180516001600160e01b03838183161783525050505081525082600184516106199190610cfe565b8151811061062957610629610cea565b602002602001018190525050949350505050565b5f61064f61064a83610726565b61092a565b92915050565b606061069583838080601f0160208091040260200160405190810160405280939291908181526020018383808284375f9201919091525061093792505050565b6040516020016106bd919060609190911b6bffffffffffffffffffffffff1916815260140190565b604051602081830303815290604052905092915050565b5f6106de82610726565b90506106e98161078e565b15806106fb57506106f981610739565b155b1561071957604051634bd439b560e11b815260040160405180910390fd5b61072281610943565b5050565b5f5f6107318361095a565b5c9392505050565b5f5f610731836003610797565b5f610752836003610797565b905081815d505050565b5f6003805c908261076c83610d11565b9190505d505f61077b8361095a565b905060035c80825d505060035c92915050565b5f5f6107318360025b604080517fc41a07c57a776f6217c6d4278dfe7a5d114742afe55627ce458c2802aa4d703460208083019190915281830194909452606080820193909352815180820390930183526080019052805191012090565b5f610752836002610797565b60605f61083984848080601f0160208091040260200160405190810160405280939291908181526020018383808284375f9201919091525061093792505050565b90506001600160a01b03811661086257604051630f58648f60e01b815260040160405180910390fd5b60408051600180825281830190925290816020015b60408051606080820183525f8083526020830152918101919091528152602001906001900390816108775790505091506040518060600160405280826001600160a01b031681526020015f81526020015f876040516024016108ec9291909182526001600160a01b0316602082015260400190565b60408051601f198184030181529190526020810180516001600160e01b0316632e73c18d60e21b1790529052825183905f9061062957610629610cea565b5f5f610731836001610797565b5f61064f8260206109c6565b61094d815f6107ec565b610957815f610746565b50565b5f7f8ce092d4869bdfa1a1ce579ddddb2b776c39ace5d7b5d7e70e97ece2a78f4f9b826040516020016109a992919091825260601b6bffffffffffffffffffffffff1916602082015260340190565b604051602081830303815290604052805190602001209050919050565b5f6109d2826014610c7b565b83511015610a1e5760405162461bcd60e51b8152602060048201526015602482015274746f416464726573735f6f75744f66426f756e647360581b604482015260640160405180910390fd5b500160200151600160601b900490565b80356001600160a01b0381168114610a44575f5ffd5b919050565b5f5f83601f840112610a59575f5ffd5b50813567ffffffffffffffff811115610a70575f5ffd5b602083019150836020828501011115610a87575f5ffd5b9250929050565b5f5f5f5f60608587031215610aa1575f5ffd5b610aaa85610a2e565b9350610ab860208601610a2e565b9250604085013567ffffffffffffffff811115610ad3575f5ffd5b610adf87828801610a49565b95989497509550505050565b5f60208284031215610afb575f5ffd5b610b0482610a2e565b9392505050565b5f5f60408385031215610b1c575f5ffd5b82359150610b2c60208401610a2e565b90509250929050565b5f81518084528060208401602086015e5f602082860101526020601f19601f83011685010191505092915050565b5f602082016020835280845180835260408501915060408160051b8601019250602086015f5b82811015610be457868503603f19018452815180516001600160a01b0316865260208082015190870152604090810151606091870182905290610bce90870182610b35565b9550506020938401939190910190600101610b89565b50929695505050505050565b5f5f60208385031215610c01575f5ffd5b823567ffffffffffffffff811115610c17575f5ffd5b610c2385828601610a49565b90969095509350505050565b602081525f610b046020830184610b35565b6020810160038310610c6157634e487b7160e01b5f52602160045260245ffd5b91905290565b634e487b7160e01b5f52601160045260245ffd5b8082018082111561064f5761064f610c67565b634e487b7160e01b5f52604160045260245ffd5b6001600160a01b038581168252841660208201526060604082018190528101829052818360808301375f818301608090810191909152601f909201601f191601019392505050565b634e487b7160e01b5f52603260045260245ffd5b8181038181111561064f5761064f610c67565b5f60018201610d2257610d22610c67565b506001019056fea164736f6c634300081e000a","linkReferences":{}},"methodIdentifiers":{"asset()":"38d52e0f","build(address,address,bytes)":"3b5896bc","executionNonce()":"01bd43ef","getOutAmount(address)":"81cbe691","hookType()":"e445e7dd","inspect(bytes)":"8c4313c1","lastCaller()":"2113522a","postExecute(address,address,bytes)":"05b4fe91","postExecuteMutex()":"60b5be29","preExecute(address,address,bytes)":"2ae2fe3d","preExecuteMutex()":"84542a24","resetExecutionState(address)":"d06a1e89","setExecutionContext(address)":"14cb37cf","setOutAmount(uint256,address)":"1f264619","spToken()":"8e148776","subType()":"cf0a6181","subtype()":"5492e677","usedShares()":"685a943c"},"id":386}