{"abi":[{"type":"constructor","inputs":[],"stateMutability":"nonpayable"},{"type":"function","name":"asset","inputs":[],"outputs":[{"name":"","type":"address","internalType":"address"}],"stateMutability":"view"},{"type":"function","name":"build","inputs":[{"name":"prevHook","type":"address","internalType":"address"},{"name":"account","type":"address","internalType":"address"},{"name":"hookData","type":"bytes","internalType":"bytes"}],"outputs":[{"name":"executions","type":"tuple[]","internalType":"struct Execution[]","components":[{"name":"target","type":"address","internalType":"address"},{"name":"value","type":"uint256","internalType":"uint256"},{"name":"callData","type":"bytes","internalType":"bytes"}]}],"stateMutability":"view"},{"type":"function","name":"dstChainId","inputs":[],"outputs":[{"name":"","type":"uint256","internalType":"uint256"}],"stateMutability":"view"},{"type":"function","name":"executionNonce","inputs":[],"outputs":[{"name":"","type":"uint256","internalType":"uint256"}],"stateMutability":"view"},{"type":"function","name":"getOutAmount","inputs":[{"name":"caller","type":"address","internalType":"address"}],"outputs":[{"name":"","type":"uint256","internalType":"uint256"}],"stateMutability":"view"},{"type":"function","name":"hookType","inputs":[],"outputs":[{"name":"","type":"uint8","internalType":"enum ISuperHook.HookType"}],"stateMutability":"view"},{"type":"function","name":"inspect","inputs":[{"name":"data","type":"bytes","internalType":"bytes"}],"outputs":[{"name":"","type":"bytes","internalType":"bytes"}],"stateMutability":"pure"},{"type":"function","name":"isAsyncCancelHook","inputs":[],"outputs":[{"name":"","type":"uint8","internalType":"enum ISuperHookAsyncCancelations.CancelationType"}],"stateMutability":"pure"},{"type":"function","name":"lastCaller","inputs":[],"outputs":[{"name":"","type":"address","internalType":"address"}],"stateMutability":"view"},{"type":"function","name":"postExecute","inputs":[{"name":"prevHook","type":"address","internalType":"address"},{"name":"account","type":"address","internalType":"address"},{"name":"data","type":"bytes","internalType":"bytes"}],"outputs":[],"stateMutability":"nonpayable"},{"type":"function","name":"postExecuteMutex","inputs":[],"outputs":[{"name":"","type":"bool","internalType":"bool"}],"stateMutability":"view"},{"type":"function","name":"preExecute","inputs":[{"name":"prevHook","type":"address","internalType":"address"},{"name":"account","type":"address","internalType":"address"},{"name":"data","type":"bytes","internalType":"bytes"}],"outputs":[],"stateMutability":"nonpayable"},{"type":"function","name":"preExecuteMutex","inputs":[],"outputs":[{"name":"","type":"bool","internalType":"bool"}],"stateMutability":"view"},{"type":"function","name":"resetExecutionState","inputs":[{"name":"caller","type":"address","internalType":"address"}],"outputs":[],"stateMutability":"nonpayable"},{"type":"function","name":"setExecutionContext","inputs":[{"name":"caller","type":"address","internalType":"address"}],"outputs":[],"stateMutability":"nonpayable"},{"type":"function","name":"setOutAmount","inputs":[{"name":"_outAmount","type":"uint256","internalType":"uint256"},{"name":"caller","type":"address","internalType":"address"}],"outputs":[],"stateMutability":"nonpayable"},{"type":"function","name":"spToken","inputs":[],"outputs":[{"name":"","type":"address","internalType":"address"}],"stateMutability":"view"},{"type":"function","name":"subType","inputs":[],"outputs":[{"name":"","type":"bytes32","internalType":"bytes32"}],"stateMutability":"view"},{"type":"function","name":"subtype","inputs":[],"outputs":[{"name":"","type":"bytes32","internalType":"bytes32"}],"stateMutability":"view"},{"type":"function","name":"usedShares","inputs":[],"outputs":[{"name":"","type":"uint256","internalType":"uint256"}],"stateMutability":"view"},{"type":"function","name":"vaultBank","inputs":[],"outputs":[{"name":"","type":"address","internalType":"address"}],"stateMutability":"view"},{"type":"error","name":"ADDRESS_NOT_VALID","inputs":[]},{"type":"error","name":"AMOUNT_NOT_VALID","inputs":[]},{"type":"error","name":"CANNOT_SET_OUT_AMOUNT","inputs":[]},{"type":"error","name":"INCOMPLETE_HOOK_EXECUTION","inputs":[]},{"type":"error","name":"NOT_AUTHORIZED","inputs":[]},{"type":"error","name":"POST_EXECUTE_ALREADY_CALLED","inputs":[]},{"type":"error","name":"PRE_EXECUTE_ALREADY_CALLED","inputs":[]},{"type":"error","name":"UNAUTHORIZED_CALLER","inputs":[]}],"bytecode":{"object":"0x60a0604052348015600e575f5ffd5b5060408051808201909152601881527f436c61696d43616e63656c52656465656d5265717565737400000000000000006020909101525f805460ff191690557fa96126c9c00e455bebc980e686ab0ae5d752d56bd4dce8172fe193b82e6917b86080526080516111116100905f395f818161021701526102d301526111115ff3fe608060405234801561000f575f5ffd5b5060043610610132575f3560e01c80635492e677116100b457806384542a241161007957806384542a241461028a5780638c4313c11461029c5780638e148776146102bc578063cf0a6181146102ce578063d06a1e89146102f5578063e445e7dd14610308575f5ffd5b80635492e6771461021557806360b5be291461023b578063685a943c1461025d578063701ffc8b1461026557806381cbe69114610277575f5ffd5b80632113522a116100fa5780632113522a1461019d5780632ae2fe3d146101c757806330c593f7146101da57806338d52e0f146101e35780633b5896bc146101f5575f5ffd5b806301bd43ef1461013657806305b4fe911461015257806308c189f91461016757806314cb37cf146101775780631f2646191461018a575b5f5ffd5b61013f60035c81565b6040519081526020015b60405180910390f35b610165610160366004610e2b565b610314565b005b60025b6040516101499190610ea8565b610165610185366004610ebb565b61038e565b610165610198366004610ed6565b6103af565b6101af6001600160a01b0360045c1681565b6040516001600160a01b039091168152602001610149565b6101656101d5366004610e2b565b610408565b61013f60065c81565b6101af6001600160a01b0360025c1681565b610208610203366004610e2b565b61047b565b6040516101499190610f32565b7f000000000000000000000000000000000000000000000000000000000000000061013f565b61024d60ff600160a81b60025c041681565b6040519015158152602001610149565b61013f5f5c81565b6101af6001600160a01b0360055c1681565b61013f610285366004610ebb565b610694565b61024d60ff600160a01b60025c041681565b6102af6102aa366004610fbf565b6106ac565b6040516101499190610ffe565b6101af6001600160a01b0360015c1681565b61013f7f000000000000000000000000000000000000000000000000000000000000000081565b610165610303366004610ebb565b61076e565b5f5461016a9060ff1681565b336001600160a01b0384161461033d5760405163e15e56c960e01b815260040160405180910390fd5b5f610347846107c0565b9050610352816107d3565b156103705760405163945b63f560e01b815260040160405180910390fd5b61037b8160016107e0565b610387858585856107f6565b5050505050565b61039781610895565b50336004805c6001600160a01b0319168217905d5050565b5f6103b9826107c0565b90506103c4816108c7565b806103d357506103d3816107d3565b156103f15760405163441e4c7360e11b815260040160405180910390fd5b5f6103fd8260016108d0565b905083815d50505050565b336001600160a01b038416146104315760405163e15e56c960e01b815260040160405180910390fd5b5f61043b846107c0565b9050610446816108c7565b1561046457604051630bbb04d960e11b815260040160405180910390fd5b61046f816001610925565b61038785858585610931565b60605f61048a86868686610a38565b90508051600261049a9190611024565b67ffffffffffffffff8111156104b2576104b2611037565b6040519080825280602002602001820160405280156104fe57816020015b60408051606080820183525f8083526020830152918101919091528152602001906001900390816104d05790505b5091506040518060600160405280306001600160a01b031681526020015f8152602001306001600160a01b0316632ae2fe3d89898989604051602401610547949392919061104b565b604051602081830303815290604052915060e01b6020820180516001600160e01b038381831617835250505050815250825f8151811061058957610589611093565b60209081029190910101525f5b81518110156105ea578181815181106105b1576105b1611093565b6020026020010151838260016105c79190611024565b815181106105d7576105d7611093565b6020908102919091010152600101610596565b506040518060600160405280306001600160a01b031681526020015f8152602001306001600160a01b03166305b4fe9189898989604051602401610631949392919061104b565b604051602081830303815290604052915060e01b6020820180516001600160e01b038381831617835250505050815250826001845161067091906110a7565b8151811061068057610680611093565b602002602001018190525050949350505050565b5f6106a66106a1836107c0565b610be0565b92915050565b60606106ec83838080601f0160208091040260200160405190810160405280939291908181526020018383808284375f92019190915250610bed92505050565b61072d84848080601f0160208091040260200160405190810160405280939291908181526020018383808284375f9201919091525060349250610bf5915050565b6040516bffffffffffffffffffffffff19606093841b811660208301529190921b166034820152604801604051602081830303815290604052905092915050565b5f610778826107c0565b9050610783816108c7565b15806107955750610793816107d3565b155b156107b357604051634bd439b560e11b815260040160405180910390fd5b6107bc81610c5d565b5050565b5f5f6107cb83610c74565b5c9392505050565b5f5f6107cb8360036108d0565b5f6107ec8360036108d0565b905081815d505050565b5f61083883838080601f0160208091040260200160405190810160405280939291908181526020018383808284375f9201919091525060349250610bf5915050565b905061038761084685610694565b6108858386868080601f0160208091040260200160405190810160405280939291908181526020018383808284375f92019190915250610ce092505050565b61088f91906110a7565b85610dba565b5f6003805c90826108a5836110ba565b9190505d505f6108b483610c74565b905060035c80825d505060035c92915050565b5f5f6107cb8360025b604080517fc41a07c57a776f6217c6d4278dfe7a5d114742afe55627ce458c2802aa4d703460208083019190915281830194909452606080820193909352815180820390930183526080019052805191012090565b5f6107ec8360026108d0565b6109796109738484848080601f0160208091040260200160405190810160405280939291908181526020018383808284375f92019190915250610ce092505050565b84610dba565b6109b782828080601f0160208091040260200160405190810160405280939291908181526020018383808284375f92019190915250610bed92505050565b6001600160a01b031663a8d5fd656040518163ffffffff1660e01b8152600401602060405180830381865afa1580156109f2573d5f5f3e3d5ffd5b505050506040513d601f19601f82011682018060405250810190610a1691906110d2565b6001805c6001600160a01b0319166001600160a01b03831617905d5050505050565b60605f610a7984848080601f0160208091040260200160405190810160405280939291908181526020018383808284375f92019190915250610bed92505050565b90505f610abd85858080601f0160208091040260200160405190810160405280939291908181526020018383808284375f9201919091525060349250610bf5915050565b90506001600160a01b0382161580610adc57506001600160a01b038116155b15610afa57604051630f58648f60e01b815260040160405180910390fd5b60408051600180825281830190925290816020015b60408051606080820183525f808352602083015291810191909152815260200190600190039081610b0f5790505092506040518060600160405280836001600160a01b031681526020015f81526020015f8389604051602401610b8e939291909283526001600160a01b03918216602084015216604082015260600190565b60408051601f198184030181529190526020810180516001600160e01b031662a06d1960e01b1790529052835184905f90610bcb57610bcb611093565b60200260200101819052505050949350505050565b5f5f6107cb8360016108d0565b5f6106a68260205b5f610c01826014611024565b83511015610c4d5760405162461bcd60e51b8152602060048201526015602482015274746f416464726573735f6f75744f66426f756e647360581b604482015260640160405180910390fd5b500160200151600160601b900490565b610c67815f610925565b610c71815f6107e0565b50565b5f7f8ce092d4869bdfa1a1ce579ddddb2b776c39ace5d7b5d7e70e97ece2a78f4f9b82604051602001610cc392919091825260601b6bffffffffffffffffffffffff1916602082015260340190565b604051602081830303815290604052805190602001209050919050565b5f610cea82610bed565b6001600160a01b031663a8d5fd656040518163ffffffff1660e01b8152600401602060405180830381865afa158015610d25573d5f5f3e3d5ffd5b505050506040513d601f19601f82011682018060405250810190610d4991906110d2565b6040516370a0823160e01b81526001600160a01b03858116600483015291909116906370a0823190602401602060405180830381865afa158015610d8f573d5f5f3e3d5ffd5b505050506040513d601f19601f82011682018060405250810190610db391906110ed565b9392505050565b5f610dc4826107c0565b90505f6103fd8260016108d0565b6001600160a01b0381168114610c71575f5ffd5b5f5f83601f840112610df6575f5ffd5b50813567ffffffffffffffff811115610e0d575f5ffd5b602083019150836020828501011115610e24575f5ffd5b9250929050565b5f5f5f5f60608587031215610e3e575f5ffd5b8435610e4981610dd2565b93506020850135610e5981610dd2565b9250604085013567ffffffffffffffff811115610e74575f5ffd5b610e8087828801610de6565b95989497509550505050565b60038110610c7157634e487b7160e01b5f52602160045260245ffd5b60208101610eb583610e8c565b91905290565b5f60208284031215610ecb575f5ffd5b8135610db381610dd2565b5f5f60408385031215610ee7575f5ffd5b823591506020830135610ef981610dd2565b809150509250929050565b5f81518084528060208401602086015e5f602082860101526020601f19601f83011685010191505092915050565b5f602082016020835280845180835260408501915060408160051b8601019250602086015f5b82811015610fb357868503603f19018452815180516001600160a01b0316865260208082015190870152604090810151606091870182905290610f9d90870182610f04565b9550506020938401939190910190600101610f58565b50929695505050505050565b5f5f60208385031215610fd0575f5ffd5b823567ffffffffffffffff811115610fe6575f5ffd5b610ff285828601610de6565b90969095509350505050565b602081525f610db36020830184610f04565b634e487b7160e01b5f52601160045260245ffd5b808201808211156106a6576106a6611010565b634e487b7160e01b5f52604160045260245ffd5b6001600160a01b038581168252841660208201526060604082018190528101829052818360808301375f818301608090810191909152601f909201601f191601019392505050565b634e487b7160e01b5f52603260045260245ffd5b818103818111156106a6576106a6611010565b5f600182016110cb576110cb611010565b5060010190565b5f602082840312156110e2575f5ffd5b8151610db381610dd2565b5f602082840312156110fd575f5ffd5b505191905056fea164736f6c634300081e000a","linkReferences":{}},"methodIdentifiers":{"asset()":"38d52e0f","build(address,address,bytes)":"3b5896bc","dstChainId()":"30c593f7","executionNonce()":"01bd43ef","getOutAmount(address)":"81cbe691","hookType()":"e445e7dd","inspect(bytes)":"8c4313c1","isAsyncCancelHook()":"08c189f9","lastCaller()":"2113522a","postExecute(address,address,bytes)":"05b4fe91","postExecuteMutex()":"60b5be29","preExecute(address,address,bytes)":"2ae2fe3d","preExecuteMutex()":"84542a24","resetExecutionState(address)":"d06a1e89","setExecutionContext(address)":"14cb37cf","setOutAmount(uint256,address)":"1f264619","spToken()":"8e148776","subType()":"cf0a6181","subtype()":"5492e677","usedShares()":"685a943c","vaultBank()":"701ffc8b"},"id":389}