{"abi":[{"type":"constructor","inputs":[{"name":"dlnSource_","type":"address","internalType":"address"},{"name":"validator_","type":"address","internalType":"address"}],"stateMutability":"nonpayable"},{"type":"function","name":"asset","inputs":[],"outputs":[{"name":"","type":"address","internalType":"address"}],"stateMutability":"view"},{"type":"function","name":"build","inputs":[{"name":"prevHook","type":"address","internalType":"address"},{"name":"account","type":"address","internalType":"address"},{"name":"hookData","type":"bytes","internalType":"bytes"}],"outputs":[{"name":"executions","type":"tuple[]","internalType":"struct Execution[]","components":[{"name":"target","type":"address","internalType":"address"},{"name":"value","type":"uint256","internalType":"uint256"},{"name":"callData","type":"bytes","internalType":"bytes"}]}],"stateMutability":"view"},{"type":"function","name":"decodeUsePrevHookAmount","inputs":[{"name":"data","type":"bytes","internalType":"bytes"}],"outputs":[{"name":"","type":"bool","internalType":"bool"}],"stateMutability":"pure"},{"type":"function","name":"dlnSource","inputs":[],"outputs":[{"name":"","type":"address","internalType":"address"}],"stateMutability":"view"},{"type":"function","name":"executionNonce","inputs":[],"outputs":[{"name":"","type":"uint256","internalType":"uint256"}],"stateMutability":"view"},{"type":"function","name":"getOutAmount","inputs":[{"name":"caller","type":"address","internalType":"address"}],"outputs":[{"name":"","type":"uint256","internalType":"uint256"}],"stateMutability":"view"},{"type":"function","name":"hookType","inputs":[],"outputs":[{"name":"","type":"uint8","internalType":"enum ISuperHook.HookType"}],"stateMutability":"view"},{"type":"function","name":"inspect","inputs":[{"name":"data","type":"bytes","internalType":"bytes"}],"outputs":[{"name":"","type":"bytes","internalType":"bytes"}],"stateMutability":"pure"},{"type":"function","name":"lastCaller","inputs":[],"outputs":[{"name":"","type":"address","internalType":"address"}],"stateMutability":"view"},{"type":"function","name":"postExecute","inputs":[{"name":"prevHook","type":"address","internalType":"address"},{"name":"account","type":"address","internalType":"address"},{"name":"data","type":"bytes","internalType":"bytes"}],"outputs":[],"stateMutability":"nonpayable"},{"type":"function","name":"postExecuteMutex","inputs":[],"outputs":[{"name":"","type":"bool","internalType":"bool"}],"stateMutability":"view"},{"type":"function","name":"preExecute","inputs":[{"name":"prevHook","type":"address","internalType":"address"},{"name":"account","type":"address","internalType":"address"},{"name":"data","type":"bytes","internalType":"bytes"}],"outputs":[],"stateMutability":"nonpayable"},{"type":"function","name":"preExecuteMutex","inputs":[],"outputs":[{"name":"","type":"bool","internalType":"bool"}],"stateMutability":"view"},{"type":"function","name":"resetExecutionState","inputs":[{"name":"caller","type":"address","internalType":"address"}],"outputs":[],"stateMutability":"nonpayable"},{"type":"function","name":"setExecutionContext","inputs":[{"name":"caller","type":"address","internalType":"address"}],"outputs":[],"stateMutability":"nonpayable"},{"type":"function","name":"setOutAmount","inputs":[{"name":"_outAmount","type":"uint256","internalType":"uint256"},{"name":"caller","type":"address","internalType":"address"}],"outputs":[],"stateMutability":"nonpayable"},{"type":"function","name":"spToken","inputs":[],"outputs":[{"name":"","type":"address","internalType":"address"}],"stateMutability":"view"},{"type":"function","name":"subType","inputs":[],"outputs":[{"name":"","type":"bytes32","internalType":"bytes32"}],"stateMutability":"view"},{"type":"function","name":"subtype","inputs":[],"outputs":[{"name":"","type":"bytes32","internalType":"bytes32"}],"stateMutability":"view"},{"type":"function","name":"usedShares","inputs":[],"outputs":[{"name":"","type":"uint256","internalType":"uint256"}],"stateMutability":"view"},{"type":"error","name":"ADDRESS_NOT_VALID","inputs":[]},{"type":"error","name":"AMOUNT_NOT_VALID","inputs":[]},{"type":"error","name":"AMOUNT_UNDERFLOW","inputs":[]},{"type":"error","name":"CANNOT_SET_OUT_AMOUNT","inputs":[]},{"type":"error","name":"INCOMPLETE_HOOK_EXECUTION","inputs":[]},{"type":"error","name":"NOT_AUTHORIZED","inputs":[]},{"type":"error","name":"POST_EXECUTE_ALREADY_CALLED","inputs":[]},{"type":"error","name":"PRE_EXECUTE_ALREADY_CALLED","inputs":[]},{"type":"error","name":"UNAUTHORIZED_CALLER","inputs":[]}],"bytecode":{"object":"0x60e060405234801561000f575f5ffd5b5060405161228938038061228983398101604081905261002e916100e6565b60408051808201909152600681526542726964676560d01b6020909101525f805460ff191690557f7aa5ae620294318af92bf4e2b2a729646c932a80312a5fa630da993a2ef5cc106080526001600160a01b038216158061009657506001600160a01b038116155b156100b457604051630f58648f60e01b815260040160405180910390fd5b6001600160a01b0391821660a0521660c052610117565b80516001600160a01b03811681146100e1575f5ffd5b919050565b5f5f604083850312156100f7575f5ffd5b610100836100cb565b915061010e602084016100cb565b90509250929050565b60805160a05160c05161213a61014f5f395f6108fe01525f818161029d0152610b6b01525f81816101f301526102c4015261213a5ff3fe608060405234801561000f575f5ffd5b5060043610610127575f3560e01c8063685a943c116100a95780638f4bef1c1161006e5780638f4bef1c14610298578063cf0a6181146102bf578063d06a1e89146102e6578063e445e7dd146102f9578063e774551714610312575f5ffd5b8063685a943c1461023957806381cbe6911461024157806384542a24146102545780638c4313c1146102665780638e14877614610286575f5ffd5b80632ae2fe3d116100ef5780632ae2fe3d146101ac57806338d52e0f146101bf5780633b5896bc146101d15780635492e677146101f157806360b5be2914610217575f5ffd5b806301bd43ef1461012b57806305b4fe911461014757806314cb37cf1461015c5780631f2646191461016f5780632113522a14610182575b5f5ffd5b61013460035c81565b6040519081526020015b60405180910390f35b61015a610155366004611853565b610325565b005b61015a61016a3660046118b3565b610393565b61015a61017d3660046118ce565b6103b4565b6101946001600160a01b0360045c1681565b6040516001600160a01b03909116815260200161013e565b61015a6101ba366004611853565b61040d565b6101946001600160a01b0360025c1681565b6101e46101df366004611853565b610474565b60405161013e919061192a565b7f0000000000000000000000000000000000000000000000000000000000000000610134565b61022960ff600160a81b60025c041681565b604051901515815260200161013e565b6101345f5c81565b61013461024f3660046118b3565b61068c565b61022960ff600160a01b60025c041681565b6102796102743660046119b7565b6106a4565b60405161013e91906119f5565b6101946001600160a01b0360015c1681565b6101947f000000000000000000000000000000000000000000000000000000000000000081565b6101347f000000000000000000000000000000000000000000000000000000000000000081565b61015a6102f43660046118b3565b6107ab565b5f546103059060ff1681565b60405161013e9190611a07565b610229610320366004611a97565b6107fd565b336001600160a01b0384161461034e5760405163e15e56c960e01b815260040160405180910390fd5b5f61035884610808565b90506103638161081b565b156103815760405163945b63f560e01b815260040160405180910390fd5b61038c816001610828565b5050505050565b61039c8161083e565b50336004805c6001600160a01b0319168217905d5050565b5f6103be82610808565b90506103c981610870565b806103d857506103d88161081b565b156103f65760405163441e4c7360e11b815260040160405180910390fd5b5f610402826001610879565b905083815d50505050565b336001600160a01b038416146104365760405163e15e56c960e01b815260040160405180910390fd5b5f61044084610808565b905061044b81610870565b1561046957604051630bbb04d960e11b815260040160405180910390fd5b61038c8160016108ce565b60605f610483868686866108da565b9050805160026104939190611b24565b6001600160401b038111156104aa576104aa611a2d565b6040519080825280602002602001820160405280156104f657816020015b60408051606080820183525f8083526020830152918101919091528152602001906001900390816104c85790505b5091506040518060600160405280306001600160a01b031681526020015f8152602001306001600160a01b0316632ae2fe3d8989898960405160240161053f9493929190611b37565b604051602081830303815290604052915060e01b6020820180516001600160e01b038381831617835250505050815250825f8151811061058157610581611b7f565b60209081029190910101525f5b81518110156105e2578181815181106105a9576105a9611b7f565b6020026020010151838260016105bf9190611b24565b815181106105cf576105cf611b7f565b602090810291909101015260010161058e565b506040518060600160405280306001600160a01b031681526020015f8152602001306001600160a01b03166305b4fe91898989896040516024016106299493929190611b37565b604051602081830303815290604052915060e01b6020820180516001600160e01b03838183161783525050505081525082600184516106689190611b93565b8151811061067857610678611b7f565b602002602001018190525050949350505050565b5f61069e61069983610808565b610c0a565b92915050565b60605f6106f384848080601f0160208091040260200160405190810160405280939291908181526020018383808284375f92018290525060408051602081019091529081529250610c17915050565b5050509050805f0151816040015161070a90611ba6565b60601c8260a0015161071b90611ba6565b60601c8360c0015160601b60601c8460e0015161073790611ba6565b60601c85610140015161074990611ba6565b6040516001600160601b0319606097881b8116602083015295871b8616603482015293861b8516604885015291851b8416605c84015290931b821660708201529116608482015260980160405160208183030381529060405291505092915050565b5f6107b582610808565b90506107c081610870565b15806107d257506107d08161081b565b155b156107f057604051634bd439b560e11b815260040160405180910390fd5b6107f9816112cc565b5050565b5f61069e825f6112e3565b5f5f6108138361130f565b5c9392505050565b5f5f610813836003610879565b5f610834836003610879565b905081815d505050565b5f6003805c908261084e83611bf4565b9190505d505f61085d8361130f565b905060035c80825d505060035c92915050565b5f5f6108138360025b604080517fc41a07c57a776f6217c6d4278dfe7a5d114742afe55627ce458c2802aa4d703460208083019190915281830194909452606080820193909352815180820390930183526080019052805191012090565b5f610834836002610879565b604051630f65bac560e01b81526001600160a01b0384811660048301526060915f917f00000000000000000000000000000000000000000000000000000000000000001690630f65bac5906024015f60405180830381865afa158015610942573d5f5f3e3d5ffd5b505050506040513d5f823e601f3d908101601f191682016040526109699190810190611c59565b90505f5f5f5f6109af88888080601f0160208091040260200160405190810160405280939291908181526020018383808284375f92019190915250899250610c17915050565b93509350935093505f6109f689898080601f0160208091040260200160405190810160405280939291908181526020018383808284375f92018290525092506112e3915050565b90508015610af5576040516381cbe69160e01b81526001600160a01b038b811660048301525f91908d16906381cbe69190602401602060405180830381865afa158015610a45573d5f5f3e3d5ffd5b505050506040513d601f19601f82011682018060405250810190610a699190611c92565b90505f8660200151118015610a8157505f8660600151115b15610a9f57610a998660600151828860200151611376565b60608701525b6020860180519082905286516001600160a01b0316610af25780861015610ad95760405163a11995cd60e01b815260040160405180910390fd5b610ae38187611b93565b9550610aef8287611b24565b95505b50505b84602001515f03610b19576040516305112ab160e41b815260040160405180910390fd5b60408051600180825281830190925290816020015b60408051606080820183525f808352602083015291810191909152815260200190600190039081610b2e57905050965060405180606001604052807f00000000000000000000000000000000000000000000000000000000000000006001600160a01b03168152602001858152602001868585604051602401610bb393929190611ca9565b60408051601f198184030181529190526020810180516001600160e01b031663fbe16ca760e01b1790529052875188905f90610bf157610bf1611b7f565b6020026020010181905250505050505050949350505050565b5f5f610813836001610879565b610c816040518061016001604052805f6001600160a01b031681526020015f8152602001606081526020015f81526020015f8152602001606081526020015f6001600160a01b03168152602001606081526020016060815260200160608152602001606081525090565b5f60605f610d386040518061026001604052805f81526020015f81526020015f60ff1681526020015f6001600160a01b031681526020015f81526020015f6001600160a01b031681526020015f6001600160a01b031681526020015f81526020015f151581526020015f1515815260200160608152602001606081526020015f81526020015f8152602001606081526020015f6001600160a01b031681526020016060815260200160608152602001606081525090565b6001808252610d48908890611427565b93506020815f01818151610d5c9190611b24565b9052508051610d6c908890611489565b6001600160a01b0316606082015280516014908290610d8c908390611b24565b9052508051610d9c908890611427565b608082015280516020908290610db3908390611b24565b9052508051610dc39088906114ed565b60ff16604082015280516001908290610ddd908390611b24565b9052508051610ded908890611489565b6001600160a01b031660a082015280516014908290610e0d908390611b24565b9052508051610e1d908890611489565b6001600160a01b031660c082015280516014908290610e3d908390611b24565b9052508051610e4d908890611427565b60e082015280516020908290610e64908390611b24565b9052508051610e749088906112e3565b151561010082015280516001908290610e8e908390611b24565b9052508051610e9e9088906112e3565b151561012082015280516001908290610eb8908390611b24565b9052508051610ec8908890611427565b60208083019190915281518290610ee0908390611b24565b90525080516020820151610ef5918991611548565b610140820152602081015181518290610f0f908390611b24565b9052508051610f1f908890611427565b60208083019190915281518290610f37908390611b24565b90525080516020820151610f4c918991611548565b610160820152602081015181518290610f66908390611b24565b9052508051610f76908890611427565b61018082015280516020908290610f8e908390611b24565b9052508051610f9e908890611427565b6101a082015280516020908290610fb6908390611b24565b9052508051610fc6908890611427565b60208083019190915281518290610fde908390611b24565b90525080516020820151610ff3918991611548565b6101c082015260208101518151829061100d908390611b24565b905250805161101d908890611489565b6001600160a01b03166101e08201528051601490829061103e908390611b24565b905250805161104e908890611427565b60208083019190915281518290611066908390611b24565b9052508051602082015161107b918991611548565b610200820152602081015181518290611095908390611b24565b90525080516110a5908890611427565b602080830191909152815182906110bd908390611b24565b905250805160208201516110d2918991611548565b6102208201526020810151815182906110ec908390611b24565b90525080516110fc908890611427565b60208083019190915281518290611114908390611b24565b90525080516020820151611129918991611548565b610240820152602081015181518290611143908390611b24565b90525080515f90611155908990611427565b90506020825f018181516111699190611b24565b905250815161117a90899083611548565b935080825f0181815161118d9190611b24565b905250815161119d90899061164d565b92506004825f018181516111b19190611b24565b9150818152505060405180610160016040528083606001516001600160a01b031681526020018360800151815260200183610160015181526020018361018001518152602001836101a001518152602001836101c001518152602001836101e001516001600160a01b03168152602001836102000151815260200183610220015181526020016112b160405180610100016040528086610140015181526020018b81526020018660a001516001600160a01b031681526020018660c001516001600160a01b031681526020018660e0015181526020018661010001511515815260200186610120015115158152602001866040015160ff168152506116a9565b81526020018361024001518152509550505092959194509250565b6112d6815f6108ce565b6112e0815f610828565b50565b5f8282815181106112f6576112f6611b7f565b01602001516001600160f81b0319161515905092915050565b5f7f8ce092d4869bdfa1a1ce579ddddb2b776c39ace5d7b5d7e70e97ece2a78f4f9b8260405160200161135992919091825260601b6001600160601b031916602082015260340190565b604051602081830303815290604052805190602001209050919050565b5f5f5f61138386866117ce565b91509150815f036113a75783818161139d5761139d611df1565b0492505050611420565b8184116113be576113be60038515026011186117ea565b5f848688095f868103871696879004966002600389028118808a02820302808a02820302808a02820302808a02820302808a02820302808a02909103029181900381900460010185841190960395909502919093039390930492909217029150505b9392505050565b5f611433826020611b24565b835110156114805760405162461bcd60e51b8152602060048201526015602482015274746f55696e743235365f6f75744f66426f756e647360581b60448201526064015b60405180910390fd5b50016020015190565b5f611495826014611b24565b835110156114dd5760405162461bcd60e51b8152602060048201526015602482015274746f416464726573735f6f75744f66426f756e647360581b6044820152606401611477565b500160200151600160601b900490565b5f6114f9826001611b24565b8351101561153f5760405162461bcd60e51b8152602060048201526013602482015272746f55696e74385f6f75744f66426f756e647360681b6044820152606401611477565b50016001015190565b60608182601f01101561158e5760405162461bcd60e51b815260206004820152600e60248201526d736c6963655f6f766572666c6f7760901b6044820152606401611477565b6115988284611b24565b845110156115dc5760405162461bcd60e51b8152602060048201526011602482015270736c6963655f6f75744f66426f756e647360781b6044820152606401611477565b6060821580156115fa5760405191505f825260208201604052611644565b6040519150601f8416801560200281840101858101878315602002848b0101015b8183101561163357805183526020928301920161161b565b5050858452601f01601f1916604052505b50949350505050565b5f611659826004611b24565b835110156116a05760405162461bcd60e51b8152602060048201526014602482015273746f55696e7433325f6f75744f66426f756e647360601b6044820152606401611477565b50016004015190565b8051516060905f036116c857505060408051602081019091525f815290565b5f5f5f5f5f865f01518060200190518101906116e49190611ef0565b945094509450945094505f6040518060c0016040528089604001516001600160a01b0316815260200189606001516001600160a01b0316815260200189608001516001600160a01b031681526020018960a00151151581526020018960c001511515815260200187878787878e6020015160405160200161176a96959493929190611ff2565b60405160208183030381529060405281525090508760e0015181604051602001611794919061209c565b60408051601f19818403018152908290526117b29291602001612104565b6040516020818303038152906040529650505050505050919050565b5f805f1983850993909202808410938190039390930393915050565b634e487b715f52806020526024601cfd5b6001600160a01b03811681146112e0575f5ffd5b5f5f83601f84011261181f575f5ffd5b5081356001600160401b03811115611835575f5ffd5b60208301915083602082850101111561184c575f5ffd5b9250929050565b5f5f5f5f60608587031215611866575f5ffd5b8435611871816117fb565b93506020850135611881816117fb565b925060408501356001600160401b0381111561189b575f5ffd5b6118a78782880161180f565b95989497509550505050565b5f602082840312156118c3575f5ffd5b8135611420816117fb565b5f5f604083850312156118df575f5ffd5b8235915060208301356118f1816117fb565b809150509250929050565b5f81518084528060208401602086015e5f602082860101526020601f19601f83011685010191505092915050565b5f602082016020835280845180835260408501915060408160051b8601019250602086015f5b828110156119ab57868503603f19018452815180516001600160a01b0316865260208082015190870152604090810151606091870182905290611995908701826118fc565b9550506020938401939190910190600101611950565b50929695505050505050565b5f5f602083850312156119c8575f5ffd5b82356001600160401b038111156119dd575f5ffd5b6119e98582860161180f565b90969095509350505050565b602081525f61142060208301846118fc565b6020810160038310611a2757634e487b7160e01b5f52602160045260245ffd5b91905290565b634e487b7160e01b5f52604160045260245ffd5b604051601f8201601f191681016001600160401b0381118282101715611a6957611a69611a2d565b604052919050565b5f6001600160401b03821115611a8957611a89611a2d565b50601f01601f191660200190565b5f60208284031215611aa7575f5ffd5b81356001600160401b03811115611abc575f5ffd5b8201601f81018413611acc575f5ffd5b8035611adf611ada82611a71565b611a41565b818152856020838501011115611af3575f5ffd5b816020840160208301375f91810160200191909152949350505050565b634e487b7160e01b5f52601160045260245ffd5b8082018082111561069e5761069e611b10565b6001600160a01b038581168252841660208201526060604082018190528101829052818360808301375f818301608090810191909152601f909201601f191601019392505050565b634e487b7160e01b5f52603260045260245ffd5b8181038181111561069e5761069e611b10565b805160208201516001600160601b0319811691906014821015611bed576bffffffffffffffffffffffff196bffffffffffffffffffffffff198360140360031b1b82161692505b5050919050565b5f60018201611c0557611c05611b10565b5060010190565b5f82601f830112611c1b575f5ffd5b8151611c29611ada82611a71565b818152846020838601011115611c3d575f5ffd5b8160208501602083015e5f918101602001919091529392505050565b5f60208284031215611c69575f5ffd5b81516001600160401b03811115611c7e575f5ffd5b611c8a84828501611c0c565b949350505050565b5f60208284031215611ca2575f5ffd5b5051919050565b60808152611cc36080820185516001600160a01b03169052565b602084015160a08201525f604085015161016060c0840152611ce96101e08401826118fc565b9050606086015160e0840152608086015161010084015260a0860151607f1984830301610120850152611d1c82826118fc565b91505060c0860151611d3a6101408501826001600160a01b03169052565b5060e0860151838203607f1901610160850152611d5782826118fc565b915050610100860151607f1984830301610180850152611d7782826118fc565b915050610120860151607f19848303016101a0850152611d9782826118fc565b915050610140860151607f19848303016101c0850152611db782826118fc565b9150508281036020840152611dcc81866118fc565b63ffffffff94909416604084015250508082036060909101525f815260200192915050565b634e487b7160e01b5f52601260045260245ffd5b5f6001600160401b03821115611e1d57611e1d611a2d565b5060051b60200190565b5f82601f830112611e36575f5ffd5b8151611e44611ada82611e05565b8082825260208201915060208360051b860101925085831115611e65575f5ffd5b602085015b83811015611e8b578051611e7d816117fb565b835260209283019201611e6a565b5095945050505050565b5f82601f830112611ea4575f5ffd5b8151611eb2611ada82611e05565b8082825260208201915060208360051b860101925085831115611ed3575f5ffd5b602085015b83811015611e8b578051835260209283019201611ed8565b5f5f5f5f5f60a08688031215611f04575f5ffd5b85516001600160401b03811115611f19575f5ffd5b611f2588828901611c0c565b95505060208601516001600160401b03811115611f40575f5ffd5b611f4c88828901611c0c565b9450506040860151611f5d816117fb565b60608701519093506001600160401b03811115611f78575f5ffd5b611f8488828901611e27565b92505060808601516001600160401b03811115611f9f575f5ffd5b611fab88828901611e95565b9150509295509295909350565b5f8151808452602084019350602083015f5b82811015611fe8578151865260209586019590910190600101611fca565b5093949350505050565b60c081525f61200460c08301896118fc565b828103602084015261201681896118fc565b6001600160a01b03881660408501528381036060850152865180825260208089019350909101905f5b818110156120665783516001600160a01b031683526020938401939092019160010161203f565b5050838103608085015261207a8187611fb8565b91505082810360a084015261208f81856118fc565b9998505050505050505050565b6020815260018060a01b03825116602082015260018060a01b03602083015116604082015260018060a01b0360408301511660608201526060820151151560808201526080820151151560a08201525f60a083015160c080840152611c8a60e08401826118fc565b60ff60f81b8360f81b1681525f82518060208501600185015e5f9201600101918252509291505056fea164736f6c634300081e000a","linkReferences":{}},"methodIdentifiers":{"asset()":"38d52e0f","build(address,address,bytes)":"3b5896bc","decodeUsePrevHookAmount(bytes)":"e7745517","dlnSource()":"8f4bef1c","executionNonce()":"01bd43ef","getOutAmount(address)":"81cbe691","hookType()":"e445e7dd","inspect(bytes)":"8c4313c1","lastCaller()":"2113522a","postExecute(address,address,bytes)":"05b4fe91","postExecuteMutex()":"60b5be29","preExecute(address,address,bytes)":"2ae2fe3d","preExecuteMutex()":"84542a24","resetExecutionState(address)":"d06a1e89","setExecutionContext(address)":"14cb37cf","setOutAmount(uint256,address)":"1f264619","spToken()":"8e148776","subType()":"cf0a6181","subtype()":"5492e677","usedShares()":"685a943c"},"id":346}