{"abi":[{"type":"constructor","inputs":[{"name":"dlnDestination_","type":"address","internalType":"address"}],"stateMutability":"nonpayable"},{"type":"function","name":"asset","inputs":[],"outputs":[{"name":"","type":"address","internalType":"address"}],"stateMutability":"view"},{"type":"function","name":"build","inputs":[{"name":"prevHook","type":"address","internalType":"address"},{"name":"account","type":"address","internalType":"address"},{"name":"hookData","type":"bytes","internalType":"bytes"}],"outputs":[{"name":"executions","type":"tuple[]","internalType":"struct Execution[]","components":[{"name":"target","type":"address","internalType":"address"},{"name":"value","type":"uint256","internalType":"uint256"},{"name":"callData","type":"bytes","internalType":"bytes"}]}],"stateMutability":"view"},{"type":"function","name":"dlnDestination","inputs":[],"outputs":[{"name":"","type":"address","internalType":"address"}],"stateMutability":"view"},{"type":"function","name":"executionNonce","inputs":[],"outputs":[{"name":"","type":"uint256","internalType":"uint256"}],"stateMutability":"view"},{"type":"function","name":"getOutAmount","inputs":[{"name":"caller","type":"address","internalType":"address"}],"outputs":[{"name":"","type":"uint256","internalType":"uint256"}],"stateMutability":"view"},{"type":"function","name":"hookType","inputs":[],"outputs":[{"name":"","type":"uint8","internalType":"enum ISuperHook.HookType"}],"stateMutability":"view"},{"type":"function","name":"inspect","inputs":[{"name":"data","type":"bytes","internalType":"bytes"}],"outputs":[{"name":"","type":"bytes","internalType":"bytes"}],"stateMutability":"pure"},{"type":"function","name":"lastCaller","inputs":[],"outputs":[{"name":"","type":"address","internalType":"address"}],"stateMutability":"view"},{"type":"function","name":"postExecute","inputs":[{"name":"prevHook","type":"address","internalType":"address"},{"name":"account","type":"address","internalType":"address"},{"name":"data","type":"bytes","internalType":"bytes"}],"outputs":[],"stateMutability":"nonpayable"},{"type":"function","name":"postExecuteMutex","inputs":[],"outputs":[{"name":"","type":"bool","internalType":"bool"}],"stateMutability":"view"},{"type":"function","name":"preExecute","inputs":[{"name":"prevHook","type":"address","internalType":"address"},{"name":"account","type":"address","internalType":"address"},{"name":"data","type":"bytes","internalType":"bytes"}],"outputs":[],"stateMutability":"nonpayable"},{"type":"function","name":"preExecuteMutex","inputs":[],"outputs":[{"name":"","type":"bool","internalType":"bool"}],"stateMutability":"view"},{"type":"function","name":"resetExecutionState","inputs":[{"name":"caller","type":"address","internalType":"address"}],"outputs":[],"stateMutability":"nonpayable"},{"type":"function","name":"setExecutionContext","inputs":[{"name":"caller","type":"address","internalType":"address"}],"outputs":[],"stateMutability":"nonpayable"},{"type":"function","name":"setOutAmount","inputs":[{"name":"_outAmount","type":"uint256","internalType":"uint256"},{"name":"caller","type":"address","internalType":"address"}],"outputs":[],"stateMutability":"nonpayable"},{"type":"function","name":"spToken","inputs":[],"outputs":[{"name":"","type":"address","internalType":"address"}],"stateMutability":"view"},{"type":"function","name":"subType","inputs":[],"outputs":[{"name":"","type":"bytes32","internalType":"bytes32"}],"stateMutability":"view"},{"type":"function","name":"subtype","inputs":[],"outputs":[{"name":"","type":"bytes32","internalType":"bytes32"}],"stateMutability":"view"},{"type":"function","name":"usedShares","inputs":[],"outputs":[{"name":"","type":"uint256","internalType":"uint256"}],"stateMutability":"view"},{"type":"error","name":"ADDRESS_NOT_VALID","inputs":[]},{"type":"error","name":"AMOUNT_NOT_VALID","inputs":[]},{"type":"error","name":"CANNOT_SET_OUT_AMOUNT","inputs":[]},{"type":"error","name":"INCOMPLETE_HOOK_EXECUTION","inputs":[]},{"type":"error","name":"NOT_AUTHORIZED","inputs":[]},{"type":"error","name":"POST_EXECUTE_ALREADY_CALLED","inputs":[]},{"type":"error","name":"PRE_EXECUTE_ALREADY_CALLED","inputs":[]},{"type":"error","name":"UNAUTHORIZED_CALLER","inputs":[]}],"bytecode":{"object":"0x60c060405234801561000f575f5ffd5b5060405161154438038061154483398101604081905261002e916100b1565b60408051808201909152600681526542726964676560d01b6020909101525f805460ff191690557f7aa5ae620294318af92bf4e2b2a729646c932a80312a5fa630da993a2ef5cc106080526001600160a01b0381166100a057604051630f58648f60e01b815260040160405180910390fd5b6001600160a01b031660a0526100de565b5f602082840312156100c1575f5ffd5b81516001600160a01b03811681146100d7575f5ffd5b9392505050565b60805160a05161143761010d5f395f8181610280015261091701525f81816101e801526102b901526114375ff3fe608060405234801561000f575f5ffd5b506004361061011c575f3560e01c806360b5be29116100a95780638d0e48d71161006e5780638d0e48d71461027b5780638e148776146102a2578063cf0a6181146102b4578063d06a1e89146102db578063e445e7dd146102ee575f5ffd5b806360b5be291461020c578063685a943c1461022e57806381cbe6911461023657806384542a24146102495780638c4313c11461025b575f5ffd5b80632113522a116100ef5780632113522a146101775780632ae2fe3d146101a157806338d52e0f146101b45780633b5896bc146101c65780635492e677146101e6575f5ffd5b806301bd43ef1461012057806305b4fe911461013c57806314cb37cf146101515780631f26461914610164575b5f5ffd5b61012960035c81565b6040519081526020015b60405180910390f35b61014f61014a366004610f6b565b610307565b005b61014f61015f366004610fc8565b610375565b61014f610172366004610fe8565b610396565b6101896001600160a01b0360045c1681565b6040516001600160a01b039091168152602001610133565b61014f6101af366004610f6b565b6103ef565b6101896001600160a01b0360025c1681565b6101d96101d4366004610f6b565b610456565b6040516101339190611040565b7f0000000000000000000000000000000000000000000000000000000000000000610129565b61021e60ff600160a81b60025c041681565b6040519015158152602001610133565b6101295f5c81565b610129610244366004610fc8565b61066f565b61021e60ff600160a01b60025c041681565b61026e6102693660046110cd565b610687565b604051610133919061110c565b6101897f000000000000000000000000000000000000000000000000000000000000000081565b6101896001600160a01b0360015c1681565b6101297f000000000000000000000000000000000000000000000000000000000000000081565b61014f6102e9366004610fc8565b610757565b5f546102fa9060ff1681565b604051610133919061111e565b336001600160a01b038416146103305760405163e15e56c960e01b815260040160405180910390fd5b5f61033a846107a9565b9050610345816107bc565b156103635760405163945b63f560e01b815260040160405180910390fd5b61036e8160016107c9565b5050505050565b61037e816107df565b50336004805c6001600160a01b0319168217905d5050565b5f6103a0826107a9565b90506103ab81610811565b806103ba57506103ba816107bc565b156103d85760405163441e4c7360e11b815260040160405180910390fd5b5f6103e482600161081a565b905083815d50505050565b336001600160a01b038416146104185760405163e15e56c960e01b815260040160405180910390fd5b5f610422846107a9565b905061042d81610811565b1561044b57604051630bbb04d960e11b815260040160405180910390fd5b61036e81600161086f565b60605f6104658686868661087b565b9050805160026104759190611158565b67ffffffffffffffff81111561048d5761048d61116b565b6040519080825280602002602001820160405280156104d957816020015b60408051606080820183525f8083526020830152918101919091528152602001906001900390816104ab5790505b5091506040518060600160405280306001600160a01b031681526020015f8152602001306001600160a01b0316632ae2fe3d89898989604051602401610522949392919061117f565b604051602081830303815290604052915060e01b6020820180516001600160e01b038381831617835250505050815250825f81518110610564576105646111c7565b60209081029190910101525f5b81518110156105c55781818151811061058c5761058c6111c7565b6020026020010151838260016105a29190611158565b815181106105b2576105b26111c7565b6020908102919091010152600101610571565b506040518060600160405280306001600160a01b031681526020015f8152602001306001600160a01b03166305b4fe918989898960405160240161060c949392919061117f565b604051602081830303815290604052915060e01b6020820180516001600160e01b038381831617835250505050815250826001845161064b91906111db565b8151811061065b5761065b6111c7565b602002602001018190525050949350505050565b5f61068161067c836107a9565b6109b3565b92915050565b60605f6106c884848080601f0160208091040260200160405190810160405280939291908181526020018383808284375f920191909152506109c092505050565b5050905080606001518160c001516106df906111ee565b60601c8261010001516106f1906111ee565b60601c836101200151610703906111ee565b60601c846101400151610715906111ee565b60601c856101800151610727906111ee565b60601c60405160200161073f9695949392919061123c565b60405160208183030381529060405291505092915050565b5f610761826107a9565b905061076c81610811565b158061077e575061077c816107bc565b155b1561079c57604051634bd439b560e11b815260040160405180910390fd5b6107a581610cca565b5050565b5f5f6107b483610ce1565b5c9392505050565b5f5f6107b483600361081a565b5f6107d583600361081a565b905081815d505050565b5f6003805c90826107ef8361128e565b9190505d505f6107fe83610ce1565b905060035c80825d505060035c92915050565b5f5f6107b48360025b604080517fc41a07c57a776f6217c6d4278dfe7a5d114742afe55627ce458c2802aa4d703460208083019190915281830194909452606080820193909352815180820390930183526080019052805191012090565b5f6107d583600261081a565b60605f5f5f6108be86868080601f0160208091040260200160405190810160405280939291908181526020018383808284375f920191909152506109c092505050565b6040805160018082528183019092529396509194509250816020015b60408051606080820183525f8083526020830152918101919091528152602001906001900390816108da57905050935060405180606001604052807f00000000000000000000000000000000000000000000000000000000000000006001600160a01b0316815260200183815260200184898460405160240161095f939291906112a6565b60408051601f198184030181529190526020810180516001600160e01b03166369c6cb1360e11b1790529052845185905f9061099d5761099d6111c7565b6020026020010181905250505050949350505050565b5f5f6107b483600161081a565b610a37604051806101c001604052805f67ffffffffffffffff168152602001606081526020015f8152602001606081526020015f81526020015f8152602001606081526020015f81526020016060815260200160608152602001606081526020016060815260200160608152602001606081525090565b5f8080610a448582610d48565b9250610a51602082611158565b9050610a5d8582610daa565b67ffffffffffffffff168452610a74600882611158565b90505f610a818683610d48565b9050610a8e602083611158565b9150610a9b868383610e06565b6020860152610aaa8183611158565b91505f610ab78784610d48565b9050610ac4602084611158565b9250610ad1878483610e06565b6060870152610ae08184611158565b9250610aec8784610d48565b6080870152610afc602084611158565b9250610b088784610d48565b6040870152610b18602084611158565b9250610b248784610d48565b60a0870152610b34602084611158565b92505f610b418885610d48565b9050610b4e602085611158565b9350610b5b888583610e06565b60c0880152610b6a8185611158565b9350610b768885610d48565b60e0880152610b86602085611158565b93505f610b938986610d48565b9050610ba0602086611158565b9450610bad898683610e06565b610100890152610bbd8186611158565b94505f610bca8a87610d48565b9050610bd7602087611158565b9550610be48a8783610e06565b6101208a0152610bf48187611158565b95505f610c018b88610d48565b9050610c0e602088611158565b9650610c1b8b8883610e06565b6101408b0152610c2b8188611158565b96505f610c388c89610d48565b9050610c45602089611158565b9750610c528c8983610e06565b6101608c0152610c628189611158565b97505f610c6f8d8a610d48565b9050610c7c60208a611158565b9850610c898d8a83610e06565b6101808d0152610c99818a611158565b60408051602081019091525f81526101a08e01529850610cb98d8a610d48565b9b9d9a9c5050505050505050505050565b610cd4815f61086f565b610cde815f6107c9565b50565b5f7f8ce092d4869bdfa1a1ce579ddddb2b776c39ace5d7b5d7e70e97ece2a78f4f9b82604051602001610d2b92919091825260601b6001600160601b031916602082015260340190565b604051602081830303815290604052805190602001209050919050565b5f610d54826020611158565b83511015610da15760405162461bcd60e51b8152602060048201526015602482015274746f55696e743235365f6f75744f66426f756e647360581b60448201526064015b60405180910390fd5b50016020015190565b5f610db6826008611158565b83511015610dfd5760405162461bcd60e51b8152602060048201526014602482015273746f55696e7436345f6f75744f66426f756e647360601b6044820152606401610d98565b50016008015190565b60608182601f011015610e4c5760405162461bcd60e51b815260206004820152600e60248201526d736c6963655f6f766572666c6f7760901b6044820152606401610d98565b610e568284611158565b84511015610e9a5760405162461bcd60e51b8152602060048201526011602482015270736c6963655f6f75744f66426f756e647360781b6044820152606401610d98565b606082158015610eb85760405191505f825260208201604052610f02565b6040519150601f8416801560200281840101858101878315602002848b0101015b81831015610ef1578051835260209283019201610ed9565b5050858452601f01601f1916604052505b50949350505050565b80356001600160a01b0381168114610f21575f5ffd5b919050565b5f5f83601f840112610f36575f5ffd5b50813567ffffffffffffffff811115610f4d575f5ffd5b602083019150836020828501011115610f64575f5ffd5b9250929050565b5f5f5f5f60608587031215610f7e575f5ffd5b610f8785610f0b565b9350610f9560208601610f0b565b9250604085013567ffffffffffffffff811115610fb0575f5ffd5b610fbc87828801610f26565b95989497509550505050565b5f60208284031215610fd8575f5ffd5b610fe182610f0b565b9392505050565b5f5f60408385031215610ff9575f5ffd5b8235915061100960208401610f0b565b90509250929050565b5f81518084528060208401602086015e5f602082860101526020601f19601f83011685010191505092915050565b5f602082016020835280845180835260408501915060408160051b8601019250602086015f5b828110156110c157868503603f19018452815180516001600160a01b03168652602080820151908701526040908101516060918701829052906110ab90870182611012565b9550506020938401939190910190600101611066565b50929695505050505050565b5f5f602083850312156110de575f5ffd5b823567ffffffffffffffff8111156110f4575f5ffd5b61110085828601610f26565b90969095509350505050565b602081525f610fe16020830184611012565b602081016003831061113e57634e487b7160e01b5f52602160045260245ffd5b91905290565b634e487b7160e01b5f52601160045260245ffd5b8082018082111561068157610681611144565b634e487b7160e01b5f52604160045260245ffd5b6001600160a01b038581168252841660208201526060604082018190528101829052818360808301375f818301608090810191909152601f909201601f191601019392505050565b634e487b7160e01b5f52603260045260245ffd5b8181038181111561068157610681611144565b805160208201516001600160601b0319811691906014821015611235576bffffffffffffffffffffffff196bffffffffffffffffffffffff198360140360031b1b82161692505b5050919050565b5f87518060208a01845e606097881b6001600160601b03199081169390910192835295871b861660148301525092851b8416602884015290841b8316603c83015290921b166050820152606401919050565b5f6001820161129f5761129f611144565b5060010190565b606081526112c160608201855167ffffffffffffffff169052565b5f60208501516101c060808401526112dd610220840182611012565b9050604086015160a08401526060860151605f198483030160c08501526113048282611012565b915050608086015160e084015260a086015161010084015260c0860151605f19848303016101208501526113388282611012565b91505060e0860151610140840152610100860151605f19848303016101608501526113638282611012565b915050610120860151605f19848303016101808501526113838282611012565b915050610140860151605f19848303016101a08501526113a38282611012565b915050610160860151605f19848303016101c08501526113c38282611012565b915050610180860151605f19848303016101e08501526113e38282611012565b9150506101a0860151605f19848303016102008501526114038282611012565b9250505061141c60208301856001600160a01b03169052565b82604083015294935050505056fea164736f6c634300081e000a","linkReferences":{}},"methodIdentifiers":{"asset()":"38d52e0f","build(address,address,bytes)":"3b5896bc","dlnDestination()":"8d0e48d7","executionNonce()":"01bd43ef","getOutAmount(address)":"81cbe691","hookType()":"e445e7dd","inspect(bytes)":"8c4313c1","lastCaller()":"2113522a","postExecute(address,address,bytes)":"05b4fe91","postExecuteMutex()":"60b5be29","preExecute(address,address,bytes)":"2ae2fe3d","preExecuteMutex()":"84542a24","resetExecutionState(address)":"d06a1e89","setExecutionContext(address)":"14cb37cf","setOutAmount(uint256,address)":"1f264619","spToken()":"8e148776","subType()":"cf0a6181","subtype()":"5492e677","usedShares()":"685a943c"},"id":502}