{"abi":[{"type":"constructor","inputs":[{"name":"dlnDestination","type":"address","internalType":"address"},{"name":"superDestinationExecutor_","type":"address","internalType":"address"}],"stateMutability":"nonpayable"},{"type":"function","name":"externalCallAdapter","inputs":[],"outputs":[{"name":"","type":"address","internalType":"address"}],"stateMutability":"view"},{"type":"function","name":"onERC20Received","inputs":[{"name":"","type":"bytes32","internalType":"bytes32"},{"name":"_token","type":"address","internalType":"address"},{"name":"_transferredAmount","type":"uint256","internalType":"uint256"},{"name":"","type":"address","internalType":"address"},{"name":"_payload","type":"bytes","internalType":"bytes"}],"outputs":[{"name":"callSucceeded","type":"bool","internalType":"bool"},{"name":"callResult","type":"bytes","internalType":"bytes"}],"stateMutability":"nonpayable"},{"type":"function","name":"onEtherReceived","inputs":[{"name":"","type":"bytes32","internalType":"bytes32"},{"name":"","type":"address","internalType":"address"},{"name":"_payload","type":"bytes","internalType":"bytes"}],"outputs":[{"name":"callSucceeded","type":"bool","internalType":"bool"},{"name":"callResult","type":"bytes","internalType":"bytes"}],"stateMutability":"payable"},{"type":"function","name":"superDestinationExecutor","inputs":[],"outputs":[{"name":"","type":"address","internalType":"contract ISuperDestinationExecutor"}],"stateMutability":"view"},{"type":"error","name":"ADDRESS_NOT_VALID","inputs":[]},{"type":"error","name":"ONLY_EXTERNAL_CALL_ADAPTER","inputs":[]},{"type":"error","name":"ON_ETHER_RECEIVED_FAILED","inputs":[]},{"type":"error","name":"SafeERC20FailedOperation","inputs":[{"name":"token","type":"address","internalType":"address"}]}],"bytecode":{"object":"0x60c060405234801561000f575f5ffd5b50604051610b32380380610b3283398101604081905261002e9161013c565b6001600160a01b038116158061004b57506001600160a01b038216155b1561006957604051630f58648f60e01b815260040160405180910390fd5b806001600160a01b03166080816001600160a01b0316815250505f826001600160a01b0316639aa69b846040518163ffffffff1660e01b8152600401602060405180830381865afa1580156100c0573d5f5f3e3d5ffd5b505050506040513d601f19601f820116820180604052508101906100e4919061016d565b90506001600160a01b03811661010d57604051630f58648f60e01b815260040160405180910390fd5b6001600160a01b031660a0525061018d9050565b80516001600160a01b0381168114610137575f5ffd5b919050565b5f5f6040838503121561014d575f5ffd5b61015683610121565b915061016460208401610121565b90509250929050565b5f6020828403121561017d575f5ffd5b61018682610121565b9392505050565b60805160a0516109716101c15f395f818160e301528181610113015261021a01525f81816053015261030401526109715ff3fe60806040526004361061003e575f3560e01c80630b7c8b7f146100425780633d266812146100925780637cbf7a55146100b35780639aa69b84146100d2575b5f5ffd5b34801561004d575f5ffd5b506100757f000000000000000000000000000000000000000000000000000000000000000081565b6040516001600160a01b0390911681526020015b60405180910390f35b6100a56100a036600461051d565b610105565b6040516100899291906105a0565b3480156100be575f5ffd5b506100a56100cd3660046105c2565b61020c565b3480156100dd575f5ffd5b506100757f000000000000000000000000000000000000000000000000000000000000000081565b5f6060336001600160a01b037f0000000000000000000000000000000000000000000000000000000000000000161461015157604051631f5d18a560e21b815260040160405180910390fd5b5f5f5f5f5f5f610160896102bc565b9550955095509550955095505f846001600160a01b0316476040515f6040518083038185875af1925050503d805f81146101b5576040519150601f19603f3d011682016040523d82523d5f602084013e6101ba565b606091505b50509050806101db5760405162039ce360e61b815260040160405180910390fd5b6101ea5f8888888888886102ed565b505060408051602081019091525f815260019b909a5098505050505050505050565b5f6060336001600160a01b037f0000000000000000000000000000000000000000000000000000000000000000161461025857604051631f5d18a560e21b815260040160405180910390fd5b5f5f5f5f5f5f610267896102bc565b949a5092985090965094509250905061028a6001600160a01b038d16858d61037b565b6102998c8787878787876102ed565b505060408051602081019091525f815260019c909b509950505050505050505050565b6060805f6060806060868060200190518101906102d9919061077c565b949c939b5091995097509550909350915050565b60405163ed71d9d160e01b81526001600160a01b037f0000000000000000000000000000000000000000000000000000000000000000169063ed71d9d190610345908a908890889088908d908d908a906004016108a8565b5f604051808303815f87803b15801561035c575f5ffd5b505af115801561036e573d5f5f3e3d5ffd5b5050505050505050505050565b604080516001600160a01b038416602482015260448082018490528251808303909101815260649091019091526020810180516001600160e01b031663a9059cbb60e01b1790526103cd9084906103d2565b505050565b5f5f60205f8451602086015f885af1806103f1576040513d5f823e3d81fd5b50505f513d91508115610408578060011415610415565b6001600160a01b0384163b155b1561044257604051635274afe760e01b81526001600160a01b038516600482015260240160405180910390fd5b50505050565b6001600160a01b038116811461045c575f5ffd5b50565b634e487b7160e01b5f52604160045260245ffd5b604051601f8201601f1916810167ffffffffffffffff8111828210171561049c5761049c61045f565b604052919050565b5f67ffffffffffffffff8211156104bd576104bd61045f565b50601f01601f191660200190565b5f82601f8301126104da575f5ffd5b81356104ed6104e8826104a4565b610473565b818152846020838601011115610501575f5ffd5b816020850160208301375f918101602001919091529392505050565b5f5f5f6060848603121561052f575f5ffd5b83359250602084013561054181610448565b9150604084013567ffffffffffffffff81111561055c575f5ffd5b610568868287016104cb565b9150509250925092565b5f81518084528060208401602086015e5f602082860101526020601f19601f83011685010191505092915050565b8215158152604060208201525f6105ba6040830184610572565b949350505050565b5f5f5f5f5f60a086880312156105d6575f5ffd5b8535945060208601356105e881610448565b93506040860135925060608601356105ff81610448565b9150608086013567ffffffffffffffff81111561061a575f5ffd5b610626888289016104cb565b9150509295509295909350565b5f82601f830112610642575f5ffd5b81516106506104e8826104a4565b818152846020838601011115610664575f5ffd5b8160208501602083015e5f918101602001919091529392505050565b805161068b81610448565b919050565b5f67ffffffffffffffff8211156106a9576106a961045f565b5060051b60200190565b5f82601f8301126106c2575f5ffd5b81516106d06104e882610690565b8082825260208201915060208360051b8601019250858311156106f1575f5ffd5b602085015b8381101561071757805161070981610448565b8352602092830192016106f6565b5095945050505050565b5f82601f830112610730575f5ffd5b815161073e6104e882610690565b8082825260208201915060208360051b86010192508583111561075f575f5ffd5b602085015b83811015610717578051835260209283019201610764565b5f5f5f5f5f5f60c08789031215610791575f5ffd5b865167ffffffffffffffff8111156107a7575f5ffd5b6107b389828a01610633565b965050602087015167ffffffffffffffff8111156107cf575f5ffd5b6107db89828a01610633565b9550506107ea60408801610680565b9350606087015167ffffffffffffffff811115610805575f5ffd5b61081189828a016106b3565b935050608087015167ffffffffffffffff81111561082d575f5ffd5b61083989828a01610721565b92505060a087015167ffffffffffffffff811115610855575f5ffd5b61086189828a01610633565b9150509295509295509295565b5f8151808452602084019350602083015f5b8281101561089e578151865260209586019590910190600101610880565b5093949350505050565b6001600160a01b038881168252871660208083019190915260e06040830181905287519083018190525f91880190610100840190835b818110156109055783516001600160a01b03168352602093840193909201916001016108de565b50508381036060850152610919818961086e565b915050828103608084015261092e8187610572565b905082810360a08401526109428186610572565b905082810360c08401526109568185610572565b9a995050505050505050505056fea164736f6c634300081e000a","linkReferences":{}},"methodIdentifiers":{"externalCallAdapter()":"9aa69b84","onERC20Received(bytes32,address,uint256,address,bytes)":"7cbf7a55","onEtherReceived(bytes32,address,bytes)":"3d266812","superDestinationExecutor()":"0b7c8b7f"},"id":336}