{"abi":[{"type":"constructor","inputs":[],"stateMutability":"nonpayable"},{"type":"function","name":"asset","inputs":[],"outputs":[{"name":"","type":"address","internalType":"address"}],"stateMutability":"view"},{"type":"function","name":"build","inputs":[{"name":"prevHook","type":"address","internalType":"address"},{"name":"account","type":"address","internalType":"address"},{"name":"hookData","type":"bytes","internalType":"bytes"}],"outputs":[{"name":"executions","type":"tuple[]","internalType":"struct Execution[]","components":[{"name":"target","type":"address","internalType":"address"},{"name":"value","type":"uint256","internalType":"uint256"},{"name":"callData","type":"bytes","internalType":"bytes"}]}],"stateMutability":"view"},{"type":"function","name":"decodeAmount","inputs":[{"name":"data","type":"bytes","internalType":"bytes"}],"outputs":[{"name":"","type":"uint256","internalType":"uint256"}],"stateMutability":"pure"},{"type":"function","name":"decodeUsePrevHookAmount","inputs":[{"name":"data","type":"bytes","internalType":"bytes"}],"outputs":[{"name":"","type":"bool","internalType":"bool"}],"stateMutability":"pure"},{"type":"function","name":"dstChainId","inputs":[],"outputs":[{"name":"","type":"uint256","internalType":"uint256"}],"stateMutability":"view"},{"type":"function","name":"executionNonce","inputs":[],"outputs":[{"name":"","type":"uint256","internalType":"uint256"}],"stateMutability":"view"},{"type":"function","name":"getOutAmount","inputs":[{"name":"caller","type":"address","internalType":"address"}],"outputs":[{"name":"","type":"uint256","internalType":"uint256"}],"stateMutability":"view"},{"type":"function","name":"hookType","inputs":[],"outputs":[{"name":"","type":"uint8","internalType":"enum ISuperHook.HookType"}],"stateMutability":"view"},{"type":"function","name":"inspect","inputs":[{"name":"data","type":"bytes","internalType":"bytes"}],"outputs":[{"name":"","type":"bytes","internalType":"bytes"}],"stateMutability":"pure"},{"type":"function","name":"lastCaller","inputs":[],"outputs":[{"name":"","type":"address","internalType":"address"}],"stateMutability":"view"},{"type":"function","name":"postExecute","inputs":[{"name":"prevHook","type":"address","internalType":"address"},{"name":"account","type":"address","internalType":"address"},{"name":"data","type":"bytes","internalType":"bytes"}],"outputs":[],"stateMutability":"nonpayable"},{"type":"function","name":"postExecuteMutex","inputs":[],"outputs":[{"name":"","type":"bool","internalType":"bool"}],"stateMutability":"view"},{"type":"function","name":"preExecute","inputs":[{"name":"prevHook","type":"address","internalType":"address"},{"name":"account","type":"address","internalType":"address"},{"name":"data","type":"bytes","internalType":"bytes"}],"outputs":[],"stateMutability":"nonpayable"},{"type":"function","name":"preExecuteMutex","inputs":[],"outputs":[{"name":"","type":"bool","internalType":"bool"}],"stateMutability":"view"},{"type":"function","name":"resetExecutionState","inputs":[{"name":"caller","type":"address","internalType":"address"}],"outputs":[],"stateMutability":"nonpayable"},{"type":"function","name":"setExecutionContext","inputs":[{"name":"caller","type":"address","internalType":"address"}],"outputs":[],"stateMutability":"nonpayable"},{"type":"function","name":"setOutAmount","inputs":[{"name":"_outAmount","type":"uint256","internalType":"uint256"},{"name":"caller","type":"address","internalType":"address"}],"outputs":[],"stateMutability":"nonpayable"},{"type":"function","name":"spToken","inputs":[],"outputs":[{"name":"","type":"address","internalType":"address"}],"stateMutability":"view"},{"type":"function","name":"subType","inputs":[],"outputs":[{"name":"","type":"bytes32","internalType":"bytes32"}],"stateMutability":"view"},{"type":"function","name":"subtype","inputs":[],"outputs":[{"name":"","type":"bytes32","internalType":"bytes32"}],"stateMutability":"view"},{"type":"function","name":"usedShares","inputs":[],"outputs":[{"name":"","type":"uint256","internalType":"uint256"}],"stateMutability":"view"},{"type":"function","name":"vaultBank","inputs":[],"outputs":[{"name":"","type":"address","internalType":"address"}],"stateMutability":"view"},{"type":"error","name":"ADDRESS_NOT_VALID","inputs":[]},{"type":"error","name":"AMOUNT_NOT_VALID","inputs":[]},{"type":"error","name":"CANNOT_SET_OUT_AMOUNT","inputs":[]},{"type":"error","name":"INCOMPLETE_HOOK_EXECUTION","inputs":[]},{"type":"error","name":"NOT_AUTHORIZED","inputs":[]},{"type":"error","name":"POST_EXECUTE_ALREADY_CALLED","inputs":[]},{"type":"error","name":"PRE_EXECUTE_ALREADY_CALLED","inputs":[]},{"type":"error","name":"UNAUTHORIZED_CALLER","inputs":[]}],"bytecode":{"object":"0x60a0604052348015600e575f5ffd5b506040805180820190915260078152660455243373534360cc1b6020909101525f805460ff191660011790557fc518a1d423df5aa415a8180f6384c181bd18f2bc1b734ba3dd52cd98b9b5fb776080526080516112d561007d5f395f818161021201526102e101526112d55ff3fe608060405234801561000f575f5ffd5b506004361061013d575f3560e01c8063685a943c116100b45780638e148776116100795780638e148776146102b7578063ac440f72146102c9578063cf0a6181146102dc578063d06a1e8914610303578063e445e7dd14610316578063e77455171461032f575f5ffd5b8063685a943c14610258578063701ffc8b1461026057806381cbe6911461027257806384542a24146102855780638c4313c114610297575f5ffd5b80632ae2fe3d116101055780632ae2fe3d146101c257806330c593f7146101d557806338d52e0f146101de5780633b5896bc146101f05780635492e6771461021057806360b5be2914610236575f5ffd5b806301bd43ef1461014157806305b4fe911461015d57806314cb37cf146101725780631f264619146101855780632113522a14610198575b5f5ffd5b61014a60035c81565b6040519081526020015b60405180910390f35b61017061016b366004610f45565b610342565b005b610170610180366004610fa6565b6103bc565b610170610193366004610fc1565b6103dd565b6101aa6001600160a01b0360045c1681565b6040516001600160a01b039091168152602001610154565b6101706101d0366004610f45565b610436565b61014a60065c81565b6101aa6001600160a01b0360025c1681565b6102036101fe366004610f45565b6104a9565b604051610154919061101d565b7f000000000000000000000000000000000000000000000000000000000000000061014a565b61024860ff600160a81b60025c041681565b6040519015158152602001610154565b61014a5f5c81565b6101aa6001600160a01b0360055c1681565b61014a610280366004610fa6565b6106c2565b61024860ff600160a01b60025c041681565b6102aa6102a53660046110aa565b6106da565b60405161015491906110e9565b6101aa6001600160a01b0360015c1681565b61014a6102d736600461110f565b610759565b61014a7f000000000000000000000000000000000000000000000000000000000000000081565b610170610311366004610fa6565b610763565b5f546103229060ff1681565b60405161015491906111c2565b61024861033d36600461110f565b6107b5565b336001600160a01b0384161461036b5760405163e15e56c960e01b815260040160405180910390fd5b5f610375846107c1565b9050610380816107d4565b1561039e5760405163945b63f560e01b815260040160405180910390fd5b6103a98160016107e1565b6103b5858585856107f7565b5050505050565b6103c581610858565b50336004805c6001600160a01b0319168217905d5050565b5f6103e7826107c1565b90506103f28161088a565b806104015750610401816107d4565b1561041f5760405163441e4c7360e11b815260040160405180910390fd5b5f61042b826001610893565b905083815d50505050565b336001600160a01b0384161461045f5760405163e15e56c960e01b815260040160405180910390fd5b5f610469846107c1565b90506104748161088a565b1561049257604051630bbb04d960e11b815260040160405180910390fd5b61049d8160016108e8565b6103b5858585856108f4565b60605f6104b8868686866109f5565b9050805160026104c891906111fc565b67ffffffffffffffff8111156104e0576104e06110fb565b60405190808252806020026020018201604052801561052c57816020015b60408051606080820183525f8083526020830152918101919091528152602001906001900390816104fe5790505b5091506040518060600160405280306001600160a01b031681526020015f8152602001306001600160a01b0316632ae2fe3d89898989604051602401610575949392919061120f565b604051602081830303815290604052915060e01b6020820180516001600160e01b038381831617835250505050815250825f815181106105b7576105b7611257565b60209081029190910101525f5b8151811015610618578181815181106105df576105df611257565b6020026020010151838260016105f591906111fc565b8151811061060557610605611257565b60209081029190910101526001016105c4565b506040518060600160405280306001600160a01b031681526020015f8152602001306001600160a01b03166305b4fe918989898960405160240161065f949392919061120f565b604051602081830303815290604052915060e01b6020820180516001600160e01b038381831617835250505050815250826001845161069e919061126b565b815181106106ae576106ae611257565b602002602001018190525050949350505050565b5f6106d46106cf836107c1565b610c60565b92915050565b606061071a83838080601f0160208091040260200160405190810160405280939291908181526020018383808284375f92019190915250610c6d92505050565b604051602001610742919060609190911b6bffffffffffffffffffffffff1916815260140190565b604051602081830303815290604052905092915050565b5f6106d482610c79565b5f61076d826107c1565b90506107788161088a565b158061078a5750610788816107d4565b155b156107a857604051634bd439b560e11b815260040160405180910390fd5b6107b181610c85565b5050565b5f6106d4826054610c9c565b5f5f6107cc83610cc8565b5c9392505050565b5f5f6107cc836003610893565b5f6107ed836003610893565b905081815d505050565b610852610803846106c2565b6108428585858080601f0160208091040260200160405190810160405280939291908181526020018383808284375f92019190915250610d3492505050565b61084c919061126b565b84610e0e565b50505050565b5f6003805c90826108688361127e565b9190505d505f61087783610cc8565b905060035c80825d505060035c92915050565b5f5f6107cc8360025b604080517fc41a07c57a776f6217c6d4278dfe7a5d114742afe55627ce458c2802aa4d703460208083019190915281830194909452606080820193909352815180820390930183526080019052805191012090565b5f6107ed836002610893565b61093661084c8484848080601f0160208091040260200160405190810160405280939291908181526020018383808284375f92019190915250610d3492505050565b61097482828080601f0160208091040260200160405190810160405280939291908181526020018383808284375f92019190915250610c6d92505050565b6001600160a01b031663a8d5fd656040518163ffffffff1660e01b8152600401602060405180830381865afa1580156109af573d5f5f3e3d5ffd5b505050506040513d601f19601f820116820180604052508101906109d39190611296565b6001805c6001600160a01b0319166001600160a01b03831617905d5050505050565b60605f610a3684848080601f0160208091040260200160405190810160405280939291908181526020018383808284375f92019190915250610c6d92505050565b90505f610a7785858080601f0160208091040260200160405190810160405280939291908181526020018383808284375f92019190915250610c7992505050565b90505f610abb86868080601f0160208091040260200160405190810160405280939291908181526020018383808284375f9201919091525060549250610c9c915050565b90508015610b2e576040516381cbe69160e01b81526001600160a01b0388811660048301528916906381cbe69190602401602060405180830381865afa158015610b07573d5f5f3e3d5ffd5b505050506040513d601f19601f82011682018060405250810190610b2b91906112b1565b91505b815f03610b4e576040516305112ab160e41b815260040160405180910390fd5b6001600160a01b0383161580610b6b57506001600160a01b038716155b15610b8957604051630f58648f60e01b815260040160405180910390fd5b60408051600180825281830190925290816020015b60408051606080820183525f808352602083015291810191909152815260200190600190039081610b9e57905050604080516060810182526001600160a01b0380871682525f6020830152825160248101879052908b16604482018190526064820152929650919082019060840160408051601f198184030181529190526020810180516001600160e01b0316630b8b4a6160e21b1790529052845185905f90610c4a57610c4a611257565b6020026020010181905250505050949350505050565b5f5f6107cc836001610893565b5f6106d4826020610e26565b5f6106d4826034610e8f565b610c8f815f6108e8565b610c99815f6107e1565b50565b5f828281518110610caf57610caf611257565b01602001516001600160f81b0319161515905092915050565b5f7f8ce092d4869bdfa1a1ce579ddddb2b776c39ace5d7b5d7e70e97ece2a78f4f9b82604051602001610d1792919091825260601b6bffffffffffffffffffffffff1916602082015260340190565b604051602081830303815290604052805190602001209050919050565b5f610d3e82610c6d565b6001600160a01b031663a8d5fd656040518163ffffffff1660e01b8152600401602060405180830381865afa158015610d79573d5f5f3e3d5ffd5b505050506040513d601f19601f82011682018060405250810190610d9d9190611296565b6040516370a0823160e01b81526001600160a01b03858116600483015291909116906370a0823190602401602060405180830381865afa158015610de3573d5f5f3e3d5ffd5b505050506040513d601f19601f82011682018060405250810190610e0791906112b1565b9392505050565b5f610e18826107c1565b90505f61042b826001610893565b5f610e328260146111fc565b83511015610e7f5760405162461bcd60e51b8152602060048201526015602482015274746f416464726573735f6f75744f66426f756e647360581b60448201526064015b60405180910390fd5b500160200151600160601b900490565b5f610e9b8260206111fc565b83511015610ee35760405162461bcd60e51b8152602060048201526015602482015274746f55696e743235365f6f75744f66426f756e647360581b6044820152606401610e76565b50016020015190565b6001600160a01b0381168114610c99575f5ffd5b5f5f83601f840112610f10575f5ffd5b50813567ffffffffffffffff811115610f27575f5ffd5b602083019150836020828501011115610f3e575f5ffd5b9250929050565b5f5f5f5f60608587031215610f58575f5ffd5b8435610f6381610eec565b93506020850135610f7381610eec565b9250604085013567ffffffffffffffff811115610f8e575f5ffd5b610f9a87828801610f00565b95989497509550505050565b5f60208284031215610fb6575f5ffd5b8135610e0781610eec565b5f5f60408385031215610fd2575f5ffd5b823591506020830135610fe481610eec565b809150509250929050565b5f81518084528060208401602086015e5f602082860101526020601f19601f83011685010191505092915050565b5f602082016020835280845180835260408501915060408160051b8601019250602086015f5b8281101561109e57868503603f19018452815180516001600160a01b031686526020808201519087015260409081015160609187018290529061108890870182610fef565b9550506020938401939190910190600101611043565b50929695505050505050565b5f5f602083850312156110bb575f5ffd5b823567ffffffffffffffff8111156110d1575f5ffd5b6110dd85828601610f00565b90969095509350505050565b602081525f610e076020830184610fef565b634e487b7160e01b5f52604160045260245ffd5b5f6020828403121561111f575f5ffd5b813567ffffffffffffffff811115611135575f5ffd5b8201601f81018413611145575f5ffd5b803567ffffffffffffffff81111561115f5761115f6110fb565b604051601f8201601f19908116603f0116810167ffffffffffffffff8111828210171561118e5761118e6110fb565b6040528181528282016020018610156111a5575f5ffd5b816020840160208301375f91810160200191909152949350505050565b60208101600383106111e257634e487b7160e01b5f52602160045260245ffd5b91905290565b634e487b7160e01b5f52601160045260245ffd5b808201808211156106d4576106d46111e8565b6001600160a01b038581168252841660208201526060604082018190528101829052818360808301375f818301608090810191909152601f909201601f191601019392505050565b634e487b7160e01b5f52603260045260245ffd5b818103818111156106d4576106d46111e8565b5f6001820161128f5761128f6111e8565b5060010190565b5f602082840312156112a6575f5ffd5b8151610e0781610eec565b5f602082840312156112c1575f5ffd5b505191905056fea164736f6c634300081e000a","linkReferences":{}},"methodIdentifiers":{"asset()":"38d52e0f","build(address,address,bytes)":"3b5896bc","decodeAmount(bytes)":"ac440f72","decodeUsePrevHookAmount(bytes)":"e7745517","dstChainId()":"30c593f7","executionNonce()":"01bd43ef","getOutAmount(address)":"81cbe691","hookType()":"e445e7dd","inspect(bytes)":"8c4313c1","lastCaller()":"2113522a","postExecute(address,address,bytes)":"05b4fe91","postExecuteMutex()":"60b5be29","preExecute(address,address,bytes)":"2ae2fe3d","preExecuteMutex()":"84542a24","resetExecutionState(address)":"d06a1e89","setExecutionContext(address)":"14cb37cf","setOutAmount(uint256,address)":"1f264619","spToken()":"8e148776","subType()":"cf0a6181","subtype()":"5492e677","usedShares()":"685a943c","vaultBank()":"701ffc8b"},"id":390}