{"abi":[{"type":"constructor","inputs":[{"name":"superLedgerConfiguration_","type":"address","internalType":"address"}],"stateMutability":"nonpayable"},{"type":"function","name":"decimals","inputs":[{"name":"yieldSourceAddress","type":"address","internalType":"address"}],"outputs":[{"name":"","type":"uint8","internalType":"uint8"}],"stateMutability":"view"},{"type":"function","name":"getAssetOutput","inputs":[{"name":"yieldSourceAddress","type":"address","internalType":"address"},{"name":"","type":"address","internalType":"address"},{"name":"sharesIn","type":"uint256","internalType":"uint256"}],"outputs":[{"name":"","type":"uint256","internalType":"uint256"}],"stateMutability":"view"},{"type":"function","name":"getAssetOutputWithFees","inputs":[{"name":"yieldSourceOracleId","type":"bytes32","internalType":"bytes32"},{"name":"yieldSourceAddress","type":"address","internalType":"address"},{"name":"assetOut","type":"address","internalType":"address"},{"name":"user","type":"address","internalType":"address"},{"name":"usedShares","type":"uint256","internalType":"uint256"}],"outputs":[{"name":"","type":"uint256","internalType":"uint256"}],"stateMutability":"view"},{"type":"function","name":"getBalanceOfOwner","inputs":[{"name":"yieldSourceAddress","type":"address","internalType":"address"},{"name":"ownerOfShares","type":"address","internalType":"address"}],"outputs":[{"name":"","type":"uint256","internalType":"uint256"}],"stateMutability":"view"},{"type":"function","name":"getPricePerShare","inputs":[{"name":"yieldSourceAddress","type":"address","internalType":"address"}],"outputs":[{"name":"","type":"uint256","internalType":"uint256"}],"stateMutability":"view"},{"type":"function","name":"getPricePerShareMultiple","inputs":[{"name":"yieldSourceAddresses","type":"address[]","internalType":"address[]"}],"outputs":[{"name":"pricesPerShare","type":"uint256[]","internalType":"uint256[]"}],"stateMutability":"view"},{"type":"function","name":"getShareOutput","inputs":[{"name":"yieldSourceAddress","type":"address","internalType":"address"},{"name":"","type":"address","internalType":"address"},{"name":"assetsIn","type":"uint256","internalType":"uint256"}],"outputs":[{"name":"","type":"uint256","internalType":"uint256"}],"stateMutability":"view"},{"type":"function","name":"getTVL","inputs":[{"name":"yieldSourceAddress","type":"address","internalType":"address"}],"outputs":[{"name":"","type":"uint256","internalType":"uint256"}],"stateMutability":"view"},{"type":"function","name":"getTVLByOwnerOfShares","inputs":[{"name":"yieldSourceAddress","type":"address","internalType":"address"},{"name":"ownerOfShares","type":"address","internalType":"address"}],"outputs":[{"name":"","type":"uint256","internalType":"uint256"}],"stateMutability":"view"},{"type":"function","name":"getTVLByOwnerOfSharesMultiple","inputs":[{"name":"yieldSourceAddresses","type":"address[]","internalType":"address[]"},{"name":"ownersOfShares","type":"address[][]","internalType":"address[][]"}],"outputs":[{"name":"userTvls","type":"uint256[][]","internalType":"uint256[][]"}],"stateMutability":"view"},{"type":"function","name":"getTVLMultiple","inputs":[{"name":"yieldSourceAddresses","type":"address[]","internalType":"address[]"}],"outputs":[{"name":"tvls","type":"uint256[]","internalType":"uint256[]"}],"stateMutability":"view"},{"type":"function","name":"superLedgerConfiguration","inputs":[],"outputs":[{"name":"","type":"address","internalType":"address"}],"stateMutability":"view"},{"type":"error","name":"ARRAY_LENGTH_MISMATCH","inputs":[]},{"type":"error","name":"INVALID_BASE_ASSET","inputs":[]}],"bytecode":{"object":"0x60a0604052348015600e575f5ffd5b50604051610ffd380380610ffd833981016040819052602b91603b565b6001600160a01b03166080526066565b5f60208284031215604a575f5ffd5b81516001600160a01b0381168114605f575f5ffd5b9392505050565b608051610f786100855f395f818161013901526103030152610f785ff3fe608060405234801561000f575f5ffd5b50600436106100b1575f3560e01c8063a7a128b41161006e578063a7a128b414610173578063aa5815fd14610193578063cacc7b0e146101a6578063d449a832146101b9578063ec422afd146101de578063fea8af5f146101f1575f5ffd5b8063056f143c146100b55780630f40517a146100db5780632f112c46146100ee57806334f99b48146101015780634fecb26614610121578063825e9ec714610134575b5f5ffd5b6100c86100c33660046109dc565b610204565b6040519081526020015b60405180910390f35b6100c86100e9366004610a1a565b610276565b6100c86100fc366004610a35565b6102dd565b61011461010f366004610b67565b610454565b6040516100d29190610c45565b6100c861012f366004610cd1565b6105fa565b61015b7f000000000000000000000000000000000000000000000000000000000000000081565b6040516001600160a01b0390911681526020016100d2565b610186610181366004610d08565b6106e3565b6040516100d29190610d3a565b6100c86101a13660046109dc565b610785565b6101866101b4366004610d08565b6107b4565b6101cc6101c7366004610a1a565b61084f565b60405160ff90911681526020016100d2565b6100c86101ec366004610a1a565b6108b0565b6100c86101ff366004610cd1565b610953565b60405163ef8b30f760e01b8152600481018290525f906001600160a01b0385169063ef8b30f7906024015b602060405180830381865afa15801561024a573d5f5f3e3d5ffd5b505050506040513d601f19601f8201168201806040525081019061026e9190610d7c565b949350505050565b5f816001600160a01b03166301e1d1146040518163ffffffff1660e01b8152600401602060405180830381865afa1580156102b3573d5f5f3e3d5ffd5b505050506040513d601f19601f820116820180604052508101906102d79190610d7c565b92915050565b5f5f6102ea868685610785565b604051630b47673760e41b8152600481018990529091507f00000000000000000000000000000000000000000000000000000000000000006001600160a01b03169063b47673709060240160a060405180830381865afa92505050801561036e575060408051601f3d908101601f1916820190925261036b91810190610d93565b60015b61037957905061044b565b5f8160200151118015610398575060808101516001600160a01b031615155b1561044757608081015160208201516040516349b1df7b60e01b81526001600160a01b0388811660048301528a81166024830152604482018690526064820188905260848201929092525f9291909116906349b1df7b9060a401602060405180830381865afa15801561040d573d5f5f3e3d5ffd5b505050506040513d601f19601f820116820180604052508101906104319190610d7c565b905061043d8184610e36565b935050505061044b565b5090505b95945050505050565b8151815160609190811461047b57604051634456f5e960e11b815260040160405180910390fd5b8067ffffffffffffffff81111561049457610494610a8c565b6040519080825280602002602001820160405280156104c757816020015b60608152602001906001900390816104b25790505b5091505f5b818110156105f2575f8582815181106104e7576104e7610e49565b602002602001015190505f85838151811061050457610504610e49565b602002602001015190505f815190508067ffffffffffffffff81111561052c5761052c610a8c565b604051908082528060200260200182016040528015610555578160200160208202803683370190505b5086858151811061056857610568610e49565b60200260200101819052505f5b818110156105e3575f6105a18585848151811061059457610594610e49565b60200260200101516105fa565b9050808887815181106105b6576105b6610e49565b602002602001015183815181106105cf576105cf610e49565b602090810291909101015250600101610575565b505050508060010190506104cc565b505092915050565b6040516370a0823160e01b81526001600160a01b0382811660048301525f9184918391908316906370a0823190602401602060405180830381865afa158015610645573d5f5f3e3d5ffd5b505050506040513d601f19601f820116820180604052508101906106699190610d7c565b9050805f0361067c575f925050506102d7565b6040516303d1689d60e11b8152600481018290526001600160a01b038316906307a2d13a90602401602060405180830381865afa1580156106bf573d5f5f3e3d5ffd5b505050506040513d601f19601f8201168201806040525081019061044b9190610d7c565b80516060908067ffffffffffffffff81111561070157610701610a8c565b60405190808252806020026020018201604052801561072a578160200160208202803683370190505b5091505f5b8181101561077e5761075984828151811061074c5761074c610e49565b60200260200101516108b0565b83828151811061076b5761076b610e49565b602090810291909101015260010161072f565b5050919050565b60405163266d6a8360e11b8152600481018290525f906001600160a01b03851690634cdad5069060240161022f565b80516060908067ffffffffffffffff8111156107d2576107d2610a8c565b6040519080825280602002602001820160405280156107fb578160200160208202803683370190505b5091505f5b8181101561077e5761082a84828151811061081d5761081d610e49565b6020026020010151610276565b83828151811061083c5761083c610e49565b6020908102919091010152600101610800565b5f816001600160a01b031663313ce5676040518163ffffffff1660e01b8152600401602060405180830381865afa15801561088c573d5f5f3e3d5ffd5b505050506040513d601f19601f820116820180604052508101906102d79190610e5d565b5f5f8290505f816001600160a01b031663313ce5676040518163ffffffff1660e01b8152600401602060405180830381865afa1580156108f2573d5f5f3e3d5ffd5b505050506040513d601f19601f820116820180604052508101906109169190610e5d565b60ff1690506001600160a01b0382166307a2d13a61093583600a610f60565b6040518263ffffffff1660e01b815260040161022f91815260200190565b6040516370a0823160e01b81526001600160a01b0382811660048301525f91908416906370a0823190602401602060405180830381865afa15801561099a573d5f5f3e3d5ffd5b505050506040513d601f19601f820116820180604052508101906109be9190610d7c565b9392505050565b6001600160a01b03811681146109d9575f5ffd5b50565b5f5f5f606084860312156109ee575f5ffd5b83356109f9816109c5565b92506020840135610a09816109c5565b929592945050506040919091013590565b5f60208284031215610a2a575f5ffd5b81356109be816109c5565b5f5f5f5f5f60a08688031215610a49575f5ffd5b853594506020860135610a5b816109c5565b93506040860135610a6b816109c5565b92506060860135610a7b816109c5565b949793965091946080013592915050565b634e487b7160e01b5f52604160045260245ffd5b604051601f8201601f1916810167ffffffffffffffff81118282101715610ac957610ac9610a8c565b604052919050565b5f67ffffffffffffffff821115610aea57610aea610a8c565b5060051b60200190565b5f82601f830112610b03575f5ffd5b8135610b16610b1182610ad1565b610aa0565b8082825260208201915060208360051b860101925085831115610b37575f5ffd5b602085015b83811015610b5d578035610b4f816109c5565b835260209283019201610b3c565b5095945050505050565b5f5f60408385031215610b78575f5ffd5b823567ffffffffffffffff811115610b8e575f5ffd5b610b9a85828601610af4565b925050602083013567ffffffffffffffff811115610bb6575f5ffd5b8301601f81018513610bc6575f5ffd5b8035610bd4610b1182610ad1565b8082825260208201915060208360051b850101925087831115610bf5575f5ffd5b602084015b83811015610c3657803567ffffffffffffffff811115610c18575f5ffd5b610c278a602083890101610af4565b84525060209283019201610bfa565b50809450505050509250929050565b5f602082016020835280845180835260408501915060408160051b8601019250602086015f5b82811015610cc557868503603f19018452815180518087526020918201918701905f5b81811015610cac578351835260209384019390920191600101610c8e565b5090965050506020938401939190910190600101610c6b565b50929695505050505050565b5f5f60408385031215610ce2575f5ffd5b8235610ced816109c5565b91506020830135610cfd816109c5565b809150509250929050565b5f60208284031215610d18575f5ffd5b813567ffffffffffffffff811115610d2e575f5ffd5b61026e84828501610af4565b602080825282518282018190525f918401906040840190835b81811015610d71578351835260209384019390920191600101610d53565b509095945050505050565b5f60208284031215610d8c575f5ffd5b5051919050565b5f60a0828403128015610da4575f5ffd5b5060405160a0810167ffffffffffffffff81118282101715610dc857610dc8610a8c565b6040528251610dd6816109c5565b8152602083810151908201526040830151610df0816109c5565b60408201526060830151610e03816109c5565b60608201526080830151610e16816109c5565b60808201529392505050565b634e487b7160e01b5f52601160045260245ffd5b808201808211156102d7576102d7610e22565b634e487b7160e01b5f52603260045260245ffd5b5f60208284031215610e6d575f5ffd5b815160ff811681146109be575f5ffd5b6001815b6001841115610eb857808504811115610e9c57610e9c610e22565b6001841615610eaa57908102905b60019390931c928002610e81565b935093915050565b5f82610ece575060016102d7565b81610eda57505f6102d7565b8160018114610ef05760028114610efa57610f16565b60019150506102d7565b60ff841115610f0b57610f0b610e22565b50506001821b6102d7565b5060208310610133831016604e8410600b8410161715610f39575081810a6102d7565b610f455f198484610e7d565b805f1904821115610f5857610f58610e22565b029392505050565b5f6109be8383610ec056fea164736f6c634300081e000a","linkReferences":{}},"methodIdentifiers":{"decimals(address)":"d449a832","getAssetOutput(address,address,uint256)":"aa5815fd","getAssetOutputWithFees(bytes32,address,address,address,uint256)":"2f112c46","getBalanceOfOwner(address,address)":"fea8af5f","getPricePerShare(address)":"ec422afd","getPricePerShareMultiple(address[])":"a7a128b4","getShareOutput(address,address,uint256)":"056f143c","getTVL(address)":"0f40517a","getTVLByOwnerOfShares(address,address)":"4fecb266","getTVLByOwnerOfSharesMultiple(address[],address[][])":"34f99b48","getTVLMultiple(address[])":"cacc7b0e","superLedgerConfiguration()":"825e9ec7"},"id":328}