{"abi":[{"type":"constructor","inputs":[{"name":"superLedgerConfiguration_","type":"address","internalType":"address"}],"stateMutability":"nonpayable"},{"type":"function","name":"decimals","inputs":[{"name":"","type":"address","internalType":"address"}],"outputs":[{"name":"","type":"uint8","internalType":"uint8"}],"stateMutability":"pure"},{"type":"function","name":"getAssetOutput","inputs":[{"name":"yieldSourceAddress","type":"address","internalType":"address"},{"name":"assetOut","type":"address","internalType":"address"},{"name":"sharesIn","type":"uint256","internalType":"uint256"}],"outputs":[{"name":"","type":"uint256","internalType":"uint256"}],"stateMutability":"view"},{"type":"function","name":"getAssetOutputWithFees","inputs":[{"name":"yieldSourceOracleId","type":"bytes32","internalType":"bytes32"},{"name":"yieldSourceAddress","type":"address","internalType":"address"},{"name":"assetOut","type":"address","internalType":"address"},{"name":"user","type":"address","internalType":"address"},{"name":"usedShares","type":"uint256","internalType":"uint256"}],"outputs":[{"name":"","type":"uint256","internalType":"uint256"}],"stateMutability":"view"},{"type":"function","name":"getBalanceOfOwner","inputs":[{"name":"yieldSourceAddress","type":"address","internalType":"address"},{"name":"ownerOfShares","type":"address","internalType":"address"}],"outputs":[{"name":"","type":"uint256","internalType":"uint256"}],"stateMutability":"view"},{"type":"function","name":"getPricePerShare","inputs":[{"name":"yieldSourceAddress","type":"address","internalType":"address"}],"outputs":[{"name":"","type":"uint256","internalType":"uint256"}],"stateMutability":"view"},{"type":"function","name":"getPricePerShareMultiple","inputs":[{"name":"yieldSourceAddresses","type":"address[]","internalType":"address[]"}],"outputs":[{"name":"pricesPerShare","type":"uint256[]","internalType":"uint256[]"}],"stateMutability":"view"},{"type":"function","name":"getShareOutput","inputs":[{"name":"yieldSourceAddress","type":"address","internalType":"address"},{"name":"assetIn","type":"address","internalType":"address"},{"name":"assetsIn","type":"uint256","internalType":"uint256"}],"outputs":[{"name":"","type":"uint256","internalType":"uint256"}],"stateMutability":"view"},{"type":"function","name":"getTVL","inputs":[{"name":"yieldSourceAddress","type":"address","internalType":"address"}],"outputs":[{"name":"","type":"uint256","internalType":"uint256"}],"stateMutability":"view"},{"type":"function","name":"getTVLByOwnerOfShares","inputs":[{"name":"yieldSourceAddress","type":"address","internalType":"address"},{"name":"ownerOfShares","type":"address","internalType":"address"}],"outputs":[{"name":"","type":"uint256","internalType":"uint256"}],"stateMutability":"view"},{"type":"function","name":"getTVLByOwnerOfSharesMultiple","inputs":[{"name":"yieldSourceAddresses","type":"address[]","internalType":"address[]"},{"name":"ownersOfShares","type":"address[][]","internalType":"address[][]"}],"outputs":[{"name":"userTvls","type":"uint256[][]","internalType":"uint256[][]"}],"stateMutability":"view"},{"type":"function","name":"getTVLMultiple","inputs":[{"name":"yieldSourceAddresses","type":"address[]","internalType":"address[]"}],"outputs":[{"name":"tvls","type":"uint256[]","internalType":"uint256[]"}],"stateMutability":"view"},{"type":"function","name":"superLedgerConfiguration","inputs":[],"outputs":[{"name":"","type":"address","internalType":"address"}],"stateMutability":"view"},{"type":"error","name":"ARRAY_LENGTH_MISMATCH","inputs":[]},{"type":"error","name":"INVALID_BASE_ASSET","inputs":[]}],"bytecode":{"object":"0x60a0604052348015600e575f5ffd5b50604051610f44380380610f44833981016040819052602b91603b565b6001600160a01b03166080526066565b5f60208284031215604a575f5ffd5b81516001600160a01b0381168114605f575f5ffd5b9392505050565b608051610ebf6100855f395f8181610139015261039b0152610ebf5ff3fe608060405234801561000f575f5ffd5b50600436106100b1575f3560e01c8063a7a128b41161006e578063a7a128b414610173578063aa5815fd14610193578063cacc7b0e146101a6578063d449a832146101b9578063ec422afd146101df578063fea8af5f146101f2575f5ffd5b8063056f143c146100b55780630f40517a146100db5780632f112c46146100ee57806334f99b48146101015780634fecb26614610121578063825e9ec714610134575b5f5ffd5b6100c86100c33660046109fb565b610205565b6040519081526020015b60405180910390f35b6100c86100e9366004610a39565b610280565b6100c86100fc366004610a54565b610375565b61011461010f366004610b86565b6104ec565b6040516100d29190610c64565b6100c861012f366004610cf0565b610692565b61015b7f000000000000000000000000000000000000000000000000000000000000000081565b6040516001600160a01b0390911681526020016100d2565b610186610181366004610d27565b61079c565b6040516100d29190610d59565b6100c86101a13660046109fb565b61083e565b6101866101b4366004610d27565b610876565b6101cd6101c7366004610a39565b50601290565b60405160ff90911681526020016100d2565b6100c86101ed366004610a39565b610911565b6100c8610200366004610cf0565b610972565b604051635c7c159360e11b81526001600160a01b038381166004830152602482018390525f919085169063b8f82b26906044015b602060405180830381865afa158015610254573d5f5f3e3d5ffd5b505050506040513d601f19601f820116820180604052508101906102789190610d9b565b949350505050565b5f5f8290505f816001600160a01b03166318160ddd6040518163ffffffff1660e01b8152600401602060405180830381865afa1580156102c2573d5f5f3e3d5ffd5b505050506040513d601f19601f820116820180604052508101906102e69190610d9b565b9050805f036102f857505f9392505050565b670de0b6b3a7640000826001600160a01b0316633ba0b9a96040518163ffffffff1660e01b8152600401602060405180830381865afa15801561033d573d5f5f3e3d5ffd5b505050506040513d601f19601f820116820180604052508101906103619190610d9b565b61036b9083610dc6565b6102789190610ddd565b5f5f61038286868561083e565b604051630b47673760e41b8152600481018990529091507f00000000000000000000000000000000000000000000000000000000000000006001600160a01b03169063b47673709060240160a060405180830381865afa925050508015610406575060408051601f3d908101601f1916820190925261040391810190610dfc565b60015b6104115790506104e3565b5f8160200151118015610430575060808101516001600160a01b031615155b156104df57608081015160208201516040516349b1df7b60e01b81526001600160a01b0388811660048301528a81166024830152604482018690526064820188905260848201929092525f9291909116906349b1df7b9060a401602060405180830381865afa1580156104a5573d5f5f3e3d5ffd5b505050506040513d601f19601f820116820180604052508101906104c99190610d9b565b90506104d58184610e8b565b93505050506104e3565b5090505b95945050505050565b8151815160609190811461051357604051634456f5e960e11b815260040160405180910390fd5b8067ffffffffffffffff81111561052c5761052c610aab565b60405190808252806020026020018201604052801561055f57816020015b606081526020019060019003908161054a5790505b5091505f5b8181101561068a575f85828151811061057f5761057f610e9e565b602002602001015190505f85838151811061059c5761059c610e9e565b602002602001015190505f815190508067ffffffffffffffff8111156105c4576105c4610aab565b6040519080825280602002602001820160405280156105ed578160200160208202803683370190505b5086858151811061060057610600610e9e565b60200260200101819052505f5b8181101561067b575f6106398585848151811061062c5761062c610e9e565b6020026020010151610692565b90508088878151811061064e5761064e610e9e565b6020026020010151838151811061066757610667610e9e565b60209081029190910101525060010161060d565b50505050806001019050610564565b505092915050565b6040516370a0823160e01b81526001600160a01b0382811660048301525f9184918391908316906370a0823190602401602060405180830381865afa1580156106dd573d5f5f3e3d5ffd5b505050506040513d601f19601f820116820180604052508101906107019190610d9b565b9050805f03610714575f92505050610796565b670de0b6b3a7640000826001600160a01b0316633ba0b9a96040518163ffffffff1660e01b8152600401602060405180830381865afa158015610759573d5f5f3e3d5ffd5b505050506040513d601f19601f8201168201806040525081019061077d9190610d9b565b6107879083610dc6565b6107919190610ddd565b925050505b92915050565b80516060908067ffffffffffffffff8111156107ba576107ba610aab565b6040519080825280602002602001820160405280156107e3578160200160208202803683370190505b5091505f5b818110156108375761081284828151811061080557610805610e9e565b6020026020010151610911565b83828151811061082457610824610e9e565b60209081029190910101526001016107e8565b5050919050565b60405163cbe52ae360e01b81526001600160a01b038381166004830152602482018390525f919085169063cbe52ae390604401610239565b80516060908067ffffffffffffffff81111561089457610894610aab565b6040519080825280602002602001820160405280156108bd578160200160208202803683370190505b5091505f5b81811015610837576108ec8482815181106108df576108df610e9e565b6020026020010151610280565b8382815181106108fe576108fe610e9e565b60209081029190910101526001016108c2565b5f816001600160a01b0316633ba0b9a96040518163ffffffff1660e01b8152600401602060405180830381865afa15801561094e573d5f5f3e3d5ffd5b505050506040513d601f19601f820116820180604052508101906107969190610d9b565b6040516370a0823160e01b81526001600160a01b0382811660048301525f91908416906370a0823190602401602060405180830381865afa1580156109b9573d5f5f3e3d5ffd5b505050506040513d601f19601f820116820180604052508101906109dd9190610d9b565b9392505050565b6001600160a01b03811681146109f8575f5ffd5b50565b5f5f5f60608486031215610a0d575f5ffd5b8335610a18816109e4565b92506020840135610a28816109e4565b929592945050506040919091013590565b5f60208284031215610a49575f5ffd5b81356109dd816109e4565b5f5f5f5f5f60a08688031215610a68575f5ffd5b853594506020860135610a7a816109e4565b93506040860135610a8a816109e4565b92506060860135610a9a816109e4565b949793965091946080013592915050565b634e487b7160e01b5f52604160045260245ffd5b604051601f8201601f1916810167ffffffffffffffff81118282101715610ae857610ae8610aab565b604052919050565b5f67ffffffffffffffff821115610b0957610b09610aab565b5060051b60200190565b5f82601f830112610b22575f5ffd5b8135610b35610b3082610af0565b610abf565b8082825260208201915060208360051b860101925085831115610b56575f5ffd5b602085015b83811015610b7c578035610b6e816109e4565b835260209283019201610b5b565b5095945050505050565b5f5f60408385031215610b97575f5ffd5b823567ffffffffffffffff811115610bad575f5ffd5b610bb985828601610b13565b925050602083013567ffffffffffffffff811115610bd5575f5ffd5b8301601f81018513610be5575f5ffd5b8035610bf3610b3082610af0565b8082825260208201915060208360051b850101925087831115610c14575f5ffd5b602084015b83811015610c5557803567ffffffffffffffff811115610c37575f5ffd5b610c468a602083890101610b13565b84525060209283019201610c19565b50809450505050509250929050565b5f602082016020835280845180835260408501915060408160051b8601019250602086015f5b82811015610ce457868503603f19018452815180518087526020918201918701905f5b81811015610ccb578351835260209384019390920191600101610cad565b5090965050506020938401939190910190600101610c8a565b50929695505050505050565b5f5f60408385031215610d01575f5ffd5b8235610d0c816109e4565b91506020830135610d1c816109e4565b809150509250929050565b5f60208284031215610d37575f5ffd5b813567ffffffffffffffff811115610d4d575f5ffd5b61027884828501610b13565b602080825282518282018190525f918401906040840190835b81811015610d90578351835260209384019390920191600101610d72565b509095945050505050565b5f60208284031215610dab575f5ffd5b5051919050565b634e487b7160e01b5f52601160045260245ffd5b808202811582820484141761079657610796610db2565b5f82610df757634e487b7160e01b5f52601260045260245ffd5b500490565b5f60a0828403128015610e0d575f5ffd5b5060405160a0810167ffffffffffffffff81118282101715610e3157610e31610aab565b6040528251610e3f816109e4565b8152602083810151908201526040830151610e59816109e4565b60408201526060830151610e6c816109e4565b60608201526080830151610e7f816109e4565b60808201529392505050565b8082018082111561079657610796610db2565b634e487b7160e01b5f52603260045260245ffdfea164736f6c634300081e000a","linkReferences":{}},"methodIdentifiers":{"decimals(address)":"d449a832","getAssetOutput(address,address,uint256)":"aa5815fd","getAssetOutputWithFees(bytes32,address,address,address,uint256)":"2f112c46","getBalanceOfOwner(address,address)":"fea8af5f","getPricePerShare(address)":"ec422afd","getPricePerShareMultiple(address[])":"a7a128b4","getShareOutput(address,address,uint256)":"056f143c","getTVL(address)":"0f40517a","getTVLByOwnerOfShares(address,address)":"4fecb266","getTVLByOwnerOfSharesMultiple(address[],address[][])":"34f99b48","getTVLMultiple(address[])":"cacc7b0e","superLedgerConfiguration()":"825e9ec7"},"id":329}