{"abi":[{"type":"constructor","inputs":[],"stateMutability":"nonpayable"},{"type":"function","name":"asset","inputs":[],"outputs":[{"name":"","type":"address","internalType":"address"}],"stateMutability":"view"},{"type":"function","name":"build","inputs":[{"name":"prevHook","type":"address","internalType":"address"},{"name":"account","type":"address","internalType":"address"},{"name":"hookData","type":"bytes","internalType":"bytes"}],"outputs":[{"name":"executions","type":"tuple[]","internalType":"struct Execution[]","components":[{"name":"target","type":"address","internalType":"address"},{"name":"value","type":"uint256","internalType":"uint256"},{"name":"callData","type":"bytes","internalType":"bytes"}]}],"stateMutability":"view"},{"type":"function","name":"decodeAmount","inputs":[{"name":"data","type":"bytes","internalType":"bytes"}],"outputs":[{"name":"","type":"uint256","internalType":"uint256"}],"stateMutability":"pure"},{"type":"function","name":"executionNonce","inputs":[],"outputs":[{"name":"","type":"uint256","internalType":"uint256"}],"stateMutability":"view"},{"type":"function","name":"getOutAmount","inputs":[{"name":"caller","type":"address","internalType":"address"}],"outputs":[{"name":"","type":"uint256","internalType":"uint256"}],"stateMutability":"view"},{"type":"function","name":"hookType","inputs":[],"outputs":[{"name":"","type":"uint8","internalType":"enum ISuperHook.HookType"}],"stateMutability":"view"},{"type":"function","name":"inspect","inputs":[{"name":"data","type":"bytes","internalType":"bytes"}],"outputs":[{"name":"","type":"bytes","internalType":"bytes"}],"stateMutability":"pure"},{"type":"function","name":"lastCaller","inputs":[],"outputs":[{"name":"","type":"address","internalType":"address"}],"stateMutability":"view"},{"type":"function","name":"postExecute","inputs":[{"name":"prevHook","type":"address","internalType":"address"},{"name":"account","type":"address","internalType":"address"},{"name":"data","type":"bytes","internalType":"bytes"}],"outputs":[],"stateMutability":"nonpayable"},{"type":"function","name":"postExecuteMutex","inputs":[],"outputs":[{"name":"","type":"bool","internalType":"bool"}],"stateMutability":"view"},{"type":"function","name":"preExecute","inputs":[{"name":"prevHook","type":"address","internalType":"address"},{"name":"account","type":"address","internalType":"address"},{"name":"data","type":"bytes","internalType":"bytes"}],"outputs":[],"stateMutability":"nonpayable"},{"type":"function","name":"preExecuteMutex","inputs":[],"outputs":[{"name":"","type":"bool","internalType":"bool"}],"stateMutability":"view"},{"type":"function","name":"resetExecutionState","inputs":[{"name":"caller","type":"address","internalType":"address"}],"outputs":[],"stateMutability":"nonpayable"},{"type":"function","name":"setExecutionContext","inputs":[{"name":"caller","type":"address","internalType":"address"}],"outputs":[],"stateMutability":"nonpayable"},{"type":"function","name":"setOutAmount","inputs":[{"name":"_outAmount","type":"uint256","internalType":"uint256"},{"name":"caller","type":"address","internalType":"address"}],"outputs":[],"stateMutability":"nonpayable"},{"type":"function","name":"spToken","inputs":[],"outputs":[{"name":"","type":"address","internalType":"address"}],"stateMutability":"view"},{"type":"function","name":"subType","inputs":[],"outputs":[{"name":"","type":"bytes32","internalType":"bytes32"}],"stateMutability":"view"},{"type":"function","name":"subtype","inputs":[],"outputs":[{"name":"","type":"bytes32","internalType":"bytes32"}],"stateMutability":"view"},{"type":"function","name":"usedShares","inputs":[],"outputs":[{"name":"","type":"uint256","internalType":"uint256"}],"stateMutability":"view"},{"type":"error","name":"ADDRESS_NOT_VALID","inputs":[]},{"type":"error","name":"AMOUNT_NOT_VALID","inputs":[]},{"type":"error","name":"CANNOT_SET_OUT_AMOUNT","inputs":[]},{"type":"error","name":"INCOMPLETE_HOOK_EXECUTION","inputs":[]},{"type":"error","name":"NOT_AUTHORIZED","inputs":[]},{"type":"error","name":"POST_EXECUTE_ALREADY_CALLED","inputs":[]},{"type":"error","name":"PRE_EXECUTE_ALREADY_CALLED","inputs":[]},{"type":"error","name":"UNAUTHORIZED_CALLER","inputs":[]}],"bytecode":{"object":"0x60a0604052348015600e575f5ffd5b5060408051808201909152600881526721b7b7b63237bbb760c11b6020909101525f805460ff191690557f70fbe9d5927235f8c6014e8efeb60b8ac37eb0fca78742c3a38f4cc6d89da3a960805260805161110b61007b5f395f81816101e801526102a5015261110b5ff3fe608060405234801561000f575f5ffd5b506004361061011c575f3560e01c806360b5be29116100a95780638e1487761161006e5780638e1487761461027b578063ac440f721461028d578063cf0a6181146102a0578063d06a1e89146102c7578063e445e7dd146102da575f5ffd5b806360b5be291461020c578063685a943c1461022e57806381cbe6911461023657806384542a24146102495780638c4313c11461025b575f5ffd5b80632113522a116100ef5780632113522a146101775780632ae2fe3d146101a157806338d52e0f146101b45780633b5896bc146101c65780635492e677146101e6575f5ffd5b806301bd43ef1461012057806305b4fe911461013c57806314cb37cf146101515780631f26461914610164575b5f5ffd5b61012960035c81565b6040519081526020015b60405180910390f35b61014f61014a366004610da0565b6102f3565b005b61014f61015f366004610dfd565b61036d565b61014f610172366004610e16565b61038e565b6101896001600160a01b0360045c1681565b6040516001600160a01b039091168152602001610133565b61014f6101af366004610da0565b6103e7565b6101896001600160a01b0360025c1681565b6101d96101d4366004610da0565b61045a565b6040516101339190610e6e565b7f0000000000000000000000000000000000000000000000000000000000000000610129565b61021e60ff600160a81b60025c041681565b6040519015158152602001610133565b6101295f5c81565b610129610244366004610dfd565b610673565b61021e60ff600160a01b60025c041681565b61026e610269366004610efb565b61068b565b6040516101339190610f3a565b6101896001600160a01b0360015c1681565b61012961029b366004610f60565b61070a565b6101297f000000000000000000000000000000000000000000000000000000000000000081565b61014f6102d5366004610dfd565b610714565b5f546102e69060ff1681565b6040516101339190611013565b336001600160a01b0384161461031c5760405163e15e56c960e01b815260040160405180910390fd5b5f61032684610766565b905061033181610779565b1561034f5760405163945b63f560e01b815260040160405180910390fd5b61035a816001610786565b6103668585858561079c565b5050505050565b610376816107f0565b50336004805c6001600160a01b0319168217905d5050565b5f61039882610766565b90506103a381610822565b806103b257506103b281610779565b156103d05760405163441e4c7360e11b815260040160405180910390fd5b5f6103dc82600161082b565b905083815d50505050565b336001600160a01b038416146104105760405163e15e56c960e01b815260040160405180910390fd5b5f61041a84610766565b905061042581610822565b1561044357604051630bbb04d960e11b815260040160405180910390fd5b61044e816001610880565b6103668585858561088c565b60605f610469868686866108cb565b905080516002610479919061104d565b67ffffffffffffffff81111561049157610491610f4c565b6040519080825280602002602001820160405280156104dd57816020015b60408051606080820183525f8083526020830152918101919091528152602001906001900390816104af5790505b5091506040518060600160405280306001600160a01b031681526020015f8152602001306001600160a01b0316632ae2fe3d898989896040516024016105269493929190611060565b604051602081830303815290604052915060e01b6020820180516001600160e01b038381831617835250505050815250825f81518110610568576105686110a8565b60209081029190910101525f5b81518110156105c957818181518110610590576105906110a8565b6020026020010151838260016105a6919061104d565b815181106105b6576105b66110a8565b6020908102919091010152600101610575565b506040518060600160405280306001600160a01b031681526020015f8152602001306001600160a01b03166305b4fe91898989896040516024016106109493929190611060565b604051602081830303815290604052915060e01b6020820180516001600160e01b038381831617835250505050815250826001845161064f91906110bc565b8151811061065f5761065f6110a8565b602002602001018190525050949350505050565b5f61068561068083610766565b610b2b565b92915050565b60606106cb83838080601f0160208091040260200160405190810160405280939291908181526020018383808284375f92019190915250610b3892505050565b6040516020016106f3919060609190911b6bffffffffffffffffffffffff1916815260140190565b604051602081830303815290604052905092915050565b5f61068582610b44565b5f61071e82610766565b905061072981610822565b158061073b575061073981610779565b155b1561075957604051634bd439b560e11b815260040160405180910390fd5b61076281610b50565b5050565b5f5f61077183610b67565b5c9392505050565b5f5f61077183600361082b565b5f61079283600361082b565b905081815d505050565b6107db8383838080601f0160208091040260200160405190810160405280939291908181526020018383808284375f92019190915250610bd392505050565b6107e6905f5c6110bc565b805f5d5050505050565b5f6003805c9082610800836110cf565b9190505d505f61080f83610b67565b905060035c80825d505060035c92915050565b5f5f6107718360025b604080517fc41a07c57a776f6217c6d4278dfe7a5d114742afe55627ce458c2802aa4d703460208083019190915281830194909452606080820193909352815180820390930183526080019052805191012090565b5f61079283600261082b565b6107e68383838080601f0160208091040260200160405190810160405280939291908181526020018383808284375f92019190915250610bd392505050565b60605f61090c84848080601f0160208091040260200160405190810160405280939291908181526020018383808284375f92019190915250610b3892505050565b90505f61094d85858080601f0160208091040260200160405190810160405280939291908181526020018383808284375f92019190915250610b4492505050565b90505f61099186868080601f0160208091040260200160405190810160405280939291908181526020018383808284375f9201919091525060549250610c4e915050565b90508015610a04576040516381cbe69160e01b81526001600160a01b0388811660048301528916906381cbe69190602401602060405180830381865afa1580156109dd573d5f5f3e3d5ffd5b505050506040513d601f19601f82011682018060405250810190610a0191906110e7565b91505b815f03610a24576040516305112ab160e41b815260040160405180910390fd5b6001600160a01b0383161580610a4157506001600160a01b038716155b15610a5f57604051630f58648f60e01b815260040160405180910390fd5b60408051600180825281830190925290816020015b60408051606080820183525f808352602083015291810191909152815260200190600190039081610a745790505093506040518060600160405280846001600160a01b031681526020015f815260200183604051602401610ad791815260200190565b60408051601f198184030181529190526020810180516001600160e01b0316639343d9e160e01b1790529052845185905f90610b1557610b156110a8565b6020026020010181905250505050949350505050565b5f5f61077183600161082b565b5f610685826020610c7a565b5f610685826034610ce3565b610b5a815f610880565b610b64815f610786565b50565b5f7f8ce092d4869bdfa1a1ce579ddddb2b776c39ace5d7b5d7e70e97ece2a78f4f9b82604051602001610bb692919091825260601b6bffffffffffffffffffffffff1916602082015260340190565b604051602081830303815290604052805190602001209050919050565b5f610bdd82610b38565b6040516370a0823160e01b81526001600160a01b03858116600483015291909116906370a0823190602401602060405180830381865afa158015610c23573d5f5f3e3d5ffd5b505050506040513d601f19601f82011682018060405250810190610c4791906110e7565b9392505050565b5f828281518110610c6157610c616110a8565b01602001516001600160f81b0319161515905092915050565b5f610c8682601461104d565b83511015610cd35760405162461bcd60e51b8152602060048201526015602482015274746f416464726573735f6f75744f66426f756e647360581b60448201526064015b60405180910390fd5b500160200151600160601b900490565b5f610cef82602061104d565b83511015610d375760405162461bcd60e51b8152602060048201526015602482015274746f55696e743235365f6f75744f66426f756e647360581b6044820152606401610cca565b50016020015190565b80356001600160a01b0381168114610d56575f5ffd5b919050565b5f5f83601f840112610d6b575f5ffd5b50813567ffffffffffffffff811115610d82575f5ffd5b602083019150836020828501011115610d99575f5ffd5b9250929050565b5f5f5f5f60608587031215610db3575f5ffd5b610dbc85610d40565b9350610dca60208601610d40565b9250604085013567ffffffffffffffff811115610de5575f5ffd5b610df187828801610d5b565b95989497509550505050565b5f60208284031215610e0d575f5ffd5b610c4782610d40565b5f5f60408385031215610e27575f5ffd5b82359150610e3760208401610d40565b90509250929050565b5f81518084528060208401602086015e5f602082860101526020601f19601f83011685010191505092915050565b5f602082016020835280845180835260408501915060408160051b8601019250602086015f5b82811015610eef57868503603f19018452815180516001600160a01b0316865260208082015190870152604090810151606091870182905290610ed990870182610e40565b9550506020938401939190910190600101610e94565b50929695505050505050565b5f5f60208385031215610f0c575f5ffd5b823567ffffffffffffffff811115610f22575f5ffd5b610f2e85828601610d5b565b90969095509350505050565b602081525f610c476020830184610e40565b634e487b7160e01b5f52604160045260245ffd5b5f60208284031215610f70575f5ffd5b813567ffffffffffffffff811115610f86575f5ffd5b8201601f81018413610f96575f5ffd5b803567ffffffffffffffff811115610fb057610fb0610f4c565b604051601f8201601f19908116603f0116810167ffffffffffffffff81118282101715610fdf57610fdf610f4c565b604052818152828201602001861015610ff6575f5ffd5b816020840160208301375f91810160200191909152949350505050565b602081016003831061103357634e487b7160e01b5f52602160045260245ffd5b91905290565b634e487b7160e01b5f52601160045260245ffd5b8082018082111561068557610685611039565b6001600160a01b038581168252841660208201526060604082018190528101829052818360808301375f818301608090810191909152601f909201601f191601019392505050565b634e487b7160e01b5f52603260045260245ffd5b8181038181111561068557610685611039565b5f600182016110e0576110e0611039565b5060010190565b5f602082840312156110f7575f5ffd5b505191905056fea164736f6c634300081e000a","linkReferences":{}},"methodIdentifiers":{"asset()":"38d52e0f","build(address,address,bytes)":"3b5896bc","decodeAmount(bytes)":"ac440f72","executionNonce()":"01bd43ef","getOutAmount(address)":"81cbe691","hookType()":"e445e7dd","inspect(bytes)":"8c4313c1","lastCaller()":"2113522a","postExecute(address,address,bytes)":"05b4fe91","postExecuteMutex()":"60b5be29","preExecute(address,address,bytes)":"2ae2fe3d","preExecuteMutex()":"84542a24","resetExecutionState(address)":"d06a1e89","setExecutionContext(address)":"14cb37cf","setOutAmount(uint256,address)":"1f264619","spToken()":"8e148776","subType()":"cf0a6181","subtype()":"5492e677","usedShares()":"685a943c"},"id":395}