{"abi":[{"type":"constructor","inputs":[{"name":"_distributor","type":"address","internalType":"address"}],"stateMutability":"nonpayable"},{"type":"function","name":"asset","inputs":[],"outputs":[{"name":"","type":"address","internalType":"address"}],"stateMutability":"view"},{"type":"function","name":"build","inputs":[{"name":"prevHook","type":"address","internalType":"address"},{"name":"account","type":"address","internalType":"address"},{"name":"hookData","type":"bytes","internalType":"bytes"}],"outputs":[{"name":"executions","type":"tuple[]","internalType":"struct Execution[]","components":[{"name":"target","type":"address","internalType":"address"},{"name":"value","type":"uint256","internalType":"uint256"},{"name":"callData","type":"bytes","internalType":"bytes"}]}],"stateMutability":"view"},{"type":"function","name":"decodeAmount","inputs":[{"name":"","type":"bytes","internalType":"bytes"}],"outputs":[{"name":"","type":"uint256","internalType":"uint256"}],"stateMutability":"pure"},{"type":"function","name":"decodeUsePrevHookAmount","inputs":[{"name":"","type":"bytes","internalType":"bytes"}],"outputs":[{"name":"","type":"bool","internalType":"bool"}],"stateMutability":"pure"},{"type":"function","name":"distributor","inputs":[],"outputs":[{"name":"","type":"address","internalType":"address"}],"stateMutability":"view"},{"type":"function","name":"executionNonce","inputs":[],"outputs":[{"name":"","type":"uint256","internalType":"uint256"}],"stateMutability":"view"},{"type":"function","name":"getOutAmount","inputs":[{"name":"caller","type":"address","internalType":"address"}],"outputs":[{"name":"","type":"uint256","internalType":"uint256"}],"stateMutability":"view"},{"type":"function","name":"hookType","inputs":[],"outputs":[{"name":"","type":"uint8","internalType":"enum ISuperHook.HookType"}],"stateMutability":"view"},{"type":"function","name":"inspect","inputs":[{"name":"data","type":"bytes","internalType":"bytes"}],"outputs":[{"name":"","type":"bytes","internalType":"bytes"}],"stateMutability":"view"},{"type":"function","name":"lastCaller","inputs":[],"outputs":[{"name":"","type":"address","internalType":"address"}],"stateMutability":"view"},{"type":"function","name":"postExecute","inputs":[{"name":"prevHook","type":"address","internalType":"address"},{"name":"account","type":"address","internalType":"address"},{"name":"data","type":"bytes","internalType":"bytes"}],"outputs":[],"stateMutability":"nonpayable"},{"type":"function","name":"postExecuteMutex","inputs":[],"outputs":[{"name":"","type":"bool","internalType":"bool"}],"stateMutability":"view"},{"type":"function","name":"preExecute","inputs":[{"name":"prevHook","type":"address","internalType":"address"},{"name":"account","type":"address","internalType":"address"},{"name":"data","type":"bytes","internalType":"bytes"}],"outputs":[],"stateMutability":"nonpayable"},{"type":"function","name":"preExecuteMutex","inputs":[],"outputs":[{"name":"","type":"bool","internalType":"bool"}],"stateMutability":"view"},{"type":"function","name":"replaceCalldataAmount","inputs":[{"name":"data","type":"bytes","internalType":"bytes"},{"name":"","type":"uint256","internalType":"uint256"}],"outputs":[{"name":"","type":"bytes","internalType":"bytes"}],"stateMutability":"pure"},{"type":"function","name":"resetExecutionState","inputs":[{"name":"caller","type":"address","internalType":"address"}],"outputs":[],"stateMutability":"nonpayable"},{"type":"function","name":"setExecutionContext","inputs":[{"name":"caller","type":"address","internalType":"address"}],"outputs":[],"stateMutability":"nonpayable"},{"type":"function","name":"setOutAmount","inputs":[{"name":"_outAmount","type":"uint256","internalType":"uint256"},{"name":"caller","type":"address","internalType":"address"}],"outputs":[],"stateMutability":"nonpayable"},{"type":"function","name":"spToken","inputs":[],"outputs":[{"name":"","type":"address","internalType":"address"}],"stateMutability":"view"},{"type":"function","name":"subType","inputs":[],"outputs":[{"name":"","type":"bytes32","internalType":"bytes32"}],"stateMutability":"view"},{"type":"function","name":"subtype","inputs":[],"outputs":[{"name":"","type":"bytes32","internalType":"bytes32"}],"stateMutability":"view"},{"type":"function","name":"usedShares","inputs":[],"outputs":[{"name":"","type":"uint256","internalType":"uint256"}],"stateMutability":"view"},{"type":"error","name":"ADDRESS_NOT_VALID","inputs":[]},{"type":"error","name":"AMOUNT_NOT_VALID","inputs":[]},{"type":"error","name":"CANNOT_SET_OUT_AMOUNT","inputs":[]},{"type":"error","name":"INCOMPLETE_HOOK_EXECUTION","inputs":[]},{"type":"error","name":"INVALID_ENCODING","inputs":[]},{"type":"error","name":"NOT_AUTHORIZED","inputs":[]},{"type":"error","name":"POST_EXECUTE_ALREADY_CALLED","inputs":[]},{"type":"error","name":"PRE_EXECUTE_ALREADY_CALLED","inputs":[]},{"type":"error","name":"UNAUTHORIZED_CALLER","inputs":[]}],"bytecode":{"object":"0x60c060405234801561000f575f5ffd5b5060405161178c38038061178c83398101604081905261002e91610089565b604080518082019091526005815264436c61696d60d81b6020909101525f805460ff191690557f5c2db6855baf6c374b9d0065771a33d4c31a8627d7b9d40f3fc6aa5dbd7b8a486080526001600160a01b031660a0526100b6565b5f60208284031215610099575f5ffd5b81516001600160a01b03811681146100af575f5ffd5b9392505050565b60805160a0516116a06100ec5f395f81816102d9015281816106fe015261098e01525f8181610229015261030001526116a05ff3fe608060405234801561000f575f5ffd5b506004361061013d575f3560e01c8063685a943c116100b4578063ac440f7211610079578063ac440f72146102c1578063bfe10928146102d4578063cf0a6181146102fb578063d06a1e8914610322578063e445e7dd14610335578063e77455171461034e575f5ffd5b8063685a943c1461026f57806381cbe6911461027757806384542a241461028a5780638c4313c11461029c5780638e148776146102af575f5ffd5b80632ae2fe3d116101055780632ae2fe3d146101c257806338d52e0f146101d55780633a28b0ab146101e75780633b5896bc146102075780635492e6771461022757806360b5be291461024d575f5ffd5b806301bd43ef1461014157806305b4fe911461015d57806314cb37cf146101725780631f264619146101855780632113522a14610198575b5f5ffd5b61014a60035c81565b6040519081526020015b60405180910390f35b61017061016b3660046111a3565b61035c565b005b6101706101803660046111ff565b6103d6565b61017061019336600461121f565b6103f7565b6101aa6001600160a01b0360045c1681565b6040516001600160a01b039091168152602001610154565b6101706101d03660046111a3565b610450565b6101aa6001600160a01b0360025c1681565b6101fa6101f53660046112e6565b6104b7565b6040516101549190611355565b61021a6102153660046111a3565b6104bf565b6040516101549190611367565b7f000000000000000000000000000000000000000000000000000000000000000061014a565b61025f60ff600160a81b60025c041681565b6040519015158152602001610154565b61014a5f5c81565b61014a6102853660046111ff565b6106d7565b61025f60ff600160a01b60025c041681565b6101fa6102aa3660046113f4565b6106e9565b6101aa6001600160a01b0360015c1681565b61014a6102cf366004611432565b505f90565b6101aa7f000000000000000000000000000000000000000000000000000000000000000081565b61014a7f000000000000000000000000000000000000000000000000000000000000000081565b6101706103303660046111ff565b6107a5565b5f546103419060ff1681565b604051610154919061146b565b61025f6102cf366004611432565b336001600160a01b038416146103855760405163e15e56c960e01b815260040160405180910390fd5b5f61038f846107f7565b905061039a8161080a565b156103b85760405163945b63f560e01b815260040160405180910390fd5b6103c3816001610817565b6103cf8585858561082d565b5050505050565b6103df8161083d565b50336004805c6001600160a01b0319168217905d5050565b5f610401826107f7565b905061040c8161086f565b8061041b575061041b8161080a565b156104395760405163441e4c7360e11b815260040160405180910390fd5b5f610445826001610878565b905083815d50505050565b336001600160a01b038416146104795760405163e15e56c960e01b815260040160405180910390fd5b5f610483846107f7565b905061048e8161086f565b156104ac57604051630bbb04d960e11b815260040160405180910390fd5b6103c38160016108cd565b815b92915050565b60605f6104ce868686866108d9565b9050805160026104de91906114a5565b6001600160401b038111156104f5576104f5611249565b60405190808252806020026020018201604052801561054157816020015b60408051606080820183525f8083526020830152918101919091528152602001906001900390816105135790505b5091506040518060600160405280306001600160a01b031681526020015f8152602001306001600160a01b0316632ae2fe3d8989898960405160240161058a94939291906114b8565b604051602081830303815290604052915060e01b6020820180516001600160e01b038381831617835250505050815250825f815181106105cc576105cc611500565b60209081029190910101525f5b815181101561062d578181815181106105f4576105f4611500565b60200260200101518382600161060a91906114a5565b8151811061061a5761061a611500565b60209081029190910101526001016105d9565b506040518060600160405280306001600160a01b031681526020015f8152602001306001600160a01b03166305b4fe918989898960405160240161067494939291906114b8565b604051602081830303815290604052915060e01b6020820180516001600160e01b03838183161783525050505081525082600184516106b39190611514565b815181106106c3576106c3611500565b602002602001018190525050949350505050565b5f6104b96106e4836107f7565b610a3a565b60605f6106f68484610a47565b5050604080517f000000000000000000000000000000000000000000000000000000000000000060601b6001600160601b03191660208201528151601481830301815260349091019091528151919250905f5b8181101561079a578284828151811061076457610764611500565b602002602001015160601b604051602001610780929190611527565b60408051601f198184030181529190529250600101610749565b509095945050505050565b5f6107af826107f7565b90506107ba8161086f565b15806107cc57506107ca8161080a565b155b156107ea57604051634bd439b560e11b815260040160405180910390fd5b6107f381610a7c565b5050565b5f5f61080283610a93565b5c9392505050565b5f5f610802836003610878565b5f610823836003610878565b905081815d505050565b6108375f84610afa565b50505050565b5f6003805c908261084d8361154e565b9190505d505f61085c83610a93565b905060035c80825d505060035c92915050565b5f5f6108028360025b604080517fc41a07c57a776f6217c6d4278dfe7a5d114742afe55627ce458c2802aa4d703460208083019190915281830194909452606080820193909352815180820390930183526080019052805191012090565b5f610823836002610878565b60606109066040518060800160405280606081526020016060815260200160608152602001606081525090565b5f610912868686610b12565b80835290506109218585610a47565b606085015260408401526020830152600160405190808252806020026020018201604052801561097e57816020015b60408051606080820183525f8083526020830152918101919091528152602001906001900390816109505790505b50925060405180606001604052807f00000000000000000000000000000000000000000000000000000000000000006001600160a01b031681526020015f8152602001835f01518460200151856040015186606001516040516024016109e794939291906115a9565b60408051601f198184030181529190526020810180516001600160e01b03166301c7ba5760e61b1790529052835184905f90610a2557610a25611500565b60200260200101819052505050949350505050565b5f5f610802836001610878565b60608060605f5f5f610a598888610bf2565b925092509250819550809450610a70888885610e26565b93505050509250925092565b610a86815f6108cd565b610a90815f610817565b50565b5f7f8ce092d4869bdfa1a1ce579ddddb2b776c39ace5d7b5d7e70e97ece2a78f4f9b82604051602001610add92919091825260601b6001600160601b031916602082015260340190565b604051602081830303815290604052805190602001209050919050565b5f610b04826107f7565b90505f610445826001610878565b60605f610b5684848080601f0160208091040260200160405190810160405280939291908181526020018383808284375f920191909152506020925061102a915050565b90506040816001600160401b03811115610b7257610b72611249565b604051908082528060200260200182016040528015610b9b578160200160208202803683370190505b5092505f5b82811015610be85786848281518110610bbb57610bbb611500565b6001600160a01b0390921660209283029190910190910152610bde6014836114a5565b9150600101610ba0565b5050509392505050565b5f6060805f610c3886868080601f0160208091040260200160405190810160405280939291908181526020018383808284375f920191909152506020925061102a915050565b905060409350806001600160401b03811115610c5657610c56611249565b604051908082528060200260200182016040528015610c7f578160200160208202803683370190505b5092505f5b81811015610d37575f610ccd88888080601f0160208091040260200160405190810160405280939291908181526020018383808284375f920191909152508a925061108c915050565b9050610cda6014876114a5565b95506001600160a01b038116610d0357604051630f58648f60e01b815260040160405180910390fd5b80858381518110610d1657610d16611500565b6001600160a01b039092166020928302919091019091015250600101610c84565b50806001600160401b03811115610d5057610d50611249565b604051908082528060200260200182016040528015610d79578160200160208202803683370190505b5091505f5b81811015610e1d575f610dc788888080601f0160208091040260200160405190810160405280939291908181526020018383808284375f920191909152508a925061102a915050565b9050610dd46020876114a5565b9550805f03610df6576040516305112ab160e41b815260040160405180910390fd5b80848381518110610e0957610e09611500565b602090810291909101015250600101610d7e565b50509250925092565b60605f610e6a85858080601f0160208091040260200160405190810160405280939291908181526020018383808284375f920191909152506020925061102a915050565b9050806001600160401b03811115610e8457610e84611249565b604051908082528060200260200182016040528015610eb757816020015b6060815260200190600190039081610ea25790505b5091505f5b81811015611001575f610f0587878080601f0160208091040260200160405190810160405280939291908181526020018383808284375f9201919091525089925061102a915050565b9050610f126020866114a5565b94505f816001600160401b03811115610f2d57610f2d611249565b604051908082528060200260200182016040528015610f56578160200160208202803683370190505b5090505f5b82811015610fd857610fa389898080601f0160208091040260200160405190810160405280939291908181526020018383808284375f920191909152508b92506110f0915050565b828281518110610fb557610fb5611500565b602002602001018181525050602087610fce91906114a5565b9650600101610f5b565b5080858481518110610fec57610fec611500565b60209081029190910101525050600101610ebc565b5082841461102257604051637277ba1b60e01b815260040160405180910390fd5b509392505050565b5f6110368260206114a5565b835110156110835760405162461bcd60e51b8152602060048201526015602482015274746f55696e743235365f6f75744f66426f756e647360581b60448201526064015b60405180910390fd5b50016020015190565b5f6110988260146114a5565b835110156110e05760405162461bcd60e51b8152602060048201526015602482015274746f416464726573735f6f75744f66426f756e647360581b604482015260640161107a565b500160200151600160601b900490565b5f6110fc8260206114a5565b835110156110835760405162461bcd60e51b8152602060048201526015602482015274746f427974657333325f6f75744f66426f756e647360581b604482015260640161107a565b80356001600160a01b038116811461115a575f5ffd5b919050565b5f5f83601f84011261116f575f5ffd5b5081356001600160401b03811115611185575f5ffd5b60208301915083602082850101111561119c575f5ffd5b9250929050565b5f5f5f5f606085870312156111b6575f5ffd5b6111bf85611144565b93506111cd60208601611144565b925060408501356001600160401b038111156111e7575f5ffd5b6111f38782880161115f565b95989497509550505050565b5f6020828403121561120f575f5ffd5b61121882611144565b9392505050565b5f5f60408385031215611230575f5ffd5b8235915061124060208401611144565b90509250929050565b634e487b7160e01b5f52604160045260245ffd5b5f82601f83011261126c575f5ffd5b81356001600160401b0381111561128557611285611249565b604051601f8201601f19908116603f011681016001600160401b03811182821017156112b3576112b3611249565b6040528181528382016020018510156112ca575f5ffd5b816020850160208301375f918101602001919091529392505050565b5f5f604083850312156112f7575f5ffd5b82356001600160401b0381111561130c575f5ffd5b6113188582860161125d565b95602094909401359450505050565b5f81518084528060208401602086015e5f602082860101526020601f19601f83011685010191505092915050565b602081525f6112186020830184611327565b5f602082016020835280845180835260408501915060408160051b8601019250602086015f5b828110156113e857868503603f19018452815180516001600160a01b03168652602080820151908701526040908101516060918701829052906113d290870182611327565b955050602093840193919091019060010161138d565b50929695505050505050565b5f5f60208385031215611405575f5ffd5b82356001600160401b0381111561141a575f5ffd5b6114268582860161115f565b90969095509350505050565b5f60208284031215611442575f5ffd5b81356001600160401b03811115611457575f5ffd5b6114638482850161125d565b949350505050565b602081016003831061148b57634e487b7160e01b5f52602160045260245ffd5b91905290565b634e487b7160e01b5f52601160045260245ffd5b808201808211156104b9576104b9611491565b6001600160a01b038581168252841660208201526060604082018190528101829052818360808301375f818301608090810191909152601f909201601f191601019392505050565b634e487b7160e01b5f52603260045260245ffd5b818103818111156104b9576104b9611491565b5f83518060208601845e6001600160601b0319939093169190920190815260140192915050565b5f6001820161155f5761155f611491565b5060010190565b5f8151808452602084019350602083015f5b8281101561159f5781516001600160a01b0316865260209586019590910190600101611578565b5093949350505050565b608081525f6115bb6080830187611566565b82810360208401526115cd8187611566565b8381036040850152855180825260208088019350909101905f5b818110156116055783518352602093840193909201916001016115e7565b50508381036060850152845180825260208083019350600582901b830181019087015f5b8381101561168357848303601f19018652815180518085526020918201918501905f5b8181101561166a57835183526020938401939092019160010161164c565b5050602097880197909450929092019150600101611629565b50909a995050505050505050505056fea164736f6c634300081e000a","linkReferences":{}},"methodIdentifiers":{"asset()":"38d52e0f","build(address,address,bytes)":"3b5896bc","decodeAmount(bytes)":"ac440f72","decodeUsePrevHookAmount(bytes)":"e7745517","distributor()":"bfe10928","executionNonce()":"01bd43ef","getOutAmount(address)":"81cbe691","hookType()":"e445e7dd","inspect(bytes)":"8c4313c1","lastCaller()":"2113522a","postExecute(address,address,bytes)":"05b4fe91","postExecuteMutex()":"60b5be29","preExecute(address,address,bytes)":"2ae2fe3d","preExecuteMutex()":"84542a24","replaceCalldataAmount(bytes,uint256)":"3a28b0ab","resetExecutionState(address)":"d06a1e89","setExecutionContext(address)":"14cb37cf","setOutAmount(uint256,address)":"1f264619","spToken()":"8e148776","subType()":"cf0a6181","subtype()":"5492e677","usedShares()":"685a943c"},"id":348}