{"abi":[{"type":"constructor","inputs":[{"name":"_distributor","type":"address","internalType":"address"}],"stateMutability":"nonpayable"},{"type":"function","name":"asset","inputs":[],"outputs":[{"name":"","type":"address","internalType":"address"}],"stateMutability":"view"},{"type":"function","name":"build","inputs":[{"name":"prevHook","type":"address","internalType":"address"},{"name":"account","type":"address","internalType":"address"},{"name":"hookData","type":"bytes","internalType":"bytes"}],"outputs":[{"name":"executions","type":"tuple[]","internalType":"struct Execution[]","components":[{"name":"target","type":"address","internalType":"address"},{"name":"value","type":"uint256","internalType":"uint256"},{"name":"callData","type":"bytes","internalType":"bytes"}]}],"stateMutability":"view"},{"type":"function","name":"distributor","inputs":[],"outputs":[{"name":"","type":"address","internalType":"address"}],"stateMutability":"view"},{"type":"function","name":"executionNonce","inputs":[],"outputs":[{"name":"","type":"uint256","internalType":"uint256"}],"stateMutability":"view"},{"type":"function","name":"getOutAmount","inputs":[{"name":"caller","type":"address","internalType":"address"}],"outputs":[{"name":"","type":"uint256","internalType":"uint256"}],"stateMutability":"view"},{"type":"function","name":"hookType","inputs":[],"outputs":[{"name":"","type":"uint8","internalType":"enum ISuperHook.HookType"}],"stateMutability":"view"},{"type":"function","name":"inspect","inputs":[{"name":"data","type":"bytes","internalType":"bytes"}],"outputs":[{"name":"addressData","type":"bytes","internalType":"bytes"}],"stateMutability":"pure"},{"type":"function","name":"lastCaller","inputs":[],"outputs":[{"name":"","type":"address","internalType":"address"}],"stateMutability":"view"},{"type":"function","name":"postExecute","inputs":[{"name":"prevHook","type":"address","internalType":"address"},{"name":"account","type":"address","internalType":"address"},{"name":"data","type":"bytes","internalType":"bytes"}],"outputs":[],"stateMutability":"nonpayable"},{"type":"function","name":"postExecuteMutex","inputs":[],"outputs":[{"name":"","type":"bool","internalType":"bool"}],"stateMutability":"view"},{"type":"function","name":"preExecute","inputs":[{"name":"prevHook","type":"address","internalType":"address"},{"name":"account","type":"address","internalType":"address"},{"name":"data","type":"bytes","internalType":"bytes"}],"outputs":[],"stateMutability":"nonpayable"},{"type":"function","name":"preExecuteMutex","inputs":[],"outputs":[{"name":"","type":"bool","internalType":"bool"}],"stateMutability":"view"},{"type":"function","name":"resetExecutionState","inputs":[{"name":"caller","type":"address","internalType":"address"}],"outputs":[],"stateMutability":"nonpayable"},{"type":"function","name":"setExecutionContext","inputs":[{"name":"caller","type":"address","internalType":"address"}],"outputs":[],"stateMutability":"nonpayable"},{"type":"function","name":"setOutAmount","inputs":[{"name":"_outAmount","type":"uint256","internalType":"uint256"},{"name":"caller","type":"address","internalType":"address"}],"outputs":[],"stateMutability":"nonpayable"},{"type":"function","name":"spToken","inputs":[],"outputs":[{"name":"","type":"address","internalType":"address"}],"stateMutability":"view"},{"type":"function","name":"subType","inputs":[],"outputs":[{"name":"","type":"bytes32","internalType":"bytes32"}],"stateMutability":"view"},{"type":"function","name":"subtype","inputs":[],"outputs":[{"name":"","type":"bytes32","internalType":"bytes32"}],"stateMutability":"view"},{"type":"function","name":"usedShares","inputs":[],"outputs":[{"name":"","type":"uint256","internalType":"uint256"}],"stateMutability":"view"},{"type":"error","name":"ADDRESS_NOT_VALID","inputs":[]},{"type":"error","name":"AMOUNT_NOT_VALID","inputs":[]},{"type":"error","name":"CANNOT_SET_OUT_AMOUNT","inputs":[]},{"type":"error","name":"INCOMPLETE_HOOK_EXECUTION","inputs":[]},{"type":"error","name":"INVALID_ENCODING","inputs":[]},{"type":"error","name":"NOT_AUTHORIZED","inputs":[]},{"type":"error","name":"POST_EXECUTE_ALREADY_CALLED","inputs":[]},{"type":"error","name":"PRE_EXECUTE_ALREADY_CALLED","inputs":[]},{"type":"error","name":"UNAUTHORIZED_CALLER","inputs":[]}],"bytecode":{"object":"0x60c060405234801561000f575f5ffd5b5060405161160038038061160083398101604081905261002e916100b0565b604080518082019091526005815264436c61696d60d81b6020909101525f805460ff191690557f5c2db6855baf6c374b9d0065771a33d4c31a8627d7b9d40f3fc6aa5dbd7b8a486080526001600160a01b03811661009f57604051630f58648f60e01b815260040160405180910390fd5b6001600160a01b031660a0526100dd565b5f602082840312156100c0575f5ffd5b81516001600160a01b03811681146100d6575f5ffd5b9392505050565b60805160a0516114f461010c5f395f818161029201526108ec01525f81816101e801526102b901526114f45ff3fe608060405234801561000f575f5ffd5b506004361061011c575f3560e01c806360b5be29116100a95780638e1487761161006e5780638e1487761461027b578063bfe109281461028d578063cf0a6181146102b4578063d06a1e89146102db578063e445e7dd146102ee575f5ffd5b806360b5be291461020c578063685a943c1461022e57806381cbe6911461023657806384542a24146102495780638c4313c11461025b575f5ffd5b80632113522a116100ef5780632113522a146101775780632ae2fe3d146101a157806338d52e0f146101b45780633b5896bc146101c65780635492e677146101e6575f5ffd5b806301bd43ef1461012057806305b4fe911461013c57806314cb37cf146101515780631f26461914610164575b5f5ffd5b61012960035c81565b6040519081526020015b60405180910390f35b61014f61014a3660046110f3565b610307565b005b61014f61015f366004611150565b610381565b61014f610172366004611170565b6103a2565b6101896001600160a01b0360045c1681565b6040516001600160a01b039091168152602001610133565b61014f6101af3660046110f3565b6103fb565b6101896001600160a01b0360025c1681565b6101d96101d43660046110f3565b610462565b60405161013391906111c8565b7f0000000000000000000000000000000000000000000000000000000000000000610129565b61021e60ff600160a81b60025c041681565b6040519015158152602001610133565b6101295f5c81565b610129610244366004611150565b61067b565b61021e60ff600160a01b60025c041681565b61026e610269366004611255565b610693565b6040516101339190611294565b6101896001600160a01b0360015c1681565b6101897f000000000000000000000000000000000000000000000000000000000000000081565b6101297f000000000000000000000000000000000000000000000000000000000000000081565b61014f6102e9366004611150565b610703565b5f546102fa9060ff1681565b60405161013391906112a6565b336001600160a01b038416146103305760405163e15e56c960e01b815260040160405180910390fd5b5f61033a84610755565b905061034581610768565b156103635760405163945b63f560e01b815260040160405180910390fd5b61036e816001610775565b61037a8585858561078b565b5050505050565b61038a8161079b565b50336004805c6001600160a01b0319168217905d5050565b5f6103ac82610755565b90506103b7816107cd565b806103c657506103c681610768565b156103e45760405163441e4c7360e11b815260040160405180910390fd5b5f6103f08260016107d6565b905083815d50505050565b336001600160a01b038416146104245760405163e15e56c960e01b815260040160405180910390fd5b5f61042e84610755565b9050610439816107cd565b1561045757604051630bbb04d960e11b815260040160405180910390fd5b61036e81600161082b565b60605f61047186868686610837565b90508051600261048191906112e0565b67ffffffffffffffff811115610499576104996112f3565b6040519080825280602002602001820160405280156104e557816020015b60408051606080820183525f8083526020830152918101919091528152602001906001900390816104b75790505b5091506040518060600160405280306001600160a01b031681526020015f8152602001306001600160a01b0316632ae2fe3d8989898960405160240161052e9493929190611307565b604051602081830303815290604052915060e01b6020820180516001600160e01b038381831617835250505050815250825f815181106105705761057061134f565b60209081029190910101525f5b81518110156105d1578181815181106105985761059861134f565b6020026020010151838260016105ae91906112e0565b815181106105be576105be61134f565b602090810291909101015260010161057d565b506040518060600160405280306001600160a01b031681526020015f8152602001306001600160a01b03166305b4fe91898989896040516024016106189493929190611307565b604051602081830303815290604052915060e01b6020820180516001600160e01b03838183161783525050505081525082600184516106579190611363565b815181106106675761066761134f565b602002602001018190525050949350505050565b5f61068d61068883610755565b610998565b92915050565b60605f6106a084846109a5565b505080519091505f5b818110156106fa57838382815181106106c4576106c461134f565b602002602001015160601b6040516020016106e0929190611376565b60408051601f1981840301815291905293506001016106a9565b50505092915050565b5f61070d82610755565b9050610718816107cd565b158061072a575061072881610768565b155b1561074857604051634bd439b560e11b815260040160405180910390fd5b610751816109da565b5050565b5f5f610760836109f1565b5c9392505050565b5f5f6107608360036107d6565b5f6107818360036107d6565b905081815d505050565b6107955f84610a5d565b50505050565b5f6003805c90826107ab836113a2565b9190505d505f6107ba836109f1565b905060035c80825d505060035c92915050565b5f5f6107608360025b604080517fc41a07c57a776f6217c6d4278dfe7a5d114742afe55627ce458c2802aa4d703460208083019190915281830194909452606080820193909352815180820390930183526080019052805191012090565b5f6107818360026107d6565b60606108646040518060800160405280606081526020016060815260200160608152602001606081525090565b5f610870868686610a75565b808352905061087f85856109a5565b60608501526040840152602083015260016040519080825280602002602001820160405280156108dc57816020015b60408051606080820183525f8083526020830152918101919091528152602001906001900390816108ae5790505b50925060405180606001604052807f00000000000000000000000000000000000000000000000000000000000000006001600160a01b031681526020015f8152602001835f015184602001518560400151866060015160405160240161094594939291906113fd565b60408051601f198184030181529190526020810180516001600160e01b03166301c7ba5760e61b1790529052835184905f906109835761098361134f565b60200260200101819052505050949350505050565b5f5f6107608360016107d6565b60608060605f5f5f6109b78888610b43565b9250925092508195508094506109ce888885610d76565b93505050509250925092565b6109e4815f61082b565b6109ee815f610775565b50565b5f7f8ce092d4869bdfa1a1ce579ddddb2b776c39ace5d7b5d7e70e97ece2a78f4f9b82604051602001610a4092919091825260601b6bffffffffffffffffffffffff1916602082015260340190565b604051602081830303815290604052805190602001209050919050565b5f610a6782610755565b90505f6103f08260016107d6565b60605f610ab684848080601f0160208091040260200160405190810160405280939291908181526020018383808284375f9201829052509250610f79915050565b90508067ffffffffffffffff811115610ad157610ad16112f3565b604051908082528060200260200182016040528015610afa578160200160208202803683370190505b5091505f5b81811015610b3a5785838281518110610b1a57610b1a61134f565b6001600160a01b0390921660209283029190910190910152600101610aff565b50509392505050565b5f6060805f610b8686868080601f0160208091040260200160405190810160405280939291908181526020018383808284375f9201829052509250610f79915050565b9050602093508067ffffffffffffffff811115610ba557610ba56112f3565b604051908082528060200260200182016040528015610bce578160200160208202803683370190505b5092505f5b81811015610c86575f610c1c88888080601f0160208091040260200160405190810160405280939291908181526020018383808284375f920191909152508a9250610fdb915050565b9050610c296014876112e0565b95506001600160a01b038116610c5257604051630f58648f60e01b815260040160405180910390fd5b80858381518110610c6557610c6561134f565b6001600160a01b039092166020928302919091019091015250600101610bd3565b508067ffffffffffffffff811115610ca057610ca06112f3565b604051908082528060200260200182016040528015610cc9578160200160208202803683370190505b5091505f5b81811015610d6d575f610d1788888080601f0160208091040260200160405190810160405280939291908181526020018383808284375f920191909152508a9250610f79915050565b9050610d246020876112e0565b9550805f03610d46576040516305112ab160e41b815260040160405180910390fd5b80848381518110610d5957610d5961134f565b602090810291909101015250600101610cce565b50509250925092565b60605f610db785858080601f0160208091040260200160405190810160405280939291908181526020018383808284375f9201829052509250610f79915050565b90508067ffffffffffffffff811115610dd257610dd26112f3565b604051908082528060200260200182016040528015610e0557816020015b6060815260200190600190039081610df05790505b5091505f5b81811015610f50575f610e5387878080601f0160208091040260200160405190810160405280939291908181526020018383808284375f92019190915250899250610f79915050565b9050610e606020866112e0565b94505f8167ffffffffffffffff811115610e7c57610e7c6112f3565b604051908082528060200260200182016040528015610ea5578160200160208202803683370190505b5090505f5b82811015610f2757610ef289898080601f0160208091040260200160405190810160405280939291908181526020018383808284375f920191909152508b925061103f915050565b828281518110610f0457610f0461134f565b602002602001018181525050602087610f1d91906112e0565b9650600101610eaa565b5080858481518110610f3b57610f3b61134f565b60209081029190910101525050600101610e0a565b50828414610f7157604051637277ba1b60e01b815260040160405180910390fd5b509392505050565b5f610f858260206112e0565b83511015610fd25760405162461bcd60e51b8152602060048201526015602482015274746f55696e743235365f6f75744f66426f756e647360581b60448201526064015b60405180910390fd5b50016020015190565b5f610fe78260146112e0565b8351101561102f5760405162461bcd60e51b8152602060048201526015602482015274746f416464726573735f6f75744f66426f756e647360581b6044820152606401610fc9565b500160200151600160601b900490565b5f61104b8260206112e0565b83511015610fd25760405162461bcd60e51b8152602060048201526015602482015274746f427974657333325f6f75744f66426f756e647360581b6044820152606401610fc9565b80356001600160a01b03811681146110a9575f5ffd5b919050565b5f5f83601f8401126110be575f5ffd5b50813567ffffffffffffffff8111156110d5575f5ffd5b6020830191508360208285010111156110ec575f5ffd5b9250929050565b5f5f5f5f60608587031215611106575f5ffd5b61110f85611093565b935061111d60208601611093565b9250604085013567ffffffffffffffff811115611138575f5ffd5b611144878288016110ae565b95989497509550505050565b5f60208284031215611160575f5ffd5b61116982611093565b9392505050565b5f5f60408385031215611181575f5ffd5b8235915061119160208401611093565b90509250929050565b5f81518084528060208401602086015e5f602082860101526020601f19601f83011685010191505092915050565b5f602082016020835280845180835260408501915060408160051b8601019250602086015f5b8281101561124957868503603f19018452815180516001600160a01b03168652602080820151908701526040908101516060918701829052906112339087018261119a565b95505060209384019391909101906001016111ee565b50929695505050505050565b5f5f60208385031215611266575f5ffd5b823567ffffffffffffffff81111561127c575f5ffd5b611288858286016110ae565b90969095509350505050565b602081525f611169602083018461119a565b60208101600383106112c657634e487b7160e01b5f52602160045260245ffd5b91905290565b634e487b7160e01b5f52601160045260245ffd5b8082018082111561068d5761068d6112cc565b634e487b7160e01b5f52604160045260245ffd5b6001600160a01b038581168252841660208201526060604082018190528101829052818360808301375f818301608090810191909152601f909201601f191601019392505050565b634e487b7160e01b5f52603260045260245ffd5b8181038181111561068d5761068d6112cc565b5f83518060208601845e6bffffffffffffffffffffffff19939093169190920190815260140192915050565b5f600182016113b3576113b36112cc565b5060010190565b5f8151808452602084019350602083015f5b828110156113f35781516001600160a01b03168652602095860195909101906001016113cc565b5093949350505050565b608081525f61140f60808301876113ba565b828103602084015261142181876113ba565b8381036040850152855180825260208088019350909101905f5b8181101561145957835183526020938401939092019160010161143b565b50508381036060850152845180825260208083019350600582901b830181019087015f5b838110156114d757848303601f19018652815180518085526020918201918501905f5b818110156114be5783518352602093840193909201916001016114a0565b505060209788019790945092909201915060010161147d565b50909a995050505050505050505056fea164736f6c634300081e000a","linkReferences":{}},"methodIdentifiers":{"asset()":"38d52e0f","build(address,address,bytes)":"3b5896bc","distributor()":"bfe10928","executionNonce()":"01bd43ef","getOutAmount(address)":"81cbe691","hookType()":"e445e7dd","inspect(bytes)":"8c4313c1","lastCaller()":"2113522a","postExecute(address,address,bytes)":"05b4fe91","postExecuteMutex()":"60b5be29","preExecute(address,address,bytes)":"2ae2fe3d","preExecuteMutex()":"84542a24","resetExecutionState(address)":"d06a1e89","setExecutionContext(address)":"14cb37cf","setOutAmount(uint256,address)":"1f264619","spToken()":"8e148776","subType()":"cf0a6181","subtype()":"5492e677","usedShares()":"685a943c"},"id":507}