{"abi":[{"type":"constructor","inputs":[{"name":"distributor_","type":"address","internalType":"address"},{"name":"feeReceiver_","type":"address","internalType":"address"},{"name":"feePercent_","type":"uint256","internalType":"uint256"}],"stateMutability":"nonpayable"},{"type":"function","name":"BPS","inputs":[],"outputs":[{"name":"","type":"uint256","internalType":"uint256"}],"stateMutability":"view"},{"type":"function","name":"DISTRIBUTOR","inputs":[],"outputs":[{"name":"","type":"address","internalType":"address"}],"stateMutability":"view"},{"type":"function","name":"FEE_PERCENT","inputs":[],"outputs":[{"name":"","type":"uint256","internalType":"uint256"}],"stateMutability":"view"},{"type":"function","name":"FEE_RECEIVER","inputs":[],"outputs":[{"name":"","type":"address","internalType":"address"}],"stateMutability":"view"},{"type":"function","name":"SUB_TYPE","inputs":[],"outputs":[{"name":"","type":"bytes32","internalType":"bytes32"}],"stateMutability":"view"},{"type":"function","name":"asset","inputs":[],"outputs":[{"name":"","type":"address","internalType":"address"}],"stateMutability":"view"},{"type":"function","name":"build","inputs":[{"name":"prevHook","type":"address","internalType":"address"},{"name":"account","type":"address","internalType":"address"},{"name":"hookData","type":"bytes","internalType":"bytes"}],"outputs":[{"name":"executions","type":"tuple[]","internalType":"struct Execution[]","components":[{"name":"target","type":"address","internalType":"address"},{"name":"value","type":"uint256","internalType":"uint256"},{"name":"callData","type":"bytes","internalType":"bytes"}]}],"stateMutability":"view"},{"type":"function","name":"executionNonce","inputs":[],"outputs":[{"name":"","type":"uint256","internalType":"uint256"}],"stateMutability":"view"},{"type":"function","name":"getOutAmount","inputs":[{"name":"caller","type":"address","internalType":"address"}],"outputs":[{"name":"","type":"uint256","internalType":"uint256"}],"stateMutability":"view"},{"type":"function","name":"hookType","inputs":[],"outputs":[{"name":"","type":"uint8","internalType":"enum ISuperHook.HookType"}],"stateMutability":"view"},{"type":"function","name":"inspect","inputs":[{"name":"data","type":"bytes","internalType":"bytes"}],"outputs":[{"name":"addressData","type":"bytes","internalType":"bytes"}],"stateMutability":"pure"},{"type":"function","name":"lastCaller","inputs":[],"outputs":[{"name":"","type":"address","internalType":"address"}],"stateMutability":"view"},{"type":"function","name":"postExecute","inputs":[{"name":"prevHook","type":"address","internalType":"address"},{"name":"account","type":"address","internalType":"address"},{"name":"data","type":"bytes","internalType":"bytes"}],"outputs":[],"stateMutability":"nonpayable"},{"type":"function","name":"preExecute","inputs":[{"name":"prevHook","type":"address","internalType":"address"},{"name":"account","type":"address","internalType":"address"},{"name":"data","type":"bytes","internalType":"bytes"}],"outputs":[],"stateMutability":"nonpayable"},{"type":"function","name":"resetExecutionState","inputs":[{"name":"caller","type":"address","internalType":"address"}],"outputs":[],"stateMutability":"nonpayable"},{"type":"function","name":"setExecutionContext","inputs":[{"name":"caller","type":"address","internalType":"address"}],"outputs":[],"stateMutability":"nonpayable"},{"type":"function","name":"setOutAmount","inputs":[{"name":"_outAmount","type":"uint256","internalType":"uint256"},{"name":"caller","type":"address","internalType":"address"}],"outputs":[],"stateMutability":"nonpayable"},{"type":"function","name":"spToken","inputs":[],"outputs":[{"name":"","type":"address","internalType":"address"}],"stateMutability":"view"},{"type":"function","name":"subtype","inputs":[],"outputs":[{"name":"","type":"bytes32","internalType":"bytes32"}],"stateMutability":"view"},{"type":"function","name":"usedShares","inputs":[],"outputs":[{"name":"","type":"uint256","internalType":"uint256"}],"stateMutability":"view"},{"type":"error","name":"ADDRESS_NOT_VALID","inputs":[]},{"type":"error","name":"AMOUNT_NOT_VALID","inputs":[]},{"type":"error","name":"CANNOT_SET_OUT_AMOUNT","inputs":[]},{"type":"error","name":"FEE_NOT_VALID","inputs":[]},{"type":"error","name":"INCOMPLETE_HOOK_EXECUTION","inputs":[]},{"type":"error","name":"INVALID_ENCODING","inputs":[]},{"type":"error","name":"NOT_AUTHORIZED","inputs":[]},{"type":"error","name":"POST_EXECUTE_ALREADY_CALLED","inputs":[]},{"type":"error","name":"PRE_EXECUTE_ALREADY_CALLED","inputs":[]},{"type":"error","name":"UNAUTHORIZED_CALLER","inputs":[]}],"bytecode":{"object":"0x610100604052348015610010575f5ffd5b50604051611a04380380611a0483398101604081905261002f9161010d565b604080518082019091526005815264436c61696d60d81b6020909101525f805460ff191690557f5c2db6855baf6c374b9d0065771a33d4c31a8627d7b9d40f3fc6aa5dbd7b8a486080526001600160a01b038316158061009657506001600160a01b038216155b156100b457604051630f58648f60e01b815260040160405180910390fd5b6127108111156100d75760405163adafbb0b60e01b815260040160405180910390fd5b6001600160a01b0392831660a052911660c05260e052610146565b80516001600160a01b0381168114610108575f5ffd5b919050565b5f5f5f6060848603121561011f575f5ffd5b610128846100f2565b9250610136602085016100f2565b9150604084015190509250925092565b60805160a05160c05160e0516118616101a35f395f818161031301528181610a1a0152610b2501525f81816102d30152610bcc01525f8181610299015281816109680152610a4001525f81816101fc015261027201526118615ff3fe608060405234801561000f575f5ffd5b5060043610610127575f3560e01c8063685a943c116100a95780639c26149f1161006e5780639c26149f14610294578063d06a1e89146102bb578063d3e78e4d146102ce578063e445e7dd146102f5578063eaf98d231461030e575f5ffd5b8063685a943c1461022057806381cbe691146102285780638c4313c11461023b5780638e1487761461025b578063984d6e7a1461026d575f5ffd5b8063249d39e9116100ef578063249d39e9146101ac5780632ae2fe3d146101b557806338d52e0f146101c85780633b5896bc146101da5780635492e677146101fa575f5ffd5b806301bd43ef1461012b57806305b4fe911461014757806314cb37cf1461015c5780631f2646191461016f5780632113522a14610182575b5f5ffd5b61013460035c81565b6040519081526020015b60405180910390f35b61015a6101553660046113d5565b610335565b005b61015a61016a366004611432565b6103af565b61015a61017d366004611452565b6103d0565b6101946001600160a01b0360045c1681565b6040516001600160a01b03909116815260200161013e565b61013461271081565b61015a6101c33660046113d5565b610429565b6101946001600160a01b0360025c1681565b6101ed6101e83660046113d5565b610490565b60405161013e91906114aa565b7f0000000000000000000000000000000000000000000000000000000000000000610134565b6101345f5c81565b610134610236366004611432565b6106a9565b61024e610249366004611537565b6106c1565b60405161013e9190611576565b6101946001600160a01b0360015c1681565b6101347f000000000000000000000000000000000000000000000000000000000000000081565b6101947f000000000000000000000000000000000000000000000000000000000000000081565b61015a6102c9366004611432565b610731565b6101947f000000000000000000000000000000000000000000000000000000000000000081565b5f546103019060ff1681565b60405161013e9190611588565b6101347f000000000000000000000000000000000000000000000000000000000000000081565b336001600160a01b0384161461035e5760405163e15e56c960e01b815260040160405180910390fd5b5f610368846107ae565b9050610373816107c1565b156103915760405163945b63f560e01b815260040160405180910390fd5b61039c8160016107ce565b6103a8858585856107e4565b5050505050565b6103b8816107f4565b50336004805c6001600160a01b0319168217905d5050565b5f6103da826107ae565b90506103e581610826565b806103f457506103f4816107c1565b156104125760405163441e4c7360e11b815260040160405180910390fd5b5f61041e82600161082f565b905083815d50505050565b336001600160a01b038416146104525760405163e15e56c960e01b815260040160405180910390fd5b5f61045c846107ae565b905061046781610826565b1561048557604051630bbb04d960e11b815260040160405180910390fd5b61039c816001610884565b60605f61049f86868686610890565b9050805160026104af91906115c2565b67ffffffffffffffff8111156104c7576104c76115d5565b60405190808252806020026020018201604052801561051357816020015b60408051606080820183525f8083526020830152918101919091528152602001906001900390816104e55790505b5091506040518060600160405280306001600160a01b031681526020015f8152602001306001600160a01b0316632ae2fe3d8989898960405160240161055c94939291906115e9565b604051602081830303815290604052915060e01b6020820180516001600160e01b038381831617835250505050815250825f8151811061059e5761059e611631565b60209081029190910101525f5b81518110156105ff578181815181106105c6576105c6611631565b6020026020010151838260016105dc91906115c2565b815181106105ec576105ec611631565b60209081029190910101526001016105ab565b506040518060600160405280306001600160a01b031681526020015f8152602001306001600160a01b03166305b4fe918989898960405160240161064694939291906115e9565b604051602081830303815290604052915060e01b6020820180516001600160e01b03838183161783525050505081525082600184516106859190611645565b8151811061069557610695611631565b602002602001018190525050949350505050565b5f6106bb6106b6836107ae565b610c7a565b92915050565b60605f6106ce8484610c87565b505080519091505f5b8181101561072857838382815181106106f2576106f2611631565b602002602001015160601b60405160200161070e929190611658565b60408051601f1981840301815291905293506001016106d7565b50505092915050565b336001600160a01b0360045c161461075c5760405163e15e56c960e01b815260040160405180910390fd5b5f610766826107ae565b905061077181610826565b15806107835750610781816107c1565b155b156107a157604051634bd439b560e11b815260040160405180910390fd5b6107aa81610cbc565b5050565b5f5f6107b983610cd3565b5c9392505050565b5f5f6107b983600361082f565b5f6107da83600361082f565b905081815d505050565b6107ee5f84610d3f565b50505050565b5f6003805c908261080483611684565b9190505d505f61081383610cd3565b905060035c80825d505060035c92915050565b5f5f6107b98360025b604080517fc41a07c57a776f6217c6d4278dfe7a5d114742afe55627ce458c2802aa4d703460208083019190915281830194909452606080820193909352815180820390930183526080019052805191012090565b5f6107da83600261082f565b60606108bd6040518060800160405280606081526020016060815260200160608152602001606081525090565b5f6108c9868686610d57565b80835290506108d88585610c87565b60608501526040840152602083015280516108f49060016115c2565b67ffffffffffffffff81111561090c5761090c6115d5565b60405190808252806020026020018201604052801561095857816020015b60408051606080820183525f80835260208301529181019190915281526020019060019003908161092a5790505b50925060405180606001604052807f00000000000000000000000000000000000000000000000000000000000000006001600160a01b031681526020015f8152602001835f01518460200151856040015186606001516040516024016109c194939291906116df565b60408051601f198184030181529190526020810180516001600160e01b03166301c7ba5760e61b1790529052835184905f906109ff576109ff611631565b602090810291909101015280515f5b81811015610c6e575f807f000000000000000000000000000000000000000000000000000000000000000015610b8d577f00000000000000000000000000000000000000000000000000000000000000006001600160a01b0316630c9cbf0e875f01518581518110610a8257610a82611631565b602002602001015188602001518681518110610aa057610aa0611631565b60200260200101516040518363ffffffff1660e01b8152600401610ada9291906001600160a01b0392831681529116602082015260400190565b606060405180830381865afa158015610af5573d5f5f3e3d5ffd5b505050506040513d601f19601f82011682018060405250810190610b1991906117c9565b905050809250506127107f0000000000000000000000000000000000000000000000000000000000000000836001600160d01b031688604001518681518110610b6457610b64611631565b6020026020010151610b769190611645565b610b80919061181e565b610b8a9190611835565b90505b604051806060016040528087602001518581518110610bae57610bae611631565b60200260200101516001600160a01b031681526020015f81526020017f000000000000000000000000000000000000000000000000000000000000000083604051602401610c119291906001600160a01b03929092168252602082015260400190565b60408051601f198184030181529190526020810180516001600160e01b031663a9059cbb60e01b179052905287610c498560016115c2565b81518110610c5957610c59611631565b60209081029190910101525050600101610a0e565b50505050949350505050565b5f5f6107b983600161082f565b60608060605f5f5f610c998888610e25565b925092509250819550809450610cb0888885611058565b93505050509250925092565b610cc6815f610884565b610cd0815f6107ce565b50565b5f7f8ce092d4869bdfa1a1ce579ddddb2b776c39ace5d7b5d7e70e97ece2a78f4f9b82604051602001610d2292919091825260601b6bffffffffffffffffffffffff1916602082015260340190565b604051602081830303815290604052805190602001209050919050565b5f610d49826107ae565b90505f61041e82600161082f565b60605f610d9884848080601f0160208091040260200160405190810160405280939291908181526020018383808284375f920182905250925061125b915050565b90508067ffffffffffffffff811115610db357610db36115d5565b604051908082528060200260200182016040528015610ddc578160200160208202803683370190505b5091505f5b81811015610e1c5785838281518110610dfc57610dfc611631565b6001600160a01b0390921660209283029190910190910152600101610de1565b50509392505050565b5f6060805f610e6886868080601f0160208091040260200160405190810160405280939291908181526020018383808284375f920182905250925061125b915050565b9050602093508067ffffffffffffffff811115610e8757610e876115d5565b604051908082528060200260200182016040528015610eb0578160200160208202803683370190505b5092505f5b81811015610f68575f610efe88888080601f0160208091040260200160405190810160405280939291908181526020018383808284375f920191909152508a92506112bd915050565b9050610f0b6014876115c2565b95506001600160a01b038116610f3457604051630f58648f60e01b815260040160405180910390fd5b80858381518110610f4757610f47611631565b6001600160a01b039092166020928302919091019091015250600101610eb5565b508067ffffffffffffffff811115610f8257610f826115d5565b604051908082528060200260200182016040528015610fab578160200160208202803683370190505b5091505f5b8181101561104f575f610ff988888080601f0160208091040260200160405190810160405280939291908181526020018383808284375f920191909152508a925061125b915050565b90506110066020876115c2565b9550805f03611028576040516305112ab160e41b815260040160405180910390fd5b8084838151811061103b5761103b611631565b602090810291909101015250600101610fb0565b50509250925092565b60605f61109985858080601f0160208091040260200160405190810160405280939291908181526020018383808284375f920182905250925061125b915050565b90508067ffffffffffffffff8111156110b4576110b46115d5565b6040519080825280602002602001820160405280156110e757816020015b60608152602001906001900390816110d25790505b5091505f5b81811015611232575f61113587878080601f0160208091040260200160405190810160405280939291908181526020018383808284375f9201919091525089925061125b915050565b90506111426020866115c2565b94505f8167ffffffffffffffff81111561115e5761115e6115d5565b604051908082528060200260200182016040528015611187578160200160208202803683370190505b5090505f5b82811015611209576111d489898080601f0160208091040260200160405190810160405280939291908181526020018383808284375f920191909152508b9250611321915050565b8282815181106111e6576111e6611631565b6020026020010181815250506020876111ff91906115c2565b965060010161118c565b508085848151811061121d5761121d611631565b602090810291909101015250506001016110ec565b5082841461125357604051637277ba1b60e01b815260040160405180910390fd5b509392505050565b5f6112678260206115c2565b835110156112b45760405162461bcd60e51b8152602060048201526015602482015274746f55696e743235365f6f75744f66426f756e647360581b60448201526064015b60405180910390fd5b50016020015190565b5f6112c98260146115c2565b835110156113115760405162461bcd60e51b8152602060048201526015602482015274746f416464726573735f6f75744f66426f756e647360581b60448201526064016112ab565b500160200151600160601b900490565b5f61132d8260206115c2565b835110156112b45760405162461bcd60e51b8152602060048201526015602482015274746f427974657333325f6f75744f66426f756e647360581b60448201526064016112ab565b80356001600160a01b038116811461138b575f5ffd5b919050565b5f5f83601f8401126113a0575f5ffd5b50813567ffffffffffffffff8111156113b7575f5ffd5b6020830191508360208285010111156113ce575f5ffd5b9250929050565b5f5f5f5f606085870312156113e8575f5ffd5b6113f185611375565b93506113ff60208601611375565b9250604085013567ffffffffffffffff81111561141a575f5ffd5b61142687828801611390565b95989497509550505050565b5f60208284031215611442575f5ffd5b61144b82611375565b9392505050565b5f5f60408385031215611463575f5ffd5b8235915061147360208401611375565b90509250929050565b5f81518084528060208401602086015e5f602082860101526020601f19601f83011685010191505092915050565b5f602082016020835280845180835260408501915060408160051b8601019250602086015f5b8281101561152b57868503603f19018452815180516001600160a01b03168652602080820151908701526040908101516060918701829052906115159087018261147c565b95505060209384019391909101906001016114d0565b50929695505050505050565b5f5f60208385031215611548575f5ffd5b823567ffffffffffffffff81111561155e575f5ffd5b61156a85828601611390565b90969095509350505050565b602081525f61144b602083018461147c565b60208101600383106115a857634e487b7160e01b5f52602160045260245ffd5b91905290565b634e487b7160e01b5f52601160045260245ffd5b808201808211156106bb576106bb6115ae565b634e487b7160e01b5f52604160045260245ffd5b6001600160a01b038581168252841660208201526060604082018190528101829052818360808301375f818301608090810191909152601f909201601f191601019392505050565b634e487b7160e01b5f52603260045260245ffd5b818103818111156106bb576106bb6115ae565b5f83518060208601845e6bffffffffffffffffffffffff19939093169190920190815260140192915050565b5f60018201611695576116956115ae565b5060010190565b5f8151808452602084019350602083015f5b828110156116d55781516001600160a01b03168652602095860195909101906001016116ae565b5093949350505050565b608081525f6116f1608083018761169c565b8281036020840152611703818761169c565b8381036040850152855180825260208088019350909101905f5b8181101561173b57835183526020938401939092019160010161171d565b50508381036060850152845180825260208083019350600582901b830181019087015f5b838110156117b957848303601f19018652815180518085526020918201918501905f5b818110156117a0578351835260209384019390920191600101611782565b505060209788019790945092909201915060010161175f565b50909a9950505050505050505050565b5f5f5f606084860312156117db575f5ffd5b83516001600160d01b03811681146117f1575f5ffd5b602085015190935065ffffffffffff8116811461180c575f5ffd5b80925050604084015190509250925092565b80820281158282048414176106bb576106bb6115ae565b5f8261184f57634e487b7160e01b5f52601260045260245ffd5b50049056fea164736f6c634300081e000a","linkReferences":{}},"methodIdentifiers":{"BPS()":"249d39e9","DISTRIBUTOR()":"9c26149f","FEE_PERCENT()":"eaf98d23","FEE_RECEIVER()":"d3e78e4d","SUB_TYPE()":"984d6e7a","asset()":"38d52e0f","build(address,address,bytes)":"3b5896bc","executionNonce()":"01bd43ef","getOutAmount(address)":"81cbe691","hookType()":"e445e7dd","inspect(bytes)":"8c4313c1","lastCaller()":"2113522a","postExecute(address,address,bytes)":"05b4fe91","preExecute(address,address,bytes)":"2ae2fe3d","resetExecutionState(address)":"d06a1e89","setExecutionContext(address)":"14cb37cf","setOutAmount(uint256,address)":"1f264619","spToken()":"8e148776","subtype()":"5492e677","usedShares()":"685a943c"},"id":475}