{"abi":[{"type":"constructor","inputs":[],"stateMutability":"nonpayable"},{"type":"function","name":"asset","inputs":[],"outputs":[{"name":"","type":"address","internalType":"address"}],"stateMutability":"view"},{"type":"function","name":"build","inputs":[{"name":"prevHook","type":"address","internalType":"address"},{"name":"account","type":"address","internalType":"address"},{"name":"hookData","type":"bytes","internalType":"bytes"}],"outputs":[{"name":"executions","type":"tuple[]","internalType":"struct Execution[]","components":[{"name":"target","type":"address","internalType":"address"},{"name":"value","type":"uint256","internalType":"uint256"},{"name":"callData","type":"bytes","internalType":"bytes"}]}],"stateMutability":"view"},{"type":"function","name":"decodeAmount","inputs":[{"name":"data","type":"bytes","internalType":"bytes"}],"outputs":[{"name":"","type":"uint256","internalType":"uint256"}],"stateMutability":"pure"},{"type":"function","name":"decodeUsePrevHookAmount","inputs":[{"name":"data","type":"bytes","internalType":"bytes"}],"outputs":[{"name":"","type":"bool","internalType":"bool"}],"stateMutability":"pure"},{"type":"function","name":"dstChainId","inputs":[],"outputs":[{"name":"","type":"uint256","internalType":"uint256"}],"stateMutability":"view"},{"type":"function","name":"executionNonce","inputs":[],"outputs":[{"name":"","type":"uint256","internalType":"uint256"}],"stateMutability":"view"},{"type":"function","name":"getOutAmount","inputs":[{"name":"caller","type":"address","internalType":"address"}],"outputs":[{"name":"","type":"uint256","internalType":"uint256"}],"stateMutability":"view"},{"type":"function","name":"hookType","inputs":[],"outputs":[{"name":"","type":"uint8","internalType":"enum ISuperHook.HookType"}],"stateMutability":"view"},{"type":"function","name":"inspect","inputs":[{"name":"data","type":"bytes","internalType":"bytes"}],"outputs":[{"name":"","type":"bytes","internalType":"bytes"}],"stateMutability":"pure"},{"type":"function","name":"lastCaller","inputs":[],"outputs":[{"name":"","type":"address","internalType":"address"}],"stateMutability":"view"},{"type":"function","name":"postExecute","inputs":[{"name":"prevHook","type":"address","internalType":"address"},{"name":"account","type":"address","internalType":"address"},{"name":"data","type":"bytes","internalType":"bytes"}],"outputs":[],"stateMutability":"nonpayable"},{"type":"function","name":"postExecuteMutex","inputs":[],"outputs":[{"name":"","type":"bool","internalType":"bool"}],"stateMutability":"view"},{"type":"function","name":"preExecute","inputs":[{"name":"prevHook","type":"address","internalType":"address"},{"name":"account","type":"address","internalType":"address"},{"name":"data","type":"bytes","internalType":"bytes"}],"outputs":[],"stateMutability":"nonpayable"},{"type":"function","name":"preExecuteMutex","inputs":[],"outputs":[{"name":"","type":"bool","internalType":"bool"}],"stateMutability":"view"},{"type":"function","name":"resetExecutionState","inputs":[{"name":"caller","type":"address","internalType":"address"}],"outputs":[],"stateMutability":"nonpayable"},{"type":"function","name":"setExecutionContext","inputs":[{"name":"caller","type":"address","internalType":"address"}],"outputs":[],"stateMutability":"nonpayable"},{"type":"function","name":"setOutAmount","inputs":[{"name":"_outAmount","type":"uint256","internalType":"uint256"},{"name":"caller","type":"address","internalType":"address"}],"outputs":[],"stateMutability":"nonpayable"},{"type":"function","name":"spToken","inputs":[],"outputs":[{"name":"","type":"address","internalType":"address"}],"stateMutability":"view"},{"type":"function","name":"subType","inputs":[],"outputs":[{"name":"","type":"bytes32","internalType":"bytes32"}],"stateMutability":"view"},{"type":"function","name":"subtype","inputs":[],"outputs":[{"name":"","type":"bytes32","internalType":"bytes32"}],"stateMutability":"view"},{"type":"function","name":"usedShares","inputs":[],"outputs":[{"name":"","type":"uint256","internalType":"uint256"}],"stateMutability":"view"},{"type":"function","name":"vaultBank","inputs":[],"outputs":[{"name":"","type":"address","internalType":"address"}],"stateMutability":"view"},{"type":"error","name":"ADDRESS_NOT_VALID","inputs":[]},{"type":"error","name":"AMOUNT_NOT_VALID","inputs":[]},{"type":"error","name":"CANNOT_SET_OUT_AMOUNT","inputs":[]},{"type":"error","name":"ID_NOT_VALID","inputs":[]},{"type":"error","name":"INCOMPLETE_HOOK_EXECUTION","inputs":[]},{"type":"error","name":"NOT_AUTHORIZED","inputs":[]},{"type":"error","name":"POST_EXECUTE_ALREADY_CALLED","inputs":[]},{"type":"error","name":"PRE_EXECUTE_ALREADY_CALLED","inputs":[]},{"type":"error","name":"SafeCastOverflowedUintDowncast","inputs":[{"name":"bits","type":"uint8","internalType":"uint8"},{"name":"value","type":"uint256","internalType":"uint256"}]},{"type":"error","name":"UNAUTHORIZED_CALLER","inputs":[]}],"bytecode":{"object":"0x60a0604052348015600e575f5ffd5b506040805180820190915260098152685661756c7442616e6b60b81b6020909101525f805460ff191690557f5c72cc47fdc05d1992413f5300fca8c835bbffd6e9b4880daf1aecff897d40db6080526080516115ee61007c5f395f818161021201526102e101526115ee5ff3fe608060405234801561000f575f5ffd5b506004361061013d575f3560e01c8063685a943c116100b45780638e148776116100795780638e148776146102b7578063ac440f72146102c9578063cf0a6181146102dc578063d06a1e8914610303578063e445e7dd14610316578063e77455171461032f575f5ffd5b8063685a943c14610258578063701ffc8b1461026057806381cbe6911461027257806384542a24146102855780638c4313c114610297575f5ffd5b80632ae2fe3d116101055780632ae2fe3d146101c257806330c593f7146101d557806338d52e0f146101de5780633b5896bc146101f05780635492e6771461021057806360b5be2914610236575f5ffd5b806301bd43ef1461014157806305b4fe911461015d57806314cb37cf146101725780631f264619146101855780632113522a14610198575b5f5ffd5b61014a60035c81565b6040519081526020015b60405180910390f35b61017061016b366004611256565b610342565b005b6101706101803660046112b3565b6103b0565b6101706101933660046112d3565b6103d1565b6101aa6001600160a01b0360045c1681565b6040516001600160a01b039091168152602001610154565b6101706101d0366004611256565b61042a565b61014a60065c81565b6101aa6001600160a01b0360025c1681565b6102036101fe366004611256565b61049d565b604051610154919061132b565b7f000000000000000000000000000000000000000000000000000000000000000061014a565b61024860ff600160a81b60025c041681565b6040519015158152602001610154565b61014a5f5c81565b6101aa6001600160a01b0360055c1681565b61014a6102803660046112b3565b6106b6565b61024860ff600160a01b60025c041681565b6102aa6102a53660046113b8565b6106ce565b60405161015491906113f7565b6101aa6001600160a01b0360015c1681565b61014a6102d736600461141d565b610790565b61014a7f000000000000000000000000000000000000000000000000000000000000000081565b6101706103113660046112b3565b61079a565b5f546103229060ff1681565b60405161015491906114d0565b61024861033d36600461141d565b6107ec565b336001600160a01b0384161461036b5760405163e15e56c960e01b815260040160405180910390fd5b5f610375846107f8565b90506103808161080b565b1561039e5760405163945b63f560e01b815260040160405180910390fd5b6103a9816001610818565b5050505050565b6103b98161082e565b50336004805c6001600160a01b0319168217905d5050565b5f6103db826107f8565b90506103e681610860565b806103f557506103f58161080b565b156104135760405163441e4c7360e11b815260040160405180910390fd5b5f61041f826001610869565b905083815d50505050565b336001600160a01b038416146104535760405163e15e56c960e01b815260040160405180910390fd5b5f61045d846107f8565b905061046881610860565b1561048657604051630bbb04d960e11b815260040160405180910390fd5b6104918160016108be565b6103a9858585856108ca565b60605f6104ac868686866109cd565b9050805160026104bc919061150a565b67ffffffffffffffff8111156104d4576104d4611409565b60405190808252806020026020018201604052801561052057816020015b60408051606080820183525f8083526020830152918101919091528152602001906001900390816104f25790505b5091506040518060600160405280306001600160a01b031681526020015f8152602001306001600160a01b0316632ae2fe3d89898989604051602401610569949392919061151d565b604051602081830303815290604052915060e01b6020820180516001600160e01b038381831617835250505050815250825f815181106105ab576105ab611565565b60209081029190910101525f5b815181101561060c578181815181106105d3576105d3611565565b6020026020010151838260016105e9919061150a565b815181106105f9576105f9611565565b60209081029190910101526001016105b8565b506040518060600160405280306001600160a01b031681526020015f8152602001306001600160a01b03166305b4fe9189898989604051602401610653949392919061151d565b604051602081830303815290604052915060e01b6020820180516001600160e01b03838183161783525050505081525082600184516106929190611579565b815181106106a2576106a2611565565b602002602001018190525050949350505050565b5f6106c86106c3836107f8565b610f0b565b92915050565b606061070e83838080601f0160208091040260200160405190810160405280939291908181526020018383808284375f92019190915250610f1892505050565b61074f84848080601f0160208091040260200160405190810160405280939291908181526020018383808284375f9201919091525060559250610f20915050565b6040516bffffffffffffffffffffffff19606093841b811660208301529190921b166034820152604801604051602081830303815290604052905092915050565b5f6106c882610f89565b5f6107a4826107f8565b90506107af81610860565b15806107c157506107bf8161080b565b155b156107df57604051634bd439b560e11b815260040160405180910390fd5b6107e881610f95565b5050565b5f6106c8826054610fac565b5f5f61080383610fd8565b5c9392505050565b5f5f610803836003610869565b5f610824836003610869565b905081815d505050565b5f6003805c908261083e8361158c565b9190505d505f61084d83610fd8565b905060035c80825d505060035c92915050565b5f5f6108038360025b604080517fc41a07c57a776f6217c6d4278dfe7a5d114742afe55627ce458c2802aa4d703460208083019190915281830194909452606080820193909352815180820390930183526080019052805191012090565b5f610824836002610869565b61090b82828080601f0160208091040260200160405190810160405280939291908181526020018383808284375f9201919091525060559250610f20915050565b6005805c6001600160a01b0319166001600160a01b03831617905d5061096882828080601f0160208091040260200160405190810160405280939291908181526020018383808284375f9201919091525060699250611044915050565b8060065d506109ab82828080601f0160208091040260200160405190810160405280939291908181526020018383808284375f92019190915250610f1892505050565b6001805c6001600160a01b0319166001600160a01b03831617905d5050505050565b60605f610a0e84848080601f0160208091040260200160405190810160405280939291908181526020018383808284375f920191909152506110a192505050565b90505f610a4f85858080601f0160208091040260200160405190810160405280939291908181526020018383808284375f92019190915250610f8992505050565b90505f610a9086868080601f0160208091040260200160405190810160405280939291908181526020018383808284375f92019190915250610f1892505050565b90505f610ad487878080601f0160208091040260200160405190810160405280939291908181526020018383808284375f9201919091525060559250610f20915050565b90505f610b1888888080601f0160208091040260200160405190810160405280939291908181526020018383808284375f9201919091525060699250611044915050565b90505f610b5c89898080601f0160208091040260200160405190810160405280939291908181526020018383808284375f9201919091525060549250610fac915050565b90506001600160a01b0383161580610b7b57506001600160a01b038416155b15610b9957604051630f58648f60e01b815260040160405180910390fd5b811580610ba4575085155b15610bc257604051634eb10b5d60e11b815260040160405180910390fd5b8015610c33576040516381cbe69160e01b81526001600160a01b038b811660048301528c16906381cbe69190602401602060405180830381865afa158015610c0c573d5f5f3e3d5ffd5b505050506040513d601f19601f82011682018060405250810190610c3091906115a4565b94505b845f03610c53576040516305112ab160e41b815260040160405180910390fd5b60408051600480825260a0820190925290816020015b60408051606080820183525f808352602083015291810191909152815260200190600190039081610c6957905050604080516060810182526001600160a01b0380881682525f60208301819052835191881660248301526044820152929950919082019060640160408051601f198184030181529190526020810180516001600160e01b031663095ea7b360e01b1790529052875188905f90610d0e57610d0e611565565b60200260200101819052506040518060600160405280856001600160a01b031681526020015f81526020018487604051602401610d609291906001600160a01b03929092168252602082015260400190565b60408051601f198184030181529190526020810180516001600160e01b031663095ea7b360e01b1790529052875188906001908110610da157610da1611565565b60200260200101819052506040518060600160405280846001600160a01b031681526020015f8152602001878c87308a610dda896110b7565b60405160248101969096526001600160a01b03948516604487015292841660648601529216608484015260a483019190915267ffffffffffffffff1660c482015260e40160408051601f198184030181529190526020810180516001600160e01b0316630cb96f9b60e21b1790529052875188906002908110610e5f57610e5f611565565b60200260200101819052506040518060600160405280856001600160a01b031681526020015f8152602001845f604051602401610eb19291906001600160a01b03929092168252602082015260400190565b60408051601f198184030181529190526020810180516001600160e01b031663095ea7b360e01b1790529052875188906003908110610ef257610ef2611565565b6020026020010181905250505050505050949350505050565b5f5f610803836001610869565b5f6106c88260205b5f610f2c82601461150a565b83511015610f795760405162461bcd60e51b8152602060048201526015602482015274746f416464726573735f6f75744f66426f756e647360581b60448201526064015b60405180910390fd5b500160200151600160601b900490565b5f6106c8826034611044565b610f9f815f6108be565b610fa9815f610818565b50565b5f828281518110610fbf57610fbf611565565b01602001516001600160f81b0319161515905092915050565b5f7f8ce092d4869bdfa1a1ce579ddddb2b776c39ace5d7b5d7e70e97ece2a78f4f9b8260405160200161102792919091825260601b6bffffffffffffffffffffffff1916602082015260340190565b604051602081830303815290604052805190602001209050919050565b5f61105082602061150a565b835110156110985760405162461bcd60e51b8152602060048201526015602482015274746f55696e743235365f6f75744f66426f756e647360581b6044820152606401610f70565b50016020015190565b5f6110ae825f60206110f1565b6106c8906115bb565b5f67ffffffffffffffff8211156110ed57604080516306dfcc6560e41b8152600481019190915260248101839052604401610f70565b5090565b60608182601f0110156111375760405162461bcd60e51b815260206004820152600e60248201526d736c6963655f6f766572666c6f7760901b6044820152606401610f70565b611141828461150a565b845110156111855760405162461bcd60e51b8152602060048201526011602482015270736c6963655f6f75744f66426f756e647360781b6044820152606401610f70565b6060821580156111a35760405191505f8252602082016040526111ed565b6040519150601f8416801560200281840101858101878315602002848b0101015b818310156111dc5780518352602092830192016111c4565b5050858452601f01601f1916604052505b50949350505050565b80356001600160a01b038116811461120c575f5ffd5b919050565b5f5f83601f840112611221575f5ffd5b50813567ffffffffffffffff811115611238575f5ffd5b60208301915083602082850101111561124f575f5ffd5b9250929050565b5f5f5f5f60608587031215611269575f5ffd5b611272856111f6565b9350611280602086016111f6565b9250604085013567ffffffffffffffff81111561129b575f5ffd5b6112a787828801611211565b95989497509550505050565b5f602082840312156112c3575f5ffd5b6112cc826111f6565b9392505050565b5f5f604083850312156112e4575f5ffd5b823591506112f4602084016111f6565b90509250929050565b5f81518084528060208401602086015e5f602082860101526020601f19601f83011685010191505092915050565b5f602082016020835280845180835260408501915060408160051b8601019250602086015f5b828110156113ac57868503603f19018452815180516001600160a01b0316865260208082015190870152604090810151606091870182905290611396908701826112fd565b9550506020938401939190910190600101611351565b50929695505050505050565b5f5f602083850312156113c9575f5ffd5b823567ffffffffffffffff8111156113df575f5ffd5b6113eb85828601611211565b90969095509350505050565b602081525f6112cc60208301846112fd565b634e487b7160e01b5f52604160045260245ffd5b5f6020828403121561142d575f5ffd5b813567ffffffffffffffff811115611443575f5ffd5b8201601f81018413611453575f5ffd5b803567ffffffffffffffff81111561146d5761146d611409565b604051601f8201601f19908116603f0116810167ffffffffffffffff8111828210171561149c5761149c611409565b6040528181528282016020018610156114b3575f5ffd5b816020840160208301375f91810160200191909152949350505050565b60208101600383106114f057634e487b7160e01b5f52602160045260245ffd5b91905290565b634e487b7160e01b5f52601160045260245ffd5b808201808211156106c8576106c86114f6565b6001600160a01b038581168252841660208201526060604082018190528101829052818360808301375f818301608090810191909152601f909201601f191601019392505050565b634e487b7160e01b5f52603260045260245ffd5b818103818111156106c8576106c86114f6565b5f6001820161159d5761159d6114f6565b5060010190565b5f602082840312156115b4575f5ffd5b5051919050565b805160208083015191908110156115db575f198160200360031b1b821691505b5091905056fea164736f6c634300081e000a","linkReferences":{}},"methodIdentifiers":{"asset()":"38d52e0f","build(address,address,bytes)":"3b5896bc","decodeAmount(bytes)":"ac440f72","decodeUsePrevHookAmount(bytes)":"e7745517","dstChainId()":"30c593f7","executionNonce()":"01bd43ef","getOutAmount(address)":"81cbe691","hookType()":"e445e7dd","inspect(bytes)":"8c4313c1","lastCaller()":"2113522a","postExecute(address,address,bytes)":"05b4fe91","postExecuteMutex()":"60b5be29","preExecute(address,address,bytes)":"2ae2fe3d","preExecuteMutex()":"84542a24","resetExecutionState(address)":"d06a1e89","setExecutionContext(address)":"14cb37cf","setOutAmount(uint256,address)":"1f264619","spToken()":"8e148776","subType()":"cf0a6181","subtype()":"5492e677","usedShares()":"685a943c","vaultBank()":"701ffc8b"},"id":558}