{"abi":[{"type":"constructor","inputs":[],"stateMutability":"nonpayable"},{"type":"function","name":"SUB_TYPE","inputs":[],"outputs":[{"name":"","type":"bytes32","internalType":"bytes32"}],"stateMutability":"view"},{"type":"function","name":"asset","inputs":[],"outputs":[{"name":"","type":"address","internalType":"address"}],"stateMutability":"view"},{"type":"function","name":"build","inputs":[{"name":"prevHook","type":"address","internalType":"address"},{"name":"account","type":"address","internalType":"address"},{"name":"hookData","type":"bytes","internalType":"bytes"}],"outputs":[{"name":"executions","type":"tuple[]","internalType":"struct Execution[]","components":[{"name":"target","type":"address","internalType":"address"},{"name":"value","type":"uint256","internalType":"uint256"},{"name":"callData","type":"bytes","internalType":"bytes"}]}],"stateMutability":"view"},{"type":"function","name":"executionNonce","inputs":[],"outputs":[{"name":"","type":"uint256","internalType":"uint256"}],"stateMutability":"view"},{"type":"function","name":"getOutAmount","inputs":[{"name":"caller","type":"address","internalType":"address"}],"outputs":[{"name":"","type":"uint256","internalType":"uint256"}],"stateMutability":"view"},{"type":"function","name":"hookType","inputs":[],"outputs":[{"name":"","type":"uint8","internalType":"enum ISuperHook.HookType"}],"stateMutability":"view"},{"type":"function","name":"inspect","inputs":[{"name":"data","type":"bytes","internalType":"bytes"}],"outputs":[{"name":"result","type":"bytes","internalType":"bytes"}],"stateMutability":"pure"},{"type":"function","name":"lastCaller","inputs":[],"outputs":[{"name":"","type":"address","internalType":"address"}],"stateMutability":"view"},{"type":"function","name":"postExecute","inputs":[{"name":"prevHook","type":"address","internalType":"address"},{"name":"account","type":"address","internalType":"address"},{"name":"data","type":"bytes","internalType":"bytes"}],"outputs":[],"stateMutability":"nonpayable"},{"type":"function","name":"preExecute","inputs":[{"name":"prevHook","type":"address","internalType":"address"},{"name":"account","type":"address","internalType":"address"},{"name":"data","type":"bytes","internalType":"bytes"}],"outputs":[],"stateMutability":"nonpayable"},{"type":"function","name":"resetExecutionState","inputs":[{"name":"caller","type":"address","internalType":"address"}],"outputs":[],"stateMutability":"nonpayable"},{"type":"function","name":"setExecutionContext","inputs":[{"name":"caller","type":"address","internalType":"address"}],"outputs":[],"stateMutability":"nonpayable"},{"type":"function","name":"setOutAmount","inputs":[{"name":"_outAmount","type":"uint256","internalType":"uint256"},{"name":"caller","type":"address","internalType":"address"}],"outputs":[],"stateMutability":"nonpayable"},{"type":"function","name":"spToken","inputs":[],"outputs":[{"name":"","type":"address","internalType":"address"}],"stateMutability":"view"},{"type":"function","name":"subtype","inputs":[],"outputs":[{"name":"","type":"bytes32","internalType":"bytes32"}],"stateMutability":"view"},{"type":"function","name":"usedShares","inputs":[],"outputs":[{"name":"","type":"uint256","internalType":"uint256"}],"stateMutability":"view"},{"type":"error","name":"ADDRESS_NOT_VALID","inputs":[]},{"type":"error","name":"AMOUNT_NOT_VALID","inputs":[]},{"type":"error","name":"CANNOT_SET_OUT_AMOUNT","inputs":[]},{"type":"error","name":"INCOMPLETE_HOOK_EXECUTION","inputs":[]},{"type":"error","name":"LENGTH_MISMATCH","inputs":[]},{"type":"error","name":"NOT_AUTHORIZED","inputs":[]},{"type":"error","name":"POST_EXECUTE_ALREADY_CALLED","inputs":[]},{"type":"error","name":"PRE_EXECUTE_ALREADY_CALLED","inputs":[]},{"type":"error","name":"UNAUTHORIZED_CALLER","inputs":[]}],"bytecode":{"object":"0x60a0604052348015600e575f5ffd5b506040805180820190915260058152642a37b5b2b760d91b6020909101525f805460ff191690557f1317f51c845ce3bfb7c268e5337a825f12f3d0af9584c2bbfbf4e64e314eaf7360805260805161117b6100785f395f81816101c7015261023d015261117b5ff3fe608060405234801561000f575f5ffd5b50600436106100fb575f3560e01c80635492e677116100935780638e148776116100635780638e14877614610226578063984d6e7a14610238578063d06a1e891461025f578063e445e7dd14610272575f5ffd5b80635492e677146101c5578063685a943c146101eb57806381cbe691146101f35780638c4313c114610206575f5ffd5b80632113522a116100ce5780632113522a146101565780632ae2fe3d1461018057806338d52e0f146101935780633b5896bc146101a5575f5ffd5b806301bd43ef146100ff57806305b4fe911461011b57806314cb37cf146101305780631f26461914610143575b5f5ffd5b61010860035c81565b6040519081526020015b60405180910390f35b61012e610129366004610dad565b61028b565b005b61012e61013e366004610e0e565b6102f9565b61012e610151366004610e30565b61031a565b6101686001600160a01b0360045c1681565b6040516001600160a01b039091168152602001610112565b61012e61018e366004610dad565b610373565b6101686001600160a01b0360025c1681565b6101b86101b3366004610dad565b6103da565b6040516101129190610e8c565b7f0000000000000000000000000000000000000000000000000000000000000000610108565b6101085f5c81565b610108610201366004610e0e565b6105f3565b610219610214366004610f19565b61060b565b6040516101129190610f58565b6101686001600160a01b0360015c1681565b6101087f000000000000000000000000000000000000000000000000000000000000000081565b61012e61026d366004610e0e565b61073f565b5f5461027e9060ff1681565b6040516101129190610f6a565b336001600160a01b038416146102b45760405163e15e56c960e01b815260040160405180910390fd5b5f6102be846107bc565b90506102c9816107cf565b156102e75760405163945b63f560e01b815260040160405180910390fd5b6102f28160016107dc565b5050505050565b610302816107f2565b50336004805c6001600160a01b0319168217905d5050565b5f610324826107bc565b905061032f81610824565b8061033e575061033e816107cf565b1561035c5760405163441e4c7360e11b815260040160405180910390fd5b5f61036882600161082d565b905083815d50505050565b336001600160a01b0384161461039c5760405163e15e56c960e01b815260040160405180910390fd5b5f6103a6846107bc565b90506103b181610824565b156103cf57604051630bbb04d960e11b815260040160405180910390fd5b6102f2816001610882565b60605f6103e98686868661088e565b9050805160026103f99190610fa4565b67ffffffffffffffff81111561041157610411610fb7565b60405190808252806020026020018201604052801561045d57816020015b60408051606080820183525f80835260208301529181019190915281526020019060019003908161042f5790505b5091506040518060600160405280306001600160a01b031681526020015f8152602001306001600160a01b0316632ae2fe3d898989896040516024016104a69493929190610fcb565b604051602081830303815290604052915060e01b6020820180516001600160e01b038381831617835250505050815250825f815181106104e8576104e8611013565b60209081029190910101525f5b81518110156105495781818151811061051057610510611013565b6020026020010151838260016105269190610fa4565b8151811061053657610536611013565b60209081029190910101526001016104f5565b506040518060600160405280306001600160a01b031681526020015f8152602001306001600160a01b03166305b4fe91898989896040516024016105909493929190610fcb565b604051602081830303815290604052915060e01b6020820180516001600160e01b03838183161783525050505081525082600184516105cf9190611027565b815181106105df576105df611013565b602002602001018190525050949350505050565b5f610605610600836107bc565b610b5b565b92915050565b60605f61064c84848080601f0160208091040260200160405190810160405280939291908181526020018383808284375f9201829052509250610b68915050565b90505f61069b85858080601f0160208091040260200160405190810160405280939291908181526020018383808284375f9201919091525060149250610696915082905088611027565b610bd1565b90505f818060200190518101906106b2919061104a565b6040516001600160601b0319606086901b16602082015290915060340160408051601f1981840301815291905281519094505f5b81811015610734578583828151811061070157610701611013565b602002602001015160405160200161071a929190611115565b60408051601f1981840301815291905295506001016106e6565b505050505092915050565b336001600160a01b0360045c161461076a5760405163e15e56c960e01b815260040160405180910390fd5b5f610774826107bc565b905061077f81610824565b1580610791575061078f816107cf565b155b156107af57604051634bd439b560e11b815260040160405180910390fd5b6107b881610cd6565b5050565b5f5f6107c783610ced565b5c9392505050565b5f5f6107c783600361082d565b5f6107e883600361082d565b905081815d505050565b5f6003805c90826108028361113f565b9190505d505f61081183610ced565b905060035c80825d505060035c92915050565b5f5f6107c78360025b604080517fc41a07c57a776f6217c6d4278dfe7a5d114742afe55627ce458c2802aa4d703460208083019190915281830194909452606080820193909352815180820390930183526080019052805191012090565b5f6107e883600261082d565b60605f6108cf84848080601f0160208091040260200160405190810160405280939291908181526020018383808284375f9201829052509250610b68915050565b90505f61091985858080601f0160208091040260200160405190810160405280939291908181526020018383808284375f9201919091525060149250610696915082905088611027565b90505f81806020019051810190610930919061104a565b80519091508067ffffffffffffffff81111561094e5761094e610fb7565b60405190808252806020026020018201604052801561099a57816020015b60408051606080820183525f80835260208301529181019190915281526020019060019003908161096c5790505b5094505f5b81811015610b4e575f8382815181106109ba576109ba611013565b6020026020010151905073eeeeeeeeeeeeeeeeeeeeeeeeeeeeeeeeeeeeeeee6001600160a01b0316816001600160a01b031603610a54575f8a6001600160a01b03163190506040518060600160405280886001600160a01b0316815260200182815260200160405180602001604052805f815250815250888481518110610a4357610a43611013565b602002602001018190525050610b45565b6040516370a0823160e01b81526001600160a01b038b811660048301525f91908316906370a0823190602401602060405180830381865afa158015610a9b573d5f5f3e3d5ffd5b505050506040513d601f19601f82011682018060405250810190610abf9190611157565b604080516060810182526001600160a01b0380861682525f60208301528251908b16602482015260448101849052929350919082019060640160408051601f198184030181529190526020810180516001600160e01b031663a9059cbb60e01b17905290528851899085908110610b3857610b38611013565b6020026020010181905250505b5060010161099f565b5050505050949350505050565b5f5f6107c783600161082d565b5f610b74826014610fa4565b83511015610bc15760405162461bcd60e51b8152602060048201526015602482015274746f416464726573735f6f75744f66426f756e647360581b60448201526064015b60405180910390fd5b500160200151600160601b900490565b60608182601f011015610c175760405162461bcd60e51b815260206004820152600e60248201526d736c6963655f6f766572666c6f7760901b6044820152606401610bb8565b610c218284610fa4565b84511015610c655760405162461bcd60e51b8152602060048201526011602482015270736c6963655f6f75744f66426f756e647360781b6044820152606401610bb8565b606082158015610c835760405191505f825260208201604052610ccd565b6040519150601f8416801560200281840101858101878315602002848b0101015b81831015610cbc578051835260209283019201610ca4565b5050858452601f01601f1916604052505b50949350505050565b610ce0815f610882565b610cea815f6107dc565b50565b5f7f8ce092d4869bdfa1a1ce579ddddb2b776c39ace5d7b5d7e70e97ece2a78f4f9b82604051602001610d3792919091825260601b6001600160601b031916602082015260340190565b604051602081830303815290604052805190602001209050919050565b6001600160a01b0381168114610cea575f5ffd5b5f5f83601f840112610d78575f5ffd5b50813567ffffffffffffffff811115610d8f575f5ffd5b602083019150836020828501011115610da6575f5ffd5b9250929050565b5f5f5f5f60608587031215610dc0575f5ffd5b8435610dcb81610d54565b93506020850135610ddb81610d54565b9250604085013567ffffffffffffffff811115610df6575f5ffd5b610e0287828801610d68565b95989497509550505050565b5f60208284031215610e1e575f5ffd5b8135610e2981610d54565b9392505050565b5f5f60408385031215610e41575f5ffd5b823591506020830135610e5381610d54565b809150509250929050565b5f81518084528060208401602086015e5f602082860101526020601f19601f83011685010191505092915050565b5f602082016020835280845180835260408501915060408160051b8601019250602086015f5b82811015610f0d57868503603f19018452815180516001600160a01b0316865260208082015190870152604090810151606091870182905290610ef790870182610e5e565b9550506020938401939190910190600101610eb2565b50929695505050505050565b5f5f60208385031215610f2a575f5ffd5b823567ffffffffffffffff811115610f40575f5ffd5b610f4c85828601610d68565b90969095509350505050565b602081525f610e296020830184610e5e565b6020810160038310610f8a57634e487b7160e01b5f52602160045260245ffd5b91905290565b634e487b7160e01b5f52601160045260245ffd5b8082018082111561060557610605610f90565b634e487b7160e01b5f52604160045260245ffd5b6001600160a01b038581168252841660208201526060604082018190528101829052818360808301375f818301608090810191909152601f909201601f191601019392505050565b634e487b7160e01b5f52603260045260245ffd5b8181038181111561060557610605610f90565b805161104581610d54565b919050565b5f6020828403121561105a575f5ffd5b815167ffffffffffffffff811115611070575f5ffd5b8201601f81018413611080575f5ffd5b805167ffffffffffffffff81111561109a5761109a610fb7565b8060051b604051601f19603f830116810181811067ffffffffffffffff821117156110c7576110c7610fb7565b6040529182526020818401810192908101878411156110e4575f5ffd5b6020850194505b8385101561110a576110fc8561103a565b8152602094850194016110eb565b509695505050505050565b5f83518060208601845e60609390931b6001600160601b0319169190920190815260140192915050565b5f6001820161115057611150610f90565b5060010190565b5f60208284031215611167575f5ffd5b505191905056fea164736f6c634300081e000a","linkReferences":{}},"methodIdentifiers":{"SUB_TYPE()":"984d6e7a","asset()":"38d52e0f","build(address,address,bytes)":"3b5896bc","executionNonce()":"01bd43ef","getOutAmount(address)":"81cbe691","hookType()":"e445e7dd","inspect(bytes)":"8c4313c1","lastCaller()":"2113522a","postExecute(address,address,bytes)":"05b4fe91","preExecute(address,address,bytes)":"2ae2fe3d","resetExecutionState(address)":"d06a1e89","setExecutionContext(address)":"14cb37cf","setOutAmount(uint256,address)":"1f264619","spToken()":"8e148776","subtype()":"5492e677","usedShares()":"685a943c"},"id":389}