{"abi":[{"type":"constructor","inputs":[{"name":"superLedgerConfiguration_","type":"address","internalType":"address"}],"stateMutability":"nonpayable"},{"type":"function","name":"TWAP_DURATION","inputs":[],"outputs":[{"name":"","type":"uint32","internalType":"uint32"}],"stateMutability":"view"},{"type":"function","name":"decimals","inputs":[{"name":"","type":"address","internalType":"address"}],"outputs":[{"name":"","type":"uint8","internalType":"uint8"}],"stateMutability":"pure"},{"type":"function","name":"getAssetOutput","inputs":[{"name":"market","type":"address","internalType":"address"},{"name":"","type":"address","internalType":"address"},{"name":"sharesIn","type":"uint256","internalType":"uint256"}],"outputs":[{"name":"assetsOut","type":"uint256","internalType":"uint256"}],"stateMutability":"view"},{"type":"function","name":"getAssetOutputWithFees","inputs":[{"name":"yieldSourceOracleId","type":"bytes32","internalType":"bytes32"},{"name":"yieldSourceAddress","type":"address","internalType":"address"},{"name":"assetOut","type":"address","internalType":"address"},{"name":"user","type":"address","internalType":"address"},{"name":"usedShares","type":"uint256","internalType":"uint256"}],"outputs":[{"name":"","type":"uint256","internalType":"uint256"}],"stateMutability":"view"},{"type":"function","name":"getBalanceOfOwner","inputs":[{"name":"market","type":"address","internalType":"address"},{"name":"ownerOfShares","type":"address","internalType":"address"}],"outputs":[{"name":"balance","type":"uint256","internalType":"uint256"}],"stateMutability":"view"},{"type":"function","name":"getPricePerShare","inputs":[{"name":"market","type":"address","internalType":"address"}],"outputs":[{"name":"price","type":"uint256","internalType":"uint256"}],"stateMutability":"view"},{"type":"function","name":"getPricePerShareMultiple","inputs":[{"name":"yieldSourceAddresses","type":"address[]","internalType":"address[]"}],"outputs":[{"name":"pricesPerShare","type":"uint256[]","internalType":"uint256[]"}],"stateMutability":"view"},{"type":"function","name":"getShareOutput","inputs":[{"name":"market","type":"address","internalType":"address"},{"name":"","type":"address","internalType":"address"},{"name":"assetsIn","type":"uint256","internalType":"uint256"}],"outputs":[{"name":"sharesOut","type":"uint256","internalType":"uint256"}],"stateMutability":"view"},{"type":"function","name":"getTVL","inputs":[{"name":"market","type":"address","internalType":"address"}],"outputs":[{"name":"tvl","type":"uint256","internalType":"uint256"}],"stateMutability":"view"},{"type":"function","name":"getTVLByOwnerOfShares","inputs":[{"name":"market","type":"address","internalType":"address"},{"name":"ownerOfShares","type":"address","internalType":"address"}],"outputs":[{"name":"tvl","type":"uint256","internalType":"uint256"}],"stateMutability":"view"},{"type":"function","name":"getTVLByOwnerOfSharesMultiple","inputs":[{"name":"yieldSourceAddresses","type":"address[]","internalType":"address[]"},{"name":"ownersOfShares","type":"address[][]","internalType":"address[][]"}],"outputs":[{"name":"userTvls","type":"uint256[][]","internalType":"uint256[][]"}],"stateMutability":"view"},{"type":"function","name":"getTVLMultiple","inputs":[{"name":"yieldSourceAddresses","type":"address[]","internalType":"address[]"}],"outputs":[{"name":"tvls","type":"uint256[]","internalType":"uint256[]"}],"stateMutability":"view"},{"type":"function","name":"superLedgerConfiguration","inputs":[],"outputs":[{"name":"","type":"address","internalType":"address"}],"stateMutability":"view"},{"type":"event","name":"TwapDurationSet","inputs":[{"name":"newDuration","type":"uint32","indexed":false,"internalType":"uint32"}],"anonymous":false},{"type":"error","name":"ARRAY_LENGTH_MISMATCH","inputs":[]},{"type":"error","name":"INVALID_ASSET","inputs":[]},{"type":"error","name":"INVALID_BASE_ASSET","inputs":[]},{"type":"error","name":"NOT_AVAILABLE_ERC20_ON_CHAIN","inputs":[]}],"bytecode":{"object":"0x60c060405234801561000f575f5ffd5b50604051611f7f380380611f7f83398101604081905261002e9161007c565b6001600160a01b03811660805261038460a08190526040519081527fae45eae27fdd572bcc5daa11e5155fef7d0b5081d88a374f0580bf91bfdc29b99060200160405180910390a1506100a9565b5f6020828403121561008c575f5ffd5b81516001600160a01b03811681146100a2575f5ffd5b9392505050565b60805160a051611ea76100d85f395f81816101920152610a4601525f818161015301526104440152611ea75ff3fe608060405234801561000f575f5ffd5b50600436106100cb575f3560e01c8063879ac8f811610088578063cacc7b0e11610063578063cacc7b0e146101fc578063d449a8321461020f578063ec422afd14610235578063fea8af5f14610248575f5ffd5b8063879ac8f81461018d578063a7a128b4146101c9578063aa5815fd146101e9575f5ffd5b8063056f143c146100cf5780630f40517a146100f55780632f112c461461010857806334f99b481461011b5780634fecb2661461013b578063825e9ec71461014e575b5f5ffd5b6100e26100dd3660046115ee565b61025b565b6040519081526020015b60405180910390f35b6100e261010336600461162c565b61038b565b6100e2610116366004611647565b61041e565b61012e610129366004611779565b610595565b6040516100ec9190611857565b6100e26101493660046118e3565b61073b565b6101757f000000000000000000000000000000000000000000000000000000000000000081565b6040516001600160a01b0390911681526020016100ec565b6101b47f000000000000000000000000000000000000000000000000000000000000000081565b60405163ffffffff90911681526020016100ec565b6101dc6101d736600461191a565b6107dc565b6040516100ec919061194c565b6100e26101f73660046115ee565b61087e565b6101dc61020a36600461191a565b61099b565b61022361021d36600461162c565b50601290565b60405160ff90911681526020016100ec565b6100e261024336600461162c565b610a36565b6100e26102563660046118e3565b610a6a565b5f5f61026685610a36565b9050805f03610278575f915050610384565b5f61028286610ae1565b90505f61028e82610b4d565b925050505f61029c88610bd7565b6001600160a01b031663313ce5676040518163ffffffff1660e01b8152600401602060405180830381865afa1580156102d7573d5f5f3e3d5ffd5b505050506040513d601f19601f820116820180604052508101906102fb91906119a3565b90505f60128360ff16116103335761031760ff841660126119d0565b61032290600a611ac6565b61032c9088611ad1565b9050610359565b610341601260ff85166119d0565b61034c90600a611ac6565b6103569088611afc565b90505b8461036860ff8416600a611ac6565b6103729083611ad1565b61037c9190611afc565b955050505050505b9392505050565b5f5f61039683610bd7565b90505f816001600160a01b03166318160ddd6040518163ffffffff1660e01b8152600401602060405180830381865afa1580156103d5573d5f5f3e3d5ffd5b505050506040513d601f19601f820116820180604052508101906103f99190611b0f565b9050805f0361040b57505f9392505050565b610416845f8361087e565b949350505050565b5f5f61042b86868561087e565b604051630b47673760e41b8152600481018990529091507f00000000000000000000000000000000000000000000000000000000000000006001600160a01b03169063b47673709060240160a060405180830381865afa9250505080156104af575060408051601f3d908101601f191682019092526104ac91810190611b26565b60015b6104ba57905061058c565b5f81602001511180156104d9575060808101516001600160a01b031615155b1561058857608081015160208201516040516349b1df7b60e01b81526001600160a01b0388811660048301528a81166024830152604482018690526064820188905260848201929092525f9291909116906349b1df7b9060a401602060405180830381865afa15801561054e573d5f5f3e3d5ffd5b505050506040513d601f19601f820116820180604052508101906105729190611b0f565b905061057e8184611bb5565b935050505061058c565b5090505b95945050505050565b815181516060919081146105bc57604051634456f5e960e11b815260040160405180910390fd5b8067ffffffffffffffff8111156105d5576105d561169e565b60405190808252806020026020018201604052801561060857816020015b60608152602001906001900390816105f35790505b5091505f5b81811015610733575f85828151811061062857610628611bc8565b602002602001015190505f85838151811061064557610645611bc8565b602002602001015190505f815190508067ffffffffffffffff81111561066d5761066d61169e565b604051908082528060200260200182016040528015610696578160200160208202803683370190505b508685815181106106a9576106a9611bc8565b60200260200101819052505f5b81811015610724575f6106e2858584815181106106d5576106d5611bc8565b602002602001015161073b565b9050808887815181106106f7576106f7611bc8565b6020026020010151838151811061071057610710611bc8565b6020908102919091010152506001016106b6565b5050505080600101905061060d565b505092915050565b5f5f61074684610bd7565b6040516370a0823160e01b81526001600160a01b0385811660048301529192505f918316906370a0823190602401602060405180830381865afa15801561078f573d5f5f3e3d5ffd5b505050506040513d601f19601f820116820180604052508101906107b39190611b0f565b9050805f036107c6575f925050506107d6565b6107d1855f8361087e565b925050505b92915050565b80516060908067ffffffffffffffff8111156107fa576107fa61169e565b604051908082528060200260200182016040528015610823578160200160208202803683370190505b5091505f5b818110156108775761085284828151811061084557610845611bc8565b6020026020010151610a36565b83828151811061086457610864611bc8565b6020908102919091010152600101610828565b5050919050565b5f5f61088985610a36565b90505f61089586610bd7565b6001600160a01b031663313ce5676040518163ffffffff1660e01b8152600401602060405180830381865afa1580156108d0573d5f5f3e3d5ffd5b505050506040513d601f19601f820116820180604052508101906108f491906119a3565b90505f61090087610ae1565b90505f61090c82610b4d565b925050505f8360ff16600a6109219190611ac6565b61092b8689611ad1565b6109359190611afc565b905060128260ff161061096c57610950601260ff84166119d0565b61095b90600a611ac6565b6109659082611ad1565b955061098f565b61097a60ff831660126119d0565b61098590600a611ac6565b61037c9082611afc565b50505050509392505050565b80516060908067ffffffffffffffff8111156109b9576109b961169e565b6040519080825280602002602001820160405280156109e2578160200160208202803683370190505b5091505f5b8181101561087757610a11848281518110610a0457610a04611bc8565b602002602001015161038b565b838281518110610a2357610a23611bc8565b60209081029190910101526001016109e7565b5f6107d66001600160a01b0383167f0000000000000000000000000000000000000000000000000000000000000000610c42565b5f5f610a7584610bd7565b6040516370a0823160e01b81526001600160a01b038581166004830152919250908216906370a0823190602401602060405180830381865afa158015610abd573d5f5f3e3d5ffd5b505050506040513d601f19601f820116820180604052508101906104169190611b0f565b5f5f826001600160a01b0316632c8ce6bc6040518163ffffffff1660e01b8152600401606060405180830381865afa158015610b1f573d5f5f3e3d5ffd5b505050506040513d601f19601f82011682018060405250810190610b439190611bdc565b5090949350505050565b5f5f5f5f5f5f866001600160a01b031663a40bee506040518163ffffffff1660e01b8152600401606060405180830381865afa158015610b8f573d5f5f3e3d5ffd5b505050506040513d601f19601f82011682018060405250810190610bb39190611c26565b925092509250826001811115610bcb57610bcb611c6e565b97919650945092505050565b5f5f826001600160a01b0316632c8ce6bc6040518163ffffffff1660e01b8152600401606060405180830381865afa158015610c15573d5f5f3e3d5ffd5b505050506040513d601f19601f82011682018060405250810190610c399190611bdc565b50949350505050565b5f5f5f610c4e85610c8c565b91509150808210610c6c57610c638585610eaf565b925050506107d6565b8082610c788787610eaf565b610c829190611ad1565b610c639190611afc565b5f5f5f5f846001600160a01b0316632c8ce6bc6040518163ffffffff1660e01b8152600401606060405180830381865afa158015610ccc573d5f5f3e3d5ffd5b505050506040513d601f19601f82011682018060405250810190610cf09190611bdc565b9250509150816001600160a01b0316633ba0b9a96040518163ffffffff1660e01b8152600401602060405180830381865afa158015610d31573d5f5f3e3d5ffd5b505050506040513d601f19601f82011682018060405250810190610d559190611b0f565b93505f816001600160a01b031663d2a3584e6040518163ffffffff1660e01b8152600401602060405180830381865afa158015610d94573d5f5f3e3d5ffd5b505050506040513d601f19601f82011682018060405250810190610db89190611b0f565b9050816001600160a01b031663516399df6040518163ffffffff1660e01b8152600401602060405180830381865afa158015610df6573d5f5f3e3d5ffd5b505050506040513d601f19601f82011682018060405250810190610e1a9190611c82565b8015610e8d575043826001600160a01b03166360e0a9e16040518163ffffffff1660e01b8152600401602060405180830381865afa158015610e5e573d5f5f3e3d5ffd5b505050506040513d601f19601f82011682018060405250810190610e829190611ca1565b6001600160801b0316145b15610e9a57809350610ea7565b610ea48582610f77565b93505b505050915091565b5f5f836001600160a01b031663e184c9be6040518163ffffffff1660e01b8152600401602060405180830381865afa158015610eed573d5f5f3e3d5ffd5b505050506040513d601f19601f82011682018060405250810190610f119190611b0f565b9050428111610f2b57670de0b6b3a76400009150506107d6565b5f610f368585610f8c565b90505f610f4342846119d0565b90505f610f58610f538484611134565b61116c565b9050610f6c670de0b6b3a76400008261117d565b9450505050506107d6565b5f818311610f855781610384565b5090919050565b5f8163ffffffff165f03611019575f836001600160a01b031663c3fb90d66040518163ffffffff1660e01b815260040160c060405180830381865afa158015610fd7573d5f5f3e3d5ffd5b505050506040513d601f19601f82011682018060405250810190610ffb9190611ce9565b50505092505050806bffffffffffffffffffffffff169150506107d6565b6040805160028082526060820183525f9260208301908036833701905050905082815f8151811061104c5761104c611bc8565b63ffffffff9092166020928302919091019091015260405163883bdbfd60e01b81525f906001600160a01b0386169063883bdbfd9061108f908590600401611d6b565b5f60405180830381865afa1580156110a9573d5f5f3e3d5ffd5b505050506040513d5f823e601f3d908101601f191682016040526110d09190810190611da8565b90508363ffffffff16815f815181106110eb576110eb611bc8565b60200260200101518260018151811061110657611106611bc8565b60200260200101516111189190611e4d565b6111229190611e6c565b6001600160d81b031695945050505050565b5f806111456201518061016d611ad1565b61114f8486611ad1565b6111599190611afc565b9050610416611167826111ab565b6111bf565b5f5f821215611179575f5ffd5b5090565b5f80611191670de0b6b3a764000085611ad1565b90508281816111a2576111a2611ae8565b04949350505050565b5f6001600160ff1b03821115611179575f5ffd5b5f680238fd42c5cf03ffff1982121580156111e3575068070c1cc73b00c800008213155b6112265760405162461bcd60e51b815260206004820152601060248201526f125b9d985b1a5908195e1c1bdb995b9d60821b604482015260640160405180910390fd5b5f82121561125d57611239825f036111bf565b6ec097ce7bc90715b34b9f10000000008161125657611256611ae8565b0592915050565b5f6806f05b59d3b2000000831261129c57506806f05b59d3b1ffffff1990910190770195e54c5dd42177f53a27172fa9ec6302628270000000006112d2565b6803782dace9d900000083126112ce57506803782dace9d8ffffff19909101906b1425982cf597cd205cef73806112d2565b5060015b6064929092029168056bc75e2d6310000068ad78ebc5ac6200000084126113225768ad78ebc5ac61ffffff199093019268056bc75e2d631000006e01855144814a7ff805980ff008400082020590505b6856bc75e2d631000000841261135e576856bc75e2d630ffffff199093019268056bc75e2d631000006b02df0ab5a80a22c61ab5a70082020590505b682b5e3af16b18800000841261139857682b5e3af16b187fffff199093019268056bc75e2d63100000693f1fce3da636ea5cf85082020590505b6815af1d78b58c40000084126113d2576815af1d78b58c3fffff199093019268056bc75e2d63100000690127fa27722cc06cc5e282020590505b680ad78ebc5ac6200000841261140b57680ad78ebc5ac61fffff199093019268056bc75e2d6310000068280e60114edb805d0382020590505b68056bc75e2d6310000084126114445768056bc75e2d630fffff199093019268056bc75e2d63100000680ebc5fb4174612111082020590505b6802b5e3af16b1880000841261147d576802b5e3af16b187ffff199093019268056bc75e2d631000006808f00f760a4b2db55d82020590505b68015af1d78b58c4000084126114b65768015af1d78b58c3ffff199093019268056bc75e2d631000006806f5f177578893793782020590505b68056bc75e2d631000008481019085906002908280020505918201919050600368056bc75e2d631000008783020505918201919050600468056bc75e2d631000008783020505918201919050600568056bc75e2d631000008783020505918201919050600668056bc75e2d631000008783020505918201919050600768056bc75e2d631000008783020505918201919050600868056bc75e2d631000008783020505918201919050600968056bc75e2d631000008783020505918201919050600a68056bc75e2d631000008783020505918201919050600b68056bc75e2d631000008783020505918201919050600c68056bc75e2d631000008783020505918201919050606468056bc75e2d63100000848402058502059695505050505050565b6001600160a01b03811681146115eb575f5ffd5b50565b5f5f5f60608486031215611600575f5ffd5b833561160b816115d7565b9250602084013561161b816115d7565b929592945050506040919091013590565b5f6020828403121561163c575f5ffd5b8135610384816115d7565b5f5f5f5f5f60a0868803121561165b575f5ffd5b85359450602086013561166d816115d7565b9350604086013561167d816115d7565b9250606086013561168d816115d7565b949793965091946080013592915050565b634e487b7160e01b5f52604160045260245ffd5b604051601f8201601f1916810167ffffffffffffffff811182821017156116db576116db61169e565b604052919050565b5f67ffffffffffffffff8211156116fc576116fc61169e565b5060051b60200190565b5f82601f830112611715575f5ffd5b8135611728611723826116e3565b6116b2565b8082825260208201915060208360051b860101925085831115611749575f5ffd5b602085015b8381101561176f578035611761816115d7565b83526020928301920161174e565b5095945050505050565b5f5f6040838503121561178a575f5ffd5b823567ffffffffffffffff8111156117a0575f5ffd5b6117ac85828601611706565b925050602083013567ffffffffffffffff8111156117c8575f5ffd5b8301601f810185136117d8575f5ffd5b80356117e6611723826116e3565b8082825260208201915060208360051b850101925087831115611807575f5ffd5b602084015b8381101561184857803567ffffffffffffffff81111561182a575f5ffd5b6118398a602083890101611706565b8452506020928301920161180c565b50809450505050509250929050565b5f602082016020835280845180835260408501915060408160051b8601019250602086015f5b828110156118d757868503603f19018452815180518087526020918201918701905f5b818110156118be5783518352602093840193909201916001016118a0565b509096505050602093840193919091019060010161187d565b50929695505050505050565b5f5f604083850312156118f4575f5ffd5b82356118ff816115d7565b9150602083013561190f816115d7565b809150509250929050565b5f6020828403121561192a575f5ffd5b813567ffffffffffffffff811115611940575f5ffd5b61041684828501611706565b602080825282518282018190525f918401906040840190835b81811015611983578351835260209384019390920191600101611965565b509095945050505050565b805160ff8116811461199e575f5ffd5b919050565b5f602082840312156119b3575f5ffd5b6103848261198e565b634e487b7160e01b5f52601160045260245ffd5b818103818111156107d6576107d66119bc565b6001815b6001841115611a1e57808504811115611a0257611a026119bc565b6001841615611a1057908102905b60019390931c9280026119e7565b935093915050565b5f82611a34575060016107d6565b81611a4057505f6107d6565b8160018114611a565760028114611a6057611a7c565b60019150506107d6565b60ff841115611a7157611a716119bc565b50506001821b6107d6565b5060208310610133831016604e8410600b8410161715611a9f575081810a6107d6565b611aab5f1984846119e3565b805f1904821115611abe57611abe6119bc565b029392505050565b5f6103848383611a26565b80820281158282048414176107d6576107d66119bc565b634e487b7160e01b5f52601260045260245ffd5b5f82611b0a57611b0a611ae8565b500490565b5f60208284031215611b1f575f5ffd5b5051919050565b5f60a0828403128015611b37575f5ffd5b5060405160a0810167ffffffffffffffff81118282101715611b5b57611b5b61169e565b6040528251611b69816115d7565b8152602083810151908201526040830151611b83816115d7565b60408201526060830151611b96816115d7565b60608201526080830151611ba9816115d7565b60808201529392505050565b808201808211156107d6576107d66119bc565b634e487b7160e01b5f52603260045260245ffd5b5f5f5f60608486031215611bee575f5ffd5b8351611bf9816115d7565b6020850151909350611c0a816115d7565b6040850151909250611c1b816115d7565b809150509250925092565b5f5f5f60608486031215611c38575f5ffd5b835160028110611c46575f5ffd5b6020850151909350611c57816115d7565b9150611c656040850161198e565b90509250925092565b634e487b7160e01b5f52602160045260245ffd5b5f60208284031215611c92575f5ffd5b81518015158114610384575f5ffd5b5f60208284031215611cb1575f5ffd5b81516001600160801b0381168114610384575f5ffd5b8051600f81900b811461199e575f5ffd5b805161ffff8116811461199e575f5ffd5b5f5f5f5f5f5f60c08789031215611cfe575f5ffd5b611d0787611cc7565b9550611d1560208801611cc7565b945060408701516bffffffffffffffffffffffff81168114611d35575f5ffd5b9350611d4360608801611cd8565b9250611d5160808801611cd8565b9150611d5f60a08801611cd8565b90509295509295509295565b602080825282518282018190525f918401906040840190835b8181101561198357835163ffffffff16835260209384019390920191600101611d84565b5f60208284031215611db8575f5ffd5b815167ffffffffffffffff811115611dce575f5ffd5b8201601f81018413611dde575f5ffd5b8051611dec611723826116e3565b8082825260208201915060208360051b850101925086831115611e0d575f5ffd5b6020840193505b82841015611e435783516001600160d81b0381168114611e32575f5ffd5b825260209384019390910190611e14565b9695505050505050565b6001600160d81b0382811682821603908111156107d6576107d66119bc565b5f6001600160d81b03831680611e8457611e84611ae8565b6001600160d81b0392909216919091049291505056fea164736f6c634300081e000a","linkReferences":{}},"methodIdentifiers":{"TWAP_DURATION()":"879ac8f8","decimals(address)":"d449a832","getAssetOutput(address,address,uint256)":"aa5815fd","getAssetOutputWithFees(bytes32,address,address,address,uint256)":"2f112c46","getBalanceOfOwner(address,address)":"fea8af5f","getPricePerShare(address)":"ec422afd","getPricePerShareMultiple(address[])":"a7a128b4","getShareOutput(address,address,uint256)":"056f143c","getTVL(address)":"0f40517a","getTVLByOwnerOfShares(address,address)":"4fecb266","getTVLByOwnerOfSharesMultiple(address[],address[][])":"34f99b48","getTVLMultiple(address[])":"cacc7b0e","superLedgerConfiguration()":"825e9ec7"},"id":331}