{"abi":[{"type":"constructor","inputs":[{"name":"superLedgerConfiguration_","type":"address","internalType":"address"}],"stateMutability":"nonpayable"},{"type":"function","name":"SUPER_LEDGER_CONFIGURATION","inputs":[],"outputs":[{"name":"","type":"address","internalType":"address"}],"stateMutability":"view"},{"type":"function","name":"TWAP_DURATION","inputs":[],"outputs":[{"name":"","type":"uint32","internalType":"uint32"}],"stateMutability":"view"},{"type":"function","name":"decimals","inputs":[{"name":"","type":"address","internalType":"address"}],"outputs":[{"name":"","type":"uint8","internalType":"uint8"}],"stateMutability":"pure"},{"type":"function","name":"getAssetOutput","inputs":[{"name":"market","type":"address","internalType":"address"},{"name":"","type":"address","internalType":"address"},{"name":"sharesIn","type":"uint256","internalType":"uint256"}],"outputs":[{"name":"assetsOut","type":"uint256","internalType":"uint256"}],"stateMutability":"view"},{"type":"function","name":"getAssetOutputWithFees","inputs":[{"name":"yieldSourceOracleId","type":"bytes32","internalType":"bytes32"},{"name":"yieldSourceAddress","type":"address","internalType":"address"},{"name":"assetOut","type":"address","internalType":"address"},{"name":"user","type":"address","internalType":"address"},{"name":"usedShares","type":"uint256","internalType":"uint256"}],"outputs":[{"name":"","type":"uint256","internalType":"uint256"}],"stateMutability":"view"},{"type":"function","name":"getBalanceOfOwner","inputs":[{"name":"market","type":"address","internalType":"address"},{"name":"ownerOfShares","type":"address","internalType":"address"}],"outputs":[{"name":"balance","type":"uint256","internalType":"uint256"}],"stateMutability":"view"},{"type":"function","name":"getPricePerShare","inputs":[{"name":"market","type":"address","internalType":"address"}],"outputs":[{"name":"price","type":"uint256","internalType":"uint256"}],"stateMutability":"view"},{"type":"function","name":"getPricePerShareMultiple","inputs":[{"name":"yieldSourceAddresses","type":"address[]","internalType":"address[]"}],"outputs":[{"name":"pricesPerShare","type":"uint256[]","internalType":"uint256[]"}],"stateMutability":"view"},{"type":"function","name":"getShareOutput","inputs":[{"name":"market","type":"address","internalType":"address"},{"name":"","type":"address","internalType":"address"},{"name":"assetsIn","type":"uint256","internalType":"uint256"}],"outputs":[{"name":"sharesOut","type":"uint256","internalType":"uint256"}],"stateMutability":"view"},{"type":"function","name":"getTVL","inputs":[{"name":"market","type":"address","internalType":"address"}],"outputs":[{"name":"tvl","type":"uint256","internalType":"uint256"}],"stateMutability":"view"},{"type":"function","name":"getTVLByOwnerOfShares","inputs":[{"name":"market","type":"address","internalType":"address"},{"name":"ownerOfShares","type":"address","internalType":"address"}],"outputs":[{"name":"tvl","type":"uint256","internalType":"uint256"}],"stateMutability":"view"},{"type":"function","name":"getTVLByOwnerOfSharesMultiple","inputs":[{"name":"yieldSourceAddresses","type":"address[]","internalType":"address[]"},{"name":"ownersOfShares","type":"address[][]","internalType":"address[][]"}],"outputs":[{"name":"userTvls","type":"uint256[][]","internalType":"uint256[][]"}],"stateMutability":"view"},{"type":"function","name":"getTVLMultiple","inputs":[{"name":"yieldSourceAddresses","type":"address[]","internalType":"address[]"}],"outputs":[{"name":"tvls","type":"uint256[]","internalType":"uint256[]"}],"stateMutability":"view"},{"type":"event","name":"TwapDurationSet","inputs":[{"name":"newDuration","type":"uint32","indexed":false,"internalType":"uint32"}],"anonymous":false},{"type":"error","name":"ARRAY_LENGTH_MISMATCH","inputs":[]},{"type":"error","name":"INVALID_ASSET","inputs":[]},{"type":"error","name":"INVALID_BASE_ASSET","inputs":[]},{"type":"error","name":"NOT_AVAILABLE_ERC20_ON_CHAIN","inputs":[]}],"bytecode":{"object":"0x60c060405234801561000f575f5ffd5b5060405161212238038061212283398101604081905261002e9161007c565b6001600160a01b03811660805261038460a08190526040519081527fae45eae27fdd572bcc5daa11e5155fef7d0b5081d88a374f0580bf91bfdc29b99060200160405180910390a1506100a9565b5f6020828403121561008c575f5ffd5b81516001600160a01b03811681146100a2575f5ffd5b9392505050565b60805160a05161204a6100d85f395f81816101920152610b0c01525f8181610153015261043a015261204a5ff3fe608060405234801561000f575f5ffd5b50600436106100cb575f3560e01c8063879ac8f811610088578063cacc7b0e11610063578063cacc7b0e146101fc578063d449a8321461020f578063ec422afd14610235578063fea8af5f14610248575f5ffd5b8063879ac8f81461018d578063a7a128b4146101c9578063aa5815fd146101e9575f5ffd5b8063056f143c146100cf5780630f40517a146100f55780632f112c461461010857806334f99b481461011b5780634fecb2661461013b5780638717164a1461014e575b5f5ffd5b6100e26100dd366004611791565b61025b565b6040519081526020015b60405180910390f35b6100e26101033660046117cf565b610381565b6100e26101163660046117ea565b610414565b61012e61012936600461191c565b610679565b6040516100ec91906119fa565b6100e2610149366004611a86565b61081f565b6101757f000000000000000000000000000000000000000000000000000000000000000081565b6040516001600160a01b0390911681526020016100ec565b6101b47f000000000000000000000000000000000000000000000000000000000000000081565b60405163ffffffff90911681526020016100ec565b6101dc6101d7366004611abd565b6108c0565b6040516100ec9190611aef565b6100e26101f7366004611791565b610962565b6101dc61020a366004611abd565b610a61565b61022361021d3660046117cf565b50601290565b60405160ff90911681526020016100ec565b6100e26102433660046117cf565b610afc565b6100e2610256366004611a86565b610b30565b5f5f61026685610afc565b9050805f03610278575f91505061037a565b5f61028286610ba7565b90505f61028e82610c13565b925050505f61029c88610c9d565b6001600160a01b031663313ce5676040518163ffffffff1660e01b8152600401602060405180830381865afa1580156102d7573d5f5f3e3d5ffd5b505050506040513d601f19601f820116820180604052508101906102fb9190611b46565b90505f60128360ff16116103335761031760ff84166012611b73565b61032290600a611c69565b61032c9088611c74565b905061035a565b610357876001610347601260ff8816611b73565b61035290600a611c69565b610d08565b90505b6103728161036c60ff8516600a611c69565b87610d08565b955050505050505b9392505050565b5f5f61038c83610c9d565b90505f816001600160a01b03166318160ddd6040518163ffffffff1660e01b8152600401602060405180830381865afa1580156103cb573d5f5f3e3d5ffd5b505050506040513d601f19601f820116820180604052508101906103ef9190611c8b565b9050805f0361040157505f9392505050565b61040c845f83610962565b949350505050565b5f5f610421868685610962565b604051630b47673760e41b8152600481018990529091507f00000000000000000000000000000000000000000000000000000000000000006001600160a01b03169063b47673709060240160a060405180830381865afa9250505080156104a5575060408051601f3d908101601f191682019092526104a291810190611ca2565b60015b6104b0579050610670565b5f81602001511180156104cf575060808101516001600160a01b031615155b1561066c57805160405163ec422afd60e01b81526001600160a01b0389811660048301525f92169063ec422afd90602401602060405180830381865afa15801561051b573d5f5f3e3d5ffd5b505050506040513d601f19601f8201168201806040525081019061053f9190611c8b565b8251604051636a24d41960e11b81526001600160a01b038b811660048301529293505f929091169063d449a83290602401602060405180830381865afa15801561058b573d5f5f3e3d5ffd5b505050506040513d601f19601f820116820180604052508101906105af9190611b46565b60808401516020850151604051633c144b4b60e21b81526001600160a01b038b811660048301528d8116602483015260448201899052606482018b9052608482019290925260a4810186905260ff841660c48201529293505f9291169063f0512d2c9060e401602060405180830381865afa158015610630573d5f5f3e3d5ffd5b505050506040513d601f19601f820116820180604052508101906106549190611c8b565b90506106608186611d31565b95505050505050610670565b5090505b95945050505050565b815181516060919081146106a057604051634456f5e960e11b815260040160405180910390fd5b8067ffffffffffffffff8111156106b9576106b9611841565b6040519080825280602002602001820160405280156106ec57816020015b60608152602001906001900390816106d75790505b5091505f5b81811015610817575f85828151811061070c5761070c611d44565b602002602001015190505f85838151811061072957610729611d44565b602002602001015190505f815190508067ffffffffffffffff81111561075157610751611841565b60405190808252806020026020018201604052801561077a578160200160208202803683370190505b5086858151811061078d5761078d611d44565b60200260200101819052505f5b81811015610808575f6107c6858584815181106107b9576107b9611d44565b602002602001015161081f565b9050808887815181106107db576107db611d44565b602002602001015183815181106107f4576107f4611d44565b60209081029190910101525060010161079a565b505050508060010190506106f1565b505092915050565b5f5f61082a84610c9d565b6040516370a0823160e01b81526001600160a01b0385811660048301529192505f918316906370a0823190602401602060405180830381865afa158015610873573d5f5f3e3d5ffd5b505050506040513d601f19601f820116820180604052508101906108979190611c8b565b9050805f036108aa575f925050506108ba565b6108b5855f83610962565b925050505b92915050565b80516060908067ffffffffffffffff8111156108de576108de611841565b604051908082528060200260200182016040528015610907578160200160208202803683370190505b5091505f5b8181101561095b5761093684828151811061092957610929611d44565b6020026020010151610afc565b83828151811061094857610948611d44565b602090810291909101015260010161090c565b5050919050565b5f5f61096d85610afc565b90505f61097986610c9d565b6001600160a01b031663313ce5676040518163ffffffff1660e01b8152600401602060405180830381865afa1580156109b4573d5f5f3e3d5ffd5b505050506040513d601f19601f820116820180604052508101906109d89190611b46565b90505f6109e487610ba7565b90505f6109f082610c13565b925050505f610a0a87868660ff16600a6103529190611c69565b905060128260ff1610610a4157610a25601260ff8416611b73565b610a3090600a611c69565b610a3a9082611c74565b9550610a55565b61037281600161034760ff86166012611b73565b50505050509392505050565b80516060908067ffffffffffffffff811115610a7f57610a7f611841565b604051908082528060200260200182016040528015610aa8578160200160208202803683370190505b5091505f5b8181101561095b57610ad7848281518110610aca57610aca611d44565b6020026020010151610381565b838281518110610ae957610ae9611d44565b6020908102919091010152600101610aad565b5f6108ba6001600160a01b0383167f0000000000000000000000000000000000000000000000000000000000000000610db8565b5f5f610b3b84610c9d565b6040516370a0823160e01b81526001600160a01b038581166004830152919250908216906370a0823190602401602060405180830381865afa158015610b83573d5f5f3e3d5ffd5b505050506040513d601f19601f8201168201806040525081019061040c9190611c8b565b5f5f826001600160a01b0316632c8ce6bc6040518163ffffffff1660e01b8152600401606060405180830381865afa158015610be5573d5f5f3e3d5ffd5b505050506040513d601f19601f82011682018060405250810190610c099190611d58565b5090949350505050565b5f5f5f5f5f5f866001600160a01b031663a40bee506040518163ffffffff1660e01b8152600401606060405180830381865afa158015610c55573d5f5f3e3d5ffd5b505050506040513d601f19601f82011682018060405250810190610c799190611da2565b925092509250826001811115610c9157610c91611dea565b97919650945092505050565b5f5f826001600160a01b0316632c8ce6bc6040518163ffffffff1660e01b8152600401606060405180830381865afa158015610cdb573d5f5f3e3d5ffd5b505050506040513d601f19601f82011682018060405250810190610cff9190611d58565b50949350505050565b5f5f5f610d158686610e02565b91509150815f03610d3957838181610d2f57610d2f611dfe565b049250505061037a565b818411610d5057610d506003851502601118610e1e565b5f848688095f868103871696879004966002600389028118808a02820302808a02820302808a02820302808a02820302808a02820302808a02909103029181900381900460010185841190960395909502919093039390930492909217029150509392505050565b5f5f5f610dc485610e2f565b91509150808210610de257610dd98585611052565b925050506108ba565b8082610dee8787611052565b610df89190611c74565b610dd99190611e12565b5f805f1983850993909202808410938190039390930393915050565b634e487b715f52806020526024601cfd5b5f5f5f5f846001600160a01b0316632c8ce6bc6040518163ffffffff1660e01b8152600401606060405180830381865afa158015610e6f573d5f5f3e3d5ffd5b505050506040513d601f19601f82011682018060405250810190610e939190611d58565b9250509150816001600160a01b0316633ba0b9a96040518163ffffffff1660e01b8152600401602060405180830381865afa158015610ed4573d5f5f3e3d5ffd5b505050506040513d601f19601f82011682018060405250810190610ef89190611c8b565b93505f816001600160a01b031663d2a3584e6040518163ffffffff1660e01b8152600401602060405180830381865afa158015610f37573d5f5f3e3d5ffd5b505050506040513d601f19601f82011682018060405250810190610f5b9190611c8b565b9050816001600160a01b031663516399df6040518163ffffffff1660e01b8152600401602060405180830381865afa158015610f99573d5f5f3e3d5ffd5b505050506040513d601f19601f82011682018060405250810190610fbd9190611e25565b8015611030575043826001600160a01b03166360e0a9e16040518163ffffffff1660e01b8152600401602060405180830381865afa158015611001573d5f5f3e3d5ffd5b505050506040513d601f19601f820116820180604052508101906110259190611e44565b6001600160801b0316145b1561103d5780935061104a565b611047858261111a565b93505b505050915091565b5f5f836001600160a01b031663e184c9be6040518163ffffffff1660e01b8152600401602060405180830381865afa158015611090573d5f5f3e3d5ffd5b505050506040513d601f19601f820116820180604052508101906110b49190611c8b565b90504281116110ce57670de0b6b3a76400009150506108ba565b5f6110d9858561112f565b90505f6110e64284611b73565b90505f6110fb6110f684846112d7565b61130f565b905061110f670de0b6b3a764000082611320565b9450505050506108ba565b5f818311611128578161037a565b5090919050565b5f8163ffffffff165f036111bc575f836001600160a01b031663c3fb90d66040518163ffffffff1660e01b815260040160c060405180830381865afa15801561117a573d5f5f3e3d5ffd5b505050506040513d601f19601f8201168201806040525081019061119e9190611e8c565b50505092505050806bffffffffffffffffffffffff169150506108ba565b6040805160028082526060820183525f9260208301908036833701905050905082815f815181106111ef576111ef611d44565b63ffffffff9092166020928302919091019091015260405163883bdbfd60e01b81525f906001600160a01b0386169063883bdbfd90611232908590600401611f0e565b5f60405180830381865afa15801561124c573d5f5f3e3d5ffd5b505050506040513d5f823e601f3d908101601f191682016040526112739190810190611f4b565b90508363ffffffff16815f8151811061128e5761128e611d44565b6020026020010151826001815181106112a9576112a9611d44565b60200260200101516112bb9190611ff0565b6112c5919061200f565b6001600160d81b031695945050505050565b5f806112e86201518061016d611c74565b6112f28486611c74565b6112fc9190611e12565b905061040c61130a8261134e565b611362565b5f5f82121561131c575f5ffd5b5090565b5f80611334670de0b6b3a764000085611c74565b905082818161134557611345611dfe565b04949350505050565b5f6001600160ff1b0382111561131c575f5ffd5b5f680238fd42c5cf03ffff198212158015611386575068070c1cc73b00c800008213155b6113c95760405162461bcd60e51b815260206004820152601060248201526f125b9d985b1a5908195e1c1bdb995b9d60821b604482015260640160405180910390fd5b5f821215611400576113dc825f03611362565b6ec097ce7bc90715b34b9f1000000000816113f9576113f9611dfe565b0592915050565b5f6806f05b59d3b2000000831261143f57506806f05b59d3b1ffffff1990910190770195e54c5dd42177f53a27172fa9ec630262827000000000611475565b6803782dace9d9000000831261147157506803782dace9d8ffffff19909101906b1425982cf597cd205cef7380611475565b5060015b6064929092029168056bc75e2d6310000068ad78ebc5ac6200000084126114c55768ad78ebc5ac61ffffff199093019268056bc75e2d631000006e01855144814a7ff805980ff008400082020590505b6856bc75e2d6310000008412611501576856bc75e2d630ffffff199093019268056bc75e2d631000006b02df0ab5a80a22c61ab5a70082020590505b682b5e3af16b18800000841261153b57682b5e3af16b187fffff199093019268056bc75e2d63100000693f1fce3da636ea5cf85082020590505b6815af1d78b58c4000008412611575576815af1d78b58c3fffff199093019268056bc75e2d63100000690127fa27722cc06cc5e282020590505b680ad78ebc5ac620000084126115ae57680ad78ebc5ac61fffff199093019268056bc75e2d6310000068280e60114edb805d0382020590505b68056bc75e2d6310000084126115e75768056bc75e2d630fffff199093019268056bc75e2d63100000680ebc5fb4174612111082020590505b6802b5e3af16b18800008412611620576802b5e3af16b187ffff199093019268056bc75e2d631000006808f00f760a4b2db55d82020590505b68015af1d78b58c4000084126116595768015af1d78b58c3ffff199093019268056bc75e2d631000006806f5f177578893793782020590505b68056bc75e2d631000008481019085906002908280020505918201919050600368056bc75e2d631000008783020505918201919050600468056bc75e2d631000008783020505918201919050600568056bc75e2d631000008783020505918201919050600668056bc75e2d631000008783020505918201919050600768056bc75e2d631000008783020505918201919050600868056bc75e2d631000008783020505918201919050600968056bc75e2d631000008783020505918201919050600a68056bc75e2d631000008783020505918201919050600b68056bc75e2d631000008783020505918201919050600c68056bc75e2d631000008783020505918201919050606468056bc75e2d63100000848402058502059695505050505050565b6001600160a01b038116811461178e575f5ffd5b50565b5f5f5f606084860312156117a3575f5ffd5b83356117ae8161177a565b925060208401356117be8161177a565b929592945050506040919091013590565b5f602082840312156117df575f5ffd5b813561037a8161177a565b5f5f5f5f5f60a086880312156117fe575f5ffd5b8535945060208601356118108161177a565b935060408601356118208161177a565b925060608601356118308161177a565b949793965091946080013592915050565b634e487b7160e01b5f52604160045260245ffd5b604051601f8201601f1916810167ffffffffffffffff8111828210171561187e5761187e611841565b604052919050565b5f67ffffffffffffffff82111561189f5761189f611841565b5060051b60200190565b5f82601f8301126118b8575f5ffd5b81356118cb6118c682611886565b611855565b8082825260208201915060208360051b8601019250858311156118ec575f5ffd5b602085015b838110156119125780356119048161177a565b8352602092830192016118f1565b5095945050505050565b5f5f6040838503121561192d575f5ffd5b823567ffffffffffffffff811115611943575f5ffd5b61194f858286016118a9565b925050602083013567ffffffffffffffff81111561196b575f5ffd5b8301601f8101851361197b575f5ffd5b80356119896118c682611886565b8082825260208201915060208360051b8501019250878311156119aa575f5ffd5b602084015b838110156119eb57803567ffffffffffffffff8111156119cd575f5ffd5b6119dc8a6020838901016118a9565b845250602092830192016119af565b50809450505050509250929050565b5f602082016020835280845180835260408501915060408160051b8601019250602086015f5b82811015611a7a57868503603f19018452815180518087526020918201918701905f5b81811015611a61578351835260209384019390920191600101611a43565b5090965050506020938401939190910190600101611a20565b50929695505050505050565b5f5f60408385031215611a97575f5ffd5b8235611aa28161177a565b91506020830135611ab28161177a565b809150509250929050565b5f60208284031215611acd575f5ffd5b813567ffffffffffffffff811115611ae3575f5ffd5b61040c848285016118a9565b602080825282518282018190525f918401906040840190835b81811015611b26578351835260209384019390920191600101611b08565b509095945050505050565b805160ff81168114611b41575f5ffd5b919050565b5f60208284031215611b56575f5ffd5b61037a82611b31565b634e487b7160e01b5f52601160045260245ffd5b818103818111156108ba576108ba611b5f565b6001815b6001841115611bc157808504811115611ba557611ba5611b5f565b6001841615611bb357908102905b60019390931c928002611b8a565b935093915050565b5f82611bd7575060016108ba565b81611be357505f6108ba565b8160018114611bf95760028114611c0357611c1f565b60019150506108ba565b60ff841115611c1457611c14611b5f565b50506001821b6108ba565b5060208310610133831016604e8410600b8410161715611c42575081810a6108ba565b611c4e5f198484611b86565b805f1904821115611c6157611c61611b5f565b029392505050565b5f61037a8383611bc9565b80820281158282048414176108ba576108ba611b5f565b5f60208284031215611c9b575f5ffd5b5051919050565b5f60a0828403128015611cb3575f5ffd5b5060405160a0810167ffffffffffffffff81118282101715611cd757611cd7611841565b6040528251611ce58161177a565b8152602083810151908201526040830151611cff8161177a565b60408201526060830151611d128161177a565b60608201526080830151611d258161177a565b60808201529392505050565b808201808211156108ba576108ba611b5f565b634e487b7160e01b5f52603260045260245ffd5b5f5f5f60608486031215611d6a575f5ffd5b8351611d758161177a565b6020850151909350611d868161177a565b6040850151909250611d978161177a565b809150509250925092565b5f5f5f60608486031215611db4575f5ffd5b835160028110611dc2575f5ffd5b6020850151909350611dd38161177a565b9150611de160408501611b31565b90509250925092565b634e487b7160e01b5f52602160045260245ffd5b634e487b7160e01b5f52601260045260245ffd5b5f82611e2057611e20611dfe565b500490565b5f60208284031215611e35575f5ffd5b8151801515811461037a575f5ffd5b5f60208284031215611e54575f5ffd5b81516001600160801b038116811461037a575f5ffd5b8051600f81900b8114611b41575f5ffd5b805161ffff81168114611b41575f5ffd5b5f5f5f5f5f5f60c08789031215611ea1575f5ffd5b611eaa87611e6a565b9550611eb860208801611e6a565b945060408701516bffffffffffffffffffffffff81168114611ed8575f5ffd5b9350611ee660608801611e7b565b9250611ef460808801611e7b565b9150611f0260a08801611e7b565b90509295509295509295565b602080825282518282018190525f918401906040840190835b81811015611b2657835163ffffffff16835260209384019390920191600101611f27565b5f60208284031215611f5b575f5ffd5b815167ffffffffffffffff811115611f71575f5ffd5b8201601f81018413611f81575f5ffd5b8051611f8f6118c682611886565b8082825260208201915060208360051b850101925086831115611fb0575f5ffd5b6020840193505b82841015611fe65783516001600160d81b0381168114611fd5575f5ffd5b825260209384019390910190611fb7565b9695505050505050565b6001600160d81b0382811682821603908111156108ba576108ba611b5f565b5f6001600160d81b0383168061202757612027611dfe565b6001600160d81b0392909216919091049291505056fea164736f6c634300081e000a","linkReferences":{}},"methodIdentifiers":{"SUPER_LEDGER_CONFIGURATION()":"8717164a","TWAP_DURATION()":"879ac8f8","decimals(address)":"d449a832","getAssetOutput(address,address,uint256)":"aa5815fd","getAssetOutputWithFees(bytes32,address,address,address,uint256)":"2f112c46","getBalanceOfOwner(address,address)":"fea8af5f","getPricePerShare(address)":"ec422afd","getPricePerShareMultiple(address[])":"a7a128b4","getShareOutput(address,address,uint256)":"056f143c","getTVL(address)":"0f40517a","getTVLByOwnerOfShares(address,address)":"4fecb266","getTVLByOwnerOfSharesMultiple(address[],address[][])":"34f99b48","getTVLMultiple(address[])":"cacc7b0e"},"id":421}