{"abi":[{"type":"constructor","inputs":[],"stateMutability":"nonpayable"},{"type":"function","name":"asset","inputs":[],"outputs":[{"name":"","type":"address","internalType":"address"}],"stateMutability":"view"},{"type":"function","name":"build","inputs":[{"name":"prevHook","type":"address","internalType":"address"},{"name":"account","type":"address","internalType":"address"},{"name":"hookData","type":"bytes","internalType":"bytes"}],"outputs":[{"name":"executions","type":"tuple[]","internalType":"struct Execution[]","components":[{"name":"target","type":"address","internalType":"address"},{"name":"value","type":"uint256","internalType":"uint256"},{"name":"callData","type":"bytes","internalType":"bytes"}]}],"stateMutability":"view"},{"type":"function","name":"decodeAmount","inputs":[{"name":"data","type":"bytes","internalType":"bytes"}],"outputs":[{"name":"","type":"uint256","internalType":"uint256"}],"stateMutability":"pure"},{"type":"function","name":"decodeUsePrevHookAmount","inputs":[{"name":"data","type":"bytes","internalType":"bytes"}],"outputs":[{"name":"","type":"bool","internalType":"bool"}],"stateMutability":"pure"},{"type":"function","name":"executionNonce","inputs":[],"outputs":[{"name":"","type":"uint256","internalType":"uint256"}],"stateMutability":"view"},{"type":"function","name":"getOutAmount","inputs":[{"name":"caller","type":"address","internalType":"address"}],"outputs":[{"name":"","type":"uint256","internalType":"uint256"}],"stateMutability":"view"},{"type":"function","name":"hookType","inputs":[],"outputs":[{"name":"","type":"uint8","internalType":"enum ISuperHook.HookType"}],"stateMutability":"view"},{"type":"function","name":"inspect","inputs":[{"name":"data","type":"bytes","internalType":"bytes"}],"outputs":[{"name":"","type":"bytes","internalType":"bytes"}],"stateMutability":"pure"},{"type":"function","name":"lastCaller","inputs":[],"outputs":[{"name":"","type":"address","internalType":"address"}],"stateMutability":"view"},{"type":"function","name":"postExecute","inputs":[{"name":"prevHook","type":"address","internalType":"address"},{"name":"account","type":"address","internalType":"address"},{"name":"data","type":"bytes","internalType":"bytes"}],"outputs":[],"stateMutability":"nonpayable"},{"type":"function","name":"postExecuteMutex","inputs":[],"outputs":[{"name":"","type":"bool","internalType":"bool"}],"stateMutability":"view"},{"type":"function","name":"preExecute","inputs":[{"name":"prevHook","type":"address","internalType":"address"},{"name":"account","type":"address","internalType":"address"},{"name":"data","type":"bytes","internalType":"bytes"}],"outputs":[],"stateMutability":"nonpayable"},{"type":"function","name":"preExecuteMutex","inputs":[],"outputs":[{"name":"","type":"bool","internalType":"bool"}],"stateMutability":"view"},{"type":"function","name":"replaceCalldataAmount","inputs":[{"name":"data","type":"bytes","internalType":"bytes"},{"name":"amount","type":"uint256","internalType":"uint256"}],"outputs":[{"name":"","type":"bytes","internalType":"bytes"}],"stateMutability":"pure"},{"type":"function","name":"resetExecutionState","inputs":[{"name":"caller","type":"address","internalType":"address"}],"outputs":[],"stateMutability":"nonpayable"},{"type":"function","name":"setExecutionContext","inputs":[{"name":"caller","type":"address","internalType":"address"}],"outputs":[],"stateMutability":"nonpayable"},{"type":"function","name":"setOutAmount","inputs":[{"name":"_outAmount","type":"uint256","internalType":"uint256"},{"name":"caller","type":"address","internalType":"address"}],"outputs":[],"stateMutability":"nonpayable"},{"type":"function","name":"spToken","inputs":[],"outputs":[{"name":"","type":"address","internalType":"address"}],"stateMutability":"view"},{"type":"function","name":"subType","inputs":[],"outputs":[{"name":"","type":"bytes32","internalType":"bytes32"}],"stateMutability":"view"},{"type":"function","name":"subtype","inputs":[],"outputs":[{"name":"","type":"bytes32","internalType":"bytes32"}],"stateMutability":"view"},{"type":"function","name":"usedShares","inputs":[],"outputs":[{"name":"","type":"uint256","internalType":"uint256"}],"stateMutability":"view"},{"type":"error","name":"ADDRESS_NOT_VALID","inputs":[]},{"type":"error","name":"AMOUNT_NOT_VALID","inputs":[]},{"type":"error","name":"CANNOT_SET_OUT_AMOUNT","inputs":[]},{"type":"error","name":"INCOMPLETE_HOOK_EXECUTION","inputs":[]},{"type":"error","name":"NOT_AUTHORIZED","inputs":[]},{"type":"error","name":"POST_EXECUTE_ALREADY_CALLED","inputs":[]},{"type":"error","name":"PRE_EXECUTE_ALREADY_CALLED","inputs":[]},{"type":"error","name":"UNAUTHORIZED_CALLER","inputs":[]}],"bytecode":{"object":"0x60a0604052348015600e575f5ffd5b506040805180820190915260078152664552433531313560c81b6020909101525f805460ff191660021790557f16b0755429540630f2d4bfab5526bb485356bbabc307c7597c9d323a9f8780a760805260805161151161007d5f395f818161021e01526102ce01526115115ff3fe608060405234801561000f575f5ffd5b5060043610610132575f3560e01c806360b5be29116100b45780638e148776116100795780638e148776146102a4578063ac440f72146102b6578063cf0a6181146102c9578063d06a1e89146102f0578063e445e7dd14610303578063e77455171461031c575f5ffd5b806360b5be2914610242578063685a943c1461026457806381cbe6911461026c57806384542a241461027f5780638c4313c114610291575f5ffd5b80632ae2fe3d116100fa5780632ae2fe3d146101b757806338d52e0f146101ca5780633a28b0ab146101dc5780633b5896bc146101fc5780635492e6771461021c575f5ffd5b806301bd43ef1461013657806305b4fe911461015257806314cb37cf146101675780631f2646191461017a5780632113522a1461018d575b5f5ffd5b61013f60035c81565b6040519081526020015b60405180910390f35b61016561016036600461115a565b61032f565b005b6101656101753660046111b7565b6103a9565b6101656101883660046111d0565b6103ca565b61019f6001600160a01b0360045c1681565b6040516001600160a01b039091168152602001610149565b6101656101c536600461115a565b610423565b61019f6001600160a01b0360025c1681565b6101ef6101ea366004611299565b610496565b6040516101499190611309565b61020f61020a36600461115a565b6104ad565b604051610149919061131b565b7f000000000000000000000000000000000000000000000000000000000000000061013f565b61025460ff600160a81b60025c041681565b6040519015158152602001610149565b61013f5f5c81565b61013f61027a3660046111b7565b6106c6565b61025460ff600160a01b60025c041681565b6101ef61029f3660046113a8565b6106d8565b61019f6001600160a01b0360015c1681565b61013f6102c43660046113e7565b61079a565b61013f7f000000000000000000000000000000000000000000000000000000000000000081565b6101656102fe3660046111b7565b6107a4565b5f5461030f9060ff1681565b6040516101499190611419565b61025461032a3660046113e7565b6107f6565b336001600160a01b038416146103585760405163e15e56c960e01b815260040160405180910390fd5b5f61036284610802565b905061036d81610815565b1561038b5760405163945b63f560e01b815260040160405180910390fd5b610396816001610822565b6103a285858585610838565b5050505050565b6103b2816108e7565b50336004805c6001600160a01b0319168217905d5050565b5f6103d482610802565b90506103df81610919565b806103ee57506103ee81610815565b1561040c5760405163441e4c7360e11b815260040160405180910390fd5b5f610418826001610922565b905083815d50505050565b336001600160a01b0384161461044c5760405163e15e56c960e01b815260040160405180910390fd5b5f61045684610802565b905061046181610919565b1561047f57604051630bbb04d960e11b815260040160405180910390fd5b61048a816001610977565b6103a285858585610983565b60606104a483836048610ac5565b90505b92915050565b60605f6104bc86868686610b5b565b9050805160026104cc9190611453565b67ffffffffffffffff8111156104e4576104e46111fa565b60405190808252806020026020018201604052801561053057816020015b60408051606080820183525f8083526020830152918101919091528152602001906001900390816105025790505b5091506040518060600160405280306001600160a01b031681526020015f8152602001306001600160a01b0316632ae2fe3d898989896040516024016105799493929190611466565b604051602081830303815290604052915060e01b6020820180516001600160e01b038381831617835250505050815250825f815181106105bb576105bb6114ae565b60209081029190910101525f5b815181101561061c578181815181106105e3576105e36114ae565b6020026020010151838260016105f99190611453565b81518110610609576106096114ae565b60209081029190910101526001016105c8565b506040518060600160405280306001600160a01b031681526020015f8152602001306001600160a01b03166305b4fe91898989896040516024016106639493929190611466565b604051602081830303815290604052915060e01b6020820180516001600160e01b03838183161783525050505081525082600184516106a291906114c2565b815181106106b2576106b26114ae565b602002602001018190525050949350505050565b5f6104a76106d383610802565b610e5f565b606061071883838080601f0160208091040260200160405190810160405280939291908181526020018383808284375f92019190915250610e6c92505050565b61075984848080601f0160208091040260200160405190810160405280939291908181526020018383808284375f9201919091525060349250610e74915050565b6040516bffffffffffffffffffffffff19606093841b811660208301529190921b166034820152604801604051602081830303815290604052905092915050565b5f6104a782610edd565b5f6107ae82610802565b90506107b981610919565b15806107cb57506107c981610815565b155b156107e957604051634bd439b560e11b815260040160405180910390fd5b6107f281610ee9565b5050565b5f6104a7826088610f00565b5f5f61080d83610f2c565b5c9392505050565b5f5f61080d836003610922565b5f61082e836003610922565b905081815d505050565b610893610844846106c6565b6108838585858080601f0160208091040260200160405190810160405280939291908181526020018383808284375f92019190915250610f9892505050565b61088d91906114c2565b84611006565b6108d28383838080601f0160208091040260200160405190810160405280939291908181526020018383808284375f9201919091525061101e92505050565b6108dd905f5c6114c2565b805f5d5050505050565b5f6003805c90826108f7836114d5565b9190505d505f61090683610f2c565b905060035c80825d505060035c92915050565b5f5f61080d8360025b604080517fc41a07c57a776f6217c6d4278dfe7a5d114742afe55627ce458c2802aa4d703460208083019190915281830194909452606080820193909352815180820390930183526080019052805191012090565b5f61082e836002610922565b6109c482828080601f0160208091040260200160405190810160405280939291908181526020018383808284375f9201919091525060349250610e74915050565b6002805c6001600160a01b0319166001600160a01b03831617905d50610a2261088d8484848080601f0160208091040260200160405190810160405280939291908181526020018383808284375f92019190915250610f9892505050565b610a618383838080601f0160208091040260200160405190810160405280939291908181526020018383808284375f9201919091525061101e92505050565b805f5d50610aa382828080601f0160208091040260200160405190810160405280939291908181526020018383808284375f92019190915250610e6c92505050565b6001805c6001600160a01b0319166001600160a01b03831617905d5050505050565b60605f83604051602001610adb91815260200190565b60405160208183030381529060405290505f5b6020811015610b5157818181518110610b0957610b096114ae565b01602001516001600160f81b03191686610b238387611453565b81518110610b3357610b336114ae565b60200101906001600160f81b03191690815f1a905350600101610aee565b5093949350505050565b60605f610b9c84848080601f0160208091040260200160405190810160405280939291908181526020018383808284375f92019190915250610e6c92505050565b90505f610be085858080601f0160208091040260200160405190810160405280939291908181526020018383808284375f9201919091525060349250610e74915050565b90505f610c2186868080601f0160208091040260200160405190810160405280939291908181526020018383808284375f92019190915250610edd92505050565b90505f610c6587878080601f0160208091040260200160405190810160405280939291908181526020018383808284375f920191909152506068925061109d915050565b90505f610ca988888080601f0160208091040260200160405190810160405280939291908181526020018383808284375f9201919091525060889250610f00915050565b90508015610d1c576040516381cbe69160e01b81526001600160a01b038a811660048301528b16906381cbe69190602401602060405180830381865afa158015610cf5573d5f5f3e3d5ffd5b505050506040513d601f19601f82011682018060405250810190610d1991906114ed565b92505b825f03610d3c576040516305112ab160e41b815260040160405180910390fd5b6001600160a01b0385161580610d5957506001600160a01b038416155b15610d7757604051630f58648f60e01b815260040160405180910390fd5b60408051600180825281830190925290816020015b60408051606080820183525f808352602083015291810191909152815260200190600190039081610d8c57905050604080516060810182526001600160a01b0380891682525f6020830181905283518e831660248201526044810189905291891660648301526084820187905260a4820152929850919082019060c40160408051601f198184030181529190526020810180516001600160e01b031663769f8e5d60e01b1790529052865187905f90610e4757610e476114ae565b60200260200101819052505050505050949350505050565b5f5f61080d836001610922565b5f6104a78260205b5f610e80826014611453565b83511015610ecd5760405162461bcd60e51b8152602060048201526015602482015274746f416464726573735f6f75744f66426f756e647360581b60448201526064015b60405180910390fd5b500160200151600160601b900490565b5f6104a782604861109d565b610ef3815f610977565b610efd815f610822565b50565b5f828281518110610f1357610f136114ae565b01602001516001600160f81b0319161515905092915050565b5f7f8ce092d4869bdfa1a1ce579ddddb2b776c39ace5d7b5d7e70e97ece2a78f4f9b82604051602001610f7b92919091825260601b6bffffffffffffffffffffffff1916602082015260340190565b604051602081830303815290604052805190602001209050919050565b6040516370a0823160e01b81526001600160a01b0383811660048301525f9160025c909116906370a0823190602401602060405180830381865afa158015610fe2573d5f5f3e3d5ffd5b505050506040513d601f19601f820116820180604052508101906104a491906114ed565b5f61101082610802565b90505f610418826001610922565b5f5f61102983610e6c565b6040516370a0823160e01b81526001600160a01b038681166004830152919250908216906370a0823190602401602060405180830381865afa158015611071573d5f5f3e3d5ffd5b505050506040513d601f19601f8201168201806040525081019061109591906114ed565b949350505050565b5f6110a9826020611453565b835110156110f15760405162461bcd60e51b8152602060048201526015602482015274746f55696e743235365f6f75744f66426f756e647360581b6044820152606401610ec4565b50016020015190565b80356001600160a01b0381168114611110575f5ffd5b919050565b5f5f83601f840112611125575f5ffd5b50813567ffffffffffffffff81111561113c575f5ffd5b602083019150836020828501011115611153575f5ffd5b9250929050565b5f5f5f5f6060858703121561116d575f5ffd5b611176856110fa565b9350611184602086016110fa565b9250604085013567ffffffffffffffff81111561119f575f5ffd5b6111ab87828801611115565b95989497509550505050565b5f602082840312156111c7575f5ffd5b6104a4826110fa565b5f5f604083850312156111e1575f5ffd5b823591506111f1602084016110fa565b90509250929050565b634e487b7160e01b5f52604160045260245ffd5b5f82601f83011261121d575f5ffd5b813567ffffffffffffffff811115611237576112376111fa565b604051601f8201601f19908116603f0116810167ffffffffffffffff81118282101715611266576112666111fa565b60405281815283820160200185101561127d575f5ffd5b816020850160208301375f918101602001919091529392505050565b5f5f604083850312156112aa575f5ffd5b823567ffffffffffffffff8111156112c0575f5ffd5b6112cc8582860161120e565b95602094909401359450505050565b5f81518084528060208401602086015e5f602082860101526020601f19601f83011685010191505092915050565b602081525f6104a460208301846112db565b5f602082016020835280845180835260408501915060408160051b8601019250602086015f5b8281101561139c57868503603f19018452815180516001600160a01b0316865260208082015190870152604090810151606091870182905290611386908701826112db565b9550506020938401939190910190600101611341565b50929695505050505050565b5f5f602083850312156113b9575f5ffd5b823567ffffffffffffffff8111156113cf575f5ffd5b6113db85828601611115565b90969095509350505050565b5f602082840312156113f7575f5ffd5b813567ffffffffffffffff81111561140d575f5ffd5b6110958482850161120e565b602081016003831061143957634e487b7160e01b5f52602160045260245ffd5b91905290565b634e487b7160e01b5f52601160045260245ffd5b808201808211156104a7576104a761143f565b6001600160a01b038581168252841660208201526060604082018190528101829052818360808301375f818301608090810191909152601f909201601f191601019392505050565b634e487b7160e01b5f52603260045260245ffd5b818103818111156104a7576104a761143f565b5f600182016114e6576114e661143f565b5060010190565b5f602082840312156114fd575f5ffd5b505191905056fea164736f6c634300081e000a","linkReferences":{}},"methodIdentifiers":{"asset()":"38d52e0f","build(address,address,bytes)":"3b5896bc","decodeAmount(bytes)":"ac440f72","decodeUsePrevHookAmount(bytes)":"e7745517","executionNonce()":"01bd43ef","getOutAmount(address)":"81cbe691","hookType()":"e445e7dd","inspect(bytes)":"8c4313c1","lastCaller()":"2113522a","postExecute(address,address,bytes)":"05b4fe91","postExecuteMutex()":"60b5be29","preExecute(address,address,bytes)":"2ae2fe3d","preExecuteMutex()":"84542a24","replaceCalldataAmount(bytes,uint256)":"3a28b0ab","resetExecutionState(address)":"d06a1e89","setExecutionContext(address)":"14cb37cf","setOutAmount(uint256,address)":"1f264619","spToken()":"8e148776","subType()":"cf0a6181","subtype()":"5492e677","usedShares()":"685a943c"},"id":354}