{"abi":[{"type":"function","name":"VALID_SIGNATURE","inputs":[],"outputs":[{"name":"","type":"bytes4","internalType":"bytes4"}],"stateMutability":"view"},{"type":"function","name":"getAccountOwner","inputs":[{"name":"account","type":"address","internalType":"address"}],"outputs":[{"name":"","type":"address","internalType":"address"}],"stateMutability":"view"},{"type":"function","name":"isInitialized","inputs":[{"name":"account","type":"address","internalType":"address"}],"outputs":[{"name":"","type":"bool","internalType":"bool"}],"stateMutability":"view"},{"type":"function","name":"isModuleType","inputs":[{"name":"typeID","type":"uint256","internalType":"uint256"}],"outputs":[{"name":"","type":"bool","internalType":"bool"}],"stateMutability":"pure"},{"type":"function","name":"isValidSignatureWithSender","inputs":[{"name":"","type":"address","internalType":"address"},{"name":"dataHash","type":"bytes32","internalType":"bytes32"},{"name":"data","type":"bytes","internalType":"bytes"}],"outputs":[{"name":"","type":"bytes4","internalType":"bytes4"}],"stateMutability":"view"},{"type":"function","name":"namespace","inputs":[],"outputs":[{"name":"","type":"string","internalType":"string"}],"stateMutability":"pure"},{"type":"function","name":"onInstall","inputs":[{"name":"data","type":"bytes","internalType":"bytes"}],"outputs":[],"stateMutability":"nonpayable"},{"type":"function","name":"onUninstall","inputs":[{"name":"","type":"bytes","internalType":"bytes"}],"outputs":[],"stateMutability":"nonpayable"},{"type":"function","name":"retrieveSignatureData","inputs":[{"name":"account","type":"address","internalType":"address"}],"outputs":[{"name":"","type":"bytes","internalType":"bytes"}],"stateMutability":"view"},{"type":"function","name":"validateUserOp","inputs":[{"name":"_userOp","type":"tuple","internalType":"struct PackedUserOperation","components":[{"name":"sender","type":"address","internalType":"address"},{"name":"nonce","type":"uint256","internalType":"uint256"},{"name":"initCode","type":"bytes","internalType":"bytes"},{"name":"callData","type":"bytes","internalType":"bytes"},{"name":"accountGasLimits","type":"bytes32","internalType":"bytes32"},{"name":"preVerificationGas","type":"uint256","internalType":"uint256"},{"name":"gasFees","type":"bytes32","internalType":"bytes32"},{"name":"paymasterAndData","type":"bytes","internalType":"bytes"},{"name":"signature","type":"bytes","internalType":"bytes"}]},{"name":"_userOpHash","type":"bytes32","internalType":"bytes32"}],"outputs":[{"name":"","type":"uint256","internalType":"ERC7579ValidatorBase.ValidationData"}],"stateMutability":"nonpayable"},{"type":"error","name":"ALREADY_INITIALIZED","inputs":[]},{"type":"error","name":"ECDSAInvalidSignature","inputs":[]},{"type":"error","name":"ECDSAInvalidSignatureLength","inputs":[{"name":"length","type":"uint256","internalType":"uint256"}]},{"type":"error","name":"ECDSAInvalidSignatureS","inputs":[{"name":"s","type":"bytes32","internalType":"bytes32"}]},{"type":"error","name":"INVALID_CHAIN_ID","inputs":[]},{"type":"error","name":"INVALID_DESTINATION_PROOF","inputs":[]},{"type":"error","name":"INVALID_PROOF","inputs":[]},{"type":"error","name":"INVALID_SENDER","inputs":[]},{"type":"error","name":"INVALID_USER_OP","inputs":[]},{"type":"error","name":"INVALID_USER_OP","inputs":[]},{"type":"error","name":"ModuleAlreadyInitialized","inputs":[{"name":"smartAccount","type":"address","internalType":"address"}]},{"type":"error","name":"NOT_EIP1271_SIGNER","inputs":[]},{"type":"error","name":"NOT_IMPLEMENTED","inputs":[]},{"type":"error","name":"NOT_INITIALIZED","inputs":[]},{"type":"error","name":"NotInitialized","inputs":[{"name":"smartAccount","type":"address","internalType":"address"}]},{"type":"error","name":"PROOF_NOT_FOUND","inputs":[]},{"type":"error","name":"ZERO_ADDRESS","inputs":[]}],"bytecode":{"object":"0x6080604052348015600e575f5ffd5b50611e098061001c5f395ff3fe608060405234801561000f575f5ffd5b506004361061009b575f3560e01c80638ee749ca116100635780638ee749ca1461013b5780639700320314610162578063d60b347f14610183578063ecd05961146101be578063f551e2ee146101d2575f5ffd5b80630f65bac51461009f578063442b172c146100c85780636d61fe701461010b5780637c015a89146101205780638a91b0e314610128575b5f5ffd5b6100b26100ad36600461149e565b6101e5565b6040516100bf91906114e7565b60405180910390f35b6100f36100d636600461149e565b6001600160a01b039081165f908152600160205260409020541690565b6040516001600160a01b0390911681526020016100bf565b61011e61011936600461153d565b610201565b005b6100b26102ac565b61011e61013636600461153d565b6102de565b610149630b135d3f60e11b81565b6040516001600160e01b031990911681526020016100bf565b61017561017036600461157b565b61033d565b6040519081526020016100bf565b6101ae61019136600461149e565b6001600160a01b03165f9081526020819052604090205460ff1690565b60405190151581526020016100bf565b6101ae6101cc3660046115c1565b60011490565b6101496101e03660046115d8565b6105d1565b60606001600160a01b0382166101fa81610698565b9392505050565b335f9081526020819052604090205460ff16156102315760405163439a74c960e01b815260040160405180910390fd5b5f61023e8284018461149e565b90506001600160a01b0381166102675760405163538ba4f960e01b815260040160405180910390fd5b335f908152602081815260408083208054600160ff199091168117909155909152902080546001600160a01b0319166001600160a01b03929092169190911790555050565b60606102d960408051808201909152600e81526d29bab832b92b30b634b230ba37b960911b602082015290565b905090565b335f9081526020819052604090205460ff1661030d57604051630f68fe6360e21b815260040160405180910390fd5b5050335f90815260208181526040808320805460ff191690556001909152902080546001600160a01b0319169055565b5f61037761034e602085018561149e565b6001600160a01b0316803b806020016040519081016040528181525f908060200190933c610721565b1580156103ac57505f8061038e602086018661149e565b6001600160a01b0316815260208101919091526040015f205460ff16155b156103ca57604051630f68fe6360e21b815260040160405180910390fd5b5f6104156103dc61010086018661162f565b8080601f0160208091040260200160405190810160405280939291908181526020018383808284375f9201919091525061074292505050565b90505f61042f610428602087018761149e565b83866107dc565b5090505f61044e82610444602089018961149e565b85602001516108d3565b905080801561045b575082515b156105b5576080830151515f819003610487576040516302dcc9d960e11b815260040160405180910390fd5b5f5b8181101561057f575f856080015182815181106104a8576104a8611671565b602002602001015190505f6040518060c00160405280836040015160a00151815260200183602001516001600160401b0316815260200183604001515f01516001600160a01b031681526020018360400151602001516001600160a01b03168152602001836040015160400151815260200183604001516060015181525090505f61054082896020015185604001516080015161097d565b9050610554835f01518960400151836109ec565b610571576040516302dcc9d960e11b815260040160405180910390fd5b505050806001019050610489565b505f61058e602089018961149e565b6001600160a01b031690506105b26105aa6101008a018a61162f565b839190610a01565b50505b6105c5811584602001515f610a66565b93505050505b92915050565b5f6105ff336001600160a01b0316803b806020016040519081016040528181525f908060200190933c610721565b15801561061b5750335f9081526020819052604090205460ff16155b1561063957604051630f68fe6360e21b815260040160405180910390fd5b5f61064683850185611739565b90505f61065282610742565b90505f6106603383896107dc565b5090505f610673823385602001516108d3565b905080610680575f610689565b630b135d3f60e11b5b9450505050505b949350505050565b60605f6106a483610a72565b9050805c806001600160401b038111156106c0576106c0611685565b6040519080825280601f01601f1916602001820160405280156106ea576020820181803683370190505b5092505f5b8181101561071957602081810181900484015c85830182015261071290826117c6565b90506106ef565b505050919050565b5f61ef0160f01b610731836117d9565b6001600160e81b0319161492915050565b6107826040518060c001604052805f151581526020015f65ffffffffffff1681526020015f81526020016060815260200160608152602001606081525090565b5f5f5f5f5f5f8780602001905181019061079c9190611b2f565b6040805160c081018252961515875265ffffffffffff9095166020870152938501929092526060840152608083015260a082015298975050505050505050565b5f5f610810836040516020016107f491815260200190565b60408051601f1981840301815291905260208601518651610ac5565b905061082584606001518560400151836109ec565b6108425760405163712eb08760e01b815260040160405180910390fd5b61086f856001600160a01b0316803b806020016040519081016040528181525f908060200190933c610721565b156108845761087d84610b47565b91506108cb565b6001600160a01b038086165f90815260016020526040902054166108a781610b96565b156108bd576108b68186610c94565b92506108c9565b6108c685610b47565b92505b505b935093915050565b5f8065ffffffffffff831615806108f25750428365ffffffffffff1610155b9050610921846001600160a01b0316803b806020016040519081016040528181525f908060200190933c610721565b1561094c57836001600160a01b0316856001600160a01b03161480156109445750805b9150506101fa565b6001600160a01b038085165f9081526001602052604090205486821691161480156109745750805b95945050505050565b82516020808501516040808701516060880151608089015160a08a015193515f976109b097909695918b918b9101611c24565b60408051601f19818403018152828252805160209182012090830152016040516020818303038152906040528051906020012090509392505050565b5f826109f88584610d81565b14949350505050565b5f610a0b84610a72565b9050805c8015610a2e5760405163a9bd11f360e01b815260040160405180910390fd5b8280835d5f5b81811015610a5d57858101358060208084010486015d50610a566020826117c6565b9050610a34565b50505050505050565b5f610690848484610dc3565b604080517f10f373395e5c9f816ee3fda0a2b50417c869ccbb40eb3cb5bb0a96939cc2618d60208201529081018290525f906060015b604051602081830303815290604052805190602001209050919050565b5f5f84806020019051810190610adb9190611ce8565b604080516020810183905265ffffffffffff871691810191909152841515606082015230608082015290915060a00160408051601f1981840301815282825280516020918201209083015201604051602081830303815290604052805190602001209150509392505050565b5f5f610b568360400151610df9565b7f19457468657265756d205369676e6564204d6573736167653a0a3332000000005f908152601c829052603c812091925050610690818560a00151610e14565b5f816001600160a01b03163b5f03610baf57505f919050565b604080515f6020820181905260348201819052825160158184030181526035830190935290630b135d3f60e11b90610bed9083908590605901611cff565b604051602081830303815290604052906001600160e01b0319166020820180516001600160e01b03838183161783525050505090505f5f856001600160a01b031683604051610c3c9190611d17565b5f60405180830381855afa9150503d805f8114610c74576040519150601f19603f3d011682016040523d82523d5f602084013e610c79565b606091505b50915091508180610c8a57505f8151115b9695505050505050565b5f610cb782610ca68460400151610df9565b6001600160a01b0386169190610e3c565b15610cc35750816105cb565b5f610cd18360400151610df9565b60a0840151604051630b135d3f60e11b81529192506001600160a01b03861691631626ba7e91610d0691859190600401611cff565b602060405180830381865afa925050508015610d3f575060408051601f3d908101601f19168201909252610d3c91810190611d2d565b60015b15610d68576374eca2c160e11b6001600160e01b0319821601610d665784925050506105cb565b505b6040516331d42a1b60e21b815260040160405180910390fd5b5f81815b8451811015610dbb57610db182868381518110610da457610da4611671565b60200260200101516110bd565b9150600101610d85565b509392505050565b5f60d08265ffffffffffff16901b60a08465ffffffffffff16901b85610de9575f610dec565b60015b60ff161717949350505050565b5f610e026102ac565b82604051602001610aa8929190611d54565b5f5f5f5f610e2286866110e6565b925092509250610e32828261112f565b5090949350505050565b5f60605f856001600160a01b031663a0e67e2b6040518163ffffffff1660e01b81526004015f60405180830381865afa925050508015610e9d57506040513d5f823e601f3d908101601f19168201604052610e9a9190810190611d75565b60015b610eab575f925050506101fa565b9150856001600160a01b031663e75235b86040518163ffffffff1660e01b8152600401602060405180830381865afa925050508015610f07575060408051601f3d908101601f19168201909252610f0491810190611ce8565b60015b610f15575f925050506101fa565b604080518082018252600d81526c5375706572666f726d5361666560981b6020918201528151808301835260058152640312e302e360dc1b9082015281517f8b73c3c69bb8fe3d512ecc4cf759cc79239f7b179b0ffacaa9a75d522b39400f818301527fe2c6934fb785b5f60008275f0609066361e48bc175bda8e1160d2680b4c1849d818401527f06c015bd22b4c69690933c1058878ebdfef31f9aaae40bbe86d8a09fe1b2972c6060820152600160808201526001600160a01b038a1660a08083019190915283518083038201815260c08301855280519084012060e08084018b905285518085039091018152610100840186528051908501207f60b3cbf8b4a223d68d641b3b6ddf9a298e7f33710cf3d3a9d1146b5a6150fbca610120850152610140808501919091528551808503909101815261016084018652805190850120601960f81b610180850152600160f81b61018185015261018284018290526101a280850191909152855180850390910181526101c2909301909452815191909201209088015192935090916110b190829086866111f0565b98975050505050505050565b5f8183106110d7575f8281526020849052604090206101fa565b505f9182526020526040902090565b5f5f5f835160410361111d576020840151604085015160608601515f1a61110f88828585611366565b955095509550505050611128565b505081515f91506002905b9250925092565b5f82600381111561114257611142611da6565b0361114b575050565b600182600381111561115f5761115f611da6565b0361117d5760405163f645eedf60e01b815260040160405180910390fd5b600282600381111561119157611191611da6565b036111b75760405163fce698f760e01b8152600481018290526024015b60405180910390fd5b60038260038111156111cb576111cb611da6565b036111ec576040516335e2f38360e21b8152600481018290526024016111ae565b5050565b5f8115806111fd57508251155b1561120957505f610690565b611214826041611dba565b8451101561122357505f610690565b83516014905f90611235908390611dd1565b9050611242846041611dba565b811015611253575f92505050610690565b5f80805b86811015611357575f61126b826041611dba565b6112769060146117c6565b8a519091506112868260416117c6565b111561129a575f9650505050505050610690565b604080516041808252608082019092525f916020820181803683370190505090508160208c010160208201815181526020820151602082015260408201515f1a604082015350506020810151806112f35750505061134f565b5f6112fe8e84610e14565b905061130a818d61142e565b1561134a57866001600160a01b0316816001600160a01b031611611339575f9950505050505050505050610690565b8561134381611de4565b9650508096505b505050505b600101611257565b50909414979650505050505050565b5f80807f7fffffffffffffffffffffffffffffff5d576e7357a4501ddfe92f46681b20a084111561139f57505f91506003905082611424565b604080515f808252602082018084528a905260ff891692820192909252606081018790526080810186905260019060a0016020604051602081039080840390855afa1580156113f0573d5f5f3e3d5ffd5b5050604051601f1901519150506001600160a01b03811661141b57505f925060019150829050611424565b92505f91508190505b9450945094915050565b5f805b825181101561147e57836001600160a01b031683828151811061145657611456611671565b60200260200101516001600160a01b0316036114765760019150506105cb565b600101611431565b505f9392505050565b6001600160a01b038116811461149b575f5ffd5b50565b5f602082840312156114ae575f5ffd5b81356101fa81611487565b5f81518084528060208401602086015e5f602082860101526020601f19601f83011685010191505092915050565b602081525f6101fa60208301846114b9565b5f5f83601f840112611509575f5ffd5b5081356001600160401b0381111561151f575f5ffd5b602083019150836020828501011115611536575f5ffd5b9250929050565b5f5f6020838503121561154e575f5ffd5b82356001600160401b03811115611563575f5ffd5b61156f858286016114f9565b90969095509350505050565b5f5f6040838503121561158c575f5ffd5b82356001600160401b038111156115a1575f5ffd5b830161012081860312156115b3575f5ffd5b946020939093013593505050565b5f602082840312156115d1575f5ffd5b5035919050565b5f5f5f5f606085870312156115eb575f5ffd5b84356115f681611487565b93506020850135925060408501356001600160401b03811115611617575f5ffd5b611623878288016114f9565b95989497509550505050565b5f5f8335601e19843603018112611644575f5ffd5b8301803591506001600160401b0382111561165d575f5ffd5b602001915036819003821315611536575f5ffd5b634e487b7160e01b5f52603260045260245ffd5b634e487b7160e01b5f52604160045260245ffd5b604051606081016001600160401b03811182821017156116bb576116bb611685565b60405290565b60405160c081016001600160401b03811182821017156116bb576116bb611685565b604051601f8201601f191681016001600160401b038111828210171561170b5761170b611685565b604052919050565b5f6001600160401b0382111561172b5761172b611685565b50601f01601f191660200190565b5f60208284031215611749575f5ffd5b81356001600160401b0381111561175e575f5ffd5b8201601f8101841361176e575f5ffd5b803561178161177c82611713565b6116e3565b818152856020838501011115611795575f5ffd5b816020840160208301375f91810160200191909152949350505050565b634e487b7160e01b5f52601160045260245ffd5b808201808211156105cb576105cb6117b2565b805160208201516001600160e81b031981169190600382101561180f576001600160e81b03196003838103901b81901b82161692505b5050919050565b805165ffffffffffff8116811461182b575f5ffd5b919050565b5f6001600160401b0382111561184857611848611685565b5060051b60200190565b5f82601f830112611861575f5ffd5b815161186f61177c82611830565b8082825260208201915060208360051b860101925085831115611890575f5ffd5b602085015b838110156118ad578051835260209283019201611895565b5095945050505050565b805161182b81611487565b5f82601f8301126118d1575f5ffd5b81516118df61177c82611830565b8082825260208201915060208360051b860101925085831115611900575f5ffd5b602085015b838110156118ad57805161191881611487565b835260209283019201611905565b5f82601f830112611935575f5ffd5b815161194361177c82611713565b818152846020838601011115611957575f5ffd5b8160208501602083015e5f918101602001919091529392505050565b5f82601f830112611982575f5ffd5b815161199061177c82611830565b8082825260208201915060208360051b8601019250858311156119b1575f5ffd5b602085015b838110156118ad5780516001600160401b038111156119d3575f5ffd5b86016060818903601f190112156119e8575f5ffd5b6119f0611699565b60208201516001600160401b03811115611a08575f5ffd5b611a178a602083860101611852565b82525060408201516001600160401b0381168114611a33575f5ffd5b602082015260608201516001600160401b03811115611a50575f5ffd5b60208184010192505060c0828a031215611a68575f5ffd5b611a706116c1565b611a79836118b7565b8152611a87602084016118b7565b602082015260408301516001600160401b03811115611aa4575f5ffd5b611ab08b8286016118c2565b60408301525060608301516001600160401b03811115611ace575f5ffd5b611ada8b828601611852565b606083015250611aec608084016118b7565b608082015260a08301516001600160401b03811115611b09575f5ffd5b611b158b828601611926565b60a0830152506040820152845250602092830192016119b6565b5f5f5f5f5f5f60c08789031215611b44575f5ffd5b86518015158114611b53575f5ffd5b9550611b6160208801611816565b6040880151606089015191965094506001600160401b03811115611b83575f5ffd5b611b8f89828a01611852565b93505060808701516001600160401b03811115611baa575f5ffd5b611bb689828a01611973565b92505060a08701516001600160401b03811115611bd1575f5ffd5b611bdd89828a01611926565b9150509295509295509295565b5f8151808452602084019350602083015f5b82811015611c1a578151865260209586019590910190600101611bfc565b5093949350505050565b61010081525f611c3861010083018b6114b9565b6001600160401b038a166020848101919091526001600160a01b038a81166040860152891660608501528382036080850152875180835288820192909101905f5b81811015611ca05783516001600160a01b0316835260209384019390920191600101611c79565b505083810360a0850152611cb48188611bea565b92505050611ccc60c083018565ffffffffffff169052565b6001600160a01b03831660e08301529998505050505050505050565b5f60208284031215611cf8575f5ffd5b5051919050565b828152604060208201525f61069060408301846114b9565b5f82518060208501845e5f920191825250919050565b5f60208284031215611d3d575f5ffd5b81516001600160e01b0319811681146101fa575f5ffd5b604081525f611d6660408301856114b9565b90508260208301529392505050565b5f60208284031215611d85575f5ffd5b81516001600160401b03811115611d9a575f5ffd5b610690848285016118c2565b634e487b7160e01b5f52602160045260245ffd5b80820281158282048414176105cb576105cb6117b2565b818103818111156105cb576105cb6117b2565b5f60018201611df557611df56117b2565b506001019056fea164736f6c634300081e000a","linkReferences":{}},"methodIdentifiers":{"VALID_SIGNATURE()":"8ee749ca","getAccountOwner(address)":"442b172c","isInitialized(address)":"d60b347f","isModuleType(uint256)":"ecd05961","isValidSignatureWithSender(address,bytes32,bytes)":"f551e2ee","namespace()":"7c015a89","onInstall(bytes)":"6d61fe70","onUninstall(bytes)":"8a91b0e3","retrieveSignatureData(address)":"0f65bac5","validateUserOp((address,uint256,bytes,bytes,bytes32,uint256,bytes32,bytes,bytes),bytes32)":"97003203"},"id":606}