{"abi":[{"type":"constructor","inputs":[{"name":"ledgerConfiguration_","type":"address","internalType":"address"},{"name":"allowedExecutors_","type":"address[]","internalType":"address[]"}],"stateMutability":"nonpayable"},{"type":"function","name":"allowedExecutors","inputs":[{"name":"executor","type":"address","internalType":"address"}],"outputs":[{"name":"isAllowed","type":"bool","internalType":"bool"}],"stateMutability":"view"},{"type":"function","name":"calculateCostBasisView","inputs":[{"name":"user","type":"address","internalType":"address"},{"name":"yieldSource","type":"address","internalType":"address"},{"name":"usedShares","type":"uint256","internalType":"uint256"}],"outputs":[{"name":"costBasis","type":"uint256","internalType":"uint256"},{"name":"shares","type":"uint256","internalType":"uint256"}],"stateMutability":"view"},{"type":"function","name":"previewFees","inputs":[{"name":"user","type":"address","internalType":"address"},{"name":"yieldSourceAddress","type":"address","internalType":"address"},{"name":"amountAssets","type":"uint256","internalType":"uint256"},{"name":"usedShares","type":"uint256","internalType":"uint256"},{"name":"feePercent","type":"uint256","internalType":"uint256"}],"outputs":[{"name":"feeAmount","type":"uint256","internalType":"uint256"}],"stateMutability":"view"},{"type":"function","name":"superLedgerConfiguration","inputs":[],"outputs":[{"name":"","type":"address","internalType":"contract SuperLedgerConfiguration"}],"stateMutability":"view"},{"type":"function","name":"updateAccounting","inputs":[{"name":"user","type":"address","internalType":"address"},{"name":"yieldSource","type":"address","internalType":"address"},{"name":"yieldSourceOracleId","type":"bytes32","internalType":"bytes32"},{"name":"isInflow","type":"bool","internalType":"bool"},{"name":"amountSharesOrAssets","type":"uint256","internalType":"uint256"},{"name":"usedShares","type":"uint256","internalType":"uint256"}],"outputs":[{"name":"feeAmount","type":"uint256","internalType":"uint256"}],"stateMutability":"nonpayable"},{"type":"function","name":"usersAccumulatorCostBasis","inputs":[{"name":"user","type":"address","internalType":"address"},{"name":"yieldSource","type":"address","internalType":"address"}],"outputs":[{"name":"costBasis","type":"uint256","internalType":"uint256"}],"stateMutability":"view"},{"type":"function","name":"usersAccumulatorShares","inputs":[{"name":"user","type":"address","internalType":"address"},{"name":"yieldSource","type":"address","internalType":"address"}],"outputs":[{"name":"shares","type":"uint256","internalType":"uint256"}],"stateMutability":"view"},{"type":"event","name":"AccountingInflow","inputs":[{"name":"user","type":"address","indexed":true,"internalType":"address"},{"name":"yieldSourceOracle","type":"address","indexed":true,"internalType":"address"},{"name":"yieldSource","type":"address","indexed":true,"internalType":"address"},{"name":"amount","type":"uint256","indexed":false,"internalType":"uint256"},{"name":"pps","type":"uint256","indexed":false,"internalType":"uint256"}],"anonymous":false},{"type":"event","name":"AccountingOutflow","inputs":[{"name":"user","type":"address","indexed":true,"internalType":"address"},{"name":"yieldSourceOracle","type":"address","indexed":true,"internalType":"address"},{"name":"yieldSource","type":"address","indexed":true,"internalType":"address"},{"name":"amount","type":"uint256","indexed":false,"internalType":"uint256"},{"name":"feeAmount","type":"uint256","indexed":false,"internalType":"uint256"}],"anonymous":false},{"type":"event","name":"UsedSharesCapped","inputs":[{"name":"originalVal","type":"uint256","indexed":false,"internalType":"uint256"},{"name":"cappedVal","type":"uint256","indexed":false,"internalType":"uint256"}],"anonymous":false},{"type":"error","name":"FEE_NOT_SET","inputs":[]},{"type":"error","name":"HOOK_NOT_FOUND","inputs":[]},{"type":"error","name":"INVALID_FEE_PERCENT","inputs":[]},{"type":"error","name":"INVALID_LEDGER","inputs":[]},{"type":"error","name":"INVALID_PRICE","inputs":[]},{"type":"error","name":"MANAGER_NOT_SET","inputs":[]},{"type":"error","name":"NOT_AUTHORIZED","inputs":[]},{"type":"error","name":"NOT_MANAGER","inputs":[]},{"type":"error","name":"ZERO_ADDRESS_NOT_ALLOWED","inputs":[]},{"type":"error","name":"ZERO_ID_NOT_ALLOWED","inputs":[]},{"type":"error","name":"ZERO_LENGTH","inputs":[]}],"bytecode":{"object":"0x60a060405234801561000f575f5ffd5b50604051610e26380380610e2683398101604081905261002e916100fa565b81816001600160a01b03821661005757604051636fe7b73760e01b815260040160405180910390fd5b6001600160a01b03821660805280515f5b818110156100c057600160025f858481518110610087576100876101d8565b6020908102919091018101516001600160a01b031682528101919091526040015f20805460ff1916911515919091179055600101610068565b5050505050506101ec565b80516001600160a01b03811681146100e1575f5ffd5b919050565b634e487b7160e01b5f52604160045260245ffd5b5f5f6040838503121561010b575f5ffd5b610114836100cb565b60208401519092506001600160401b0381111561012f575f5ffd5b8301601f8101851361013f575f5ffd5b80516001600160401b03811115610158576101586100e6565b604051600582901b90603f8201601f191681016001600160401b0381118282101715610186576101866100e6565b6040529182526020818401810192908101888411156101a3575f5ffd5b6020850194505b838510156101c9576101bb856100cb565b8152602094850194016101aa565b50809450505050509250929050565b634e487b7160e01b5f52603260045260245ffd5b608051610c1b61020b5f395f818161010201526103a20152610c1b5ff3fe608060405234801561000f575f5ffd5b506004361061007a575f3560e01c8063825e9ec711610058578063825e9ec7146100fd578063e4367cd31461013c578063e70833d314610164578063fd8cd53f1461018e575f5ffd5b80632c119fca1461007e57806337cb6736146100b857806349b1df7b146100ea575b5f5ffd5b6100a561008c3660046108b0565b5f60208181529281526040808220909352908152205481565b6040519081526020015b60405180910390f35b6100da6100c63660046108e7565b60026020525f908152604090205460ff1681565b60405190151581526020016100af565b6100a56100f8366004610902565b6101a1565b6101247f000000000000000000000000000000000000000000000000000000000000000081565b6040516001600160a01b0390911681526020016100af565b61014f61014a36600461094f565b6101c7565b604080519283526020830191909152016100af565b6100a56101723660046108b0565b600160209081525f928352604080842090915290825290205481565b6100a561019c36600461098d565b610235565b5f5f6101ae8787866101c7565b5090506101bc818685610251565b979650505050505050565b6001600160a01b038084165f8181526020818152604080832094871680845294825280832054938352600182528083209483529390529182205482919081851115610210578194505b5f851161021d575f610228565b6102288186846102aa565b9794965093945050505050565b5f61024487878787878761035b565b90505b9695505050505050565b5f5f848411610260575f61026a565b61026a8585610a06565b905080156102a257825f0361029257604051632e069cd360e01b815260040160405180910390fd5b61029f81846127106102aa565b91505b509392505050565b5f5f5f6102b786866106d8565b91509150815f036102db578381816102d1576102d1610a1f565b0492505050610354565b8184116102f2576102f260038515026011186106f4565b5f848688095f868103871696879004966002600389028118808a02820302808a02820302808a02820302808a02820302808a02820302808a02909103029181900381900460010185841190960395909502919093039390930492909217029150505b9392505050565b335f9081526002602052604081205460ff1661038a57604051633d83866f60e01b815260040160405180910390fd5b604051630b47673760e41b8152600481018690525f907f00000000000000000000000000000000000000000000000000000000000000006001600160a01b03169063b47673709060240160a060405180830381865afa1580156103ef573d5f5f3e3d5ffd5b505050506040513d601f19601f820116820180604052508101906104139190610a43565b60608101519091506001600160a01b031661044157604051638077659960e01b815260040160405180910390fd5b60808101516001600160a01b0316301461046e57604051632a076cc160e11b815260040160405180910390fd5b805160405163ec422afd60e01b81526001600160a01b0389811660048301525f92169063ec422afd90602401602060405180830381865afa1580156104b5573d5f5f3e3d5ffd5b505050506040513d601f19601f820116820180604052508101906104d99190610ad6565b9050805f036104fb576040516325f9ce5d60e11b815260040160405180910390fd5b85156105d2578151604051636a24d41960e11b81526001600160a01b03808b16600483015261057f928c9289928d92879291169063d449a83290602401602060405180830381865afa158015610553573d5f5f3e3d5ffd5b505050506040513d601f19601f820116820180604052508101906105779190610aed565b60ff16610705565b815160408051878152602081018490526001600160a01b03808c1693811692908d16917f0739bc8e7ea8aa32e4aed717e94d5448d6c652c3d2c346961880a6878b9a2247910160405180910390a46106cc565b8151604051636a24d41960e11b81526001600160a01b038a811660048301525f926106509289928992879291169063d449a83290602401602060405180830381865afa158015610624573d5f5f3e3d5ffd5b505050506040513d601f19601f820116820180604052508101906106489190610aed565b509192915050565b905061065f8a8a838887610796565b9350886001600160a01b0316835f01516001600160a01b03168b6001600160a01b03167fc1eb34142f486694077c8fe62a1e5ea0af28fa50ecb14190c84a7f60ffbb05fd89886040516106bc929190918252602082015260400190565b60405180910390a4505050610247565b50509695505050505050565b5f805f1983850993909202808410938190039390930393915050565b634e487b715f52806020526024601cfd5b6001600160a01b038086165f9081526020818152604080832093871683529290529081208054869290610739908490610b0d565b909155506107549050848361074f84600a610c03565b6102aa565b6001600160a01b038087165f9081526001602090815260408083209388168352929052908120805490919061078a908490610b0d565b90915550505050505050565b5f5f6107a38787866107c9565b6020840151909150156107bf576101bc81868560200151610251565b5095945050505050565b5f5f6107d68585856101c7565b909250905082811461081c5760408051848152602081018390527fcbf6e1ecca8662a52fbda88e401671949eb8ef33066b8afbc19ecca7f127b22d910160405180910390a15b6001600160a01b038086165f9081526020818152604080832093881683529290529081208054839290610850908490610a06565b90915550506001600160a01b038086165f9081526001602090815260408083209388168352929052908120805484929061088b908490610a06565b909155509195945050505050565b6001600160a01b03811681146108ad575f5ffd5b50565b5f5f604083850312156108c1575f5ffd5b82356108cc81610899565b915060208301356108dc81610899565b809150509250929050565b5f602082840312156108f7575f5ffd5b813561035481610899565b5f5f5f5f5f60a08688031215610916575f5ffd5b853561092181610899565b9450602086013561093181610899565b94979496505050506040830135926060810135926080909101359150565b5f5f5f60608486031215610961575f5ffd5b833561096c81610899565b9250602084013561097c81610899565b929592945050506040919091013590565b5f5f5f5f5f5f60c087890312156109a2575f5ffd5b86356109ad81610899565b955060208701356109bd81610899565b945060408701359350606087013580151581146109d8575f5ffd5b9598949750929560808101359460a0909101359350915050565b634e487b7160e01b5f52601160045260245ffd5b81810381811115610a1957610a196109f2565b92915050565b634e487b7160e01b5f52601260045260245ffd5b8051610a3e81610899565b919050565b5f60a0828403128015610a54575f5ffd5b5060405160a0810167ffffffffffffffff81118282101715610a8457634e487b7160e01b5f52604160045260245ffd5b604052610a9083610a33565b815260208381015190820152610aa860408401610a33565b6040820152610ab960608401610a33565b6060820152610aca60808401610a33565b60808201529392505050565b5f60208284031215610ae6575f5ffd5b5051919050565b5f60208284031215610afd575f5ffd5b815160ff81168114610354575f5ffd5b80820180821115610a1957610a196109f2565b6001815b6001841115610b5b57808504811115610b3f57610b3f6109f2565b6001841615610b4d57908102905b60019390931c928002610b24565b935093915050565b5f82610b7157506001610a19565b81610b7d57505f610a19565b8160018114610b935760028114610b9d57610bb9565b6001915050610a19565b60ff841115610bae57610bae6109f2565b50506001821b610a19565b5060208310610133831016604e8410600b8410161715610bdc575081810a610a19565b610be85f198484610b20565b805f1904821115610bfb57610bfb6109f2565b029392505050565b5f6103548383610b6356fea164736f6c634300081e000a","linkReferences":{}},"methodIdentifiers":{"allowedExecutors(address)":"37cb6736","calculateCostBasisView(address,address,uint256)":"e4367cd3","previewFees(address,address,uint256,uint256,uint256)":"49b1df7b","superLedgerConfiguration()":"825e9ec7","updateAccounting(address,address,bytes32,bool,uint256,uint256)":"fd8cd53f","usersAccumulatorCostBasis(address,address)":"e70833d3","usersAccumulatorShares(address,address)":"2c119fca"},"id":325}