{"abi":[{"type":"function","name":"getPricePerShareMultiple","inputs":[{"name":"yieldSourceAddresses","type":"address[]","internalType":"address[]"},{"name":"yieldSourceOracles","type":"address[]","internalType":"address[]"}],"outputs":[{"name":"pricesPerShare","type":"uint256[]","internalType":"uint256[]"}],"stateMutability":"view"},{"type":"function","name":"getPricePerShareMultipleQuote","inputs":[{"name":"yieldSourceAddresses","type":"address[]","internalType":"address[]"},{"name":"yieldSourceOracles","type":"address[]","internalType":"address[]"},{"name":"baseAddresses","type":"address[]","internalType":"address[]"},{"name":"quoteAddresses","type":"address[]","internalType":"address[]"},{"name":"oracles","type":"address[]","internalType":"address[]"}],"outputs":[{"name":"pricesPerShareQuote","type":"uint256[]","internalType":"uint256[]"}],"stateMutability":"view"},{"type":"function","name":"getPricePerShareQuote","inputs":[{"name":"yieldSourceAddress","type":"address","internalType":"address"},{"name":"yieldSourceOracle","type":"address","internalType":"address"},{"name":"base","type":"address","internalType":"address"},{"name":"quote","type":"address","internalType":"address"},{"name":"oracle","type":"address","internalType":"address"}],"outputs":[{"name":"pricePerShareQuote","type":"uint256","internalType":"uint256"}],"stateMutability":"view"},{"type":"function","name":"getTVLByOwnerOfSharesMultiple","inputs":[{"name":"yieldSourceAddresses","type":"address[]","internalType":"address[]"},{"name":"yieldSourceOracles","type":"address[]","internalType":"address[]"},{"name":"ownersOfShares","type":"address[]","internalType":"address[]"}],"outputs":[{"name":"userTvls","type":"uint256[]","internalType":"uint256[]"}],"stateMutability":"view"},{"type":"function","name":"getTVLByOwnerOfSharesMultipleQuote","inputs":[{"name":"yieldSourceAddresses","type":"address[]","internalType":"address[]"},{"name":"yieldSourceOracles","type":"address[]","internalType":"address[]"},{"name":"ownersOfShares","type":"address[][]","internalType":"address[][]"},{"name":"baseAddresses","type":"address[]","internalType":"address[]"},{"name":"quoteAddresses","type":"address[]","internalType":"address[]"},{"name":"oracles","type":"address[]","internalType":"address[]"}],"outputs":[{"name":"userTvlsQuote","type":"uint256[][]","internalType":"uint256[][]"},{"name":"totalTvlsQuote","type":"uint256[]","internalType":"uint256[]"}],"stateMutability":"view"},{"type":"function","name":"getTVLByOwnerOfSharesQuote","inputs":[{"name":"yieldSourceAddress","type":"address","internalType":"address"},{"name":"yieldSourceOracle","type":"address","internalType":"address"},{"name":"ownerOfShares","type":"address","internalType":"address"},{"name":"base","type":"address","internalType":"address"},{"name":"quote","type":"address","internalType":"address"},{"name":"oracle","type":"address","internalType":"address"}],"outputs":[{"name":"tvlQuote","type":"uint256","internalType":"uint256"}],"stateMutability":"view"},{"type":"function","name":"getTVLMultiple","inputs":[{"name":"yieldSourceAddresses","type":"address[]","internalType":"address[]"},{"name":"yieldSourceOracles","type":"address[]","internalType":"address[]"}],"outputs":[{"name":"tvls","type":"uint256[]","internalType":"uint256[]"}],"stateMutability":"view"},{"type":"function","name":"getTVLMultipleQuote","inputs":[{"name":"yieldSourceAddresses","type":"address[]","internalType":"address[]"},{"name":"yieldSourceOracles","type":"address[]","internalType":"address[]"},{"name":"baseAddresses","type":"address[]","internalType":"address[]"},{"name":"quoteAddresses","type":"address[]","internalType":"address[]"},{"name":"oracles","type":"address[]","internalType":"address[]"}],"outputs":[{"name":"tvlsQuote","type":"uint256[]","internalType":"uint256[]"}],"stateMutability":"view"},{"type":"function","name":"getTVLQuote","inputs":[{"name":"yieldSourceAddress","type":"address","internalType":"address"},{"name":"yieldSourceOracle","type":"address","internalType":"address"},{"name":"base","type":"address","internalType":"address"},{"name":"quote","type":"address","internalType":"address"},{"name":"oracle","type":"address","internalType":"address"}],"outputs":[{"name":"tvlQuote","type":"uint256","internalType":"uint256"}],"stateMutability":"view"},{"type":"error","name":"ARRAY_LENGTH_MISMATCH","inputs":[]}],"bytecode":{"object":"0x6080604052348015600e575f5ffd5b506115fe8061001c5f395ff3fe608060405234801561000f575f5ffd5b5060043610610090575f3560e01c80637b9efab7116100635780637b9efab71461011257806390df098d14610125578063a36cdfb514610138578063cc84c43c1461014b578063d49917c61461015e575f5ffd5b8063266f3aa5146100945780632a3e703b146100bd5780634a55f4de146100de57806366a6749f146100ff575b5f5ffd5b6100a76100a236600461106f565b610171565b6040516100b49190611134565b60405180910390f35b6100d06100cb3660046111cb565b6102bf565b6040516100b49291906112d1565b6100f16100ec366004611370565b6106d8565b6040519081526020016100b4565b6100a761010d3660046113e0565b6107ca565b6100f1610120366004611443565b6108f6565b6100a76101333660046114a4565b6109e0565b6100a76101463660046114a4565b610c09565b6100f1610159366004611443565b610e27565b6100a761016c3660046113e0565b610e59565b8251606090806001600160401b0381111561018e5761018e610f7d565b6040519080825280602002602001820160405280156101b7578160200160208202803683370190505b5091505f5b818110156102b6578481815181106101d6576101d6611582565b60200260200101516001600160a01b0316634fecb2668783815181106101fe576101fe611582565b602002602001015186848151811061021857610218611582565b60200260200101516040518363ffffffff1660e01b81526004016102529291906001600160a01b0392831681529116602082015260400190565b602060405180830381865afa15801561026d573d5f5f3e3d5ffd5b505050506040513d601f19601f820116820180604052508101906102919190611596565b8382815181106102a3576102a3611582565b60209081029190910101526001016101bc565b50509392505050565b6060806103056040518060e001604052805f81526020015f6001600160a01b03168152602001606081526020015f81526020015f81526020015f81526020015f81525090565b8851808252875114158061031b57508551815114155b8061032857508451815114155b8061033557508751815114155b1561035357604051634456f5e960e11b815260040160405180910390fd5b80516001600160401b0381111561036c5761036c610f7d565b60405190808252806020026020018201604052801561039f57816020015b606081526020019060019003908161038a5790505b5081519093506001600160401b038111156103bc576103bc610f7d565b6040519080825280602002602001820160405280156103e5578160200160208202803683370190505b5091505f5b81518110156106cb5789818151811061040557610405611582565b6020908102919091018101516001600160a01b031690830152875188908290811061043257610432611582565b60209081029190910101516040830181905251606083018190525f60808401526001600160401b0381111561046957610469610f7d565b604051908082528060200260200182016040528015610492578160200160208202803683370190505b508482815181106104a5576104a5611582565b60209081029190910101525f5b82606001518110156106a0578982815181106104d0576104d0611582565b60200260200101516001600160a01b0316634fecb26684602001518560400151848151811061050157610501611582565b60200260200101516040518363ffffffff1660e01b815260040161053b9291906001600160a01b0392831681529116602082015260400190565b602060405180830381865afa158015610556573d5f5f3e3d5ffd5b505050506040513d601f19601f8201168201806040525081019061057a9190611596565b60a0840152855186908390811061059357610593611582565b60200260200101516001600160a01b031663ae68676c8460a001518a85815181106105c0576105c0611582565b60200260200101518a86815181106105da576105da611582565b60200260200101516040518463ffffffff1660e01b8152600401610600939291906115ad565b602060405180830381865afa15801561061b573d5f5f3e3d5ffd5b505050506040513d601f19601f8201168201806040525081019061063f9190611596565b60c08401819052855186908490811061065a5761065a611582565b6020026020010151828151811061067357610673611582565b6020026020010181815250508260c001518360800181815161069591906115cc565b9052506001016104b2565b5081608001518382815181106106b8576106b8611582565b60209081029190910101526001016103ea565b5050965096945050505050565b6040516327f6593360e11b81526001600160a01b03878116600483015285811660248301525f918291881690634fecb26690604401602060405180830381865afa158015610728573d5f5f3e3d5ffd5b505050506040513d601f19601f8201168201806040525081019061074c9190611596565b604051632b9a19db60e21b81529091506001600160a01b0384169063ae68676c9061077f908490899089906004016115ad565b602060405180830381865afa15801561079a573d5f5f3e3d5ffd5b505050506040513d601f19601f820116820180604052508101906107be9190611596565b98975050505050505050565b8151606090806001600160401b038111156107e7576107e7610f7d565b604051908082528060200260200182016040528015610810578160200160208202803683370190505b5091505f5b818110156108ee5783818151811061082f5761082f611582565b60200260200101516001600160a01b031663ec422afd86838151811061085757610857611582565b60200260200101516040518263ffffffff1660e01b815260040161088a91906001600160a01b0391909116815260200190565b602060405180830381865afa1580156108a5573d5f5f3e3d5ffd5b505050506040513d601f19601f820116820180604052508101906108c99190611596565b8382815181106108db576108db611582565b6020908102919091010152600101610815565b505092915050565b6040516307a028bd60e11b81526001600160a01b0386811660048301525f918291871690630f40517a906024015b602060405180830381865afa15801561093f573d5f5f3e3d5ffd5b505050506040513d601f19601f820116820180604052508101906109639190611596565b604051632b9a19db60e21b81529091506001600160a01b0384169063ae68676c90610996908490899089906004016115ad565b602060405180830381865afa1580156109b1573d5f5f3e3d5ffd5b505050506040513d601f19601f820116820180604052508101906109d59190611596565b979650505050505050565b8451835160609190811415806109f7575083518114155b80610a03575085518114155b15610a2157604051634456f5e960e11b815260040160405180910390fd5b806001600160401b03811115610a3957610a39610f7d565b604051908082528060200260200182016040528015610a62578160200160208202803683370190505b5091505f5b81811015610bfe575f878281518110610a8257610a82611582565b60200260200101516001600160a01b0316630f40517a8a8481518110610aaa57610aaa611582565b60200260200101516040518263ffffffff1660e01b8152600401610add91906001600160a01b0391909116815260200190565b602060405180830381865afa158015610af8573d5f5f3e3d5ffd5b505050506040513d601f19601f82011682018060405250810190610b1c9190611596565b9050848281518110610b3057610b30611582565b60200260200101516001600160a01b031663ae68676c82898581518110610b5957610b59611582565b6020026020010151898681518110610b7357610b73611582565b60200260200101516040518463ffffffff1660e01b8152600401610b99939291906115ad565b602060405180830381865afa158015610bb4573d5f5f3e3d5ffd5b505050506040513d601f19601f82011682018060405250810190610bd89190611596565b848381518110610bea57610bea611582565b602090810291909101015250600101610a67565b505095945050505050565b845183516060919081141580610c20575083518114155b80610c2c575085518114155b15610c4a57604051634456f5e960e11b815260040160405180910390fd5b806001600160401b03811115610c6257610c62610f7d565b604051908082528060200260200182016040528015610c8b578160200160208202803683370190505b5091505f5b81811015610bfe575f878281518110610cab57610cab611582565b60200260200101516001600160a01b031663ec422afd8a8481518110610cd357610cd3611582565b60200260200101516040518263ffffffff1660e01b8152600401610d0691906001600160a01b0391909116815260200190565b602060405180830381865afa158015610d21573d5f5f3e3d5ffd5b505050506040513d601f19601f82011682018060405250810190610d459190611596565b9050848281518110610d5957610d59611582565b60200260200101516001600160a01b031663ae68676c82898581518110610d8257610d82611582565b6020026020010151898681518110610d9c57610d9c611582565b60200260200101516040518463ffffffff1660e01b8152600401610dc2939291906115ad565b602060405180830381865afa158015610ddd573d5f5f3e3d5ffd5b505050506040513d601f19601f82011682018060405250810190610e019190611596565b848381518110610e1357610e13611582565b602090810291909101015250600101610c90565b60405163ec422afd60e01b81526001600160a01b0386811660048301525f91829187169063ec422afd90602401610924565b8151606090806001600160401b03811115610e7657610e76610f7d565b604051908082528060200260200182016040528015610e9f578160200160208202803683370190505b5091505f5b818110156108ee57838181518110610ebe57610ebe611582565b60200260200101516001600160a01b0316630f40517a868381518110610ee657610ee6611582565b60200260200101516040518263ffffffff1660e01b8152600401610f1991906001600160a01b0391909116815260200190565b602060405180830381865afa158015610f34573d5f5f3e3d5ffd5b505050506040513d601f19601f82011682018060405250810190610f589190611596565b838281518110610f6a57610f6a611582565b6020908102919091010152600101610ea4565b634e487b7160e01b5f52604160045260245ffd5b604051601f8201601f191681016001600160401b0381118282101715610fb957610fb9610f7d565b604052919050565b5f6001600160401b03821115610fd957610fd9610f7d565b5060051b60200190565b80356001600160a01b0381168114610ff9575f5ffd5b919050565b5f82601f83011261100d575f5ffd5b813561102061101b82610fc1565b610f91565b8082825260208201915060208360051b860101925085831115611041575f5ffd5b602085015b838110156110655761105781610fe3565b835260209283019201611046565b5095945050505050565b5f5f5f60608486031215611081575f5ffd5b83356001600160401b03811115611096575f5ffd5b6110a286828701610ffe565b93505060208401356001600160401b038111156110bd575f5ffd5b6110c986828701610ffe565b92505060408401356001600160401b038111156110e4575f5ffd5b6110f086828701610ffe565b9150509250925092565b5f8151808452602084019350602083015f5b8281101561112a57815186526020958601959091019060010161110c565b5093949350505050565b602081525f61114660208301846110fa565b9392505050565b5f82601f83011261115c575f5ffd5b813561116a61101b82610fc1565b8082825260208201915060208360051b86010192508583111561118b575f5ffd5b602085015b838110156110655780356001600160401b038111156111ad575f5ffd5b6111bc886020838a0101610ffe565b84525060209283019201611190565b5f5f5f5f5f5f60c087890312156111e0575f5ffd5b86356001600160401b038111156111f5575f5ffd5b61120189828a01610ffe565b96505060208701356001600160401b0381111561121c575f5ffd5b61122889828a01610ffe565b95505060408701356001600160401b03811115611243575f5ffd5b61124f89828a0161114d565b94505060608701356001600160401b0381111561126a575f5ffd5b61127689828a01610ffe565b93505060808701356001600160401b03811115611291575f5ffd5b61129d89828a01610ffe565b92505060a08701356001600160401b038111156112b8575f5ffd5b6112c489828a01610ffe565b9150509295509295509295565b5f604082016040835280855180835260608501915060608160051b8601019250602087015f5b8281101561135157868503605f19018452815180518087526020918201918701905f5b8181101561133857835183526020938401939092019160010161131a565b50909650505060209384019391909101906001016112f7565b50505050828103602084015261136781856110fa565b95945050505050565b5f5f5f5f5f5f60c08789031215611385575f5ffd5b61138e87610fe3565b955061139c60208801610fe3565b94506113aa60408801610fe3565b93506113b860608801610fe3565b92506113c660808801610fe3565b91506113d460a08801610fe3565b90509295509295509295565b5f5f604083850312156113f1575f5ffd5b82356001600160401b03811115611406575f5ffd5b61141285828601610ffe565b92505060208301356001600160401b0381111561142d575f5ffd5b61143985828601610ffe565b9150509250929050565b5f5f5f5f5f60a08688031215611457575f5ffd5b61146086610fe3565b945061146e60208701610fe3565b935061147c60408701610fe3565b925061148a60608701610fe3565b915061149860808701610fe3565b90509295509295909350565b5f5f5f5f5f60a086880312156114b8575f5ffd5b85356001600160401b038111156114cd575f5ffd5b6114d988828901610ffe565b95505060208601356001600160401b038111156114f4575f5ffd5b61150088828901610ffe565b94505060408601356001600160401b0381111561151b575f5ffd5b61152788828901610ffe565b93505060608601356001600160401b03811115611542575f5ffd5b61154e88828901610ffe565b92505060808601356001600160401b03811115611569575f5ffd5b61157588828901610ffe565b9150509295509295909350565b634e487b7160e01b5f52603260045260245ffd5b5f602082840312156115a6575f5ffd5b5051919050565b9283526001600160a01b03918216602084015216604082015260600190565b808201808211156115eb57634e487b7160e01b5f52601160045260245ffd5b9291505056fea164736f6c634300081e000a","linkReferences":{}},"methodIdentifiers":{"getPricePerShareMultiple(address[],address[])":"66a6749f","getPricePerShareMultipleQuote(address[],address[],address[],address[],address[])":"a36cdfb5","getPricePerShareQuote(address,address,address,address,address)":"cc84c43c","getTVLByOwnerOfSharesMultiple(address[],address[],address[])":"266f3aa5","getTVLByOwnerOfSharesMultipleQuote(address[],address[],address[][],address[],address[],address[])":"2a3e703b","getTVLByOwnerOfSharesQuote(address,address,address,address,address,address)":"4a55f4de","getTVLMultiple(address[],address[])":"d49917c6","getTVLMultipleQuote(address[],address[],address[],address[],address[])":"90df098d","getTVLQuote(address,address,address,address,address)":"7b9efab7"},"id":307}