{"abi":[{"type":"function","name":"acceptManagerRole","inputs":[{"name":"yieldSourceOracleId","type":"bytes32","internalType":"bytes32"}],"outputs":[],"stateMutability":"nonpayable"},{"type":"function","name":"acceptYieldSourceOracleConfigProposal","inputs":[{"name":"yieldSourceOracleIds","type":"bytes32[]","internalType":"bytes32[]"}],"outputs":[],"stateMutability":"nonpayable"},{"type":"function","name":"cancelYieldSourceOracleConfigProposal","inputs":[{"name":"yieldSourceOracleId","type":"bytes32","internalType":"bytes32"}],"outputs":[],"stateMutability":"nonpayable"},{"type":"function","name":"getAllYieldSourceOracleIdsByOwner","inputs":[{"name":"owner","type":"address","internalType":"address"}],"outputs":[{"name":"","type":"bytes32[]","internalType":"bytes32[]"}],"stateMutability":"view"},{"type":"function","name":"getYieldSourceOracleConfig","inputs":[{"name":"yieldSourceOracleId","type":"bytes32","internalType":"bytes32"}],"outputs":[{"name":"","type":"tuple","internalType":"struct ISuperLedgerConfiguration.YieldSourceOracleConfig","components":[{"name":"yieldSourceOracle","type":"address","internalType":"address"},{"name":"feePercent","type":"uint256","internalType":"uint256"},{"name":"feeRecipient","type":"address","internalType":"address"},{"name":"manager","type":"address","internalType":"address"},{"name":"ledger","type":"address","internalType":"address"}]}],"stateMutability":"view"},{"type":"function","name":"getYieldSourceOracleConfigs","inputs":[{"name":"yieldSourceOracleIds","type":"bytes32[]","internalType":"bytes32[]"}],"outputs":[{"name":"configs","type":"tuple[]","internalType":"struct ISuperLedgerConfiguration.YieldSourceOracleConfig[]","components":[{"name":"yieldSourceOracle","type":"address","internalType":"address"},{"name":"feePercent","type":"uint256","internalType":"uint256"},{"name":"feeRecipient","type":"address","internalType":"address"},{"name":"manager","type":"address","internalType":"address"},{"name":"ledger","type":"address","internalType":"address"}]}],"stateMutability":"view"},{"type":"function","name":"proposeYieldSourceOracleConfig","inputs":[{"name":"yieldSourceOracleIds","type":"bytes32[]","internalType":"bytes32[]"},{"name":"configs","type":"tuple[]","internalType":"struct ISuperLedgerConfiguration.YieldSourceOracleConfigArgs[]","components":[{"name":"yieldSourceOracle","type":"address","internalType":"address"},{"name":"feePercent","type":"uint256","internalType":"uint256"},{"name":"feeRecipient","type":"address","internalType":"address"},{"name":"ledger","type":"address","internalType":"address"}]}],"outputs":[],"stateMutability":"nonpayable"},{"type":"function","name":"setYieldSourceOracles","inputs":[{"name":"salts","type":"bytes32[]","internalType":"bytes32[]"},{"name":"configs","type":"tuple[]","internalType":"struct ISuperLedgerConfiguration.YieldSourceOracleConfigArgs[]","components":[{"name":"yieldSourceOracle","type":"address","internalType":"address"},{"name":"feePercent","type":"uint256","internalType":"uint256"},{"name":"feeRecipient","type":"address","internalType":"address"},{"name":"ledger","type":"address","internalType":"address"}]}],"outputs":[],"stateMutability":"nonpayable"},{"type":"function","name":"transferManagerRole","inputs":[{"name":"yieldSourceOracleId","type":"bytes32","internalType":"bytes32"},{"name":"newManager","type":"address","internalType":"address"}],"outputs":[],"stateMutability":"nonpayable"},{"type":"event","name":"ManagerRoleTransferAccepted","inputs":[{"name":"yieldSourceOracleId","type":"bytes32","indexed":true,"internalType":"bytes32"},{"name":"newManager","type":"address","indexed":true,"internalType":"address"}],"anonymous":false},{"type":"event","name":"ManagerRoleTransferStarted","inputs":[{"name":"yieldSourceOracleId","type":"bytes32","indexed":true,"internalType":"bytes32"},{"name":"currentManager","type":"address","indexed":true,"internalType":"address"},{"name":"newManager","type":"address","indexed":true,"internalType":"address"}],"anonymous":false},{"type":"event","name":"YieldSourceOracleConfigAccepted","inputs":[{"name":"yieldSourceOracleId","type":"bytes32","indexed":true,"internalType":"bytes32"},{"name":"yieldSourceOracle","type":"address","indexed":true,"internalType":"address"},{"name":"feePercent","type":"uint256","indexed":false,"internalType":"uint256"},{"name":"feeRecipient","type":"address","indexed":false,"internalType":"address"},{"name":"manager","type":"address","indexed":false,"internalType":"address"},{"name":"ledger","type":"address","indexed":false,"internalType":"address"}],"anonymous":false},{"type":"event","name":"YieldSourceOracleConfigProposalCancelled","inputs":[{"name":"yieldSourceOracleId","type":"bytes32","indexed":true,"internalType":"bytes32"},{"name":"yieldSourceOracle","type":"address","indexed":false,"internalType":"address"},{"name":"feePercent","type":"uint256","indexed":false,"internalType":"uint256"},{"name":"feeRecipient","type":"address","indexed":false,"internalType":"address"},{"name":"manager","type":"address","indexed":false,"internalType":"address"},{"name":"ledger","type":"address","indexed":false,"internalType":"address"}],"anonymous":false},{"type":"event","name":"YieldSourceOracleConfigProposalSet","inputs":[{"name":"yieldSourceOracleId","type":"bytes32","indexed":true,"internalType":"bytes32"},{"name":"yieldSourceOracle","type":"address","indexed":true,"internalType":"address"},{"name":"feePercent","type":"uint256","indexed":false,"internalType":"uint256"},{"name":"feeRecipient","type":"address","indexed":false,"internalType":"address"},{"name":"manager","type":"address","indexed":false,"internalType":"address"},{"name":"ledger","type":"address","indexed":false,"internalType":"address"}],"anonymous":false},{"type":"event","name":"YieldSourceOracleConfigSet","inputs":[{"name":"yieldSourceOracleId","type":"bytes32","indexed":true,"internalType":"bytes32"},{"name":"yieldSourceOracle","type":"address","indexed":true,"internalType":"address"},{"name":"feePercent","type":"uint256","indexed":false,"internalType":"uint256"},{"name":"feeRecipient","type":"address","indexed":false,"internalType":"address"},{"name":"manager","type":"address","indexed":false,"internalType":"address"},{"name":"ledger","type":"address","indexed":false,"internalType":"address"}],"anonymous":false},{"type":"error","name":"CANNOT_ACCEPT_YET","inputs":[]},{"type":"error","name":"CHANGE_ALREADY_PROPOSED","inputs":[]},{"type":"error","name":"CONFIG_EXISTS","inputs":[]},{"type":"error","name":"CONFIG_NOT_FOUND","inputs":[]},{"type":"error","name":"INVALID_FEE_PERCENT","inputs":[]},{"type":"error","name":"LENGTH_MISMATCH","inputs":[]},{"type":"error","name":"MANAGER_NOT_MATCHED","inputs":[]},{"type":"error","name":"NOT_MANAGER","inputs":[]},{"type":"error","name":"NOT_PENDING_MANAGER","inputs":[]},{"type":"error","name":"NO_PENDING_PROPOSAL","inputs":[]},{"type":"error","name":"ZERO_ADDRESS_NOT_ALLOWED","inputs":[]},{"type":"error","name":"ZERO_ID_NOT_ALLOWED","inputs":[]},{"type":"error","name":"ZERO_LENGTH","inputs":[]}],"bytecode":{"object":"0x6080604052348015600e575f5ffd5b506116288061001c5f395ff3fe608060405234801561000f575f5ffd5b5060043610610090575f3560e01c8063b6fd1b5211610063578063b6fd1b5214610184578063cd708da7146101a4578063dd3cf00b146101b7578063edd95d06146101ca578063fe46d282146101dd575f5ffd5b8063351166c61461009457806397d4c17f146100bd5780639ffba1fb146100d2578063b4767370146100e5575b5f5ffd5b6100a76100a236600461135f565b6101f0565b6040516100b491906113db565b60405180910390f35b6100d06100cb366004611428565b610317565b005b6100d06100e03660046114c4565b61078e565b6101776100f33660046114c4565b6040805160a0810182525f80825260208201819052918101829052606081018290526080810191909152505f9081526020818152604091829020825160a08101845281546001600160a01b03908116825260018301549382019390935260028201548316938101939093526003810154821660608401526004015416608082015290565b6040516100b491906114db565b610197610192366004611504565b610825565b6040516100b4919061151d565b6100d06101b23660046114c4565b61088e565b6100d06101c5366004611554565b610aea565b6100d06101d8366004611428565b610be6565b6100d06101eb36600461135f565b610cae565b6060818067ffffffffffffffff81111561020c5761020c61157e565b60405190808252806020026020018201604052801561026357816020015b6040805160a0810182525f808252602080830182905292820181905260608201819052608082015282525f1990920191018161022a5790505b5091505f5b8181101561030f575f5f86868481811061028457610284611592565b602090810292909201358352508181019290925260409081015f20815160a08101835281546001600160a01b039081168252600183015494820194909452600282015484169281019290925260038101548316606083015260040154909116608082015283518490839081106102fc576102fc611592565b6020908102919091010152600101610268565b505092915050565b805f819003610339576040516358f3f89d60e01b815260040160405180910390fd5b8084146103595760405163899ef10d60e01b815260040160405180910390fd5b5f5b81811015610786573684848381811061037657610376611592565b90506080020190505f5f5f89898681811061039357610393611592565b602090810292909201358352508181019290925260409081015f20815160a08101835281546001600160a01b039081168252600183015494820194909452600282015484169281019290925260038101548316606083015260040154909116608082018190529091501580610413575060608101516001600160a01b0316155b156104315760405163259d781b60e21b815260040160405180910390fd5b60608101516001600160a01b0316331461045e57604051634df0b5ad60e11b815260040160405180910390fd5b4260025f8a8a8781811061047457610474611592565b9050602002013581526020019081526020015f205411156104a85760405163345eeddb60e21b815260040160405180910390fd5b60208101511561053057602082013515610530575f6104dd82602001516113886127106104d591906115ba565b612710610f78565b90505f6104f883602001516113886127106104d591906115cd565b9050818460200135108061050f5750808460200135115b1561052d576040516342c9b52360e01b815260040160405180910390fd5b50505b61058888888581811061054557610545611592565b90506020020135835f01602081019061055e9190611504565b60208501356105736060870160408801611504565b6105836080880160608901611504565b611029565b6040805160a08101909152806105a16020850185611504565b6001600160a01b03168152602001836020013581526020018360400160208101906105cc9190611504565b6001600160a01b0316815260200182606001516001600160a01b031681526020018360600160208101906106009190611504565b6001600160a01b0316905260015f8a8a8781811061062057610620611592565b602090810292909201358352508181019290925260409081015f20835181546001600160a01b03199081166001600160a01b03928316178355938501516001830155918401516002820180548516918416919091179055606084015160038201805485169184169190911790556080909301516004909301805490921692169190911790556106b262093a80426115cd565b60025f8a8a878181106106c7576106c7611592565b9050602002013581526020019081526020015f2081905550815f0160208101906106f19190611504565b6001600160a01b031688888581811061070c5761070c611592565b905060200201357f573d854ab453d79ebca19a017648a4f975f0550a209a72f386a1682e196c5b65846020013585604001602081019061074c9190611504565b85606001518760600160208101906107649190611504565b60405161077494939291906115e0565b60405180910390a3505060010161035b565b505050505050565b5f818152600460205260409020546001600160a01b031633146107c457604051631f75f4ff60e11b815260040160405180910390fd5b5f818152602081815260408083206003018054336001600160a01b031991821681179092556004909352818420805490931690925551909183917fb129e473bec7ed12bc0faacf7e7da6677f0b79f93ca6e88667329193166b007d9190a350565b6001600160a01b0381165f9081526003602090815260409182902080548351818402810184019094528084526060939283018282801561088257602002820191905f5260205f20905b81548152602001906001019080831161086e575b50505050509050919050565b5f818152602081905260409020600301546001600160a01b031633146108c757604051634df0b5ad60e11b815260040160405180910390fd5b5f8181526002602052604081205490036108f4576040516373f8011760e01b815260040160405180910390fd5b5f60015f8381526020019081526020015f206040518060a00160405290815f82015f9054906101000a90046001600160a01b03166001600160a01b03166001600160a01b0316815260200160018201548152602001600282015f9054906101000a90046001600160a01b03166001600160a01b03166001600160a01b03168152602001600382015f9054906101000a90046001600160a01b03166001600160a01b03166001600160a01b03168152602001600482015f9054906101000a90046001600160a01b03166001600160a01b03166001600160a01b031681525050905060015f8381526020019081526020015f205f5f82015f6101000a8154906001600160a01b030219169055600182015f9055600282015f6101000a8154906001600160a01b030219169055600382015f6101000a8154906001600160a01b030219169055600482015f6101000a8154906001600160a01b030219169055505060025f8381526020019081526020015f205f9055817fae0e289a9d3651a0fff20fac99910f80b76acfe3d401d1dc4433ada542be7790825f01518360200151846040015185606001518660800151604051610ade9594939291906001600160a01b0395861681526020810194909452918416604084015283166060830152909116608082015260a00190565b60405180910390a25050565b5f8281526020818152604091829020825160a08101845281546001600160a01b0390811682526001830154938201939093526002820154831693810193909352600381015482166060840181905260049091015490911660808301523314610b6557604051634df0b5ad60e11b815260040160405180910390fd5b6001600160a01b038216610b8c57604051636fe7b73760e01b815260040160405180910390fd5b5f8381526004602052604080822080546001600160a01b0319166001600160a01b03861690811790915590519091339186917fe7c22852fbb0b4ee248bdc050be6600234e1f5b3b5d748ce19463a1bdb47547b91a4505050565b805f819003610c08576040516358f3f89d60e01b815260040160405180910390fd5b808414610c285760405163899ef10d60e01b815260040160405180910390fd5b5f5b818110156107865736848483818110610c4557610c45611592565b9050608002019050610ca5878784818110610c6257610c62611592565b90506020020135825f016020810190610c7b9190611504565b6020840135610c906060860160408701611504565b610ca06080870160608801611504565b6110e6565b50600101610c2a565b805f819003610cd0576040516358f3f89d60e01b815260040160405180910390fd5b5f5b81811015610f72575f848483818110610ced57610ced611592565b602090810292909201355f81815260018085526040808320815160a0808201845282546001600160a01b03908116835283860154838b0152600280850154821684870152600380860154831660608087019190915260049687015484166080808801919091528b8b528a8e529988902088519586018952805485168652988901549c85019c909c529087015482169583019590955293850154841698810198909852920154811692860192909252805192955093925016158015610dbc575060408201516001600160a01b0316155b8015610dd3575060808201516001600160a01b0316155b15610df15760405163259d781b60e21b815260040160405180910390fd5b60608101516001600160a01b03163314610e1e57604051634df0b5ad60e11b815260040160405180910390fd5b6060808201516001600160a01b0316908301525f83815260026020526040902054421015610e5f57604051630779faef60e11b815260040160405180910390fd5b5f83815260208181526040808320855181546001600160a01b03199081166001600160a01b03928316178355878501805160018086019190915589860180516002808801805487169288169290921790915560608c0180516003808a0180548916928a169290921790915560808e01805160049a8b0180548a16918b16919091179055858c528a8d208054891681559586018d90558584018054891690559085018054881690559390970180549095169094559290965284872096909655875195519051925194519351959091169488947fc20741f4f1b5c8af4594296c1807952e9d77ea10c701b4cba482967d82b62a2494610f5c94926115e0565b60405180910390a3505050806001019050610cd2565b50505050565b5f5f5f610f85868661129c565b91509150815f03610fa957838181610f9f57610f9f611607565b0492505050611022565b818411610fc057610fc060038515026011186112b8565b5f848688095f868103871696879004966002600389028118808a02820302808a02820302808a02820302808a02820302808a02820302808a02909103029181900381900460010185841190960395909502919093039390930492909217029150505b9392505050565b6001600160a01b03841661105057604051636fe7b73760e01b815260040160405180910390fd5b6001600160a01b03821661107757604051636fe7b73760e01b815260040160405180910390fd5b6001600160a01b03811661109e57604051636fe7b73760e01b815260040160405180910390fd5b6113888311156110c1576040516342c9b52360e01b815260040160405180910390fd5b846110df57604051636465ff8760e01b815260040160405180910390fd5b5050505050565b6110f38585858585611029565b5f6110fe86336112c9565b335f9081526003602081815260408084208054600181810183559186528386200186905585855284835293819020815160a08101835281546001600160a01b039081168252958201549381019390935260028101548516918301919091529182015483166060820181905260049092015490921660808301529192509015801590611195575060808101516001600160a01b031615155b156111b357604051636d50011360e11b815260040160405180910390fd5b6040805160a0810182526001600160a01b0380891680835260208084018a815289841685870190815233606087018181528b8716608089019081525f8c81529586905294899020975188549088166001600160a01b0319918216178955935160018901559151600288018054918816918516919091179055905160038701805491871691841691909117905591516004909501805495909416941693909317909155915184917f7ab0c7c67b786595d83b9e3657bb135d591d1c8847e4211cf8a4a7bf0eb653549161128b918a918a91908a906115e0565b60405180910390a350505050505050565b5f805f1983850993909202808410938190039390930393915050565b634e487b715f52806020526024601cfd5b5f82826040516020016112f892919091825260601b6bffffffffffffffffffffffff1916602082015260340190565b6040516020818303038152906040528051906020012090505b92915050565b5f5f83601f840112611327575f5ffd5b50813567ffffffffffffffff81111561133e575f5ffd5b6020830191508360208260051b8501011115611358575f5ffd5b9250929050565b5f5f60208385031215611370575f5ffd5b823567ffffffffffffffff811115611386575f5ffd5b61139285828601611317565b90969095509350505050565b80516001600160a01b0390811683526020808301519084015260408083015182169084015260608083015182169084015260809182015116910152565b602080825282518282018190525f918401906040840190835b8181101561141d5761140783855161139e565b6020939093019260a092909201916001016113f4565b509095945050505050565b5f5f5f5f6040858703121561143b575f5ffd5b843567ffffffffffffffff811115611451575f5ffd5b61145d87828801611317565b909550935050602085013567ffffffffffffffff81111561147c575f5ffd5b8501601f8101871361148c575f5ffd5b803567ffffffffffffffff8111156114a2575f5ffd5b8760208260071b84010111156114b6575f5ffd5b949793965060200194505050565b5f602082840312156114d4575f5ffd5b5035919050565b60a08101611311828461139e565b80356001600160a01b03811681146114ff575f5ffd5b919050565b5f60208284031215611514575f5ffd5b611022826114e9565b602080825282518282018190525f918401906040840190835b8181101561141d578351835260209384019390920191600101611536565b5f5f60408385031215611565575f5ffd5b82359150611575602084016114e9565b90509250929050565b634e487b7160e01b5f52604160045260245ffd5b634e487b7160e01b5f52603260045260245ffd5b634e487b7160e01b5f52601160045260245ffd5b81810381811115611311576113116115a6565b80820180821115611311576113116115a6565b9384526001600160a01b039283166020850152908216604084015216606082015260800190565b634e487b7160e01b5f52601260045260245ffdfea164736f6c634300081e000a","linkReferences":{}},"methodIdentifiers":{"acceptManagerRole(bytes32)":"9ffba1fb","acceptYieldSourceOracleConfigProposal(bytes32[])":"fe46d282","cancelYieldSourceOracleConfigProposal(bytes32)":"cd708da7","getAllYieldSourceOracleIdsByOwner(address)":"b6fd1b52","getYieldSourceOracleConfig(bytes32)":"b4767370","getYieldSourceOracleConfigs(bytes32[])":"351166c6","proposeYieldSourceOracleConfig(bytes32[],(address,uint256,address,address)[])":"97d4c17f","setYieldSourceOracles(bytes32[],(address,uint256,address,address)[])":"edd95d06","transferManagerRole(bytes32,address)":"dd3cf00b"},"id":326}