{"abi":[{"type":"constructor","inputs":[{"name":"ledgerConfiguration_","type":"address","internalType":"address"}],"stateMutability":"nonpayable"},{"type":"function","name":"execute","inputs":[{"name":"data","type":"bytes","internalType":"bytes"}],"outputs":[],"stateMutability":"nonpayable"},{"type":"function","name":"isInitialized","inputs":[{"name":"account","type":"address","internalType":"address"}],"outputs":[{"name":"","type":"bool","internalType":"bool"}],"stateMutability":"view"},{"type":"function","name":"isModuleType","inputs":[{"name":"typeID","type":"uint256","internalType":"uint256"}],"outputs":[{"name":"","type":"bool","internalType":"bool"}],"stateMutability":"pure"},{"type":"function","name":"ledgerConfiguration","inputs":[],"outputs":[{"name":"","type":"address","internalType":"contract ISuperLedgerConfiguration"}],"stateMutability":"view"},{"type":"function","name":"name","inputs":[],"outputs":[{"name":"","type":"string","internalType":"string"}],"stateMutability":"pure"},{"type":"function","name":"onInstall","inputs":[{"name":"","type":"bytes","internalType":"bytes"}],"outputs":[],"stateMutability":"nonpayable"},{"type":"function","name":"onUninstall","inputs":[{"name":"","type":"bytes","internalType":"bytes"}],"outputs":[],"stateMutability":"nonpayable"},{"type":"function","name":"validateHookCompliance","inputs":[{"name":"hook","type":"address","internalType":"address"},{"name":"prevHook","type":"address","internalType":"address"},{"name":"account","type":"address","internalType":"address"},{"name":"hookData","type":"bytes","internalType":"bytes"}],"outputs":[{"name":"","type":"tuple[]","internalType":"struct Execution[]","components":[{"name":"target","type":"address","internalType":"address"},{"name":"value","type":"uint256","internalType":"uint256"},{"name":"callData","type":"bytes","internalType":"bytes"}]}],"stateMutability":"view"},{"type":"function","name":"version","inputs":[],"outputs":[{"name":"","type":"string","internalType":"string"}],"stateMutability":"pure"},{"type":"event","name":"SuperPositionMintRequested","inputs":[{"name":"account","type":"address","indexed":true,"internalType":"address"},{"name":"spToken","type":"address","indexed":true,"internalType":"address"},{"name":"amount","type":"uint256","indexed":false,"internalType":"uint256"},{"name":"dstChainId","type":"uint256","indexed":true,"internalType":"uint256"}],"anonymous":false},{"type":"error","name":"ADDRESS_NOT_VALID","inputs":[]},{"type":"error","name":"ALREADY_INITIALIZED","inputs":[]},{"type":"error","name":"FEE_NOT_TRANSFERRED","inputs":[]},{"type":"error","name":"FIRST_HOOK_CANNOT_USE_PREVIOUS_AMOUNT","inputs":[]},{"type":"error","name":"INSUFFICIENT_BALANCE_FOR_FEE","inputs":[]},{"type":"error","name":"INVALID_CALLER","inputs":[]},{"type":"error","name":"INVALID_CHAIN_ID","inputs":[]},{"type":"error","name":"INVALID_FEE","inputs":[]},{"type":"error","name":"INVALID_YIELD_SOURCE_ORACLE_ID","inputs":[]},{"type":"error","name":"LENGTH_MISMATCH","inputs":[]},{"type":"error","name":"MALICIOUS_HOOK_DETECTED","inputs":[]},{"type":"error","name":"MANAGER_NOT_SET","inputs":[]},{"type":"error","name":"ModuleAlreadyInitialized","inputs":[{"name":"smartAccount","type":"address","internalType":"address"}]},{"type":"error","name":"NOT_AUTHORIZED","inputs":[]},{"type":"error","name":"NOT_INITIALIZED","inputs":[]},{"type":"error","name":"NO_HOOKS","inputs":[]},{"type":"error","name":"NotInitialized","inputs":[{"name":"smartAccount","type":"address","internalType":"address"}]},{"type":"error","name":"ReentrancyGuardReentrantCall","inputs":[]}],"bytecode":{"object":"0x60a0604052348015600e575f5ffd5b50604051611da8380380611da8833981016040819052602b916067565b60015f55806001600160a01b038116605657604051630f58648f60e01b815260040160405180910390fd5b6001600160a01b0316608052506092565b5f602082840312156076575f5ffd5b81516001600160a01b0381168114608b575f5ffd5b9392505050565b608051611cf76100b15f395f818161012a01526109e00152611cf75ff3fe608060405234801561000f575f5ffd5b5060043610610090575f3560e01c80636740419b116100635780636740419b146101255780636d61fe70146101645780638a91b0e314610177578063d60b347f1461018a578063ecd05961146101c5575f5ffd5b806306fdde031461009457806309c5eabe146100cf5780634a03fda4146100e457806354fd4d5014610104575b5f5ffd5b60408051808201909152600d81526c29bab832b922bc32b1baba37b960991b60208201525b6040516100c6919061143a565b60405180910390f35b6100e26100dd36600461144c565b6101d9565b005b6100f76100f23660046115d5565b610221565b6040516100c69190611645565b604080518082019091526005815264302e302e3160d81b60208201526100b9565b61014c7f000000000000000000000000000000000000000000000000000000000000000081565b6040516001600160a01b0390911681526020016100c6565b6100e261017236600461144c565b610483565b6100e261018536600461144c565b6104d3565b6101b56101983660046116d2565b6001600160a01b03165f9081526001602052604090205460ff1690565b60405190151581526020016100c6565b6101b56101d33660046116ed565b60021490565b335f9081526001602052604090205460ff1661020857604051630f68fe6360e21b815260040160405180910390fd5b61021d33610218838501856117ae565b61051c565b5050565b604080515f808252602082019092526060919081610268565b60408051606080820183525f80835260208301529181019190915281526020019060019003908161023a5790505b5090505f866001600160a01b0316633b5896bc8787876040518463ffffffff1660e01b815260040161029c939291906118a2565b5f60405180830381865afa1580156102b6573d5f5f3e3d5ffd5b505050506040513d5f823e601f3d908101601f191682016040526102dd919081019061191a565b90506002815110156102f15750905061047b565b866001600160a01b0316815f8151811061030d5761030d611a1e565b60200260200101515f01516001600160a01b03161461032e5750905061047b565b5f815f8151811061034157610341611a1e565b60200260200101516040015161035690611a32565b90506001600160e01b03198116632ae2fe3d60e01b1461037b5782935050505061047b565b5f6001835161038a9190611a84565b9050886001600160a01b03168382815181106103a8576103a8611a1e565b60200260200101515f01516001600160a01b0316146103cd578394505050505061047b565b5f8382815181106103e0576103e0611a1e565b6020026020010151604001516103f590611a32565b90506001600160e01b031981166305b4fe9160e01b1461041c57849550505050505061047b565b60015b82811015610472578a6001600160a01b031685828151811061044357610443611a1e565b60200260200101515f01516001600160a01b03160361046a5785965050505050505061047b565b60010161041f565b50929450505050505b949350505050565b335f9081526001602052604090205460ff16156104b35760405163439a74c960e01b815260040160405180910390fd5b5050335f908152600160208190526040909120805460ff19169091179055565b335f9081526001602052604090205460ff1661050257604051630f68fe6360e21b815260040160405180910390fd5b5050335f908152600160205260409020805460ff19169055565b8051515f81900361054057604051632c4df46b60e11b815260040160405180910390fd5b81602001515181146105655760405163899ef10d60e01b815260040160405180910390fd5b5f5f5f5b8381101561063e57845180518290811061058557610585611a1e565b60200260200101519150805f036105e1575f6105be83876020015184815181106105b1576105b1611a1e565b6020026020010151610646565b905080156105df5760405163020ee8b160e31b815260040160405180910390fd5b505b6001600160a01b03821661060857604051630f58648f60e01b815260040160405180910390fd5b6106318683858860200151858151811061062457610624611a1e565b60200260200101516106c1565b9091508190600101610569565b505050505050565b60405163e774551760e01b81525f906001600160a01b0384169063e77455179061067490859060040161143a565b602060405180830381865afa9250505080156106ad575060408051601f3d908101601f191682019092526106aa91810190611a97565b60015b6106b857505f6106bb565b90505b92915050565b6106c9610858565b5f6106d684848785610221565b905080515f036106f95760405163addfcd9d60e01b815260040160405180910390fd5b6040516314cb37cf60e01b81526001600160a01b0386811660048301528516906314cb37cf906024015f604051808303815f87803b158015610739575f5ffd5b505af115801561074b573d5f5f3e3d5ffd5b505050506107598582610880565b505f846001600160a01b0316632113522a6040518163ffffffff1660e01b8152600401602060405180830381865afa158015610797573d5f5f3e3d5ffd5b505050506040513d601f19601f820116820180604052508101906107bb9190611ab6565b90506001600160a01b03811630146107e6576040516306a8611160e11b815260040160405180910390fd5b60405163d06a1e8960e01b81526001600160a01b03878116600483015286169063d06a1e89906024015f604051808303815f87803b158015610826575f5ffd5b505af1158015610838573d5f5f3e3d5ffd5b5050505061084786868561090d565b505061085260015f55565b50505050565b60025f540361087a57604051633ee5aeb560e01b815260040160405180910390fd5b60025f55565b60605f610893600160f81b828080610e37565b9050836001600160a01b031663d691c964826108ae86610ea1565b6040518363ffffffff1660e01b81526004016108cb929190611ad1565b5f604051808303815f875af11580156108e6573d5f5f3e3d5ffd5b505050506040513d5f823e601f3d908101601f1916820160405261047b9190810190611ae9565b5f5f836001600160a01b031663e445e7dd6040518163ffffffff1660e01b8152600401602060405180830381865afa15801561094b573d5f5f3e3d5ffd5b505050506040513d601f19601f8201168201806040525081019061096f9190611b8d565b9050600181600281111561098557610985611bab565b14806109a2575060028160028111156109a0576109a0611bab565b145b15610e30575f6109b184610eca565b90505f6109bd85610ee0565b604051630b47673760e41b8152600481018490529091505f906001600160a01b037f0000000000000000000000000000000000000000000000000000000000000000169063b47673709060240160a060405180830381865afa158015610a25573d5f5f3e3d5ffd5b505050506040513d601f19601f82011682018060405250810190610a499190611bbf565b60608101519091506001600160a01b0316610a7757604051638077659960e01b815260040160405180910390fd5b6040516381cbe69160e01b81526001600160a01b0389811660048301525f91908916906381cbe69190602401602060405180830381865afa158015610abe573d5f5f3e3d5ffd5b505050506040513d601f19601f82011682018060405250810190610ae29190611c4d565b60808301519091506001600160a01b031663fd8cd53f8a858760018a6002811115610b0f57610b0f611bab565b14868e6001600160a01b031663685a943c6040518163ffffffff1660e01b8152600401602060405180830381865afa158015610b4d573d5f5f3e3d5ffd5b505050506040513d601f19601f82011682018060405250810190610b719190611c4d565b6040516001600160e01b031960e089901b1681526001600160a01b039687166004820152959094166024860152604485019290925215156064840152608483015260a482015260c4016020604051808303815f875af1158015610bd6573d5f5f3e3d5ffd5b505050506040513d601f19601f82011682018060405250810190610bfa9190611c4d565b95505f86118015610c1c57506002856002811115610c1a57610c1a611bab565b145b15610e2b5780861115610c4257604051632fb15b8760e01b815260040160405180910390fd5b5f886001600160a01b03166338d52e0f6040518163ffffffff1660e01b8152600401602060405180830381865afa158015610c7f573d5f5f3e3d5ffd5b505050506040513d601f19601f82011682018060405250810190610ca39190611ab6565b90506001600160a01b0381161580610cd757506001600160a01b03811673eeeeeeeeeeeeeeeeeeeeeeeeeeeeeeeeeeeeeeee145b15610d1b57868a6001600160a01b0316311015610d0757604051638e10f0c960e01b815260040160405180910390fd5b610d168a846040015189610eec565b610db5565b6040516370a0823160e01b81526001600160a01b038b811660048301528891908316906370a0823190602401602060405180830381865afa158015610d62573d5f5f3e3d5ffd5b505050506040513d601f19601f82011682018060405250810190610d869190611c4d565b1015610da557604051638e10f0c960e01b815260040160405180910390fd5b610db58a8285604001518a610f49565b6001600160a01b038916631f264619610dce8985611a84565b6040516001600160e01b031960e084901b16815260048101919091526001600160a01b038d1660248201526044015f604051808303815f87803b158015610e13575f5ffd5b505af1158015610e25573d5f5f3e3d5ffd5b50505050505b505050505b5050505050565b604080516001600160f81b03198087166020830152851660218201525f602282018190526001600160e01b03198516602683015269ffffffffffffffffffff198416602a8301529101604051602081830303815290604052610e9890611c64565b95945050505050565b606081604051602001610eb49190611645565b6040516020818303038152906040529050919050565b5f610ed7825f60206110e1565b6106bb90611c64565b5f6106bb8260206111ed565b5f826001600160a01b0316319050610f1484848460405180602001604052805f815250611251565b506001600160a01b0383163182610f2b8383611a84565b14610e305760405163102831ad60e11b815260040160405180910390fd5b6040516370a0823160e01b81526001600160a01b0383811660048301525f91908516906370a0823190602401602060405180830381865afa158015610f90573d5f5f3e3d5ffd5b505050506040513d601f19601f82011682018060405250810190610fb49190611c4d565b6040516001600160a01b03851660248201526044810184905290915061100c90869086905f9060640160408051601f198184030181529190526020810180516001600160e01b031663a9059cbb60e01b179052611251565b506040516370a0823160e01b81526001600160a01b0384811660048301525f91908616906370a0823190602401602060405180830381865afa158015611054573d5f5f3e3d5ffd5b505050506040513d601f19601f820116820180604052508101906110789190611c4d565b90505f6110858383611a84565b90505f611098856103e8620186a0611300565b90506110a48186611a84565b8210806110b957506110b68186611c8a565b82115b156110d75760405163102831ad60e11b815260040160405180910390fd5b5050505050505050565b60608182601f01101561112c5760405162461bcd60e51b815260206004820152600e60248201526d736c6963655f6f766572666c6f7760901b60448201526064015b60405180910390fd5b6111368284611c8a565b8451101561117a5760405162461bcd60e51b8152602060048201526011602482015270736c6963655f6f75744f66426f756e647360781b6044820152606401611123565b6060821580156111985760405191505f8252602082016040526111e2565b6040519150601f8416801560200281840101858101878315602002848b0101015b818310156111d15780518352602092830192016111b9565b5050858452601f01601f1916604052505b5090505b9392505050565b5f6111f9826014611c8a565b835110156112415760405162461bcd60e51b8152602060048201526015602482015274746f416464726573735f6f75744f66426f756e647360581b6044820152606401611123565b500160200151600160601b900490565b60605f61126081808080610e37565b9050856001600160a01b031663d691c9648261127d8888886113b0565b6040518363ffffffff1660e01b815260040161129a929190611ad1565b5f604051808303815f875af11580156112b5573d5f5f3e3d5ffd5b505050506040513d5f823e601f3d908101601f191682016040526112dc9190810190611ae9565b5f815181106112ed576112ed611a1e565b6020026020010151915050949350505050565b5f5f5f61130d86866113df565b91509150815f036113315783818161132757611327611c9d565b04925050506111e6565b8184116113485761134860038515026011186113fb565b5f848688095f868103871696879004966002600389028118808a02820302808a02820302808a02820302808a02820302808a02820302808a02909103029181900381900460010185841190960395909502919093039390930492909217029150509392505050565b60608383836040516020016113c793929190611cb1565b60405160208183030381529060405290509392505050565b5f805f1983850993909202808410938190039390930393915050565b634e487b715f52806020526024601cfd5b5f81518084528060208401602086015e5f602082860101526020601f19601f83011685010191505092915050565b602081525f6111e6602083018461140c565b5f5f6020838503121561145d575f5ffd5b82356001600160401b03811115611472575f5ffd5b8301601f81018513611482575f5ffd5b80356001600160401b03811115611497575f5ffd5b8560208284010111156114a8575f5ffd5b6020919091019590945092505050565b6001600160a01b03811681146114cc575f5ffd5b50565b634e487b7160e01b5f52604160045260245ffd5b604080519081016001600160401b0381118282101715611505576115056114cf565b60405290565b604051606081016001600160401b0381118282101715611505576115056114cf565b604051601f8201601f191681016001600160401b0381118282101715611555576115556114cf565b604052919050565b5f6001600160401b03821115611575576115756114cf565b50601f01601f191660200190565b5f82601f830112611592575f5ffd5b81356115a56115a08261155d565b61152d565b8181528460208386010111156115b9575f5ffd5b816020850160208301375f918101602001919091529392505050565b5f5f5f5f608085870312156115e8575f5ffd5b84356115f3816114b8565b93506020850135611603816114b8565b92506040850135611613816114b8565b915060608501356001600160401b0381111561162d575f5ffd5b61163987828801611583565b91505092959194509250565b5f602082016020835280845180835260408501915060408160051b8601019250602086015f5b828110156116c657868503603f19018452815180516001600160a01b03168652602080820151908701526040908101516060918701829052906116b09087018261140c565b955050602093840193919091019060010161166b565b50929695505050505050565b5f602082840312156116e2575f5ffd5b81356111e6816114b8565b5f602082840312156116fd575f5ffd5b5035919050565b5f6001600160401b0382111561171c5761171c6114cf565b5060051b60200190565b5f82601f830112611735575f5ffd5b81356117436115a082611704565b8082825260208201915060208360051b860101925085831115611764575f5ffd5b602085015b838110156117a45780356001600160401b03811115611786575f5ffd5b611795886020838a0101611583565b84525060209283019201611769565b5095945050505050565b5f602082840312156117be575f5ffd5b81356001600160401b038111156117d3575f5ffd5b8201604081850312156117e4575f5ffd5b6117ec6114e3565b81356001600160401b03811115611801575f5ffd5b8201601f81018613611811575f5ffd5b803561181f6115a082611704565b8082825260208201915060208360051b850101925088831115611840575f5ffd5b6020840193505b8284101561186b57833561185a816114b8565b825260209384019390910190611847565b845250505060208201356001600160401b03811115611888575f5ffd5b61189486828501611726565b602083015250949350505050565b6001600160a01b038481168252831660208201526060604082018190525f90610e989083018461140c565b5f82601f8301126118dc575f5ffd5b81516118ea6115a08261155d565b8181528460208386010111156118fe575f5ffd5b8160208501602083015e5f918101602001919091529392505050565b5f6020828403121561192a575f5ffd5b81516001600160401b0381111561193f575f5ffd5b8201601f8101841361194f575f5ffd5b805161195d6115a082611704565b8082825260208201915060208360051b85010192508683111561197e575f5ffd5b602084015b83811015611a135780516001600160401b038111156119a0575f5ffd5b85016060818a03601f190112156119b5575f5ffd5b6119bd61150b565b60208201516119cb816114b8565b81526040820151602082015260608201516001600160401b038111156119ef575f5ffd5b6119fe8b6020838601016118cd565b60408301525084525060209283019201611983565b509695505050505050565b634e487b7160e01b5f52603260045260245ffd5b805160208201516001600160e01b0319811691906004821015611a69576001600160e01b0319600483900360031b81901b82161692505b5050919050565b634e487b7160e01b5f52601160045260245ffd5b818103818111156106bb576106bb611a70565b5f60208284031215611aa7575f5ffd5b815180151581146111e6575f5ffd5b5f60208284031215611ac6575f5ffd5b81516111e6816114b8565b828152604060208201525f61047b604083018461140c565b5f60208284031215611af9575f5ffd5b81516001600160401b03811115611b0e575f5ffd5b8201601f81018413611b1e575f5ffd5b8051611b2c6115a082611704565b8082825260208201915060208360051b850101925086831115611b4d575f5ffd5b602084015b83811015611a135780516001600160401b03811115611b6f575f5ffd5b611b7e896020838901016118cd565b84525060209283019201611b52565b5f60208284031215611b9d575f5ffd5b8151600381106111e6575f5ffd5b634e487b7160e01b5f52602160045260245ffd5b5f60a0828403128015611bd0575f5ffd5b5060405160a081016001600160401b0381118282101715611bf357611bf36114cf565b6040528251611c01816114b8565b8152602083810151908201526040830151611c1b816114b8565b60408201526060830151611c2e816114b8565b60608201526080830151611c41816114b8565b60808201529392505050565b5f60208284031215611c5d575f5ffd5b5051919050565b80516020808301519190811015611c84575f198160200360031b1b821691505b50919050565b808201808211156106bb576106bb611a70565b634e487b7160e01b5f52601260045260245ffd5b6bffffffffffffffffffffffff198460601b1681528260148201525f82518060208501603485015e5f920160340191825250939250505056fea164736f6c634300081e000a","linkReferences":{}},"methodIdentifiers":{"execute(bytes)":"09c5eabe","isInitialized(address)":"d60b347f","isModuleType(uint256)":"ecd05961","ledgerConfiguration()":"6740419b","name()":"06fdde03","onInstall(bytes)":"6d61fe70","onUninstall(bytes)":"8a91b0e3","validateHookCompliance(address,address,address,bytes)":"4a03fda4","version()":"54fd4d50"},"id":338}