{"abi":[{"type":"function","name":"getAccountOwner","inputs":[{"name":"account","type":"address","internalType":"address"}],"outputs":[{"name":"","type":"address","internalType":"address"}],"stateMutability":"view"},{"type":"function","name":"isInitialized","inputs":[{"name":"account","type":"address","internalType":"address"}],"outputs":[{"name":"","type":"bool","internalType":"bool"}],"stateMutability":"view"},{"type":"function","name":"isModuleType","inputs":[{"name":"typeID","type":"uint256","internalType":"uint256"}],"outputs":[{"name":"","type":"bool","internalType":"bool"}],"stateMutability":"pure"},{"type":"function","name":"isValidDestinationSignature","inputs":[{"name":"sender","type":"address","internalType":"address"},{"name":"data","type":"bytes","internalType":"bytes"}],"outputs":[{"name":"","type":"bytes4","internalType":"bytes4"}],"stateMutability":"view"},{"type":"function","name":"isValidSignatureWithSender","inputs":[{"name":"","type":"address","internalType":"address"},{"name":"","type":"bytes32","internalType":"bytes32"},{"name":"","type":"bytes","internalType":"bytes"}],"outputs":[{"name":"","type":"bytes4","internalType":"bytes4"}],"stateMutability":"pure"},{"type":"function","name":"namespace","inputs":[],"outputs":[{"name":"","type":"string","internalType":"string"}],"stateMutability":"pure"},{"type":"function","name":"onInstall","inputs":[{"name":"data","type":"bytes","internalType":"bytes"}],"outputs":[],"stateMutability":"nonpayable"},{"type":"function","name":"onUninstall","inputs":[{"name":"","type":"bytes","internalType":"bytes"}],"outputs":[],"stateMutability":"nonpayable"},{"type":"function","name":"validateUserOp","inputs":[{"name":"","type":"tuple","internalType":"struct PackedUserOperation","components":[{"name":"sender","type":"address","internalType":"address"},{"name":"nonce","type":"uint256","internalType":"uint256"},{"name":"initCode","type":"bytes","internalType":"bytes"},{"name":"callData","type":"bytes","internalType":"bytes"},{"name":"accountGasLimits","type":"bytes32","internalType":"bytes32"},{"name":"preVerificationGas","type":"uint256","internalType":"uint256"},{"name":"gasFees","type":"bytes32","internalType":"bytes32"},{"name":"paymasterAndData","type":"bytes","internalType":"bytes"},{"name":"signature","type":"bytes","internalType":"bytes"}]},{"name":"","type":"bytes32","internalType":"bytes32"}],"outputs":[{"name":"","type":"uint256","internalType":"ERC7579ValidatorBase.ValidationData"}],"stateMutability":"pure"},{"type":"error","name":"ALREADY_INITIALIZED","inputs":[]},{"type":"error","name":"ECDSAInvalidSignature","inputs":[]},{"type":"error","name":"ECDSAInvalidSignatureLength","inputs":[{"name":"length","type":"uint256","internalType":"uint256"}]},{"type":"error","name":"ECDSAInvalidSignatureS","inputs":[{"name":"s","type":"bytes32","internalType":"bytes32"}]},{"type":"error","name":"INVALID_CHAIN_ID","inputs":[]},{"type":"error","name":"INVALID_DESTINATION_PROOF","inputs":[]},{"type":"error","name":"INVALID_PROOF","inputs":[]},{"type":"error","name":"INVALID_SENDER","inputs":[]},{"type":"error","name":"ModuleAlreadyInitialized","inputs":[{"name":"smartAccount","type":"address","internalType":"address"}]},{"type":"error","name":"NOT_IMPLEMENTED","inputs":[]},{"type":"error","name":"NOT_INITIALIZED","inputs":[]},{"type":"error","name":"NotInitialized","inputs":[{"name":"smartAccount","type":"address","internalType":"address"}]},{"type":"error","name":"PROOF_NOT_FOUND","inputs":[]},{"type":"error","name":"ZERO_ADDRESS","inputs":[]}],"bytecode":{"object":"0x6080604052348015600e575f5ffd5b50611c458061001c5f395ff3fe608060405234801561000f575f5ffd5b5060043610610090575f3560e01c80638a91b0e3116100635780638a91b0e3146101325780639700320314610145578063d60b347f14610166578063ecd05961146101a1578063f551e2ee146101b5575f5ffd5b8063442b172c146100945780635c2ec0f3146100dc5780636d61fe70146101085780637c015a891461011d575b5f5ffd5b6100bf6100a23660046110d7565b6001600160a01b039081165f908152600160205260409020541690565b6040516001600160a01b0390911681526020015b60405180910390f35b6100ef6100ea36600461112f565b6101c3565b6040516001600160e01b031990911681526020016100d3565b61011b61011636600461117f565b610282565b005b61012561032d565b6040516100d391906111eb565b61011b61014036600461117f565b61035f565b6101586101533660046111fd565b6103be565b6040519081526020016100d3565b6101916101743660046110d7565b6001600160a01b03165f9081526020819052604090205460ff1690565b60405190151581526020016100d3565b6101916101af366004611243565b60011490565b6100ef61015336600461125a565b6001600160a01b0383165f9081526020819052604081205460ff166101fb57604051630f68fe6360e21b815260040160405180910390fd5b5f5f61023d85858080601f0160208091040260200160405190810160405280939291908181526020018383808284375f920191909152508a92506103d8915050565b915091505f61024d87848461045b565b5090505f6102608289866020015161050f565b90508061026d575f610276565b635c2ec0f360e01b5b98975050505050505050565b335f9081526020819052604090205460ff16156102b25760405163439a74c960e01b815260040160405180910390fd5b5f6102bf828401846110d7565b90506001600160a01b0381166102e85760405163538ba4f960e01b815260040160405180910390fd5b335f908152602081815260408083208054600160ff199091168117909155909152902080546001600160a01b0319166001600160a01b03929092169190911790555050565b606061035a60408051808201909152600e81526d29bab832b92b30b634b230ba37b960911b602082015290565b905090565b335f9081526020819052604090205460ff1661038e57604051630f68fe6360e21b815260040160405180910390fd5b5050335f90815260208181526040808320805460ff191690556001909152902080546001600160a01b0319169055565b5f6040516343f6e4ab60e01b815260040160405180910390fd5b6104186040518060c001604052805f151581526020015f65ffffffffffff1681526020015f81526020016060815260200160608152602001606081525090565b610420611072565b5f5f8580602001905181019061043691906113aa565b915091506104438261055c565b61044d82876105f6565b9350935050505b9250929050565b5f5f61048b836040516020016104719190611447565b60405160208183030381529060405285602001515f6106c8565b90506104a4610499856106f4565b856040015183610784565b6104c15760405163712eb08760e01b815260040160405180910390fd5b6001600160a01b038086165f90815260016020526040902054166104e481610799565b156104fa576104f38186610832565b9250610506565b61050385610869565b92505b50935093915050565b6001600160a01b038083165f9081526001602052604081205490918581169116148015610554575065ffffffffffff821615806105545750428265ffffffffffff1610155b949350505050565b61059c6040518060c001604052805f151581526020015f65ffffffffffff1681526020015f81526020016060815260200160608152602001606081525090565b5f5f5f5f5f5f878060200190518101906105b691906117eb565b6040805160c081018252961515875265ffffffffffff9095166020870152938501929092526060840152608083015260a082015298975050505050505050565b6105fe611072565b5f5f5f5f5f5f8880602001905181019061061891906118a6565b955095509550955095509550836001600160a01b0316886001600160a01b0316146106565760405163b78bd21b60e01b815260040160405180910390fd5b46856001600160401b03161461067f5760405163030042b760e01b815260040160405180910390fd5b6040805160c0810182529687526001600160401b0390951660208701526001600160a01b039384169486019490945291166060840152608083015260a082015290505b92915050565b5f5f848060200190518101906106de919061195a565b90506106eb8185306108b8565b95945050505050565b6080810151516060905f5b8181101561076a57468460800151828151811061071e5761071e611a4b565b6020026020010151602001516001600160401b031603610762578360800151818151811061074e5761074e611a4b565b60200260200101515f015192505050919050565b6001016106ff565b506040516375da1edb60e11b815260040160405180910390fd5b5f826107908584610927565b14949350505050565b60408051600481526024810182526020810180516001600160e01b031663a0e67e2b60e01b17905290515f91829182916001600160a01b038616916107de9190611a5f565b5f60405180830381855afa9150503d805f8114610816576040519150601f19603f3d011682016040523d82523d5f602084013e61081b565b606091505b509150915081801561055457505115159392505050565b5f610855826108448460400151610969565b6001600160a01b03861691906109a1565b156108615750816106c2565b505f92915050565b5f5f6108788360400151610969565b7f19457468657265756d205369676e6564204d6573736167653a0a3332000000005f908152601c829052603c812091925050610554818560a00151610bff565b82516020808501516040808701516060880151608089015160a08a015193515f976108eb97909695918b918b9101611a75565b60408051601f19818403018152828252805160209182012090830152016040516020818303038152906040528051906020012090509392505050565b5f81815b8451811015610961576109578286838151811061094a5761094a611a4b565b6020026020010151610c27565b915060010161092b565b509392505050565b5f61097261032d565b82604051602001610984929190611b39565b604051602081830303815290604052805190602001209050919050565b604080518082018252600d81526c5375706572666f726d5361666560981b6020918201528151808301835260058152640312e302e360dc1b9082015281517f8b73c3c69bb8fe3d512ecc4cf759cc79239f7b179b0ffacaa9a75d522b39400f818301527fe2c6934fb785b5f60008275f0609066361e48bc175bda8e1160d2680b4c1849d818401527f06c015bd22b4c69690933c1058878ebdfef31f9aaae40bbe86d8a09fe1b2972c6060820152600160808201526001600160a01b03861660a08083018290528451808403909101815260c08301855280519084012060e080840187905285518085039091018152610100840186528051908501207f60b3cbf8b4a223d68d641b3b6ddf9a298e7f33710cf3d3a9d1146b5a6150fbca610120850152610140808501919091528551808503909101815261016084018652805190850120601960f81b610180850152600160f81b61018185015261018284018290526101a280850191909152855180850390910181526101c284018087528151919095012063a0e67e2b60e01b90945293515f94939285929163a0e67e2b916101c68082019286929091908290030181865afa158015610b63573d5f5f3e3d5ffd5b505050506040513d5f823e601f3d908101601f19168201604052610b8a9190810190611b5a565b90505f876001600160a01b031663e75235b86040518163ffffffff1660e01b8152600401602060405180830381865afa158015610bc9573d5f5f3e3d5ffd5b505050506040513d601f19601f82011682018060405250810190610bed9190611b8b565b9050610276838860a001518484610c56565b5f5f5f5f610c0d8686610e47565b925092509250610c1d8282610e90565b5090949350505050565b5f818310610c41575f828152602084905260409020610c4f565b5f8381526020839052604090205b9392505050565b5f811580610c6357508251155b15610c6f57505f610554565b610c7a826041611bb6565b84511015610c8957505f610554565b83516014905f90610c9b908390611bcd565b9050610ca8846041611bb6565b811015610cb9575f92505050610554565b5f80805b86811015610e38575f610cd1826041611bb6565b610cdc906014611be0565b8a51909150610cec826041611be0565b1115610d00575f9650505050505050610554565b898101602081015160408201516060909201519091905f1a80158015610d24575082155b8015610d2e575081155b15610d3c5750505050610e30565b601b8160ff161015610d5657610d53601b82611bf3565b90505b5f60018f8386866040515f8152602001604052604051610d92949392919093845260ff9290921660208401526040830152606082015260800190565b6020604051602081039080840390855afa158015610db2573d5f5f3e3d5ffd5b5050604051601f1901519150506001600160a01b038116610ddf575f9a5050505050505050505050610554565b610de9818e610f51565b15610e2a57876001600160a01b0316816001600160a01b031611610e19575f9a5050505050505050505050610554565b86610e2381611c0c565b9750508097505b50505050505b600101610cbd565b50909414979650505050505050565b5f5f5f8351604103610e7e576020840151604085015160608601515f1a610e7088828585610faa565b955095509550505050610e89565b505081515f91506002905b9250925092565b5f826003811115610ea357610ea3611c24565b03610eac575050565b6001826003811115610ec057610ec0611c24565b03610ede5760405163f645eedf60e01b815260040160405180910390fd5b6002826003811115610ef257610ef2611c24565b03610f185760405163fce698f760e01b8152600481018290526024015b60405180910390fd5b6003826003811115610f2c57610f2c611c24565b03610f4d576040516335e2f38360e21b815260048101829052602401610f0f565b5050565b5f805b8251811015610fa157836001600160a01b0316838281518110610f7957610f79611a4b565b60200260200101516001600160a01b031603610f995760019150506106c2565b600101610f54565b505f9392505050565b5f80807f7fffffffffffffffffffffffffffffff5d576e7357a4501ddfe92f46681b20a0841115610fe357505f91506003905082611068565b604080515f808252602082018084528a905260ff891692820192909252606081018790526080810186905260019060a0016020604051602081039080840390855afa158015611034573d5f5f3e3d5ffd5b5050604051601f1901519150506001600160a01b03811661105f57505f925060019150829050611068565b92505f91508190505b9450945094915050565b6040518060c00160405280606081526020015f6001600160401b031681526020015f6001600160a01b031681526020015f6001600160a01b0316815260200160608152602001606081525090565b6001600160a01b03811681146110d4575f5ffd5b50565b5f602082840312156110e7575f5ffd5b8135610c4f816110c0565b5f5f83601f840112611102575f5ffd5b5081356001600160401b03811115611118575f5ffd5b602083019150836020828501011115610454575f5ffd5b5f5f5f60408486031215611141575f5ffd5b833561114c816110c0565b925060208401356001600160401b03811115611166575f5ffd5b611172868287016110f2565b9497909650939450505050565b5f5f60208385031215611190575f5ffd5b82356001600160401b038111156111a5575f5ffd5b6111b1858286016110f2565b90969095509350505050565b5f81518084528060208401602086015e5f602082860101526020601f19601f83011685010191505092915050565b602081525f610c4f60208301846111bd565b5f5f6040838503121561120e575f5ffd5b82356001600160401b03811115611223575f5ffd5b83016101208186031215611235575f5ffd5b946020939093013593505050565b5f60208284031215611253575f5ffd5b5035919050565b5f5f5f5f6060858703121561126d575f5ffd5b8435611278816110c0565b93506020850135925060408501356001600160401b03811115611299575f5ffd5b6112a5878288016110f2565b95989497509550505050565b634e487b7160e01b5f52604160045260245ffd5b604051606081016001600160401b03811182821017156112e7576112e76112b1565b60405290565b60405160c081016001600160401b03811182821017156112e7576112e76112b1565b604051601f8201601f191681016001600160401b0381118282101715611337576113376112b1565b604052919050565b5f82601f83011261134e575f5ffd5b81516001600160401b03811115611367576113676112b1565b61137a601f8201601f191660200161130f565b81815284602083860101111561138e575f5ffd5b8160208501602083015e5f918101602001919091529392505050565b5f5f604083850312156113bb575f5ffd5b82516001600160401b038111156113d0575f5ffd5b6113dc8582860161133f565b92505060208301516001600160401b038111156113f7575f5ffd5b6114038582860161133f565b9150509250929050565b5f8151808452602084019350602083015f5b8281101561143d57815186526020958601959091019060010161141f565b5093949350505050565b602081525f825160c0602084015261146260e08401826111bd565b6020858101516001600160401b03166040868101919091528601516001600160a01b0390811660608088019190915287015116608080870191909152860151858303601f190160a0870152805180845290820193505f92909101905b808310156114e95783516001600160a01b0316825260209384019360019390930192909101906114be565b5060a0860151858203601f190160c08701529250611507818461140d565b9695505050505050565b805165ffffffffffff81168114611526575f5ffd5b919050565b5f6001600160401b03821115611543576115436112b1565b5060051b60200190565b5f82601f83011261155c575f5ffd5b815161156f61156a8261152b565b61130f565b8082825260208201915060208360051b860101925085831115611590575f5ffd5b602085015b838110156115ad578051835260209283019201611595565b5095945050505050565b80516001600160401b0381168114611526575f5ffd5b8051611526816110c0565b5f82601f8301126115e7575f5ffd5b81516115f561156a8261152b565b8082825260208201915060208360051b860101925085831115611616575f5ffd5b602085015b838110156115ad57805161162e816110c0565b83526020928301920161161b565b5f82601f83011261164b575f5ffd5b815161165961156a8261152b565b8082825260208201915060208360051b86010192508583111561167a575f5ffd5b602085015b838110156115ad5780516001600160401b0381111561169c575f5ffd5b86016060818903601f190112156116b1575f5ffd5b6116b96112c5565b60208201516001600160401b038111156116d1575f5ffd5b6116e08a60208386010161154d565b8252506116ef604083016115b7565b602082015260608201516001600160401b0381111561170c575f5ffd5b60208184010192505060c0828a031215611724575f5ffd5b61172c6112ed565b611735836115cd565b8152611743602084016115cd565b602082015260408301516001600160401b03811115611760575f5ffd5b61176c8b8286016115d8565b60408301525060608301516001600160401b0381111561178a575f5ffd5b6117968b82860161154d565b6060830152506117a8608084016115cd565b608082015260a08301516001600160401b038111156117c5575f5ffd5b6117d18b82860161133f565b60a08301525060408201528452506020928301920161167f565b5f5f5f5f5f5f60c08789031215611800575f5ffd5b8651801515811461180f575f5ffd5b955061181d60208801611511565b6040880151606089015191965094506001600160401b0381111561183f575f5ffd5b61184b89828a0161154d565b93505060808701516001600160401b03811115611866575f5ffd5b61187289828a0161163c565b92505060a08701516001600160401b0381111561188d575f5ffd5b61189989828a0161133f565b9150509295509295509295565b5f5f5f5f5f5f60c087890312156118bb575f5ffd5b86516001600160401b038111156118d0575f5ffd5b6118dc89828a0161133f565b9650506118eb602088016115b7565b945060408701516118fb816110c0565b606088015190945061190c816110c0565b60808801519093506001600160401b03811115611927575f5ffd5b61193389828a016115d8565b92505060a08701516001600160401b0381111561194e575f5ffd5b61189989828a0161154d565b5f6020828403121561196a575f5ffd5b81516001600160401b0381111561197f575f5ffd5b820160c08185031215611990575f5ffd5b6119986112ed565b81516001600160401b038111156119ad575f5ffd5b6119b98682850161133f565b8252506119c8602083016115b7565b60208201526119d9604083016115cd565b60408201526119ea606083016115cd565b606082015260808201516001600160401b03811115611a07575f5ffd5b611a13868285016115d8565b60808301525060a08201516001600160401b03811115611a31575f5ffd5b611a3d8682850161154d565b60a083015250949350505050565b634e487b7160e01b5f52603260045260245ffd5b5f82518060208501845e5f920191825250919050565b61010081525f611a8961010083018b6111bd565b6001600160401b038a166020848101919091526001600160a01b038a81166040860152891660608501528382036080850152875180835288820192909101905f5b81811015611af15783516001600160a01b0316835260209384019390920191600101611aca565b505083810360a0850152611b05818861140d565b92505050611b1d60c083018565ffffffffffff169052565b6001600160a01b03831660e08301529998505050505050505050565b604081525f611b4b60408301856111bd565b90508260208301529392505050565b5f60208284031215611b6a575f5ffd5b81516001600160401b03811115611b7f575f5ffd5b610554848285016115d8565b5f60208284031215611b9b575f5ffd5b5051919050565b634e487b7160e01b5f52601160045260245ffd5b80820281158282048414176106c2576106c2611ba2565b818103818111156106c2576106c2611ba2565b808201808211156106c2576106c2611ba2565b60ff81811683821601908111156106c2576106c2611ba2565b5f60018201611c1d57611c1d611ba2565b5060010190565b634e487b7160e01b5f52602160045260245ffdfea164736f6c634300081e000a","linkReferences":{}},"methodIdentifiers":{"getAccountOwner(address)":"442b172c","isInitialized(address)":"d60b347f","isModuleType(uint256)":"ecd05961","isValidDestinationSignature(address,bytes)":"5c2ec0f3","isValidSignatureWithSender(address,bytes32,bytes)":"f551e2ee","namespace()":"7c015a89","onInstall(bytes)":"6d61fe70","onUninstall(bytes)":"8a91b0e3","validateUserOp((address,uint256,bytes,bytes,bytes32,uint256,bytes32,bytes,bytes),bytes32)":"97003203"},"id":420}