{"abi":[{"type":"function","name":"VALID_SIGNATURE","inputs":[],"outputs":[{"name":"","type":"bytes4","internalType":"bytes4"}],"stateMutability":"view"},{"type":"function","name":"getAccountOwner","inputs":[{"name":"account","type":"address","internalType":"address"}],"outputs":[{"name":"","type":"address","internalType":"address"}],"stateMutability":"view"},{"type":"function","name":"isInitialized","inputs":[{"name":"account","type":"address","internalType":"address"}],"outputs":[{"name":"","type":"bool","internalType":"bool"}],"stateMutability":"view"},{"type":"function","name":"isModuleType","inputs":[{"name":"typeID","type":"uint256","internalType":"uint256"}],"outputs":[{"name":"","type":"bool","internalType":"bool"}],"stateMutability":"pure"},{"type":"function","name":"isValidSignatureWithSender","inputs":[{"name":"","type":"address","internalType":"address"},{"name":"dataHash","type":"bytes32","internalType":"bytes32"},{"name":"data","type":"bytes","internalType":"bytes"}],"outputs":[{"name":"","type":"bytes4","internalType":"bytes4"}],"stateMutability":"view"},{"type":"function","name":"namespace","inputs":[],"outputs":[{"name":"","type":"string","internalType":"string"}],"stateMutability":"pure"},{"type":"function","name":"onInstall","inputs":[{"name":"data","type":"bytes","internalType":"bytes"}],"outputs":[],"stateMutability":"nonpayable"},{"type":"function","name":"onUninstall","inputs":[{"name":"","type":"bytes","internalType":"bytes"}],"outputs":[],"stateMutability":"nonpayable"},{"type":"function","name":"retrieveSignatureData","inputs":[{"name":"account","type":"address","internalType":"address"}],"outputs":[{"name":"","type":"bytes","internalType":"bytes"}],"stateMutability":"view"},{"type":"function","name":"validateUserOp","inputs":[{"name":"_userOp","type":"tuple","internalType":"struct PackedUserOperation","components":[{"name":"sender","type":"address","internalType":"address"},{"name":"nonce","type":"uint256","internalType":"uint256"},{"name":"initCode","type":"bytes","internalType":"bytes"},{"name":"callData","type":"bytes","internalType":"bytes"},{"name":"accountGasLimits","type":"bytes32","internalType":"bytes32"},{"name":"preVerificationGas","type":"uint256","internalType":"uint256"},{"name":"gasFees","type":"bytes32","internalType":"bytes32"},{"name":"paymasterAndData","type":"bytes","internalType":"bytes"},{"name":"signature","type":"bytes","internalType":"bytes"}]},{"name":"_userOpHash","type":"bytes32","internalType":"bytes32"}],"outputs":[{"name":"","type":"uint256","internalType":"ERC7579ValidatorBase.ValidationData"}],"stateMutability":"nonpayable"},{"type":"error","name":"ALREADY_INITIALIZED","inputs":[]},{"type":"error","name":"ECDSAInvalidSignature","inputs":[]},{"type":"error","name":"ECDSAInvalidSignatureLength","inputs":[{"name":"length","type":"uint256","internalType":"uint256"}]},{"type":"error","name":"ECDSAInvalidSignatureS","inputs":[{"name":"s","type":"bytes32","internalType":"bytes32"}]},{"type":"error","name":"INVALID_CHAIN_ID","inputs":[]},{"type":"error","name":"INVALID_DESTINATION_PROOF","inputs":[]},{"type":"error","name":"INVALID_PROOF","inputs":[]},{"type":"error","name":"INVALID_SENDER","inputs":[]},{"type":"error","name":"INVALID_USER_OP","inputs":[]},{"type":"error","name":"INVALID_USER_OP","inputs":[]},{"type":"error","name":"ModuleAlreadyInitialized","inputs":[{"name":"smartAccount","type":"address","internalType":"address"}]},{"type":"error","name":"NOT_IMPLEMENTED","inputs":[]},{"type":"error","name":"NOT_INITIALIZED","inputs":[]},{"type":"error","name":"NotInitialized","inputs":[{"name":"smartAccount","type":"address","internalType":"address"}]},{"type":"error","name":"PROOF_NOT_FOUND","inputs":[]},{"type":"error","name":"ZERO_ADDRESS","inputs":[]}],"bytecode":{"object":"0x6080604052348015600e575f5ffd5b50611bb08061001c5f395ff3fe608060405234801561000f575f5ffd5b506004361061009b575f3560e01c80638ee749ca116100635780638ee749ca1461013b5780639700320314610162578063d60b347f14610183578063ecd05961146101be578063f551e2ee146101d2575f5ffd5b80630f65bac51461009f578063442b172c146100c85780636d61fe701461010b5780637c015a89146101205780638a91b0e314610128575b5f5ffd5b6100b26100ad3660046112a8565b6101e5565b6040516100bf91906112f1565b60405180910390f35b6100f36100d63660046112a8565b6001600160a01b039081165f908152600160205260409020541690565b6040516001600160a01b0390911681526020016100bf565b61011e610119366004611347565b610201565b005b6100b26102ac565b61011e610136366004611347565b6102de565b610149630b135d3f60e11b81565b6040516001600160e01b031990911681526020016100bf565b610175610170366004611385565b61033d565b6040519081526020016100bf565b6101ae6101913660046112a8565b6001600160a01b03165f9081526020819052604090205460ff1690565b60405190151581526020016100bf565b6101ae6101cc3660046113cb565b60011490565b6101496101e03660046113e2565b61058d565b60606001600160a01b0382166101fa8161061b565b9392505050565b335f9081526020819052604090205460ff16156102315760405163439a74c960e01b815260040160405180910390fd5b5f61023e828401846112a8565b90506001600160a01b0381166102675760405163538ba4f960e01b815260040160405180910390fd5b335f908152602081815260408083208054600160ff199091168117909155909152902080546001600160a01b0319166001600160a01b03929092169190911790555050565b60606102d960408051808201909152600e81526d29bab832b92b30b634b230ba37b960911b602082015290565b905090565b335f9081526020819052604090205460ff1661030d57604051630f68fe6360e21b815260040160405180910390fd5b5050335f90815260208181526040808320805460ff191690556001909152902080546001600160a01b0319169055565b5f808061034d60208601866112a8565b6001600160a01b0316815260208101919091526040015f205460ff1661038657604051630f68fe6360e21b815260040160405180910390fd5b5f6103d1610398610100860186611439565b8080601f0160208091040260200160405190810160405280939291908181526020018383808284375f920191909152506106a492505050565b90505f6103eb6103e460208701876112a8565b838661073e565b5090505f61040a8261040060208901896112a8565b85602001516107f2565b9050808015610417575082515b15610571576080830151515f819003610443576040516302dcc9d960e11b815260040160405180910390fd5b5f5b8181101561053b575f856080015182815181106104645761046461147b565b602002602001015190505f6040518060c00160405280836040015160a00151815260200183602001516001600160401b0316815260200183604001515f01516001600160a01b031681526020018360400151602001516001600160a01b03168152602001836040015160400151815260200183604001516060015181525090505f6104fc82896020015185604001516080015161083e565b9050610510835f01518960400151836108ad565b61052d576040516302dcc9d960e11b815260040160405180910390fd5b505050806001019050610445565b505f61054a60208901896112a8565b6001600160a01b0316905061056e6105666101008a018a611439565b8391906108c2565b50505b610581811584602001515f610927565b93505050505b92915050565b335f9081526020819052604081205460ff166105bc57604051630f68fe6360e21b815260040160405180910390fd5b5f6105c983850185611543565b90505f6105d5826106a4565b90505f6105e333838961073e565b5090505f6105f6823385602001516107f2565b905080610603575f61060c565b630b135d3f60e11b5b9450505050505b949350505050565b60605f61062783610933565b9050805c806001600160401b038111156106435761064361148f565b6040519080825280601f01601f19166020018201604052801561066d576020820181803683370190505b5092505f5b8181101561069c57602081810181900484015c85830182015261069590826115d0565b9050610672565b505050919050565b6106e46040518060c001604052805f151581526020015f65ffffffffffff1681526020015f81526020016060815260200160608152602001606081525090565b5f5f5f5f5f5f878060200190518101906106fe91906118fc565b6040805160c081018252961515875265ffffffffffff9095166020870152938501929092526060840152608083015260a082015298975050505050505050565b5f5f6107728360405160200161075691815260200190565b60408051601f1981840301815291905260208601518651610986565b905061078784606001518560400151836108ad565b6107a45760405163712eb08760e01b815260040160405180910390fd5b6001600160a01b038086165f90815260016020526040902054166107c781610a08565b156107dd576107d68186610aa1565b92506107e9565b6107e685610ad8565b92505b50935093915050565b6001600160a01b038083165f9081526001602052604081205490918581169116148015610613575065ffffffffffff821615806106135750428265ffffffffffff161015949350505050565b82516020808501516040808701516060880151608089015160a08a015193515f9761087197909695918b918b91016119f1565b60408051601f19818403018152828252805160209182012090830152016040516020818303038152906040528051906020012090509392505050565b5f826108b98584610b27565b14949350505050565b5f6108cc84610933565b9050805c80156108ef5760405163a9bd11f360e01b815260040160405180910390fd5b8280835d5f5b8181101561091e57858101358060208084010486015d506109176020826115d0565b90506108f5565b50505050505050565b5f610613848484610b69565b604080517f10f373395e5c9f816ee3fda0a2b50417c869ccbb40eb3cb5bb0a96939cc2618d60208201529081018290525f906060015b604051602081830303815290604052805190602001209050919050565b5f5f8480602001905181019061099c9190611ab5565b604080516020810183905265ffffffffffff871691810191909152841515606082015230608082015290915060a00160408051601f1981840301815282825280516020918201209083015201604051602081830303815290604052805190602001209150509392505050565b60408051600481526024810182526020810180516001600160e01b031663a0e67e2b60e01b17905290515f91829182916001600160a01b03861691610a4d9190611acc565b5f60405180830381855afa9150503d805f8114610a85576040519150601f19603f3d011682016040523d82523d5f602084013e610a8a565b606091505b509150915081801561061357505115159392505050565b5f610ac482610ab38460400151610b9f565b6001600160a01b0386169190610bba565b15610ad0575081610587565b505f92915050565b5f5f610ae78360400151610b9f565b7f19457468657265756d205369676e6564204d6573736167653a0a3332000000005f908152601c829052603c812091925050610613818560a00151610e24565b5f81815b8451811015610b6157610b5782868381518110610b4a57610b4a61147b565b6020026020010151610e4c565b9150600101610b2b565b509392505050565b5f60d08265ffffffffffff16901b60a08465ffffffffffff16901b85610b8f575f610b92565b60015b60ff161717949350505050565b5f610ba86102ac565b82604051602001610969929190611ae2565b604080518082018252600d81526c5375706572666f726d5361666560981b6020918201528151808301835260058152640312e302e360dc1b9082015281517f8b73c3c69bb8fe3d512ecc4cf759cc79239f7b179b0ffacaa9a75d522b39400f818301527fe2c6934fb785b5f60008275f0609066361e48bc175bda8e1160d2680b4c1849d818401527f06c015bd22b4c69690933c1058878ebdfef31f9aaae40bbe86d8a09fe1b2972c6060820152600160808201526001600160a01b03861660a08083018290528451808403909101815260c08301855280519084012060e080840187905285518085039091018152610100840186528051908501207f60b3cbf8b4a223d68d641b3b6ddf9a298e7f33710cf3d3a9d1146b5a6150fbca610120850152610140808501919091528551808503909101815261016084018652805190850120601960f81b610180850152600160f81b61018185015261018284018290526101a280850191909152855180850390910181526101c284018087528151919095012063a0e67e2b60e01b90945293515f94939285929163a0e67e2b916101c68082019286929091908290030181865afa158015610d7c573d5f5f3e3d5ffd5b505050506040513d5f823e601f3d908101601f19168201604052610da39190810190611b03565b90505f876001600160a01b031663e75235b86040518163ffffffff1660e01b8152600401602060405180830381865afa158015610de2573d5f5f3e3d5ffd5b505050506040513d601f19601f82011682018060405250810190610e069190611ab5565b9050610e18838860a001518484610e75565b98975050505050505050565b5f5f5f5f610e328686611066565b925092509250610e4282826110af565b5090949350505050565b5f818310610e66575f8281526020849052604090206101fa565b505f9182526020526040902090565b5f811580610e8257508251155b15610e8e57505f610613565b610e99826041611b34565b84511015610ea857505f610613565b83516014905f90610eba908390611b4b565b9050610ec7846041611b34565b811015610ed8575f92505050610613565b5f80805b86811015611057575f610ef0826041611b34565b610efb9060146115d0565b8a51909150610f0b8260416115d0565b1115610f1f575f9650505050505050610613565b898101602081015160408201516060909201519091905f1a80158015610f43575082155b8015610f4d575081155b15610f5b575050505061104f565b601b8160ff161015610f7557610f72601b82611b5e565b90505b5f60018f8386866040515f8152602001604052604051610fb1949392919093845260ff9290921660208401526040830152606082015260800190565b6020604051602081039080840390855afa158015610fd1573d5f5f3e3d5ffd5b5050604051601f1901519150506001600160a01b038116610ffe575f9a5050505050505050505050610613565b611008818e611170565b1561104957876001600160a01b0316816001600160a01b031611611038575f9a5050505050505050505050610613565b8661104281611b77565b9750508097505b50505050505b600101610edc565b50909414979650505050505050565b5f5f5f835160410361109d576020840151604085015160608601515f1a61108f888285856111c9565b9550955095505050506110a8565b505081515f91506002905b9250925092565b5f8260038111156110c2576110c2611b8f565b036110cb575050565b60018260038111156110df576110df611b8f565b036110fd5760405163f645eedf60e01b815260040160405180910390fd5b600282600381111561111157611111611b8f565b036111375760405163fce698f760e01b8152600481018290526024015b60405180910390fd5b600382600381111561114b5761114b611b8f565b0361116c576040516335e2f38360e21b81526004810182905260240161112e565b5050565b5f805b82518110156111c057836001600160a01b03168382815181106111985761119861147b565b60200260200101516001600160a01b0316036111b8576001915050610587565b600101611173565b505f9392505050565b5f80807f7fffffffffffffffffffffffffffffff5d576e7357a4501ddfe92f46681b20a084111561120257505f91506003905082611287565b604080515f808252602082018084528a905260ff891692820192909252606081018790526080810186905260019060a0016020604051602081039080840390855afa158015611253573d5f5f3e3d5ffd5b5050604051601f1901519150506001600160a01b03811661127e57505f925060019150829050611287565b92505f91508190505b9450945094915050565b6001600160a01b03811681146112a5575f5ffd5b50565b5f602082840312156112b8575f5ffd5b81356101fa81611291565b5f81518084528060208401602086015e5f602082860101526020601f19601f83011685010191505092915050565b602081525f6101fa60208301846112c3565b5f5f83601f840112611313575f5ffd5b5081356001600160401b03811115611329575f5ffd5b602083019150836020828501011115611340575f5ffd5b9250929050565b5f5f60208385031215611358575f5ffd5b82356001600160401b0381111561136d575f5ffd5b61137985828601611303565b90969095509350505050565b5f5f60408385031215611396575f5ffd5b82356001600160401b038111156113ab575f5ffd5b830161012081860312156113bd575f5ffd5b946020939093013593505050565b5f602082840312156113db575f5ffd5b5035919050565b5f5f5f5f606085870312156113f5575f5ffd5b843561140081611291565b93506020850135925060408501356001600160401b03811115611421575f5ffd5b61142d87828801611303565b95989497509550505050565b5f5f8335601e1984360301811261144e575f5ffd5b8301803591506001600160401b03821115611467575f5ffd5b602001915036819003821315611340575f5ffd5b634e487b7160e01b5f52603260045260245ffd5b634e487b7160e01b5f52604160045260245ffd5b604051606081016001600160401b03811182821017156114c5576114c561148f565b60405290565b60405160c081016001600160401b03811182821017156114c5576114c561148f565b604051601f8201601f191681016001600160401b03811182821017156115155761151561148f565b604052919050565b5f6001600160401b038211156115355761153561148f565b50601f01601f191660200190565b5f60208284031215611553575f5ffd5b81356001600160401b03811115611568575f5ffd5b8201601f81018413611578575f5ffd5b803561158b6115868261151d565b6114ed565b81815285602083850101111561159f575f5ffd5b816020840160208301375f91810160200191909152949350505050565b634e487b7160e01b5f52601160045260245ffd5b80820180821115610587576105876115bc565b805165ffffffffffff811681146115f8575f5ffd5b919050565b5f6001600160401b038211156116155761161561148f565b5060051b60200190565b5f82601f83011261162e575f5ffd5b815161163c611586826115fd565b8082825260208201915060208360051b86010192508583111561165d575f5ffd5b602085015b8381101561167a578051835260209283019201611662565b5095945050505050565b80516115f881611291565b5f82601f83011261169e575f5ffd5b81516116ac611586826115fd565b8082825260208201915060208360051b8601019250858311156116cd575f5ffd5b602085015b8381101561167a5780516116e581611291565b8352602092830192016116d2565b5f82601f830112611702575f5ffd5b81516117106115868261151d565b818152846020838601011115611724575f5ffd5b8160208501602083015e5f918101602001919091529392505050565b5f82601f83011261174f575f5ffd5b815161175d611586826115fd565b8082825260208201915060208360051b86010192508583111561177e575f5ffd5b602085015b8381101561167a5780516001600160401b038111156117a0575f5ffd5b86016060818903601f190112156117b5575f5ffd5b6117bd6114a3565b60208201516001600160401b038111156117d5575f5ffd5b6117e48a60208386010161161f565b82525060408201516001600160401b0381168114611800575f5ffd5b602082015260608201516001600160401b0381111561181d575f5ffd5b60208184010192505060c0828a031215611835575f5ffd5b61183d6114cb565b61184683611684565b815261185460208401611684565b602082015260408301516001600160401b03811115611871575f5ffd5b61187d8b82860161168f565b60408301525060608301516001600160401b0381111561189b575f5ffd5b6118a78b82860161161f565b6060830152506118b960808401611684565b608082015260a08301516001600160401b038111156118d6575f5ffd5b6118e28b8286016116f3565b60a083015250604082015284525060209283019201611783565b5f5f5f5f5f5f60c08789031215611911575f5ffd5b86518015158114611920575f5ffd5b955061192e602088016115e3565b6040880151606089015191965094506001600160401b03811115611950575f5ffd5b61195c89828a0161161f565b93505060808701516001600160401b03811115611977575f5ffd5b61198389828a01611740565b92505060a08701516001600160401b0381111561199e575f5ffd5b6119aa89828a016116f3565b9150509295509295509295565b5f8151808452602084019350602083015f5b828110156119e75781518652602095860195909101906001016119c9565b5093949350505050565b61010081525f611a0561010083018b6112c3565b6001600160401b038a166020848101919091526001600160a01b038a81166040860152891660608501528382036080850152875180835288820192909101905f5b81811015611a6d5783516001600160a01b0316835260209384019390920191600101611a46565b505083810360a0850152611a8181886119b7565b92505050611a9960c083018565ffffffffffff169052565b6001600160a01b03831660e08301529998505050505050505050565b5f60208284031215611ac5575f5ffd5b5051919050565b5f82518060208501845e5f920191825250919050565b604081525f611af460408301856112c3565b90508260208301529392505050565b5f60208284031215611b13575f5ffd5b81516001600160401b03811115611b28575f5ffd5b6106138482850161168f565b8082028115828204841417610587576105876115bc565b81810381811115610587576105876115bc565b60ff8181168382160190811115610587576105876115bc565b5f60018201611b8857611b886115bc565b5060010190565b634e487b7160e01b5f52602160045260245ffdfea164736f6c634300081e000a","linkReferences":{}},"methodIdentifiers":{"VALID_SIGNATURE()":"8ee749ca","getAccountOwner(address)":"442b172c","isInitialized(address)":"d60b347f","isModuleType(uint256)":"ecd05961","isValidSignatureWithSender(address,bytes32,bytes)":"f551e2ee","namespace()":"7c015a89","onInstall(bytes)":"6d61fe70","onUninstall(bytes)":"8a91b0e3","retrieveSignatureData(address)":"0f65bac5","validateUserOp((address,uint256,bytes,bytes,bytes32,uint256,bytes32,bytes,bytes),bytes32)":"97003203"},"id":418}