{"abi":[{"type":"constructor","inputs":[{"name":"_entryPoint","type":"address","internalType":"contract IEntryPoint"}],"stateMutability":"payable"},{"type":"function","name":"calculateRefund","inputs":[{"name":"maxGasLimit","type":"uint256","internalType":"uint256"},{"name":"maxFeePerGas","type":"uint256","internalType":"uint256"},{"name":"actualGasCost","type":"uint256","internalType":"uint256"},{"name":"nodeOperatorPremium","type":"uint256","internalType":"uint256"}],"outputs":[{"name":"refund","type":"uint256","internalType":"uint256"}],"stateMutability":"pure"},{"type":"function","name":"entryPoint","inputs":[],"outputs":[{"name":"","type":"address","internalType":"contract IEntryPoint"}],"stateMutability":"view"},{"type":"function","name":"getDeposit","inputs":[],"outputs":[{"name":"","type":"uint256","internalType":"uint256"}],"stateMutability":"view"},{"type":"function","name":"handleOps","inputs":[{"name":"ops","type":"tuple[]","internalType":"struct PackedUserOperation[]","components":[{"name":"sender","type":"address","internalType":"address"},{"name":"nonce","type":"uint256","internalType":"uint256"},{"name":"initCode","type":"bytes","internalType":"bytes"},{"name":"callData","type":"bytes","internalType":"bytes"},{"name":"accountGasLimits","type":"bytes32","internalType":"bytes32"},{"name":"preVerificationGas","type":"uint256","internalType":"uint256"},{"name":"gasFees","type":"bytes32","internalType":"bytes32"},{"name":"paymasterAndData","type":"bytes","internalType":"bytes"},{"name":"signature","type":"bytes","internalType":"bytes"}]}],"outputs":[],"stateMutability":"payable"},{"type":"function","name":"postOp","inputs":[{"name":"mode","type":"uint8","internalType":"enum IPaymaster.PostOpMode"},{"name":"context","type":"bytes","internalType":"bytes"},{"name":"actualGasCost","type":"uint256","internalType":"uint256"},{"name":"actualUserOpFeePerGas","type":"uint256","internalType":"uint256"}],"outputs":[],"stateMutability":"nonpayable"},{"type":"function","name":"simulateHandleOp","inputs":[{"name":"op","type":"tuple","internalType":"struct PackedUserOperation","components":[{"name":"sender","type":"address","internalType":"address"},{"name":"nonce","type":"uint256","internalType":"uint256"},{"name":"initCode","type":"bytes","internalType":"bytes"},{"name":"callData","type":"bytes","internalType":"bytes"},{"name":"accountGasLimits","type":"bytes32","internalType":"bytes32"},{"name":"preVerificationGas","type":"uint256","internalType":"uint256"},{"name":"gasFees","type":"bytes32","internalType":"bytes32"},{"name":"paymasterAndData","type":"bytes","internalType":"bytes"},{"name":"signature","type":"bytes","internalType":"bytes"}]},{"name":"target","type":"address","internalType":"address"},{"name":"callData","type":"bytes","internalType":"bytes"}],"outputs":[{"name":"","type":"tuple","internalType":"struct IEntryPointSimulations.ExecutionResult","components":[{"name":"preOpGas","type":"uint256","internalType":"uint256"},{"name":"paid","type":"uint256","internalType":"uint256"},{"name":"accountValidationData","type":"uint256","internalType":"uint256"},{"name":"paymasterValidationData","type":"uint256","internalType":"uint256"},{"name":"targetSuccess","type":"bool","internalType":"bool"},{"name":"targetResult","type":"bytes","internalType":"bytes"}]}],"stateMutability":"payable"},{"type":"function","name":"simulateValidation","inputs":[{"name":"op","type":"tuple","internalType":"struct PackedUserOperation","components":[{"name":"sender","type":"address","internalType":"address"},{"name":"nonce","type":"uint256","internalType":"uint256"},{"name":"initCode","type":"bytes","internalType":"bytes"},{"name":"callData","type":"bytes","internalType":"bytes"},{"name":"accountGasLimits","type":"bytes32","internalType":"bytes32"},{"name":"preVerificationGas","type":"uint256","internalType":"uint256"},{"name":"gasFees","type":"bytes32","internalType":"bytes32"},{"name":"paymasterAndData","type":"bytes","internalType":"bytes"},{"name":"signature","type":"bytes","internalType":"bytes"}]}],"outputs":[{"name":"","type":"tuple","internalType":"struct IEntryPointSimulations.ValidationResult","components":[{"name":"returnInfo","type":"tuple","internalType":"struct IEntryPoint.ReturnInfo","components":[{"name":"preOpGas","type":"uint256","internalType":"uint256"},{"name":"prefund","type":"uint256","internalType":"uint256"},{"name":"accountValidationData","type":"uint256","internalType":"uint256"},{"name":"paymasterValidationData","type":"uint256","internalType":"uint256"},{"name":"paymasterContext","type":"bytes","internalType":"bytes"}]},{"name":"senderInfo","type":"tuple","internalType":"struct IStakeManager.StakeInfo","components":[{"name":"stake","type":"uint256","internalType":"uint256"},{"name":"unstakeDelaySec","type":"uint256","internalType":"uint256"}]},{"name":"factoryInfo","type":"tuple","internalType":"struct IStakeManager.StakeInfo","components":[{"name":"stake","type":"uint256","internalType":"uint256"},{"name":"unstakeDelaySec","type":"uint256","internalType":"uint256"}]},{"name":"paymasterInfo","type":"tuple","internalType":"struct IStakeManager.StakeInfo","components":[{"name":"stake","type":"uint256","internalType":"uint256"},{"name":"unstakeDelaySec","type":"uint256","internalType":"uint256"}]},{"name":"aggregatorInfo","type":"tuple","internalType":"struct IEntryPoint.AggregatorStakeInfo","components":[{"name":"aggregator","type":"address","internalType":"address"},{"name":"stakeInfo","type":"tuple","internalType":"struct IStakeManager.StakeInfo","components":[{"name":"stake","type":"uint256","internalType":"uint256"},{"name":"unstakeDelaySec","type":"uint256","internalType":"uint256"}]}]}]}],"stateMutability":"payable"},{"type":"function","name":"validatePaymasterUserOp","inputs":[{"name":"userOp","type":"tuple","internalType":"struct PackedUserOperation","components":[{"name":"sender","type":"address","internalType":"address"},{"name":"nonce","type":"uint256","internalType":"uint256"},{"name":"initCode","type":"bytes","internalType":"bytes"},{"name":"callData","type":"bytes","internalType":"bytes"},{"name":"accountGasLimits","type":"bytes32","internalType":"bytes32"},{"name":"preVerificationGas","type":"uint256","internalType":"uint256"},{"name":"gasFees","type":"bytes32","internalType":"bytes32"},{"name":"paymasterAndData","type":"bytes","internalType":"bytes"},{"name":"signature","type":"bytes","internalType":"bytes"}]},{"name":"userOpHash","type":"bytes32","internalType":"bytes32"},{"name":"maxCost","type":"uint256","internalType":"uint256"}],"outputs":[{"name":"context","type":"bytes","internalType":"bytes"},{"name":"validationData","type":"uint256","internalType":"uint256"}],"stateMutability":"nonpayable"},{"type":"event","name":"SuperNativePaymasterPostOp","inputs":[{"name":"context","type":"bytes","indexed":false,"internalType":"bytes"}],"anonymous":false},{"type":"event","name":"SuperNativePaymasterRefund","inputs":[{"name":"sender","type":"address","indexed":true,"internalType":"address"},{"name":"refundAmount","type":"uint256","indexed":false,"internalType":"uint256"},{"name":"initialRefund","type":"uint256","indexed":false,"internalType":"uint256"}],"anonymous":false},{"type":"event","name":"UserOperationsHandled","inputs":[{"name":"sender","type":"address","indexed":true,"internalType":"address"},{"name":"numOps","type":"uint256","indexed":false,"internalType":"uint256"},{"name":"initialAmount","type":"uint256","indexed":false,"internalType":"uint256"},{"name":"withdrawnAmount","type":"uint256","indexed":false,"internalType":"uint256"}],"anonymous":false},{"type":"error","name":"EMPTY_MESSAGE_VALUE","inputs":[]},{"type":"error","name":"INSUFFICIENT_BALANCE","inputs":[]},{"type":"error","name":"INVALID_MAX_GAS_LIMIT","inputs":[]},{"type":"error","name":"INVALID_NODE_OPERATOR_PREMIUM","inputs":[]},{"type":"error","name":"ZERO_ADDRESS","inputs":[]}],"bytecode":{"object":"0x60a06040526040516119ca3803806119ca83398101604081905261002291610122565b8061002c81610062565b6001600160a01b0390811660805281163b5f0361005c5760405163538ba4f960e01b815260040160405180910390fd5b5061016e565b6040516301ffc9a760e01b815263122a0e9b60e31b60048201526001600160a01b038216906301ffc9a790602401602060405180830381865afa1580156100ab573d5f5f3e3d5ffd5b505050506040513d601f19601f820116820180604052508101906100cf919061014f565b61011f5760405162461bcd60e51b815260206004820152601e60248201527f49456e747279506f696e7420696e74657266616365206d69736d617463680000604482015260640160405180910390fd5b50565b5f60208284031215610132575f5ffd5b81516001600160a01b0381168114610148575f5ffd5b9392505050565b5f6020828403121561015f575f5ffd5b81518015158114610148575f5ffd5b6080516117fe6101cc5f395f818161014101528181610246015281816102ec01528181610368015281816103fa0152818161051701528181610625015281816106c60152818161086f015281816109e90152610a9601526117fe5ff3fe608060405260043610610079575f3560e01c806397b2dcb91161004c57806397b2dcb914610110578063b0d691fe14610130578063c399ec881461017b578063c3bce0091461018f575f5ffd5b806324a29b4f1461007d57806352b7512c146100af57806357956b58146100dc5780637c627b21146100f1575b5f5ffd5b348015610088575f5ffd5b5061009c610097366004610ca8565b6101af565b6040519081526020015b60405180910390f35b3480156100ba575f5ffd5b506100ce6100c9366004610cee565b61021a565b6040516100a6929190610d65565b6100ef6100ea366004610d86565b61023c565b005b3480156100fc575f5ffd5b506100ef61010b366004610e39565b6104a2565b61012361011e366004610ec4565b6104be565b6040516100a69190610f3b565b34801561013b575f5ffd5b506101637f000000000000000000000000000000000000000000000000000000000000000081565b6040516001600160a01b0390911681526020016100a6565b348015610186575f5ffd5b5061009c61060e565b6101a261019d366004610f91565b61069b565b6040516100a69190610fc2565b5f6127108211156101d357604051634ac0eaf160e01b815260040160405180910390fd5b5f6101ec846101e4856127106110a8565b6127106107b4565b90505f6101f986886110bb565b9050808210156102105761020d82826110d2565b92505b5050949350505050565b60605f610225610864565b6102308585856108da565b91509150935093915050565b4780156102d5575f7f00000000000000000000000000000000000000000000000000000000000000006001600160a01b0316826040515f6040518083038185875af1925050503d805f81146102ac576040519150601f19603f3d011682016040523d82523d5f602084013e6102b1565b606091505b50509050806102d357604051632858f9ab60e11b815260040160405180910390fd5b505b60405163765e827f60e01b81526001600160a01b037f0000000000000000000000000000000000000000000000000000000000000000169063765e827f9061032590869086903390600401611223565b5f604051808303815f87803b15801561033c575f5ffd5b505af115801561034e573d5f5f3e3d5ffd5b5050604051632943e70960e11b81523060048201525f92507f00000000000000000000000000000000000000000000000000000000000000006001600160a01b03169150635287ce129060240160a060405180830381865afa1580156103b6573d5f5f3e3d5ffd5b505050506040513d601f19601f820116820180604052508101906103da919061133c565b5160405163040b850f60e31b8152336004820152602481018290529091507f00000000000000000000000000000000000000000000000000000000000000006001600160a01b03169063205c2878906044015f604051808303815f87803b158015610443575f5ffd5b505af1158015610455573d5f5f3e3d5ffd5b505060408051868152602081018690529081018490523392507fc2983a53d118d29e96e7fe9b12bc6892b76bee666f67db5b9168badefb6f6b38915060600160405180910390a250505050565b6104aa610864565b6104b78585858585610994565b5050505050565b6104f46040518060c001604052805f81526020015f81526020015f81526020015f81526020015f15158152602001606081525090565b345f036105145760405163c894453360e01b815260040160405180910390fd5b5f7f000000000000000000000000000000000000000000000000000000000000000060405163b760faf960e01b81523060048201529091506001600160a01b0382169063b760faf99034906024015f604051808303818588803b158015610579575f5ffd5b505af115801561058b573d5f5f3e3d5ffd5b50506040516397b2dcb960e01b81526001600160a01b03851693506397b2dcb992506105c2915089908990899089906004016113cf565b5f604051808303815f875af11580156105dd573d5f5f3e3d5ffd5b505050506040513d5f823e601f3d908101601f191682016040526106049190810190611497565b9695505050505050565b6040516370a0823160e01b81523060048201525f907f00000000000000000000000000000000000000000000000000000000000000006001600160a01b0316906370a0823190602401602060405180830381865afa158015610672573d5f5f3e3d5ffd5b505050506040513d601f19601f82011682018060405250810190610696919061153a565b905090565b6106a3610bc8565b345f036106c35760405163c894453360e01b815260040160405180910390fd5b5f7f000000000000000000000000000000000000000000000000000000000000000060405163b760faf960e01b81523060048201529091506001600160a01b0382169063b760faf99034906024015f604051808303818588803b158015610728575f5ffd5b505af115801561073a573d5f5f3e3d5ffd5b505060405163c3bce00960e01b81526001600160a01b038516935063c3bce009925061076b91508690600401611551565b5f604051808303815f875af1158015610786573d5f5f3e3d5ffd5b505050506040513d5f823e601f3d908101601f191682016040526107ad91908101906115d1565b9392505050565b5f5f5f6107c18686610b7c565b91509150815f036107e5578381816107db576107db6116dd565b04925050506107ad565b8184116107fc576107fc6003851502601118610b98565b5f848688095f868103871696879004966002600389028118808a02820302808a02820302808a02820302808a02820302808a02820302808a02909103029181900381900460010185841190960395909502919093039390930492909217029150509392505050565b336001600160a01b037f000000000000000000000000000000000000000000000000000000000000000016146108d85760405162461bcd60e51b815260206004820152601560248201527414d95b99195c881b9bdd08115b9d1c9e541bda5b9d605a1b604482015260640160405180910390fd5b565b60605f8080806108ed60e08901896116f1565b6108fb916034908290611733565b810190610908919061175a565b92509250925061271082111561093157604051634ac0eaf160e01b815260040160405180910390fd5b61093e6020890189611783565b61094789610ba9565b604080516001600160a01b039093166020840152820152606081018490526080810183905260a0810182905260c00160408051601f19818403018152919052985f98509650505050505050565b5f808080806109a5888a018a61179e565b9450945094509450945080876109bb91906110a8565b96505f6109ca84868a866101af565b90508015610b3657604051632943e70960e11b81523060048201525f907f00000000000000000000000000000000000000000000000000000000000000006001600160a01b031690635287ce129060240160a060405180830381865afa158015610a36573d5f5f3e3d5ffd5b505050506040513d601f19601f82011682018060405250810190610a5a919061133c565b5190505f818311610a6b5782610a6d565b815b60405163040b850f60e31b81526001600160a01b038a81166004830152602482018390529192507f00000000000000000000000000000000000000000000000000000000000000009091169063205c2878906044015f604051808303815f87803b158015610ad9575f5ffd5b505af1158015610aeb573d5f5f3e3d5ffd5b505060408051848152602081018790526001600160a01b038c1693507ff311b1f65baf2e52d246ec3fc2cb4f5698f0622142592e4e5794b09746e0d06b92500160405180910390a250505b7f34b2c95a547acd4b4fa4f6947733d3b663b320b4c98ce28006f00f0d4756de548a8a604051610b679291906117de565b60405180910390a15050505050505050505050565b5f805f1983850993909202808410938190039390930393915050565b634e487b715f52806020526024601cfd5b5f6fffffffffffffffffffffffffffffffff60c0830135165b92915050565b6040518060a00160405280610c016040518060a001604052805f81526020015f81526020015f81526020015f8152602001606081525090565b8152602001610c2160405180604001604052805f81526020015f81525090565b8152602001610c4160405180604001604052805f81526020015f81525090565b8152602001610c6160405180604001604052805f81526020015f81525090565b8152602001610c6e610c73565b905290565b60405180604001604052805f6001600160a01b03168152602001610c6e60405180604001604052805f81526020015f81525090565b5f5f5f5f60808587031215610cbb575f5ffd5b5050823594602084013594506040840135936060013592509050565b5f6101208284031215610ce8575f5ffd5b50919050565b5f5f5f60608486031215610d00575f5ffd5b83356001600160401b03811115610d15575f5ffd5b610d2186828701610cd7565b9660208601359650604090950135949350505050565b5f81518084528060208401602086015e5f602082860101526020601f19601f83011685010191505092915050565b604081525f610d776040830185610d37565b90508260208301529392505050565b5f5f60208385031215610d97575f5ffd5b82356001600160401b03811115610dac575f5ffd5b8301601f81018513610dbc575f5ffd5b80356001600160401b03811115610dd1575f5ffd5b8560208260051b8401011115610de5575f5ffd5b6020919091019590945092505050565b5f5f83601f840112610e05575f5ffd5b5081356001600160401b03811115610e1b575f5ffd5b602083019150836020828501011115610e32575f5ffd5b9250929050565b5f5f5f5f5f60808688031215610e4d575f5ffd5b853560038110610e5b575f5ffd5b945060208601356001600160401b03811115610e75575f5ffd5b610e8188828901610df5565b9699909850959660408101359660609091013595509350505050565b6001600160a01b0381168114610eb1575f5ffd5b50565b8035610ebf81610e9d565b919050565b5f5f5f5f60608587031215610ed7575f5ffd5b84356001600160401b03811115610eec575f5ffd5b610ef887828801610cd7565b9450506020850135610f0981610e9d565b925060408501356001600160401b03811115610f23575f5ffd5b610f2f87828801610df5565b95989497509550505050565b60208152815160208201526020820151604082015260408201516060820152606082015160808201526080820151151560a08201525f60a083015160c080840152610f8960e0840182610d37565b949350505050565b5f60208284031215610fa1575f5ffd5b81356001600160401b03811115610fb6575f5ffd5b610f8984828501610cd7565b602080825282516101408383015280516101608401529081015161018083015260408101516101a083015260608101516101c08301526080015160a06101e08301525f90611014610200840182610d37565b90506020840151611032604085018280518252602090810151910152565b506040840151805160808581019190915260209182015160a08601526060860151805160c087015282015160e086015285015180516001600160a01b031661010086015280820151805161012087015290910151610140850152509392505050565b634e487b7160e01b5f52601160045260245ffd5b80820180821115610bc257610bc2611094565b8082028115828204841417610bc257610bc2611094565b81810381811115610bc257610bc2611094565b5f5f8335601e198436030181126110fa575f5ffd5b83016020810192503590506001600160401b03811115611118575f5ffd5b803603821315610e32575f5ffd5b81835281816020850137505f828201602090810191909152601f909101601f19169091010190565b6111688261115b83610eb4565b6001600160a01b03169052565b602081810135908301525f61118060408301836110e5565b610120604086015261119761012086018284611126565b9150506111a760608401846110e5565b85830360608701526111ba838284611126565b6080868101359088015260a0808701359088015260c0808701359088015292506111ea91505060e08401846110e5565b85830360e08701526111fd838284611126565b9250505061120f6101008401846110e5565b858303610100870152610604838284611126565b604080825281018390525f6060600585901b83018101908301868361011e1936839003015b8882101561128c57868503605f190184528235818112611266575f5ffd5b611272868c830161114e565b955050602083019250602084019350600182019150611248565b505050506001600160a01b0393909316602092909201919091525092915050565b634e487b7160e01b5f52604160045260245ffd5b60405160a081016001600160401b03811182821017156112e3576112e36112ad565b60405290565b60405160c081016001600160401b03811182821017156112e3576112e36112ad565b604080519081016001600160401b03811182821017156112e3576112e36112ad565b80518015158114610ebf575f5ffd5b5f60a082840312801561134d575f5ffd5b506113566112c1565b825181526113666020840161132d565b602082015260408301516dffffffffffffffffffffffffffff8116811461138b575f5ffd5b6040820152606083015163ffffffff811681146113a6575f5ffd5b6060820152608083015165ffffffffffff811681146113c3575f5ffd5b60808201529392505050565b606081525f6113e1606083018761114e565b6001600160a01b03861660208401528281036040840152611403818587611126565b979650505050505050565b5f82601f83011261141d575f5ffd5b81516001600160401b03811115611436576114366112ad565b604051601f8201601f19908116603f011681016001600160401b0381118282101715611464576114646112ad565b60405281815283820160200185101561147b575f5ffd5b8160208501602083015e5f918101602001919091529392505050565b5f602082840312156114a7575f5ffd5b81516001600160401b038111156114bc575f5ffd5b820160c081850312156114cd575f5ffd5b6114d56112e9565b815181526020808301519082015260408083015190820152606080830151908201526115036080830161132d565b608082015260a08201516001600160401b03811115611520575f5ffd5b61152c8682850161140e565b60a083015250949350505050565b5f6020828403121561154a575f5ffd5b5051919050565b602081525f6107ad602083018461114e565b5f60408284031215611573575f5ffd5b61157b61130b565b825181526020928301519281019290925250919050565b5f606082840312156115a2575f5ffd5b6115aa61130b565b905081516115b781610e9d565b81526115c68360208401611563565b602082015292915050565b5f602082840312156115e1575f5ffd5b81516001600160401b038111156115f6575f5ffd5b82016101408185031215611608575f5ffd5b6116106112c1565b81516001600160401b03811115611625575f5ffd5b820160a08187031215611636575f5ffd5b61163e6112c1565b8151815260208083015190820152604080830151908201526060808301519082015260808201516001600160401b03811115611678575f5ffd5b6116848882850161140e565b60808301525082525061169a8560208401611563565b60208201526116ac8560608401611563565b60408201526116be8560a08401611563565b60608201526116d08560e08401611592565b6080820152949350505050565b634e487b7160e01b5f52601260045260245ffd5b5f5f8335601e19843603018112611706575f5ffd5b8301803591506001600160401b0382111561171f575f5ffd5b602001915036819003821315610e32575f5ffd5b5f5f85851115611741575f5ffd5b8386111561174d575f5ffd5b5050820193919092039150565b5f5f5f6060848603121561176c575f5ffd5b505081359360208301359350604090920135919050565b5f60208284031215611793575f5ffd5b81356107ad81610e9d565b5f5f5f5f5f60a086880312156117b2575f5ffd5b85356117bd81610e9d565b97602087013597506040870135966060810135965060800135945092505050565b602081525f610f8960208301848661112656fea164736f6c634300081e000a","linkReferences":{}},"methodIdentifiers":{"calculateRefund(uint256,uint256,uint256,uint256)":"24a29b4f","entryPoint()":"b0d691fe","getDeposit()":"c399ec88","handleOps((address,uint256,bytes,bytes,bytes32,uint256,bytes32,bytes,bytes)[])":"57956b58","postOp(uint8,bytes,uint256,uint256)":"7c627b21","simulateHandleOp((address,uint256,bytes,bytes,bytes32,uint256,bytes32,bytes,bytes),address,bytes)":"97b2dcb9","simulateValidation((address,uint256,bytes,bytes,bytes32,uint256,bytes32,bytes,bytes))":"c3bce009","validatePaymasterUserOp((address,uint256,bytes,bytes,bytes32,uint256,bytes32,bytes,bytes),bytes32,uint256)":"52b7512c"},"id":419}