{"abi":[{"type":"constructor","inputs":[{"name":"ledgerConfiguration_","type":"address","internalType":"address"},{"name":"superDestinationValidator_","type":"address","internalType":"address"},{"name":"nexusFactory_","type":"address","internalType":"address"}],"stateMutability":"nonpayable"},{"type":"function","name":"NEXUS_FACTORY","inputs":[],"outputs":[{"name":"","type":"address","internalType":"contract INexusFactory"}],"stateMutability":"view"},{"type":"function","name":"SUPER_DESTINATION_VALIDATOR","inputs":[],"outputs":[{"name":"","type":"address","internalType":"address"}],"stateMutability":"view"},{"type":"function","name":"execute","inputs":[{"name":"data","type":"bytes","internalType":"bytes"}],"outputs":[],"stateMutability":"nonpayable"},{"type":"function","name":"isInitialized","inputs":[{"name":"account","type":"address","internalType":"address"}],"outputs":[{"name":"","type":"bool","internalType":"bool"}],"stateMutability":"view"},{"type":"function","name":"isMerkleRootUsed","inputs":[{"name":"user","type":"address","internalType":"address"},{"name":"merkleRoot","type":"bytes32","internalType":"bytes32"}],"outputs":[{"name":"","type":"bool","internalType":"bool"}],"stateMutability":"view"},{"type":"function","name":"isModuleType","inputs":[{"name":"typeID","type":"uint256","internalType":"uint256"}],"outputs":[{"name":"","type":"bool","internalType":"bool"}],"stateMutability":"pure"},{"type":"function","name":"ledgerConfiguration","inputs":[],"outputs":[{"name":"","type":"address","internalType":"contract ISuperLedgerConfiguration"}],"stateMutability":"view"},{"type":"function","name":"markRootsAsUsed","inputs":[{"name":"roots","type":"bytes32[]","internalType":"bytes32[]"}],"outputs":[],"stateMutability":"nonpayable"},{"type":"function","name":"name","inputs":[],"outputs":[{"name":"","type":"string","internalType":"string"}],"stateMutability":"pure"},{"type":"function","name":"onInstall","inputs":[{"name":"","type":"bytes","internalType":"bytes"}],"outputs":[],"stateMutability":"nonpayable"},{"type":"function","name":"onUninstall","inputs":[{"name":"","type":"bytes","internalType":"bytes"}],"outputs":[],"stateMutability":"nonpayable"},{"type":"function","name":"processBridgedExecution","inputs":[{"name":"","type":"address","internalType":"address"},{"name":"account","type":"address","internalType":"address"},{"name":"dstTokens","type":"address[]","internalType":"address[]"},{"name":"intentAmounts","type":"uint256[]","internalType":"uint256[]"},{"name":"initData","type":"bytes","internalType":"bytes"},{"name":"executorCalldata","type":"bytes","internalType":"bytes"},{"name":"userSignatureData","type":"bytes","internalType":"bytes"}],"outputs":[],"stateMutability":"nonpayable"},{"type":"function","name":"usedMerkleRoots","inputs":[{"name":"user","type":"address","internalType":"address"},{"name":"merkleRoot","type":"bytes32","internalType":"bytes32"}],"outputs":[{"name":"used","type":"bool","internalType":"bool"}],"stateMutability":"view"},{"type":"function","name":"validateHookCompliance","inputs":[{"name":"hook","type":"address","internalType":"address"},{"name":"prevHook","type":"address","internalType":"address"},{"name":"account","type":"address","internalType":"address"},{"name":"hookData","type":"bytes","internalType":"bytes"}],"outputs":[{"name":"","type":"tuple[]","internalType":"struct Execution[]","components":[{"name":"target","type":"address","internalType":"address"},{"name":"value","type":"uint256","internalType":"uint256"},{"name":"callData","type":"bytes","internalType":"bytes"}]}],"stateMutability":"view"},{"type":"function","name":"version","inputs":[],"outputs":[{"name":"","type":"string","internalType":"string"}],"stateMutability":"pure"},{"type":"event","name":"AccountCreated","inputs":[{"name":"account","type":"address","indexed":true,"internalType":"address"},{"name":"salt","type":"bytes32","indexed":false,"internalType":"bytes32"}],"anonymous":false},{"type":"event","name":"SuperDestinationExecutorExecuted","inputs":[{"name":"account","type":"address","indexed":true,"internalType":"address"}],"anonymous":false},{"type":"event","name":"SuperDestinationExecutorInvalidIntentAmount","inputs":[{"name":"account","type":"address","indexed":true,"internalType":"address"},{"name":"token","type":"address","indexed":true,"internalType":"address"},{"name":"intentAmount","type":"uint256","indexed":false,"internalType":"uint256"}],"anonymous":false},{"type":"event","name":"SuperDestinationExecutorMarkRootsAsUsed","inputs":[{"name":"account","type":"address","indexed":true,"internalType":"address"},{"name":"roots","type":"bytes32[]","indexed":false,"internalType":"bytes32[]"}],"anonymous":false},{"type":"event","name":"SuperDestinationExecutorReceivedButNoHooks","inputs":[{"name":"account","type":"address","indexed":true,"internalType":"address"}],"anonymous":false},{"type":"event","name":"SuperDestinationExecutorReceivedButNotEnoughBalance","inputs":[{"name":"account","type":"address","indexed":true,"internalType":"address"},{"name":"token","type":"address","indexed":true,"internalType":"address"},{"name":"intentAmount","type":"uint256","indexed":false,"internalType":"uint256"},{"name":"available","type":"uint256","indexed":false,"internalType":"uint256"}],"anonymous":false},{"type":"event","name":"SuperDestinationExecutorReceivedButRootUsedAlready","inputs":[{"name":"account","type":"address","indexed":true,"internalType":"address"},{"name":"root","type":"bytes32","indexed":true,"internalType":"bytes32"}],"anonymous":false},{"type":"event","name":"SuperPositionMintRequested","inputs":[{"name":"account","type":"address","indexed":true,"internalType":"address"},{"name":"spToken","type":"address","indexed":true,"internalType":"address"},{"name":"amount","type":"uint256","indexed":false,"internalType":"uint256"},{"name":"dstChainId","type":"uint256","indexed":true,"internalType":"uint256"}],"anonymous":false},{"type":"error","name":"ACCOUNT_NOT_CREATED","inputs":[]},{"type":"error","name":"ADDRESS_NOT_ACCOUNT","inputs":[]},{"type":"error","name":"ADDRESS_NOT_VALID","inputs":[]},{"type":"error","name":"ALREADY_INITIALIZED","inputs":[]},{"type":"error","name":"ARRAY_LENGTH_MISMATCH","inputs":[]},{"type":"error","name":"FEE_NOT_TRANSFERRED","inputs":[]},{"type":"error","name":"FIRST_HOOK_CANNOT_USE_PREVIOUS_AMOUNT","inputs":[]},{"type":"error","name":"INSUFFICIENT_BALANCE_FOR_FEE","inputs":[]},{"type":"error","name":"INVALID_ACCOUNT","inputs":[]},{"type":"error","name":"INVALID_CALLER","inputs":[]},{"type":"error","name":"INVALID_CHAIN_ID","inputs":[]},{"type":"error","name":"INVALID_FEE","inputs":[]},{"type":"error","name":"INVALID_SIGNATURE","inputs":[]},{"type":"error","name":"INVALID_YIELD_SOURCE_ORACLE_ID","inputs":[]},{"type":"error","name":"LENGTH_MISMATCH","inputs":[]},{"type":"error","name":"MALICIOUS_HOOK_DETECTED","inputs":[]},{"type":"error","name":"MANAGER_NOT_SET","inputs":[]},{"type":"error","name":"MERKLE_ROOT_ALREADY_USED","inputs":[]},{"type":"error","name":"ModuleAlreadyInitialized","inputs":[{"name":"smartAccount","type":"address","internalType":"address"}]},{"type":"error","name":"NOT_AUTHORIZED","inputs":[]},{"type":"error","name":"NOT_INITIALIZED","inputs":[]},{"type":"error","name":"NO_HOOKS","inputs":[]},{"type":"error","name":"NotInitialized","inputs":[{"name":"smartAccount","type":"address","internalType":"address"}]},{"type":"error","name":"ReentrancyGuardReentrantCall","inputs":[]},{"type":"error","name":"SENDER_CREATOR_NOT_VALID","inputs":[]}],"bytecode":{"object":"0x60e060405234801561000f575f5ffd5b50604051612e6e380380612e6e83398101604081905261002e916100ce565b60015f55826001600160a01b03811661005a57604051630f58648f60e01b815260040160405180910390fd5b6001600160a01b039081166080528216158061007d57506001600160a01b038116155b1561009b57604051630f58648f60e01b815260040160405180910390fd5b6001600160a01b0391821660a0521660c0525061010e565b80516001600160a01b03811681146100c9575f5ffd5b919050565b5f5f5f606084860312156100e0575f5ffd5b6100e9846100b3565b92506100f7602085016100b3565b9150610105604085016100b3565b90509250925092565b60805160a05160c051612d286101465f395f61019c01525f81816101fc015261078001525f818161022301526114950152612d285ff3fe608060405234801561000f575f5ffd5b50600436106100f0575f3560e01c80636740419b11610093578063a5c08d3d11610063578063a5c08d3d14610298578063d60b347f146102ab578063ecd05961146102d6578063ed71d9d1146102ea575f5ffd5b80636740419b1461021e5780636d61fe70146102455780638a91b0e314610258578063a5b6f2081461026b575f5ffd5b80634a03fda4116100ce5780634a03fda41461017757806353bf015e1461019757806354fd4d50146101d65780635a0ed186146101f7575f5ffd5b806306fdde03146100f457806309c5eabe1461013f578063244cd76714610154575b5f5ffd5b60408051808201909152601881527f537570657244657374696e6174696f6e4578656375746f72000000000000000060208201525b6040516101369190611d50565b60405180910390f35b61015261014d366004611d62565b6102fd565b005b610167610162366004611df5565b610345565b6040519015158152602001610136565b61018a610185366004611f47565b610372565b6040516101369190611fb7565b6101be7f000000000000000000000000000000000000000000000000000000000000000081565b6040516001600160a01b039091168152602001610136565b604080518082019091526005815264302e302e3160d81b6020820152610129565b6101be7f000000000000000000000000000000000000000000000000000000000000000081565b6101be7f000000000000000000000000000000000000000000000000000000000000000081565b610152610253366004611d62565b6105d4565b610152610266366004611d62565b610624565b610167610279366004611df5565b600260209081525f928352604080842090915290825290205460ff1681565b6101526102a6366004612066565b61066d565b6101676102b93660046120f6565b6001600160a01b03165f9081526001602052604090205460ff1690565b6101676102e4366004612111565b60021490565b6101526102f83660046121f1565b610715565b335f9081526001602052604090205460ff1661032c57604051630f68fe6360e21b815260040160405180910390fd5b6103413361033c838501856122ef565b610a2b565b5050565b6001600160a01b0382165f90815260026020908152604080832084845290915290205460ff165b92915050565b604080515f8082526020820190925260609190816103b9565b60408051606080820183525f80835260208301529181019190915281526020019060019003908161038b5790505b5090505f866001600160a01b0316633b5896bc8787876040518463ffffffff1660e01b81526004016103ed939291906123fd565b5f60405180830381865afa158015610407573d5f5f3e3d5ffd5b505050506040513d5f823e601f3d908101601f1916820160405261042e9190810190612480565b9050600281511015610442575090506105cc565b866001600160a01b0316815f8151811061045e5761045e612584565b60200260200101515f01516001600160a01b03161461047f575090506105cc565b5f815f8151811061049257610492612584565b6020026020010151604001516104a790612598565b90506001600160e01b03198116632ae2fe3d60e01b146104cc578293505050506105cc565b5f600183516104db91906125ea565b9050886001600160a01b03168382815181106104f9576104f9612584565b60200260200101515f01516001600160a01b03161461051e57839450505050506105cc565b5f83828151811061053157610531612584565b60200260200101516040015161054690612598565b90506001600160e01b031981166305b4fe9160e01b1461056d5784955050505050506105cc565b60015b828110156105c3578a6001600160a01b031685828151811061059457610594612584565b60200260200101515f01516001600160a01b0316036105bb578596505050505050506105cc565b600101610570565b50929450505050505b949350505050565b335f9081526001602052604090205460ff16156106045760405163439a74c960e01b815260040160405180910390fd5b5050335f908152600160208190526040909120805460ff19169091179055565b335f9081526001602052604090205460ff1661065357604051630f68fe6360e21b815260040160405180910390fd5b5050335f908152600160205260409020805460ff19169055565b80515f5b818110156106cf57335f90815260026020526040812084516001929086908590811061069f5761069f612584565b60209081029190910181015182528101919091526040015f20805460ff1916911515919091179055600101610671565b50336001600160a01b03167f2a2e76694cfe1777579407d33b992a385876cdac566ec14689232edd2425d40e8360405161070991906125fd565b60405180910390a25050565b84518451811461073857604051634456f5e960e11b815260040160405180910390fd5b6107428785610b55565b96505f61074e83610bf6565b90505f84468a308b8b60405160200161076c96959493929190612679565b60405160208183030381529060405290505f7f00000000000000000000000000000000000000000000000000000000000000006001600160a01b0316635c2ec0f38b87856040516020016107c1929190612715565b6040516020818303038152906040526040518363ffffffff1660e01b81526004016107ed929190612739565b602060405180830381865afa158015610808573d5f5f3e3d5ffd5b505050506040513d601f19601f8201168201806040525081019061082c919061275c565b90506001600160e01b03198116635c2ec0f360e01b1461085f57604051631468054760e31b815260040160405180910390fd5b61086a8a8a8a610c19565b6108775750505050610a22565b6001600160a01b038a165f90815260026020908152604080832086845290915290205460ff16156108e05760405183906001600160a01b038c16907fc85a4c9cf6ceb3da81d38c466e43c8b89a7f2857440772a73d2189d718b57841905f90a350505050610a22565b6001600160a01b038a165f9081526002602090815260408083208684529091529020805460ff1916600117905561091686610e35565b15610957576040516001600160a01b038b16907fb159537e384a9a796d3957f8a925c701e1a32cb359781d4b26ac895b02125f78905f90a250505050610a22565b6040805160018082528183019092525f91816020015b60408051606080820183525f80835260208301529181019190915281526020019060019003908161096d5790505090506040518060600160405280306001600160a01b031681526020015f815260200188815250815f815181106109d3576109d3612584565b60200260200101819052506109e88b82610e79565b506040516001600160a01b038c16907f98f6e69f6c380877e68c669d19d23a062e9e5a9c18103278c08537aae6fd825e905f90a250505050505b50505050505050565b8051515f819003610a4f57604051632c4df46b60e11b815260040160405180910390fd5b8160200151518114610a745760405163899ef10d60e01b815260040160405180910390fd5b5f5f5f5b83811015610b4d578451805182908110610a9457610a94612584565b60200260200101519150805f03610af0575f610acd8387602001518481518110610ac057610ac0612584565b6020026020010151610f06565b90508015610aee5760405163020ee8b160e31b815260040160405180910390fd5b505b6001600160a01b038216610b1757604051630f58648f60e01b815260040160405180910390fd5b610b4086838588602001518581518110610b3357610b33612584565b6020026020010151610f7f565b9091508190600101610a78565b505050505050565b5f5f8251118015610b6e57506001600160a01b0383163b155b15610bb3575f610b7d83611116565b9050806001600160a01b0316846001600160a01b031614610bb15760405163d248522760e01b815260040160405180910390fd5b505b6001600160a01b0383161580610bd157506001600160a01b0383163b155b15610bef5760405163526a392d60e01b815260040160405180910390fd5b5090919050565b5f5f82806020019051810190610c0c9190612a0d565b5091979650505050505050565b81515f90815b81811015610e27575f858281518110610c3a57610c3a612584565b602002602001015190505f858381518110610c5757610c57612584565b60200260200101519050805f03610cc157816001600160a01b0316886001600160a01b03167ffe3e30b591c8199a91f575b16b49e2d2b7d947c4e1490f570b41f1aa448decb883604051610cad91815260200190565b60405180910390a35f945050505050610e2e565b6001600160a01b038216610d38578015801590610ce7575080886001600160a01b031631105b15610d3357604080518281526001600160a01b038a8116803160208401529085169290917f2a147d47d8d7c5f6b2c7eebb350802ba5ed6008e8eb811f40b78d2090b329c869101610cad565b610e1d565b6040516370a0823160e01b81526001600160a01b0389811660048301525f91908416906370a0823190602401602060405180830381865afa158015610d7f573d5f5f3e3d5ffd5b505050506040513d601f19601f82011682018060405250810190610da39190612ace565b90508115801590610db357508181105b15610e1b57826001600160a01b0316896001600160a01b03167f2a147d47d8d7c5f6b2c7eebb350802ba5ed6008e8eb811f40b78d2090b329c868484604051610e06929190918252602082015260400190565b60405180910390a35f95505050505050610e2e565b505b5050600101610c1f565b5060019150505b9392505050565b5f5f610e43835f60046111fd565b610e4c90612598565b90506001600160e01b031981166304e2f55f60e11b14610e6f5750600192915050565b50505160e4101590565b60605f610e8c600160f81b828080611307565b9050836001600160a01b031663d691c96482610ea786611371565b6040518363ffffffff1660e01b8152600401610ec4929190612ae5565b5f604051808303815f875af1158015610edf573d5f5f3e3d5ffd5b505050506040513d5f823e601f3d908101601f191682016040526105cc9190810190612afd565b60405163e774551760e01b81525f906001600160a01b0384169063e774551790610f34908590600401611d50565b602060405180830381865afa925050508015610f6d575060408051601f3d908101601f19168201909252610f6a91810190612ba1565b60015b610f7857505f61036c565b905061036c565b610f8761139a565b5f610f9484848785610372565b905080515f03610fb75760405163addfcd9d60e01b815260040160405180910390fd5b6040516314cb37cf60e01b81526001600160a01b0386811660048301528516906314cb37cf906024015f604051808303815f87803b158015610ff7575f5ffd5b505af1158015611009573d5f5f3e3d5ffd5b505050506110178582610e79565b505f846001600160a01b0316632113522a6040518163ffffffff1660e01b8152600401602060405180830381865afa158015611055573d5f5f3e3d5ffd5b505050506040513d601f19601f820116820180604052508101906110799190612bba565b90506001600160a01b03811630146110a4576040516306a8611160e11b815260040160405180910390fd5b60405163d06a1e8960e01b81526001600160a01b03878116600483015286169063d06a1e89906024015f604051808303815f87803b1580156110e4575f5ffd5b505af11580156110f6573d5f5f3e3d5ffd5b505050506111058686856113c2565b505061111060015f55565b50505050565b5f5f611122835f6118ec565b90506001600160a01b03811661114b57604051630f58648f60e01b815260040160405180910390fd5b806001600160a01b03163b5f036111755760405163f7b0af8560e01b815260040160405180910390fd5b5f61118e84601480875161118991906125ea565b6111fd565b604051632b870d1b60e11b81529091506001600160a01b0383169063570e1a36906111bd908490600401611d50565b6020604051808303815f875af11580156111d9573d5f5f3e3d5ffd5b505050506040513d601f19601f820116820180604052508101906105cc9190612bba565b60608182601f0110156112485760405162461bcd60e51b815260206004820152600e60248201526d736c6963655f6f766572666c6f7760901b60448201526064015b60405180910390fd5b6112528284612bd5565b845110156112965760405162461bcd60e51b8152602060048201526011602482015270736c6963655f6f75744f66426f756e647360781b604482015260640161123f565b6060821580156112b45760405191505f8252602082016040526112fe565b6040519150601f8416801560200281840101858101878315602002848b0101015b818310156112ed5780518352602092830192016112d5565b5050858452601f01601f1916604052505b50949350505050565b604080516001600160f81b03198087166020830152851660218201525f602282018190526001600160e01b03198516602683015269ffffffffffffffffffff198416602a830152910160405160208183030381529060405261136890612be8565b95945050505050565b6060816040516020016113849190611fb7565b6040516020818303038152906040529050919050565b60025f54036113bc57604051633ee5aeb560e01b815260040160405180910390fd5b60025f55565b5f5f836001600160a01b031663e445e7dd6040518163ffffffff1660e01b8152600401602060405180830381865afa158015611400573d5f5f3e3d5ffd5b505050506040513d601f19601f820116820180604052508101906114249190612c0e565b9050600181600281111561143a5761143a612c2c565b14806114575750600281600281111561145557611455612c2c565b145b156118e5575f61146684611950565b90505f61147285611966565b604051630b47673760e41b8152600481018490529091505f906001600160a01b037f0000000000000000000000000000000000000000000000000000000000000000169063b47673709060240160a060405180830381865afa1580156114da573d5f5f3e3d5ffd5b505050506040513d601f19601f820116820180604052508101906114fe9190612c40565b60608101519091506001600160a01b031661152c57604051638077659960e01b815260040160405180910390fd5b6040516381cbe69160e01b81526001600160a01b0389811660048301525f91908916906381cbe69190602401602060405180830381865afa158015611573573d5f5f3e3d5ffd5b505050506040513d601f19601f820116820180604052508101906115979190612ace565b60808301519091506001600160a01b031663fd8cd53f8a858760018a60028111156115c4576115c4612c2c565b14868e6001600160a01b031663685a943c6040518163ffffffff1660e01b8152600401602060405180830381865afa158015611602573d5f5f3e3d5ffd5b505050506040513d601f19601f820116820180604052508101906116269190612ace565b6040516001600160e01b031960e089901b1681526001600160a01b039687166004820152959094166024860152604485019290925215156064840152608483015260a482015260c4016020604051808303815f875af115801561168b573d5f5f3e3d5ffd5b505050506040513d601f19601f820116820180604052508101906116af9190612ace565b95505f861180156116d1575060028560028111156116cf576116cf612c2c565b145b156118e057808611156116f757604051632fb15b8760e01b815260040160405180910390fd5b5f886001600160a01b03166338d52e0f6040518163ffffffff1660e01b8152600401602060405180830381865afa158015611734573d5f5f3e3d5ffd5b505050506040513d601f19601f820116820180604052508101906117589190612bba565b90506001600160a01b038116158061178c57506001600160a01b03811673eeeeeeeeeeeeeeeeeeeeeeeeeeeeeeeeeeeeeeee145b156117d057868a6001600160a01b03163110156117bc57604051638e10f0c960e01b815260040160405180910390fd5b6117cb8a846040015189611972565b61186a565b6040516370a0823160e01b81526001600160a01b038b811660048301528891908316906370a0823190602401602060405180830381865afa158015611817573d5f5f3e3d5ffd5b505050506040513d601f19601f8201168201806040525081019061183b9190612ace565b101561185a57604051638e10f0c960e01b815260040160405180910390fd5b61186a8a8285604001518a6119cf565b6001600160a01b038916631f26461961188389856125ea565b6040516001600160e01b031960e084901b16815260048101919091526001600160a01b038d1660248201526044015f604051808303815f87803b1580156118c8575f5ffd5b505af11580156118da573d5f5f3e3d5ffd5b50505050505b505050505b5050505050565b5f6118f8826014612bd5565b835110156119405760405162461bcd60e51b8152602060048201526015602482015274746f416464726573735f6f75744f66426f756e647360581b604482015260640161123f565b500160200151600160601b900490565b5f61195d825f60206111fd565b61036c90612be8565b5f61036c8260206118ec565b5f826001600160a01b031631905061199a84848460405180602001604052805f815250611b67565b506001600160a01b03831631826119b183836125ea565b146118e55760405163102831ad60e11b815260040160405180910390fd5b6040516370a0823160e01b81526001600160a01b0383811660048301525f91908516906370a0823190602401602060405180830381865afa158015611a16573d5f5f3e3d5ffd5b505050506040513d601f19601f82011682018060405250810190611a3a9190612ace565b6040516001600160a01b038516602482015260448101849052909150611a9290869086905f9060640160408051601f198184030181529190526020810180516001600160e01b031663a9059cbb60e01b179052611b67565b506040516370a0823160e01b81526001600160a01b0384811660048301525f91908616906370a0823190602401602060405180830381865afa158015611ada573d5f5f3e3d5ffd5b505050506040513d601f19601f82011682018060405250810190611afe9190612ace565b90505f611b0b83836125ea565b90505f611b1e856103e8620186a0611c16565b9050611b2a81866125ea565b821080611b3f5750611b3c8186612bd5565b82115b15611b5d5760405163102831ad60e11b815260040160405180910390fd5b5050505050505050565b60605f611b7681808080611307565b9050856001600160a01b031663d691c96482611b93888888611cc6565b6040518363ffffffff1660e01b8152600401611bb0929190612ae5565b5f604051808303815f875af1158015611bcb573d5f5f3e3d5ffd5b505050506040513d5f823e601f3d908101601f19168201604052611bf29190810190612afd565b5f81518110611c0357611c03612584565b6020026020010151915050949350505050565b5f5f5f611c238686611cf5565b91509150815f03611c4757838181611c3d57611c3d612cce565b0492505050610e2e565b818411611c5e57611c5e6003851502601118611d11565b5f848688095f868103871696879004966002600389028118808a02820302808a02820302808a02820302808a02820302808a02820302808a02909103029181900381900460010185841190960395909502919093039390930492909217029150509392505050565b6060838383604051602001611cdd93929190612ce2565b60405160208183030381529060405290509392505050565b5f805f1983850993909202808410938190039390930393915050565b634e487b715f52806020526024601cfd5b5f81518084528060208401602086015e5f602082860101526020601f19601f83011685010191505092915050565b602081525f610e2e6020830184611d22565b5f5f60208385031215611d73575f5ffd5b82356001600160401b03811115611d88575f5ffd5b8301601f81018513611d98575f5ffd5b80356001600160401b03811115611dad575f5ffd5b856020828401011115611dbe575f5ffd5b6020919091019590945092505050565b6001600160a01b0381168114611de2575f5ffd5b50565b8035611df081611dce565b919050565b5f5f60408385031215611e06575f5ffd5b8235611e1181611dce565b946020939093013593505050565b634e487b7160e01b5f52604160045260245ffd5b604080519081016001600160401b0381118282101715611e5557611e55611e1f565b60405290565b604051606081016001600160401b0381118282101715611e5557611e55611e1f565b60405160c081016001600160401b0381118282101715611e5557611e55611e1f565b604051601f8201601f191681016001600160401b0381118282101715611ec757611ec7611e1f565b604052919050565b5f6001600160401b03821115611ee757611ee7611e1f565b50601f01601f191660200190565b5f82601f830112611f04575f5ffd5b8135611f17611f1282611ecf565b611e9f565b818152846020838601011115611f2b575f5ffd5b816020850160208301375f918101602001919091529392505050565b5f5f5f5f60808587031215611f5a575f5ffd5b8435611f6581611dce565b93506020850135611f7581611dce565b92506040850135611f8581611dce565b915060608501356001600160401b03811115611f9f575f5ffd5b611fab87828801611ef5565b91505092959194509250565b5f602082016020835280845180835260408501915060408160051b8601019250602086015f5b8281101561203857868503603f19018452815180516001600160a01b031686526020808201519087015260409081015160609187018290529061202290870182611d22565b9550506020938401939190910190600101611fdd565b50929695505050505050565b5f6001600160401b0382111561205c5761205c611e1f565b5060051b60200190565b5f60208284031215612076575f5ffd5b81356001600160401b0381111561208b575f5ffd5b8201601f8101841361209b575f5ffd5b80356120a9611f1282612044565b8082825260208201915060208360051b8501019250868311156120ca575f5ffd5b6020840193505b828410156120ec5783358252602093840193909101906120d1565b9695505050505050565b5f60208284031215612106575f5ffd5b8135610e2e81611dce565b5f60208284031215612121575f5ffd5b5035919050565b5f82601f830112612137575f5ffd5b8135612145611f1282612044565b8082825260208201915060208360051b860101925085831115612166575f5ffd5b602085015b8381101561218c57803561217e81611dce565b83526020928301920161216b565b5095945050505050565b5f82601f8301126121a5575f5ffd5b81356121b3611f1282612044565b8082825260208201915060208360051b8601019250858311156121d4575f5ffd5b602085015b8381101561218c5780358352602092830192016121d9565b5f5f5f5f5f5f5f60e0888a031215612207575f5ffd5b61221088611de5565b965061221e60208901611de5565b955060408801356001600160401b03811115612238575f5ffd5b6122448a828b01612128565b95505060608801356001600160401b0381111561225f575f5ffd5b61226b8a828b01612196565b94505060808801356001600160401b03811115612286575f5ffd5b6122928a828b01611ef5565b93505060a08801356001600160401b038111156122ad575f5ffd5b6122b98a828b01611ef5565b92505060c08801356001600160401b038111156122d4575f5ffd5b6122e08a828b01611ef5565b91505092959891949750929550565b5f602082840312156122ff575f5ffd5b81356001600160401b03811115612314575f5ffd5b820160408185031215612325575f5ffd5b61232d611e33565b81356001600160401b03811115612342575f5ffd5b61234e86828501612128565b82525060208201356001600160401b03811115612369575f5ffd5b80830192505084601f83011261237d575f5ffd5b813561238b611f1282612044565b8082825260208201915060208360051b8601019250878311156123ac575f5ffd5b602085015b838110156123ec5780356001600160401b038111156123ce575f5ffd5b6123dd8a6020838a0101611ef5565b845250602092830192016123b1565b506020840152509095945050505050565b6001600160a01b038481168252831660208201526060604082018190525f9061136890830184611d22565b8051611df081611dce565b5f82601f830112612442575f5ffd5b8151612450611f1282611ecf565b818152846020838601011115612464575f5ffd5b8160208501602083015e5f918101602001919091529392505050565b5f60208284031215612490575f5ffd5b81516001600160401b038111156124a5575f5ffd5b8201601f810184136124b5575f5ffd5b80516124c3611f1282612044565b8082825260208201915060208360051b8501019250868311156124e4575f5ffd5b602084015b838110156125795780516001600160401b03811115612506575f5ffd5b85016060818a03601f1901121561251b575f5ffd5b612523611e5b565b602082015161253181611dce565b81526040820151602082015260608201516001600160401b03811115612555575f5ffd5b6125648b602083860101612433565b604083015250845250602092830192016124e9565b509695505050505050565b634e487b7160e01b5f52603260045260245ffd5b805160208201516001600160e01b03198116919060048210156125cf576001600160e01b0319600483900360031b81901b82161692505b5050919050565b634e487b7160e01b5f52601160045260245ffd5b8181038181111561036c5761036c6125d6565b602080825282518282018190525f918401906040840190835b81811015612634578351835260209384019390920191600101612616565b509095945050505050565b5f8151808452602084019350602083015f5b8281101561266f578151865260209586019590910190600101612651565b5093949350505050565b60c081525f61268b60c0830189611d22565b6001600160401b0388166020848101919091526001600160a01b038881166040860152871660608501528382036080850152855180835286820192909101905f5b818110156126f35783516001600160a01b03168352602093840193909201916001016126cc565b505083810360a0850152612707818661263f565b9a9950505050505050505050565b604081525f6127276040830185611d22565b82810360208401526113688185611d22565b6001600160a01b03831681526040602082018190525f906105cc90830184611d22565b5f6020828403121561276c575f5ffd5b81516001600160e01b031981168114610e2e575f5ffd5b80518015158114611df0575f5ffd5b5f82601f8301126127a1575f5ffd5b81516127af611f1282612044565b8082825260208201915060208360051b8601019250858311156127d0575f5ffd5b602085015b8381101561218c5780518352602092830192016127d5565b5f82601f8301126127fc575f5ffd5b815161280a611f1282612044565b8082825260208201915060208360051b86010192508583111561282b575f5ffd5b602085015b8381101561218c57805161284381611dce565b835260209283019201612830565b5f82601f830112612860575f5ffd5b815161286e611f1282612044565b8082825260208201915060208360051b86010192508583111561288f575f5ffd5b602085015b8381101561218c5780516001600160401b038111156128b1575f5ffd5b86016060818903601f190112156128c6575f5ffd5b6128ce611e5b565b60208201516001600160401b038111156128e6575f5ffd5b6128f58a602083860101612792565b82525060408201516001600160401b0381168114612911575f5ffd5b602082015260608201516001600160401b0381111561292e575f5ffd5b60208184010192505060c0828a031215612946575f5ffd5b61294e611e7d565b61295783612428565b815261296560208401612428565b602082015260408301516001600160401b03811115612982575f5ffd5b61298e8b8286016127ed565b60408301525060608301516001600160401b038111156129ac575f5ffd5b6129b88b828601612792565b6060830152506129ca60808401612428565b608082015260a08301516001600160401b038111156129e7575f5ffd5b6129f38b828601612433565b60a083015250604082015284525060209283019201612894565b5f5f5f5f5f5f60c08789031215612a22575f5ffd5b612a2b87612783565b9550602087015165ffffffffffff81168114612a45575f5ffd5b6040880151606089015191965094506001600160401b03811115612a67575f5ffd5b612a7389828a01612792565b93505060808701516001600160401b03811115612a8e575f5ffd5b612a9a89828a01612851565b92505060a08701516001600160401b03811115612ab5575f5ffd5b612ac189828a01612433565b9150509295509295509295565b5f60208284031215612ade575f5ffd5b5051919050565b828152604060208201525f6105cc6040830184611d22565b5f60208284031215612b0d575f5ffd5b81516001600160401b03811115612b22575f5ffd5b8201601f81018413612b32575f5ffd5b8051612b40611f1282612044565b8082825260208201915060208360051b850101925086831115612b61575f5ffd5b602084015b838110156125795780516001600160401b03811115612b83575f5ffd5b612b9289602083890101612433565b84525060209283019201612b66565b5f60208284031215612bb1575f5ffd5b610e2e82612783565b5f60208284031215612bca575f5ffd5b8151610e2e81611dce565b8082018082111561036c5761036c6125d6565b80516020808301519190811015612c08575f198160200360031b1b821691505b50919050565b5f60208284031215612c1e575f5ffd5b815160038110610e2e575f5ffd5b634e487b7160e01b5f52602160045260245ffd5b5f60a0828403128015612c51575f5ffd5b5060405160a081016001600160401b0381118282101715612c7457612c74611e1f565b6040528251612c8281611dce565b8152602083810151908201526040830151612c9c81611dce565b60408201526060830151612caf81611dce565b60608201526080830151612cc281611dce565b60808201529392505050565b634e487b7160e01b5f52601260045260245ffd5b6bffffffffffffffffffffffff198460601b1681528260148201525f82518060208501603485015e5f920160340191825250939250505056fea164736f6c634300081e000a","linkReferences":{}},"methodIdentifiers":{"NEXUS_FACTORY()":"53bf015e","SUPER_DESTINATION_VALIDATOR()":"5a0ed186","execute(bytes)":"09c5eabe","isInitialized(address)":"d60b347f","isMerkleRootUsed(address,bytes32)":"244cd767","isModuleType(uint256)":"ecd05961","ledgerConfiguration()":"6740419b","markRootsAsUsed(bytes32[])":"a5c08d3d","name()":"06fdde03","onInstall(bytes)":"6d61fe70","onUninstall(bytes)":"8a91b0e3","processBridgedExecution(address,address,address[],uint256[],bytes,bytes,bytes)":"ed71d9d1","usedMerkleRoots(address,bytes32)":"a5b6f208","validateHookCompliance(address,address,address,bytes)":"4a03fda4","version()":"54fd4d50"},"id":337}