{"abi":[{"type":"constructor","inputs":[{"name":"_entryPoint","type":"address","internalType":"contract IEntryPoint"}],"stateMutability":"payable"},{"type":"function","name":"acceptOwnership","inputs":[],"outputs":[],"stateMutability":"nonpayable"},{"type":"function","name":"addStake","inputs":[{"name":"unstakeDelaySec","type":"uint32","internalType":"uint32"}],"outputs":[],"stateMutability":"payable"},{"type":"function","name":"calculateRefund","inputs":[{"name":"maxGasLimit","type":"uint256","internalType":"uint256"},{"name":"maxFeePerGas","type":"uint256","internalType":"uint256"},{"name":"actualGasCost","type":"uint256","internalType":"uint256"},{"name":"nodeOperatorPremium","type":"uint256","internalType":"uint256"}],"outputs":[{"name":"refund","type":"uint256","internalType":"uint256"}],"stateMutability":"pure"},{"type":"function","name":"entryPoint","inputs":[],"outputs":[{"name":"","type":"address","internalType":"contract IEntryPoint"}],"stateMutability":"view"},{"type":"function","name":"getDeposit","inputs":[],"outputs":[{"name":"","type":"uint256","internalType":"uint256"}],"stateMutability":"view"},{"type":"function","name":"handleOps","inputs":[{"name":"ops","type":"tuple[]","internalType":"struct PackedUserOperation[]","components":[{"name":"sender","type":"address","internalType":"address"},{"name":"nonce","type":"uint256","internalType":"uint256"},{"name":"initCode","type":"bytes","internalType":"bytes"},{"name":"callData","type":"bytes","internalType":"bytes"},{"name":"accountGasLimits","type":"bytes32","internalType":"bytes32"},{"name":"preVerificationGas","type":"uint256","internalType":"uint256"},{"name":"gasFees","type":"bytes32","internalType":"bytes32"},{"name":"paymasterAndData","type":"bytes","internalType":"bytes"},{"name":"signature","type":"bytes","internalType":"bytes"}]}],"outputs":[],"stateMutability":"payable"},{"type":"function","name":"owner","inputs":[],"outputs":[{"name":"","type":"address","internalType":"address"}],"stateMutability":"view"},{"type":"function","name":"pendingOwner","inputs":[],"outputs":[{"name":"","type":"address","internalType":"address"}],"stateMutability":"view"},{"type":"function","name":"postOp","inputs":[{"name":"mode","type":"uint8","internalType":"enum IPaymaster.PostOpMode"},{"name":"context","type":"bytes","internalType":"bytes"},{"name":"actualGasCost","type":"uint256","internalType":"uint256"},{"name":"actualUserOpFeePerGas","type":"uint256","internalType":"uint256"}],"outputs":[],"stateMutability":"nonpayable"},{"type":"function","name":"renounceOwnership","inputs":[],"outputs":[],"stateMutability":"nonpayable"},{"type":"function","name":"simulateHandleOp","inputs":[{"name":"op","type":"tuple","internalType":"struct PackedUserOperation","components":[{"name":"sender","type":"address","internalType":"address"},{"name":"nonce","type":"uint256","internalType":"uint256"},{"name":"initCode","type":"bytes","internalType":"bytes"},{"name":"callData","type":"bytes","internalType":"bytes"},{"name":"accountGasLimits","type":"bytes32","internalType":"bytes32"},{"name":"preVerificationGas","type":"uint256","internalType":"uint256"},{"name":"gasFees","type":"bytes32","internalType":"bytes32"},{"name":"paymasterAndData","type":"bytes","internalType":"bytes"},{"name":"signature","type":"bytes","internalType":"bytes"}]},{"name":"target","type":"address","internalType":"address"},{"name":"callData","type":"bytes","internalType":"bytes"}],"outputs":[{"name":"","type":"tuple","internalType":"struct IEntryPointSimulations.ExecutionResult","components":[{"name":"preOpGas","type":"uint256","internalType":"uint256"},{"name":"paid","type":"uint256","internalType":"uint256"},{"name":"accountValidationData","type":"uint256","internalType":"uint256"},{"name":"paymasterValidationData","type":"uint256","internalType":"uint256"},{"name":"targetSuccess","type":"bool","internalType":"bool"},{"name":"targetResult","type":"bytes","internalType":"bytes"}]}],"stateMutability":"payable"},{"type":"function","name":"simulateValidation","inputs":[{"name":"op","type":"tuple","internalType":"struct PackedUserOperation","components":[{"name":"sender","type":"address","internalType":"address"},{"name":"nonce","type":"uint256","internalType":"uint256"},{"name":"initCode","type":"bytes","internalType":"bytes"},{"name":"callData","type":"bytes","internalType":"bytes"},{"name":"accountGasLimits","type":"bytes32","internalType":"bytes32"},{"name":"preVerificationGas","type":"uint256","internalType":"uint256"},{"name":"gasFees","type":"bytes32","internalType":"bytes32"},{"name":"paymasterAndData","type":"bytes","internalType":"bytes"},{"name":"signature","type":"bytes","internalType":"bytes"}]}],"outputs":[{"name":"","type":"tuple","internalType":"struct IEntryPointSimulations.ValidationResult","components":[{"name":"returnInfo","type":"tuple","internalType":"struct IEntryPoint.ReturnInfo","components":[{"name":"preOpGas","type":"uint256","internalType":"uint256"},{"name":"prefund","type":"uint256","internalType":"uint256"},{"name":"accountValidationData","type":"uint256","internalType":"uint256"},{"name":"paymasterValidationData","type":"uint256","internalType":"uint256"},{"name":"paymasterContext","type":"bytes","internalType":"bytes"}]},{"name":"senderInfo","type":"tuple","internalType":"struct IStakeManager.StakeInfo","components":[{"name":"stake","type":"uint256","internalType":"uint256"},{"name":"unstakeDelaySec","type":"uint256","internalType":"uint256"}]},{"name":"factoryInfo","type":"tuple","internalType":"struct IStakeManager.StakeInfo","components":[{"name":"stake","type":"uint256","internalType":"uint256"},{"name":"unstakeDelaySec","type":"uint256","internalType":"uint256"}]},{"name":"paymasterInfo","type":"tuple","internalType":"struct IStakeManager.StakeInfo","components":[{"name":"stake","type":"uint256","internalType":"uint256"},{"name":"unstakeDelaySec","type":"uint256","internalType":"uint256"}]},{"name":"aggregatorInfo","type":"tuple","internalType":"struct IEntryPoint.AggregatorStakeInfo","components":[{"name":"aggregator","type":"address","internalType":"address"},{"name":"stakeInfo","type":"tuple","internalType":"struct IStakeManager.StakeInfo","components":[{"name":"stake","type":"uint256","internalType":"uint256"},{"name":"unstakeDelaySec","type":"uint256","internalType":"uint256"}]}]}]}],"stateMutability":"payable"},{"type":"function","name":"transferOwnership","inputs":[{"name":"newOwner","type":"address","internalType":"address"}],"outputs":[],"stateMutability":"nonpayable"},{"type":"function","name":"unlockStake","inputs":[],"outputs":[],"stateMutability":"nonpayable"},{"type":"function","name":"validatePaymasterUserOp","inputs":[{"name":"userOp","type":"tuple","internalType":"struct PackedUserOperation","components":[{"name":"sender","type":"address","internalType":"address"},{"name":"nonce","type":"uint256","internalType":"uint256"},{"name":"initCode","type":"bytes","internalType":"bytes"},{"name":"callData","type":"bytes","internalType":"bytes"},{"name":"accountGasLimits","type":"bytes32","internalType":"bytes32"},{"name":"preVerificationGas","type":"uint256","internalType":"uint256"},{"name":"gasFees","type":"bytes32","internalType":"bytes32"},{"name":"paymasterAndData","type":"bytes","internalType":"bytes"},{"name":"signature","type":"bytes","internalType":"bytes"}]},{"name":"userOpHash","type":"bytes32","internalType":"bytes32"},{"name":"maxCost","type":"uint256","internalType":"uint256"}],"outputs":[{"name":"context","type":"bytes","internalType":"bytes"},{"name":"validationData","type":"uint256","internalType":"uint256"}],"stateMutability":"nonpayable"},{"type":"function","name":"withdrawStake","inputs":[{"name":"withdrawAddress","type":"address","internalType":"address payable"}],"outputs":[],"stateMutability":"nonpayable"},{"type":"function","name":"withdrawTo","inputs":[{"name":"withdrawAddress","type":"address","internalType":"address payable"},{"name":"amount","type":"uint256","internalType":"uint256"}],"outputs":[],"stateMutability":"nonpayable"},{"type":"event","name":"OwnershipTransferStarted","inputs":[{"name":"previousOwner","type":"address","indexed":true,"internalType":"address"},{"name":"newOwner","type":"address","indexed":true,"internalType":"address"}],"anonymous":false},{"type":"event","name":"OwnershipTransferred","inputs":[{"name":"previousOwner","type":"address","indexed":true,"internalType":"address"},{"name":"newOwner","type":"address","indexed":true,"internalType":"address"}],"anonymous":false},{"type":"event","name":"SuperNativePaymasterPostOp","inputs":[{"name":"context","type":"bytes","indexed":false,"internalType":"bytes"}],"anonymous":false},{"type":"event","name":"SuperNativePaymasterRefund","inputs":[{"name":"sender","type":"address","indexed":true,"internalType":"address"},{"name":"refundAmount","type":"uint256","indexed":false,"internalType":"uint256"},{"name":"initialRefund","type":"uint256","indexed":false,"internalType":"uint256"}],"anonymous":false},{"type":"event","name":"UserOperationsHandled","inputs":[{"name":"sender","type":"address","indexed":true,"internalType":"address"},{"name":"numOps","type":"uint256","indexed":false,"internalType":"uint256"},{"name":"initialAmount","type":"uint256","indexed":false,"internalType":"uint256"},{"name":"withdrawnAmount","type":"uint256","indexed":false,"internalType":"uint256"}],"anonymous":false},{"type":"error","name":"EMPTY_MESSAGE_VALUE","inputs":[]},{"type":"error","name":"INSUFFICIENT_BALANCE","inputs":[]},{"type":"error","name":"INVALID_MAX_GAS_LIMIT","inputs":[]},{"type":"error","name":"INVALID_NODE_OPERATOR_PREMIUM","inputs":[]},{"type":"error","name":"OwnableInvalidOwner","inputs":[{"name":"owner","type":"address","internalType":"address"}]},{"type":"error","name":"OwnableUnauthorizedAccount","inputs":[{"name":"account","type":"address","internalType":"address"}]},{"type":"error","name":"ZERO_ADDRESS","inputs":[]}],"bytecode":{"object":"0x60a0604052604051611f69380380611f69833981016040819052610022916101b6565b80338061004957604051631e4fbdf760e01b81525f60048201526024015b60405180910390fd5b61005281610092565b5061005c816100ae565b6001600160a01b0390811660805281163b5f0361008c5760405163538ba4f960e01b815260040160405180910390fd5b50610202565b600180546001600160a01b03191690556100ab81610167565b50565b6040516301ffc9a760e01b815263122a0e9b60e31b60048201526001600160a01b038216906301ffc9a790602401602060405180830381865afa1580156100f7573d5f5f3e3d5ffd5b505050506040513d601f19601f8201168201806040525081019061011b91906101e3565b6100ab5760405162461bcd60e51b815260206004820152601e60248201527f49456e747279506f696e7420696e74657266616365206d69736d6174636800006044820152606401610040565b5f80546001600160a01b038381166001600160a01b0319831681178455604051919092169283917f8be0079c531659141344cd1fd0a4f28419497f9722a3daafe3b4186f6b6457e09190a35050565b5f602082840312156101c6575f5ffd5b81516001600160a01b03811681146101dc575f5ffd5b9392505050565b5f602082840312156101f3575f5ffd5b815180151581146101dc575f5ffd5b608051611ced61027c5f395f818161024c01528181610333015281816103c60152818161049e01528181610544015281816105c001528181610652015281816107cb015281816108cc01528181610961015281816109cb01528181610a6c01528181610cb101528181610e3e0152610eeb0152611ced5ff3fe6080604052600436106100fa575f3560e01c80638da5cb5b11610092578063c23a5cea11610062578063c23a5cea14610282578063c399ec88146102a1578063c3bce009146102b5578063e30c3978146102d5578063f2fde38b146102f2575f5ffd5b80638da5cb5b146101eb57806397b2dcb91461021b578063b0d691fe1461023b578063bb9fe6bf1461026e575f5ffd5b806357956b58116100cd57806357956b5814610191578063715018a6146101a457806379ba5097146101b85780637c627b21146101cc575f5ffd5b80630396cb60146100fe578063205c28781461011357806324a29b4f1461013257806352b7512c14610164575b5f5ffd5b61011161010c36600461115d565b610311565b005b34801561011e575f5ffd5b5061011161012d36600461118c565b610398565b34801561013d575f5ffd5b5061015161014c3660046111b6565b610407565b6040519081526020015b60405180910390f35b34801561016f575f5ffd5b5061018361017e3660046111fc565b610472565b60405161015b929190611273565b61011161019f366004611294565b610494565b3480156101af575f5ffd5b506101116106fa565b3480156101c3575f5ffd5b5061011161070d565b3480156101d7575f5ffd5b506101116101e6366004611347565b610756565b3480156101f6575f5ffd5b505f546001600160a01b03165b6040516001600160a01b03909116815260200161015b565b61022e6102293660046113bb565b610772565b60405161015b9190611432565b348015610246575f5ffd5b506102037f000000000000000000000000000000000000000000000000000000000000000081565b348015610279575f5ffd5b506101116108c2565b34801561028d575f5ffd5b5061011161029c366004611488565b61093a565b3480156102ac575f5ffd5b506101516109b4565b6102c86102c33660046114a3565b610a41565b60405161015b91906114d4565b3480156102e0575f5ffd5b506001546001600160a01b0316610203565b3480156102fd575f5ffd5b5061011161030c366004611488565b610b5a565b610319610bca565b604051621cb65b60e51b815263ffffffff821660048201527f00000000000000000000000000000000000000000000000000000000000000006001600160a01b031690630396cb609034906024015f604051808303818588803b15801561037e575f5ffd5b505af1158015610390573d5f5f3e3d5ffd5b505050505050565b6103a0610bca565b60405163040b850f60e31b81526001600160a01b038381166004830152602482018390527f0000000000000000000000000000000000000000000000000000000000000000169063205c2878906044015f604051808303815f87803b15801561037e575f5ffd5b5f61271082111561042b57604051634ac0eaf160e01b815260040160405180910390fd5b5f6104448461043c856127106115ba565b612710610bf6565b90505f61045186886115cd565b9050808210156104685761046582826115e4565b92505b5050949350505050565b60605f61047d610ca6565b610488858585610d16565b91509150935093915050565b47801561052d575f7f00000000000000000000000000000000000000000000000000000000000000006001600160a01b0316826040515f6040518083038185875af1925050503d805f8114610504576040519150601f19603f3d011682016040523d82523d5f602084013e610509565b606091505b505090508061052b57604051632858f9ab60e11b815260040160405180910390fd5b505b60405163765e827f60e01b81526001600160a01b037f0000000000000000000000000000000000000000000000000000000000000000169063765e827f9061057d90869086903390600401611735565b5f604051808303815f87803b158015610594575f5ffd5b505af11580156105a6573d5f5f3e3d5ffd5b5050604051632943e70960e11b81523060048201525f92507f00000000000000000000000000000000000000000000000000000000000000006001600160a01b03169150635287ce129060240160a060405180830381865afa15801561060e573d5f5f3e3d5ffd5b505050506040513d601f19601f82011682018060405250810190610632919061184e565b5160405163040b850f60e31b8152336004820152602481018290529091507f00000000000000000000000000000000000000000000000000000000000000006001600160a01b03169063205c2878906044015f604051808303815f87803b15801561069b575f5ffd5b505af11580156106ad573d5f5f3e3d5ffd5b505060408051868152602081018690529081018490523392507fc2983a53d118d29e96e7fe9b12bc6892b76bee666f67db5b9168badefb6f6b38915060600160405180910390a250505050565b610702610bca565b61070b5f610dd0565b565b60015433906001600160a01b0316811461074a5760405163118cdaa760e01b81526001600160a01b03821660048201526024015b60405180910390fd5b61075381610dd0565b50565b61075e610ca6565b61076b8585858585610de9565b5050505050565b6107a86040518060c001604052805f81526020015f81526020015f81526020015f81526020015f15158152602001606081525090565b345f036107c85760405163c894453360e01b815260040160405180910390fd5b5f7f000000000000000000000000000000000000000000000000000000000000000060405163b760faf960e01b81523060048201529091506001600160a01b0382169063b760faf99034906024015f604051808303818588803b15801561082d575f5ffd5b505af115801561083f573d5f5f3e3d5ffd5b50506040516397b2dcb960e01b81526001600160a01b03851693506397b2dcb99250610876915089908990899089906004016118d9565b5f604051808303815f875af1158015610891573d5f5f3e3d5ffd5b505050506040513d5f823e601f3d908101601f191682016040526108b891908101906119a1565b9695505050505050565b6108ca610bca565b7f00000000000000000000000000000000000000000000000000000000000000006001600160a01b031663bb9fe6bf6040518163ffffffff1660e01b81526004015f604051808303815f87803b158015610922575f5ffd5b505af1158015610934573d5f5f3e3d5ffd5b50505050565b610942610bca565b60405163611d2e7560e11b81526001600160a01b0382811660048301527f0000000000000000000000000000000000000000000000000000000000000000169063c23a5cea906024015f604051808303815f87803b1580156109a2575f5ffd5b505af115801561076b573d5f5f3e3d5ffd5b6040516370a0823160e01b81523060048201525f907f00000000000000000000000000000000000000000000000000000000000000006001600160a01b0316906370a0823190602401602060405180830381865afa158015610a18573d5f5f3e3d5ffd5b505050506040513d601f19601f82011682018060405250810190610a3c9190611a44565b905090565b610a4961106c565b345f03610a695760405163c894453360e01b815260040160405180910390fd5b5f7f000000000000000000000000000000000000000000000000000000000000000060405163b760faf960e01b81523060048201529091506001600160a01b0382169063b760faf99034906024015f604051808303818588803b158015610ace575f5ffd5b505af1158015610ae0573d5f5f3e3d5ffd5b505060405163c3bce00960e01b81526001600160a01b038516935063c3bce0099250610b1191508690600401611a5b565b5f604051808303815f875af1158015610b2c573d5f5f3e3d5ffd5b505050506040513d5f823e601f3d908101601f19168201604052610b539190810190611adb565b9392505050565b610b62610bca565b600180546001600160a01b0383166001600160a01b03199091168117909155610b925f546001600160a01b031690565b6001600160a01b03167f38d16b8cac22d99fc7c124b9cd0de2d3fa1faef420bfe791d8c362d765e2270060405160405180910390a350565b5f546001600160a01b0316331461070b5760405163118cdaa760e01b8152336004820152602401610741565b5f5f5f610c038686610fd1565b91509150815f03610c2757838181610c1d57610c1d611be7565b0492505050610b53565b818411610c3e57610c3e6003851502601118610fed565b5f848688095f868103871696879004966002600389028118808a02820302808a02820302808a02820302808a02820302808a02820302808a02909103029181900381900460010185841190960395909502919093039390930492909217029150509392505050565b336001600160a01b037f0000000000000000000000000000000000000000000000000000000000000000161461070b5760405162461bcd60e51b815260206004820152601560248201527414d95b99195c881b9bdd08115b9d1c9e541bda5b9d605a1b6044820152606401610741565b60605f808080610d2960e0890189611bfb565b610d37916034908290611c3d565b810190610d449190611c64565b925092509250612710821115610d6d57604051634ac0eaf160e01b815260040160405180910390fd5b610d7a6020890189611488565b610d8389610ffe565b604080516001600160a01b039093166020840152820152606081018490526080810183905260a0810182905260c00160408051601f19818403018152919052985f98509650505050505050565b600180546001600160a01b03191690556107538161101d565b5f80808080610dfa888a018a611c8d565b945094509450945094508087610e1091906115ba565b96505f610e1f84868a86610407565b90508015610f8b57604051632943e70960e11b81523060048201525f907f00000000000000000000000000000000000000000000000000000000000000006001600160a01b031690635287ce129060240160a060405180830381865afa158015610e8b573d5f5f3e3d5ffd5b505050506040513d601f19601f82011682018060405250810190610eaf919061184e565b5190505f818311610ec05782610ec2565b815b60405163040b850f60e31b81526001600160a01b038a81166004830152602482018390529192507f00000000000000000000000000000000000000000000000000000000000000009091169063205c2878906044015f604051808303815f87803b158015610f2e575f5ffd5b505af1158015610f40573d5f5f3e3d5ffd5b505060408051848152602081018790526001600160a01b038c1693507ff311b1f65baf2e52d246ec3fc2cb4f5698f0622142592e4e5794b09746e0d06b92500160405180910390a250505b7f34b2c95a547acd4b4fa4f6947733d3b663b320b4c98ce28006f00f0d4756de548a8a604051610fbc929190611ccd565b60405180910390a15050505050505050505050565b5f805f1983850993909202808410938190039390930393915050565b634e487b715f52806020526024601cfd5b5f6fffffffffffffffffffffffffffffffff60c0830135165b92915050565b5f80546001600160a01b038381166001600160a01b0319831681178455604051919092169283917f8be0079c531659141344cd1fd0a4f28419497f9722a3daafe3b4186f6b6457e09190a35050565b6040518060a001604052806110a56040518060a001604052805f81526020015f81526020015f81526020015f8152602001606081525090565b81526020016110c560405180604001604052805f81526020015f81525090565b81526020016110e560405180604001604052805f81526020015f81525090565b815260200161110560405180604001604052805f81526020015f81525090565b8152602001611112611117565b905290565b60405180604001604052805f6001600160a01b0316815260200161111260405180604001604052805f81526020015f81525090565b63ffffffff81168114610753575f5ffd5b5f6020828403121561116d575f5ffd5b8135610b538161114c565b6001600160a01b0381168114610753575f5ffd5b5f5f6040838503121561119d575f5ffd5b82356111a881611178565b946020939093013593505050565b5f5f5f5f608085870312156111c9575f5ffd5b5050823594602084013594506040840135936060013592509050565b5f61012082840312156111f6575f5ffd5b50919050565b5f5f5f6060848603121561120e575f5ffd5b83356001600160401b03811115611223575f5ffd5b61122f868287016111e5565b9660208601359650604090950135949350505050565b5f81518084528060208401602086015e5f602082860101526020601f19601f83011685010191505092915050565b604081525f6112856040830185611245565b90508260208301529392505050565b5f5f602083850312156112a5575f5ffd5b82356001600160401b038111156112ba575f5ffd5b8301601f810185136112ca575f5ffd5b80356001600160401b038111156112df575f5ffd5b8560208260051b84010111156112f3575f5ffd5b6020919091019590945092505050565b5f5f83601f840112611313575f5ffd5b5081356001600160401b03811115611329575f5ffd5b602083019150836020828501011115611340575f5ffd5b9250929050565b5f5f5f5f5f6080868803121561135b575f5ffd5b853560038110611369575f5ffd5b945060208601356001600160401b03811115611383575f5ffd5b61138f88828901611303565b9699909850959660408101359660609091013595509350505050565b80356113b681611178565b919050565b5f5f5f5f606085870312156113ce575f5ffd5b84356001600160401b038111156113e3575f5ffd5b6113ef878288016111e5565b945050602085013561140081611178565b925060408501356001600160401b0381111561141a575f5ffd5b61142687828801611303565b95989497509550505050565b60208152815160208201526020820151604082015260408201516060820152606082015160808201526080820151151560a08201525f60a083015160c08084015261148060e0840182611245565b949350505050565b5f60208284031215611498575f5ffd5b8135610b5381611178565b5f602082840312156114b3575f5ffd5b81356001600160401b038111156114c8575f5ffd5b611480848285016111e5565b602080825282516101408383015280516101608401529081015161018083015260408101516101a083015260608101516101c08301526080015160a06101e08301525f90611526610200840182611245565b90506020840151611544604085018280518252602090810151910152565b506040840151805160808581019190915260209182015160a08601526060860151805160c087015282015160e086015285015180516001600160a01b031661010086015280820151805161012087015290910151610140850152509392505050565b634e487b7160e01b5f52601160045260245ffd5b80820180821115611017576110176115a6565b8082028115828204841417611017576110176115a6565b81810381811115611017576110176115a6565b5f5f8335601e1984360301811261160c575f5ffd5b83016020810192503590506001600160401b0381111561162a575f5ffd5b803603821315611340575f5ffd5b81835281816020850137505f828201602090810191909152601f909101601f19169091010190565b61167a8261166d836113ab565b6001600160a01b03169052565b602081810135908301525f61169260408301836115f7565b61012060408601526116a961012086018284611638565b9150506116b960608401846115f7565b85830360608701526116cc838284611638565b6080868101359088015260a0808701359088015260c0808701359088015292506116fc91505060e08401846115f7565b85830360e087015261170f838284611638565b925050506117216101008401846115f7565b8583036101008701526108b8838284611638565b604080825281018390525f6060600585901b83018101908301868361011e1936839003015b8882101561179e57868503605f190184528235818112611778575f5ffd5b611784868c8301611660565b95505060208301925060208401935060018201915061175a565b505050506001600160a01b0393909316602092909201919091525092915050565b634e487b7160e01b5f52604160045260245ffd5b60405160a081016001600160401b03811182821017156117f5576117f56117bf565b60405290565b60405160c081016001600160401b03811182821017156117f5576117f56117bf565b604080519081016001600160401b03811182821017156117f5576117f56117bf565b805180151581146113b6575f5ffd5b5f60a082840312801561185f575f5ffd5b506118686117d3565b825181526118786020840161183f565b602082015260408301516dffffffffffffffffffffffffffff8116811461189d575f5ffd5b604082015260608301516118b08161114c565b6060820152608083015165ffffffffffff811681146118cd575f5ffd5b60808201529392505050565b606081525f6118eb6060830187611660565b6001600160a01b0386166020840152828103604084015261190d818587611638565b979650505050505050565b5f82601f830112611927575f5ffd5b81516001600160401b03811115611940576119406117bf565b604051601f8201601f19908116603f011681016001600160401b038111828210171561196e5761196e6117bf565b604052818152838201602001851015611985575f5ffd5b8160208501602083015e5f918101602001919091529392505050565b5f602082840312156119b1575f5ffd5b81516001600160401b038111156119c6575f5ffd5b820160c081850312156119d7575f5ffd5b6119df6117fb565b81518152602080830151908201526040808301519082015260608083015190820152611a0d6080830161183f565b608082015260a08201516001600160401b03811115611a2a575f5ffd5b611a3686828501611918565b60a083015250949350505050565b5f60208284031215611a54575f5ffd5b5051919050565b602081525f610b536020830184611660565b5f60408284031215611a7d575f5ffd5b611a8561181d565b825181526020928301519281019290925250919050565b5f60608284031215611aac575f5ffd5b611ab461181d565b90508151611ac181611178565b8152611ad08360208401611a6d565b602082015292915050565b5f60208284031215611aeb575f5ffd5b81516001600160401b03811115611b00575f5ffd5b82016101408185031215611b12575f5ffd5b611b1a6117d3565b81516001600160401b03811115611b2f575f5ffd5b820160a08187031215611b40575f5ffd5b611b486117d3565b8151815260208083015190820152604080830151908201526060808301519082015260808201516001600160401b03811115611b82575f5ffd5b611b8e88828501611918565b608083015250825250611ba48560208401611a6d565b6020820152611bb68560608401611a6d565b6040820152611bc88560a08401611a6d565b6060820152611bda8560e08401611a9c565b6080820152949350505050565b634e487b7160e01b5f52601260045260245ffd5b5f5f8335601e19843603018112611c10575f5ffd5b8301803591506001600160401b03821115611c29575f5ffd5b602001915036819003821315611340575f5ffd5b5f5f85851115611c4b575f5ffd5b83861115611c57575f5ffd5b5050820193919092039150565b5f5f5f60608486031215611c76575f5ffd5b505081359360208301359350604090920135919050565b5f5f5f5f5f60a08688031215611ca1575f5ffd5b8535611cac81611178565b97602087013597506040870135966060810135965060800135945092505050565b602081525f61148060208301848661163856fea164736f6c634300081e000a","linkReferences":{}},"methodIdentifiers":{"acceptOwnership()":"79ba5097","addStake(uint32)":"0396cb60","calculateRefund(uint256,uint256,uint256,uint256)":"24a29b4f","entryPoint()":"b0d691fe","getDeposit()":"c399ec88","handleOps((address,uint256,bytes,bytes,bytes32,uint256,bytes32,bytes,bytes)[])":"57956b58","owner()":"8da5cb5b","pendingOwner()":"e30c3978","postOp(uint8,bytes,uint256,uint256)":"7c627b21","renounceOwnership()":"715018a6","simulateHandleOp((address,uint256,bytes,bytes,bytes32,uint256,bytes32,bytes,bytes),address,bytes)":"97b2dcb9","simulateValidation((address,uint256,bytes,bytes,bytes32,uint256,bytes32,bytes,bytes))":"c3bce009","transferOwnership(address)":"f2fde38b","unlockStake()":"bb9fe6bf","validatePaymasterUserOp((address,uint256,bytes,bytes,bytes32,uint256,bytes32,bytes,bytes),bytes32,uint256)":"52b7512c","withdrawStake(address)":"c23a5cea","withdrawTo(address,uint256)":"205c2878"},"id":419}