{"abi":[{"type":"constructor","inputs":[{"name":"_routerV2","type":"address","internalType":"address"}],"stateMutability":"nonpayable"},{"type":"function","name":"asset","inputs":[],"outputs":[{"name":"","type":"address","internalType":"address"}],"stateMutability":"view"},{"type":"function","name":"build","inputs":[{"name":"prevHook","type":"address","internalType":"address"},{"name":"account","type":"address","internalType":"address"},{"name":"hookData","type":"bytes","internalType":"bytes"}],"outputs":[{"name":"executions","type":"tuple[]","internalType":"struct Execution[]","components":[{"name":"target","type":"address","internalType":"address"},{"name":"value","type":"uint256","internalType":"uint256"},{"name":"callData","type":"bytes","internalType":"bytes"}]}],"stateMutability":"view"},{"type":"function","name":"decodeUsePrevHookAmount","inputs":[{"name":"data","type":"bytes","internalType":"bytes"}],"outputs":[{"name":"","type":"bool","internalType":"bool"}],"stateMutability":"pure"},{"type":"function","name":"executionNonce","inputs":[],"outputs":[{"name":"","type":"uint256","internalType":"uint256"}],"stateMutability":"view"},{"type":"function","name":"getOutAmount","inputs":[{"name":"caller","type":"address","internalType":"address"}],"outputs":[{"name":"","type":"uint256","internalType":"uint256"}],"stateMutability":"view"},{"type":"function","name":"hookType","inputs":[],"outputs":[{"name":"","type":"uint8","internalType":"enum ISuperHook.HookType"}],"stateMutability":"view"},{"type":"function","name":"inspect","inputs":[{"name":"data","type":"bytes","internalType":"bytes"}],"outputs":[{"name":"","type":"bytes","internalType":"bytes"}],"stateMutability":"pure"},{"type":"function","name":"lastCaller","inputs":[],"outputs":[{"name":"","type":"address","internalType":"address"}],"stateMutability":"view"},{"type":"function","name":"odosRouterV2","inputs":[],"outputs":[{"name":"","type":"address","internalType":"contract IOdosRouterV2"}],"stateMutability":"view"},{"type":"function","name":"postExecute","inputs":[{"name":"prevHook","type":"address","internalType":"address"},{"name":"account","type":"address","internalType":"address"},{"name":"data","type":"bytes","internalType":"bytes"}],"outputs":[],"stateMutability":"nonpayable"},{"type":"function","name":"postExecuteMutex","inputs":[],"outputs":[{"name":"","type":"bool","internalType":"bool"}],"stateMutability":"view"},{"type":"function","name":"preExecute","inputs":[{"name":"prevHook","type":"address","internalType":"address"},{"name":"account","type":"address","internalType":"address"},{"name":"data","type":"bytes","internalType":"bytes"}],"outputs":[],"stateMutability":"nonpayable"},{"type":"function","name":"preExecuteMutex","inputs":[],"outputs":[{"name":"","type":"bool","internalType":"bool"}],"stateMutability":"view"},{"type":"function","name":"resetExecutionState","inputs":[{"name":"caller","type":"address","internalType":"address"}],"outputs":[],"stateMutability":"nonpayable"},{"type":"function","name":"setExecutionContext","inputs":[{"name":"caller","type":"address","internalType":"address"}],"outputs":[],"stateMutability":"nonpayable"},{"type":"function","name":"setOutAmount","inputs":[{"name":"_outAmount","type":"uint256","internalType":"uint256"},{"name":"caller","type":"address","internalType":"address"}],"outputs":[],"stateMutability":"nonpayable"},{"type":"function","name":"spToken","inputs":[],"outputs":[{"name":"","type":"address","internalType":"address"}],"stateMutability":"view"},{"type":"function","name":"subType","inputs":[],"outputs":[{"name":"","type":"bytes32","internalType":"bytes32"}],"stateMutability":"view"},{"type":"function","name":"subtype","inputs":[],"outputs":[{"name":"","type":"bytes32","internalType":"bytes32"}],"stateMutability":"view"},{"type":"function","name":"usedShares","inputs":[],"outputs":[{"name":"","type":"uint256","internalType":"uint256"}],"stateMutability":"view"},{"type":"error","name":"ADDRESS_NOT_VALID","inputs":[]},{"type":"error","name":"AMOUNT_NOT_VALID","inputs":[]},{"type":"error","name":"CANNOT_SET_OUT_AMOUNT","inputs":[]},{"type":"error","name":"INCOMPLETE_HOOK_EXECUTION","inputs":[]},{"type":"error","name":"NOT_AUTHORIZED","inputs":[]},{"type":"error","name":"POST_EXECUTE_ALREADY_CALLED","inputs":[]},{"type":"error","name":"PRE_EXECUTE_ALREADY_CALLED","inputs":[]},{"type":"error","name":"UNAUTHORIZED_CALLER","inputs":[]}],"bytecode":{"object":"0x60c060405234801561000f575f5ffd5b5060405161185338038061185383398101604081905261002e916100af565b6040805180820190915260048152630537761760e41b6020909101525f805460ff191690557fbce316f0d9d2a3affa97de1d99bb2aac0538e2666d0d8545545ead241ef0ccab6080526001600160a01b03811661009e57604051630f58648f60e01b815260040160405180910390fd5b6001600160a01b031660a0526100dc565b5f602082840312156100bf575f5ffd5b81516001600160a01b03811681146100d5575f5ffd5b9392505050565b60805160a05161174861010b5f395f818161029d0152610cf501525f81816101f301526102c401526117485ff3fe608060405234801561000f575f5ffd5b5060043610610127575f3560e01c8063685a943c116100a9578063cbb595d81161006e578063cbb595d814610298578063cf0a6181146102bf578063d06a1e89146102e6578063e445e7dd146102f9578063e774551714610312575f5ffd5b8063685a943c1461023957806381cbe6911461024157806384542a24146102545780638c4313c1146102665780638e14877614610286575f5ffd5b80632ae2fe3d116100ef5780632ae2fe3d146101ac57806338d52e0f146101bf5780633b5896bc146101d15780635492e677146101f157806360b5be2914610217575f5ffd5b806301bd43ef1461012b57806305b4fe911461014757806314cb37cf1461015c5780631f2646191461016f5780632113522a14610182575b5f5ffd5b61013460035c81565b6040519081526020015b60405180910390f35b61015a610155366004611344565b610325565b005b61015a61016a3660046113a1565b61039f565b61015a61017d3660046113c1565b6103c0565b6101946001600160a01b0360045c1681565b6040516001600160a01b03909116815260200161013e565b61015a6101ba366004611344565b610419565b6101946001600160a01b0360025c1681565b6101e46101df366004611344565b61048c565b60405161013e9190611419565b7f0000000000000000000000000000000000000000000000000000000000000000610134565b61022960ff600160a81b60025c041681565b604051901515815260200161013e565b6101345f5c81565b61013461024f3660046113a1565b6106a5565b61022960ff600160a01b60025c041681565b6102796102743660046114a6565b6106bd565b60405161013e91906114e5565b6101946001600160a01b0360015c1681565b6101947f000000000000000000000000000000000000000000000000000000000000000081565b6101347f000000000000000000000000000000000000000000000000000000000000000081565b61015a6102f43660046113a1565b610868565b5f546103059060ff1681565b60405161013e91906114f7565b610229610320366004611531565b6108ba565b336001600160a01b0384161461034e5760405163e15e56c960e01b815260040160405180910390fd5b5f610358846108c6565b9050610363816108d9565b156103815760405163945b63f560e01b815260040160405180910390fd5b61038c8160016108e6565b610398858585856108fc565b5050505050565b6103a88161095d565b50336004805c6001600160a01b0319168217905d5050565b5f6103ca826108c6565b90506103d58161098f565b806103e457506103e4816108d9565b156104025760405163441e4c7360e11b815260040160405180910390fd5b5f61040e826001610998565b905083815d50505050565b336001600160a01b038416146104425760405163e15e56c960e01b815260040160405180910390fd5b5f61044c846108c6565b90506104578161098f565b1561047557604051630bbb04d960e11b815260040160405180910390fd5b6104808160016109ed565b610398858585856109f9565b60605f61049b86868686610a3b565b9050805160026104ab91906115f8565b67ffffffffffffffff8111156104c3576104c361151d565b60405190808252806020026020018201604052801561050f57816020015b60408051606080820183525f8083526020830152918101919091528152602001906001900390816104e15790505b5091506040518060600160405280306001600160a01b031681526020015f8152602001306001600160a01b0316632ae2fe3d89898989604051602401610558949392919061160b565b604051602081830303815290604052915060e01b6020820180516001600160e01b038381831617835250505050815250825f8151811061059a5761059a611653565b60209081029190910101525f5b81518110156105fb578181815181106105c2576105c2611653565b6020026020010151838260016105d891906115f8565b815181106105e8576105e8611653565b60209081029190910101526001016105a7565b506040518060600160405280306001600160a01b031681526020015f8152602001306001600160a01b03166305b4fe9189898989604051602401610642949392919061160b565b604051602081830303815290604052915060e01b6020820180516001600160e01b03838183161783525050505081525082600184516106819190611667565b8151811061069157610691611653565b602002602001018190525050949350505050565b5f6106b76106b2836108c6565b610df6565b92915050565b60605f61070184848080601f0160208091040260200160405190810160405280939291908181526020018383808284375f92019190915250609d9250610e03915050565b90505f61074f85858080601f0160208091040260200160405190810160405280939291908181526020018383808284375f9201919091525061074a925086915060bd90506115f8565b610e65565b905061078f85858080601f0160208091040260200160405190810160405280939291908181526020018383808284375f9201829052509250610e65915050565b6107d086868080601f0160208091040260200160405190810160405280939291908181526020018383808284375f9201919091525060349250610e65915050565b61081187878080601f0160208091040260200160405190810160405280939291908181526020018383808284375f9201919091525060489250610e65915050565b6040516bffffffffffffffffffffffff19606094851b8116602083015292841b8316603482015290831b821660488201529183901b16605c8201526070016040516020818303038152906040529250505092915050565b5f610872826108c6565b905061087d8161098f565b158061088f575061088d816108d9565b155b156108ad57604051634bd439b560e11b815260040160405180910390fd5b6108b681610ec9565b5050565b5f6106b782609c610ee0565b5f5f6108d183610f0c565b5c9392505050565b5f5f6108d1836003610998565b5f6108f2836003610998565b905081815d505050565b610957610908846106a5565b6109478585858080601f0160208091040260200160405190810160405280939291908181526020018383808284375f92019190915250610f7892505050565b6109519190611667565b84611017565b50505050565b5f6003805c908261096d8361167a565b9190505d505f61097c83610f0c565b905060035c80825d505060035c92915050565b5f5f6108d18360025b604080517fc41a07c57a776f6217c6d4278dfe7a5d114742afe55627ce458c2802aa4d703460208083019190915281830194909452606080820193909352815180820390930183526080019052805191012090565b5f6108f2836002610998565b6109576109518484848080601f0160208091040260200160405190810160405280939291908181526020018383808284375f92019190915250610f7892505050565b60605f610a7f84848080601f0160208091040260200160405190810160405280939291908181526020018383808284375f92019190915250609d9250610e03915050565b90505f610ac585858080601f0160208091040260200160405190810160405280939291908181526020018383808284375f9201919091525060bd925086915061102f9050565b90505f610b0e86868080601f0160208091040260200160405190810160405280939291908181526020018383808284375f9201919091525061074a925087915060bd90506115f8565b90505f610b6787878080601f0160208091040260200160405190810160405280939291908181526020018383808284375f92019190915250610b57925088915060bd90506115f8565b610b629060146115f8565b611134565b90505f610ba888888080601f0160208091040260200160405190810160405280939291908181526020018383808284375f9201829052509250610e65915050565b90505f610bec89898080601f0160208091040260200160405190810160405280939291908181526020018383808284375f9201919091525060149250610e03915050565b90505f610c308a8a8080601f0160208091040260200160405190810160405280939291908181526020018383808284375f92019190915250609c9250610ee0915050565b90508015610ca3576040516381cbe69160e01b81526001600160a01b038c811660048301528d16906381cbe69190602401602060405180830381865afa158015610c7c573d5f5f3e3d5ffd5b505050506040513d601f19601f82011682018060405250810190610ca09190611692565b91505b60408051600180825281830190925290816020015b60408051606080820183525f808352602083015291810191909152815260200190600190039081610cb857905050975060405180606001604052807f00000000000000000000000000000000000000000000000000000000000000006001600160a01b031681526020015f6001600160a01b0316856001600160a01b031614610d41575f610d43565b835b8152602001610d888d8f8e8e8080601f0160208091040260200160405190810160405280939291908181526020018383808284375f9201919091525061119092505050565b888888604051602401610d9e94939291906116a9565b60408051601f198184030181529190526020810180516001600160e01b0316630ed8d73960e21b1790529052885189905f90610ddc57610ddc611653565b602002602001018190525050505050505050949350505050565b5f5f6108d1836001610998565b5f610e0f8260206115f8565b83511015610e5c5760405162461bcd60e51b8152602060048201526015602482015274746f55696e743235365f6f75744f66426f756e647360581b60448201526064015b60405180910390fd5b50016020015190565b5f610e718260146115f8565b83511015610eb95760405162461bcd60e51b8152602060048201526015602482015274746f416464726573735f6f75744f66426f756e647360581b6044820152606401610e53565b500160200151600160601b900490565b610ed3815f6109ed565b610edd815f6108e6565b50565b5f828281518110610ef357610ef3611653565b01602001516001600160f81b0319161515905092915050565b5f7f8ce092d4869bdfa1a1ce579ddddb2b776c39ace5d7b5d7e70e97ece2a78f4f9b82604051602001610f5b92919091825260601b6bffffffffffffffffffffffff1916602082015260340190565b604051602081830303815290604052805190602001209050919050565b5f5f610f85836048610e65565b90506001600160a01b038116610fa75750506001600160a01b038216316106b7565b6040516370a0823160e01b81526001600160a01b0385811660048301528216906370a0823190602401602060405180830381865afa158015610feb573d5f5f3e3d5ffd5b505050506040513d601f19601f8201168201806040525081019061100f9190611692565b949350505050565b5f611021826108c6565b90505f61040e826001610998565b60608182601f0110156110755760405162461bcd60e51b815260206004820152600e60248201526d736c6963655f6f766572666c6f7760901b6044820152606401610e53565b61107f82846115f8565b845110156110c35760405162461bcd60e51b8152602060048201526011602482015270736c6963655f6f75744f66426f756e647360781b6044820152606401610e53565b6060821580156110e15760405191505f82526020820160405261112b565b6040519150601f8416801560200281840101858101878315602002848b0101015b8183101561111a578051835260209283019201611102565b5050858452601f01601f1916604052505b50949350505050565b5f6111408260046115f8565b835110156111875760405162461bcd60e51b8152602060048201526014602482015273746f55696e7433325f6f75744f66426f756e647360601b6044820152606401610e53565b50016004015190565b6040805160e0810182525f80825260208201819052918101829052606081018290526080810182905260a0810182905260c08101829052906111d28382610e65565b90505f6111e0846014610e03565b90505f6111ee856034610e65565b90505f6111fc866048610e65565b90505f61120a87605c610e03565b90505f61121888607c610e03565b90505f61122689609c610ee0565b90508015611299576040516381cbe69160e01b81526001600160a01b038c811660048301528b16906381cbe69190602401602060405180830381865afa158015611272573d5f5f3e3d5ffd5b505050506040513d601f19601f820116820180604052508101906112969190611692565b95505b506040805160e0810182526001600160a01b0397881681526020810196909652938616938501939093529084166060840152608083015260a0820152941660c0850152509192915050565b80356001600160a01b03811681146112fa575f5ffd5b919050565b5f5f83601f84011261130f575f5ffd5b50813567ffffffffffffffff811115611326575f5ffd5b60208301915083602082850101111561133d575f5ffd5b9250929050565b5f5f5f5f60608587031215611357575f5ffd5b611360856112e4565b935061136e602086016112e4565b9250604085013567ffffffffffffffff811115611389575f5ffd5b611395878288016112ff565b95989497509550505050565b5f602082840312156113b1575f5ffd5b6113ba826112e4565b9392505050565b5f5f604083850312156113d2575f5ffd5b823591506113e2602084016112e4565b90509250929050565b5f81518084528060208401602086015e5f602082860101526020601f19601f83011685010191505092915050565b5f602082016020835280845180835260408501915060408160051b8601019250602086015f5b8281101561149a57868503603f19018452815180516001600160a01b0316865260208082015190870152604090810151606091870182905290611484908701826113eb565b955050602093840193919091019060010161143f565b50929695505050505050565b5f5f602083850312156114b7575f5ffd5b823567ffffffffffffffff8111156114cd575f5ffd5b6114d9858286016112ff565b90969095509350505050565b602081525f6113ba60208301846113eb565b602081016003831061151757634e487b7160e01b5f52602160045260245ffd5b91905290565b634e487b7160e01b5f52604160045260245ffd5b5f60208284031215611541575f5ffd5b813567ffffffffffffffff811115611557575f5ffd5b8201601f81018413611567575f5ffd5b803567ffffffffffffffff8111156115815761158161151d565b604051601f8201601f19908116603f0116810167ffffffffffffffff811182821017156115b0576115b061151d565b6040528181528282016020018610156115c7575f5ffd5b816020840160208301375f91810160200191909152949350505050565b634e487b7160e01b5f52601160045260245ffd5b808201808211156106b7576106b76115e4565b6001600160a01b038581168252841660208201526060604082018190528101829052818360808301375f818301608090810191909152601f909201601f191601019392505050565b634e487b7160e01b5f52603260045260245ffd5b818103818111156106b7576106b76115e4565b5f6001820161168b5761168b6115e4565b5060010190565b5f602082840312156116a2575f5ffd5b5051919050565b84516001600160a01b039081168252602080870151908301526040808701518216908301526060808701518216908301526080808701519083015260a0868101519083015260c0808701519091169082015261014060e082018190525f90611713908301866113eb565b6001600160a01b038516610100840152905063ffffffff83166101208301529594505050505056fea164736f6c634300081e000a","linkReferences":{}},"methodIdentifiers":{"asset()":"38d52e0f","build(address,address,bytes)":"3b5896bc","decodeUsePrevHookAmount(bytes)":"e7745517","executionNonce()":"01bd43ef","getOutAmount(address)":"81cbe691","hookType()":"e445e7dd","inspect(bytes)":"8c4313c1","lastCaller()":"2113522a","odosRouterV2()":"cbb595d8","postExecute(address,address,bytes)":"05b4fe91","postExecuteMutex()":"60b5be29","preExecute(address,address,bytes)":"2ae2fe3d","preExecuteMutex()":"84542a24","resetExecutionState(address)":"d06a1e89","setExecutionContext(address)":"14cb37cf","setOutAmount(uint256,address)":"1f264619","spToken()":"8e148776","subType()":"cf0a6181","subtype()":"5492e677","usedShares()":"685a943c"},"id":368}