{"abi":[{"type":"constructor","inputs":[{"name":"aggregationRouter_","type":"address","internalType":"address"}],"stateMutability":"nonpayable"},{"type":"function","name":"NATIVE","inputs":[],"outputs":[{"name":"","type":"address","internalType":"address"}],"stateMutability":"view"},{"type":"function","name":"aggregationRouter","inputs":[],"outputs":[{"name":"","type":"address","internalType":"contract I1InchAggregationRouterV6"}],"stateMutability":"view"},{"type":"function","name":"asset","inputs":[],"outputs":[{"name":"","type":"address","internalType":"address"}],"stateMutability":"view"},{"type":"function","name":"build","inputs":[{"name":"prevHook","type":"address","internalType":"address"},{"name":"account","type":"address","internalType":"address"},{"name":"hookData","type":"bytes","internalType":"bytes"}],"outputs":[{"name":"executions","type":"tuple[]","internalType":"struct Execution[]","components":[{"name":"target","type":"address","internalType":"address"},{"name":"value","type":"uint256","internalType":"uint256"},{"name":"callData","type":"bytes","internalType":"bytes"}]}],"stateMutability":"view"},{"type":"function","name":"decodeUsePrevHookAmount","inputs":[{"name":"data","type":"bytes","internalType":"bytes"}],"outputs":[{"name":"","type":"bool","internalType":"bool"}],"stateMutability":"pure"},{"type":"function","name":"executionNonce","inputs":[],"outputs":[{"name":"","type":"uint256","internalType":"uint256"}],"stateMutability":"view"},{"type":"function","name":"getOutAmount","inputs":[{"name":"caller","type":"address","internalType":"address"}],"outputs":[{"name":"","type":"uint256","internalType":"uint256"}],"stateMutability":"view"},{"type":"function","name":"hookType","inputs":[],"outputs":[{"name":"","type":"uint8","internalType":"enum ISuperHook.HookType"}],"stateMutability":"view"},{"type":"function","name":"inspect","inputs":[{"name":"data","type":"bytes","internalType":"bytes"}],"outputs":[{"name":"","type":"bytes","internalType":"bytes"}],"stateMutability":"pure"},{"type":"function","name":"lastCaller","inputs":[],"outputs":[{"name":"","type":"address","internalType":"address"}],"stateMutability":"view"},{"type":"function","name":"postExecute","inputs":[{"name":"prevHook","type":"address","internalType":"address"},{"name":"account","type":"address","internalType":"address"},{"name":"data","type":"bytes","internalType":"bytes"}],"outputs":[],"stateMutability":"nonpayable"},{"type":"function","name":"postExecuteMutex","inputs":[],"outputs":[{"name":"","type":"bool","internalType":"bool"}],"stateMutability":"view"},{"type":"function","name":"preExecute","inputs":[{"name":"prevHook","type":"address","internalType":"address"},{"name":"account","type":"address","internalType":"address"},{"name":"data","type":"bytes","internalType":"bytes"}],"outputs":[],"stateMutability":"nonpayable"},{"type":"function","name":"preExecuteMutex","inputs":[],"outputs":[{"name":"","type":"bool","internalType":"bool"}],"stateMutability":"view"},{"type":"function","name":"resetExecutionState","inputs":[{"name":"caller","type":"address","internalType":"address"}],"outputs":[],"stateMutability":"nonpayable"},{"type":"function","name":"setExecutionContext","inputs":[{"name":"caller","type":"address","internalType":"address"}],"outputs":[],"stateMutability":"nonpayable"},{"type":"function","name":"setOutAmount","inputs":[{"name":"_outAmount","type":"uint256","internalType":"uint256"},{"name":"caller","type":"address","internalType":"address"}],"outputs":[],"stateMutability":"nonpayable"},{"type":"function","name":"spToken","inputs":[],"outputs":[{"name":"","type":"address","internalType":"address"}],"stateMutability":"view"},{"type":"function","name":"subType","inputs":[],"outputs":[{"name":"","type":"bytes32","internalType":"bytes32"}],"stateMutability":"view"},{"type":"function","name":"subtype","inputs":[],"outputs":[{"name":"","type":"bytes32","internalType":"bytes32"}],"stateMutability":"view"},{"type":"function","name":"usedShares","inputs":[],"outputs":[{"name":"","type":"uint256","internalType":"uint256"}],"stateMutability":"view"},{"type":"error","name":"ADDRESS_NOT_VALID","inputs":[]},{"type":"error","name":"AMOUNT_NOT_VALID","inputs":[]},{"type":"error","name":"CANNOT_SET_OUT_AMOUNT","inputs":[]},{"type":"error","name":"INCOMPLETE_HOOK_EXECUTION","inputs":[]},{"type":"error","name":"INVALID_DESTINATION_TOKEN","inputs":[]},{"type":"error","name":"INVALID_INPUT_AMOUNT","inputs":[]},{"type":"error","name":"INVALID_OUTPUT_AMOUNT","inputs":[]},{"type":"error","name":"INVALID_RECEIVER","inputs":[]},{"type":"error","name":"INVALID_SELECTOR","inputs":[]},{"type":"error","name":"INVALID_SELECTOR_OFFSET","inputs":[]},{"type":"error","name":"INVALID_TOKEN_PAIR","inputs":[]},{"type":"error","name":"NOT_AUTHORIZED","inputs":[]},{"type":"error","name":"PARTIAL_FILL_NOT_ALLOWED","inputs":[]},{"type":"error","name":"POST_EXECUTE_ALREADY_CALLED","inputs":[]},{"type":"error","name":"PRE_EXECUTE_ALREADY_CALLED","inputs":[]},{"type":"error","name":"SafeCastOverflowedIntDowncast","inputs":[{"name":"bits","type":"uint8","internalType":"uint8"},{"name":"value","type":"int256","internalType":"int256"}]},{"type":"error","name":"SafeCastOverflowedUintDowncast","inputs":[{"name":"bits","type":"uint8","internalType":"uint8"},{"name":"value","type":"uint256","internalType":"uint256"}]},{"type":"error","name":"UNAUTHORIZED_CALLER","inputs":[]},{"type":"error","name":"ZERO_ADDRESS","inputs":[]}],"bytecode":{"object":"0x60c060405234801561000f575f5ffd5b5060405161219438038061219483398101604081905261002e916100af565b6040805180820190915260048152630537761760e41b6020909101525f805460ff191690557fbce316f0d9d2a3affa97de1d99bb2aac0538e2666d0d8545545ead241ef0ccab6080526001600160a01b03811661009e5760405163538ba4f960e01b815260040160405180910390fd5b6001600160a01b031660a0526100dc565b5f602082840312156100bf575f5ffd5b81516001600160a01b03811681146100d5575f5ffd5b9392505050565b60805160a05161208961010b5f395f81816103290152610ba801525f81816101fe01526102c301526120895ff3fe608060405234801561000f575f5ffd5b5060043610610132575f3560e01c8063685a943c116100b4578063a0cf0aea11610079578063a0cf0aea146102a3578063cf0a6181146102be578063d06a1e89146102e5578063e445e7dd146102f8578063e774551714610311578063fcdfd94614610324575f5ffd5b8063685a943c1461024457806381cbe6911461024c57806384542a241461025f5780638c4313c1146102715780638e14877614610291575f5ffd5b80632ae2fe3d116100fa5780632ae2fe3d146101b757806338d52e0f146101ca5780633b5896bc146101dc5780635492e677146101fc57806360b5be2914610222575f5ffd5b806301bd43ef1461013657806305b4fe911461015257806314cb37cf146101675780631f2646191461017a5780632113522a1461018d575b5f5ffd5b61013f60035c81565b6040519081526020015b60405180910390f35b6101656101603660046119a1565b61034b565b005b610165610175366004611a02565b6103c5565b610165610188366004611a1d565b6103e6565b61019f6001600160a01b0360045c1681565b6040516001600160a01b039091168152602001610149565b6101656101c53660046119a1565b61043f565b61019f6001600160a01b0360025c1681565b6101ef6101ea3660046119a1565b6104b2565b6040516101499190611a79565b7f000000000000000000000000000000000000000000000000000000000000000061013f565b61023460ff600160a81b60025c041681565b6040519015158152602001610149565b61013f5f5c81565b61013f61025a366004611a02565b6106cb565b61023460ff600160a01b60025c041681565b61028461027f366004611b06565b6106e3565b6040516101499190611b45565b61019f6001600160a01b0360015c1681565b61019f73eeeeeeeeeeeeeeeeeeeeeeeeeeeeeeeeeeeeeeee81565b61013f7f000000000000000000000000000000000000000000000000000000000000000081565b6101656102f3366004611a02565b61092b565b5f546103049060ff1681565b6040516101499190611b6b565b61023461031f366004611c59565b61097d565b61019f7f000000000000000000000000000000000000000000000000000000000000000081565b336001600160a01b038416146103745760405163e15e56c960e01b815260040160405180910390fd5b5f61037e84610989565b90506103898161099c565b156103a75760405163945b63f560e01b815260040160405180910390fd5b6103b28160016109a9565b6103be858585856109bf565b5050505050565b6103ce816109ec565b50336004805c6001600160a01b0319168217905d5050565b5f6103f082610989565b90506103fb81610a1e565b8061040a575061040a8161099c565b156104285760405163441e4c7360e11b815260040160405180910390fd5b5f610434826001610a27565b905083815d50505050565b336001600160a01b038416146104685760405163e15e56c960e01b815260040160405180910390fd5b5f61047284610989565b905061047d81610a1e565b1561049b57604051630bbb04d960e11b815260040160405180910390fd5b6104a6816001610a7c565b6103be85858585610a88565b60605f6104c186868686610a96565b9050805160026104d19190611ca7565b67ffffffffffffffff8111156104e9576104e9611b91565b60405190808252806020026020018201604052801561053557816020015b60408051606080820183525f8083526020830152918101919091528152602001906001900390816105075790505b5091506040518060600160405280306001600160a01b031681526020015f8152602001306001600160a01b0316632ae2fe3d8989898960405160240161057e9493929190611cba565b604051602081830303815290604052915060e01b6020820180516001600160e01b038381831617835250505050815250825f815181106105c0576105c0611d02565b60209081029190910101525f5b8151811015610621578181815181106105e8576105e8611d02565b6020026020010151838260016105fe9190611ca7565b8151811061060e5761060e611d02565b60209081029190910101526001016105cd565b506040518060600160405280306001600160a01b031681526020015f8152602001306001600160a01b03166305b4fe91898989896040516024016106689493929190611cba565b604051602081830303815290604052915060e01b6020820180516001600160e01b03838183161783525050505081525082600184516106a79190611d16565b815181106106b7576106b7611d02565b602002602001018190525050949350505050565b5f6106dd6106d883610989565b610cc9565b92915050565b6060365f6106f48460498188611d29565b90925090505f6107076004828486611d29565b61071091611d50565b90506060630e9b51bf60e11b6001600160e01b03198316016107bb575f808061073c866004818a611d29565b8101906107499190611d88565b9450505092509250610761836001600160a01b031690565b6001600160a01b0383166001600160a01b0383166040516001600160601b0319606094851b8116602083015292841b83166034820152921b166048820152605c016040516020818303038152906040529350505050610921565b63f812dc8760e01b6001600160e01b0319831601610860575f806107e28560048189611d29565b8101906107ef9190611dbf565b50805160208083015160408085015160608087015192516001600160601b031989831b81169682019690965295811b8516603487015292831b84166048860152821b8316605c850152901b166070820152919350915060840160405160208183030381529060405292505050610921565b633b29ad5160e01b6001600160e01b0319831601610908575f808080610889876004818b611d29565b8101906108969190611e96565b5050505050935093509350935083836108b5846001600160a01b031690565b6040516001600160601b0319606094851b8116602083015292841b8316603482015290831b821660488201529183901b16605c820152607001604051602081830303815290604052945050505050610921565b60405163d858d3d360e01b815260040160405180910390fd5b9695505050505050565b5f61093582610989565b905061094081610a1e565b158061095257506109508161099c565b155b1561097057604051634bd439b560e11b815260040160405180910390fd5b61097981610cd6565b5050565b5f6106dd826048610ced565b5f5f61099483610d19565b5c9392505050565b5f5f610994836003610a27565b5f6109b5836003610a27565b905081815d505050565b6109e66109cb846106cb565b6109d6848487610d80565b6109e09190611d16565b84610e80565b50505050565b5f6003805c90826109fc83611f11565b9190505d505f610a0b83610d19565b905060035c80825d505060035c92915050565b5f5f6109948360025b604080517fc41a07c57a776f6217c6d4278dfe7a5d114742afe55627ce458c2802aa4d703460208083019190915281830194909452606080820193909352815180820390930183526080019052805191012090565b5f6109b5836002610a27565b6109e66109e0838386610d80565b60605f610aa66014828587611d29565b610aaf91611f29565b60601c90505f610ac3602860148688611d29565b610acc91611f29565b60601c90505f610ae0604860288789611d29565b610ae991611f5f565b5f1c90505f610b2f87878080601f0160208091040260200160405190810160405280939291908181526020018383808284375f9201919091525060489250610ced915050565b9050365f610b40886049818c611d29565b915091505f610b5487878e8e888888610e98565b604080516001808252818301909252919250816020015b60408051606080820183525f808352602083015291810191909152815260200190600190039081610b6b57905050975060405180606001604052807f00000000000000000000000000000000000000000000000000000000000000006001600160a01b03168152602001858015610be157505f87115b610beb5786610c53565b6040516381cbe69160e01b81526001600160a01b038e811660048301528f16906381cbe69190602401602060405180830381865afa158015610c2f573d5f5f3e3d5ffd5b505050506040513d601f19601f82011682018060405250810190610c539190611f7c565b815260200185610c985784848080601f0160208091040260200160405190810160405280939291908181526020018383808284375f92019190915250610c9a92505050565b825b815250885f81518110610caf57610caf611d02565b602002602001018190525050505050505050949350505050565b5f5f610994836001610a27565b610ce0815f610a7c565b610cea815f6109a9565b50565b5f828281518110610d0057610d00611d02565b01602001516001600160f81b0319161515905092915050565b5f7f8ce092d4869bdfa1a1ce579ddddb2b776c39ace5d7b5d7e70e97ece2a78f4f9b82604051602001610d6392919091825260601b6001600160601b031916602082015260340190565b604051602081830303815290604052805190602001209050919050565b5f80610d8f6014828688611d29565b610d9891611f29565b60601c90505f610dac602860148789611d29565b610db591611f29565b60601c905080610dc25750825b6001600160a01b03821673eeeeeeeeeeeeeeeeeeeeeeeeeeeeeeeeeeeeeeee1480610df457506001600160a01b038216155b15610e0c576001600160a01b0316319150610e799050565b6040516370a0823160e01b81526001600160a01b0382811660048301528316906370a0823190602401602060405180830381865afa158015610e50573d5f5f3e3d5ffd5b505050506040513d601f19601f82011682018060405250810190610e749190611f7c565b925050505b9392505050565b5f610e8a82610989565b90505f610434826001610a27565b60605f610ea86004828587611d29565b610eb191611d50565b9050630e9b51bf60e11b6001600160e01b0319821601610eec57610ee5610edb8460048188611d29565b8a8c8b8b8b610f88565b9150610f50565b63f812dc8760e01b6001600160e01b0319821601610f1e57610ee5610f148460048188611d29565b8a8c8b8b8b6114ac565b633b29ad5160e01b6001600160e01b031982160161090857610ee5610f468460048188611d29565b8a8c8b8b8b61164d565b815115610f7c578082604051602001610f6a929190611f93565b60405160208183030381529060405291505b50979650505050505050565b60605f80808080610f9b8c8e018e611d88565b945094509450945094505f5f610fb0836117d5565b90506002816002811115610fc657610fc6611b57565b036111615760ff60d084901c81169060d885901c165f610fe5826117ec565b9050825f0361105d576040516387cb4f5760e01b8152600481018390526001600160a01b038716906387cb4f57906024015b602060405180830381865afa158015611032573d5f5f3e3d5ffd5b505050506040513d601f19601f820116820180604052508101906110569190611fbe565b9450611159565b826004036110ad576001600160a01b0386166323746eb86110866001600160801b038416611828565b6040516001600160e01b031960e084901b168152600f9190910b6004820152602401611017565b826008036110e25760405163c661065760e01b8152600481018390526001600160a01b0387169063c661065790602401611017565b82600c0361110b576001600160a01b03861663b739953e6110866001600160801b038416611828565b8260100361114057604051630b9947eb60e41b8152600481018390526001600160a01b0387169063b9947eb090602401611017565b604051632a3b8b8360e11b815260040160405180910390fd5b505050611294565b5f6001600160a01b0384166001600160a01b0316630dfe16816040518163ffffffff1660e01b8152600401602060405180830381865afa1580156111a7573d5f5f3e3d5ffd5b505050506040513d601f19601f820116820180604052508101906111cb9190611fbe565b90505f6001600160a01b0385166001600160a01b031663d21220a76040518163ffffffff1660e01b8152600401602060405180830381865afa158015611213573d5f5f3e3d5ffd5b505050506040513d601f19601f820116820180604052508101906112379190611fbe565b90506001600160a01b0388811690831681900361125657819450611290565b806001600160a01b0316826001600160a01b03160361127757829450611290565b604051630374f15d60e31b815260040160405180910390fd5b5050505b61129d8361185c565b156112ba5773eeeeeeeeeeeeeeeeeeeeeeeeeeeeeeeeeeeeeeee91505b88156113b9576040516381cbe69160e01b81526001600160a01b038b811660048301528691908d16906381cbe69190602401602060405180830381865afa158015611307573d5f5f3e3d5ffd5b505050506040513d601f19601f8201168201806040525081019061132b9190611f7c565b95508086146113b75780861115611376575f61135461134a8389611d16565b620186a08461186b565b90506113648682620186a061186b565b61136e9087611ca7565b9550506113b7565b5f61138461134a8884611d16565b90505f6113958783620186a061186b565b9050868111156113a7575f96506113b4565b6113b18188611d16565b96505b50505b505b845f036113d95760405163324dfcff60e11b815260040160405180910390fd5b835f036113f9576040516385b1b8ff60e01b815260040160405180910390fd5b816001600160a01b03168c6001600160a01b03161461142b57604051630912106360e41b815260040160405180910390fd5b6001600160a01b03878116908e16811461145857604051632b0ddb9160e01b815260040160405180910390fd5b89156114995760408051602081018a9052908101889052606081018790526080810186905260a0810185905260c00160405160208183030381529060405298505b5050505050505050979650505050505050565b60605f80806114bd8a8c018c611dbf565b92509250925060018260c00151165f146114ea5760405163bfc016d560e01b815260040160405180910390fd5b876001600160a01b031682602001516001600160a01b03161461152057604051630912106360e41b815260040160405180910390fd5b886001600160a01b031682606001516001600160a01b03161461155657604051632b0ddb9160e01b815260040160405180910390fd5b84156115ca576040516381cbe69160e01b81526001600160a01b0387811660048301528816906381cbe69190602401602060405180830381865afa1580156115a0573d5f5f3e3d5ffd5b505050506040513d601f19601f820116820180604052508101906115c49190611f7c565b60808301525b81608001515f036115ee5760405163324dfcff60e11b815260040160405180910390fd5b8160a001515f03611612576040516385b1b8ff60e01b815260040160405180910390fd5b841561163f5782828260405160200161162d93929190611fd9565b60405160208183030381529060405293505b505050979650505050505050565b60605f80808061165f8b8d018d611e96565b50505095509550955050945050896001600160a01b0316846001600160a01b03161461169e57604051632b0ddb9160e01b815260040160405180910390fd5b886001600160a01b0316836001600160a01b0316146116d057604051630912106360e41b815260040160405180910390fd5b8515611741576040516381cbe69160e01b81526001600160a01b0388811660048301528916906381cbe69190602401602060405180830381865afa15801561171a573d5f5f3e3d5ffd5b505050506040513d601f19601f8201168201806040525081019061173e9190611f7c565b91505b815f036117615760405163324dfcff60e11b815260040160405180910390fd5b805f03611781576040516385b1b8ff60e01b815260040160405180910390fd5b85156117c6578b8b8080601f0160208091040260200160405190810160405280939291908181526020018383808284375f9201919091525050505060a0810183905294505b50505050979650505050505050565b5f60fd82901c60028111156106dd576106dd611b57565b5f6001600160801b03821115611824576040516306dfcc6560e41b815260806004820152602481018390526044015b60405180910390fd5b5090565b80600f81900b81146118575760405163327269a760e01b8152608060048201526024810183905260440161181b565b919050565b5f600160fc1b821615156106dd565b5f5f5f611878868661191b565b91509150815f0361189c5783818161189257611892612068565b0492505050610e79565b8184116118b3576118b36003851502601118611937565b5f848688095f868103871696879004966002600389028118808a02820302808a02820302808a02820302808a02820302808a02820302808a02909103029181900381900460010185841190960395909502919093039390930492909217029150509392505050565b5f805f1983850993909202808410938190039390930393915050565b634e487b715f52806020526024601cfd5b6001600160a01b0381168114610cea575f5ffd5b5f5f83601f84011261196c575f5ffd5b50813567ffffffffffffffff811115611983575f5ffd5b60208301915083602082850101111561199a575f5ffd5b9250929050565b5f5f5f5f606085870312156119b4575f5ffd5b84356119bf81611948565b935060208501356119cf81611948565b9250604085013567ffffffffffffffff8111156119ea575f5ffd5b6119f68782880161195c565b95989497509550505050565b5f60208284031215611a12575f5ffd5b8135610e7981611948565b5f5f60408385031215611a2e575f5ffd5b823591506020830135611a4081611948565b809150509250929050565b5f81518084528060208401602086015e5f602082860101526020601f19601f83011685010191505092915050565b5f602082016020835280845180835260408501915060408160051b8601019250602086015f5b82811015611afa57868503603f19018452815180516001600160a01b0316865260208082015190870152604090810151606091870182905290611ae490870182611a4b565b9550506020938401939190910190600101611a9f565b50929695505050505050565b5f5f60208385031215611b17575f5ffd5b823567ffffffffffffffff811115611b2d575f5ffd5b611b398582860161195c565b90969095509350505050565b602081525f610e796020830184611a4b565b634e487b7160e01b5f52602160045260245ffd5b6020810160038310611b8b57634e487b7160e01b5f52602160045260245ffd5b91905290565b634e487b7160e01b5f52604160045260245ffd5b60405160e0810167ffffffffffffffff81118282101715611bc857611bc8611b91565b60405290565b5f82601f830112611bdd575f5ffd5b813567ffffffffffffffff811115611bf757611bf7611b91565b604051601f8201601f19908116603f0116810167ffffffffffffffff81118282101715611c2657611c26611b91565b604052818152838201602001851015611c3d575f5ffd5b816020850160208301375f918101602001919091529392505050565b5f60208284031215611c69575f5ffd5b813567ffffffffffffffff811115611c7f575f5ffd5b611c8b84828501611bce565b949350505050565b634e487b7160e01b5f52601160045260245ffd5b808201808211156106dd576106dd611c93565b6001600160a01b038581168252841660208201526060604082018190528101829052818360808301375f818301608090810191909152601f909201601f191601019392505050565b634e487b7160e01b5f52603260045260245ffd5b818103818111156106dd576106dd611c93565b5f5f85851115611d37575f5ffd5b83861115611d43575f5ffd5b5050820193919092039150565b80356001600160e01b03198116906004841015611d81576001600160e01b0319600485900360031b81901b82161691505b5092915050565b5f5f5f5f5f60a08688031215611d9c575f5ffd5b505083359560208501359550604085013594606081013594506080013592509050565b5f5f5f838503610120811215611dd3575f5ffd5b8435611dde81611948565b935060e0601f1982011215611df1575f5ffd5b50611dfa611ba5565b6020850135611e0881611948565b81526040850135611e1881611948565b60208201526060850135611e2b81611948565b60408201526080850135611e3e81611948565b606082015260a085810135608083015260c0808701359183019190915260e086013590820152915061010084013567ffffffffffffffff811115611e80575f5ffd5b611e8c86828701611bce565b9150509250925092565b5f5f5f5f5f5f5f5f5f6101208a8c031215611eaf575f5ffd5b8935611eba81611948565b985060208a0135611eca81611948565b975060408a0135965060608a0135611ee181611948565b989b979a50959860808101359760a0820135975060c0820135965060e08201359550610100909101359350915050565b5f60018201611f2257611f22611c93565b5060010190565b80356001600160601b03198116906014841015611d81576001600160601b031960149490940360031b84901b1690921692915050565b803560208310156106dd575f19602084900360031b1b1692915050565b5f60208284031215611f8c575f5ffd5b5051919050565b6001600160e01b03198316815281515f908060208501600485015e5f92016004019182525092915050565b5f60208284031215611fce575f5ffd5b8151610e7981611948565b60018060a01b038416815260018060a01b03835116602082015260018060a01b03602084015116604082015260018060a01b03604084015116606082015260018060a01b036060840151166080820152608083015160a082015260a083015160c082015260c083015160e08201526101206101008201525f61205f610120830184611a4b565b95945050505050565b634e487b7160e01b5f52601260045260245ffdfea164736f6c634300081e000a","linkReferences":{}},"methodIdentifiers":{"NATIVE()":"a0cf0aea","aggregationRouter()":"fcdfd946","asset()":"38d52e0f","build(address,address,bytes)":"3b5896bc","decodeUsePrevHookAmount(bytes)":"e7745517","executionNonce()":"01bd43ef","getOutAmount(address)":"81cbe691","hookType()":"e445e7dd","inspect(bytes)":"8c4313c1","lastCaller()":"2113522a","postExecute(address,address,bytes)":"05b4fe91","postExecuteMutex()":"60b5be29","preExecute(address,address,bytes)":"2ae2fe3d","preExecuteMutex()":"84542a24","resetExecutionState(address)":"d06a1e89","setExecutionContext(address)":"14cb37cf","setOutAmount(uint256,address)":"1f264619","spToken()":"8e148776","subType()":"cf0a6181","subtype()":"5492e677","usedShares()":"685a943c"},"id":366}