{"abi":[{"type":"constructor","inputs":[],"stateMutability":"nonpayable"},{"type":"function","name":"asset","inputs":[],"outputs":[{"name":"","type":"address","internalType":"address"}],"stateMutability":"view"},{"type":"function","name":"build","inputs":[{"name":"prevHook","type":"address","internalType":"address"},{"name":"account","type":"address","internalType":"address"},{"name":"hookData","type":"bytes","internalType":"bytes"}],"outputs":[{"name":"executions","type":"tuple[]","internalType":"struct Execution[]","components":[{"name":"target","type":"address","internalType":"address"},{"name":"value","type":"uint256","internalType":"uint256"},{"name":"callData","type":"bytes","internalType":"bytes"}]}],"stateMutability":"view"},{"type":"function","name":"decodeUsePrevHookAmount","inputs":[{"name":"data","type":"bytes","internalType":"bytes"}],"outputs":[{"name":"","type":"bool","internalType":"bool"}],"stateMutability":"pure"},{"type":"function","name":"executionNonce","inputs":[],"outputs":[{"name":"","type":"uint256","internalType":"uint256"}],"stateMutability":"view"},{"type":"function","name":"getOutAmount","inputs":[{"name":"caller","type":"address","internalType":"address"}],"outputs":[{"name":"","type":"uint256","internalType":"uint256"}],"stateMutability":"view"},{"type":"function","name":"hookType","inputs":[],"outputs":[{"name":"","type":"uint8","internalType":"enum ISuperHook.HookType"}],"stateMutability":"view"},{"type":"function","name":"inspect","inputs":[{"name":"data","type":"bytes","internalType":"bytes"}],"outputs":[{"name":"","type":"bytes","internalType":"bytes"}],"stateMutability":"pure"},{"type":"function","name":"lastCaller","inputs":[],"outputs":[{"name":"","type":"address","internalType":"address"}],"stateMutability":"view"},{"type":"function","name":"postExecute","inputs":[{"name":"prevHook","type":"address","internalType":"address"},{"name":"account","type":"address","internalType":"address"},{"name":"data","type":"bytes","internalType":"bytes"}],"outputs":[],"stateMutability":"nonpayable"},{"type":"function","name":"postExecuteMutex","inputs":[],"outputs":[{"name":"","type":"bool","internalType":"bool"}],"stateMutability":"view"},{"type":"function","name":"preExecute","inputs":[{"name":"prevHook","type":"address","internalType":"address"},{"name":"account","type":"address","internalType":"address"},{"name":"data","type":"bytes","internalType":"bytes"}],"outputs":[],"stateMutability":"nonpayable"},{"type":"function","name":"preExecuteMutex","inputs":[],"outputs":[{"name":"","type":"bool","internalType":"bool"}],"stateMutability":"view"},{"type":"function","name":"resetExecutionState","inputs":[{"name":"caller","type":"address","internalType":"address"}],"outputs":[],"stateMutability":"nonpayable"},{"type":"function","name":"setExecutionContext","inputs":[{"name":"caller","type":"address","internalType":"address"}],"outputs":[],"stateMutability":"nonpayable"},{"type":"function","name":"setOutAmount","inputs":[{"name":"_outAmount","type":"uint256","internalType":"uint256"},{"name":"caller","type":"address","internalType":"address"}],"outputs":[],"stateMutability":"nonpayable"},{"type":"function","name":"spToken","inputs":[],"outputs":[{"name":"","type":"address","internalType":"address"}],"stateMutability":"view"},{"type":"function","name":"subType","inputs":[],"outputs":[{"name":"","type":"bytes32","internalType":"bytes32"}],"stateMutability":"view"},{"type":"function","name":"subtype","inputs":[],"outputs":[{"name":"","type":"bytes32","internalType":"bytes32"}],"stateMutability":"view"},{"type":"function","name":"usedShares","inputs":[],"outputs":[{"name":"","type":"uint256","internalType":"uint256"}],"stateMutability":"view"},{"type":"error","name":"ADDRESS_NOT_VALID","inputs":[]},{"type":"error","name":"AMOUNT_NOT_VALID","inputs":[]},{"type":"error","name":"CANNOT_SET_OUT_AMOUNT","inputs":[]},{"type":"error","name":"INCOMPLETE_HOOK_EXECUTION","inputs":[]},{"type":"error","name":"NOT_AUTHORIZED","inputs":[]},{"type":"error","name":"POST_EXECUTE_ALREADY_CALLED","inputs":[]},{"type":"error","name":"PRE_EXECUTE_ALREADY_CALLED","inputs":[]},{"type":"error","name":"UNAUTHORIZED_CALLER","inputs":[]}],"bytecode":{"object":"0x60a0604052348015600e575f5ffd5b506040805180820190915260058152642a37b5b2b760d91b6020909101525f805460ff191690557f1317f51c845ce3bfb7c268e5337a825f12f3d0af9584c2bbfbf4e64e314eaf736080526080516111b06100785f395f81816101e8015261029201526111b05ff3fe608060405234801561000f575f5ffd5b506004361061011c575f3560e01c806360b5be29116100a95780638e1487761161006e5780638e1487761461027b578063cf0a61811461028d578063d06a1e89146102b4578063e445e7dd146102c7578063e7745517146102e0575f5ffd5b806360b5be291461020c578063685a943c1461022e57806381cbe6911461023657806384542a24146102495780638c4313c11461025b575f5ffd5b80632113522a116100ef5780632113522a146101775780632ae2fe3d146101a157806338d52e0f146101b45780633b5896bc146101c65780635492e677146101e6575f5ffd5b806301bd43ef1461012057806305b4fe911461013c57806314cb37cf146101515780631f26461914610164575b5f5ffd5b61012960035c81565b6040519081526020015b60405180910390f35b61014f61014a366004610e3e565b6102f3565b005b61014f61015f366004610e9b565b61036d565b61014f610172366004610ebb565b61038e565b6101896001600160a01b0360045c1681565b6040516001600160a01b039091168152602001610133565b61014f6101af366004610e3e565b6103e7565b6101896001600160a01b0360025c1681565b6101d96101d4366004610e3e565b61045a565b6040516101339190610f13565b7f0000000000000000000000000000000000000000000000000000000000000000610129565b61021e60ff600160a81b60025c041681565b6040519015158152602001610133565b6101295f5c81565b610129610244366004610e9b565b610673565b61021e60ff600160a01b60025c041681565b61026e610269366004610fa0565b61068b565b6040516101339190610fdf565b6101896001600160a01b0360015c1681565b6101297f000000000000000000000000000000000000000000000000000000000000000081565b61014f6102c2366004610e9b565b61074d565b5f546102d39060ff1681565b6040516101339190610ff1565b61021e6102ee36600461102b565b61079f565b336001600160a01b0384161461031c5760405163e15e56c960e01b815260040160405180910390fd5b5f610326846107ab565b9050610331816107be565b1561034f5760405163945b63f560e01b815260040160405180910390fd5b61035a8160016107cb565b610366858585856107e1565b5050505050565b61037681610841565b50336004805c6001600160a01b0319168217905d5050565b5f610398826107ab565b90506103a381610873565b806103b257506103b2816107be565b156103d05760405163441e4c7360e11b815260040160405180910390fd5b5f6103dc82600161087c565b905083815d50505050565b336001600160a01b038416146104105760405163e15e56c960e01b815260040160405180910390fd5b5f61041a846107ab565b905061042581610873565b1561044357604051630bbb04d960e11b815260040160405180910390fd5b61044e8160016108d1565b610366858585856108dd565b60605f6104698686868661091e565b90508051600261047991906110f2565b67ffffffffffffffff81111561049157610491611017565b6040519080825280602002602001820160405280156104dd57816020015b60408051606080820183525f8083526020830152918101919091528152602001906001900390816104af5790505b5091506040518060600160405280306001600160a01b031681526020015f8152602001306001600160a01b0316632ae2fe3d898989896040516024016105269493929190611105565b604051602081830303815290604052915060e01b6020820180516001600160e01b038381831617835250505050815250825f815181106105685761056861114d565b60209081029190910101525f5b81518110156105c9578181815181106105905761059061114d565b6020026020010151838260016105a691906110f2565b815181106105b6576105b661114d565b6020908102919091010152600101610575565b506040518060600160405280306001600160a01b031681526020015f8152602001306001600160a01b03166305b4fe91898989896040516024016106109493929190611105565b604051602081830303815290604052915060e01b6020820180516001600160e01b038381831617835250505050815250826001845161064f9190611161565b8151811061065f5761065f61114d565b602002602001018190525050949350505050565b5f610685610680836107ab565b610bb6565b92915050565b60606106cb83838080601f0160208091040260200160405190810160405280939291908181526020018383808284375f9201829052509250610bc3915050565b61070c84848080601f0160208091040260200160405190810160405280939291908181526020018383808284375f9201919091525060149250610bc3915050565b6040516bffffffffffffffffffffffff19606093841b811660208301529190921b166034820152604801604051602081830303815290604052905092915050565b5f610757826107ab565b905061076281610873565b15806107745750610772816107be565b155b1561079257604051634bd439b560e11b815260040160405180910390fd5b61079b81610c2c565b5050565b5f610685826048610c43565b5f5f6107b683610c6f565b5c9392505050565b5f5f6107b683600361087c565b5f6107d783600361087c565b905081815d505050565b61083b6107ed84610673565b61082b84848080601f0160208091040260200160405190810160405280939291908181526020018383808284375f92019190915250610cdb92505050565b6108359190611161565b84610d69565b50505050565b5f6003805c908261085183611174565b9190505d505f61086083610c6f565b905060035c80825d505060035c92915050565b5f5f6107b68360025b604080517fc41a07c57a776f6217c6d4278dfe7a5d114742afe55627ce458c2802aa4d703460208083019190915281830194909452606080820193909352815180820390930183526080019052805191012090565b5f6107d783600261087c565b61083b61083583838080601f0160208091040260200160405190810160405280939291908181526020018383808284375f92019190915250610cdb92505050565b60605f61095f84848080601f0160208091040260200160405190810160405280939291908181526020018383808284375f9201829052509250610bc3915050565b90505f6109a385858080601f0160208091040260200160405190810160405280939291908181526020018383808284375f9201919091525060149250610bc3915050565b90505f6109e786868080601f0160208091040260200160405190810160405280939291908181526020018383808284375f9201919091525060289250610d81915050565b90505f610a2b87878080601f0160208091040260200160405190810160405280939291908181526020018383808284375f9201919091525060489250610c43915050565b90508015610a9e576040516381cbe69160e01b81526001600160a01b0389811660048301528a16906381cbe69190602401602060405180830381865afa158015610a77573d5f5f3e3d5ffd5b505050506040513d601f19601f82011682018060405250810190610a9b919061118c565b91505b815f03610abe576040516305112ab160e41b815260040160405180910390fd5b6001600160a01b038416610ae557604051630f58648f60e01b815260040160405180910390fd5b60408051600180825281830190925290816020015b60408051606080820183525f808352602083015291810191909152815260200190600190039081610afa57905050604080516060810182526001600160a01b0380881682525f60208301528251908716602482015260448101869052929750919082019060640160408051601f198184030181529190526020810180516001600160e01b031663a9059cbb60e01b1790529052855186905f90610b9f57610b9f61114d565b602002602001018190525050505050949350505050565b5f5f6107b683600161087c565b5f610bcf8260146110f2565b83511015610c1c5760405162461bcd60e51b8152602060048201526015602482015274746f416464726573735f6f75744f66426f756e647360581b60448201526064015b60405180910390fd5b500160200151600160601b900490565b610c36815f6108d1565b610c40815f6107cb565b50565b5f828281518110610c5657610c5661114d565b01602001516001600160f81b0319161515905092915050565b5f7f8ce092d4869bdfa1a1ce579ddddb2b776c39ace5d7b5d7e70e97ece2a78f4f9b82604051602001610cbe92919091825260601b6bffffffffffffffffffffffff1916602082015260340190565b604051602081830303815290604052805190602001209050919050565b5f5f610ce7835f610bc3565b90505f610cf5846014610bc3565b6040516370a0823160e01b81526001600160a01b038083166004830152919250908316906370a0823190602401602060405180830381865afa158015610d3d573d5f5f3e3d5ffd5b505050506040513d601f19601f82011682018060405250810190610d61919061118c565b949350505050565b5f610d73826107ab565b90505f6103dc82600161087c565b5f610d8d8260206110f2565b83511015610dd55760405162461bcd60e51b8152602060048201526015602482015274746f55696e743235365f6f75744f66426f756e647360581b6044820152606401610c13565b50016020015190565b80356001600160a01b0381168114610df4575f5ffd5b919050565b5f5f83601f840112610e09575f5ffd5b50813567ffffffffffffffff811115610e20575f5ffd5b602083019150836020828501011115610e37575f5ffd5b9250929050565b5f5f5f5f60608587031215610e51575f5ffd5b610e5a85610dde565b9350610e6860208601610dde565b9250604085013567ffffffffffffffff811115610e83575f5ffd5b610e8f87828801610df9565b95989497509550505050565b5f60208284031215610eab575f5ffd5b610eb482610dde565b9392505050565b5f5f60408385031215610ecc575f5ffd5b82359150610edc60208401610dde565b90509250929050565b5f81518084528060208401602086015e5f602082860101526020601f19601f83011685010191505092915050565b5f602082016020835280845180835260408501915060408160051b8601019250602086015f5b82811015610f9457868503603f19018452815180516001600160a01b0316865260208082015190870152604090810151606091870182905290610f7e90870182610ee5565b9550506020938401939190910190600101610f39565b50929695505050505050565b5f5f60208385031215610fb1575f5ffd5b823567ffffffffffffffff811115610fc7575f5ffd5b610fd385828601610df9565b90969095509350505050565b602081525f610eb46020830184610ee5565b602081016003831061101157634e487b7160e01b5f52602160045260245ffd5b91905290565b634e487b7160e01b5f52604160045260245ffd5b5f6020828403121561103b575f5ffd5b813567ffffffffffffffff811115611051575f5ffd5b8201601f81018413611061575f5ffd5b803567ffffffffffffffff81111561107b5761107b611017565b604051601f8201601f19908116603f0116810167ffffffffffffffff811182821017156110aa576110aa611017565b6040528181528282016020018610156110c1575f5ffd5b816020840160208301375f91810160200191909152949350505050565b634e487b7160e01b5f52601160045260245ffd5b80820180821115610685576106856110de565b6001600160a01b038581168252841660208201526060604082018190528101829052818360808301375f818301608090810191909152601f909201601f191601019392505050565b634e487b7160e01b5f52603260045260245ffd5b81810381811115610685576106856110de565b5f60018201611185576111856110de565b5060010190565b5f6020828403121561119c575f5ffd5b505191905056fea164736f6c634300081e000a","linkReferences":{}},"methodIdentifiers":{"asset()":"38d52e0f","build(address,address,bytes)":"3b5896bc","decodeUsePrevHookAmount(bytes)":"e7745517","executionNonce()":"01bd43ef","getOutAmount(address)":"81cbe691","hookType()":"e445e7dd","inspect(bytes)":"8c4313c1","lastCaller()":"2113522a","postExecute(address,address,bytes)":"05b4fe91","postExecuteMutex()":"60b5be29","preExecute(address,address,bytes)":"2ae2fe3d","preExecuteMutex()":"84542a24","resetExecutionState(address)":"d06a1e89","setExecutionContext(address)":"14cb37cf","setOutAmount(uint256,address)":"1f264619","spToken()":"8e148776","subType()":"cf0a6181","subtype()":"5492e677","usedShares()":"685a943c"},"id":376}