{"abi":[{"type":"constructor","inputs":[],"stateMutability":"nonpayable"},{"type":"function","name":"asset","inputs":[],"outputs":[{"name":"","type":"address","internalType":"address"}],"stateMutability":"view"},{"type":"function","name":"build","inputs":[{"name":"prevHook","type":"address","internalType":"address"},{"name":"account","type":"address","internalType":"address"},{"name":"hookData","type":"bytes","internalType":"bytes"}],"outputs":[{"name":"executions","type":"tuple[]","internalType":"struct Execution[]","components":[{"name":"target","type":"address","internalType":"address"},{"name":"value","type":"uint256","internalType":"uint256"},{"name":"callData","type":"bytes","internalType":"bytes"}]}],"stateMutability":"view"},{"type":"function","name":"decodeAmount","inputs":[{"name":"data","type":"bytes","internalType":"bytes"}],"outputs":[{"name":"","type":"uint256","internalType":"uint256"}],"stateMutability":"pure"},{"type":"function","name":"decodeUsePrevHookAmount","inputs":[{"name":"data","type":"bytes","internalType":"bytes"}],"outputs":[{"name":"","type":"bool","internalType":"bool"}],"stateMutability":"pure"},{"type":"function","name":"executionNonce","inputs":[],"outputs":[{"name":"","type":"uint256","internalType":"uint256"}],"stateMutability":"view"},{"type":"function","name":"getOutAmount","inputs":[{"name":"caller","type":"address","internalType":"address"}],"outputs":[{"name":"","type":"uint256","internalType":"uint256"}],"stateMutability":"view"},{"type":"function","name":"hookType","inputs":[],"outputs":[{"name":"","type":"uint8","internalType":"enum ISuperHook.HookType"}],"stateMutability":"view"},{"type":"function","name":"inspect","inputs":[{"name":"data","type":"bytes","internalType":"bytes"}],"outputs":[{"name":"","type":"bytes","internalType":"bytes"}],"stateMutability":"pure"},{"type":"function","name":"lastCaller","inputs":[],"outputs":[{"name":"","type":"address","internalType":"address"}],"stateMutability":"view"},{"type":"function","name":"postExecute","inputs":[{"name":"prevHook","type":"address","internalType":"address"},{"name":"account","type":"address","internalType":"address"},{"name":"data","type":"bytes","internalType":"bytes"}],"outputs":[],"stateMutability":"nonpayable"},{"type":"function","name":"postExecuteMutex","inputs":[],"outputs":[{"name":"","type":"bool","internalType":"bool"}],"stateMutability":"view"},{"type":"function","name":"preExecute","inputs":[{"name":"prevHook","type":"address","internalType":"address"},{"name":"account","type":"address","internalType":"address"},{"name":"data","type":"bytes","internalType":"bytes"}],"outputs":[],"stateMutability":"nonpayable"},{"type":"function","name":"preExecuteMutex","inputs":[],"outputs":[{"name":"","type":"bool","internalType":"bool"}],"stateMutability":"view"},{"type":"function","name":"replaceCalldataAmount","inputs":[{"name":"data","type":"bytes","internalType":"bytes"},{"name":"amount","type":"uint256","internalType":"uint256"}],"outputs":[{"name":"","type":"bytes","internalType":"bytes"}],"stateMutability":"pure"},{"type":"function","name":"resetExecutionState","inputs":[{"name":"caller","type":"address","internalType":"address"}],"outputs":[],"stateMutability":"nonpayable"},{"type":"function","name":"setExecutionContext","inputs":[{"name":"caller","type":"address","internalType":"address"}],"outputs":[],"stateMutability":"nonpayable"},{"type":"function","name":"setOutAmount","inputs":[{"name":"_outAmount","type":"uint256","internalType":"uint256"},{"name":"caller","type":"address","internalType":"address"}],"outputs":[],"stateMutability":"nonpayable"},{"type":"function","name":"spToken","inputs":[],"outputs":[{"name":"","type":"address","internalType":"address"}],"stateMutability":"view"},{"type":"function","name":"subType","inputs":[],"outputs":[{"name":"","type":"bytes32","internalType":"bytes32"}],"stateMutability":"view"},{"type":"function","name":"subtype","inputs":[],"outputs":[{"name":"","type":"bytes32","internalType":"bytes32"}],"stateMutability":"view"},{"type":"function","name":"usedShares","inputs":[],"outputs":[{"name":"","type":"uint256","internalType":"uint256"}],"stateMutability":"view"},{"type":"error","name":"ADDRESS_NOT_VALID","inputs":[]},{"type":"error","name":"AMOUNT_NOT_VALID","inputs":[]},{"type":"error","name":"CANNOT_SET_OUT_AMOUNT","inputs":[]},{"type":"error","name":"INCOMPLETE_HOOK_EXECUTION","inputs":[]},{"type":"error","name":"NOT_AUTHORIZED","inputs":[]},{"type":"error","name":"POST_EXECUTE_ALREADY_CALLED","inputs":[]},{"type":"error","name":"PRE_EXECUTE_ALREADY_CALLED","inputs":[]},{"type":"error","name":"UNAUTHORIZED_CALLER","inputs":[]}],"bytecode":{"object":"0x60a0604052348015600e575f5ffd5b506040805180820190915260078152660455243373534360cc1b6020909101525f805460ff191660021790557fc518a1d423df5aa415a8180f6384c181bd18f2bc1b734ba3dd52cd98b9b5fb776080526080516114ed61007d5f395f818161021e01526102ce01526114ed5ff3fe608060405234801561000f575f5ffd5b5060043610610132575f3560e01c806360b5be29116100b45780638e148776116100795780638e148776146102a4578063ac440f72146102b6578063cf0a6181146102c9578063d06a1e89146102f0578063e445e7dd14610303578063e77455171461031c575f5ffd5b806360b5be2914610242578063685a943c1461026457806381cbe6911461026c57806384542a241461027f5780638c4313c114610291575f5ffd5b80632ae2fe3d116100fa5780632ae2fe3d146101b757806338d52e0f146101ca5780633a28b0ab146101dc5780633b5896bc146101fc5780635492e6771461021c575f5ffd5b806301bd43ef1461013657806305b4fe911461015257806314cb37cf146101675780631f2646191461017a5780632113522a1461018d575b5f5ffd5b61013f60035c81565b6040519081526020015b60405180910390f35b61016561016036600461110a565b61032f565b005b61016561017536600461116b565b6103a9565b61016561018836600461118d565b6103ca565b61019f6001600160a01b0360045c1681565b6040516001600160a01b039091168152602001610149565b6101656101c536600461110a565b610423565b61019f6001600160a01b0360025c1681565b6101ef6101ea36600461125a565b610496565b60405161014991906112ca565b61020f61020a36600461110a565b6104ad565b60405161014991906112dc565b7f000000000000000000000000000000000000000000000000000000000000000061013f565b61025460ff600160a81b60025c041681565b6040519015158152602001610149565b61013f5f5c81565b61013f61027a36600461116b565b6106c6565b61025460ff600160a01b60025c041681565b6101ef61029f366004611369565b6106d8565b61019f6001600160a01b0360015c1681565b61013f6102c43660046113a8565b610757565b61013f7f000000000000000000000000000000000000000000000000000000000000000081565b6101656102fe36600461116b565b610761565b5f5461030f9060ff1681565b60405161014991906113da565b61025461032a3660046113a8565b6107b3565b336001600160a01b038416146103585760405163e15e56c960e01b815260040160405180910390fd5b5f610362846107bf565b905061036d816107d2565b1561038b5760405163945b63f560e01b815260040160405180910390fd5b6103968160016107df565b6103a2858585856107f5565b5050505050565b6103b2816108a4565b50336004805c6001600160a01b0319168217905d5050565b5f6103d4826107bf565b90506103df816108d6565b806103ee57506103ee816107d2565b1561040c5760405163441e4c7360e11b815260040160405180910390fd5b5f6104188260016108df565b905083815d50505050565b336001600160a01b0384161461044c5760405163e15e56c960e01b815260040160405180910390fd5b5f610456846107bf565b9050610461816108d6565b1561047f57604051630bbb04d960e11b815260040160405180910390fd5b61048a816001610934565b6103a285858585610940565b60606104a483836034610b0b565b90505b92915050565b60605f6104bc86868686610ba1565b9050805160026104cc9190611414565b67ffffffffffffffff8111156104e4576104e46111bb565b60405190808252806020026020018201604052801561053057816020015b60408051606080820183525f8083526020830152918101919091528152602001906001900390816105025790505b5091506040518060600160405280306001600160a01b031681526020015f8152602001306001600160a01b0316632ae2fe3d898989896040516024016105799493929190611427565b604051602081830303815290604052915060e01b6020820180516001600160e01b038381831617835250505050815250825f815181106105bb576105bb61146f565b60209081029190910101525f5b815181101561061c578181815181106105e3576105e361146f565b6020026020010151838260016105f99190611414565b815181106106095761060961146f565b60209081029190910101526001016105c8565b506040518060600160405280306001600160a01b031681526020015f8152602001306001600160a01b03166305b4fe91898989896040516024016106639493929190611427565b604051602081830303815290604052915060e01b6020820180516001600160e01b03838183161783525050505081525082600184516106a29190611483565b815181106106b2576106b261146f565b602002602001018190525050949350505050565b5f6104a76106d3836107bf565b610e0c565b606061071883838080601f0160208091040260200160405190810160405280939291908181526020018383808284375f92019190915250610e1992505050565b604051602001610740919060609190911b6bffffffffffffffffffffffff1916815260140190565b604051602081830303815290604052905092915050565b5f6104a782610e25565b5f61076b826107bf565b9050610776816108d6565b15806107885750610786816107d2565b155b156107a657604051634bd439b560e11b815260040160405180910390fd5b6107af81610e31565b5050565b5f6104a7826054610e48565b5f5f6107ca83610e74565b5c9392505050565b5f5f6107ca8360036108df565b5f6107eb8360036108df565b905081815d505050565b610850610801846106c6565b6108408585858080601f0160208091040260200160405190810160405280939291908181526020018383808284375f92019190915250610ee092505050565b61084a9190611483565b84610f4e565b61088f8383838080601f0160208091040260200160405190810160405280939291908181526020018383808284375f92019190915250610f6692505050565b61089a905f5c611483565b805f5d5050505050565b5f6003805c90826108b483611496565b9190505d505f6108c383610e74565b905060035c80825d505060035c92915050565b5f5f6107ca8360025b604080517fc41a07c57a776f6217c6d4278dfe7a5d114742afe55627ce458c2802aa4d703460208083019190915281830194909452606080820193909352815180820390930183526080019052805191012090565b5f6107eb8360026108df565b5f61097f83838080601f0160208091040260200160405190810160405280939291908181526020018383808284375f92019190915250610e1992505050565b9050806001600160a01b03166338d52e0f6040518163ffffffff1660e01b8152600401602060405180830381865afa1580156109bd573d5f5f3e3d5ffd5b505050506040513d601f19601f820116820180604052508101906109e191906114ae565b6002805c6001600160a01b0319166001600160a01b03831617905d50610a45610a3f8585858080601f0160208091040260200160405190810160405280939291908181526020018383808284375f92019190915250610ee092505050565b85610f4e565b610a848484848080601f0160208091040260200160405190810160405280939291908181526020018383808284375f92019190915250610f6692505050565b805f5d50806001600160a01b031663a8d5fd656040518163ffffffff1660e01b8152600401602060405180830381865afa158015610ac4573d5f5f3e3d5ffd5b505050506040513d601f19601f82011682018060405250810190610ae891906114ae565b6001805c6001600160a01b0319166001600160a01b03831617905d505050505050565b60605f83604051602001610b2191815260200190565b60405160208183030381529060405290505f5b6020811015610b9757818181518110610b4f57610b4f61146f565b01602001516001600160f81b03191686610b698387611414565b81518110610b7957610b7961146f565b60200101906001600160f81b03191690815f1a905350600101610b34565b5093949350505050565b60605f610be284848080601f0160208091040260200160405190810160405280939291908181526020018383808284375f92019190915250610e1992505050565b90505f610c2385858080601f0160208091040260200160405190810160405280939291908181526020018383808284375f92019190915250610e2592505050565b90505f610c6786868080601f0160208091040260200160405190810160405280939291908181526020018383808284375f9201919091525060549250610e48915050565b90508015610cda576040516381cbe69160e01b81526001600160a01b0388811660048301528916906381cbe69190602401602060405180830381865afa158015610cb3573d5f5f3e3d5ffd5b505050506040513d601f19601f82011682018060405250810190610cd791906114c9565b91505b815f03610cfa576040516305112ab160e41b815260040160405180910390fd5b6001600160a01b0383161580610d1757506001600160a01b038716155b15610d3557604051630f58648f60e01b815260040160405180910390fd5b60408051600180825281830190925290816020015b60408051606080820183525f808352602083015291810191909152815260200190600190039081610d4a57905050604080516060810182526001600160a01b0380871682525f6020830152825160248101879052908b16604482018190526064820152929650919082019060840160408051601f198184030181529190526020810180516001600160e01b0316632d182be560e21b1790529052845185905f90610df657610df661146f565b6020026020010181905250505050949350505050565b5f5f6107ca8360016108df565b5f6104a7826020610feb565b5f6104a7826034611054565b610e3b815f610934565b610e45815f6107df565b50565b5f828281518110610e5b57610e5b61146f565b01602001516001600160f81b0319161515905092915050565b5f7f8ce092d4869bdfa1a1ce579ddddb2b776c39ace5d7b5d7e70e97ece2a78f4f9b82604051602001610ec392919091825260601b6bffffffffffffffffffffffff1916602082015260340190565b604051602081830303815290604052805190602001209050919050565b6040516370a0823160e01b81526001600160a01b0383811660048301525f9160025c909116906370a0823190602401602060405180830381865afa158015610f2a573d5f5f3e3d5ffd5b505050506040513d601f19601f820116820180604052508101906104a491906114c9565b5f610f58826107bf565b90505f6104188260016108df565b5f5f610f7183610e19565b60405163eaed1d0760e01b81525f60048201526001600160a01b0386811660248301529192509082169063eaed1d0790604401602060405180830381865afa158015610fbf573d5f5f3e3d5ffd5b505050506040513d601f19601f82011682018060405250810190610fe391906114c9565b949350505050565b5f610ff7826014611414565b835110156110445760405162461bcd60e51b8152602060048201526015602482015274746f416464726573735f6f75744f66426f756e647360581b60448201526064015b60405180910390fd5b500160200151600160601b900490565b5f611060826020611414565b835110156110a85760405162461bcd60e51b8152602060048201526015602482015274746f55696e743235365f6f75744f66426f756e647360581b604482015260640161103b565b50016020015190565b6001600160a01b0381168114610e45575f5ffd5b5f5f83601f8401126110d5575f5ffd5b50813567ffffffffffffffff8111156110ec575f5ffd5b602083019150836020828501011115611103575f5ffd5b9250929050565b5f5f5f5f6060858703121561111d575f5ffd5b8435611128816110b1565b93506020850135611138816110b1565b9250604085013567ffffffffffffffff811115611153575f5ffd5b61115f878288016110c5565b95989497509550505050565b5f6020828403121561117b575f5ffd5b8135611186816110b1565b9392505050565b5f5f6040838503121561119e575f5ffd5b8235915060208301356111b0816110b1565b809150509250929050565b634e487b7160e01b5f52604160045260245ffd5b5f82601f8301126111de575f5ffd5b813567ffffffffffffffff8111156111f8576111f86111bb565b604051601f8201601f19908116603f0116810167ffffffffffffffff81118282101715611227576112276111bb565b60405281815283820160200185101561123e575f5ffd5b816020850160208301375f918101602001919091529392505050565b5f5f6040838503121561126b575f5ffd5b823567ffffffffffffffff811115611281575f5ffd5b61128d858286016111cf565b95602094909401359450505050565b5f81518084528060208401602086015e5f602082860101526020601f19601f83011685010191505092915050565b602081525f6104a4602083018461129c565b5f602082016020835280845180835260408501915060408160051b8601019250602086015f5b8281101561135d57868503603f19018452815180516001600160a01b03168652602080820151908701526040908101516060918701829052906113479087018261129c565b9550506020938401939190910190600101611302565b50929695505050505050565b5f5f6020838503121561137a575f5ffd5b823567ffffffffffffffff811115611390575f5ffd5b61139c858286016110c5565b90969095509350505050565b5f602082840312156113b8575f5ffd5b813567ffffffffffffffff8111156113ce575f5ffd5b610fe3848285016111cf565b60208101600383106113fa57634e487b7160e01b5f52602160045260245ffd5b91905290565b634e487b7160e01b5f52601160045260245ffd5b808201808211156104a7576104a7611400565b6001600160a01b038581168252841660208201526060604082018190528101829052818360808301375f818301608090810191909152601f909201601f191601019392505050565b634e487b7160e01b5f52603260045260245ffd5b818103818111156104a7576104a7611400565b5f600182016114a7576114a7611400565b5060010190565b5f602082840312156114be575f5ffd5b8151611186816110b1565b5f602082840312156114d9575f5ffd5b505191905056fea164736f6c634300081e000a","linkReferences":{}},"methodIdentifiers":{"asset()":"38d52e0f","build(address,address,bytes)":"3b5896bc","decodeAmount(bytes)":"ac440f72","decodeUsePrevHookAmount(bytes)":"e7745517","executionNonce()":"01bd43ef","getOutAmount(address)":"81cbe691","hookType()":"e445e7dd","inspect(bytes)":"8c4313c1","lastCaller()":"2113522a","postExecute(address,address,bytes)":"05b4fe91","postExecuteMutex()":"60b5be29","preExecute(address,address,bytes)":"2ae2fe3d","preExecuteMutex()":"84542a24","replaceCalldataAmount(bytes,uint256)":"3a28b0ab","resetExecutionState(address)":"d06a1e89","setExecutionContext(address)":"14cb37cf","setOutAmount(uint256,address)":"1f264619","spToken()":"8e148776","subType()":"cf0a6181","subtype()":"5492e677","usedShares()":"685a943c"},"id":394}